{
  "_format": "hh-sol-artifact-1",
  "contractName": "StakeTONUpgrade3",
  "sourceName": "contracts/stake/StakeTONUpgrade3.sol",
  "abi": [
    {
      "inputs": [],
      "stateMutability": "nonpayable",
      "type": "constructor"
    },
    {
      "anonymous": false,
      "inputs": [
        {
          "indexed": true,
          "internalType": "bytes32",
          "name": "role",
          "type": "bytes32"
        },
        {
          "indexed": true,
          "internalType": "bytes32",
          "name": "previousAdminRole",
          "type": "bytes32"
        },
        {
          "indexed": true,
          "internalType": "bytes32",
          "name": "newAdminRole",
          "type": "bytes32"
        }
      ],
      "name": "RoleAdminChanged",
      "type": "event"
    },
    {
      "anonymous": false,
      "inputs": [
        {
          "indexed": true,
          "internalType": "bytes32",
          "name": "role",
          "type": "bytes32"
        },
        {
          "indexed": true,
          "internalType": "address",
          "name": "account",
          "type": "address"
        },
        {
          "indexed": true,
          "internalType": "address",
          "name": "sender",
          "type": "address"
        }
      ],
      "name": "RoleGranted",
      "type": "event"
    },
    {
      "anonymous": false,
      "inputs": [
        {
          "indexed": true,
          "internalType": "bytes32",
          "name": "role",
          "type": "bytes32"
        },
        {
          "indexed": true,
          "internalType": "address",
          "name": "account",
          "type": "address"
        },
        {
          "indexed": true,
          "internalType": "address",
          "name": "sender",
          "type": "address"
        }
      ],
      "name": "RoleRevoked",
      "type": "event"
    },
    {
      "anonymous": false,
      "inputs": [
        {
          "indexed": true,
          "internalType": "address",
          "name": "to",
          "type": "address"
        },
        {
          "indexed": false,
          "internalType": "uint256",
          "name": "tonAmount",
          "type": "uint256"
        },
        {
          "indexed": false,
          "internalType": "uint256",
          "name": "wtonAmount",
          "type": "uint256"
        },
        {
          "indexed": false,
          "internalType": "uint256",
          "name": "tosAmount",
          "type": "uint256"
        },
        {
          "indexed": false,
          "internalType": "uint256",
          "name": "tosBurnAmount",
          "type": "uint256"
        }
      ],
      "name": "TonWithdrawal",
      "type": "event"
    },
    {
      "anonymous": false,
      "inputs": [
        {
          "indexed": true,
          "internalType": "address",
          "name": "to",
          "type": "address"
        },
        {
          "indexed": false,
          "internalType": "uint256",
          "name": "tonAmount",
          "type": "uint256"
        },
        {
          "indexed": false,
          "internalType": "uint256",
          "name": "tosAmount",
          "type": "uint256"
        }
      ],
      "name": "Withdrawal",
      "type": "event"
    },
    {
      "inputs": [],
      "name": "ADMIN_ROLE",
      "outputs": [
        {
          "internalType": "bytes32",
          "name": "",
          "type": "bytes32"
        }
      ],
      "stateMutability": "view",
      "type": "function"
    },
    {
      "inputs": [],
      "name": "BURNER_ROLE",
      "outputs": [
        {
          "internalType": "bytes32",
          "name": "",
          "type": "bytes32"
        }
      ],
      "stateMutability": "view",
      "type": "function"
    },
    {
      "inputs": [],
      "name": "DEFAULT_ADMIN_ROLE",
      "outputs": [
        {
          "internalType": "bytes32",
          "name": "",
          "type": "bytes32"
        }
      ],
      "stateMutability": "view",
      "type": "function"
    },
    {
      "inputs": [],
      "name": "MINTER_ROLE",
      "outputs": [
        {
          "internalType": "bytes32",
          "name": "",
          "type": "bytes32"
        }
      ],
      "stateMutability": "view",
      "type": "function"
    },
    {
      "inputs": [],
      "name": "PROJECT_ADMIN_ROLE",
      "outputs": [
        {
          "internalType": "bytes32",
          "name": "",
          "type": "bytes32"
        }
      ],
      "stateMutability": "view",
      "type": "function"
    },
    {
      "inputs": [
        {
          "internalType": "address",
          "name": "account",
          "type": "address"
        }
      ],
      "name": "addAdmin",
      "outputs": [],
      "stateMutability": "nonpayable",
      "type": "function"
    },
    {
      "inputs": [],
      "name": "defiAddr",
      "outputs": [
        {
          "internalType": "address",
          "name": "",
          "type": "address"
        }
      ],
      "stateMutability": "view",
      "type": "function"
    },
    {
      "inputs": [],
      "name": "defiStatus",
      "outputs": [
        {
          "internalType": "uint256",
          "name": "",
          "type": "uint256"
        }
      ],
      "stateMutability": "view",
      "type": "function"
    },
    {
      "inputs": [],
      "name": "depositManager",
      "outputs": [
        {
          "internalType": "address",
          "name": "",
          "type": "address"
        }
      ],
      "stateMutability": "view",
      "type": "function"
    },
    {
      "inputs": [],
      "name": "endBlock",
      "outputs": [
        {
          "internalType": "uint256",
          "name": "",
          "type": "uint256"
        }
      ],
      "stateMutability": "view",
      "type": "function"
    },
    {
      "inputs": [],
      "name": "finalBalanceTON",
      "outputs": [
        {
          "internalType": "uint256",
          "name": "",
          "type": "uint256"
        }
      ],
      "stateMutability": "view",
      "type": "function"
    },
    {
      "inputs": [],
      "name": "finalBalanceWTON",
      "outputs": [
        {
          "internalType": "uint256",
          "name": "",
          "type": "uint256"
        }
      ],
      "stateMutability": "view",
      "type": "function"
    },
    {
      "inputs": [],
      "name": "fromTokamak",
      "outputs": [
        {
          "internalType": "uint256",
          "name": "",
          "type": "uint256"
        }
      ],
      "stateMutability": "view",
      "type": "function"
    },
    {
      "inputs": [
        {
          "internalType": "bytes32",
          "name": "role",
          "type": "bytes32"
        }
      ],
      "name": "getRoleAdmin",
      "outputs": [
        {
          "internalType": "bytes32",
          "name": "",
          "type": "bytes32"
        }
      ],
      "stateMutability": "view",
      "type": "function"
    },
    {
      "inputs": [
        {
          "internalType": "bytes32",
          "name": "role",
          "type": "bytes32"
        },
        {
          "internalType": "uint256",
          "name": "index",
          "type": "uint256"
        }
      ],
      "name": "getRoleMember",
      "outputs": [
        {
          "internalType": "address",
          "name": "",
          "type": "address"
        }
      ],
      "stateMutability": "view",
      "type": "function"
    },
    {
      "inputs": [
        {
          "internalType": "bytes32",
          "name": "role",
          "type": "bytes32"
        }
      ],
      "name": "getRoleMemberCount",
      "outputs": [
        {
          "internalType": "uint256",
          "name": "",
          "type": "uint256"
        }
      ],
      "stateMutability": "view",
      "type": "function"
    },
    {
      "inputs": [
        {
          "internalType": "address",
          "name": "user",
          "type": "address"
        }
      ],
      "name": "getUserStaked",
      "outputs": [
        {
          "internalType": "uint256",
          "name": "amount",
          "type": "uint256"
        },
        {
          "internalType": "uint256",
          "name": "claimedBlock",
          "type": "uint256"
        },
        {
          "internalType": "uint256",
          "name": "claimedAmount",
          "type": "uint256"
        },
        {
          "internalType": "uint256",
          "name": "releasedBlock",
          "type": "uint256"
        },
        {
          "internalType": "uint256",
          "name": "releasedAmount",
          "type": "uint256"
        },
        {
          "internalType": "uint256",
          "name": "releasedTOSAmount",
          "type": "uint256"
        },
        {
          "internalType": "bool",
          "name": "released",
          "type": "bool"
        }
      ],
      "stateMutability": "view",
      "type": "function"
    },
    {
      "inputs": [
        {
          "internalType": "bytes32",
          "name": "role",
          "type": "bytes32"
        },
        {
          "internalType": "address",
          "name": "account",
          "type": "address"
        }
      ],
      "name": "grantRole",
      "outputs": [],
      "stateMutability": "nonpayable",
      "type": "function"
    },
    {
      "inputs": [
        {
          "internalType": "bytes32",
          "name": "role",
          "type": "bytes32"
        },
        {
          "internalType": "address",
          "name": "account",
          "type": "address"
        }
      ],
      "name": "hasRole",
      "outputs": [
        {
          "internalType": "bool",
          "name": "",
          "type": "bool"
        }
      ],
      "stateMutability": "view",
      "type": "function"
    },
    {
      "inputs": [],
      "name": "infos",
      "outputs": [
        {
          "internalType": "address",
          "name": "",
          "type": "address"
        },
        {
          "internalType": "address",
          "name": "",
          "type": "address"
        },
        {
          "internalType": "uint256[3]",
          "name": "",
          "type": "uint256[3]"
        },
        {
          "internalType": "uint256",
          "name": "",
          "type": "uint256"
        },
        {
          "internalType": "uint256",
          "name": "",
          "type": "uint256"
        },
        {
          "internalType": "uint256",
          "name": "",
          "type": "uint256"
        }
      ],
      "stateMutability": "view",
      "type": "function"
    },
    {
      "inputs": [
        {
          "internalType": "address",
          "name": "account",
          "type": "address"
        }
      ],
      "name": "isAdmin",
      "outputs": [
        {
          "internalType": "bool",
          "name": "",
          "type": "bool"
        }
      ],
      "stateMutability": "view",
      "type": "function"
    },
    {
      "inputs": [],
      "name": "migratedL2",
      "outputs": [
        {
          "internalType": "bool",
          "name": "",
          "type": "bool"
        }
      ],
      "stateMutability": "view",
      "type": "function"
    },
    {
      "inputs": [],
      "name": "pauseProxy",
      "outputs": [
        {
          "internalType": "bool",
          "name": "",
          "type": "bool"
        }
      ],
      "stateMutability": "view",
      "type": "function"
    },
    {
      "inputs": [],
      "name": "paytoken",
      "outputs": [
        {
          "internalType": "address",
          "name": "",
          "type": "address"
        }
      ],
      "stateMutability": "view",
      "type": "function"
    },
    {
      "inputs": [
        {
          "internalType": "address",
          "name": "account",
          "type": "address"
        }
      ],
      "name": "removeAdmin",
      "outputs": [],
      "stateMutability": "nonpayable",
      "type": "function"
    },
    {
      "inputs": [
        {
          "internalType": "bytes32",
          "name": "role",
          "type": "bytes32"
        },
        {
          "internalType": "address",
          "name": "account",
          "type": "address"
        }
      ],
      "name": "renounceRole",
      "outputs": [],
      "stateMutability": "nonpayable",
      "type": "function"
    },
    {
      "inputs": [],
      "name": "requestNum",
      "outputs": [
        {
          "internalType": "uint256",
          "name": "",
          "type": "uint256"
        }
      ],
      "stateMutability": "view",
      "type": "function"
    },
    {
      "inputs": [
        {
          "internalType": "bytes32",
          "name": "role",
          "type": "bytes32"
        },
        {
          "internalType": "address",
          "name": "account",
          "type": "address"
        }
      ],
      "name": "revokeRole",
      "outputs": [],
      "stateMutability": "nonpayable",
      "type": "function"
    },
    {
      "inputs": [],
      "name": "rewardClaimedTotal",
      "outputs": [
        {
          "internalType": "uint256",
          "name": "",
          "type": "uint256"
        }
      ],
      "stateMutability": "view",
      "type": "function"
    },
    {
      "inputs": [],
      "name": "saleStartBlock",
      "outputs": [
        {
          "internalType": "uint256",
          "name": "",
          "type": "uint256"
        }
      ],
      "stateMutability": "view",
      "type": "function"
    },
    {
      "inputs": [],
      "name": "seigManager",
      "outputs": [
        {
          "internalType": "address",
          "name": "",
          "type": "address"
        }
      ],
      "stateMutability": "view",
      "type": "function"
    },
    {
      "inputs": [],
      "name": "stakeRegistry",
      "outputs": [
        {
          "internalType": "address",
          "name": "",
          "type": "address"
        }
      ],
      "stateMutability": "view",
      "type": "function"
    },
    {
      "inputs": [],
      "name": "startBlock",
      "outputs": [
        {
          "internalType": "uint256",
          "name": "",
          "type": "uint256"
        }
      ],
      "stateMutability": "view",
      "type": "function"
    },
    {
      "inputs": [],
      "name": "swapProxy",
      "outputs": [
        {
          "internalType": "address",
          "name": "",
          "type": "address"
        }
      ],
      "stateMutability": "view",
      "type": "function"
    },
    {
      "inputs": [],
      "name": "swappedAmountTOS",
      "outputs": [
        {
          "internalType": "uint256",
          "name": "",
          "type": "uint256"
        }
      ],
      "stateMutability": "view",
      "type": "function"
    },
    {
      "inputs": [],
      "name": "toTokamak",
      "outputs": [
        {
          "internalType": "uint256",
          "name": "",
          "type": "uint256"
        }
      ],
      "stateMutability": "view",
      "type": "function"
    },
    {
      "inputs": [],
      "name": "toUniswapWTON",
      "outputs": [
        {
          "internalType": "uint256",
          "name": "",
          "type": "uint256"
        }
      ],
      "stateMutability": "view",
      "type": "function"
    },
    {
      "inputs": [],
      "name": "tokamakLayer2",
      "outputs": [
        {
          "internalType": "address",
          "name": "",
          "type": "address"
        }
      ],
      "stateMutability": "view",
      "type": "function"
    },
    {
      "inputs": [],
      "name": "token",
      "outputs": [
        {
          "internalType": "address",
          "name": "",
          "type": "address"
        }
      ],
      "stateMutability": "view",
      "type": "function"
    },
    {
      "inputs": [],
      "name": "ton",
      "outputs": [
        {
          "internalType": "address",
          "name": "",
          "type": "address"
        }
      ],
      "stateMutability": "view",
      "type": "function"
    },
    {
      "inputs": [],
      "name": "totalStakedAmount",
      "outputs": [
        {
          "internalType": "uint256",
          "name": "",
          "type": "uint256"
        }
      ],
      "stateMutability": "view",
      "type": "function"
    },
    {
      "inputs": [],
      "name": "totalStakers",
      "outputs": [
        {
          "internalType": "uint256",
          "name": "",
          "type": "uint256"
        }
      ],
      "stateMutability": "view",
      "type": "function"
    },
    {
      "inputs": [
        {
          "internalType": "address",
          "name": "newAdmin",
          "type": "address"
        }
      ],
      "name": "transferAdmin",
      "outputs": [],
      "stateMutability": "nonpayable",
      "type": "function"
    },
    {
      "inputs": [
        {
          "internalType": "address",
          "name": "",
          "type": "address"
        }
      ],
      "name": "userStaked",
      "outputs": [
        {
          "internalType": "uint256",
          "name": "amount",
          "type": "uint256"
        },
        {
          "internalType": "uint256",
          "name": "claimedBlock",
          "type": "uint256"
        },
        {
          "internalType": "uint256",
          "name": "claimedAmount",
          "type": "uint256"
        },
        {
          "internalType": "uint256",
          "name": "releasedBlock",
          "type": "uint256"
        },
        {
          "internalType": "uint256",
          "name": "releasedAmount",
          "type": "uint256"
        },
        {
          "internalType": "uint256",
          "name": "releasedTOSAmount",
          "type": "uint256"
        },
        {
          "internalType": "bool",
          "name": "released",
          "type": "bool"
        }
      ],
      "stateMutability": "view",
      "type": "function"
    },
    {
      "inputs": [],
      "name": "vault",
      "outputs": [
        {
          "internalType": "address",
          "name": "",
          "type": "address"
        }
      ],
      "stateMutability": "view",
      "type": "function"
    },
    {
      "inputs": [],
      "name": "version",
      "outputs": [
        {
          "internalType": "string",
          "name": "",
          "type": "string"
        }
      ],
      "stateMutability": "pure",
      "type": "function"
    },
    {
      "inputs": [],
      "name": "withdraw",
      "outputs": [],
      "stateMutability": "nonpayable",
      "type": "function"
    },
    {
      "inputs": [],
      "name": "withdrawFlag",
      "outputs": [
        {
          "internalType": "bool",
          "name": "",
          "type": "bool"
        }
      ],
      "stateMutability": "view",
      "type": "function"
    },
    {
      "inputs": [],
      "name": "wton",
      "outputs": [
        {
          "internalType": "address",
          "name": "",
          "type": "address"
        }
      ],
      "stateMutability": "view",
      "type": "function"
    },
    {
      "stateMutability": "payable",
      "type": "receive"
    }
  ],
  "bytecode": "0x608060405234801561001057600080fd5b50612a81806100206000396000f3fe6080604052600436106102a25760003560e01c80637228532611610165578063acc3a939116100cc578063dac3fc3f11610085578063dac3fc3f14610727578063e09974b914610747578063e58e27471461075c578063e6a7bc8714610771578063fbfa77cf14610786578063fc0c546a1461079b578063fd7fa460146107b0576102c8565b8063acc3a93914610675578063b2d4d6a3146106a8578063ca15c873146106bd578063cc48b947146106dd578063d5391393146106f2578063d547741f14610707576102c8565b806391d148541161011e57806391d14854146105da57806392ea3b4c146105fa5780639a88be2f1461060f5780639d84ca3514610636578063a1f5f50e1461064b578063a217fddf14610660576102c8565b8063722853261461054657806375829def1461055b57806375b238fc1461057b57806386989038146105905780638d62d949146105a55780639010d07c146105ba576102c8565b806341c04d5e1161020957806368304835116101c257806368304835146104bd5780636c7ac9d8146104d25780636e7cf534146104e75780636ec4be90146104fc5780636fb7f558146105115780637048027514610526576102c8565b806341c04d5e1461042557806343b0934a1461043a57806348cd4cb11461045c57806354fd4d5014610471578063567e98f91461049357806363a8fd89146104a8576102c8565b8063248a9ca31161025b578063248a9ca31461036e57806324d7806c1461038e578063282c51f3146103bb5780632f2ff15d146103d057806336568abe146103f05780633ccfd60b14610410576102c8565b806305871b78146102cd578063083c6323146102f85780630ac8e0f31461030d5780630ea3d9c9146103225780631785f53c146103375780632002727514610359576102c8565b366102c85760405162461bcd60e51b81526004016102bf90612829565b60405180910390fd5b600080fd5b3480156102d957600080fd5b506102e26107c5565b6040516102ef91906123e0565b60405180910390f35b34801561030457600080fd5b506102e26107cb565b34801561031957600080fd5b506102e26107d1565b34801561032e57600080fd5b506102e26107d7565b34801561034357600080fd5b50610357610352366004612113565b6107dd565b005b34801561036557600080fd5b506102e261083c565b34801561037a57600080fd5b506102e26103893660046121c3565b610842565b34801561039a57600080fd5b506103ae6103a9366004612113565b61085a565b6040516102ef91906123d5565b3480156103c757600080fd5b506102e261087a565b3480156103dc57600080fd5b506103576103eb3660046121db565b61089e565b3480156103fc57600080fd5b5061035761040b3660046121db565b610905565b34801561041c57600080fd5b50610357610966565b34801561043157600080fd5b506102e26111fa565b34801561044657600080fd5b5061044f61121e565b6040516102ef9190612329565b34801561046857600080fd5b506102e261122d565b34801561047d57600080fd5b50610486611233565b6040516102ef9190612400565b34801561049f57600080fd5b506102e261125e565b3480156104b457600080fd5b506103ae611264565b3480156104c957600080fd5b5061044f61126d565b3480156104de57600080fd5b5061044f61127c565b3480156104f357600080fd5b506103ae61128b565b34801561050857600080fd5b5061044f611294565b34801561051d57600080fd5b5061044f6112a3565b34801561053257600080fd5b50610357610541366004612113565b6112b2565b34801561055257600080fd5b506102e261130e565b34801561056757600080fd5b50610357610576366004612113565b611314565b34801561058757600080fd5b506102e2611435565b34801561059c57600080fd5b506102e2611447565b3480156105b157600080fd5b5061044f61144d565b3480156105c657600080fd5b5061044f6105d536600461220a565b61145c565b3480156105e657600080fd5b506103ae6105f53660046121db565b61147b565b34801561060657600080fd5b5061044f611493565b34801561061b57600080fd5b506106246114a2565b6040516102ef96959493929190612370565b34801561064257600080fd5b5061044f6114f8565b34801561065757600080fd5b506103ae61150c565b34801561066c57600080fd5b506102e261151c565b34801561068157600080fd5b50610695610690366004612113565b611521565b6040516102ef97969594939291906128c1565b3480156106b457600080fd5b506102e2611561565b3480156106c957600080fd5b506102e26106d83660046121c3565b611567565b3480156106e957600080fd5b5061044f61157e565b3480156106fe57600080fd5b506102e261158d565b34801561071357600080fd5b506103576107223660046121db565b6115b1565b34801561073357600080fd5b50610695610742366004612113565b61160a565b34801561075357600080fd5b506102e2611653565b34801561076857600080fd5b506102e2611659565b34801561077d57600080fd5b506102e261165f565b34801561079257600080fd5b5061044f611665565b3480156107a757600080fd5b5061044f611674565b3480156107bc57600080fd5b506102e2611683565b60155481565b60065481565b60145481565b60165481565b6107e63361085a565b6108215760405162461bcd60e51b815260040180806020018281038252602281526020018061298a6022913960400191505060405180910390fd5b6108396000805160206129fd83398151915282610905565b50565b60045481565b6000818152601c60205260409020600201545b919050565b60006108746000805160206129fd8339815191528361147b565b92915050565b7f9667e80708b6eeeb0053fa0cca44e028ff548e2a9f029edfeac87c118b08b7c881565b6000828152601c60205260409020600201546108bc906105f5611689565b6108f75760405162461bcd60e51b815260040180806020018281038252602f81526020018061295b602f913960400191505060405180910390fd5b610901828261168d565b5050565b61090d611689565b6001600160a01b0316816001600160a01b03161461095c5760405162461bcd60e51b815260040180806020018281038252602f815260200180612a1d602f913960400191505060405180910390fd5b61090182826116f6565b6000600654118015610979575043600654105b6109955760405162461bcd60e51b81526004016102bf906127f6565b600080600080600160009054906101000a90046001600160a01b03166001600160a01b031663a782ebd56040518163ffffffff1660e01b815260040160a06040518083038186803b1580156109e957600080fd5b505afa1580156109fd573d6000803e3d6000fd5b505050506040513d601f19601f82011682018060405250810190610a21919061212f565b506001546040516364ab064960e11b815294985092965090945092506000916001600160a01b039091169063c9560c9290610a80907ffc9830c5c2efd1128a4cb08e284fbbc01df2e7a8d04c2693a27d16fb22473fb2906004016123e0565b60006040518083038186803b158015610a9857600080fd5b505afa158015610aac573d6000803e3d6000fd5b505050506040513d6000823e601f3d908101601f19168201604052610ad4919081019061222b565b509450505050506001600160a01b03851615801590610afb57506001600160a01b03841615155b8015610b0f57506001600160a01b03831615155b8015610b2357506001600160a01b03821615155b610b3f5760405162461bcd60e51b81526004016102bf9061269d565b6012546001600160a01b031615610c7e576012546040516367265c3b60e11b81526001600160a01b038481169263ce4cb87692610b8492909116903090600401612356565b60206040518083038186803b158015610b9c57600080fd5b505afa158015610bb0573d6000803e3d6000fd5b505050506040513d601f19601f82011682018060405250810190610bd4919061230e565b158015610c625750601254604051632638fdf560e01b81526001600160a01b0385811692632638fdf592610c1092909116903090600401612356565b60206040518083038186803b158015610c2857600080fd5b505afa158015610c3c573d6000803e3d6000fd5b505050506040513d601f19601f82011682018060405250810190610c60919061230e565b155b610c7e5760405162461bcd60e51b81526004016102bf90612433565b336000908152600960205260409020600681015460ff1615610cb25760405162461bcd60e51b81526004016102bf90612557565b601b5460ff16610ea157601b805460ff191660011790556002546001600160a01b039081169087161415610ea1576000546040516370a0823160e01b81526001600160a01b03909116906370a0823190610d10903090600401612329565b60206040518083038186803b158015610d2857600080fd5b505afa158015610d3c573d6000803e3d6000fd5b505050506040513d601f19601f82011682018060405250810190610d60919061230e565b6016556040516370a0823160e01b81526001600160a01b038616906370a0823190610d8f903090600401612329565b60206040518083038186803b158015610da757600080fd5b505afa158015610dbb573d6000803e3d6000fd5b505050506040513d601f19601f82011682018060405250810190610ddf919061230e565b6018556040516370a0823160e01b81526001600160a01b038716906370a0823190610e0e903090600401612329565b60206040518083038186803b158015610e2657600080fd5b505afa158015610e3a573d6000803e3d6000fd5b505050506040513d601f19601f82011682018060405250810190610e5e919061230e565b60178190556008546018549091610e8391610e7d90633b9aca0061175f565b906117a1565b1015610ea15760405162461bcd60e51b81526004016102bf9061276b565b805480610ec05760405162461bcd60e51b81526004016102bf9061247d565b43600383015560068201805460ff19166001908117909155600a54610ee4916117fb565b600a556002546001600160a01b03888116911614156110055760008060008060006017541115610f3257610f2f600854610f298760175461183d90919063ffffffff16565b9061175f565b93505b60185415610f5857610f55600854610f298760185461183d90919063ffffffff16565b92505b60165415610fbd57610f7b600854610f298760165461183d90919063ffffffff16565b9150600082118015610f8d5750600087115b8015610f9a575060648711155b15610fbd57610fae6064610f29848a61183d565b9050610fba82826117fb565b91505b600586018290558215610fe657610fdc84610e7d85633b9aca0061175f565b6004870155610fee565b600486018490555b610ffc8b8b86868686611896565b505050506111af565b6002546001600160a01b03166110e55780826004015411156110395760405162461bcd60e51b81526004016102bf9061247d565b600482018190553080318211156110625760405162461bcd60e51b81526004016102bf906124eb565b6000336001600160a01b03168360405161107b90612326565b60006040518083038185875af1925050503d80600081146110b8576040519150601f19603f3d011682016040523d82523d6000602084013e6110bd565b606091505b50509050806110de5760405162461bcd60e51b81526004016102bf906126e4565b50506111af565b80826004015411156111095760405162461bcd60e51b81526004016102bf9061247d565b600480830182905560025460405163a9059cbb60e01b81526001600160a01b039091169163a9059cbb9161114191339186910161233d565b602060405180830381600087803b15801561115b57600080fd5b505af115801561116f573d6000803e3d6000fd5b505050506040513d601f19601f8201168201806040525081019061119391906121a3565b6111af5760405162461bcd60e51b81526004016102bf906125dc565b6004820154600583015460405133927fdf273cb619d95419a9cd0ec88123a0538c85064229baa6363788f743fff90deb926111e992612898565b60405180910390a250505050505050565b7f52eafc11f6f81f86878bffd31109a0d92f37506527754f00788853ff9f63b13081565b6002546001600160a01b031681565b60055481565b6040805180820190915260118152707068617365312e757067726164652e763360781b602082015290565b60085481565b600c5460ff1681565b6001546001600160a01b031681565b6010546001600160a01b031681565b601b5460ff1681565b6011546001600160a01b031681565b600f546001600160a01b031681565b6112bb3361085a565b6112f65760405162461bcd60e51b815260040180806020018281038252602281526020018061298a6022913960400191505060405180910390fd5b6108396000805160206129fd8339815191528261089e565b60195481565b61131d3361085a565b6113585760405162461bcd60e51b815260040180806020018281038252602281526020018061298a6022913960400191505060405180910390fd5b6001600160a01b0381166113ae576040805162461bcd60e51b815260206004820152601860248201527741636365737369626c653a207a65726f206164647265737360401b604482015290519081900360640190fd5b336001600160a01b0382161415611405576040805162461bcd60e51b815260206004820152601660248201527520b1b1b2b9b9b4b136329d1039b0b6b29030b236b4b760511b604482015290519081900360640190fd5b61141d6000805160206129fd8339815191528261089e565b6108396000805160206129fd83398151915233610905565b6000805160206129fd83398151915281565b600a5481565b600e546001600160a01b031681565b6000828152601c602052604081206114749083611e08565b9392505050565b6000828152601c602052604081206114749083611e14565b6012546001600160a01b031681565b6000806114ad6120ea565b5050600254600354604080516060810182526004548152600554602082015260065491810191909152600754600854600a546001600160a01b03958616979590941695509193909290565b600c5461010090046001600160a01b031681565b600c54600160a81b900460ff1681565b600081565b6009602052600090815260409020805460018201546002830154600384015460048501546005860154600690960154949593949293919290919060ff1687565b60075481565b6000818152601c6020526040812061087490611e29565b600d546001600160a01b031681565b7ff0887ba65ee2024ea881d91b74c2450ef19e1557f03bed3ea9f16b037cbe2dc981565b6000828152601c60205260409020600201546115cf906105f5611689565b61095c5760405162461bcd60e51b81526004018080602001828103825260308152602001806129ac6030913960400191505060405180910390fd5b6001600160a01b03166000908152600960205260409020805460018201546002830154600384015460048501546005860154600690960154949693959294919390929160ff1690565b601a5481565b60175481565b60185481565b6003546001600160a01b031681565b6000546001600160a01b031681565b60135481565b3390565b6000828152601c602052604090206116a59082611e34565b15610901576116b2611689565b6001600160a01b0316816001600160a01b0316837f2f8788117e7eff1d82e926ec794901d17c78024a50270940304540a733656f0d60405160405180910390a45050565b6000828152601c6020526040902061170e9082611e49565b156109015761171b611689565b6001600160a01b0316816001600160a01b0316837ff6391f5c32d9c69d2a47ea670b442974b53935d1edc7fd64eb21e047a839171b60405160405180910390a45050565b600061147483836040518060400160405280601a81526020017f536166654d6174683a206469766973696f6e206279207a65726f000000000000815250611e5e565b600082820183811015611474576040805162461bcd60e51b815260206004820152601b60248201527f536166654d6174683a206164646974696f6e206f766572666c6f770000000000604482015290519081900360640190fd5b600061147483836040518060400160405280601e81526020017f536166654d6174683a207375627472616374696f6e206f766572666c6f770000815250611f00565b60008261184c57506000610874565b8282028284828161185957fe5b04146114745760405162461bcd60e51b81526004018080602001828103825260218152602001806129dc6021913960400191505060405180910390fd5b83156119d4576040516370a0823160e01b815284906001600160a01b038816906370a08231906118ca903090600401612329565b60206040518083038186803b1580156118e257600080fd5b505afa1580156118f6573d6000803e3d6000fd5b505050506040513d601f19601f8201168201806040525081019061191a919061230e565b10156119385760405162461bcd60e51b81526004016102bf906127b1565b60405163a9059cbb60e01b81526001600160a01b0387169063a9059cbb90611966903390889060040161233d565b602060405180830381600087803b15801561198057600080fd5b505af1158015611994573d6000803e3d6000fd5b505050506040513d601f19601f820116820180604052508101906119b891906121a3565b6119d45760405162461bcd60e51b81526004016102bf90612599565b8215611b12576040516370a0823160e01b815283906001600160a01b038716906370a0823190611a08903090600401612329565b60206040518083038186803b158015611a2057600080fd5b505afa158015611a34573d6000803e3d6000fd5b505050506040513d601f19601f82011682018060405250810190611a58919061230e565b1015611a765760405162461bcd60e51b81526004016102bf90612613565b60405163e3b99e8560e01b81526001600160a01b0386169063e3b99e8590611aa4903390879060040161233d565b602060405180830381600087803b158015611abe57600080fd5b505af1158015611ad2573d6000803e3d6000fd5b505050506040513d601f19601f82011682018060405250810190611af691906121a3565b611b125760405162461bcd60e51b81526004016102bf90612659565b8115611c56576000546040516370a0823160e01b815283916001600160a01b0316906370a0823190611b48903090600401612329565b60206040518083038186803b158015611b6057600080fd5b505afa158015611b74573d6000803e3d6000fd5b505050506040513d601f19601f82011682018060405250810190611b98919061230e565b1015611bb65760405162461bcd60e51b81526004016102bf90612726565b60005460405163a9059cbb60e01b81526001600160a01b039091169063a9059cbb90611be8903390869060040161233d565b602060405180830381600087803b158015611c0257600080fd5b505af1158015611c16573d6000803e3d6000fd5b505050506040513d601f19601f82011682018060405250810190611c3a91906121a3565b611c565760405162461bcd60e51b81526004016102bf90612855565b8015611dba57600054604051632474521560e21b81526001600160a01b03909116906391d1485490611cae907f9667e80708b6eeeb0053fa0cca44e028ff548e2a9f029edfeac87c118b08b7c89030906004016123e9565b60206040518083038186803b158015611cc657600080fd5b505afa158015611cda573d6000803e3d6000fd5b505050506040513d601f19601f82011682018060405250810190611cfe91906121a3565b611d1a5760405162461bcd60e51b81526004016102bf906124b4565b600054604051632770a7eb60e21b81526001600160a01b0390911690639dc29fac90611d4c903090859060040161233d565b602060405180830381600087803b158015611d6657600080fd5b505af1158015611d7a573d6000803e3d6000fd5b505050506040513d601f19601f82011682018060405250810190611d9e91906121a3565b611dba5760405162461bcd60e51b81526004016102bf90612520565b336001600160a01b03167ea4a97d76d398f8be81c38f8ae9778e26fcc50f2b7a8f7bc31281304bb1628685858585604051611df894939291906128a6565b60405180910390a2505050505050565b60006114748383611f5a565b6000611474836001600160a01b038416611fbe565b600061087482611fd6565b6000611474836001600160a01b038416611fda565b6000611474836001600160a01b038416612024565b60008183611eea5760405162461bcd60e51b81526004018080602001828103825283818151815260200191508051906020019080838360005b83811015611eaf578181015183820152602001611e97565b50505050905090810190601f168015611edc5780820380516001836020036101000a031916815260200191505b509250505060405180910390fd5b506000838581611ef657fe5b0495945050505050565b60008184841115611f525760405162461bcd60e51b8152602060048201818152835160248401528351909283926044909101919085019080838360008315611eaf578181015183820152602001611e97565b505050900390565b81546000908210611f9c5760405162461bcd60e51b81526004018080602001828103825260228152602001806129396022913960400191505060405180910390fd5b826000018281548110611fab57fe5b9060005260206000200154905092915050565b60009081526001919091016020526040902054151590565b5490565b6000611fe68383611fbe565b61201c57508154600181810184556000848152602080822090930184905584548482528286019093526040902091909155610874565b506000610874565b600081815260018301602052604081205480156120e0578354600019808301919081019060009087908390811061205757fe5b906000526020600020015490508087600001848154811061207457fe5b6000918252602080832090910192909255828152600189810190925260409020908401905586548790806120a457fe5b60019003818190600052602060002001600090559055866001016000878152602001908152602001600020600090556001945050505050610874565b6000915050610874565b60405180606001604052806003906020820280368337509192915050565b805161085581612923565b600060208284031215612124578081fd5b813561147481612923565b600080600080600060a08688031215612146578081fd5b855161215181612923565b602087015190955061216281612923565b604087015190945061217381612923565b606087015190935061218481612923565b608087015190925061219581612923565b809150509295509295909350565b6000602082840312156121b4578081fd5b81518015158114611474578182fd5b6000602082840312156121d4578081fd5b5035919050565b600080604083850312156121ed578182fd5b8235915060208301356121ff81612923565b809150509250929050565b6000806040838503121561221c578182fd5b50508035926020909101359150565b60008060008060008060c08789031215612243578081fd5b865167ffffffffffffffff8082111561225a578283fd5b818901915089601f83011261226d578283fd5b81518181111561227957fe5b604051601f8201601f19168101602001838111828210171561229757fe5b6040528181528382016020018c10156122ae578485fd5b6122bf8260208301602087016128f3565b98506122d19250505060208801612108565b94506122df60408801612108565b93506122ed60608801612108565b92506080870151915061230260a08801612108565b90509295509295509295565b60006020828403121561231f578081fd5b5051919050565b90565b6001600160a01b0391909116815260200190565b6001600160a01b03929092168252602082015260400190565b6001600160a01b0392831681529116602082015260400190565b6001600160a01b038781168252861660208083019190915261010082019060408301908760005b60038110156123b457815184529282019290820190600101612397565b505050508460a08301528360c08301528260e0830152979650505050505050565b901515815260200190565b90815260200190565b9182526001600160a01b0316602082015260400190565b600060208252825180602084015261241f8160408501602087016128f3565b601f01601f19169190910160400192915050565b6020808252602a908201527f5374616b65544f4e55706772616465333a2072656d61696e20616d6f756e7420604082015269696e20746f6b616d616b60b01b606082015260800190565b6020808252601e908201527f5374616b65544f4e55706772616465333a20416d6f756e742077726f6e670000604082015260600190565b6020808252601c908201527f5374616b65544f4e55706772616465333a206e6f74206275726e657200000000604082015260600190565b6020808252818101527f5374616b65544f4e55706772616465333a20696e7375666669656e7420455448604082015260600190565b6020808252601f908201527f5374616b65544f4e55706772616465333a20746f73206275726e206661696c00604082015260600190565b60208082526022908201527f5374616b65544f4e55706772616465333a20416c726561647920776974686472604082015261617760f01b606082015260800190565b60208082526023908201527f5374616b65544f4e55706772616465333a207472616e7366657220746f6e2066604082015262185a5b60ea1b606082015260800190565b6020808252601f908201527f5374616b65544f4e55706772616465333a207472616e73666572206661696c00604082015260600190565b60208082526026908201527f5374616b65544f4e55706772616465333a2077746f6e2062616c616e6365206960408201526573206c61636b60d01b606082015260800190565b60208082526024908201527f5374616b65544f4e55706772616465333a207472616e736665722077746f6e2060408201526319985a5b60e21b606082015260800190565b60208082526027908201527f5374616b65544f4e55706772616465333a2049546f6b616d616b5265676973746040820152667279207a65726f60c81b606082015260800190565b60208082526022908201527f5374616b65544f4e55706772616465333a207769746864726177206661696c65604082015261321760f11b606082015260800190565b60208082526025908201527f5374616b65544f4e55706772616465333a20746f732062616c616e6365206973604082015264206c61636b60d81b606082015260800190565b60208082526026908201527f5374616b65544f4e55706772616465333a2066696e616c42616c616e6365206960408201526573206c61636b60d01b606082015260800190565b60208082526025908201527f5374616b65544f4e55706772616465333a20746f6e2062616c616e6365206973604082015264206c61636b60d81b606082015260800190565b60208082526019908201527814dd185ad95513d3955c19dc9859194cce881b9bdd08195b99603a1b604082015260600190565b60208082526012908201527131b0b73737ba1039ba30b5b29022ba3432b960711b604082015260600190565b60208082526023908201527f5374616b65544f4e55706772616465333a207472616e7366657220746f732066604082015262185a5b60ea1b606082015260800190565b918252602082015260400190565b93845260208401929092526040830152606082015260800190565b968752602087019590955260408601939093526060850191909152608084015260a0830152151560c082015260e00190565b60005b8381101561290e5781810151838201526020016128f6565b8381111561291d576000848401525b50505050565b6001600160a01b038116811461083957600080fdfe456e756d657261626c655365743a20696e646578206f7574206f6620626f756e6473416363657373436f6e74726f6c3a2073656e646572206d75737420626520616e2061646d696e20746f206772616e7441636365737369626c653a2043616c6c6572206973206e6f7420616e2061646d696e416363657373436f6e74726f6c3a2073656e646572206d75737420626520616e2061646d696e20746f207265766f6b65536166654d6174683a206d756c7469706c69636174696f6e206f766572666c6f77df8b4c520ffe197c5343c6f5aec59570151ef9a492f2c624fd45ddde6135ec42416363657373436f6e74726f6c3a2063616e206f6e6c792072656e6f756e636520726f6c657320666f722073656c66a26469706673582212208c489e2bcd459245edd342ed4a36ad4075107a35f6ef29e1abbb5d7c7c78365564736f6c63430007060033",
  "linkReferences": {},
  "deployedLinkReferences": {}
}