{
  "_format": "hh-sol-artifact-1",
  "contractName": "Stake1Vault",
  "sourceName": "contracts/stake/Stake1Vault.sol",
  "abi": [
    {
      "inputs": [],
      "stateMutability": "nonpayable",
      "type": "constructor"
    },
    {
      "anonymous": false,
      "inputs": [
        {
          "indexed": true,
          "internalType": "address",
          "name": "from",
          "type": "address"
        },
        {
          "indexed": false,
          "internalType": "address",
          "name": "to",
          "type": "address"
        },
        {
          "indexed": false,
          "internalType": "uint256",
          "name": "amount",
          "type": "uint256"
        }
      ],
      "name": "ClaimedReward",
      "type": "event"
    },
    {
      "anonymous": false,
      "inputs": [],
      "name": "ClosedSale",
      "type": "event"
    },
    {
      "anonymous": false,
      "inputs": [
        {
          "indexed": true,
          "internalType": "bytes32",
          "name": "role",
          "type": "bytes32"
        },
        {
          "indexed": true,
          "internalType": "bytes32",
          "name": "previousAdminRole",
          "type": "bytes32"
        },
        {
          "indexed": true,
          "internalType": "bytes32",
          "name": "newAdminRole",
          "type": "bytes32"
        }
      ],
      "name": "RoleAdminChanged",
      "type": "event"
    },
    {
      "anonymous": false,
      "inputs": [
        {
          "indexed": true,
          "internalType": "bytes32",
          "name": "role",
          "type": "bytes32"
        },
        {
          "indexed": true,
          "internalType": "address",
          "name": "account",
          "type": "address"
        },
        {
          "indexed": true,
          "internalType": "address",
          "name": "sender",
          "type": "address"
        }
      ],
      "name": "RoleGranted",
      "type": "event"
    },
    {
      "anonymous": false,
      "inputs": [
        {
          "indexed": true,
          "internalType": "bytes32",
          "name": "role",
          "type": "bytes32"
        },
        {
          "indexed": true,
          "internalType": "address",
          "name": "account",
          "type": "address"
        },
        {
          "indexed": true,
          "internalType": "address",
          "name": "sender",
          "type": "address"
        }
      ],
      "name": "RoleRevoked",
      "type": "event"
    },
    {
      "inputs": [],
      "name": "ADMIN_ROLE",
      "outputs": [
        {
          "internalType": "bytes32",
          "name": "",
          "type": "bytes32"
        }
      ],
      "stateMutability": "view",
      "type": "function"
    },
    {
      "inputs": [],
      "name": "BURNER_ROLE",
      "outputs": [
        {
          "internalType": "bytes32",
          "name": "",
          "type": "bytes32"
        }
      ],
      "stateMutability": "view",
      "type": "function"
    },
    {
      "inputs": [],
      "name": "DEFAULT_ADMIN_ROLE",
      "outputs": [
        {
          "internalType": "bytes32",
          "name": "",
          "type": "bytes32"
        }
      ],
      "stateMutability": "view",
      "type": "function"
    },
    {
      "inputs": [],
      "name": "MINTER_ROLE",
      "outputs": [
        {
          "internalType": "bytes32",
          "name": "",
          "type": "bytes32"
        }
      ],
      "stateMutability": "view",
      "type": "function"
    },
    {
      "inputs": [],
      "name": "PROJECT_ADMIN_ROLE",
      "outputs": [
        {
          "internalType": "bytes32",
          "name": "",
          "type": "bytes32"
        }
      ],
      "stateMutability": "view",
      "type": "function"
    },
    {
      "inputs": [
        {
          "internalType": "address",
          "name": "account",
          "type": "address"
        }
      ],
      "name": "addAdmin",
      "outputs": [],
      "stateMutability": "nonpayable",
      "type": "function"
    },
    {
      "inputs": [
        {
          "internalType": "string",
          "name": "_name",
          "type": "string"
        },
        {
          "internalType": "address",
          "name": "stakeContract",
          "type": "address"
        },
        {
          "internalType": "uint256",
          "name": "periodBlocks",
          "type": "uint256"
        }
      ],
      "name": "addSubVaultOfStake",
      "outputs": [],
      "stateMutability": "nonpayable",
      "type": "function"
    },
    {
      "inputs": [],
      "name": "balanceTOSAvailableAmount",
      "outputs": [
        {
          "internalType": "uint256",
          "name": "",
          "type": "uint256"
        }
      ],
      "stateMutability": "view",
      "type": "function"
    },
    {
      "inputs": [],
      "name": "blockTotalReward",
      "outputs": [
        {
          "internalType": "uint256",
          "name": "",
          "type": "uint256"
        }
      ],
      "stateMutability": "view",
      "type": "function"
    },
    {
      "inputs": [
        {
          "internalType": "address",
          "name": "_to",
          "type": "address"
        },
        {
          "internalType": "uint256",
          "name": "_amount",
          "type": "uint256"
        }
      ],
      "name": "canClaim",
      "outputs": [
        {
          "internalType": "bool",
          "name": "",
          "type": "bool"
        }
      ],
      "stateMutability": "view",
      "type": "function"
    },
    {
      "inputs": [],
      "name": "cap",
      "outputs": [
        {
          "internalType": "uint256",
          "name": "",
          "type": "uint256"
        }
      ],
      "stateMutability": "view",
      "type": "function"
    },
    {
      "inputs": [
        {
          "internalType": "uint256",
          "name": "_cap",
          "type": "uint256"
        }
      ],
      "name": "changeCap",
      "outputs": [],
      "stateMutability": "nonpayable",
      "type": "function"
    },
    {
      "inputs": [
        {
          "internalType": "address",
          "name": "_to",
          "type": "address"
        },
        {
          "internalType": "uint256",
          "name": "_amount",
          "type": "uint256"
        }
      ],
      "name": "claim",
      "outputs": [
        {
          "internalType": "bool",
          "name": "",
          "type": "bool"
        }
      ],
      "stateMutability": "nonpayable",
      "type": "function"
    },
    {
      "inputs": [],
      "name": "closeSale",
      "outputs": [],
      "stateMutability": "nonpayable",
      "type": "function"
    },
    {
      "inputs": [],
      "name": "defiAddr",
      "outputs": [
        {
          "internalType": "address",
          "name": "",
          "type": "address"
        }
      ],
      "stateMutability": "view",
      "type": "function"
    },
    {
      "inputs": [
        {
          "internalType": "bytes32",
          "name": "role",
          "type": "bytes32"
        }
      ],
      "name": "getRoleAdmin",
      "outputs": [
        {
          "internalType": "bytes32",
          "name": "",
          "type": "bytes32"
        }
      ],
      "stateMutability": "view",
      "type": "function"
    },
    {
      "inputs": [
        {
          "internalType": "bytes32",
          "name": "role",
          "type": "bytes32"
        },
        {
          "internalType": "uint256",
          "name": "index",
          "type": "uint256"
        }
      ],
      "name": "getRoleMember",
      "outputs": [
        {
          "internalType": "address",
          "name": "",
          "type": "address"
        }
      ],
      "stateMutability": "view",
      "type": "function"
    },
    {
      "inputs": [
        {
          "internalType": "bytes32",
          "name": "role",
          "type": "bytes32"
        }
      ],
      "name": "getRoleMemberCount",
      "outputs": [
        {
          "internalType": "uint256",
          "name": "",
          "type": "uint256"
        }
      ],
      "stateMutability": "view",
      "type": "function"
    },
    {
      "inputs": [
        {
          "internalType": "bytes32",
          "name": "role",
          "type": "bytes32"
        },
        {
          "internalType": "address",
          "name": "account",
          "type": "address"
        }
      ],
      "name": "grantRole",
      "outputs": [],
      "stateMutability": "nonpayable",
      "type": "function"
    },
    {
      "inputs": [
        {
          "internalType": "bytes32",
          "name": "role",
          "type": "bytes32"
        },
        {
          "internalType": "address",
          "name": "account",
          "type": "address"
        }
      ],
      "name": "hasRole",
      "outputs": [
        {
          "internalType": "bool",
          "name": "",
          "type": "bool"
        }
      ],
      "stateMutability": "view",
      "type": "function"
    },
    {
      "inputs": [],
      "name": "infos",
      "outputs": [
        {
          "internalType": "address[2]",
          "name": "",
          "type": "address[2]"
        },
        {
          "internalType": "uint256",
          "name": "",
          "type": "uint256"
        },
        {
          "internalType": "uint256",
          "name": "",
          "type": "uint256"
        },
        {
          "internalType": "uint256[3]",
          "name": "",
          "type": "uint256[3]"
        },
        {
          "internalType": "uint256",
          "name": "",
          "type": "uint256"
        },
        {
          "internalType": "bool",
          "name": "",
          "type": "bool"
        }
      ],
      "stateMutability": "view",
      "type": "function"
    },
    {
      "inputs": [
        {
          "internalType": "address",
          "name": "account",
          "type": "address"
        }
      ],
      "name": "isAdmin",
      "outputs": [
        {
          "internalType": "bool",
          "name": "",
          "type": "bool"
        }
      ],
      "stateMutability": "view",
      "type": "function"
    },
    {
      "inputs": [],
      "name": "migratedL2",
      "outputs": [
        {
          "internalType": "bool",
          "name": "",
          "type": "bool"
        }
      ],
      "stateMutability": "view",
      "type": "function"
    },
    {
      "inputs": [
        {
          "internalType": "uint256",
          "name": "",
          "type": "uint256"
        }
      ],
      "name": "orderedEndBlocks",
      "outputs": [
        {
          "internalType": "uint256",
          "name": "",
          "type": "uint256"
        }
      ],
      "stateMutability": "view",
      "type": "function"
    },
    {
      "inputs": [],
      "name": "orderedEndBlocksAll",
      "outputs": [
        {
          "internalType": "uint256[]",
          "name": "",
          "type": "uint256[]"
        }
      ],
      "stateMutability": "view",
      "type": "function"
    },
    {
      "inputs": [],
      "name": "pauseProxy",
      "outputs": [
        {
          "internalType": "bool",
          "name": "",
          "type": "bool"
        }
      ],
      "stateMutability": "view",
      "type": "function"
    },
    {
      "inputs": [],
      "name": "paytoken",
      "outputs": [
        {
          "internalType": "address",
          "name": "",
          "type": "address"
        }
      ],
      "stateMutability": "view",
      "type": "function"
    },
    {
      "inputs": [],
      "name": "realEndBlock",
      "outputs": [
        {
          "internalType": "uint256",
          "name": "",
          "type": "uint256"
        }
      ],
      "stateMutability": "view",
      "type": "function"
    },
    {
      "inputs": [
        {
          "internalType": "address",
          "name": "account",
          "type": "address"
        }
      ],
      "name": "removeAdmin",
      "outputs": [],
      "stateMutability": "nonpayable",
      "type": "function"
    },
    {
      "inputs": [
        {
          "internalType": "bytes32",
          "name": "role",
          "type": "bytes32"
        },
        {
          "internalType": "address",
          "name": "account",
          "type": "address"
        }
      ],
      "name": "renounceRole",
      "outputs": [],
      "stateMutability": "nonpayable",
      "type": "function"
    },
    {
      "inputs": [
        {
          "internalType": "bytes32",
          "name": "role",
          "type": "bytes32"
        },
        {
          "internalType": "address",
          "name": "account",
          "type": "address"
        }
      ],
      "name": "revokeRole",
      "outputs": [],
      "stateMutability": "nonpayable",
      "type": "function"
    },
    {
      "inputs": [],
      "name": "saleClosed",
      "outputs": [
        {
          "internalType": "bool",
          "name": "",
          "type": "bool"
        }
      ],
      "stateMutability": "view",
      "type": "function"
    },
    {
      "inputs": [],
      "name": "saleStartBlock",
      "outputs": [
        {
          "internalType": "uint256",
          "name": "",
          "type": "uint256"
        }
      ],
      "stateMutability": "view",
      "type": "function"
    },
    {
      "inputs": [
        {
          "internalType": "address",
          "name": "_defiAddr",
          "type": "address"
        }
      ],
      "name": "setDefiAddr",
      "outputs": [],
      "stateMutability": "nonpayable",
      "type": "function"
    },
    {
      "inputs": [
        {
          "internalType": "address",
          "name": "_tos",
          "type": "address"
        }
      ],
      "name": "setTOS",
      "outputs": [],
      "stateMutability": "nonpayable",
      "type": "function"
    },
    {
      "inputs": [
        {
          "internalType": "uint256",
          "name": "",
          "type": "uint256"
        }
      ],
      "name": "stakeAddresses",
      "outputs": [
        {
          "internalType": "address",
          "name": "",
          "type": "address"
        }
      ],
      "stateMutability": "view",
      "type": "function"
    },
    {
      "inputs": [],
      "name": "stakeAddressesAll",
      "outputs": [
        {
          "internalType": "address[]",
          "name": "",
          "type": "address[]"
        }
      ],
      "stateMutability": "view",
      "type": "function"
    },
    {
      "inputs": [],
      "name": "stakeEndBlock",
      "outputs": [
        {
          "internalType": "uint256",
          "name": "",
          "type": "uint256"
        }
      ],
      "stateMutability": "view",
      "type": "function"
    },
    {
      "inputs": [
        {
          "internalType": "uint256",
          "name": "",
          "type": "uint256"
        }
      ],
      "name": "stakeEndBlockTotal",
      "outputs": [
        {
          "internalType": "uint256",
          "name": "",
          "type": "uint256"
        }
      ],
      "stateMutability": "view",
      "type": "function"
    },
    {
      "inputs": [
        {
          "internalType": "address",
          "name": "",
          "type": "address"
        }
      ],
      "name": "stakeInfos",
      "outputs": [
        {
          "internalType": "string",
          "name": "name",
          "type": "string"
        },
        {
          "internalType": "uint256",
          "name": "startBlock",
          "type": "uint256"
        },
        {
          "internalType": "uint256",
          "name": "endBlock",
          "type": "uint256"
        },
        {
          "internalType": "uint256",
          "name": "balance",
          "type": "uint256"
        },
        {
          "internalType": "uint256",
          "name": "totalRewardAmount",
          "type": "uint256"
        },
        {
          "internalType": "uint256",
          "name": "claimRewardAmount",
          "type": "uint256"
        }
      ],
      "stateMutability": "view",
      "type": "function"
    },
    {
      "inputs": [],
      "name": "stakeStartBlock",
      "outputs": [
        {
          "internalType": "uint256",
          "name": "",
          "type": "uint256"
        }
      ],
      "stateMutability": "view",
      "type": "function"
    },
    {
      "inputs": [],
      "name": "stakeType",
      "outputs": [
        {
          "internalType": "uint256",
          "name": "",
          "type": "uint256"
        }
      ],
      "stateMutability": "view",
      "type": "function"
    },
    {
      "inputs": [],
      "name": "tos",
      "outputs": [
        {
          "internalType": "address",
          "name": "",
          "type": "address"
        }
      ],
      "stateMutability": "view",
      "type": "function"
    },
    {
      "inputs": [
        {
          "internalType": "address",
          "name": "_account",
          "type": "address"
        }
      ],
      "name": "totalRewardAmount",
      "outputs": [
        {
          "internalType": "uint256",
          "name": "",
          "type": "uint256"
        }
      ],
      "stateMutability": "view",
      "type": "function"
    },
    {
      "inputs": [
        {
          "internalType": "address",
          "name": "newAdmin",
          "type": "address"
        }
      ],
      "name": "transferAdmin",
      "outputs": [],
      "stateMutability": "nonpayable",
      "type": "function"
    },
    {
      "inputs": [
        {
          "internalType": "uint256",
          "name": "_amount",
          "type": "uint256"
        }
      ],
      "name": "withdrawReward",
      "outputs": [],
      "stateMutability": "nonpayable",
      "type": "function"
    },
    {
      "stateMutability": "payable",
      "type": "receive"
    }
  ],
  "bytecode": "0x608060405234801561001057600080fd5b5061303d806100206000396000f3fe6080604052600436106102815760003560e01c806375b238fc1161014f578063b03dc514116100c1578063d007e8961161007a578063d007e8961461072c578063d105bf851461074e578063d539139314610763578063d547741f14610778578063dfbf9def14610798578063ee55efee146107ca576102a7565b8063b03dc5141461068b578063b8c766b8146106a0578063b97af0db146106b5578063c1b422fd146106ca578063ca15c873146106ec578063cbdeb6c01461070c576102a7565b806398da0b611161011357806398da0b61146105e55780639a88be2f146106055780639d84ca351461062c578063a1f5f50e14610641578063a217fddf14610656578063aad3ec961461066b576102a7565b806375b238fc1461055b578063800edb9d1461057057806389f395de146105905780639010d07c146105a557806391d14854146105c5576102a7565b80633a76eb37116101f3578063523a3f08116101ac578063523a3f08146104b15780635f1bd62a146104d157806363a8fd89146104f157806366b2d52714610506578063704802751461051b57806375829def1461053b576102a7565b80633a76eb371461041d57806340c2ce861461043257806340fc14f71461045257806341c04d5e1461047257806343b0934a146104875780634b5e7cd51461049c576102a7565b806324d7806c1161024557806324d7806c14610359578063282c51f314610386578063294f5fa31461039b5780632f2ff15d146103c8578063355274ea146103e857806336568abe146103fd576102a7565b80630962ccfc146102ac578063153099d0146102ce5780631785f53c146103045780632002727514610324578063248a9ca314610339576102a7565b366102a75760405162461bcd60e51b815260040161029e90612bc0565b60405180910390fd5b600080fd5b3480156102b857600080fd5b506102cc6102c73660046126ba565b6107df565b005b3480156102da57600080fd5b506102ee6102e9366004612652565b610a4a565b6040516102fb91906128dd565b60405180910390f35b34801561031057600080fd5b506102cc61031f3660046125cf565b610a6b565b34801561033057600080fd5b506102ee610aca565b34801561034557600080fd5b506102ee610354366004612652565b610ad0565b34801561036557600080fd5b506103796103743660046125cf565b610ae8565b6040516102fb91906128d2565b34801561039257600080fd5b506102ee610b08565b3480156103a757600080fd5b506103bb6103b6366004612652565b610b2c565b6040516102fb9190612799565b3480156103d457600080fd5b506102cc6103e336600461266a565b610b56565b3480156103f457600080fd5b506102ee610bbd565b34801561040957600080fd5b506102cc61041836600461266a565b610bc3565b34801561042957600080fd5b506102ee610c24565b34801561043e57600080fd5b506102cc61044d3660046125cf565b610c2a565b34801561045e57600080fd5b506102cc61046d3660046125cf565b610cb6565b34801561047e57600080fd5b506102ee610d5e565b34801561049357600080fd5b506103bb610d82565b3480156104a857600080fd5b506102ee610d91565b3480156104bd57600080fd5b506102cc6104cc366004612652565b610d97565b3480156104dd57600080fd5b506102ee6104ec366004612652565b610ff0565b3480156104fd57600080fd5b50610379611002565b34801561051257600080fd5b506102ee61100b565b34801561052757600080fd5b506102cc6105363660046125cf565b611091565b34801561054757600080fd5b506102cc6105563660046125cf565b6110ed565b34801561056757600080fd5b506102ee61120e565b34801561057c57600080fd5b506102cc61058b366004612652565b611220565b34801561059c57600080fd5b506103bb611297565b3480156105b157600080fd5b506103bb6105c0366004612699565b6112a6565b3480156105d157600080fd5b506103796105e036600461266a565b6112c5565b3480156105f157600080fd5b50610379610600366004612607565b6112dd565b34801561061157600080fd5b5061061a61143f565b6040516102fb969594939291906127c6565b34801561063857600080fd5b506103bb6114b8565b34801561064d57600080fd5b506103796114c7565b34801561066257600080fd5b506102ee6114d5565b34801561067757600080fd5b50610379610686366004612607565b6114da565b34801561069757600080fd5b506102ee611736565b3480156106ac57600080fd5b5061037961173c565b3480156106c157600080fd5b506102ee611745565b3480156106d657600080fd5b506106df61174b565b6040516102fb919061289a565b3480156106f857600080fd5b506102ee610707366004612652565b6117a3565b34801561071857600080fd5b506102ee6107273660046125cf565b6117ba565b34801561073857600080fd5b506107416117d8565b6040516102fb919061284d565b34801561075a57600080fd5b506102ee611839565b34801561076f57600080fd5b506102ee61183f565b34801561078457600080fd5b506102cc61079336600461266a565b611863565b3480156107a457600080fd5b506107b86107b33660046125cf565b6118bc565b6040516102fb969594939291906128e6565b3480156107d657600080fd5b506102cc61197b565b6107e833610ae8565b6108235760405162461bcd60e51b8152600401808060200182810382526022815260200180612f466022913960400191505060405180910390fd5b6001600160a01b0382161580159061083d57506000600354115b80156108495750600081115b6108655760405162461bcd60e51b815260040161029e90612a0a565b60055443106108865760405162461bcd60e51b815260040161029e90612991565b60095460ff16156108a95760405162461bcd60e51b815260040161029e90612b8e565b816001600160a01b03166343b0934a6040518163ffffffff1660e01b815260040160206040518083038186803b1580156108e257600080fd5b505afa1580156108f6573d6000803e3d6000fd5b505050506040513d601f19601f8201168201806040525081019061091a91906125eb565b6002546001600160a01b039081169116146109475760405162461bcd60e51b815260040161029e90612cd9565b6001600160a01b0382166000908152600d602052604090206001810154156109815760405162461bcd60e51b815260040161029e90612d5c565b600c805460018101825560009182527fdf6966c971051c3d54ec59162606531493a51404a002842f56009d7e5cf4a8c70180546001600160a01b0319166001600160a01b0386161790556005546109d89084611ff8565b85519091506109ed90839060208801906124e7565b50600554600183015560028201819055600654811115610a0d5760068190555b5050600654600e80546001810182556000919091527fbb7b4a454dc3493923482f07822329ed19e8244eff582cc204f8554c3620c3fd0155505050565b600e8181548110610a5a57600080fd5b600091825260209091200154905081565b610a7433610ae8565b610aaf5760405162461bcd60e51b8152600401808060200182810382526022815260200180612f466022913960400191505060405180910390fd5b610ac7600080516020612fb983398151915282610bc3565b50565b60045481565b6000818152602081905260409020600201545b919050565b6000610b02600080516020612fb9833981519152836112c5565b92915050565b7f9667e80708b6eeeb0053fa0cca44e028ff548e2a9f029edfeac87c118b08b7c881565b600c8181548110610b3c57600080fd5b6000918252602090912001546001600160a01b0316905081565b600082815260208190526040902060020154610b74906105e0612052565b610baf5760405162461bcd60e51b815260040180806020018281038252602f815260200180612f17602f913960400191505060405180910390fd5b610bb98282612056565b5050565b60035481565b610bcb612052565b6001600160a01b0316816001600160a01b031614610c1a5760405162461bcd60e51b815260040180806020018281038252602f815260200180612fd9602f913960400191505060405180910390fd5b610bb982826120bf565b60065481565b610c3333610ae8565b610c6e5760405162461bcd60e51b8152600401808060200182810382526022815260200180612f466022913960400191505060405180910390fd5b6001600160a01b038116610c945760405162461bcd60e51b815260040161029e90612a52565b600180546001600160a01b0319166001600160a01b0392909216919091179055565b610cbf33610ae8565b610cfa5760405162461bcd60e51b8152600401808060200182810382526022815260200180612f466022913960400191505060405180910390fd5b6001600160a01b03811615801590610d205750600b546001600160a01b03828116911614155b610d3c5760405162461bcd60e51b815260040161029e90612c6b565b600b80546001600160a01b0319166001600160a01b0392909216919091179055565b7f52eafc11f6f81f86878bffd31109a0d92f37506527754f00788853ff9f63b13081565b6002546001600160a01b031681565b60055481565b610da033610ae8565b610ddb5760405162461bcd60e51b8152600401808060200182810382526022815260200180612f466022913960400191505060405180910390fd5b60095460ff16610dfd5760405162461bcd60e51b815260040161029e90612bee565b6000805b600c54811015610e9e57610e94600d6000600c8481548110610e1f57fe5b60009182526020808320909101546001600160a01b03168352820192909252604001812060050154600c80549192610e8e92600d929087908110610e5f57fe5b60009182526020808320909101546001600160a01b031683528201929092526040019020600401548590611ff8565b90612128565b9150600101610e01565b506001546040516370a0823160e01b81526000916001600160a01b0316906370a0823190610ed0903090600401612799565b60206040518083038186803b158015610ee857600080fd5b505afa158015610efc573d6000803e3d6000fd5b505050506040513d601f19601f82011682018060405250810190610f20919061276a565b9050610f2c8284611ff8565b811015610f4b5760405162461bcd60e51b815260040161029e90612dca565b60015460405163a9059cbb60e01b81526001600160a01b039091169063a9059cbb90610f7d90339087906004016127ad565b602060405180830381600087803b158015610f9757600080fd5b505af1158015610fab573d6000803e3d6000fd5b505050506040513d601f19601f82011682018060405250810190610fcf9190612632565b610feb5760405162461bcd60e51b815260040161029e90612e32565b505050565b600f6020526000908152604090205481565b60115460ff1681565b6001546040516370a0823160e01b81526000916001600160a01b0316906370a082319061103c903090600401612799565b60206040518083038186803b15801561105457600080fd5b505afa158015611068573d6000803e3d6000fd5b505050506040513d601f19601f8201168201806040525081019061108c919061276a565b905090565b61109a33610ae8565b6110d55760405162461bcd60e51b8152600401808060200182810382526022815260200180612f466022913960400191505060405180910390fd5b610ac7600080516020612fb983398151915282610b56565b6110f633610ae8565b6111315760405162461bcd60e51b8152600401808060200182810382526022815260200180612f466022913960400191505060405180910390fd5b6001600160a01b038116611187576040805162461bcd60e51b815260206004820152601860248201527741636365737369626c653a207a65726f206164647265737360401b604482015290519081900360640190fd5b336001600160a01b03821614156111de576040805162461bcd60e51b815260206004820152601660248201527520b1b1b2b9b9b4b136329d1039b0b6b29030b236b4b760511b604482015290519081900360640190fd5b6111f6600080516020612fb983398151915282610b56565b610ac7600080516020612fb983398151915233610bc3565b600080516020612fb983398151915281565b61122933610ae8565b6112645760405162461bcd60e51b8152600401808060200182810382526022815260200180612f466022913960400191505060405180910390fd5b60008111801561127657508060035414155b6112925760405162461bcd60e51b815260040161029e90612add565b600355565b6001546001600160a01b031681565b60008281526020819052604081206112be908361216a565b9392505050565b60008281526020819052604081206112be9083612176565b60095460009060ff166113025760405162461bcd60e51b815260040161029e90612d10565b6001546040516370a0823160e01b81526000916001600160a01b0316906370a0823190611333903090600401612799565b60206040518083038186803b15801561134b57600080fd5b505afa15801561135f573d6000803e3d6000fd5b505050506040513d601f19601f82011682018060405250810190611383919061276a565b9050828110156113a55760405162461bcd60e51b815260040161029e90612a89565b6001600160a01b0384166000908152600d6020526040902060018101546113de5760405162461bcd60e51b815260040161029e90612ea8565b60008160040154116114025760405162461bcd60e51b815260040161029e906129d3565b60058101546114119085611ff8565b816004015410156114345760405162461bcd60e51b815260040161029e9061295a565b506001949350505050565b611447612573565b600080611452612591565b50506040805180820182526002546001600160a01b039081168252600b5416602080830191909152600354600a54845160608101865260045481526005549381019390935260065494830194909452600854600954939791965093945090929160ff1690565b600b546001600160a01b031681565b601154610100900460ff1681565b600081565b60095460009060ff1680156114ef5750600082115b61150b5760405162461bcd60e51b815260040161029e90612d10565b6001546040516370a0823160e01b81526000916001600160a01b0316906370a082319061153c903090600401612799565b60206040518083038186803b15801561155457600080fd5b505afa158015611568573d6000803e3d6000fd5b505050506040513d601f19601f8201168201806040525081019061158c919061276a565b9050828110156115ae5760405162461bcd60e51b815260040161029e90612dfb565b336000908152600d6020526040902060018101546115de5760405162461bcd60e51b815260040161029e90612d93565b60008160040154116116025760405162461bcd60e51b815260040161029e90612c25565b60058101546116119085611ff8565b816004015410156116345760405162461bcd60e51b815260040161029e90612e67565b60058101546116439085611ff8565b600582015560015460405163a9059cbb60e01b81526001600160a01b039091169063a9059cbb9061167a90889088906004016127ad565b602060405180830381600087803b15801561169457600080fd5b505af11580156116a8573d6000803e3d6000fd5b505050506040513d601f19601f820116820180604052508101906116cc9190612632565b6116e85760405162461bcd60e51b815260040161029e90612b14565b336001600160a01b03167faee3654837b73cc93e61b5d33f82d45b1df4dbe682913819f5ce40de23518e7286866040516117239291906127ad565b60405180910390a2506001949350505050565b60075481565b60095460ff1681565b600a5481565b6060600e80548060200260200160405190810160405280929190818152602001828054801561179957602002820191906000526020600020905b815481526020019060010190808311611785575b5050505050905090565b6000818152602081905260408120610b029061218b565b6001600160a01b03166000908152600d602052604090206004015490565b6060600c80548060200260200160405190810160405280929190818152602001828054801561179957602002820191906000526020600020905b81546001600160a01b03168152600190910190602001808311611812575050505050905090565b60085481565b7ff0887ba65ee2024ea881d91b74c2450ef19e1557f03bed3ea9f16b037cbe2dc981565b600082815260208190526040902060020154611881906105e0612052565b610c1a5760405162461bcd60e51b8152600401808060200182810382526030815260200180612f686030913960400191505060405180910390fd5b600d6020908152600091825260409182902080548351601f600260001961010060018616150201909316929092049182018490048402810184019094528084529092918391908301828280156119535780601f1061192857610100808354040283529160200191611953565b820191906000526020600020905b81548152906001019060200180831161193657829003601f168201915b5050505050908060010154908060020154908060030154908060040154908060050154905086565b60095460ff161561199e5760405162461bcd60e51b815260040161029e90612ca2565b60006003541180156119b257506000600554115b80156119c15750600654600554105b80156119ce575060055443115b6119ea5760405162461bcd60e51b815260040161029e90612b4b565b600c54611a095760405162461bcd60e51b815260040161029e90612aad565b60065460075560005b600c54811015611b91576000600d6000600c8481548110611a2f57fe5b60009182526020808320909101546001600160a01b039081168452908301939093526040909101902060025490925016611a9057600c8281548110611a7057fe5b6000918252602090912001546001600160a01b0316316003820155611b41565b600254600c80546000926001600160a01b0316916370a082319186908110611ab457fe5b6000918252602090912001546040516001600160e01b031960e084901b168152611aea916001600160a01b031690600401612799565b60206040518083038186803b158015611b0257600080fd5b505afa158015611b16573d6000803e3d6000fd5b505050506040513d601f19601f82011682018060405250810190611b3a919061276a565b6003830155505b600381015415611b8857600d6000600c8481548110611b5c57fe5b60009182526020808320909101546001600160a01b031683528201929092526040019020600201546007555b50600101611a12565b50611bb5611bac60055460075461212890919063ffffffff16565b60035490612196565b6008556000805b600c54811015611fbe576000600d6000600c8481548110611bd957fe5b60009182526020808320909101546001600160a01b0316835282019290925260400181209150805b600c54811015611c9c578260020154600d6000600c8481548110611c2157fe5b60009182526020808320909101546001600160a01b0316835282019290925260400190206002015410611c9457611c91600d6000600c8481548110611c6257fe5b60009182526020808320909101546001600160a01b031683528201929092526040019020600301548390611ff8565b91505b600101611c01565b5060075482600201541115611cb2575050611fb6565b60028201546000908152600f60205260409020819055611cd28482611ff8565b93506000835b8015611e65576000600f6000600d6000600c8681548110611cf557fe5b60009182526020808320909101546001600160a01b0316835282810193909352604091820181206002015484529183019390935291019020541115611e5c57611e59611e52600f6000600d6000600c8781548110611d4f57fe5b9060005260206000200160009054906101000a90046001600160a01b03166001600160a01b03166001600160a01b0316815260200190815260200160002060020154815260200190815260200160002054611e4c8760030154611e46600854611e46600d6000600c60018c0381548110611dc557fe5b9060005260206000200160009054906101000a90046001600160a01b03166001600160a01b03166001600160a01b0316815260200190815260200160002060020154600d6000600c8c81548110611e1857fe5b60009182526020808320909101546001600160a01b0316835282019290925260400190206002015490612128565b906121d8565b90612196565b8390611ff8565b91505b60001901611cd8565b506000600f6000600d6000600c600081548110611e7e57fe5b60009182526020808320909101546001600160a01b0316835282810193909352604091820181206002015484529183019390935291019020541115611fab57611fa8611fa1600f6000600d6000600c600081548110611ed957fe5b9060005260206000200160009054906101000a90046001600160a01b03166001600160a01b03166001600160a01b0316815260200190815260200160002060020154815260200190815260200160002054611e4c8660030154611e46600854611e46600d6000600c600081548110611f4d57fe5b9060005260206000200160009054906101000a90046001600160a01b03166001600160a01b03166001600160a01b0316815260200190815260200160002060010154600d6000600c600081548110611e1857fe5b8290611ff8565b90505b600490920191909155505b600101611bbc565b506009805460ff191660011790556040517fc5b08164caddd376836c1274d424a6a993b43d0225bb894c5b9e2a1e91e4bf5c90600090a150565b6000828201838110156112be576040805162461bcd60e51b815260206004820152601b60248201527f536166654d6174683a206164646974696f6e206f766572666c6f770000000000604482015290519081900360640190fd5b3390565b600082815260208190526040902061206e9082612231565b15610bb95761207b612052565b6001600160a01b0316816001600160a01b0316837f2f8788117e7eff1d82e926ec794901d17c78024a50270940304540a733656f0d60405160405180910390a45050565b60008281526020819052604090206120d79082612246565b15610bb9576120e4612052565b6001600160a01b0316816001600160a01b0316837ff6391f5c32d9c69d2a47ea670b442974b53935d1edc7fd64eb21e047a839171b60405160405180910390a45050565b60006112be83836040518060400160405280601e81526020017f536166654d6174683a207375627472616374696f6e206f766572666c6f77000081525061225b565b60006112be83836122f2565b60006112be836001600160a01b038416612356565b6000610b028261236e565b60006112be83836040518060400160405280601a81526020017f536166654d6174683a206469766973696f6e206279207a65726f000000000000815250612372565b6000826121e757506000610b02565b828202828482816121f457fe5b04146112be5760405162461bcd60e51b8152600401808060200182810382526021815260200180612f986021913960400191505060405180910390fd5b60006112be836001600160a01b0384166123d7565b60006112be836001600160a01b038416612421565b600081848411156122ea5760405162461bcd60e51b81526004018080602001828103825283818151815260200191508051906020019080838360005b838110156122af578181015183820152602001612297565b50505050905090810190601f1680156122dc5780820380516001836020036101000a031916815260200191505b509250505060405180910390fd5b505050900390565b815460009082106123345760405162461bcd60e51b8152600401808060200182810382526022815260200180612ef56022913960400191505060405180910390fd5b82600001828154811061234357fe5b9060005260206000200154905092915050565b60009081526001919091016020526040902054151590565b5490565b600081836123c15760405162461bcd60e51b81526020600482018181528351602484015283519092839260449091019190850190808383600083156122af578181015183820152602001612297565b5060008385816123cd57fe5b0495945050505050565b60006123e38383612356565b61241957508154600181810184556000848152602080822090930184905584548482528286019093526040902091909155610b02565b506000610b02565b600081815260018301602052604081205480156124dd578354600019808301919081019060009087908390811061245457fe5b906000526020600020015490508087600001848154811061247157fe5b6000918252602080832090910192909255828152600189810190925260409020908401905586548790806124a157fe5b60019003818190600052602060002001600090559055866001016000878152602001908152602001600020600090556001945050505050610b02565b6000915050610b02565b828054600181600116156101000203166002900490600052602060002090601f01602090048101928261251d5760008555612563565b82601f1061253657805160ff1916838001178555612563565b82800160010185558215612563579182015b82811115612563578251825591602001919060010190612548565b5061256f9291506125af565b5090565b60405180604001604052806002906020820280368337509192915050565b60405180606001604052806003906020820280368337509192915050565b5b8082111561256f57600081556001016125b0565b8035610ae381612edf565b6000602082840312156125e0578081fd5b81356112be81612edf565b6000602082840312156125fc578081fd5b81516112be81612edf565b60008060408385031215612619578081fd5b823561262481612edf565b946020939093013593505050565b600060208284031215612643578081fd5b815180151581146112be578182fd5b600060208284031215612663578081fd5b5035919050565b6000806040838503121561267c578182fd5b82359150602083013561268e81612edf565b809150509250929050565b600080604083850312156126ab578182fd5b50508035926020909101359150565b6000806000606084860312156126ce578081fd5b833567ffffffffffffffff808211156126e5578283fd5b818601915086601f8301126126f8578283fd5b813560208282111561270657fe5b604051601f8301601f191681018201848111828210171561272357fe5b60405282815284830182018a1015612739578586fd5b8282860183830137808301820186905296506127568882016125c4565b955050505050604084013590509250925092565b60006020828403121561277b578081fd5b5051919050565b6001600160a01b0316815260200190565b15159052565b6001600160a01b0391909116815260200190565b6001600160a01b03929092168252602082015260400190565b6101208101818860005b60028110156127f5576127e4838351612782565b9250602091909101906001016127d0565b505050866040830152856060830152608082018560005b600381101561282b57815183526020928301929091019060010161280c565b5050508360e0830152612842610100830184612793565b979650505050505050565b6020808252825182820181905260009190848201906040850190845b8181101561288e5783516001600160a01b031683529284019291840191600101612869565b50909695505050505050565b6020808252825182820181905260009190848201906040850190845b8181101561288e578351835292840192918401916001016128b6565b901515815260200190565b90815260200190565b600060c0825287518060c0840152815b81811015612913576020818b0181015160e08684010152016128f6565b81811115612924578260e083860101525b5060208301979097525060408101949094526060840192909252608083015260a082015260e0601f909201601f19160101919050565b6020808252601b908201527f5374616b65315661756c743a20616d6f756e7420657863656564730000000000604082015260600190565b60208082526022908201527f5374616b65315661756c743a20416c72656164792073746172746564207374616040820152616b6560f01b606082015260800190565b6020808252601c908201527f5374616b65315661756c743a20616d6f756e742069732077726f6e6700000000604082015260600190565b60208082526028908201527f5374616b65315661756c743a206164645374616b6572496e5661756c7420696e6040820152676974206661696c7360c01b606082015260800190565b6020808252601a908201527f5374616b65315661756c743a20696e707574206973207a65726f000000000000604082015260600190565b6020808252600a90820152690dcdee840cadcdeeaced60b31b604082015260600190565b6020808252601690820152755374616b65315661756c743a206e6f207374616b657360501b604082015260600190565b6020808252601c908201527f5374616b65315661756c743a206368616e6765436170206661696c7300000000604082015260600190565b6020808252601e908201527f5374616b65315661756c743a20544f53207472616e73666572206661696c0000604082015260600190565b60208082526023908201527f5374616b65315661756c743a204265666f7265207374616b655374617274426c6040820152626f636b60e81b606082015260800190565b6020808252601890820152775374616b65315661756c743a20636c6f7365642073616c6560401b604082015260600190565b60208082526014908201527331b0b73737ba103932b1b2b4bb329022ba3432b960611b604082015260600190565b6020808252601c908201527f5374616b65315661756c743a206469646e277420656e642073616c6500000000604082015260600190565b60208082526026908201527f5374616b65315661756c743a20746f74616c526577617264416d6f756e74206960408201526573207a65726f60d01b606082015260800190565b6020808252601e908201527f5374616b65315661756c743a205f6465666941646472206973207a65726f0000604082015260600190565b6020808252601b908201527f5374616b65315661756c743a20616c726561647920636c6f7365640000000000604082015260600190565b6020808252601f908201527f5374616b65315661756c743a20446966666572656e7420706179746f6b656e00604082015260600190565b6020808252602c908201527f5374616b65315661756c743a206f6e2073616c65206f72206e65656420746f2060408201526b656e64207468652073616c6560a01b606082015260800190565b6020808252601a908201527f5374616b65315661756c743a20416c7265616479206164646564000000000000604082015260600190565b6020808252601c908201527f5374616b65315661756c743a207374617274426c6f636b207a65726f00000000604082015260600190565b60208082526017908201527614dd185ad94c55985d5b1d0e881a5b9cdd59999a595b9d604a1b604082015260600190565b6020808252601f908201527f5374616b65315661756c743a206e6f7420656e6f7567682062616c616e636500604082015260600190565b6020808252818101527f5374616b65315661756c743a206661696c207769746864726177526577617264604082015260600190565b60208082526021908201527f5374616b65315661756c743a20636c61696d20616d6f756e74206578636565646040820152607360f81b606082015260800190565b6020808252601f908201527f5374616b65315661756c743a207374617274426c6f636b206973207a65726f00604082015260600190565b6001600160a01b0381168114610ac757600080fdfe456e756d657261626c655365743a20696e646578206f7574206f6620626f756e6473416363657373436f6e74726f6c3a2073656e646572206d75737420626520616e2061646d696e20746f206772616e7441636365737369626c653a2043616c6c6572206973206e6f7420616e2061646d696e416363657373436f6e74726f6c3a2073656e646572206d75737420626520616e2061646d696e20746f207265766f6b65536166654d6174683a206d756c7469706c69636174696f6e206f766572666c6f77df8b4c520ffe197c5343c6f5aec59570151ef9a492f2c624fd45ddde6135ec42416363657373436f6e74726f6c3a2063616e206f6e6c792072656e6f756e636520726f6c657320666f722073656c66a2646970667358221220657cedd48ff3f52762d10c98caea7c1c3ca48fd10bdc5e2b872ab6ec1e782e9b64736f6c63430007060033",
  "linkReferences": {},
  "deployedLinkReferences": {}
}