{
  "_format": "hh-sol-artifact-1",
  "contractName": "Stake2VaultStorage",
  "sourceName": "contracts/stake/Stake2VaultStorage.sol",
  "abi": [
    {
      "anonymous": false,
      "inputs": [
        {
          "indexed": true,
          "internalType": "bytes32",
          "name": "role",
          "type": "bytes32"
        },
        {
          "indexed": true,
          "internalType": "bytes32",
          "name": "previousAdminRole",
          "type": "bytes32"
        },
        {
          "indexed": true,
          "internalType": "bytes32",
          "name": "newAdminRole",
          "type": "bytes32"
        }
      ],
      "name": "RoleAdminChanged",
      "type": "event"
    },
    {
      "anonymous": false,
      "inputs": [
        {
          "indexed": true,
          "internalType": "bytes32",
          "name": "role",
          "type": "bytes32"
        },
        {
          "indexed": true,
          "internalType": "address",
          "name": "account",
          "type": "address"
        },
        {
          "indexed": true,
          "internalType": "address",
          "name": "sender",
          "type": "address"
        }
      ],
      "name": "RoleGranted",
      "type": "event"
    },
    {
      "anonymous": false,
      "inputs": [
        {
          "indexed": true,
          "internalType": "bytes32",
          "name": "role",
          "type": "bytes32"
        },
        {
          "indexed": true,
          "internalType": "address",
          "name": "account",
          "type": "address"
        },
        {
          "indexed": true,
          "internalType": "address",
          "name": "sender",
          "type": "address"
        }
      ],
      "name": "RoleRevoked",
      "type": "event"
    },
    {
      "inputs": [],
      "name": "ADMIN_ROLE",
      "outputs": [
        {
          "internalType": "bytes32",
          "name": "",
          "type": "bytes32"
        }
      ],
      "stateMutability": "view",
      "type": "function"
    },
    {
      "inputs": [],
      "name": "BURNER_ROLE",
      "outputs": [
        {
          "internalType": "bytes32",
          "name": "",
          "type": "bytes32"
        }
      ],
      "stateMutability": "view",
      "type": "function"
    },
    {
      "inputs": [],
      "name": "DEFAULT_ADMIN_ROLE",
      "outputs": [
        {
          "internalType": "bytes32",
          "name": "",
          "type": "bytes32"
        }
      ],
      "stateMutability": "view",
      "type": "function"
    },
    {
      "inputs": [],
      "name": "MINTER_ROLE",
      "outputs": [
        {
          "internalType": "bytes32",
          "name": "",
          "type": "bytes32"
        }
      ],
      "stateMutability": "view",
      "type": "function"
    },
    {
      "inputs": [],
      "name": "PROJECT_ADMIN_ROLE",
      "outputs": [
        {
          "internalType": "bytes32",
          "name": "",
          "type": "bytes32"
        }
      ],
      "stateMutability": "view",
      "type": "function"
    },
    {
      "inputs": [
        {
          "internalType": "address",
          "name": "account",
          "type": "address"
        }
      ],
      "name": "addAdmin",
      "outputs": [],
      "stateMutability": "nonpayable",
      "type": "function"
    },
    {
      "inputs": [],
      "name": "cap",
      "outputs": [
        {
          "internalType": "uint256",
          "name": "",
          "type": "uint256"
        }
      ],
      "stateMutability": "view",
      "type": "function"
    },
    {
      "inputs": [
        {
          "internalType": "bytes32",
          "name": "role",
          "type": "bytes32"
        }
      ],
      "name": "getRoleAdmin",
      "outputs": [
        {
          "internalType": "bytes32",
          "name": "",
          "type": "bytes32"
        }
      ],
      "stateMutability": "view",
      "type": "function"
    },
    {
      "inputs": [
        {
          "internalType": "bytes32",
          "name": "role",
          "type": "bytes32"
        },
        {
          "internalType": "uint256",
          "name": "index",
          "type": "uint256"
        }
      ],
      "name": "getRoleMember",
      "outputs": [
        {
          "internalType": "address",
          "name": "",
          "type": "address"
        }
      ],
      "stateMutability": "view",
      "type": "function"
    },
    {
      "inputs": [
        {
          "internalType": "bytes32",
          "name": "role",
          "type": "bytes32"
        }
      ],
      "name": "getRoleMemberCount",
      "outputs": [
        {
          "internalType": "uint256",
          "name": "",
          "type": "uint256"
        }
      ],
      "stateMutability": "view",
      "type": "function"
    },
    {
      "inputs": [
        {
          "internalType": "bytes32",
          "name": "role",
          "type": "bytes32"
        },
        {
          "internalType": "address",
          "name": "account",
          "type": "address"
        }
      ],
      "name": "grantRole",
      "outputs": [],
      "stateMutability": "nonpayable",
      "type": "function"
    },
    {
      "inputs": [
        {
          "internalType": "bytes32",
          "name": "role",
          "type": "bytes32"
        },
        {
          "internalType": "address",
          "name": "account",
          "type": "address"
        }
      ],
      "name": "hasRole",
      "outputs": [
        {
          "internalType": "bool",
          "name": "",
          "type": "bool"
        }
      ],
      "stateMutability": "view",
      "type": "function"
    },
    {
      "inputs": [
        {
          "internalType": "address",
          "name": "account",
          "type": "address"
        }
      ],
      "name": "isAdmin",
      "outputs": [
        {
          "internalType": "bool",
          "name": "",
          "type": "bool"
        }
      ],
      "stateMutability": "view",
      "type": "function"
    },
    {
      "inputs": [],
      "name": "migratedL2",
      "outputs": [
        {
          "internalType": "bool",
          "name": "",
          "type": "bool"
        }
      ],
      "stateMutability": "view",
      "type": "function"
    },
    {
      "inputs": [],
      "name": "miningAmountTotal",
      "outputs": [
        {
          "internalType": "uint256",
          "name": "",
          "type": "uint256"
        }
      ],
      "stateMutability": "view",
      "type": "function"
    },
    {
      "inputs": [],
      "name": "miningEndTime",
      "outputs": [
        {
          "internalType": "uint256",
          "name": "",
          "type": "uint256"
        }
      ],
      "stateMutability": "view",
      "type": "function"
    },
    {
      "inputs": [],
      "name": "miningPerSecond",
      "outputs": [
        {
          "internalType": "uint256",
          "name": "",
          "type": "uint256"
        }
      ],
      "stateMutability": "view",
      "type": "function"
    },
    {
      "inputs": [],
      "name": "miningStartTime",
      "outputs": [
        {
          "internalType": "uint256",
          "name": "",
          "type": "uint256"
        }
      ],
      "stateMutability": "view",
      "type": "function"
    },
    {
      "inputs": [],
      "name": "name",
      "outputs": [
        {
          "internalType": "string",
          "name": "",
          "type": "string"
        }
      ],
      "stateMutability": "view",
      "type": "function"
    },
    {
      "inputs": [],
      "name": "nonMiningAmountTotal",
      "outputs": [
        {
          "internalType": "uint256",
          "name": "",
          "type": "uint256"
        }
      ],
      "stateMutability": "view",
      "type": "function"
    },
    {
      "inputs": [],
      "name": "pauseProxy",
      "outputs": [
        {
          "internalType": "bool",
          "name": "",
          "type": "bool"
        }
      ],
      "stateMutability": "view",
      "type": "function"
    },
    {
      "inputs": [
        {
          "internalType": "address",
          "name": "account",
          "type": "address"
        }
      ],
      "name": "removeAdmin",
      "outputs": [],
      "stateMutability": "nonpayable",
      "type": "function"
    },
    {
      "inputs": [
        {
          "internalType": "bytes32",
          "name": "role",
          "type": "bytes32"
        },
        {
          "internalType": "address",
          "name": "account",
          "type": "address"
        }
      ],
      "name": "renounceRole",
      "outputs": [],
      "stateMutability": "nonpayable",
      "type": "function"
    },
    {
      "inputs": [
        {
          "internalType": "bytes32",
          "name": "role",
          "type": "bytes32"
        },
        {
          "internalType": "address",
          "name": "account",
          "type": "address"
        }
      ],
      "name": "revokeRole",
      "outputs": [],
      "stateMutability": "nonpayable",
      "type": "function"
    },
    {
      "inputs": [],
      "name": "stakeAddress",
      "outputs": [
        {
          "internalType": "address",
          "name": "",
          "type": "address"
        }
      ],
      "stateMutability": "view",
      "type": "function"
    },
    {
      "inputs": [],
      "name": "stakeType",
      "outputs": [
        {
          "internalType": "uint256",
          "name": "",
          "type": "uint256"
        }
      ],
      "stateMutability": "view",
      "type": "function"
    },
    {
      "inputs": [],
      "name": "tos",
      "outputs": [
        {
          "internalType": "address",
          "name": "",
          "type": "address"
        }
      ],
      "stateMutability": "view",
      "type": "function"
    },
    {
      "inputs": [],
      "name": "totalMinedAmount",
      "outputs": [
        {
          "internalType": "uint256",
          "name": "",
          "type": "uint256"
        }
      ],
      "stateMutability": "view",
      "type": "function"
    },
    {
      "inputs": [
        {
          "internalType": "address",
          "name": "newAdmin",
          "type": "address"
        }
      ],
      "name": "transferAdmin",
      "outputs": [],
      "stateMutability": "nonpayable",
      "type": "function"
    }
  ],
  "bytecode": "0x608060405234801561001057600080fd5b50610d5e806100206000396000f3fe608060405234801561001057600080fd5b506004361061018f5760003560e01c806370480275116100e4578063a1f5f50e11610092578063a1f5f50e14610409578063a217fddf14610411578063af182fce14610419578063b97af0db14610421578063ca15c87314610429578063d539139314610446578063d547741f1461044e578063f00915091461047a5761018f565b8063704802751461033a57806375829def1461036057806375b238fc14610386578063851073671461038e57806389f395de146103b25780639010d07c146103ba57806391d14854146103dd5761018f565b80632f2ff15d116101415780632f2ff15d146102ba578063355274ea146102e657806336568abe146102ee57806341c04d5e1461031a5780634ce77abe146103225780635f139e3f1461032a57806363a8fd89146103325761018f565b806301f88d261461019457806306fdde03146101ae5780631785f53c1461022b578063248a9ca31461025357806324d7806c146102705780632736b391146102aa578063282c51f3146102b2575b600080fd5b61019c610482565b60408051918252519081900360200190f35b6101b6610488565b6040805160208082528351818301528351919283929083019185019080838360005b838110156101f05781810151838201526020016101d8565b50505050905090810190601f16801561021d5780820380516001836020036101000a031916815260200191505b509250505060405180910390f35b6102516004803603602081101561024157600080fd5b50356001600160a01b0316610513565b005b61019c6004803603602081101561026957600080fd5b5035610572565b6102966004803603602081101561028657600080fd5b50356001600160a01b0316610587565b604080519115158252519081900360200190f35b61019c6105a7565b61019c6105ad565b610251600480360360408110156102d057600080fd5b50803590602001356001600160a01b03166105d1565b61019c61063d565b6102516004803603604081101561030457600080fd5b50803590602001356001600160a01b0316610643565b61019c6106a4565b61019c6106c8565b61019c6106ce565b6102966106d4565b6102516004803603602081101561035057600080fd5b50356001600160a01b03166106dd565b6102516004803603602081101561037657600080fd5b50356001600160a01b0316610739565b61019c61085a565b61039661086c565b604080516001600160a01b039092168252519081900360200190f35b61039661087b565b610396600480360360408110156103d057600080fd5b508035906020013561088a565b610296600480360360408110156103f357600080fd5b50803590602001356001600160a01b03166108a9565b6102966108c1565b61019c6108cf565b61019c6108d4565b61019c6108da565b61019c6004803603602081101561043f57600080fd5b50356108e0565b61019c6108f7565b6102516004803603604081101561046457600080fd5b50803590602001356001600160a01b031661091b565b61019c610974565b60045481565b6002805460408051602060018416156101000260001901909316849004601f8101849004840282018401909252818152929183018282801561050b5780601f106104e05761010080835404028352916020019161050b565b820191906000526020600020905b8154815290600101906020018083116104ee57829003601f168201915b505050505081565b61051c33610587565b6105575760405162461bcd60e51b8152600401808060200182810382526022815260200180610c886022913960400191505060405180910390fd5b61056f600080516020610cda83398151915282610643565b50565b60009081526020819052604090206002015490565b60006105a1600080516020610cda833981519152836108a9565b92915050565b60055481565b7f9667e80708b6eeeb0053fa0cca44e028ff548e2a9f029edfeac87c118b08b7c881565b6000828152602081905260409020600201546105f4906105ef61097a565b6108a9565b61062f5760405162461bcd60e51b815260040180806020018281038252602f815260200180610c59602f913960400191505060405180910390fd5b610639828261097e565b5050565b60035481565b61064b61097a565b6001600160a01b0316816001600160a01b03161461069a5760405162461bcd60e51b815260040180806020018281038252602f815260200180610cfa602f913960400191505060405180910390fd5b61063982826109e7565b7f52eafc11f6f81f86878bffd31109a0d92f37506527754f00788853ff9f63b13081565b60065481565b60095481565b600d5460ff1681565b6106e633610587565b6107215760405162461bcd60e51b8152600401808060200182810382526022815260200180610c886022913960400191505060405180910390fd5b61056f600080516020610cda833981519152826105d1565b61074233610587565b61077d5760405162461bcd60e51b8152600401808060200182810382526022815260200180610c886022913960400191505060405180910390fd5b6001600160a01b0381166107d3576040805162461bcd60e51b815260206004820152601860248201527741636365737369626c653a207a65726f206164647265737360401b604482015290519081900360640190fd5b336001600160a01b038216141561082a576040805162461bcd60e51b815260206004820152601660248201527520b1b1b2b9b9b4b136329d1039b0b6b29030b236b4b760511b604482015290519081900360640190fd5b610842600080516020610cda833981519152826105d1565b61056f600080516020610cda83398151915233610643565b600080516020610cda83398151915281565b6008546001600160a01b031681565b6001546001600160a01b031681565b60008281526020819052604081206108a29083610a50565b9392505050565b60008281526020819052604081206108a29083610a5c565b600d54610100900460ff1681565b600081565b600a5481565b60075481565b60008181526020819052604081206105a190610a71565b7ff0887ba65ee2024ea881d91b74c2450ef19e1557f03bed3ea9f16b037cbe2dc981565b600082815260208190526040902060020154610939906105ef61097a565b61069a5760405162461bcd60e51b8152600401808060200182810382526030815260200180610caa6030913960400191505060405180910390fd5b600b5481565b3390565b60008281526020819052604090206109969082610a7c565b15610639576109a361097a565b6001600160a01b0316816001600160a01b0316837f2f8788117e7eff1d82e926ec794901d17c78024a50270940304540a733656f0d60405160405180910390a45050565b60008281526020819052604090206109ff9082610a91565b1561063957610a0c61097a565b6001600160a01b0316816001600160a01b0316837ff6391f5c32d9c69d2a47ea670b442974b53935d1edc7fd64eb21e047a839171b60405160405180910390a45050565b60006108a28383610aa6565b60006108a2836001600160a01b038416610b0a565b60006105a182610b22565b60006108a2836001600160a01b038416610b26565b60006108a2836001600160a01b038416610b70565b81546000908210610ae85760405162461bcd60e51b8152600401808060200182810382526022815260200180610c376022913960400191505060405180910390fd5b826000018281548110610af757fe5b9060005260206000200154905092915050565b60009081526001919091016020526040902054151590565b5490565b6000610b328383610b0a565b610b68575081546001818101845560008481526020808220909301849055845484825282860190935260409020919091556105a1565b5060006105a1565b60008181526001830160205260408120548015610c2c5783546000198083019190810190600090879083908110610ba357fe5b9060005260206000200154905080876000018481548110610bc057fe5b600091825260208083209091019290925582815260018981019092526040902090840190558654879080610bf057fe5b600190038181906000526020600020016000905590558660010160008781526020019081526020016000206000905560019450505050506105a1565b60009150506105a156fe456e756d657261626c655365743a20696e646578206f7574206f6620626f756e6473416363657373436f6e74726f6c3a2073656e646572206d75737420626520616e2061646d696e20746f206772616e7441636365737369626c653a2043616c6c6572206973206e6f7420616e2061646d696e416363657373436f6e74726f6c3a2073656e646572206d75737420626520616e2061646d696e20746f207265766f6b65df8b4c520ffe197c5343c6f5aec59570151ef9a492f2c624fd45ddde6135ec42416363657373436f6e74726f6c3a2063616e206f6e6c792072656e6f756e636520726f6c657320666f722073656c66a2646970667358221220175b9624d8f9f161835f3846e7befed66f954569817c0915d2ceec9eb226dadd64736f6c63430007060033",
  "linkReferences": {},
  "deployedLinkReferences": {}
}