{
  "_format": "hh-sol-artifact-1",
  "contractName": "PublicSaleProxyFactory",
  "sourceName": "contracts/factory/PublicSaleProxyFactory.sol",
  "abi": [
    {
      "inputs": [],
      "stateMutability": "nonpayable",
      "type": "constructor"
    },
    {
      "anonymous": false,
      "inputs": [
        {
          "indexed": false,
          "internalType": "address",
          "name": "contractAddress",
          "type": "address"
        },
        {
          "indexed": false,
          "internalType": "string",
          "name": "name",
          "type": "string"
        }
      ],
      "name": "CreatedPublicSaleProxy",
      "type": "event"
    },
    {
      "anonymous": false,
      "inputs": [
        {
          "indexed": true,
          "internalType": "bytes32",
          "name": "role",
          "type": "bytes32"
        },
        {
          "indexed": true,
          "internalType": "bytes32",
          "name": "previousAdminRole",
          "type": "bytes32"
        },
        {
          "indexed": true,
          "internalType": "bytes32",
          "name": "newAdminRole",
          "type": "bytes32"
        }
      ],
      "name": "RoleAdminChanged",
      "type": "event"
    },
    {
      "anonymous": false,
      "inputs": [
        {
          "indexed": true,
          "internalType": "bytes32",
          "name": "role",
          "type": "bytes32"
        },
        {
          "indexed": true,
          "internalType": "address",
          "name": "account",
          "type": "address"
        },
        {
          "indexed": true,
          "internalType": "address",
          "name": "sender",
          "type": "address"
        }
      ],
      "name": "RoleGranted",
      "type": "event"
    },
    {
      "anonymous": false,
      "inputs": [
        {
          "indexed": true,
          "internalType": "bytes32",
          "name": "role",
          "type": "bytes32"
        },
        {
          "indexed": true,
          "internalType": "address",
          "name": "account",
          "type": "address"
        },
        {
          "indexed": true,
          "internalType": "address",
          "name": "sender",
          "type": "address"
        }
      ],
      "name": "RoleRevoked",
      "type": "event"
    },
    {
      "inputs": [],
      "name": "ADMIN_ROLE",
      "outputs": [
        {
          "internalType": "bytes32",
          "name": "",
          "type": "bytes32"
        }
      ],
      "stateMutability": "view",
      "type": "function"
    },
    {
      "inputs": [],
      "name": "BURNER_ROLE",
      "outputs": [
        {
          "internalType": "bytes32",
          "name": "",
          "type": "bytes32"
        }
      ],
      "stateMutability": "view",
      "type": "function"
    },
    {
      "inputs": [],
      "name": "DEFAULT_ADMIN_ROLE",
      "outputs": [
        {
          "internalType": "bytes32",
          "name": "",
          "type": "bytes32"
        }
      ],
      "stateMutability": "view",
      "type": "function"
    },
    {
      "inputs": [],
      "name": "MINTER_ROLE",
      "outputs": [
        {
          "internalType": "bytes32",
          "name": "",
          "type": "bytes32"
        }
      ],
      "stateMutability": "view",
      "type": "function"
    },
    {
      "inputs": [],
      "name": "PROJECT_ADMIN_ROLE",
      "outputs": [
        {
          "internalType": "bytes32",
          "name": "",
          "type": "bytes32"
        }
      ],
      "stateMutability": "view",
      "type": "function"
    },
    {
      "inputs": [
        {
          "internalType": "address",
          "name": "account",
          "type": "address"
        }
      ],
      "name": "addAdmin",
      "outputs": [],
      "stateMutability": "nonpayable",
      "type": "function"
    },
    {
      "inputs": [
        {
          "internalType": "address[3]",
          "name": "_addr",
          "type": "address[3]"
        },
        {
          "internalType": "uint256[7]",
          "name": "_value",
          "type": "uint256[7]"
        }
      ],
      "name": "allSet",
      "outputs": [],
      "stateMutability": "nonpayable",
      "type": "function"
    },
    {
      "inputs": [
        {
          "internalType": "address[6]",
          "name": "_basicAddress",
          "type": "address[6]"
        }
      ],
      "name": "basicSet",
      "outputs": [],
      "stateMutability": "nonpayable",
      "type": "function"
    },
    {
      "inputs": [
        {
          "internalType": "string",
          "name": "name",
          "type": "string"
        },
        {
          "internalType": "address",
          "name": "_owner",
          "type": "address"
        },
        {
          "internalType": "address[3]",
          "name": "saleAddresses",
          "type": "address[3]"
        },
        {
          "internalType": "uint256",
          "name": "_index",
          "type": "uint256"
        }
      ],
      "name": "create",
      "outputs": [
        {
          "internalType": "address",
          "name": "",
          "type": "address"
        }
      ],
      "stateMutability": "nonpayable",
      "type": "function"
    },
    {
      "inputs": [
        {
          "internalType": "uint256",
          "name": "",
          "type": "uint256"
        }
      ],
      "name": "createdContracts",
      "outputs": [
        {
          "internalType": "address",
          "name": "contractAddress",
          "type": "address"
        },
        {
          "internalType": "string",
          "name": "name",
          "type": "string"
        }
      ],
      "stateMutability": "view",
      "type": "function"
    },
    {
      "inputs": [],
      "name": "delayTime",
      "outputs": [
        {
          "internalType": "uint256",
          "name": "",
          "type": "uint256"
        }
      ],
      "stateMutability": "view",
      "type": "function"
    },
    {
      "inputs": [
        {
          "internalType": "uint256",
          "name": "_index",
          "type": "uint256"
        }
      ],
      "name": "getContracts",
      "outputs": [
        {
          "internalType": "address",
          "name": "contractAddress",
          "type": "address"
        },
        {
          "internalType": "string",
          "name": "name",
          "type": "string"
        }
      ],
      "stateMutability": "view",
      "type": "function"
    },
    {
      "inputs": [
        {
          "internalType": "bytes32",
          "name": "role",
          "type": "bytes32"
        }
      ],
      "name": "getRoleAdmin",
      "outputs": [
        {
          "internalType": "bytes32",
          "name": "",
          "type": "bytes32"
        }
      ],
      "stateMutability": "view",
      "type": "function"
    },
    {
      "inputs": [
        {
          "internalType": "bytes32",
          "name": "role",
          "type": "bytes32"
        },
        {
          "internalType": "uint256",
          "name": "index",
          "type": "uint256"
        }
      ],
      "name": "getRoleMember",
      "outputs": [
        {
          "internalType": "address",
          "name": "",
          "type": "address"
        }
      ],
      "stateMutability": "view",
      "type": "function"
    },
    {
      "inputs": [
        {
          "internalType": "bytes32",
          "name": "role",
          "type": "bytes32"
        }
      ],
      "name": "getRoleMemberCount",
      "outputs": [
        {
          "internalType": "uint256",
          "name": "",
          "type": "uint256"
        }
      ],
      "stateMutability": "view",
      "type": "function"
    },
    {
      "inputs": [
        {
          "internalType": "bytes32",
          "name": "role",
          "type": "bytes32"
        },
        {
          "internalType": "address",
          "name": "account",
          "type": "address"
        }
      ],
      "name": "grantRole",
      "outputs": [],
      "stateMutability": "nonpayable",
      "type": "function"
    },
    {
      "inputs": [
        {
          "internalType": "bytes32",
          "name": "role",
          "type": "bytes32"
        },
        {
          "internalType": "address",
          "name": "account",
          "type": "address"
        }
      ],
      "name": "hasRole",
      "outputs": [
        {
          "internalType": "bool",
          "name": "",
          "type": "bool"
        }
      ],
      "stateMutability": "view",
      "type": "function"
    },
    {
      "inputs": [
        {
          "internalType": "address",
          "name": "account",
          "type": "address"
        }
      ],
      "name": "isAdmin",
      "outputs": [
        {
          "internalType": "bool",
          "name": "",
          "type": "bool"
        }
      ],
      "stateMutability": "view",
      "type": "function"
    },
    {
      "inputs": [],
      "name": "lastestCreated",
      "outputs": [
        {
          "internalType": "address",
          "name": "contractAddress",
          "type": "address"
        },
        {
          "internalType": "string",
          "name": "name",
          "type": "string"
        }
      ],
      "stateMutability": "view",
      "type": "function"
    },
    {
      "inputs": [],
      "name": "logEventAddress",
      "outputs": [
        {
          "internalType": "address",
          "name": "",
          "type": "address"
        }
      ],
      "stateMutability": "view",
      "type": "function"
    },
    {
      "inputs": [],
      "name": "maxTOS",
      "outputs": [
        {
          "internalType": "uint256",
          "name": "",
          "type": "uint256"
        }
      ],
      "stateMutability": "view",
      "type": "function"
    },
    {
      "inputs": [],
      "name": "minTOS",
      "outputs": [
        {
          "internalType": "uint256",
          "name": "",
          "type": "uint256"
        }
      ],
      "stateMutability": "view",
      "type": "function"
    },
    {
      "inputs": [],
      "name": "publicLogic",
      "outputs": [
        {
          "internalType": "address",
          "name": "",
          "type": "address"
        }
      ],
      "stateMutability": "view",
      "type": "function"
    },
    {
      "inputs": [
        {
          "internalType": "address",
          "name": "account",
          "type": "address"
        }
      ],
      "name": "removeAdmin",
      "outputs": [],
      "stateMutability": "nonpayable",
      "type": "function"
    },
    {
      "inputs": [
        {
          "internalType": "bytes32",
          "name": "role",
          "type": "bytes32"
        },
        {
          "internalType": "address",
          "name": "account",
          "type": "address"
        }
      ],
      "name": "renounceRole",
      "outputs": [],
      "stateMutability": "nonpayable",
      "type": "function"
    },
    {
      "inputs": [
        {
          "internalType": "bytes32",
          "name": "role",
          "type": "bytes32"
        },
        {
          "internalType": "address",
          "name": "account",
          "type": "address"
        }
      ],
      "name": "revokeRole",
      "outputs": [],
      "stateMutability": "nonpayable",
      "type": "function"
    },
    {
      "inputs": [],
      "name": "sTOSAddress",
      "outputs": [
        {
          "internalType": "address",
          "name": "",
          "type": "address"
        }
      ],
      "stateMutability": "view",
      "type": "function"
    },
    {
      "inputs": [
        {
          "internalType": "uint256",
          "name": "_delay",
          "type": "uint256"
        }
      ],
      "name": "setDelay",
      "outputs": [],
      "stateMutability": "nonpayable",
      "type": "function"
    },
    {
      "inputs": [
        {
          "internalType": "address",
          "name": "_addr",
          "type": "address"
        }
      ],
      "name": "setEventLog",
      "outputs": [],
      "stateMutability": "nonpayable",
      "type": "function"
    },
    {
      "inputs": [
        {
          "internalType": "uint256",
          "name": "_min",
          "type": "uint256"
        },
        {
          "internalType": "uint256",
          "name": "_max",
          "type": "uint256"
        }
      ],
      "name": "setMaxMin",
      "outputs": [],
      "stateMutability": "nonpayable",
      "type": "function"
    },
    {
      "inputs": [
        {
          "internalType": "uint256",
          "name": "_tier1",
          "type": "uint256"
        },
        {
          "internalType": "uint256",
          "name": "_tier2",
          "type": "uint256"
        },
        {
          "internalType": "uint256",
          "name": "_tier3",
          "type": "uint256"
        },
        {
          "internalType": "uint256",
          "name": "_tier4",
          "type": "uint256"
        }
      ],
      "name": "setSTOS",
      "outputs": [],
      "stateMutability": "nonpayable",
      "type": "function"
    },
    {
      "inputs": [
        {
          "internalType": "address",
          "name": "addr",
          "type": "address"
        }
      ],
      "name": "setUpgradeAdmin",
      "outputs": [],
      "stateMutability": "nonpayable",
      "type": "function"
    },
    {
      "inputs": [
        {
          "internalType": "address",
          "name": "_vaultFactory",
          "type": "address"
        }
      ],
      "name": "setVault",
      "outputs": [],
      "stateMutability": "nonpayable",
      "type": "function"
    },
    {
      "inputs": [],
      "name": "tier1",
      "outputs": [
        {
          "internalType": "uint256",
          "name": "",
          "type": "uint256"
        }
      ],
      "stateMutability": "view",
      "type": "function"
    },
    {
      "inputs": [],
      "name": "tier2",
      "outputs": [
        {
          "internalType": "uint256",
          "name": "",
          "type": "uint256"
        }
      ],
      "stateMutability": "view",
      "type": "function"
    },
    {
      "inputs": [],
      "name": "tier3",
      "outputs": [
        {
          "internalType": "uint256",
          "name": "",
          "type": "uint256"
        }
      ],
      "stateMutability": "view",
      "type": "function"
    },
    {
      "inputs": [],
      "name": "tier4",
      "outputs": [
        {
          "internalType": "uint256",
          "name": "",
          "type": "uint256"
        }
      ],
      "stateMutability": "view",
      "type": "function"
    },
    {
      "inputs": [],
      "name": "tonAddress",
      "outputs": [
        {
          "internalType": "address",
          "name": "",
          "type": "address"
        }
      ],
      "stateMutability": "view",
      "type": "function"
    },
    {
      "inputs": [],
      "name": "tosAddress",
      "outputs": [
        {
          "internalType": "address",
          "name": "",
          "type": "address"
        }
      ],
      "stateMutability": "view",
      "type": "function"
    },
    {
      "inputs": [],
      "name": "totalCreatedContracts",
      "outputs": [
        {
          "internalType": "uint256",
          "name": "",
          "type": "uint256"
        }
      ],
      "stateMutability": "view",
      "type": "function"
    },
    {
      "inputs": [
        {
          "internalType": "address",
          "name": "newAdmin",
          "type": "address"
        }
      ],
      "name": "transferAdmin",
      "outputs": [],
      "stateMutability": "nonpayable",
      "type": "function"
    },
    {
      "inputs": [],
      "name": "uniRouterAddress",
      "outputs": [
        {
          "internalType": "address",
          "name": "",
          "type": "address"
        }
      ],
      "stateMutability": "view",
      "type": "function"
    },
    {
      "inputs": [],
      "name": "upgradeAdmin",
      "outputs": [
        {
          "internalType": "address",
          "name": "",
          "type": "address"
        }
      ],
      "stateMutability": "view",
      "type": "function"
    },
    {
      "inputs": [],
      "name": "vaultFactory",
      "outputs": [
        {
          "internalType": "address",
          "name": "",
          "type": "address"
        }
      ],
      "stateMutability": "view",
      "type": "function"
    },
    {
      "inputs": [],
      "name": "wtonAddress",
      "outputs": [
        {
          "internalType": "address",
          "name": "",
          "type": "address"
        }
      ],
      "stateMutability": "view",
      "type": "function"
    }
  ],
  "bytecode": "0x60806040523480156200001157600080fd5b50600060015562000032600080516020620055f48339815191528062000065565b6200004d600080516020620055f483398151915233620000b7565b600c80546001600160a01b03191633179055620001cb565b600082815260208190526040808220600201549051839285917fbd79b86ffe0ab8e8776151514217cd7cacd52c909f66475c3af44e129f0b00ff9190a460009182526020829052604090912060020155565b620000c38282620000c7565b5050565b600082815260208181526040909120620000ec9183906200208662000140821b17901c565b15620000c357620000fc62000160565b6001600160a01b0316816001600160a01b0316837f2f8788117e7eff1d82e926ec794901d17c78024a50270940304540a733656f0d60405160405180910390a45050565b600062000157836001600160a01b03841662000164565b90505b92915050565b3390565b6000620001728383620001b3565b620001aa575081546001818101845560008481526020808220909301849055845484825282860190935260409020919091556200015a565b5060006200015a565b60009081526001919091016020526040902054151590565b61541980620001db6000396000f3fe60806040523480156200001157600080fd5b5060043610620002bc5760003560e01c806375829def116200017d578063b8ead73511620000e1578063d547741f1162000093578063d547741f146200078a578063d8a06f7314620007b9578063e177246e14620007c3578063eab73ca114620007e3578063eff616f014620007ed578063fc8c9745146200081157620002bc565b8063b8ead7351462000738578063bb6b13a11462000742578063c4d5608a146200074c578063ca15c8731462000756578063d05261871462000776578063d5391393146200078057620002bc565b806389ae153e116200013b57806389ae153e14620006025780639010d07c1462000628578063906a5c5a146200064e57806391d1485414620006d65780639342f4171462000705578063a217fddf146200072e57620002bc565b806375829def14620005b157806375b238fc14620005da57806377fc004514620005e45780637e2eee5314620005ee57806384d3bac314620005f857620002bc565b806336568abe11620002255780634b1740ad11620001e35780634b1740ad1462000537578063520a63dc14620005415780636817031b146200054b578063693a090b14620005745780636a93d511146200057e57806370480275146200058857620002bc565b806336568abe14620004ca5780633806153e14620004f957806341c04d5e1462000503578063439e23fd146200050d5780634a240051146200052d57620002bc565b8063248a9ca3116200027f578063248a9ca3146200040e57806324d7806c1462000440578063282c51f3146200047d5780632f2ff15d1462000487578063338bad5f14620004b657806333ae716614620004c057620002bc565b80630881139714620002c15780630eec5ef1146200036c5780631042f08d146200038d5780631785f53c14620003b35780631b61aaab14620003dc575b600080fd5b620002e160048036036020811015620002d957600080fd5b50356200083a565b60405180836001600160a01b0316815260200180602001828103825283818151815260200191508051906020019080838360005b838110156200032f57818101518382015260200162000315565b50505050905090810190601f1680156200035d5780820380516001836020036101000a031916815260200191505b50935050505060405180910390f35b6200038b600480360360c08110156200038457600080fd5b50620008f2565b005b62000397620009b5565b604080516001600160a01b039092168252519081900360200190f35b6200038b60048036036020811015620003cb57600080fd5b50356001600160a01b0316620009c4565b6200038b60048036036080811015620003f457600080fd5b508035906020810135906040810135906060013562000a2a565b6200042e600480360360208110156200042657600080fd5b503562000ae4565b60408051918252519081900360200190f35b62000469600480360360208110156200045857600080fd5b50356001600160a01b031662000af9565b604080519115158252519081900360200190f35b6200042e62000b1c565b6200038b600480360360408110156200049f57600080fd5b50803590602001356001600160a01b031662000b40565b620002e162000bb4565b6200042e62000c9d565b6200038b60048036036040811015620004e257600080fd5b50803590602001356001600160a01b031662000ca3565b6200042e62000d0a565b6200042e62000d10565b620002e1600480360360208110156200052557600080fd5b503562000d34565b6200039762000e1b565b6200042e62000e2a565b6200042e62000e30565b6200038b600480360360208110156200056357600080fd5b50356001600160a01b031662000e36565b6200039762000ef1565b6200039762000f00565b6200038b60048036036020811015620005a057600080fd5b50356001600160a01b031662000f0f565b6200038b60048036036020811015620005c957600080fd5b50356001600160a01b031662000f72565b6200042e6200109f565b62000397620010b2565b6200042e620010c1565b6200042e620010c7565b6200038b600480360360408110156200061a57600080fd5b5080359060200135620010cd565b62000397600480360360408110156200064057600080fd5b508035906020013562001166565b62000397600480360360c08110156200066657600080fd5b810190602081018135600160201b8111156200068157600080fd5b8201836020820111156200069457600080fd5b803590602001918460018302840111600160201b83111715620006b657600080fd5b91935091506001600160a01b038135169060208101906080013562001187565b6200046960048036036040811015620006ee57600080fd5b50803590602001356001600160a01b031662001c64565b6200038b600480360360208110156200071d57600080fd5b50356001600160a01b031662001c7e565b6200042e62001d86565b6200039762001d8b565b6200042e62001d9a565b6200039762001da0565b6200042e600480360360208110156200076e57600080fd5b503562001daf565b6200042e62001dc8565b6200042e62001dce565b6200038b60048036036040811015620007a257600080fd5b50803590602001356001600160a01b031662001df2565b6200039762001e50565b6200038b60048036036020811015620007db57600080fd5b503562001e5f565b6200039762001ef1565b6200038b60048036036101408110156200080657600080fd5b506060810162001f00565b6200038b600480360360208110156200082957600080fd5b50356001600160a01b031662001fcb565b6012602090815260009182526040918290208054600180830180548651600261010094831615949094026000190190911692909204601f81018690048602830186019096528582526001600160a01b03909216949293909290830182828015620008e85780601f10620008bc57610100808354040283529160200191620008e8565b820191906000526020600020905b815481529060010190602001808311620008ca57829003601f168201915b5050505050905082565b620008fd3362000af9565b6200093a5760405162461bcd60e51b8152600401808060200182810382526022815260200180620053236022913960400191505060405180910390fd5b600480546001600160a01b03199081166001600160a01b03843581169190911790925560058054821660208501358416179055600680548216604085013584161790556007805482166060850135841617905560088054821660808501358416179055600b805490911660a090930135909116919091179055565b6007546001600160a01b031681565b620009cf3362000af9565b62000a0c5760405162461bcd60e51b8152600401808060200182810382526022815260200180620053236022913960400191505060405180910390fd5b62000a27600080516020620053958339815191528262000ca3565b50565b62000a353362000af9565b62000a725760405162461bcd60e51b8152600401808060200182810382526022815260200180620053236022913960400191505060405180910390fd5b828410801562000a8157508183105b801562000a8d57508082105b62000ad0576040805162461bcd60e51b815260206004820152600e60248201526d3a34b2b91039b2ba1032b93937b960911b604482015290519081900360640190fd5b600d93909355600e91909155600f55601055565b60009081526020819052604090206002015490565b600062000b16600080516020620053958339815191528362001c64565b92915050565b7f9667e80708b6eeeb0053fa0cca44e028ff548e2a9f029edfeac87c118b08b7c881565b60008281526020819052604090206002015462000b679062000b616200209d565b62001c64565b62000ba45760405162461bcd60e51b815260040180806020018281038252602f815260200180620052f4602f913960400191505060405180910390fd5b62000bb08282620020a1565b5050565b600060606000600154111562000c855760018054600019908101600090815260126020908152604091829020805490850180548451601f60029883161561010002909701909116969096049485018390048302860183019093528385526001600160a01b0316939192839183018282801562000c745780601f1062000c485761010080835404028352916020019162000c74565b820191906000526020600020905b81548152906001019060200180831162000c5657829003601f168201915b505050505090509150915062000c99565b505060408051602081019091526000808252905b9091565b60105481565b62000cad6200209d565b6001600160a01b0316816001600160a01b03161462000cfe5760405162461bcd60e51b815260040180806020018281038252602f815260200180620053b5602f913960400191505060405180910390fd5b62000bb082826200210f565b600e5481565b7f52eafc11f6f81f86878bffd31109a0d92f37506527754f00788853ff9f63b13081565b6000606060015483101562000e02576000838152601260209081526040918290208054600191820180548551600261010095831615959095026000190190911693909304601f81018590048502840185019095528483526001600160a01b0390911693909283919083018282801562000df15780601f1062000dc55761010080835404028352916020019162000df1565b820191906000526020600020905b81548152906001019060200180831162000dd357829003601f168201915b505050505090509150915062000e16565b505060408051602081019091526000808252905b915091565b600b546001600160a01b031681565b600f5481565b60025481565b62000e413362000af9565b62000e7e5760405162461bcd60e51b8152600401808060200182810382526022815260200180620053236022913960400191505060405180910390fd5b6009546001600160a01b038281169116141562000ecf576040805162461bcd60e51b815260206004820152600a60248201526973616d6520616464727360b01b604482015290519081900360640190fd5b600980546001600160a01b0319166001600160a01b0392909216919091179055565b6008546001600160a01b031681565b6004546001600160a01b031681565b62000f1a3362000af9565b62000f575760405162461bcd60e51b8152600401808060200182810382526022815260200180620053236022913960400191505060405180910390fd5b62000a27600080516020620053958339815191528262000b40565b62000f7d3362000af9565b62000fba5760405162461bcd60e51b8152600401808060200182810382526022815260200180620053236022913960400191505060405180910390fd5b6001600160a01b03811662001011576040805162461bcd60e51b815260206004820152601860248201527741636365737369626c653a207a65726f206164647265737360401b604482015290519081900360640190fd5b336001600160a01b038216141562001069576040805162461bcd60e51b815260206004820152601660248201527520b1b1b2b9b9b4b136329d1039b0b6b29030b236b4b760511b604482015290519081900360640190fd5b62001084600080516020620053958339815191528262000b40565b62000a27600080516020620053958339815191523362000ca3565b6000805160206200539583398151915281565b6006546001600160a01b031681565b60115481565b60035481565b620010d83362000af9565b620011155760405162461bcd60e51b8152600401808060200182810382526022815260200180620053236022913960400191505060405180910390fd5b8082106200115b576040805162461bcd60e51b815260206004820152600e60248201526d0dccacac840dad2dc407840dac2f60931b604482015290519081900360640190fd5b600291909155600355565b60008281526020819052604081206200118090836200217d565b9392505050565b6000836001600160a01b038116620011d5576040805162461bcd60e51b815260206004820152601c602482015260008051602062005345833981519152604482015290519081900360640190fd5b6001600160a01b038435168062001222576040805162461bcd60e51b815260206004820152601c602482015260008051602062005345833981519152604482015290519081900360640190fd5b6001600160a01b036020860135168062001272576040805162461bcd60e51b815260206004820152601c602482015260008051602062005345833981519152604482015290519081900360640190fd5b6001600160a01b0360408701351680620012c2576040805162461bcd60e51b815260206004820152601c602482015260008051602062005345833981519152604482015290519081900360640190fd5b8862001305576040805162461bcd60e51b815260206004820152600d60248201526c6e616d6520697320656d70747960981b604482015290519081900360640190fd5b6000604051620013159062002364565b604051809103906000f08015801562001332573d6000803e3d6000fd5b5090506001600160a01b0381166200137e576040805162461bcd60e51b815260206004820152600a60248201526970726f7879207a65726f60b01b604482015290519081900360640190fd5b6009546040805163439e23fd60e01b8152600481018a905290516000926001600160a01b03169163439e23fd9160248083019286929190829003018186803b158015620013ca57600080fd5b505afa158015620013df573d6000803e3d6000fd5b505050506040513d6000823e601f3d908101601f1916820160409081528110156200140957600080fd5b815160208301805160405192949293830192919084600160201b8211156200143057600080fd5b9083019060208201858111156200144657600080fd5b8251600160201b8111828201881017156200146057600080fd5b82525081516020918201929091019080838360005b838110156200148f57818101518382015260200162001475565b50505050905090810190601f168015620014bd5780820380516001836020036101000a031916815260200191505b5060405250505050905088600260038110620014d557fe5b60200201356001600160a01b03166001600160a01b0316816001600160a01b03161462001542576040805162461bcd60e51b8152602060048201526016602482015275185b9bdd1a195c881b1a5c5d5a591a5d1e55985d5b1d60521b604482015290519081900360640190fd5b600c54604080516325bc555f60e21b81526001600160a01b0392831660048201529051918416916396f1557c9160248082019260009290919082900301818387803b1580156200159157600080fd5b505af1158015620015a6573d6000803e3d6000fd5b5050600c5460408051637048027560e01b81526001600160a01b039283166004820152905191861693506370480275925060248082019260009290919082900301818387803b158015620015f957600080fd5b505af11580156200160e573d6000803e3d6000fd5b50505050816001600160a01b031663704802758b6040518263ffffffff1660e01b815260040180826001600160a01b03168152602001915050600060405180830381600087803b1580156200166257600080fd5b505af115801562001677573d6000803e3d6000fd5b5050600b5460408051636bc26a1360e11b81526001600160a01b0392831660048201529051918616935063d784d426925060248082019260009290919082900301818387803b158015620016ca57600080fd5b505af1158015620016df573d6000803e3d6000fd5b50506040805163c0c53b8b60e01b81526001600160a01b038d358116600483015260208e0135811660248301528d830135811660448301529151918616935063c0c53b8b925060648082019260009290919082900301818387803b1580156200174757600080fd5b505af11580156200175c573d6000803e3d6000fd5b50506004805460065460055460085460075460408051636d9ff15760e01b81526001600160a01b0396871697810197909752938516602487015291841660448601528316606485015282166084840152519086169350636d9ff157925060a480830192600092919082900301818387803b158015620017da57600080fd5b505af1158015620017ef573d6000803e3d6000fd5b50505050816001600160a01b031663653a151b6002546003546040518363ffffffff1660e01b81526004018083815260200182815260200192505050600060405180830381600087803b1580156200184657600080fd5b505af11580156200185b573d6000803e3d6000fd5b50505050816001600160a01b031663ac3c4676600d54600e54600f546010546040518563ffffffff1660e01b815260040180858152602001848152602001838152602001828152602001945050505050600060405180830381600087803b158015620018c657600080fd5b505af1158015620018db573d6000803e3d6000fd5b50505050816001600160a01b0316638951ed186011546040518263ffffffff1660e01b815260040180828152602001915050600060405180830381600087803b1580156200192857600080fd5b505af11580156200193d573d6000803e3d6000fd5b50505050816001600160a01b0316639a202d476040518163ffffffff1660e01b8152600401600060405180830381600087803b1580156200197d57600080fd5b505af115801562001992573d6000803e3d6000fd5b505050506040518060400160405280836001600160a01b031681526020018d8d8080601f0160208091040260200160405190810160405280939291908181526020018383808284376000920182905250939094525050600180548252601260209081526040909220845181546001600160a01b0319166001600160a01b0390911617815584830151805191945062001a309392850192019062002372565b509050506001600081548092919060010191905055506000828d8d60405160200180846001600160a01b03168152602001806020018281038252848482818152602001925080828437600081840152601f19601f8201169050808301925050509450505050506040516020818303038152906040529050600a60009054906101000a90046001600160a01b03166001600160a01b031663beee31bf7f5f972b23217734c5c40aaa04980bc647314f310a8679234cf0bc9478803286f57f28f876e0274a3093ecb1b6a264297d94e351fbdf53f265e39c0f76bb12efedf930856040518563ffffffff1660e01b815260040180858152602001848152602001836001600160a01b0316815260200180602001828103825283818151815260200191508051906020019080838360005b8381101562001b7857818101518382015260200162001b5e565b50505050905090810190601f16801562001ba65780820380516001836020036101000a031916815260200191505b5095505050505050600060405180830381600087803b15801562001bc957600080fd5b505af115801562001bde573d6000803e3d6000fd5b505050507fb5f4f34b25ae6ed4df40be765442ea13afd293618f4f3815fee7de7ed6244378838e8e60405180846001600160a01b03168152602001806020018281038252848482818152602001925080828437600083820152604051601f909101601f1916909201829003965090945050505050a150909b9a5050505050505050505050565b60008281526020819052604081206200118090836200218b565b62001c893362000af9565b62001cc65760405162461bcd60e51b8152600401808060200182810382526022815260200180620053236022913960400191505060405180910390fd5b806001600160a01b03811662001d12576040805162461bcd60e51b815260206004820152601c602482015260008051602062005345833981519152604482015290519081900360640190fd5b600c546001600160a01b038381169116141562001d63576040805162461bcd60e51b815260206004820152600a60248201526973616d6520616464727360b01b604482015290519081900360640190fd5b50600c80546001600160a01b0319166001600160a01b0392909216919091179055565b600081565b6005546001600160a01b031681565b600d5481565b600c546001600160a01b031681565b600081815260208190526040812062000b1690620021a2565b60015481565b7ff0887ba65ee2024ea881d91b74c2450ef19e1557f03bed3ea9f16b037cbe2dc981565b60008281526020819052604090206002015462001e139062000b616200209d565b62000cfe5760405162461bcd60e51b8152600401808060200182810382526030815260200180620053656030913960400191505060405180910390fd5b6009546001600160a01b031681565b62001e6a3362000af9565b62001ea75760405162461bcd60e51b8152600401808060200182810382526022815260200180620053236022913960400191505060405180910390fd5b80601154141562001eec576040805162461bcd60e51b815260206004820152600a60248201526973616d652076616c756560b01b604482015290519081900360640190fd5b601155565b600a546001600160a01b031681565b62001f0b3362000af9565b62001f485760405162461bcd60e51b8152600401808060200182810382526022815260200180620053236022913960400191505060405180910390fd5b62001f5d6001600160a01b0383351662001c7e565b62001f756001600160a01b0360208401351662000e36565b62001f8d6001600160a01b0360408401351662001fcb565b62001f9e81356020830135620010cd565b62001fbc60408201356060830135608084013560a085013562000a2a565b62000bb060c082013562001e5f565b62001fd63362000af9565b620020135760405162461bcd60e51b8152600401808060200182810382526022815260200180620053236022913960400191505060405180910390fd5b600a546001600160a01b038281169116141562002064576040805162461bcd60e51b815260206004820152600a60248201526973616d6520616464727360b01b604482015290519081900360640190fd5b600a80546001600160a01b0319166001600160a01b0392909216919091179055565b600062001180836001600160a01b038416620021af565b3390565b6000828152602081905260409020620020bb908262002086565b1562000bb057620020cb6200209d565b6001600160a01b0316816001600160a01b0316837f2f8788117e7eff1d82e926ec794901d17c78024a50270940304540a733656f0d60405160405180910390a45050565b6000828152602081905260409020620021299082620021fe565b1562000bb057620021396200209d565b6001600160a01b0316816001600160a01b0316837ff6391f5c32d9c69d2a47ea670b442974b53935d1edc7fd64eb21e047a839171b60405160405180910390a45050565b600062001180838362002215565b600062001180836001600160a01b0384166200227c565b600062000b168262002294565b6000620021bd83836200227c565b620021f55750815460018181018455600084815260208082209093018490558454848252828601909352604090209190915562000b16565b50600062000b16565b600062001180836001600160a01b03841662002298565b81546000908210620022595760405162461bcd60e51b8152600401808060200182810382526022815260200180620052d26022913960400191505060405180910390fd5b8260000182815481106200226957fe5b9060005260206000200154905092915050565b60009081526001919091016020526040902054151590565b5490565b60008181526001830160205260408120548015620023595783546000198083019190810190600090879083908110620022cd57fe5b9060005260206000200154905080876000018481548110620022eb57fe5b6000918252602080832090910192909255828152600189810190925260409020908401905586548790806200231c57fe5b6001900381819060005260206000200160009055905586600101600087815260200190815260200160002060009055600194505050505062000b16565b600091505062000b16565b612eb3806200241f83390190565b828054600181600116156101000203166002900490600052602060002090601f016020900481019282620023aa5760008555620023f5565b82601f10620023c557805160ff1916838001178555620023f5565b82800160010185558215620023f5579182015b82811115620023f5578251825591602001919060010190620023d8565b506200240392915062002407565b5090565b5b808211156200240357600081556001016200240856fe608060405260006001556000600455600060055560006006556000600755600060085560006009556000600a556000600b556000600c556000600d556000600e556000600f5560006010553480156200005757600080fd5b506200006a6301ffc9a760e01b620000e7565b6200007c632139e50b60e11b620000e7565b620000a87f52eafc11f6f81f86878bffd31109a0d92f37506527754f00788853ff9f63b130806200016c565b620000d47f52eafc11f6f81f86878bffd31109a0d92f37506527754f00788853ff9f63b13033620001be565b620000e1600033620001be565b620002d4565b6001600160e01b0319808216141562000147576040805162461bcd60e51b815260206004820152601c60248201527f4552433136353a20696e76616c696420696e7465726661636520696400000000604482015290519081900360640190fd5b6001600160e01b0319166000908152603760205260409020805460ff19166001179055565b600082815260366020526040808220600201549051839285917fbd79b86ffe0ab8e8776151514217cd7cacd52c909f66475c3af44e129f0b00ff9190a460009182526036602052604090912060020155565b620001ca8282620001ce565b5050565b6000828152603660209081526040909120620001f59183906200266662000249821b17901c565b15620001ca576200020562000269565b6001600160a01b0316816001600160a01b0316837f2f8788117e7eff1d82e926ec794901d17c78024a50270940304540a733656f0d60405160405180910390a45050565b600062000260836001600160a01b0384166200026d565b90505b92915050565b3390565b60006200027b8383620002bc565b620002b35750815460018181018455600084815260208082209093018490558454848252828601909352604090209190915562000263565b50600062000263565b60009081526001919091016020526040902054151590565b612bcf80620002e46000396000f3fe6080604052600436106104b95760003560e01c806389f395de1161026b578063bff1f9e11161014f578063e4b2fb79116100c1578063f18d20be11610085578063f18d20be14611024578063f47f2f1d14611039578063fb86a4041461106c578063fe404c9614611081578063fe4d5add146110ab578063ff6dac76146110d557610502565b8063e4b2fb7914610f91578063e985e36714610fbb578063eaff056d14610fd0578063eb8445f814610fe5578063ed5131f514610ffa57610502565b8063cae9ce1b11610113578063cae9ce1b14610e8b578063d539139314610ee6578063d547741f14610efb578063d784d42614610f34578063dc560fcd14610f67578063e016bac414610f7c57610502565b8063bff1f9e114610ddd578063c0c53b8b14610df2578063c3e5763514610e37578063c5408d5014610e4c578063ca15c87314610e6157610502565b80639d18fde7116101e8578063a55abb17116101ac578063a55abb1714610d38578063ac3c467614610d4d578063b7182b9514610d89578063b960ca0414610d9e578063be72f2d314610db3578063bfc630b114610dc857610502565b80639d18fde714610ccf5780639f87b77f14610ce4578063a055e62514610cf9578063a217fddf14610d0e578063a389595f14610d2357610502565b806394f641d51161022f57806394f641d514610c485780639525269214610c5d57806396f1557c14610c725780639711715a14610ca55780639a202d4714610cba57610502565b806389f395de14610b8b5780638d62d94914610ba05780638f68711a14610bb55780639010d07c14610bdf57806391d1485414610c0f57610502565b806351d28a7e1161039d578063735de9f71161030f5780637cb00d25116102d35780637cb00d2514610ac35780637dc2cd9814610aef5780637e2eee5314610b0457806381a9f6d714610b195780638356ca4f14610b2e5780638951ed1814610b6157610502565b8063735de9f714610a3c57806375829def14610a5157806375b238fc14610a84578063768b821f14610a995780637a40624b14610aae57610502565b8063653a151b11610361578063653a151b1461091b57806366ce72711461094b57806367b399a514610960578063690480051461098a5780636d9ff157146109b45780637048027514610a0957610502565b806351d28a7e146108b257806351ebde6d146108c75780635c60da1b146108dc57806361a33427146108f157806363a8fd891461090657610502565b8063256019d61161043657806337bf0719116103fa57806337bf07191461076e5780633ef541b51461078357806341c04d5e1461079857806341c0cb77146107ad5780634273ca16146108005780634dd199211461089d57610502565b8063256019d61461069f578063282c51f3146106b45780632f2ff15d146106c957806336568abe146107025780633659cfe61461073b57610502565b80631c53f2561161047d5780631c53f256146105e757806321df0da7146105fc578063226bf1a41461062d578063248a9ca31461064257806324d7806c1461066c57610502565b806301ffc9a71461050c578063039af9eb14610554578063089fe6aa146105905780630b433a12146105bd5780631bfc751e146105d257610502565b36610502576040805162461bcd60e51b815260206004820152601460248201527331b0b73737ba103932b1b2b4bb329022ba3432b960611b604482015290519081900360640190fd5b61050a611108565b005b34801561051857600080fd5b506105406004803603602081101561052f57600080fd5b50356001600160e01b03191661118e565b604080519115158252519081900360200190f35b34801561056057600080fd5b5061057e6004803603602081101561057757600080fd5b50356111ad565b60408051918252519081900360200190f35b34801561059c57600080fd5b506105a56111bf565b6040805162ffffff9092168252519081900360200190f35b3480156105c957600080fd5b5061057e6111c5565b3480156105de57600080fd5b5061057e6111cb565b3480156105f357600080fd5b5061057e6111d1565b34801561060857600080fd5b506106116111d7565b604080516001600160a01b039092168252519081900360200190f35b34801561063957600080fd5b5061057e6111e6565b34801561064e57600080fd5b5061057e6004803603602081101561066557600080fd5b50356111ec565b34801561067857600080fd5b506105406004803603602081101561068f57600080fd5b50356001600160a01b0316611201565b3480156106ab57600080fd5b5061057e611221565b3480156106c057600080fd5b5061057e611227565b3480156106d557600080fd5b5061050a600480360360408110156106ec57600080fd5b50803590602001356001600160a01b031661124b565b34801561070e57600080fd5b5061050a6004803603604081101561072557600080fd5b50803590602001356001600160a01b03166112b7565b34801561074757600080fd5b5061050a6004803603602081101561075e57600080fd5b50356001600160a01b0316611318565b34801561077a57600080fd5b5061061161145d565b34801561078f57600080fd5b5061057e61146c565b3480156107a457600080fd5b5061057e611472565b3480156107b957600080fd5b506107e0600480360360208110156107d057600080fd5b50356001600160a01b0316611484565b604080519315158452602084019290925282820152519081900360600190f35b34801561080c57600080fd5b506105406004803603608081101561082357600080fd5b6001600160a01b0382358116926020810135909116916040820135919081019060808101606082013564010000000081111561085e57600080fd5b82018360208201111561087057600080fd5b8035906020019184600183028401116401000000008311171561089257600080fd5b5090925090506114a9565b3480156108a957600080fd5b50610611611a3c565b3480156108be57600080fd5b5061057e611a4b565b3480156108d357600080fd5b5061057e611a51565b3480156108e857600080fd5b50610611611a57565b3480156108fd57600080fd5b5061057e611a66565b34801561091257600080fd5b50610540611a6c565b34801561092757600080fd5b5061050a6004803603604081101561093e57600080fd5b5080359060200135611a75565b34801561095757600080fd5b5061057e611b09565b34801561096c57600080fd5b5061057e6004803603602081101561098357600080fd5b5035611b0f565b34801561099657600080fd5b5061057e600480360360208110156109ad57600080fd5b5035611b21565b3480156109c057600080fd5b5061050a600480360360a08110156109d757600080fd5b506001600160a01b03813581169160208101358216916040820135811691606081013582169160809091013516611b33565b348015610a1557600080fd5b5061050a60048036036020811015610a2c57600080fd5b50356001600160a01b0316611d14565b348015610a4857600080fd5b50610611611d73565b348015610a5d57600080fd5b5061050a60048036036020811015610a7457600080fd5b50356001600160a01b0316611d82565b348015610a9057600080fd5b5061057e611eb2565b348015610aa557600080fd5b5061057e611ed6565b348015610aba57600080fd5b5061057e611edc565b348015610acf57600080fd5b5061050a60048036036020811015610ae657600080fd5b50351515611ee2565b348015610afb57600080fd5b5061057e611f7e565b348015610b1057600080fd5b5061057e611f84565b348015610b2557600080fd5b5061057e611f8a565b348015610b3a57600080fd5b5061050a60048036036020811015610b5157600080fd5b50356001600160a01b0316611f90565b348015610b6d57600080fd5b5061050a60048036036020811015610b8457600080fd5b5035612097565b348015610b9757600080fd5b506106116120e0565b348015610bac57600080fd5b506106116120ef565b348015610bc157600080fd5b5061057e60048036036020811015610bd857600080fd5b50356120fe565b348015610beb57600080fd5b5061061160048036036040811015610c0257600080fd5b5080359060200135612110565b348015610c1b57600080fd5b5061054060048036036040811015610c3257600080fd5b50803590602001356001600160a01b031661212f565b348015610c5457600080fd5b5061057e612147565b348015610c6957600080fd5b5061057e61214d565b348015610c7e57600080fd5b5061050a60048036036020811015610c9557600080fd5b50356001600160a01b0316612153565b348015610cb157600080fd5b5061057e6121a2565b348015610cc657600080fd5b5061050a6121a8565b348015610cdb57600080fd5b5061057e612215565b348015610cf057600080fd5b5061057e61221b565b348015610d0557600080fd5b5061057e612221565b348015610d1a57600080fd5b5061057e612227565b348015610d2f57600080fd5b5061057e61222c565b348015610d4457600080fd5b5061057e612232565b348015610d5957600080fd5b5061050a60048036036080811015610d7057600080fd5b5080359060208101359060408101359060600135612238565b348015610d9557600080fd5b506106116122eb565b348015610daa57600080fd5b5061057e6122fa565b348015610dbf57600080fd5b5061050a612300565b348015610dd457600080fd5b5061057e61234f565b348015610de957600080fd5b5061057e612355565b348015610dfe57600080fd5b5061050a60048036036060811015610e1557600080fd5b506001600160a01b03813581169160208101358216916040909101351661235b565b348015610e4357600080fd5b5061057e612421565b348015610e5857600080fd5b5061057e612427565b348015610e6d57600080fd5b5061057e60048036036020811015610e8457600080fd5b503561242d565b348015610e9757600080fd5b50610ebe60048036036020811015610eae57600080fd5b50356001600160a01b0316612444565b6040805194151585526020850193909352838301919091526060830152519081900360800190f35b348015610ef257600080fd5b5061057e61246f565b348015610f0757600080fd5b5061050a60048036036040811015610f1e57600080fd5b50803590602001356001600160a01b0316612493565b348015610f4057600080fd5b5061050a60048036036020811015610f5757600080fd5b50356001600160a01b03166124ec565b348015610f7357600080fd5b5061057e612594565b348015610f8857600080fd5b5061057e61259a565b348015610f9d57600080fd5b5061061160048036036020811015610fb457600080fd5b50356125a0565b348015610fc757600080fd5b506106116125ca565b348015610fdc57600080fd5b5061057e6125d9565b348015610ff157600080fd5b5061057e6125df565b34801561100657600080fd5b5061057e6004803603602081101561101d57600080fd5b50356125e5565b34801561103057600080fd5b50610540612606565b34801561104557600080fd5b506105406004803603602081101561105c57600080fd5b50356001600160a01b031661260f565b34801561107857600080fd5b5061057e61261b565b34801561108d57600080fd5b5061057e600480360360208110156110a457600080fd5b5035612621565b3480156110b757600080fd5b50610611600480360360208110156110ce57600080fd5b5035612631565b3480156110e157600080fd5b506107e0600480360360208110156110f857600080fd5b50356001600160a01b0316612641565b600061111261267b565b90506001600160a01b0381161580159061112f575060005460ff16155b61116a5760405162461bcd60e51b8152600401808060200182810382526027815260200180612b446027913960400191505060405180910390fd5b3660008037600080366000845af43d6000803e808015611189573d6000f35b3d6000fd5b6001600160e01b03191660009081526037602052604090205460ff1690565b60326020526000908152604090205481565b610bb881565b60165481565b600a5481565b601c5481565b6025546001600160a01b031681565b60155481565b60009081526036602052604090206002015490565b600061121b600080516020612a078339815191528361212f565b92915050565b602c5481565b7f9667e80708b6eeeb0053fa0cca44e028ff548e2a9f029edfeac87c118b08b7c881565b60008281526036602052604090206002015461126e906112696126a0565b61212f565b6112a95760405162461bcd60e51b815260040180806020018281038252602f8152602001806129d8602f913960400191505060405180910390fd5b6112b382826126a4565b5050565b6112bf6126a0565b6001600160a01b0316816001600160a01b03161461130e5760405162461bcd60e51b815260040180806020018281038252602f815260200180612b6b602f913960400191505060405180910390fd5b6112b3828261270d565b6113213361260f565b61135c5760405162461bcd60e51b8152600401808060200182810382526028815260200180612aa66028913960400191505060405180910390fd5b6001600160a01b0381166113b7576040805162461bcd60e51b815260206004820152601e60248201527f5075626c696353616c6550726f78793a20696e707574206973207a65726f0000604482015290519081900360640190fd5b806001600160a01b03166113c961267b565b6001600160a01b0316141561141d576040805162461bcd60e51b81526020600482015260156024820152745075626c696353616c6550726f78793a2073616d6560581b604482015290519081900360640190fd5b61142681612776565b6040516001600160a01b038216907fbc7cd75a20ee27fd9adebab32041f755214dbc6bffa90cc0225b39da2e5c2d3b90600090a250565b6028546001600160a01b031681565b60095481565b600080516020612a0783398151915281565b60306020526000908152604090208054600182015460029092015460ff909116919083565b6025546000906001600160a01b03163314806114cf57506024546001600160a01b031633145b61150a5760405162461bcd60e51b8152600401808060200182810382526035815260200180612a716035913960400191505060405180910390fd5b6025546001600160a01b031633141561185d5760405163aa5bbf5560e01b815260206004820190815260248201849052600091309163aa5bbf5591879187918190604401848480828437600083820152604051601f909101601f191690920195506020945090925050508083038186803b15801561158757600080fd5b505afa15801561159b573d6000803e3d6000fd5b505050506040513d60208110156115b157600080fd5b50519050806117085760065442101580156115cd575060075442105b1561163d576040805163f0fbf32d60e01b81526001600160a01b0389166004820152602481018790529051309163f0fbf32d91604480830192600092919082900301818387803b15801561162057600080fd5b505af1158015611634573d6000803e3d6000fd5b50505050611703565b6008544210158015611650575060095442105b61169c576040805162461bcd60e51b81526020600482015260186024820152775075626c696353616c653a206e6f742053616c6554696d6560401b604482015290519081900360640190fd5b604080516311f9fbc960e21b81526001600160a01b038916600482015260248101879052905130916347e7ef2491604480830192600092919082900301818387803b1580156116ea57600080fd5b505af11580156116fe573d6000803e3d6000fd5b505050505b611857565b60065485820190421080159061171f575060075442105b1561178f576040805163f0fbf32d60e01b81526001600160a01b038a166004820152602481018390529051309163f0fbf32d91604480830192600092919082900301818387803b15801561177257600080fd5b505af1158015611786573d6000803e3d6000fd5b50505050611855565b60085442101580156117a2575060095442105b6117ee576040805162461bcd60e51b81526020600482015260186024820152775075626c696353616c653a206e6f742053616c6554696d6560401b604482015290519081900360640190fd5b604080516311f9fbc960e21b81526001600160a01b038a16600482015260248101839052905130916347e7ef2491604480830192600092919082900301818387803b15801561183c57600080fd5b505af1158015611850573d6000803e3d6000fd5b505050505b505b50611a30565b6024546001600160a01b0316331415611a30576000306001600160a01b0316636bbe48af866040518263ffffffff1660e01b81526004018082815260200191505060206040518083038186803b1580156118b657600080fd5b505afa1580156118ca573d6000803e3d6000fd5b505050506040513d60208110156118e057600080fd5b505160065490915042108015906118f8575060075442105b15611968576040805163f0fbf32d60e01b81526001600160a01b0389166004820152602481018390529051309163f0fbf32d91604480830192600092919082900301818387803b15801561194b57600080fd5b505af115801561195f573d6000803e3d6000fd5b50505050611a2e565b600854421015801561197b575060095442105b6119c7576040805162461bcd60e51b81526020600482015260186024820152775075626c696353616c653a206e6f742053616c6554696d6560401b604482015290519081900360640190fd5b604080516311f9fbc960e21b81526001600160a01b038916600482015260248101839052905130916347e7ef2491604480830192600092919082900301818387803b158015611a1557600080fd5b505af1158015611a29573d6000803e3d6000fd5b505050505b505b50600195945050505050565b6021546001600160a01b031681565b60145481565b601f5481565b6000611a6161267b565b905090565b600e5481565b60005460ff1681565b611a7e3361260f565b611ab95760405162461bcd60e51b8152600401808060200182810382526028815260200180612aa66028913960400191505060405180910390fd5b808210611afe576040805162461bcd60e51b815260206004820152600e60248201526d0dccacac840dad2dc407840dac2f60931b604482015290519081900360640190fd5b601b91909155601c55565b60075481565b60336020526000908152604090205481565b60356020526000908152604090205481565b611b3c3361260f565b611b775760405162461bcd60e51b8152600401808060200182810382526028815260200180612aa66028913960400191505060405180910390fd5b60045415611bb65760405162461bcd60e51b8152600401808060200182810382526028815260200180612a496028913960400191505060405180910390fd5b602580546001600160a01b03199081166001600160a01b038881169190911790925560288054821687841617905560248054821686841617808255602280548416878616179081905560278054909416868616179093556040805163095ea7b360e01b8152938516600485015260001992840192909252905192169163095ea7b3916044808201926020929091908290030181600087803b158015611c5a57600080fd5b505af1158015611c6e573d6000803e3d6000fd5b505050506040513d6020811015611c8457600080fd5b5050602554602480546040805163095ea7b360e01b81526001600160a01b039283166004820152600019938101939093525192169163095ea7b3916044808201926020929091908290030181600087803b158015611ce157600080fd5b505af1158015611cf5573d6000803e3d6000fd5b505050506040513d6020811015611d0b57600080fd5b50505050505050565b611d1d3361260f565b611d585760405162461bcd60e51b8152600401808060200182810382526028815260200180612aa66028913960400191505060405180910390fd5b611d70600080516020612a078339815191528261124b565b50565b6022546001600160a01b031681565b611d8b33611201565b80611d9a5750611d9a3361260f565b611dd55760405162461bcd60e51b8152600401808060200182810382526022815260200180612a276022913960400191505060405180910390fd5b6001600160a01b038116611e2b576040805162461bcd60e51b815260206004820152601860248201527741636365737369626c653a207a65726f206164647265737360401b604482015290519081900360640190fd5b336001600160a01b0382161415611e82576040805162461bcd60e51b815260206004820152601660248201527520b1b1b2b9b9b4b136329d1039b0b6b29030b236b4b760511b604482015290519081900360640190fd5b611e9a600080516020612a078339815191528261124b565b611d70600080516020612a07833981519152336112b7565b7fdf8b4c520ffe197c5343c6f5aec59570151ef9a492f2c624fd45ddde6135ec4281565b601e5481565b60025481565b611eeb33611201565b80611efa5750611efa3361260f565b611f355760405162461bcd60e51b8152600401808060200182810382526022815260200180612a276022913960400191505060405180910390fd5b6000805482151560ff1990911617905560408051428152905133917f0cc81ffa7ae14c1e9e3f3a07c8ba11c5ce48258aca115fb150d8aea6d3095bd7919081900360200190a250565b60175481565b60035481565b60085481565b611f993361260f565b611fd45760405162461bcd60e51b8152600401808060200182810382526028815260200180612aa66028913960400191505060405180910390fd5b6001600160a01b03811661202a576040805162461bcd60e51b815260206004820152601860248201527741636365737369626c653a207a65726f206164647265737360401b604482015290519081900360640190fd5b336001600160a01b0382161415612081576040805162461bcd60e51b815260206004820152601660248201527520b1b1b2b9b9b4b136329d1039b0b6b29030b236b4b760511b604482015290519081900360640190fd5b61208c60008261124b565b611d706000336112b7565b6120a03361260f565b6120db5760405162461bcd60e51b8152600401808060200182810382526028815260200180612aa66028913960400191505060405180910390fd5b600355565b6027546001600160a01b031681565b6024546001600160a01b031681565b60346020526000908152604090205481565b600082815260366020526040812061212890836127de565b9392505050565b600082815260366020526040812061212890836127ea565b600d5481565b60045481565b61215c3361260f565b6121975760405162461bcd60e51b8152600401808060200182810382526028815260200180612aa66028913960400191505060405180910390fd5b611d706000826112a9565b60015481565b6121b133611201565b806121c057506121c03361260f565b6121fb5760405162461bcd60e51b8152600401808060200182810382526022815260200180612a276022913960400191505060405180910390fd5b612213600080516020612a07833981519152336112b7565b565b601a5481565b601d5481565b600c5481565b600081565b601b5481565b60105481565b6122413361260f565b61227c5760405162461bcd60e51b8152600401808060200182810382526028815260200180612aa66028913960400191505060405180910390fd5b828410801561228a57508183105b801561229557508082105b6122d7576040805162461bcd60e51b815260206004820152600e60248201526d3a34b2b91039b2ba1032b93937b960911b604482015290519081900360640190fd5b601d93909355601e91909155601f55602055565b6023546001600160a01b031681565b60125481565b6123093361260f565b6123445760405162461bcd60e51b8152600401808060200182810382526028815260200180612aa66028913960400191505060405180910390fd5b6122136000336112b7565b60135481565b600b5481565b6123643361260f565b61239f5760405162461bcd60e51b8152600401808060200182810382526028815260200180612aa66028913960400191505060405180910390fd5b600454156123de5760405162461bcd60e51b8152600401808060200182810382526028815260200180612a496028913960400191505060405180910390fd5b602680546001600160a01b039485166001600160a01b03199182161790915560238054938516938216939093179092556021805491909316911617905542600255565b60055481565b60115481565b600081815260366020526040812061121b906127ff565b602f60205260009081526040902080546001820154600283015460039093015460ff90921692909184565b7ff0887ba65ee2024ea881d91b74c2450ef19e1557f03bed3ea9f16b037cbe2dc981565b6000828152603660205260409020600201546124b1906112696126a0565b61130e5760405162461bcd60e51b8152600401808060200182810382526030815260200180612ace6030913960400191505060405180910390fd5b6124f53361260f565b6125305760405162461bcd60e51b8152600401808060200182810382526028815260200180612aa66028913960400191505060405180910390fd5b6001600160a01b03811661258b576040805162461bcd60e51b815260206004820152601e60248201527f5075626c696353616c6550726f78793a206c6f676963206973207a65726f0000604482015290519081900360640190fd5b611d7081612776565b60205481565b60065481565b602981815481106125b057600080fd5b6000918252602090912001546001600160a01b0316905081565b6026546001600160a01b031681565b60185481565b600f5481565b602d81815481106125f557600080fd5b600091825260209091200154905081565b602b5460ff1681565b600061121b818361212f565b60195481565b602e81815481106125f557600080fd5b602a81815481106125b057600080fd5b60316020526000908152604090208054600182015460029092015460ff909116919083565b6000612128836001600160a01b03841661280a565b7f360894a13ba1a3210667c828492db98dca3e2076cc3735a920a3ca505d382bbc5490565b3390565b60008281526036602052604090206126bc9082612666565b156112b3576126c96126a0565b6001600160a01b0316816001600160a01b0316837f2f8788117e7eff1d82e926ec794901d17c78024a50270940304540a733656f0d60405160405180910390a45050565b60008281526036602052604090206127259082612854565b156112b3576127326126a0565b6001600160a01b0316816001600160a01b0316837ff6391f5c32d9c69d2a47ea670b442974b53935d1edc7fd64eb21e047a839171b60405160405180910390a45050565b61277f81612869565b6127ba5760405162461bcd60e51b8152600401808060200182810382526046815260200180612afe6046913960600191505060405180910390fd5b7f360894a13ba1a3210667c828492db98dca3e2076cc3735a920a3ca505d382bbc55565b6000612128838361286f565b6000612128836001600160a01b0384166128d3565b600061121b826128eb565b600061281683836128d3565b61284c5750815460018181018455600084815260208082209093018490558454848252828601909352604090209190915561121b565b50600061121b565b6000612128836001600160a01b0384166128ef565b3b151590565b815460009082106128b15760405162461bcd60e51b81526004018080602001828103825260228152602001806129b66022913960400191505060405180910390fd5b8260000182815481106128c057fe5b9060005260206000200154905092915050565b60009081526001919091016020526040902054151590565b5490565b600081815260018301602052604081205480156129ab578354600019808301919081019060009087908390811061292257fe5b906000526020600020015490508087600001848154811061293f57fe5b60009182526020808320909101929092558281526001898101909252604090209084019055865487908061296f57fe5b6001900381819060005260206000200160009055905586600101600087815260200190815260200160002060009055600194505050505061121b565b600091505061121b56fe456e756d657261626c655365743a20696e646578206f7574206f6620626f756e6473416363657373436f6e74726f6c3a2073656e646572206d75737420626520616e2061646d696e20746f206772616e7452eafc11f6f81f86878bffd31109a0d92f37506527754f00788853ff9f63b13041636365737369626c653a2043616c6c6572206973206e6f7420616e2061646d696e706f737369626c6520746f2073657474696e672074686520776869746554696d65206265666f72655075626c696353616c653a206f6e6c792061636365707420544f4e20616e642057544f4e20617070726f76652063616c6c6261636b41636365737369626c653a2043616c6c6572206973206e6f7420616e2070726f78792061646d696e416363657373436f6e74726f6c3a2073656e646572206d75737420626520616e2061646d696e20746f207265766f6b6550726f7879426173653a2043616e6e6f742073657420612070726f787920696d706c656d656e746174696f6e20746f2061206e6f6e2d636f6e747261637420616464726573735075626c696353616c6550726f78793a20696d706c204f522070726f78792069732066616c7365416363657373436f6e74726f6c3a2063616e206f6e6c792072656e6f756e636520726f6c657320666f722073656c66a26469706673582212204b725a73275a2e5acc8e0730c70498c3cc32dbe7794912c39d39a3c763a24b8364736f6c63430007060033456e756d657261626c655365743a20696e646578206f7574206f6620626f756e6473416363657373436f6e74726f6c3a2073656e646572206d75737420626520616e2061646d696e20746f206772616e7441636365737369626c653a2043616c6c6572206973206e6f7420616e2061646d696e5075626c696353616c6550726f7879466163746f72793a207a65726f00000000416363657373436f6e74726f6c3a2073656e646572206d75737420626520616e2061646d696e20746f207265766f6b65df8b4c520ffe197c5343c6f5aec59570151ef9a492f2c624fd45ddde6135ec42416363657373436f6e74726f6c3a2063616e206f6e6c792072656e6f756e636520726f6c657320666f722073656c66a26469706673582212203c463cfbe4aac67c5c94ce8486d5d8e33a8b475e31b87a18adeae947c1f353df64736f6c63430007060033df8b4c520ffe197c5343c6f5aec59570151ef9a492f2c624fd45ddde6135ec42",
  "linkReferences": {},
  "deployedLinkReferences": {}
}