{
  "_format": "hh-sol-artifact-1",
  "contractName": "Stake2VaultUpgrade",
  "sourceName": "contracts/stake/Stake2VaultUpgrade.sol",
  "abi": [
    {
      "inputs": [],
      "stateMutability": "nonpayable",
      "type": "constructor"
    },
    {
      "anonymous": false,
      "inputs": [
        {
          "indexed": true,
          "internalType": "address",
          "name": "from",
          "type": "address"
        },
        {
          "indexed": false,
          "internalType": "address",
          "name": "to",
          "type": "address"
        },
        {
          "indexed": false,
          "internalType": "uint256",
          "name": "amount",
          "type": "uint256"
        }
      ],
      "name": "Claimed",
      "type": "event"
    },
    {
      "anonymous": false,
      "inputs": [
        {
          "indexed": true,
          "internalType": "address",
          "name": "to",
          "type": "address"
        },
        {
          "indexed": false,
          "internalType": "uint256",
          "name": "minableAmount",
          "type": "uint256"
        },
        {
          "indexed": false,
          "internalType": "uint256",
          "name": "miningAmount",
          "type": "uint256"
        },
        {
          "indexed": false,
          "internalType": "uint256",
          "name": "nonMiningAmount",
          "type": "uint256"
        }
      ],
      "name": "ClaimedMining",
      "type": "event"
    },
    {
      "anonymous": false,
      "inputs": [
        {
          "indexed": true,
          "internalType": "bytes32",
          "name": "role",
          "type": "bytes32"
        },
        {
          "indexed": true,
          "internalType": "bytes32",
          "name": "previousAdminRole",
          "type": "bytes32"
        },
        {
          "indexed": true,
          "internalType": "bytes32",
          "name": "newAdminRole",
          "type": "bytes32"
        }
      ],
      "name": "RoleAdminChanged",
      "type": "event"
    },
    {
      "anonymous": false,
      "inputs": [
        {
          "indexed": true,
          "internalType": "bytes32",
          "name": "role",
          "type": "bytes32"
        },
        {
          "indexed": true,
          "internalType": "address",
          "name": "account",
          "type": "address"
        },
        {
          "indexed": true,
          "internalType": "address",
          "name": "sender",
          "type": "address"
        }
      ],
      "name": "RoleGranted",
      "type": "event"
    },
    {
      "anonymous": false,
      "inputs": [
        {
          "indexed": true,
          "internalType": "bytes32",
          "name": "role",
          "type": "bytes32"
        },
        {
          "indexed": true,
          "internalType": "address",
          "name": "account",
          "type": "address"
        },
        {
          "indexed": true,
          "internalType": "address",
          "name": "sender",
          "type": "address"
        }
      ],
      "name": "RoleRevoked",
      "type": "event"
    },
    {
      "inputs": [],
      "name": "ADMIN_ROLE",
      "outputs": [
        {
          "internalType": "bytes32",
          "name": "",
          "type": "bytes32"
        }
      ],
      "stateMutability": "view",
      "type": "function"
    },
    {
      "inputs": [],
      "name": "BURNER_ROLE",
      "outputs": [
        {
          "internalType": "bytes32",
          "name": "",
          "type": "bytes32"
        }
      ],
      "stateMutability": "view",
      "type": "function"
    },
    {
      "inputs": [],
      "name": "DEFAULT_ADMIN_ROLE",
      "outputs": [
        {
          "internalType": "bytes32",
          "name": "",
          "type": "bytes32"
        }
      ],
      "stateMutability": "view",
      "type": "function"
    },
    {
      "inputs": [],
      "name": "MINTER_ROLE",
      "outputs": [
        {
          "internalType": "bytes32",
          "name": "",
          "type": "bytes32"
        }
      ],
      "stateMutability": "view",
      "type": "function"
    },
    {
      "inputs": [],
      "name": "PROJECT_ADMIN_ROLE",
      "outputs": [
        {
          "internalType": "bytes32",
          "name": "",
          "type": "bytes32"
        }
      ],
      "stateMutability": "view",
      "type": "function"
    },
    {
      "inputs": [
        {
          "internalType": "address",
          "name": "account",
          "type": "address"
        }
      ],
      "name": "addAdmin",
      "outputs": [],
      "stateMutability": "nonpayable",
      "type": "function"
    },
    {
      "inputs": [],
      "name": "balanceTOSAvailableAmount",
      "outputs": [
        {
          "internalType": "uint256",
          "name": "",
          "type": "uint256"
        }
      ],
      "stateMutability": "view",
      "type": "function"
    },
    {
      "inputs": [],
      "name": "cap",
      "outputs": [
        {
          "internalType": "uint256",
          "name": "",
          "type": "uint256"
        }
      ],
      "stateMutability": "view",
      "type": "function"
    },
    {
      "inputs": [
        {
          "internalType": "uint256",
          "name": "_cap",
          "type": "uint256"
        }
      ],
      "name": "changeCap",
      "outputs": [],
      "stateMutability": "nonpayable",
      "type": "function"
    },
    {
      "inputs": [
        {
          "internalType": "string",
          "name": "_name",
          "type": "string"
        }
      ],
      "name": "changeName",
      "outputs": [],
      "stateMutability": "nonpayable",
      "type": "function"
    },
    {
      "inputs": [
        {
          "internalType": "address",
          "name": "_to",
          "type": "address"
        },
        {
          "internalType": "uint256",
          "name": "_amount",
          "type": "uint256"
        }
      ],
      "name": "claim",
      "outputs": [
        {
          "internalType": "bool",
          "name": "",
          "type": "bool"
        }
      ],
      "stateMutability": "nonpayable",
      "type": "function"
    },
    {
      "inputs": [
        {
          "internalType": "address",
          "name": "to",
          "type": "address"
        },
        {
          "internalType": "uint256",
          "name": "minableAmount",
          "type": "uint256"
        },
        {
          "internalType": "uint256",
          "name": "miningAmount",
          "type": "uint256"
        },
        {
          "internalType": "uint256",
          "name": "nonMiningAmount",
          "type": "uint256"
        }
      ],
      "name": "claimMining",
      "outputs": [
        {
          "internalType": "bool",
          "name": "",
          "type": "bool"
        }
      ],
      "stateMutability": "nonpayable",
      "type": "function"
    },
    {
      "inputs": [
        {
          "internalType": "bytes32",
          "name": "role",
          "type": "bytes32"
        }
      ],
      "name": "getRoleAdmin",
      "outputs": [
        {
          "internalType": "bytes32",
          "name": "",
          "type": "bytes32"
        }
      ],
      "stateMutability": "view",
      "type": "function"
    },
    {
      "inputs": [
        {
          "internalType": "bytes32",
          "name": "role",
          "type": "bytes32"
        },
        {
          "internalType": "uint256",
          "name": "index",
          "type": "uint256"
        }
      ],
      "name": "getRoleMember",
      "outputs": [
        {
          "internalType": "address",
          "name": "",
          "type": "address"
        }
      ],
      "stateMutability": "view",
      "type": "function"
    },
    {
      "inputs": [
        {
          "internalType": "bytes32",
          "name": "role",
          "type": "bytes32"
        }
      ],
      "name": "getRoleMemberCount",
      "outputs": [
        {
          "internalType": "uint256",
          "name": "",
          "type": "uint256"
        }
      ],
      "stateMutability": "view",
      "type": "function"
    },
    {
      "inputs": [
        {
          "internalType": "bytes32",
          "name": "role",
          "type": "bytes32"
        },
        {
          "internalType": "address",
          "name": "account",
          "type": "address"
        }
      ],
      "name": "grantRole",
      "outputs": [],
      "stateMutability": "nonpayable",
      "type": "function"
    },
    {
      "inputs": [
        {
          "internalType": "bytes32",
          "name": "role",
          "type": "bytes32"
        },
        {
          "internalType": "address",
          "name": "account",
          "type": "address"
        }
      ],
      "name": "hasRole",
      "outputs": [
        {
          "internalType": "bool",
          "name": "",
          "type": "bool"
        }
      ],
      "stateMutability": "view",
      "type": "function"
    },
    {
      "inputs": [],
      "name": "infos",
      "outputs": [
        {
          "internalType": "address[2]",
          "name": "",
          "type": "address[2]"
        },
        {
          "internalType": "uint256",
          "name": "",
          "type": "uint256"
        },
        {
          "internalType": "uint256",
          "name": "",
          "type": "uint256"
        },
        {
          "internalType": "uint256",
          "name": "",
          "type": "uint256"
        },
        {
          "internalType": "string",
          "name": "",
          "type": "string"
        }
      ],
      "stateMutability": "view",
      "type": "function"
    },
    {
      "inputs": [
        {
          "internalType": "address",
          "name": "account",
          "type": "address"
        }
      ],
      "name": "isAdmin",
      "outputs": [
        {
          "internalType": "bool",
          "name": "",
          "type": "bool"
        }
      ],
      "stateMutability": "view",
      "type": "function"
    },
    {
      "inputs": [],
      "name": "migratedL2",
      "outputs": [
        {
          "internalType": "bool",
          "name": "",
          "type": "bool"
        }
      ],
      "stateMutability": "view",
      "type": "function"
    },
    {
      "inputs": [],
      "name": "miningAmountTotal",
      "outputs": [
        {
          "internalType": "uint256",
          "name": "",
          "type": "uint256"
        }
      ],
      "stateMutability": "view",
      "type": "function"
    },
    {
      "inputs": [],
      "name": "miningEndTime",
      "outputs": [
        {
          "internalType": "uint256",
          "name": "",
          "type": "uint256"
        }
      ],
      "stateMutability": "view",
      "type": "function"
    },
    {
      "inputs": [],
      "name": "miningPerSecond",
      "outputs": [
        {
          "internalType": "uint256",
          "name": "",
          "type": "uint256"
        }
      ],
      "stateMutability": "view",
      "type": "function"
    },
    {
      "inputs": [],
      "name": "miningStartTime",
      "outputs": [
        {
          "internalType": "uint256",
          "name": "",
          "type": "uint256"
        }
      ],
      "stateMutability": "view",
      "type": "function"
    },
    {
      "inputs": [],
      "name": "name",
      "outputs": [
        {
          "internalType": "string",
          "name": "",
          "type": "string"
        }
      ],
      "stateMutability": "view",
      "type": "function"
    },
    {
      "inputs": [],
      "name": "nonMiningAmountTotal",
      "outputs": [
        {
          "internalType": "uint256",
          "name": "",
          "type": "uint256"
        }
      ],
      "stateMutability": "view",
      "type": "function"
    },
    {
      "inputs": [],
      "name": "pauseProxy",
      "outputs": [
        {
          "internalType": "bool",
          "name": "",
          "type": "bool"
        }
      ],
      "stateMutability": "view",
      "type": "function"
    },
    {
      "inputs": [
        {
          "internalType": "address",
          "name": "account",
          "type": "address"
        }
      ],
      "name": "removeAdmin",
      "outputs": [],
      "stateMutability": "nonpayable",
      "type": "function"
    },
    {
      "inputs": [
        {
          "internalType": "bytes32",
          "name": "role",
          "type": "bytes32"
        },
        {
          "internalType": "address",
          "name": "account",
          "type": "address"
        }
      ],
      "name": "renounceRole",
      "outputs": [],
      "stateMutability": "nonpayable",
      "type": "function"
    },
    {
      "inputs": [
        {
          "internalType": "bytes32",
          "name": "role",
          "type": "bytes32"
        },
        {
          "internalType": "address",
          "name": "account",
          "type": "address"
        }
      ],
      "name": "revokeRole",
      "outputs": [],
      "stateMutability": "nonpayable",
      "type": "function"
    },
    {
      "inputs": [
        {
          "internalType": "uint256",
          "name": "_miningPerSecond",
          "type": "uint256"
        }
      ],
      "name": "setMiningAmountPerSecond",
      "outputs": [],
      "stateMutability": "nonpayable",
      "type": "function"
    },
    {
      "inputs": [
        {
          "internalType": "uint256",
          "name": "_miningEndTime",
          "type": "uint256"
        }
      ],
      "name": "setMiningEndTime",
      "outputs": [],
      "stateMutability": "nonpayable",
      "type": "function"
    },
    {
      "inputs": [
        {
          "internalType": "uint256",
          "name": "_miningStartTime",
          "type": "uint256"
        }
      ],
      "name": "setMiningStartTime",
      "outputs": [],
      "stateMutability": "nonpayable",
      "type": "function"
    },
    {
      "inputs": [
        {
          "internalType": "address",
          "name": "_stakeAddress",
          "type": "address"
        }
      ],
      "name": "setStakeAddress",
      "outputs": [],
      "stateMutability": "nonpayable",
      "type": "function"
    },
    {
      "inputs": [
        {
          "internalType": "address",
          "name": "_tos",
          "type": "address"
        }
      ],
      "name": "setTOS",
      "outputs": [],
      "stateMutability": "nonpayable",
      "type": "function"
    },
    {
      "inputs": [],
      "name": "stakeAddress",
      "outputs": [
        {
          "internalType": "address",
          "name": "",
          "type": "address"
        }
      ],
      "stateMutability": "view",
      "type": "function"
    },
    {
      "inputs": [],
      "name": "stakeAddressesAll",
      "outputs": [
        {
          "internalType": "address[]",
          "name": "",
          "type": "address[]"
        }
      ],
      "stateMutability": "view",
      "type": "function"
    },
    {
      "inputs": [],
      "name": "stakeType",
      "outputs": [
        {
          "internalType": "uint256",
          "name": "",
          "type": "uint256"
        }
      ],
      "stateMutability": "view",
      "type": "function"
    },
    {
      "inputs": [],
      "name": "tos",
      "outputs": [
        {
          "internalType": "address",
          "name": "",
          "type": "address"
        }
      ],
      "stateMutability": "view",
      "type": "function"
    },
    {
      "inputs": [],
      "name": "totalMinedAmount",
      "outputs": [
        {
          "internalType": "uint256",
          "name": "",
          "type": "uint256"
        }
      ],
      "stateMutability": "view",
      "type": "function"
    },
    {
      "inputs": [
        {
          "internalType": "address",
          "name": "newAdmin",
          "type": "address"
        }
      ],
      "name": "transferAdmin",
      "outputs": [],
      "stateMutability": "nonpayable",
      "type": "function"
    },
    {
      "inputs": [],
      "name": "version",
      "outputs": [
        {
          "internalType": "string",
          "name": "",
          "type": "string"
        }
      ],
      "stateMutability": "pure",
      "type": "function"
    },
    {
      "inputs": [
        {
          "internalType": "address",
          "name": "to",
          "type": "address"
        },
        {
          "internalType": "uint256",
          "name": "_amount",
          "type": "uint256"
        }
      ],
      "name": "withdraw",
      "outputs": [],
      "stateMutability": "nonpayable",
      "type": "function"
    },
    {
      "stateMutability": "payable",
      "type": "receive"
    }
  ],
  "bytecode": "0x608060405234801561001057600080fd5b506127c1806100206000396000f3fe6080604052600436106102605760003560e01c806375b238fc11610144578063af182fce116100b6578063d547741f1161007a578063d547741f146106a1578063e79e447c146106c1578063f0091509146106e1578063f0276114146106f6578063f3fef3a314610716578063fb9af8b81461073657610286565b8063af182fce14610620578063b97af0db14610635578063ca15c8731461064a578063d007e8961461066a578063d53913931461068c57610286565b806391d148541161010857806391d14854146105705780639a88be2f14610590578063a1f5f50e146105b6578063a217fddf146105cb578063a842d78e146105e0578063aad3ec961461060057610286565b806375b238fc146104e4578063800edb9d146104f9578063851073671461051957806389f395de1461053b5780639010d07c1461055057610286565b806336568abe116101dd57806354fd4d50116101a157806354fd4d50146104505780635f139e3f1461046557806363a8fd891461047a57806366b2d5271461048f57806370480275146104a457806375829def146104c457610286565b806336568abe146103c657806340c2ce86146103e657806341c04d5e146104065780634ce77abe1461041b5780635353a2d81461043057610286565b806324d7806c1161022457806324d7806c1461033a5780632736b39114610367578063282c51f31461037c5780632f2ff15d14610391578063355274ea146103b157610286565b806301f88d261461028b57806306fdde03146102b65780631785f53c146102d857806323471d18146102fa578063248a9ca31461031a57610286565b366102865760405162461bcd60e51b815260040161027d906123de565b60405180910390fd5b600080fd5b34801561029757600080fd5b506102a0610756565b6040516102ad9190612242565b60405180910390f35b3480156102c257600080fd5b506102cb61075c565b6040516102ad919061224b565b3480156102e457600080fd5b506102f86102f3366004611ef7565b6107e7565b005b34801561030657600080fd5b506102f8610315366004611ef7565b610846565b34801561032657600080fd5b506102a0610335366004611f92565b610937565b34801561034657600080fd5b5061035a610355366004611ef7565b61094f565b6040516102ad9190612237565b34801561037357600080fd5b506102a061096f565b34801561038857600080fd5b506102a0610975565b34801561039d57600080fd5b506102f86103ac366004611faa565b610999565b3480156103bd57600080fd5b506102a0610a00565b3480156103d257600080fd5b506102f86103e1366004611faa565b610a06565b3480156103f257600080fd5b506102f8610401366004611ef7565b610a67565b34801561041257600080fd5b506102a0610b2a565b34801561042757600080fd5b506102a0610b4e565b34801561043c57600080fd5b506102f861044b366004611ff6565b610b54565b34801561045c57600080fd5b506102cb610c18565b34801561047157600080fd5b506102a0610c43565b34801561048657600080fd5b5061035a610c49565b34801561049b57600080fd5b506102a0610c52565b3480156104b057600080fd5b506102f86104bf366004611ef7565b610cd8565b3480156104d057600080fd5b506102f86104df366004611ef7565b610d34565b3480156104f057600080fd5b506102a0610e55565b34801561050557600080fd5b506102f8610514366004611f92565b610e67565b34801561052557600080fd5b5061052e610ede565b6040516102ad919061215b565b34801561054757600080fd5b5061052e610eed565b34801561055c57600080fd5b5061052e61056b366004611fd5565b610efc565b34801561057c57600080fd5b5061035a61058b366004611faa565b610f1b565b34801561059c57600080fd5b506105a5610f33565b6040516102ad959493929190612188565b3480156105c257600080fd5b5061035a611015565b3480156105d757600080fd5b506102a0611023565b3480156105ec57600080fd5b506102f86105fb366004611f92565b611028565b34801561060c57600080fd5b5061035a61061b366004611f11565b61109f565b34801561062c57600080fd5b506102a06112cc565b34801561064157600080fd5b506102a06112d2565b34801561065657600080fd5b506102a0610665366004611f92565b6112d8565b34801561067657600080fd5b5061067f6112ef565b6040516102ad91906121ea565b34801561069857600080fd5b506102a061134c565b3480156106ad57600080fd5b506102f86106bc366004611faa565b611370565b3480156106cd57600080fd5b506102f86106dc366004611f92565b6113c9565b3480156106ed57600080fd5b506102a0611440565b34801561070257600080fd5b5061035a610711366004611f3a565b611446565b34801561072257600080fd5b506102f8610731366004611f11565b6117d6565b34801561074257600080fd5b506102f8610751366004611f92565b611962565b60045481565b6002805460408051602060018416156101000260001901909316849004601f810184900484028201840190925281815292918301828280156107df5780601f106107b4576101008083540402835291602001916107df565b820191906000526020600020905b8154815290600101906020018083116107c257829003601f168201915b505050505081565b6107f03361094f565b61082b5760405162461bcd60e51b81526004018080602001828103825260228152602001806126aa6022913960400191505060405180910390fd5b61084360008051602061273d83398151915282610a06565b50565b806001600160a01b0381166108a2576040805162461bcd60e51b815260206004820181905260248201527f5374616b65325661756c7453746f726167653a207a65726f2061646472657373604482015290519081900360640190fd5b6108ab3361094f565b6108e65760405162461bcd60e51b81526004018080602001828103825260228152602001806126aa6022913960400191505060405180910390fd5b6008546001600160a01b03838116911614156109145760405162461bcd60e51b815260040161027d90612520565b50600880546001600160a01b0319166001600160a01b0392909216919091179055565b6000818152602081905260409020600201545b919050565b600061096960008051602061273d83398151915283610f1b565b92915050565b60055481565b7f9667e80708b6eeeb0053fa0cca44e028ff548e2a9f029edfeac87c118b08b7c881565b6000828152602081905260409020600201546109b79061058b6119d9565b6109f25760405162461bcd60e51b815260040180806020018281038252602f81526020018061267b602f913960400191505060405180910390fd5b6109fc82826119dd565b5050565b60035481565b610a0e6119d9565b6001600160a01b0316816001600160a01b031614610a5d5760405162461bcd60e51b815260040180806020018281038252602f81526020018061275d602f913960400191505060405180910390fd5b6109fc8282611a46565b610a703361094f565b610aab5760405162461bcd60e51b81526004018080602001828103825260228152602001806126aa6022913960400191505060405180910390fd5b806001600160a01b038116610b07576040805162461bcd60e51b815260206004820181905260248201527f5374616b65325661756c7453746f726167653a207a65726f2061646472657373604482015290519081900360640190fd5b50600180546001600160a01b0319166001600160a01b0392909216919091179055565b7f52eafc11f6f81f86878bffd31109a0d92f37506527754f00788853ff9f63b13081565b60065481565b610b5d3361094f565b610b985760405162461bcd60e51b81526004018080602001828103825260228152602001806126aa6022913960400191505060405180910390fd5b80604051602001610ba991906120cf565b604051602081830303815290604052805190602001206002604051602001610bd191906120eb565b604051602081830303815290604052805190602001201415610c055760405162461bcd60e51b815260040161027d90612370565b80516109fc906002906020840190611e21565b6040805180820190915260118152700eae0cee4c2c8ca5cec625c64606462607607b1b602082015290565b60095481565b600d5460ff1681565b6001546040516370a0823160e01b81526000916001600160a01b0316906370a0823190610c8390309060040161215b565b60206040518083038186803b158015610c9b57600080fd5b505afa158015610caf573d6000803e3d6000fd5b505050506040513d601f19601f82011682018060405250810190610cd3919061208b565b905090565b610ce13361094f565b610d1c5760405162461bcd60e51b81526004018080602001828103825260228152602001806126aa6022913960400191505060405180910390fd5b61084360008051602061273d83398151915282610999565b610d3d3361094f565b610d785760405162461bcd60e51b81526004018080602001828103825260228152602001806126aa6022913960400191505060405180910390fd5b6001600160a01b038116610dce576040805162461bcd60e51b815260206004820152601860248201527741636365737369626c653a207a65726f206164647265737360401b604482015290519081900360640190fd5b336001600160a01b0382161415610e25576040805162461bcd60e51b815260206004820152601660248201527520b1b1b2b9b9b4b136329d1039b0b6b29030b236b4b760511b604482015290519081900360640190fd5b610e3d60008051602061273d83398151915282610999565b61084360008051602061273d83398151915233610a06565b60008051602061273d83398151915281565b610e703361094f565b610eab5760405162461bcd60e51b81526004018080602001828103825260228152602001806126aa6022913960400191505060405180910390fd5b600081118015610ebd57508060035414155b610ed95760405162461bcd60e51b815260040161027d90612444565b600355565b6008546001600160a01b031681565b6001546001600160a01b031681565b6000828152602081905260408120610f149083611aaf565b9392505050565b6000828152602081905260408120610f149083611abb565b610f3b611ead565b604080518082018252600180546001600160a01b0390811683526008541660208084019190915260035460075460065460028054885161010097821615979097026000190116819004601f8101869004860287018601909852878652600097889788976060979196959493929091839190830182828015610ffd5780601f10610fd257610100808354040283529160200191610ffd565b820191906000526020600020905b815481529060010190602001808311610fe057829003601f168201915b50505050509050945094509450945094509091929394565b600d54610100900460ff1681565b600081565b6110313361094f565b61106c5760405162461bcd60e51b81526004018080602001828103825260228152602001806126aa6022913960400191505060405180910390fd5b60008111801561107e57508060055414155b61109a5760405162461bcd60e51b815260040161027d906124ea565b600555565b60006110aa3361094f565b6110e55760405162461bcd60e51b81526004018080602001828103825260228152602001806126aa6022913960400191505060405180910390fd5b816000811161113b576040805162461bcd60e51b815260206004820152601e60248201527f5374616b65325661756c7453746f726167653a207a65726f2076616c75650000604482015290519081900360640190fd5b6001546040516370a0823160e01b81526000916001600160a01b0316906370a082319061116c90309060040161215b565b60206040518083038186803b15801561118457600080fd5b505afa158015611198573d6000803e3d6000fd5b505050506040513d601f19601f820116820180604052508101906111bc919061208b565b9050838110156111de5760405162461bcd60e51b815260040161027d90612339565b60015460405163a9059cbb60e01b81526001600160a01b039091169063a9059cbb90611210908890889060040161216f565b602060405180830381600087803b15801561122a57600080fd5b505af115801561123e573d6000803e3d6000fd5b505050506040513d601f19601f820116820180604052508101906112629190611f72565b61127e5760405162461bcd60e51b815260040161027d906125aa565b336001600160a01b03167ff7a40077ff7a04c7e61f6f26fb13774259ddf1b6bce9ecf26a8276cdd399268386866040516112b992919061216f565b60405180910390a2506001949350505050565b600a5481565b60075481565b600081815260208190526040812061096990611ad0565b6040805160018082528183019092526060916000919060208083019080368337505060085482519293506001600160a01b03169183915060009061132f57fe5b6001600160a01b0390921660209283029190910190910152905090565b7ff0887ba65ee2024ea881d91b74c2450ef19e1557f03bed3ea9f16b037cbe2dc981565b60008281526020819052604090206002015461138e9061058b6119d9565b610a5d5760405162461bcd60e51b81526004018080602001828103825260308152602001806126cc6030913960400191505060405180910390fd5b6113d23361094f565b61140d5760405162461bcd60e51b81526004018080602001828103825260228152602001806126aa6022913960400191505060405180910390fd5b60008111801561141f57508060065414155b61143b5760405162461bcd60e51b815260040161027d9061240c565b600655565b600b5481565b6000836000811161149e576040805162461bcd60e51b815260206004820152601e60248201527f5374616b65325661756c7453746f726167653a207a65726f2076616c75650000604482015290519081900360640190fd5b42600454106114bf5760405162461bcd60e51b815260040161027d9061225e565b6008546001600160a01b031633146114e95760405162461bcd60e51b815260040161027d90612562565b6114f38484611adb565b85146115115760405162461bcd60e51b815260040161027d906122ef565b6001546040516370a0823160e01b81526000916001600160a01b0316906370a082319061154290309060040161215b565b60206040518083038186803b15801561155a57600080fd5b505afa15801561156e573d6000803e3d6000fd5b505050506040513d601f19601f82011682018060405250810190611592919061208b565b9050858110156115b45760405162461bcd60e51b815260040161027d90612339565b6009546115c19086611adb565b600955600a546115d19085611adb565b600a55600b546115e19087611adb565b600b5560055442908111156115f557506005545b61161660065461161060045484611b3590919063ffffffff16565b90611b77565b600b5411156116375760405162461bcd60e51b815260040161027d906122a4565b85156116dd5760015460405163a9059cbb60e01b81526001600160a01b039091169063a9059cbb9061166f908b908a9060040161216f565b602060405180830381600087803b15801561168957600080fd5b505af115801561169d573d6000803e3d6000fd5b505050506040513d601f19601f820116820180604052508101906116c19190611f72565b6116dd5760405162461bcd60e51b815260040161027d906125aa565b841561178357600154604051632770a7eb60e21b81526001600160a01b0390911690639dc29fac90611715903090899060040161216f565b602060405180830381600087803b15801561172f57600080fd5b505af1158015611743573d6000803e3d6000fd5b505050506040513d601f19601f820116820180604052508101906117679190611f72565b6117835760405162461bcd60e51b815260040161027d906123a7565b876001600160a01b03167f5a9adfc919404a42fdf241694d4c9ff0041b7b48fca6ed837402db9d1d6385a88888886040516117c093929190612612565b60405180910390a2506001979650505050505050565b6117df3361094f565b61181a5760405162461bcd60e51b81526004018080602001828103825260228152602001806126aa6022913960400191505060405180910390fd5b6001546040516370a0823160e01b81526000916001600160a01b0316906370a082319061184b90309060040161215b565b60206040518083038186803b15801561186357600080fd5b505afa158015611877573d6000803e3d6000fd5b505050506040513d601f19601f8201168201806040525081019061189b919061208b565b9050818110156118bd5760405162461bcd60e51b815260040161027d906125e1565b60015460405163a9059cbb60e01b81526001600160a01b039091169063a9059cbb906118ef908690869060040161216f565b602060405180830381600087803b15801561190957600080fd5b505af115801561191d573d6000803e3d6000fd5b505050506040513d601f19601f820116820180604052508101906119419190611f72565b61195d5760405162461bcd60e51b815260040161027d9061247b565b505050565b61196b3361094f565b6119a65760405162461bcd60e51b81526004018080602001828103825260228152602001806126aa6022913960400191505060405180910390fd5b6000811180156119b857508060045414155b6119d45760405162461bcd60e51b815260040161027d906124b2565b600455565b3390565b60008281526020819052604090206119f59082611bd0565b156109fc57611a026119d9565b6001600160a01b0316816001600160a01b0316837f2f8788117e7eff1d82e926ec794901d17c78024a50270940304540a733656f0d60405160405180910390a45050565b6000828152602081905260409020611a5e9082611be5565b156109fc57611a6b6119d9565b6001600160a01b0316816001600160a01b0316837ff6391f5c32d9c69d2a47ea670b442974b53935d1edc7fd64eb21e047a839171b60405160405180910390a45050565b6000610f148383611bfa565b6000610f14836001600160a01b038416611c5e565b600061096982611c76565b600082820183811015610f14576040805162461bcd60e51b815260206004820152601b60248201527f536166654d6174683a206164646974696f6e206f766572666c6f770000000000604482015290519081900360640190fd5b6000610f1483836040518060400160405280601e81526020017f536166654d6174683a207375627472616374696f6e206f766572666c6f770000815250611c7a565b600082611b8657506000610969565b82820282848281611b9357fe5b0414610f145760405162461bcd60e51b815260040180806020018281038252602181526020018061271c6021913960400191505060405180910390fd5b6000610f14836001600160a01b038416611d11565b6000610f14836001600160a01b038416611d5b565b81546000908210611c3c5760405162461bcd60e51b81526004018080602001828103825260228152602001806126596022913960400191505060405180910390fd5b826000018281548110611c4b57fe5b9060005260206000200154905092915050565b60009081526001919091016020526040902054151590565b5490565b60008184841115611d095760405162461bcd60e51b81526004018080602001828103825283818151815260200191508051906020019080838360005b83811015611cce578181015183820152602001611cb6565b50505050905090810190601f168015611cfb5780820380516001836020036101000a031916815260200191505b509250505060405180910390fd5b505050900390565b6000611d1d8383611c5e565b611d5357508154600181810184556000848152602080822090930184905584548482528286019093526040902091909155610969565b506000610969565b60008181526001830160205260408120548015611e175783546000198083019190810190600090879083908110611d8e57fe5b9060005260206000200154905080876000018481548110611dab57fe5b600091825260208083209091019290925582815260018981019092526040902090840190558654879080611ddb57fe5b60019003818190600052602060002001600090559055866001016000878152602001908152602001600020600090556001945050505050610969565b6000915050610969565b828054600181600116156101000203166002900490600052602060002090601f016020900481019282611e575760008555611e9d565b82601f10611e7057805160ff1916838001178555611e9d565b82800160010185558215611e9d579182015b82811115611e9d578251825591602001919060010190611e82565b50611ea9929150611ecb565b5090565b60405180604001604052806002906020820280368337509192915050565b5b80821115611ea95760008155600101611ecc565b80356001600160a01b038116811461094a57600080fd5b600060208284031215611f08578081fd5b610f1482611ee0565b60008060408385031215611f23578081fd5b611f2c83611ee0565b946020939093013593505050565b60008060008060808587031215611f4f578182fd5b611f5885611ee0565b966020860135965060408601359560600135945092505050565b600060208284031215611f83578081fd5b81518015158114610f14578182fd5b600060208284031215611fa3578081fd5b5035919050565b60008060408385031215611fbc578182fd5b82359150611fcc60208401611ee0565b90509250929050565b60008060408385031215611fe7578182fd5b50508035926020909101359150565b60006020808385031215612008578182fd5b823567ffffffffffffffff8082111561201f578384fd5b818501915085601f830112612032578384fd5b81358181111561203e57fe5b604051601f8201601f191681018501838111828210171561205b57fe5b6040528181528382018501881015612071578586fd5b818585018683013790810190930193909352509392505050565b60006020828403121561209c578081fd5b5051919050565b600081518084526120bb816020860160208601612628565b601f01601f19169290920160200192915050565b600082516120e1818460208701612628565b9190910192915050565b600080835460018082166000811461210a576001811461212157612150565b60ff198316865260028304607f1686019350612150565b600283048786526020808720875b838110156121485781548a82015290850190820161212f565b505050860193505b509195945050505050565b6001600160a01b0391909116815260200190565b6001600160a01b03929092168252602082015260400190565b60008187825b60028110156121b65781516001600160a01b031683526020928301929091019060010161218e565b50505085604083015284606083015283608083015260c060a08301526121df60c08301846120a3565b979650505050505050565b6020808252825182820181905260009190848201906040850190845b8181101561222b5783516001600160a01b031683529284019291840191600101612206565b50909695505050505050565b901515815260200190565b90815260200190565b600060208252610f1460208301846120a3565b60208082526026908201527f5374616b65325661756c743a204974206973206e6f742061206d696e696e67206040820152651c195c9a5bd960d21b606082015260800190565b6020808252602b908201527f5374616b65325661756c743a2045786365656465642074686520736574206d6960408201526a1b9a5b99c8185b5bdd5b9d60aa1b606082015260800190565b6020808252602a908201527f5374616b65325661756c743a206d696e61626c6520616d6f756e74206973206e6040820152691bdd0818dbdc9c9958dd60b21b606082015260800190565b6020808252601f908201527f5374616b65325661756c743a206e6f7420656e6f7567682062616c616e636500604082015260600190565b6020808252601d908201527f5374616b65325661756c743a206368616e67654e616d65206661696c73000000604082015260600190565b6020808252601a908201527f5374616b65325661756c743a20544f53206275726e206661696c000000000000604082015260600190565b60208082526014908201527331b0b73737ba103932b1b2b4bb329022ba3432b960611b604082015260600190565b6020808252602a908201526000805160206126fc83398151915260408201526919d4195c94d958dbdb9960b21b606082015260800190565b6020808252601c908201527f5374616b65325661756c743a206368616e6765436170206661696c7300000000604082015260600190565b6020808252601a908201527f5374616b65325661756c743a206661696c207769746864726177000000000000604082015260600190565b6020808252602a908201526000805160206126fc83398151915260408201526967537461727454696d6560b01b606082015260800190565b60208082526028908201526000805160206126fc83398151915260408201526767456e6454696d6560c01b606082015260800190565b60208082526022908201527f5374616b65325661756c743a207365745374616b6541646472657373206661696040820152616c7360f01b606082015260800190565b60208082526028908201527f5374616b65325661756c743a2073656e646572206973206e6f74207374616b6560408201526710dbdb9d1c9858dd60c21b606082015260800190565b6020808252601e908201527f5374616b65325661756c743a20544f53207472616e73666572206661696c0000604082015260600190565b60208082526017908201527614dd185ad94c95985d5b1d0e881a5b9cdd59999a595b9d604a1b604082015260600190565b9283526020830191909152604082015260600190565b60005b8381101561264357818101518382015260200161262b565b83811115612652576000848401525b5050505056fe456e756d657261626c655365743a20696e646578206f7574206f6620626f756e6473416363657373436f6e74726f6c3a2073656e646572206d75737420626520616e2061646d696e20746f206772616e7441636365737369626c653a2043616c6c6572206973206e6f7420616e2061646d696e416363657373436f6e74726f6c3a2073656e646572206d75737420626520616e2061646d696e20746f207265766f6b655374616b65325661756c743a207a65726f206f722073616d65205f6d696e696e536166654d6174683a206d756c7469706c69636174696f6e206f766572666c6f77df8b4c520ffe197c5343c6f5aec59570151ef9a492f2c624fd45ddde6135ec42416363657373436f6e74726f6c3a2063616e206f6e6c792072656e6f756e636520726f6c657320666f722073656c66a26469706673582212201ede3265603c0a44e8345f7f03a10af8a6461946b33b32589b50f4fa0237ab2764736f6c63430007060033",
  "linkReferences": {},
  "deployedLinkReferences": {}
}