{
  "_format": "hh-sol-artifact-1",
  "contractName": "StakeFactory",
  "sourceName": "contracts/factory/StakeFactory.sol",
  "abi": [
    {
      "inputs": [
        {
          "internalType": "address",
          "name": "_stakeSimpleFactory",
          "type": "address"
        },
        {
          "internalType": "address",
          "name": "_stakeTONFactory",
          "type": "address"
        },
        {
          "internalType": "address",
          "name": "_stakeUniswapV3Factory",
          "type": "address"
        }
      ],
      "stateMutability": "nonpayable",
      "type": "constructor"
    },
    {
      "anonymous": false,
      "inputs": [
        {
          "indexed": true,
          "internalType": "bytes32",
          "name": "role",
          "type": "bytes32"
        },
        {
          "indexed": true,
          "internalType": "bytes32",
          "name": "previousAdminRole",
          "type": "bytes32"
        },
        {
          "indexed": true,
          "internalType": "bytes32",
          "name": "newAdminRole",
          "type": "bytes32"
        }
      ],
      "name": "RoleAdminChanged",
      "type": "event"
    },
    {
      "anonymous": false,
      "inputs": [
        {
          "indexed": true,
          "internalType": "bytes32",
          "name": "role",
          "type": "bytes32"
        },
        {
          "indexed": true,
          "internalType": "address",
          "name": "account",
          "type": "address"
        },
        {
          "indexed": true,
          "internalType": "address",
          "name": "sender",
          "type": "address"
        }
      ],
      "name": "RoleGranted",
      "type": "event"
    },
    {
      "anonymous": false,
      "inputs": [
        {
          "indexed": true,
          "internalType": "bytes32",
          "name": "role",
          "type": "bytes32"
        },
        {
          "indexed": true,
          "internalType": "address",
          "name": "account",
          "type": "address"
        },
        {
          "indexed": true,
          "internalType": "address",
          "name": "sender",
          "type": "address"
        }
      ],
      "name": "RoleRevoked",
      "type": "event"
    },
    {
      "inputs": [],
      "name": "ADMIN_ROLE",
      "outputs": [
        {
          "internalType": "bytes32",
          "name": "",
          "type": "bytes32"
        }
      ],
      "stateMutability": "view",
      "type": "function"
    },
    {
      "inputs": [],
      "name": "BURNER_ROLE",
      "outputs": [
        {
          "internalType": "bytes32",
          "name": "",
          "type": "bytes32"
        }
      ],
      "stateMutability": "view",
      "type": "function"
    },
    {
      "inputs": [],
      "name": "DEFAULT_ADMIN_ROLE",
      "outputs": [
        {
          "internalType": "bytes32",
          "name": "",
          "type": "bytes32"
        }
      ],
      "stateMutability": "view",
      "type": "function"
    },
    {
      "inputs": [],
      "name": "MINTER_ROLE",
      "outputs": [
        {
          "internalType": "bytes32",
          "name": "",
          "type": "bytes32"
        }
      ],
      "stateMutability": "view",
      "type": "function"
    },
    {
      "inputs": [],
      "name": "PROJECT_ADMIN_ROLE",
      "outputs": [
        {
          "internalType": "bytes32",
          "name": "",
          "type": "bytes32"
        }
      ],
      "stateMutability": "view",
      "type": "function"
    },
    {
      "inputs": [
        {
          "internalType": "address",
          "name": "account",
          "type": "address"
        }
      ],
      "name": "addAdmin",
      "outputs": [],
      "stateMutability": "nonpayable",
      "type": "function"
    },
    {
      "inputs": [
        {
          "internalType": "uint256",
          "name": "stakeType",
          "type": "uint256"
        },
        {
          "internalType": "address[4]",
          "name": "_addr",
          "type": "address[4]"
        },
        {
          "internalType": "address",
          "name": "registry",
          "type": "address"
        },
        {
          "internalType": "uint256[3]",
          "name": "_intdata",
          "type": "uint256[3]"
        }
      ],
      "name": "create",
      "outputs": [
        {
          "internalType": "address",
          "name": "",
          "type": "address"
        }
      ],
      "stateMutability": "nonpayable",
      "type": "function"
    },
    {
      "inputs": [
        {
          "internalType": "uint256",
          "name": "",
          "type": "uint256"
        }
      ],
      "name": "factory",
      "outputs": [
        {
          "internalType": "address",
          "name": "",
          "type": "address"
        }
      ],
      "stateMutability": "view",
      "type": "function"
    },
    {
      "inputs": [
        {
          "internalType": "bytes32",
          "name": "role",
          "type": "bytes32"
        }
      ],
      "name": "getRoleAdmin",
      "outputs": [
        {
          "internalType": "bytes32",
          "name": "",
          "type": "bytes32"
        }
      ],
      "stateMutability": "view",
      "type": "function"
    },
    {
      "inputs": [
        {
          "internalType": "bytes32",
          "name": "role",
          "type": "bytes32"
        },
        {
          "internalType": "uint256",
          "name": "index",
          "type": "uint256"
        }
      ],
      "name": "getRoleMember",
      "outputs": [
        {
          "internalType": "address",
          "name": "",
          "type": "address"
        }
      ],
      "stateMutability": "view",
      "type": "function"
    },
    {
      "inputs": [
        {
          "internalType": "bytes32",
          "name": "role",
          "type": "bytes32"
        }
      ],
      "name": "getRoleMemberCount",
      "outputs": [
        {
          "internalType": "uint256",
          "name": "",
          "type": "uint256"
        }
      ],
      "stateMutability": "view",
      "type": "function"
    },
    {
      "inputs": [
        {
          "internalType": "bytes32",
          "name": "role",
          "type": "bytes32"
        },
        {
          "internalType": "address",
          "name": "account",
          "type": "address"
        }
      ],
      "name": "grantRole",
      "outputs": [],
      "stateMutability": "nonpayable",
      "type": "function"
    },
    {
      "inputs": [
        {
          "internalType": "bytes32",
          "name": "role",
          "type": "bytes32"
        },
        {
          "internalType": "address",
          "name": "account",
          "type": "address"
        }
      ],
      "name": "hasRole",
      "outputs": [
        {
          "internalType": "bool",
          "name": "",
          "type": "bool"
        }
      ],
      "stateMutability": "view",
      "type": "function"
    },
    {
      "inputs": [
        {
          "internalType": "address",
          "name": "account",
          "type": "address"
        }
      ],
      "name": "isAdmin",
      "outputs": [
        {
          "internalType": "bool",
          "name": "",
          "type": "bool"
        }
      ],
      "stateMutability": "view",
      "type": "function"
    },
    {
      "inputs": [
        {
          "internalType": "address",
          "name": "account",
          "type": "address"
        }
      ],
      "name": "removeAdmin",
      "outputs": [],
      "stateMutability": "nonpayable",
      "type": "function"
    },
    {
      "inputs": [
        {
          "internalType": "bytes32",
          "name": "role",
          "type": "bytes32"
        },
        {
          "internalType": "address",
          "name": "account",
          "type": "address"
        }
      ],
      "name": "renounceRole",
      "outputs": [],
      "stateMutability": "nonpayable",
      "type": "function"
    },
    {
      "inputs": [
        {
          "internalType": "bytes32",
          "name": "role",
          "type": "bytes32"
        },
        {
          "internalType": "address",
          "name": "account",
          "type": "address"
        }
      ],
      "name": "revokeRole",
      "outputs": [],
      "stateMutability": "nonpayable",
      "type": "function"
    },
    {
      "inputs": [
        {
          "internalType": "uint256",
          "name": "_stakeType",
          "type": "uint256"
        },
        {
          "internalType": "address",
          "name": "_factory",
          "type": "address"
        }
      ],
      "name": "setFactoryByStakeType",
      "outputs": [],
      "stateMutability": "nonpayable",
      "type": "function"
    },
    {
      "inputs": [
        {
          "internalType": "address",
          "name": "newAdmin",
          "type": "address"
        }
      ],
      "name": "transferAdmin",
      "outputs": [],
      "stateMutability": "nonpayable",
      "type": "function"
    }
  ],
  "bytecode": "0x60806040523480156200001157600080fd5b506040516200117538038062001175833981810160405260608110156200003757600080fd5b50805160208201516040909201519091906001600160a01b038216620000a4576040805162461bcd60e51b815260206004820152601760248201527f5374616b65466163746f72793a20696e6974206661696c000000000000000000604482015290519081900360640190fd5b6000805260016020527fa6eef7e35abe7026729641147f7915573c7e97b47efa546f5f6e3230263bcb4980546001600160a01b0319166001600160a01b03841617905562000102600080516020620011558339815191528062000126565b6200011d600080516020620011558339815191523362000178565b5050506200028c565b600082815260208190526040808220600201549051839285917fbd79b86ffe0ab8e8776151514217cd7cacd52c909f66475c3af44e129f0b00ff9190a460009182526020829052604090912060020155565b62000184828262000188565b5050565b600082815260208181526040909120620001ad91839062000ad562000201821b17901c565b156200018457620001bd62000221565b6001600160a01b0316816001600160a01b0316837f2f8788117e7eff1d82e926ec794901d17c78024a50270940304540a733656f0d60405160405180910390a45050565b600062000218836001600160a01b03841662000225565b90505b92915050565b3390565b600062000233838362000274565b6200026b575081546001818101845560008481526020808220909301849055845484825282860190935260409020919091556200021b565b5060006200021b565b60009081526001919091016020526040902054151590565b610eb9806200029c6000396000f3fe608060405234801561001057600080fd5b50600436106101115760003560e01c806370480275116100ad57806391d148541161007157806391d1485414610322578063a217fddf1461034e578063ca15c87314610356578063d539139314610373578063d547741f1461037b57610111565b8063704802751461027f57806375829def146102a557806375b238fc146102cb57806378e999b9146102d35780639010d07c146102ff57610111565b8063115c289b146101165780631785f53c1461016957806322e3dec014610191578063248a9ca3146101ae57806324d7806c146101dd578063282c51f3146102175780632f2ff15d1461021f57806336568abe1461024b57806341c04d5e14610277575b600080fd5b61014d600480360361012081101561012d57600080fd5b5080359060208101906001600160a01b0360a0820135169060c0016103a7565b604080516001600160a01b039092168252519081900360200190f35b61018f6004803603602081101561017f57600080fd5b50356001600160a01b03166105ee565b005b61014d600480360360208110156101a757600080fd5b503561064d565b6101cb600480360360208110156101c457600080fd5b5035610668565b60408051918252519081900360200190f35b610203600480360360208110156101f357600080fd5b50356001600160a01b031661067d565b604080519115158252519081900360200190f35b6101cb61069d565b61018f6004803603604081101561023557600080fd5b50803590602001356001600160a01b03166106c1565b61018f6004803603604081101561026157600080fd5b50803590602001356001600160a01b031661072d565b6101cb61078e565b61018f6004803603602081101561029557600080fd5b50356001600160a01b03166107b2565b61018f600480360360208110156102bb57600080fd5b50356001600160a01b031661080e565b6101cb61092f565b61018f600480360360408110156102e957600080fd5b50803590602001356001600160a01b0316610941565b61014d6004803603604081101561031557600080fd5b5080359060200135610a05565b6102036004803603604081101561033857600080fd5b50803590602001356001600160a01b0316610a24565b6101cb610a3c565b6101cb6004803603602081101561036c57600080fd5b5035610a41565b6101cb610a58565b61018f6004803603604081101561039157600080fd5b50803590602001356001600160a01b0316610a7c565b60006103b23361067d565b6103ed5760405162461bcd60e51b8152600401808060200182810382526022815260200180610de36022913960400191505060405180910390fd5b6000858152600160205260409020546001600160a01b0316610456576040805162461bcd60e51b815260206004820152601b60248201527f5374616b65466163746f72793a207a65726f20666163746f7279200000000000604482015290519081900360640190fd5b6001600160a01b036040850135166104b0576040805162461bcd60e51b81526020600482015260186024820152775374616b65466163746f72793a207661756c74207a65726f60401b604482015290519081900360640190fd5b60008581526001602052604080822054905163ba3d304560e01b81526001600160a01b039091169063ba3d304590879087908790339060040180856080808284376000838201526001600160a01b038716601f909101601f19169092019182525060200183606080828437600081840152601f19601f820116905080830192505050826001600160a01b03168152602001945050505050602060405180830381600087803b15801561056157600080fd5b505af1158015610575573d6000803e3d6000fd5b505050506040513d602081101561058b57600080fd5b505190506001600160a01b0381166105e5576040805162461bcd60e51b81526020600482015260186024820152775374616b65466163746f72793a2070726f7879207a65726f60401b604482015290519081900360640190fd5b95945050505050565b6105f73361067d565b6106325760405162461bcd60e51b8152600401808060200182810382526022815260200180610de36022913960400191505060405180910390fd5b61064a600080516020610e358339815191528261072d565b50565b6001602052600090815260409020546001600160a01b031681565b60009081526020819052604090206002015490565b6000610697600080516020610e3583398151915283610a24565b92915050565b7f9667e80708b6eeeb0053fa0cca44e028ff548e2a9f029edfeac87c118b08b7c881565b6000828152602081905260409020600201546106e4906106df610aea565b610a24565b61071f5760405162461bcd60e51b815260040180806020018281038252602f815260200180610db4602f913960400191505060405180910390fd5b6107298282610aee565b5050565b610735610aea565b6001600160a01b0316816001600160a01b0316146107845760405162461bcd60e51b815260040180806020018281038252602f815260200180610e55602f913960400191505060405180910390fd5b6107298282610b57565b7f52eafc11f6f81f86878bffd31109a0d92f37506527754f00788853ff9f63b13081565b6107bb3361067d565b6107f65760405162461bcd60e51b8152600401808060200182810382526022815260200180610de36022913960400191505060405180910390fd5b61064a600080516020610e35833981519152826106c1565b6108173361067d565b6108525760405162461bcd60e51b8152600401808060200182810382526022815260200180610de36022913960400191505060405180910390fd5b6001600160a01b0381166108a8576040805162461bcd60e51b815260206004820152601860248201527741636365737369626c653a207a65726f206164647265737360401b604482015290519081900360640190fd5b336001600160a01b03821614156108ff576040805162461bcd60e51b815260206004820152601660248201527520b1b1b2b9b9b4b136329d1039b0b6b29030b236b4b760511b604482015290519081900360640190fd5b610917600080516020610e35833981519152826106c1565b61064a600080516020610e358339815191523361072d565b600080516020610e3583398151915281565b61094a3361067d565b6109855760405162461bcd60e51b8152600401808060200182810382526022815260200180610de36022913960400191505060405180910390fd5b806001600160a01b0381166109d6576040805162461bcd60e51b81526020600482015260126024820152715374616b65466163746f72793a207a65726f60701b604482015290519081900360640190fd5b5060009182526001602052604090912080546001600160a01b0319166001600160a01b03909216919091179055565b6000828152602081905260408120610a1d9083610bc0565b9392505050565b6000828152602081905260408120610a1d9083610bcc565b600081565b600081815260208190526040812061069790610be1565b7ff0887ba65ee2024ea881d91b74c2450ef19e1557f03bed3ea9f16b037cbe2dc981565b600082815260208190526040902060020154610a9a906106df610aea565b6107845760405162461bcd60e51b8152600401808060200182810382526030815260200180610e056030913960400191505060405180910390fd5b6000610a1d836001600160a01b038416610bec565b3390565b6000828152602081905260409020610b069082610ad5565b1561072957610b13610aea565b6001600160a01b0316816001600160a01b0316837f2f8788117e7eff1d82e926ec794901d17c78024a50270940304540a733656f0d60405160405180910390a45050565b6000828152602081905260409020610b6f9082610c36565b1561072957610b7c610aea565b6001600160a01b0316816001600160a01b0316837ff6391f5c32d9c69d2a47ea670b442974b53935d1edc7fd64eb21e047a839171b60405160405180910390a45050565b6000610a1d8383610c4b565b6000610a1d836001600160a01b038416610caf565b600061069782610cc7565b6000610bf88383610caf565b610c2e57508154600181810184556000848152602080822090930184905584548482528286019093526040902091909155610697565b506000610697565b6000610a1d836001600160a01b038416610ccb565b81546000908210610c8d5760405162461bcd60e51b8152600401808060200182810382526022815260200180610d926022913960400191505060405180910390fd5b826000018281548110610c9c57fe5b9060005260206000200154905092915050565b60009081526001919091016020526040902054151590565b5490565b60008181526001830160205260408120548015610d875783546000198083019190810190600090879083908110610cfe57fe5b9060005260206000200154905080876000018481548110610d1b57fe5b600091825260208083209091019290925582815260018981019092526040902090840190558654879080610d4b57fe5b60019003818190600052602060002001600090559055866001016000878152602001908152602001600020600090556001945050505050610697565b600091505061069756fe456e756d657261626c655365743a20696e646578206f7574206f6620626f756e6473416363657373436f6e74726f6c3a2073656e646572206d75737420626520616e2061646d696e20746f206772616e7441636365737369626c653a2043616c6c6572206973206e6f7420616e2061646d696e416363657373436f6e74726f6c3a2073656e646572206d75737420626520616e2061646d696e20746f207265766f6b65df8b4c520ffe197c5343c6f5aec59570151ef9a492f2c624fd45ddde6135ec42416363657373436f6e74726f6c3a2063616e206f6e6c792072656e6f756e636520726f6c657320666f722073656c66a26469706673582212205a1d4e494c1547c609bd4d2fd1a4dd1759be086b60ff12215afcb4b3851566a264736f6c63430007060033df8b4c520ffe197c5343c6f5aec59570151ef9a492f2c624fd45ddde6135ec42",
  "linkReferences": {},
  "deployedLinkReferences": {}
}