{
  "_format": "hh-sol-artifact-1",
  "contractName": "StakeSimple",
  "sourceName": "contracts/stake/StakeSimple.sol",
  "abi": [
    {
      "inputs": [],
      "stateMutability": "nonpayable",
      "type": "constructor"
    },
    {
      "anonymous": false,
      "inputs": [
        {
          "indexed": true,
          "internalType": "address",
          "name": "to",
          "type": "address"
        },
        {
          "indexed": false,
          "internalType": "uint256",
          "name": "amount",
          "type": "uint256"
        },
        {
          "indexed": false,
          "internalType": "uint256",
          "name": "claimBlock",
          "type": "uint256"
        }
      ],
      "name": "Claimed",
      "type": "event"
    },
    {
      "anonymous": false,
      "inputs": [
        {
          "indexed": true,
          "internalType": "bytes32",
          "name": "role",
          "type": "bytes32"
        },
        {
          "indexed": true,
          "internalType": "bytes32",
          "name": "previousAdminRole",
          "type": "bytes32"
        },
        {
          "indexed": true,
          "internalType": "bytes32",
          "name": "newAdminRole",
          "type": "bytes32"
        }
      ],
      "name": "RoleAdminChanged",
      "type": "event"
    },
    {
      "anonymous": false,
      "inputs": [
        {
          "indexed": true,
          "internalType": "bytes32",
          "name": "role",
          "type": "bytes32"
        },
        {
          "indexed": true,
          "internalType": "address",
          "name": "account",
          "type": "address"
        },
        {
          "indexed": true,
          "internalType": "address",
          "name": "sender",
          "type": "address"
        }
      ],
      "name": "RoleGranted",
      "type": "event"
    },
    {
      "anonymous": false,
      "inputs": [
        {
          "indexed": true,
          "internalType": "bytes32",
          "name": "role",
          "type": "bytes32"
        },
        {
          "indexed": true,
          "internalType": "address",
          "name": "account",
          "type": "address"
        },
        {
          "indexed": true,
          "internalType": "address",
          "name": "sender",
          "type": "address"
        }
      ],
      "name": "RoleRevoked",
      "type": "event"
    },
    {
      "anonymous": false,
      "inputs": [
        {
          "indexed": true,
          "internalType": "address",
          "name": "to",
          "type": "address"
        },
        {
          "indexed": false,
          "internalType": "uint256",
          "name": "amount",
          "type": "uint256"
        }
      ],
      "name": "Staked",
      "type": "event"
    },
    {
      "anonymous": false,
      "inputs": [
        {
          "indexed": true,
          "internalType": "address",
          "name": "to",
          "type": "address"
        },
        {
          "indexed": false,
          "internalType": "uint256",
          "name": "amount",
          "type": "uint256"
        }
      ],
      "name": "Withdrawal",
      "type": "event"
    },
    {
      "inputs": [],
      "name": "ADMIN_ROLE",
      "outputs": [
        {
          "internalType": "bytes32",
          "name": "",
          "type": "bytes32"
        }
      ],
      "stateMutability": "view",
      "type": "function"
    },
    {
      "inputs": [],
      "name": "BURNER_ROLE",
      "outputs": [
        {
          "internalType": "bytes32",
          "name": "",
          "type": "bytes32"
        }
      ],
      "stateMutability": "view",
      "type": "function"
    },
    {
      "inputs": [],
      "name": "DEFAULT_ADMIN_ROLE",
      "outputs": [
        {
          "internalType": "bytes32",
          "name": "",
          "type": "bytes32"
        }
      ],
      "stateMutability": "view",
      "type": "function"
    },
    {
      "inputs": [],
      "name": "MINTER_ROLE",
      "outputs": [
        {
          "internalType": "bytes32",
          "name": "",
          "type": "bytes32"
        }
      ],
      "stateMutability": "view",
      "type": "function"
    },
    {
      "inputs": [],
      "name": "PROJECT_ADMIN_ROLE",
      "outputs": [
        {
          "internalType": "bytes32",
          "name": "",
          "type": "bytes32"
        }
      ],
      "stateMutability": "view",
      "type": "function"
    },
    {
      "inputs": [
        {
          "internalType": "address",
          "name": "account",
          "type": "address"
        }
      ],
      "name": "addAdmin",
      "outputs": [],
      "stateMutability": "nonpayable",
      "type": "function"
    },
    {
      "inputs": [
        {
          "internalType": "address",
          "name": "account",
          "type": "address"
        },
        {
          "internalType": "uint256",
          "name": "specificBlock",
          "type": "uint256"
        }
      ],
      "name": "canRewardAmount",
      "outputs": [
        {
          "internalType": "uint256",
          "name": "",
          "type": "uint256"
        }
      ],
      "stateMutability": "view",
      "type": "function"
    },
    {
      "inputs": [],
      "name": "claim",
      "outputs": [],
      "stateMutability": "nonpayable",
      "type": "function"
    },
    {
      "inputs": [],
      "name": "defiAddr",
      "outputs": [
        {
          "internalType": "address",
          "name": "",
          "type": "address"
        }
      ],
      "stateMutability": "view",
      "type": "function"
    },
    {
      "inputs": [],
      "name": "endBlock",
      "outputs": [
        {
          "internalType": "uint256",
          "name": "",
          "type": "uint256"
        }
      ],
      "stateMutability": "view",
      "type": "function"
    },
    {
      "inputs": [
        {
          "internalType": "bytes32",
          "name": "role",
          "type": "bytes32"
        }
      ],
      "name": "getRoleAdmin",
      "outputs": [
        {
          "internalType": "bytes32",
          "name": "",
          "type": "bytes32"
        }
      ],
      "stateMutability": "view",
      "type": "function"
    },
    {
      "inputs": [
        {
          "internalType": "bytes32",
          "name": "role",
          "type": "bytes32"
        },
        {
          "internalType": "uint256",
          "name": "index",
          "type": "uint256"
        }
      ],
      "name": "getRoleMember",
      "outputs": [
        {
          "internalType": "address",
          "name": "",
          "type": "address"
        }
      ],
      "stateMutability": "view",
      "type": "function"
    },
    {
      "inputs": [
        {
          "internalType": "bytes32",
          "name": "role",
          "type": "bytes32"
        }
      ],
      "name": "getRoleMemberCount",
      "outputs": [
        {
          "internalType": "uint256",
          "name": "",
          "type": "uint256"
        }
      ],
      "stateMutability": "view",
      "type": "function"
    },
    {
      "inputs": [
        {
          "internalType": "address",
          "name": "user",
          "type": "address"
        }
      ],
      "name": "getUserStaked",
      "outputs": [
        {
          "internalType": "uint256",
          "name": "amount",
          "type": "uint256"
        },
        {
          "internalType": "uint256",
          "name": "claimedBlock",
          "type": "uint256"
        },
        {
          "internalType": "uint256",
          "name": "claimedAmount",
          "type": "uint256"
        },
        {
          "internalType": "uint256",
          "name": "releasedBlock",
          "type": "uint256"
        },
        {
          "internalType": "uint256",
          "name": "releasedAmount",
          "type": "uint256"
        },
        {
          "internalType": "uint256",
          "name": "releasedTOSAmount",
          "type": "uint256"
        },
        {
          "internalType": "bool",
          "name": "released",
          "type": "bool"
        }
      ],
      "stateMutability": "view",
      "type": "function"
    },
    {
      "inputs": [
        {
          "internalType": "bytes32",
          "name": "role",
          "type": "bytes32"
        },
        {
          "internalType": "address",
          "name": "account",
          "type": "address"
        }
      ],
      "name": "grantRole",
      "outputs": [],
      "stateMutability": "nonpayable",
      "type": "function"
    },
    {
      "inputs": [
        {
          "internalType": "bytes32",
          "name": "role",
          "type": "bytes32"
        },
        {
          "internalType": "address",
          "name": "account",
          "type": "address"
        }
      ],
      "name": "hasRole",
      "outputs": [
        {
          "internalType": "bool",
          "name": "",
          "type": "bool"
        }
      ],
      "stateMutability": "view",
      "type": "function"
    },
    {
      "inputs": [],
      "name": "infos",
      "outputs": [
        {
          "internalType": "address",
          "name": "",
          "type": "address"
        },
        {
          "internalType": "address",
          "name": "",
          "type": "address"
        },
        {
          "internalType": "uint256[3]",
          "name": "",
          "type": "uint256[3]"
        },
        {
          "internalType": "uint256",
          "name": "",
          "type": "uint256"
        },
        {
          "internalType": "uint256",
          "name": "",
          "type": "uint256"
        },
        {
          "internalType": "uint256",
          "name": "",
          "type": "uint256"
        }
      ],
      "stateMutability": "view",
      "type": "function"
    },
    {
      "inputs": [
        {
          "internalType": "address",
          "name": "account",
          "type": "address"
        }
      ],
      "name": "isAdmin",
      "outputs": [
        {
          "internalType": "bool",
          "name": "",
          "type": "bool"
        }
      ],
      "stateMutability": "view",
      "type": "function"
    },
    {
      "inputs": [],
      "name": "migratedL2",
      "outputs": [
        {
          "internalType": "bool",
          "name": "",
          "type": "bool"
        }
      ],
      "stateMutability": "view",
      "type": "function"
    },
    {
      "inputs": [],
      "name": "pauseProxy",
      "outputs": [
        {
          "internalType": "bool",
          "name": "",
          "type": "bool"
        }
      ],
      "stateMutability": "view",
      "type": "function"
    },
    {
      "inputs": [],
      "name": "paytoken",
      "outputs": [
        {
          "internalType": "address",
          "name": "",
          "type": "address"
        }
      ],
      "stateMutability": "view",
      "type": "function"
    },
    {
      "inputs": [
        {
          "internalType": "address",
          "name": "account",
          "type": "address"
        }
      ],
      "name": "removeAdmin",
      "outputs": [],
      "stateMutability": "nonpayable",
      "type": "function"
    },
    {
      "inputs": [
        {
          "internalType": "bytes32",
          "name": "role",
          "type": "bytes32"
        },
        {
          "internalType": "address",
          "name": "account",
          "type": "address"
        }
      ],
      "name": "renounceRole",
      "outputs": [],
      "stateMutability": "nonpayable",
      "type": "function"
    },
    {
      "inputs": [
        {
          "internalType": "bytes32",
          "name": "role",
          "type": "bytes32"
        },
        {
          "internalType": "address",
          "name": "account",
          "type": "address"
        }
      ],
      "name": "revokeRole",
      "outputs": [],
      "stateMutability": "nonpayable",
      "type": "function"
    },
    {
      "inputs": [],
      "name": "rewardClaimedTotal",
      "outputs": [
        {
          "internalType": "uint256",
          "name": "",
          "type": "uint256"
        }
      ],
      "stateMutability": "view",
      "type": "function"
    },
    {
      "inputs": [],
      "name": "saleStartBlock",
      "outputs": [
        {
          "internalType": "uint256",
          "name": "",
          "type": "uint256"
        }
      ],
      "stateMutability": "view",
      "type": "function"
    },
    {
      "inputs": [
        {
          "internalType": "uint256",
          "name": "amount",
          "type": "uint256"
        }
      ],
      "name": "stake",
      "outputs": [],
      "stateMutability": "payable",
      "type": "function"
    },
    {
      "inputs": [],
      "name": "stakeRegistry",
      "outputs": [
        {
          "internalType": "address",
          "name": "",
          "type": "address"
        }
      ],
      "stateMutability": "view",
      "type": "function"
    },
    {
      "inputs": [],
      "name": "startBlock",
      "outputs": [
        {
          "internalType": "uint256",
          "name": "",
          "type": "uint256"
        }
      ],
      "stateMutability": "view",
      "type": "function"
    },
    {
      "inputs": [],
      "name": "token",
      "outputs": [
        {
          "internalType": "address",
          "name": "",
          "type": "address"
        }
      ],
      "stateMutability": "view",
      "type": "function"
    },
    {
      "inputs": [],
      "name": "totalStakedAmount",
      "outputs": [
        {
          "internalType": "uint256",
          "name": "",
          "type": "uint256"
        }
      ],
      "stateMutability": "view",
      "type": "function"
    },
    {
      "inputs": [],
      "name": "totalStakers",
      "outputs": [
        {
          "internalType": "uint256",
          "name": "",
          "type": "uint256"
        }
      ],
      "stateMutability": "view",
      "type": "function"
    },
    {
      "inputs": [
        {
          "internalType": "address",
          "name": "newAdmin",
          "type": "address"
        }
      ],
      "name": "transferAdmin",
      "outputs": [],
      "stateMutability": "nonpayable",
      "type": "function"
    },
    {
      "inputs": [
        {
          "internalType": "address",
          "name": "",
          "type": "address"
        }
      ],
      "name": "userStaked",
      "outputs": [
        {
          "internalType": "uint256",
          "name": "amount",
          "type": "uint256"
        },
        {
          "internalType": "uint256",
          "name": "claimedBlock",
          "type": "uint256"
        },
        {
          "internalType": "uint256",
          "name": "claimedAmount",
          "type": "uint256"
        },
        {
          "internalType": "uint256",
          "name": "releasedBlock",
          "type": "uint256"
        },
        {
          "internalType": "uint256",
          "name": "releasedAmount",
          "type": "uint256"
        },
        {
          "internalType": "uint256",
          "name": "releasedTOSAmount",
          "type": "uint256"
        },
        {
          "internalType": "bool",
          "name": "released",
          "type": "bool"
        }
      ],
      "stateMutability": "view",
      "type": "function"
    },
    {
      "inputs": [],
      "name": "vault",
      "outputs": [
        {
          "internalType": "address",
          "name": "",
          "type": "address"
        }
      ],
      "stateMutability": "view",
      "type": "function"
    },
    {
      "inputs": [],
      "name": "withdraw",
      "outputs": [],
      "stateMutability": "nonpayable",
      "type": "function"
    },
    {
      "stateMutability": "payable",
      "type": "receive"
    }
  ],
  "bytecode": "0x608060405234801561001057600080fd5b50612459806100206000396000f3fe6080604052600436106101d35760003560e01c806375829def116100f8578063a694fc3a11610090578063a694fc3a146105ff578063acc3a9391461061c578063b2d4d6a314610689578063ca15c8731461069e578063d5391393146106c8578063d547741f146106dd578063dac3fc3f14610716578063fbfa77cf14610749578063fc0c546a1461075e576101e3565b806375829def1461047f57806375b238fc146104b257806386989038146104c75780639010d07c146104dc57806391d148541461050c5780639a88be2f146105455780639d84ca35146105c0578063a1f5f50e146105d5578063a217fddf146105ea576101e3565b806341c04d5e1161016b57806341c04d5e1461036457806343b0934a1461037957806348cd4cb1146103aa5780634e71d92d146103bf578063567e98f9146103d457806363a8fd89146103e957806367cf3e18146103fe5780636830483514610437578063704802751461044c576101e3565b8063083c6323146101e85780631785f53c1461020f5780632002727514610242578063248a9ca31461025757806324d7806c14610281578063282c51f3146102c85780632f2ff15d146102dd57806336568abe146103165780633ccfd60b1461034f576101e3565b366101e3576101e134610773565b005b600080fd5b3480156101f457600080fd5b506101fd610a78565b60408051918252519081900360200190f35b34801561021b57600080fd5b506101e16004803603602081101561023257600080fd5b50356001600160a01b0316610a7e565b34801561024e57600080fd5b506101fd610add565b34801561026357600080fd5b506101fd6004803603602081101561027a57600080fd5b5035610ae3565b34801561028d57600080fd5b506102b4600480360360208110156102a457600080fd5b50356001600160a01b0316610af8565b604080519115158252519081900360200190f35b3480156102d457600080fd5b506101fd610b18565b3480156102e957600080fd5b506101e16004803603604081101561030057600080fd5b50803590602001356001600160a01b0316610b3c565b34801561032257600080fd5b506101e16004803603604081101561033957600080fd5b50803590602001356001600160a01b0316610ba8565b34801561035b57600080fd5b506101e1610c09565b34801561037057600080fd5b506101fd610e9d565b34801561038557600080fd5b5061038e610ec1565b604080516001600160a01b039092168252519081900360200190f35b3480156103b657600080fd5b506101fd610ed0565b3480156103cb57600080fd5b506101e1610ed6565b3480156103e057600080fd5b506101fd611291565b3480156103f557600080fd5b506102b4611297565b34801561040a57600080fd5b506101fd6004803603604081101561042157600080fd5b506001600160a01b0381351690602001356112a0565b34801561044357600080fd5b5061038e611674565b34801561045857600080fd5b506101e16004803603602081101561046f57600080fd5b50356001600160a01b0316611683565b34801561048b57600080fd5b506101e1600480360360208110156104a257600080fd5b50356001600160a01b03166116df565b3480156104be57600080fd5b506101fd611800565b3480156104d357600080fd5b506101fd611812565b3480156104e857600080fd5b5061038e600480360360408110156104ff57600080fd5b5080359060200135611818565b34801561051857600080fd5b506102b46004803603604081101561052f57600080fd5b50803590602001356001600160a01b0316611830565b34801561055157600080fd5b5061055a611848565b604080516001600160a01b0380891682528716602082015290810185606080838360005b8381101561059657818101518382015260200161057e565b50505050905001848152602001838152602001828152602001965050505050505060405180910390f35b3480156105cc57600080fd5b5061038e61189e565b3480156105e157600080fd5b506102b46118b2565b3480156105f657600080fd5b506101fd6118c2565b6101e16004803603602081101561061557600080fd5b5035610773565b34801561062857600080fd5b5061064f6004803603602081101561063f57600080fd5b50356001600160a01b03166118c7565b604080519788526020880196909652868601949094526060860192909252608085015260a0840152151560c0830152519081900360e00190f35b34801561069557600080fd5b506101fd611907565b3480156106aa57600080fd5b506101fd600480360360208110156106c157600080fd5b503561190d565b3480156106d457600080fd5b506101fd611924565b3480156106e957600080fd5b506101e16004803603604081101561070057600080fd5b50803590602001356001600160a01b0316611948565b34801561072257600080fd5b5061064f6004803603602081101561073957600080fd5b50356001600160a01b03166119a1565b34801561075557600080fd5b5061038e6119ea565b34801561076a57600080fd5b5061038e6119f9565b6002546001600160a01b031615801561078b57508034145b806107ab57506002546001600160a01b0316158015906107ab5750600081115b6107f6576040805162461bcd60e51b81526020600482015260176024820152765374616b6553696d706c653a207374616b65207a65726f60481b604482015290519081900360640190fd5b6004544310158015610809575060055443105b6108445760405162461bcd60e51b81526004018080602001828103825260228152602001806123466022913960400191505060405180910390fd5b600360009054906101000a90046001600160a01b03166001600160a01b031663b8c766b86040518163ffffffff1660e01b815260040160206040518083038186803b15801561089257600080fd5b505afa1580156108a6573d6000803e3d6000fd5b505050506040513d60208110156108bc57600080fd5b505115610907576040805162461bcd60e51b815260206004820152601460248201527314dd185ad954da5b5c1b194e881b9bdd08195b9960621b604482015290519081900360640190fd5b6002546001600160a01b031661091e5750346109d0565b600254604080516370a0823160e01b8152336004820152905183926001600160a01b0316916370a08231916024808301926020929190829003018186803b15801561096857600080fd5b505afa15801561097c573d6000803e3d6000fd5b505050506040513d602081101561099257600080fd5b505110156109d0576040805162461bcd60e51b815260206004808301919091526024820152636c61636b60e01b604482015290519081900360640190fd5b33600090815260096020526040902080546109f757600a546109f3906001611a08565b600a555b8054610a039083611a08565b8155600854610a129083611a08565b6008556002546001600160a01b031615610a3e57600254610a3e906001600160a01b0316333085611a62565b60408051838152905133917f9e71bc8eea02a63969f509818f2dafb9254532904319f9dbda79b67bd34a5f3d919081900360200190a25050565b60065481565b610a8733610af8565b610ac25760405162461bcd60e51b81526004018080602001828103825260228152602001806122ad6022913960400191505060405180910390fd5b610ada60008051602061236883398151915282610ba8565b50565b60045481565b6000908152600d602052604090206002015490565b6000610b1260008051602061236883398151915283611830565b92915050565b7f9667e80708b6eeeb0053fa0cca44e028ff548e2a9f029edfeac87c118b08b7c881565b6000828152600d6020526040902060020154610b5f90610b5a611ac2565b611830565b610b9a5760405162461bcd60e51b815260040180806020018281038252602f81526020018061227e602f913960400191505060405180910390fd5b610ba48282611ac6565b5050565b610bb0611ac2565b6001600160a01b0316816001600160a01b031614610bff5760405162461bcd60e51b815260040180806020018281038252602f8152602001806123f5602f913960400191505060405180910390fd5b610ba48282611b2f565b6000600654118015610c1c575043600654105b610c64576040805162461bcd60e51b815260206004820152601460248201527314dd185ad954da5b5c1b194e881b9bdd08195b9960621b604482015290519081900360640190fd5b336000908152600960205260409020600681015460ff1615610ccd576040805162461bcd60e51b815260206004820152601d60248201527f5374616b6553696d706c653a20416c7265616479207769746864726177000000604482015290519081900360640190fd5b805460048201541115610d23576040805162461bcd60e51b81526020600482015260196024820152785374616b6553696d706c653a20416d6f756e742077726f6e6760381b604482015290519081900360640190fd5b60068101805460ff191660011790554360038201558054600482018190556002546001600160a01b0316610e4c57308031821115610da8576040805162461bcd60e51b815260206004820152601b60248201527f5374616b6553696d706c653a20696e7375666669656e74204554480000000000604482015290519081900360640190fd5b604051600090339084908381818185875af1925050503d8060008114610dea576040519150601f19603f3d011682016040523d82523d6000602084013e610def565b606091505b5050905080610e45576040805162461bcd60e51b815260206004820152601d60248201527f5374616b6553696d706c653a207769746864726177206661696c65642e000000604482015290519081900360640190fd5b5050610e63565b600254610e63906001600160a01b03163383611b98565b60408051828152905133917f7fcf532c15f0a6db0bd6d0e038bea71d30d808c7d98cb3bf7268a95bf5081b65919081900360200190a25050565b7f52eafc11f6f81f86878bffd31109a0d92f37506527754f00788853ff9f63b13081565b6002546001600160a01b031681565b60055481565b600b5415610f21576040805162461bcd60e51b815260206004820152601360248201527214dd185ad954da5b5c1b194e881313d0d2d151606a1b604482015290519081900360640190fd5b6001600b5560035460408051631718ecd760e31b815290516001600160a01b039092169163b8c766b891600480820192602092909190829003018186803b158015610f6b57600080fd5b505afa158015610f7f573d6000803e3d6000fd5b505050506040513d6020811015610f9557600080fd5b5051610fe2576040805162461bcd60e51b815260206004820152601760248201527614dd185ad954da5b5c1b194e881b9bdd0818db1bdcd959604a1b604482015290519081900360640190fd5b336000908152600960205260408120600654600182015410611042576040805162461bcd60e51b815260206004820152601460248201527314dd185ad954da5b5c1b194e8818db185a5b595960621b604482015290519081900360640190fd5b61104c33436112a0565b9150600082116110a3576040805162461bcd60e51b815260206004820152601b60248201527f5374616b6553696d706c653a20726577617264206973207a65726f0000000000604482015290519081900360640190fd5b6003546040805163032f7adb60e61b815230600482015290516000926001600160a01b03169163cbdeb6c0916024808301926020929190829003018186803b1580156110ee57600080fd5b505afa158015611102573d6000803e3d6000fd5b505050506040513d602081101561111857600080fd5b5051600754909150819061112c9085611a08565b11156111695760405162461bcd60e51b81526004018080602001828103825260218152602001806123aa6021913960400191505060405180910390fd5b436001830155600282015461117e9084611a08565b60028301556007546111909084611a08565b60075560035460408051635569f64b60e11b81523360048201526024810186905290516001600160a01b039092169163aad3ec96916044808201926020929091908290030181600087803b1580156111e757600080fd5b505af11580156111fb573d6000803e3d6000fd5b505050506040513d602081101561121157600080fd5b505161124e5760405162461bcd60e51b81526004018080602001828103825260228152602001806123886022913960400191505060405180910390fd5b60408051848152436020820152815133927f987d620f307ff6b94d58743cb7a7509f24071586a77759b77c2d4e29f75a2f9a928290030190a250506000600b5550565b60085481565b600c5460ff1681565b60065460009081908311156112b55760065492505b6005548310806112db57506001600160a01b038416600090815260096020526040902054155b8061130257506006546001600160a01b038516600090815260096020526040902060010154115b8061132757506001600160a01b03841660009081526009602052604090206001015483105b156113345750600061166d565b6005546006546001600160a01b03861660009081526009602052604090206001015482101561137c576001600160a01b03861660009081526009602052604090206001015491505b808510156113875750835b6003546040805163c1b422fd60e01b815290516000926001600160a01b03169163c1b422fd9160048083019286929190829003018186803b1580156113cb57600080fd5b505afa1580156113df573d6000803e3d6000fd5b505050506040513d6000823e601f3d908101601f19168201604052602081101561140857600080fd5b810190808051604051939291908464010000000082111561142857600080fd5b90830190602082018581111561143d57600080fd5b825186602082028301116401000000008211171561145a57600080fd5b82525081516020918201928201910280838360005b8381101561148757818101518382015260200161146f565b505050509050016040525050509050600081511115611669576003546040805163d105bf8560e01b815290516000928692849283926001600160a01b03169163d105bf85916004808301926020929190829003018186803b1580156114eb57600080fd5b505afa1580156114ff573d6000803e3d6000fd5b505050506040513d602081101561151557600080fd5b50516001600160a01b038c166000908152600960205260408120549192508c91905b87518110156116615787818151811061154c57fe5b60209081029190910181015160035460408051632f8deb1560e11b8152600481018490529051929a506001600160a01b0390911692635f1bd62a92602480840193829003018186803b1580156115a157600080fd5b505afa1580156115b5573d6000803e3d6000fd5b505050506040513d60208110156115cb57600080fd5b50519450868611156115dc57611659565b8689116116285784156116235760006115f58a8c611bef565b905061161f611618876116128661160c8a87611c31565b90611c31565b90611c8a565b8d90611a08565b9b50505b611661565b841561165557600061163a888c611bef565b9050611651611618876116128661160c8a87611c31565b9b50505b8699505b600101611537565b505050505050505b5050505b9392505050565b6001546001600160a01b031681565b61168c33610af8565b6116c75760405162461bcd60e51b81526004018080602001828103825260228152602001806122ad6022913960400191505060405180910390fd5b610ada60008051602061236883398151915282610b3c565b6116e833610af8565b6117235760405162461bcd60e51b81526004018080602001828103825260228152602001806122ad6022913960400191505060405180910390fd5b6001600160a01b038116611779576040805162461bcd60e51b815260206004820152601860248201527741636365737369626c653a207a65726f206164647265737360401b604482015290519081900360640190fd5b336001600160a01b03821614156117d0576040805162461bcd60e51b815260206004820152601660248201527520b1b1b2b9b9b4b136329d1039b0b6b29030b236b4b760511b604482015290519081900360640190fd5b6117e860008051602061236883398151915282610b3c565b610ada60008051602061236883398151915233610ba8565b60008051602061236883398151915281565b600a5481565b6000828152600d6020526040812061166d9083611ccc565b6000828152600d6020526040812061166d9083611cd8565b60008061185361223d565b5050600254600354604080516060810182526004548152600554602082015260065491810191909152600754600854600a546001600160a01b03958616979590941695509193909290565b600c5461010090046001600160a01b031681565b600c54600160a81b900460ff1681565b600081565b6009602052600090815260409020805460018201546002830154600384015460048501546005860154600690960154949593949293919290919060ff1687565b60075481565b6000818152600d60205260408120610b1290611ced565b7ff0887ba65ee2024ea881d91b74c2450ef19e1557f03bed3ea9f16b037cbe2dc981565b6000828152600d602052604090206002015461196690610b5a611ac2565b610bff5760405162461bcd60e51b81526004018080602001828103825260308152602001806122f56030913960400191505060405180910390fd5b6001600160a01b03166000908152600960205260409020805460018201546002830154600384015460048501546005860154600690960154949693959294919390929160ff1690565b6003546001600160a01b031681565b6000546001600160a01b031681565b60008282018381101561166d576040805162461bcd60e51b815260206004820152601b60248201527f536166654d6174683a206164646974696f6e206f766572666c6f770000000000604482015290519081900360640190fd5b604080516001600160a01b0380861660248301528416604482015260648082018490528251808303909101815260849091019091526020810180516001600160e01b03166323b872dd60e01b179052611abc908590611cf8565b50505050565b3390565b6000828152600d60205260409020611ade9082611da9565b15610ba457611aeb611ac2565b6001600160a01b0316816001600160a01b0316837f2f8788117e7eff1d82e926ec794901d17c78024a50270940304540a733656f0d60405160405180910390a45050565b6000828152600d60205260409020611b479082611dbe565b15610ba457611b54611ac2565b6001600160a01b0316816001600160a01b0316837ff6391f5c32d9c69d2a47ea670b442974b53935d1edc7fd64eb21e047a839171b60405160405180910390a45050565b604080516001600160a01b038416602482015260448082018490528251808303909101815260649091019091526020810180516001600160e01b031663a9059cbb60e01b179052611bea908490611cf8565b505050565b600061166d83836040518060400160405280601e81526020017f536166654d6174683a207375627472616374696f6e206f766572666c6f770000815250611dd3565b600082611c4057506000610b12565b82820282848281611c4d57fe5b041461166d5760405162461bcd60e51b81526004018080602001828103825260218152602001806123256021913960400191505060405180910390fd5b600061166d83836040518060400160405280601a81526020017f536166654d6174683a206469766973696f6e206279207a65726f000000000000815250611e6a565b600061166d8383611ecf565b600061166d836001600160a01b038416611f33565b6000610b1282611f4b565b6000611d4d826040518060400160405280602081526020017f5361666545524332303a206c6f772d6c6576656c2063616c6c206661696c6564815250856001600160a01b0316611f4f9092919063ffffffff16565b805190915015611bea57808060200190516020811015611d6c57600080fd5b5051611bea5760405162461bcd60e51b815260040180806020018281038252602a8152602001806123cb602a913960400191505060405180910390fd5b600061166d836001600160a01b038416611f66565b600061166d836001600160a01b038416611fb0565b60008184841115611e625760405162461bcd60e51b81526004018080602001828103825283818151815260200191508051906020019080838360005b83811015611e27578181015183820152602001611e0f565b50505050905090810190601f168015611e545780820380516001836020036101000a031916815260200191505b509250505060405180910390fd5b505050900390565b60008183611eb95760405162461bcd60e51b8152602060048201818152835160248401528351909283926044909101919085019080838360008315611e27578181015183820152602001611e0f565b506000838581611ec557fe5b0495945050505050565b81546000908210611f115760405162461bcd60e51b815260040180806020018281038252602281526020018061225c6022913960400191505060405180910390fd5b826000018281548110611f2057fe5b9060005260206000200154905092915050565b60009081526001919091016020526040902054151590565b5490565b6060611f5e8484600085612076565b949350505050565b6000611f728383611f33565b611fa857508154600181810184556000848152602080822090930184905584548482528286019093526040902091909155610b12565b506000610b12565b6000818152600183016020526040812054801561206c5783546000198083019190810190600090879083908110611fe357fe5b906000526020600020015490508087600001848154811061200057fe5b60009182526020808320909101929092558281526001898101909252604090209084019055865487908061203057fe5b60019003818190600052602060002001600090559055866001016000878152602001908152602001600020600090556001945050505050610b12565b6000915050610b12565b6060824710156120b75760405162461bcd60e51b81526004018080602001828103825260268152602001806122cf6026913960400191505060405180910390fd5b6120c0856121d1565b612111576040805162461bcd60e51b815260206004820152601d60248201527f416464726573733a2063616c6c20746f206e6f6e2d636f6e7472616374000000604482015290519081900360640190fd5b600080866001600160a01b031685876040518082805190602001908083835b6020831061214f5780518252601f199092019160209182019101612130565b6001836020036101000a03801982511681845116808217855250505050505090500191505060006040518083038185875af1925050503d80600081146121b1576040519150601f19603f3d011682016040523d82523d6000602084013e6121b6565b606091505b50915091506121c68282866121d7565b979650505050505050565b3b151590565b606083156121e657508161166d565b8251156121f65782518084602001fd5b60405162461bcd60e51b8152602060048201818152845160248401528451859391928392604401919085019080838360008315611e27578181015183820152602001611e0f565b6040518060600160405280600390602082028036833750919291505056fe456e756d657261626c655365743a20696e646578206f7574206f6620626f756e6473416363657373436f6e74726f6c3a2073656e646572206d75737420626520616e2061646d696e20746f206772616e7441636365737369626c653a2043616c6c6572206973206e6f7420616e2061646d696e416464726573733a20696e73756666696369656e742062616c616e636520666f722063616c6c416363657373436f6e74726f6c3a2073656e646572206d75737420626520616e2061646d696e20746f207265766f6b65536166654d6174683a206d756c7469706c69636174696f6e206f766572666c6f775374616b6553696d706c653a20706572696f64206973206e6f7420616c6c6f776564df8b4c520ffe197c5343c6f5aec59570151ef9a492f2c624fd45ddde6135ec425374616b6553696d706c653a206661696c20636c61696d2066726f6d207661756c745374616b6553696d706c653a20746f74616c2072657761726420657863656564735361666545524332303a204552433230206f7065726174696f6e20646964206e6f742073756363656564416363657373436f6e74726f6c3a2063616e206f6e6c792072656e6f756e636520726f6c657320666f722073656c66a26469706673582212203b28842c1797fd34e0d4ef53a250f8cf5012a37aed78623ec07d063c2ea4201364736f6c63430007060033",
  "linkReferences": {},
  "deployedLinkReferences": {}
}