{
  "_format": "hh-sol-artifact-1",
  "contractName": "Stake3Logic",
  "sourceName": "contracts/stake/Stake3Logic.sol",
  "abi": [
    {
      "inputs": [],
      "stateMutability": "nonpayable",
      "type": "constructor"
    },
    {
      "anonymous": false,
      "inputs": [
        {
          "indexed": true,
          "internalType": "address",
          "name": "vault",
          "type": "address"
        },
        {
          "indexed": false,
          "internalType": "address",
          "name": "paytoken",
          "type": "address"
        },
        {
          "indexed": false,
          "internalType": "uint256",
          "name": "cap",
          "type": "uint256"
        }
      ],
      "name": "CreatedVault",
      "type": "event"
    },
    {
      "anonymous": false,
      "inputs": [
        {
          "indexed": true,
          "internalType": "bytes32",
          "name": "role",
          "type": "bytes32"
        },
        {
          "indexed": true,
          "internalType": "bytes32",
          "name": "previousAdminRole",
          "type": "bytes32"
        },
        {
          "indexed": true,
          "internalType": "bytes32",
          "name": "newAdminRole",
          "type": "bytes32"
        }
      ],
      "name": "RoleAdminChanged",
      "type": "event"
    },
    {
      "anonymous": false,
      "inputs": [
        {
          "indexed": true,
          "internalType": "bytes32",
          "name": "role",
          "type": "bytes32"
        },
        {
          "indexed": true,
          "internalType": "address",
          "name": "account",
          "type": "address"
        },
        {
          "indexed": true,
          "internalType": "address",
          "name": "sender",
          "type": "address"
        }
      ],
      "name": "RoleGranted",
      "type": "event"
    },
    {
      "anonymous": false,
      "inputs": [
        {
          "indexed": true,
          "internalType": "bytes32",
          "name": "role",
          "type": "bytes32"
        },
        {
          "indexed": true,
          "internalType": "address",
          "name": "account",
          "type": "address"
        },
        {
          "indexed": true,
          "internalType": "address",
          "name": "sender",
          "type": "address"
        }
      ],
      "name": "RoleRevoked",
      "type": "event"
    },
    {
      "inputs": [],
      "name": "ADMIN_ROLE",
      "outputs": [
        {
          "internalType": "bytes32",
          "name": "",
          "type": "bytes32"
        }
      ],
      "stateMutability": "view",
      "type": "function"
    },
    {
      "inputs": [],
      "name": "BURNER_ROLE",
      "outputs": [
        {
          "internalType": "bytes32",
          "name": "",
          "type": "bytes32"
        }
      ],
      "stateMutability": "view",
      "type": "function"
    },
    {
      "inputs": [],
      "name": "DEFAULT_ADMIN_ROLE",
      "outputs": [
        {
          "internalType": "bytes32",
          "name": "",
          "type": "bytes32"
        }
      ],
      "stateMutability": "view",
      "type": "function"
    },
    {
      "inputs": [],
      "name": "MINTER_ROLE",
      "outputs": [
        {
          "internalType": "bytes32",
          "name": "",
          "type": "bytes32"
        }
      ],
      "stateMutability": "view",
      "type": "function"
    },
    {
      "inputs": [],
      "name": "PROJECT_ADMIN_ROLE",
      "outputs": [
        {
          "internalType": "bytes32",
          "name": "",
          "type": "bytes32"
        }
      ],
      "stateMutability": "view",
      "type": "function"
    },
    {
      "inputs": [
        {
          "internalType": "address",
          "name": "account",
          "type": "address"
        }
      ],
      "name": "addAdmin",
      "outputs": [],
      "stateMutability": "nonpayable",
      "type": "function"
    },
    {
      "inputs": [
        {
          "internalType": "address",
          "name": "",
          "type": "address"
        }
      ],
      "name": "aliveImplementation",
      "outputs": [
        {
          "internalType": "bool",
          "name": "",
          "type": "bool"
        }
      ],
      "stateMutability": "view",
      "type": "function"
    },
    {
      "inputs": [
        {
          "internalType": "address",
          "name": "_paytoken",
          "type": "address"
        },
        {
          "internalType": "uint256",
          "name": "_cap",
          "type": "uint256"
        },
        {
          "internalType": "uint256",
          "name": "_saleStartBlock",
          "type": "uint256"
        },
        {
          "internalType": "uint256",
          "name": "_stakeStartBlock",
          "type": "uint256"
        },
        {
          "internalType": "uint256",
          "name": "_phase",
          "type": "uint256"
        },
        {
          "internalType": "bytes32",
          "name": "_vaultName",
          "type": "bytes32"
        },
        {
          "internalType": "uint256",
          "name": "_stakeType",
          "type": "uint256"
        },
        {
          "internalType": "address",
          "name": "_defiAddr",
          "type": "address"
        },
        {
          "internalType": "uint256",
          "name": "_logicIndexInVaultFactory",
          "type": "uint256"
        }
      ],
      "name": "createdVaultWithLogicIndex",
      "outputs": [],
      "stateMutability": "nonpayable",
      "type": "function"
    },
    {
      "inputs": [],
      "name": "depositManager",
      "outputs": [
        {
          "internalType": "address",
          "name": "",
          "type": "address"
        }
      ],
      "stateMutability": "view",
      "type": "function"
    },
    {
      "inputs": [
        {
          "internalType": "bytes32",
          "name": "role",
          "type": "bytes32"
        }
      ],
      "name": "getRoleAdmin",
      "outputs": [
        {
          "internalType": "bytes32",
          "name": "",
          "type": "bytes32"
        }
      ],
      "stateMutability": "view",
      "type": "function"
    },
    {
      "inputs": [
        {
          "internalType": "bytes32",
          "name": "role",
          "type": "bytes32"
        },
        {
          "internalType": "uint256",
          "name": "index",
          "type": "uint256"
        }
      ],
      "name": "getRoleMember",
      "outputs": [
        {
          "internalType": "address",
          "name": "",
          "type": "address"
        }
      ],
      "stateMutability": "view",
      "type": "function"
    },
    {
      "inputs": [
        {
          "internalType": "bytes32",
          "name": "role",
          "type": "bytes32"
        }
      ],
      "name": "getRoleMemberCount",
      "outputs": [
        {
          "internalType": "uint256",
          "name": "",
          "type": "uint256"
        }
      ],
      "stateMutability": "view",
      "type": "function"
    },
    {
      "inputs": [
        {
          "internalType": "bytes32",
          "name": "role",
          "type": "bytes32"
        },
        {
          "internalType": "address",
          "name": "account",
          "type": "address"
        }
      ],
      "name": "grantRole",
      "outputs": [],
      "stateMutability": "nonpayable",
      "type": "function"
    },
    {
      "inputs": [
        {
          "internalType": "bytes32",
          "name": "role",
          "type": "bytes32"
        },
        {
          "internalType": "address",
          "name": "account",
          "type": "address"
        }
      ],
      "name": "hasRole",
      "outputs": [
        {
          "internalType": "bool",
          "name": "",
          "type": "bool"
        }
      ],
      "stateMutability": "view",
      "type": "function"
    },
    {
      "inputs": [
        {
          "internalType": "address",
          "name": "account",
          "type": "address"
        }
      ],
      "name": "isAdmin",
      "outputs": [
        {
          "internalType": "bool",
          "name": "",
          "type": "bool"
        }
      ],
      "stateMutability": "view",
      "type": "function"
    },
    {
      "inputs": [],
      "name": "pauseProxy",
      "outputs": [
        {
          "internalType": "bool",
          "name": "",
          "type": "bool"
        }
      ],
      "stateMutability": "view",
      "type": "function"
    },
    {
      "inputs": [
        {
          "internalType": "uint256",
          "name": "",
          "type": "uint256"
        }
      ],
      "name": "proxyImplementation",
      "outputs": [
        {
          "internalType": "address",
          "name": "",
          "type": "address"
        }
      ],
      "stateMutability": "view",
      "type": "function"
    },
    {
      "inputs": [
        {
          "internalType": "address",
          "name": "account",
          "type": "address"
        }
      ],
      "name": "removeAdmin",
      "outputs": [],
      "stateMutability": "nonpayable",
      "type": "function"
    },
    {
      "inputs": [
        {
          "internalType": "bytes32",
          "name": "role",
          "type": "bytes32"
        },
        {
          "internalType": "address",
          "name": "account",
          "type": "address"
        }
      ],
      "name": "renounceRole",
      "outputs": [],
      "stateMutability": "nonpayable",
      "type": "function"
    },
    {
      "inputs": [
        {
          "internalType": "bytes32",
          "name": "role",
          "type": "bytes32"
        },
        {
          "internalType": "address",
          "name": "account",
          "type": "address"
        }
      ],
      "name": "revokeRole",
      "outputs": [],
      "stateMutability": "nonpayable",
      "type": "function"
    },
    {
      "inputs": [],
      "name": "seigManager",
      "outputs": [
        {
          "internalType": "address",
          "name": "",
          "type": "address"
        }
      ],
      "stateMutability": "view",
      "type": "function"
    },
    {
      "inputs": [
        {
          "internalType": "bytes4",
          "name": "",
          "type": "bytes4"
        }
      ],
      "name": "selectorImplementation",
      "outputs": [
        {
          "internalType": "address",
          "name": "",
          "type": "address"
        }
      ],
      "stateMutability": "view",
      "type": "function"
    },
    {
      "inputs": [],
      "name": "stakeFactory",
      "outputs": [
        {
          "internalType": "contract IStakeFactory",
          "name": "",
          "type": "address"
        }
      ],
      "stateMutability": "view",
      "type": "function"
    },
    {
      "inputs": [],
      "name": "stakeRegistry",
      "outputs": [
        {
          "internalType": "contract IStakeRegistry",
          "name": "",
          "type": "address"
        }
      ],
      "stateMutability": "view",
      "type": "function"
    },
    {
      "inputs": [],
      "name": "stakeVaultFactory",
      "outputs": [
        {
          "internalType": "contract IStakeVaultFactory",
          "name": "",
          "type": "address"
        }
      ],
      "stateMutability": "view",
      "type": "function"
    },
    {
      "inputs": [],
      "name": "ton",
      "outputs": [
        {
          "internalType": "address",
          "name": "",
          "type": "address"
        }
      ],
      "stateMutability": "view",
      "type": "function"
    },
    {
      "inputs": [],
      "name": "tos",
      "outputs": [
        {
          "internalType": "address",
          "name": "",
          "type": "address"
        }
      ],
      "stateMutability": "view",
      "type": "function"
    },
    {
      "inputs": [
        {
          "internalType": "address",
          "name": "newAdmin",
          "type": "address"
        }
      ],
      "name": "transferAdmin",
      "outputs": [],
      "stateMutability": "nonpayable",
      "type": "function"
    },
    {
      "inputs": [],
      "name": "wton",
      "outputs": [
        {
          "internalType": "address",
          "name": "",
          "type": "address"
        }
      ],
      "stateMutability": "view",
      "type": "function"
    }
  ],
  "bytecode": "0x608060405234801561001057600080fd5b506110e2806100206000396000f3fe608060405234801561001057600080fd5b506004361061018f5760003560e01c806370480275116100e457806391d148541161009257806391d1485414610401578063a217fddf1461042d578063b911135f14610435578063ca15c87314610452578063cc48b9471461046f578063d539139314610477578063d547741f1461047f578063dd196f18146104ab5761018f565b8063704802751461031e57806375829def1461034457806375b238fc1461036a5780637fa383b61461037257806389f395de146103ce5780638d62d949146103d65780639010d07c146103de5761018f565b806350d2a2761161014157806350d2a2761461028d578063550d01a3146102d057806363a8fd89146102f657806368304835146102fe5780636af8da27146103065780636c7ac9d81461030e5780636fb7f558146103165761018f565b80631785f53c14610194578063248a9ca3146101bc57806324d7806c146101eb578063282c51f3146102255780632f2ff15d1461022d57806336568abe1461025957806341c04d5e14610285575b600080fd5b6101ba600480360360208110156101aa57600080fd5b50356001600160a01b03166104b3565b005b6101d9600480360360208110156101d257600080fd5b5035610512565b60408051918252519081900360200190f35b6102116004803603602081101561020157600080fd5b50356001600160a01b0316610527565b604080519115158252519081900360200190f35b6101d9610547565b6101ba6004803603604081101561024357600080fd5b50803590602001356001600160a01b031661056b565b6101ba6004803603604081101561026f57600080fd5b50803590602001356001600160a01b03166105d7565b6101d9610638565b6102b4600480360360208110156102a357600080fd5b50356001600160e01b03191661065c565b604080516001600160a01b039092168252519081900360200190f35b610211600480360360208110156102e657600080fd5b50356001600160a01b0316610677565b61021161068c565b6102b461069c565b6102b46106ab565b6102b46106ba565b6102b46106c9565b6101ba6004803603602081101561033457600080fd5b50356001600160a01b03166106d8565b6101ba6004803603602081101561035a57600080fd5b50356001600160a01b0316610734565b6101d9610855565b6101ba600480360361012081101561038957600080fd5b506001600160a01b03813581169160208101359160408201359160608101359160808201359160a08101359160c08201359160e0810135909116906101000135610867565b6102b4610bd7565b6102b4610be6565b6102b4600480360360408110156103f457600080fd5b5080359060200135610bf5565b6102116004803603604081101561041757600080fd5b50803590602001356001600160a01b0316610c14565b6101d9610c2c565b6102b46004803603602081101561044b57600080fd5b5035610c31565b6101d96004803603602081101561046857600080fd5b5035610c4c565b6102b4610c63565b6101d9610c72565b6101ba6004803603604081101561049557600080fd5b50803590602001356001600160a01b0316610c96565b6102b4610cef565b6104bc33610527565b6104f75760405162461bcd60e51b815260040180806020018281038252602281526020018061100c6022913960400191505060405180910390fd5b61050f60008051602061105e833981519152826105d7565b50565b6000908152600b602052604090206002015490565b600061054160008051602061105e83398151915283610c14565b92915050565b7f9667e80708b6eeeb0053fa0cca44e028ff548e2a9f029edfeac87c118b08b7c881565b6000828152600b602052604090206002015461058e90610589610cfe565b610c14565b6105c95760405162461bcd60e51b815260040180806020018281038252602f815260200180610fdd602f913960400191505060405180910390fd5b6105d38282610d02565b5050565b6105df610cfe565b6001600160a01b0316816001600160a01b03161461062e5760405162461bcd60e51b815260040180806020018281038252602f81526020018061107e602f913960400191505060405180910390fd5b6105d38282610d6b565b7f52eafc11f6f81f86878bffd31109a0d92f37506527754f00788853ff9f63b13081565b600a602052600090815260409020546001600160a01b031681565b60096020526000908152604090205460ff1681565b600754600160a01b900460ff1681565b6000546001600160a01b031681565b6002546001600160a01b031681565b6006546001600160a01b031681565b6007546001600160a01b031681565b6106e133610527565b61071c5760405162461bcd60e51b815260040180806020018281038252602281526020018061100c6022913960400191505060405180910390fd5b61050f60008051602061105e8339815191528261056b565b61073d33610527565b6107785760405162461bcd60e51b815260040180806020018281038252602281526020018061100c6022913960400191505060405180910390fd5b6001600160a01b0381166107ce576040805162461bcd60e51b815260206004820152601860248201527741636365737369626c653a207a65726f206164647265737360401b604482015290519081900360640190fd5b336001600160a01b0382161415610825576040805162461bcd60e51b815260206004820152601660248201527520b1b1b2b9b9b4b136329d1039b0b6b29030b236b4b760511b604482015290519081900360640190fd5b61083d60008051602061105e8339815191528261056b565b61050f60008051602061105e833981519152336105d7565b60008051602061105e83398151915281565b61087033610527565b6108ab5760405162461bcd60e51b815260040180806020018281038252602281526020018061100c6022913960400191505060405180910390fd5b6002546001600160a01b031680610904576040805162461bcd60e51b81526020600482015260186024820152775374616b65334c6f6769633a7a65726f206164647265737360401b604482015290519081900360640190fd5b6000600260009054906101000a90046001600160a01b03166001600160a01b0316634b0ca20e846040518060800160405280600360009054906101000a90046001600160a01b03166001600160a01b03166001600160a01b031681526020018f6001600160a01b03166001600160a01b03168152602001600160009054906101000a90046001600160a01b03166001600160a01b03166001600160a01b03168152602001886001600160a01b03166001600160a01b031681525060405180608001604052808a81526020018f81526020018e81526020018d815250306040518563ffffffff1660e01b81526004018085815260200184600460200280838360005b83811015610a1d578181015183820152602001610a05565b5050505090500183600460200280838360005b83811015610a48578181015183820152602001610a30565b50505050905001826001600160a01b03168152602001945050505050602060405180830381600087803b158015610a7e57600080fd5b505af1158015610a92573d6000803e3d6000fd5b505050506040513d6020811015610aa857600080fd5b505190506001600160a01b038116610b07576040805162461bcd60e51b815260206004820152601a60248201527f5374616b65334c6f6769633a207661756c74206973207a65726f000000000000604482015290519081900360640190fd5b60008054604080516377e4fba360e11b81526001600160a01b038581166004830152602482018c9052604482018b90529151919092169263efc9f746926064808201939182900301818387803b158015610b6057600080fd5b505af1158015610b74573d6000803e3d6000fd5b50505050806001600160a01b03167f9e0e84720f13c322e117ed1e67a8c53d21ec4b3b7c35c1dd1728dc7cab64f0968c8c60405180836001600160a01b031681526020018281526020019250505060405180910390a25050505050505050505050565b6003546001600160a01b031681565b6005546001600160a01b031681565b6000828152600b60205260408120610c0d9083610dd4565b9392505050565b6000828152600b60205260408120610c0d9083610de0565b600081565b6008602052600090815260409020546001600160a01b031681565b6000818152600b6020526040812061054190610df5565b6004546001600160a01b031681565b7ff0887ba65ee2024ea881d91b74c2450ef19e1557f03bed3ea9f16b037cbe2dc981565b6000828152600b6020526040902060020154610cb490610589610cfe565b61062e5760405162461bcd60e51b815260040180806020018281038252603081526020018061102e6030913960400191505060405180910390fd5b6001546001600160a01b031681565b3390565b6000828152600b60205260409020610d1a9082610e00565b156105d357610d27610cfe565b6001600160a01b0316816001600160a01b0316837f2f8788117e7eff1d82e926ec794901d17c78024a50270940304540a733656f0d60405160405180910390a45050565b6000828152600b60205260409020610d839082610e15565b156105d357610d90610cfe565b6001600160a01b0316816001600160a01b0316837ff6391f5c32d9c69d2a47ea670b442974b53935d1edc7fd64eb21e047a839171b60405160405180910390a45050565b6000610c0d8383610e2a565b6000610c0d836001600160a01b038416610e8e565b600061054182610ea6565b6000610c0d836001600160a01b038416610eaa565b6000610c0d836001600160a01b038416610ef4565b81546000908210610e6c5760405162461bcd60e51b8152600401808060200182810382526022815260200180610fbb6022913960400191505060405180910390fd5b826000018281548110610e7b57fe5b9060005260206000200154905092915050565b60009081526001919091016020526040902054151590565b5490565b6000610eb68383610e8e565b610eec57508154600181810184556000848152602080822090930184905584548482528286019093526040902091909155610541565b506000610541565b60008181526001830160205260408120548015610fb05783546000198083019190810190600090879083908110610f2757fe5b9060005260206000200154905080876000018481548110610f4457fe5b600091825260208083209091019290925582815260018981019092526040902090840190558654879080610f7457fe5b60019003818190600052602060002001600090559055866001016000878152602001908152602001600020600090556001945050505050610541565b600091505061054156fe456e756d657261626c655365743a20696e646578206f7574206f6620626f756e6473416363657373436f6e74726f6c3a2073656e646572206d75737420626520616e2061646d696e20746f206772616e7441636365737369626c653a2043616c6c6572206973206e6f7420616e2061646d696e416363657373436f6e74726f6c3a2073656e646572206d75737420626520616e2061646d696e20746f207265766f6b65df8b4c520ffe197c5343c6f5aec59570151ef9a492f2c624fd45ddde6135ec42416363657373436f6e74726f6c3a2063616e206f6e6c792072656e6f756e636520726f6c657320666f722073656c66a2646970667358221220555e987d2f14982d364595fb3eb4f201a1ee7356ec60b16e59a049b6ccba77b164736f6c63430007060033",
  "linkReferences": {},
  "deployedLinkReferences": {}
}