{
  "_format": "hh-sol-artifact-1",
  "contractName": "StakeTON",
  "sourceName": "contracts/stake/StakeTON.sol",
  "abi": [
    {
      "inputs": [],
      "stateMutability": "nonpayable",
      "type": "constructor"
    },
    {
      "anonymous": false,
      "inputs": [
        {
          "indexed": true,
          "internalType": "address",
          "name": "to",
          "type": "address"
        },
        {
          "indexed": false,
          "internalType": "uint256",
          "name": "amount",
          "type": "uint256"
        },
        {
          "indexed": false,
          "internalType": "uint256",
          "name": "claimBlock",
          "type": "uint256"
        }
      ],
      "name": "Claimed",
      "type": "event"
    },
    {
      "anonymous": false,
      "inputs": [
        {
          "indexed": false,
          "internalType": "address",
          "name": "caller",
          "type": "address"
        },
        {
          "indexed": false,
          "internalType": "uint256",
          "name": "amountIn",
          "type": "uint256"
        },
        {
          "indexed": false,
          "internalType": "uint256",
          "name": "amountOut",
          "type": "uint256"
        }
      ],
      "name": "ExchangedWTONtoTOS",
      "type": "event"
    },
    {
      "anonymous": false,
      "inputs": [
        {
          "indexed": false,
          "internalType": "address",
          "name": "caller",
          "type": "address"
        },
        {
          "indexed": false,
          "internalType": "uint256",
          "name": "amountIn",
          "type": "uint256"
        },
        {
          "indexed": false,
          "internalType": "uint256",
          "name": "amountOut",
          "type": "uint256"
        }
      ],
      "name": "ExchangedWTONtoTOS2",
      "type": "event"
    },
    {
      "anonymous": false,
      "inputs": [
        {
          "indexed": true,
          "internalType": "bytes32",
          "name": "role",
          "type": "bytes32"
        },
        {
          "indexed": true,
          "internalType": "bytes32",
          "name": "previousAdminRole",
          "type": "bytes32"
        },
        {
          "indexed": true,
          "internalType": "bytes32",
          "name": "newAdminRole",
          "type": "bytes32"
        }
      ],
      "name": "RoleAdminChanged",
      "type": "event"
    },
    {
      "anonymous": false,
      "inputs": [
        {
          "indexed": true,
          "internalType": "bytes32",
          "name": "role",
          "type": "bytes32"
        },
        {
          "indexed": true,
          "internalType": "address",
          "name": "account",
          "type": "address"
        },
        {
          "indexed": true,
          "internalType": "address",
          "name": "sender",
          "type": "address"
        }
      ],
      "name": "RoleGranted",
      "type": "event"
    },
    {
      "anonymous": false,
      "inputs": [
        {
          "indexed": true,
          "internalType": "bytes32",
          "name": "role",
          "type": "bytes32"
        },
        {
          "indexed": true,
          "internalType": "address",
          "name": "account",
          "type": "address"
        },
        {
          "indexed": true,
          "internalType": "address",
          "name": "sender",
          "type": "address"
        }
      ],
      "name": "RoleRevoked",
      "type": "event"
    },
    {
      "anonymous": false,
      "inputs": [
        {
          "indexed": false,
          "internalType": "address",
          "name": "registry",
          "type": "address"
        }
      ],
      "name": "SetRegistry",
      "type": "event"
    },
    {
      "anonymous": false,
      "inputs": [
        {
          "indexed": false,
          "internalType": "address",
          "name": "layer2",
          "type": "address"
        }
      ],
      "name": "SetTokamakLayer2",
      "type": "event"
    },
    {
      "anonymous": false,
      "inputs": [
        {
          "indexed": true,
          "internalType": "address",
          "name": "to",
          "type": "address"
        },
        {
          "indexed": false,
          "internalType": "uint256",
          "name": "amount",
          "type": "uint256"
        }
      ],
      "name": "Staked",
      "type": "event"
    },
    {
      "anonymous": false,
      "inputs": [
        {
          "indexed": false,
          "internalType": "address",
          "name": "layer2",
          "type": "address"
        },
        {
          "indexed": false,
          "internalType": "uint256",
          "name": "rn",
          "type": "uint256"
        },
        {
          "indexed": false,
          "internalType": "bool",
          "name": "receiveTON",
          "type": "bool"
        }
      ],
      "name": "TokamakProcessedUnStaking",
      "type": "event"
    },
    {
      "anonymous": false,
      "inputs": [
        {
          "indexed": false,
          "internalType": "address",
          "name": "layer2",
          "type": "address"
        },
        {
          "indexed": false,
          "internalType": "uint256",
          "name": "amount",
          "type": "uint256"
        }
      ],
      "name": "TokamakRequestedUnStaking",
      "type": "event"
    },
    {
      "anonymous": false,
      "inputs": [
        {
          "indexed": false,
          "internalType": "address",
          "name": "layer2",
          "type": "address"
        }
      ],
      "name": "TokamakRequestedUnStakingAll",
      "type": "event"
    },
    {
      "anonymous": false,
      "inputs": [
        {
          "indexed": false,
          "internalType": "address",
          "name": "layer2",
          "type": "address"
        },
        {
          "indexed": false,
          "internalType": "uint256",
          "name": "amount",
          "type": "uint256"
        }
      ],
      "name": "TokamakStaked",
      "type": "event"
    },
    {
      "anonymous": false,
      "inputs": [
        {
          "indexed": true,
          "internalType": "address",
          "name": "to",
          "type": "address"
        },
        {
          "indexed": false,
          "internalType": "uint256",
          "name": "tonAmount",
          "type": "uint256"
        },
        {
          "indexed": false,
          "internalType": "uint256",
          "name": "tosAmount",
          "type": "uint256"
        }
      ],
      "name": "Withdrawal",
      "type": "event"
    },
    {
      "inputs": [],
      "name": "ADMIN_ROLE",
      "outputs": [
        {
          "internalType": "bytes32",
          "name": "",
          "type": "bytes32"
        }
      ],
      "stateMutability": "view",
      "type": "function"
    },
    {
      "inputs": [],
      "name": "BURNER_ROLE",
      "outputs": [
        {
          "internalType": "bytes32",
          "name": "",
          "type": "bytes32"
        }
      ],
      "stateMutability": "view",
      "type": "function"
    },
    {
      "inputs": [],
      "name": "DEFAULT_ADMIN_ROLE",
      "outputs": [
        {
          "internalType": "bytes32",
          "name": "",
          "type": "bytes32"
        }
      ],
      "stateMutability": "view",
      "type": "function"
    },
    {
      "inputs": [],
      "name": "MINTER_ROLE",
      "outputs": [
        {
          "internalType": "bytes32",
          "name": "",
          "type": "bytes32"
        }
      ],
      "stateMutability": "view",
      "type": "function"
    },
    {
      "inputs": [],
      "name": "PROJECT_ADMIN_ROLE",
      "outputs": [
        {
          "internalType": "bytes32",
          "name": "",
          "type": "bytes32"
        }
      ],
      "stateMutability": "view",
      "type": "function"
    },
    {
      "inputs": [
        {
          "internalType": "address",
          "name": "account",
          "type": "address"
        }
      ],
      "name": "addAdmin",
      "outputs": [],
      "stateMutability": "nonpayable",
      "type": "function"
    },
    {
      "inputs": [
        {
          "internalType": "address",
          "name": "account",
          "type": "address"
        },
        {
          "internalType": "uint256",
          "name": "specificBlock",
          "type": "uint256"
        }
      ],
      "name": "canRewardAmount",
      "outputs": [
        {
          "internalType": "uint256",
          "name": "",
          "type": "uint256"
        }
      ],
      "stateMutability": "view",
      "type": "function"
    },
    {
      "inputs": [],
      "name": "checkTokamak",
      "outputs": [],
      "stateMutability": "nonpayable",
      "type": "function"
    },
    {
      "inputs": [],
      "name": "claim",
      "outputs": [],
      "stateMutability": "nonpayable",
      "type": "function"
    },
    {
      "inputs": [],
      "name": "defiAddr",
      "outputs": [
        {
          "internalType": "address",
          "name": "",
          "type": "address"
        }
      ],
      "stateMutability": "view",
      "type": "function"
    },
    {
      "inputs": [],
      "name": "defiStatus",
      "outputs": [
        {
          "internalType": "uint256",
          "name": "",
          "type": "uint256"
        }
      ],
      "stateMutability": "view",
      "type": "function"
    },
    {
      "inputs": [],
      "name": "depositManager",
      "outputs": [
        {
          "internalType": "address",
          "name": "",
          "type": "address"
        }
      ],
      "stateMutability": "view",
      "type": "function"
    },
    {
      "inputs": [],
      "name": "endBlock",
      "outputs": [
        {
          "internalType": "uint256",
          "name": "",
          "type": "uint256"
        }
      ],
      "stateMutability": "view",
      "type": "function"
    },
    {
      "inputs": [
        {
          "internalType": "uint256",
          "name": "_amountIn",
          "type": "uint256"
        },
        {
          "internalType": "uint256",
          "name": "_amountOutMinimum",
          "type": "uint256"
        },
        {
          "internalType": "uint256",
          "name": "_deadline",
          "type": "uint256"
        },
        {
          "internalType": "uint160",
          "name": "_sqrtPriceLimitX96",
          "type": "uint160"
        },
        {
          "internalType": "uint256",
          "name": "_kind",
          "type": "uint256"
        }
      ],
      "name": "exchangeWTONtoTOS",
      "outputs": [
        {
          "internalType": "uint256",
          "name": "amountOut",
          "type": "uint256"
        }
      ],
      "stateMutability": "nonpayable",
      "type": "function"
    },
    {
      "inputs": [],
      "name": "finalBalanceTON",
      "outputs": [
        {
          "internalType": "uint256",
          "name": "",
          "type": "uint256"
        }
      ],
      "stateMutability": "view",
      "type": "function"
    },
    {
      "inputs": [],
      "name": "finalBalanceWTON",
      "outputs": [
        {
          "internalType": "uint256",
          "name": "",
          "type": "uint256"
        }
      ],
      "stateMutability": "view",
      "type": "function"
    },
    {
      "inputs": [],
      "name": "fromTokamak",
      "outputs": [
        {
          "internalType": "uint256",
          "name": "",
          "type": "uint256"
        }
      ],
      "stateMutability": "view",
      "type": "function"
    },
    {
      "inputs": [
        {
          "internalType": "bytes32",
          "name": "role",
          "type": "bytes32"
        }
      ],
      "name": "getRoleAdmin",
      "outputs": [
        {
          "internalType": "bytes32",
          "name": "",
          "type": "bytes32"
        }
      ],
      "stateMutability": "view",
      "type": "function"
    },
    {
      "inputs": [
        {
          "internalType": "bytes32",
          "name": "role",
          "type": "bytes32"
        },
        {
          "internalType": "uint256",
          "name": "index",
          "type": "uint256"
        }
      ],
      "name": "getRoleMember",
      "outputs": [
        {
          "internalType": "address",
          "name": "",
          "type": "address"
        }
      ],
      "stateMutability": "view",
      "type": "function"
    },
    {
      "inputs": [
        {
          "internalType": "bytes32",
          "name": "role",
          "type": "bytes32"
        }
      ],
      "name": "getRoleMemberCount",
      "outputs": [
        {
          "internalType": "uint256",
          "name": "",
          "type": "uint256"
        }
      ],
      "stateMutability": "view",
      "type": "function"
    },
    {
      "inputs": [],
      "name": "getUniswapInfo",
      "outputs": [
        {
          "internalType": "address",
          "name": "uniswapRouter",
          "type": "address"
        },
        {
          "internalType": "address",
          "name": "npm",
          "type": "address"
        },
        {
          "internalType": "address",
          "name": "ext",
          "type": "address"
        },
        {
          "internalType": "uint256",
          "name": "fee",
          "type": "uint256"
        },
        {
          "internalType": "address",
          "name": "uniswapRouterV2",
          "type": "address"
        }
      ],
      "stateMutability": "view",
      "type": "function"
    },
    {
      "inputs": [
        {
          "internalType": "address",
          "name": "user",
          "type": "address"
        }
      ],
      "name": "getUserStaked",
      "outputs": [
        {
          "internalType": "uint256",
          "name": "amount",
          "type": "uint256"
        },
        {
          "internalType": "uint256",
          "name": "claimedBlock",
          "type": "uint256"
        },
        {
          "internalType": "uint256",
          "name": "claimedAmount",
          "type": "uint256"
        },
        {
          "internalType": "uint256",
          "name": "releasedBlock",
          "type": "uint256"
        },
        {
          "internalType": "uint256",
          "name": "releasedAmount",
          "type": "uint256"
        },
        {
          "internalType": "uint256",
          "name": "releasedTOSAmount",
          "type": "uint256"
        },
        {
          "internalType": "bool",
          "name": "released",
          "type": "bool"
        }
      ],
      "stateMutability": "view",
      "type": "function"
    },
    {
      "inputs": [
        {
          "internalType": "bytes32",
          "name": "role",
          "type": "bytes32"
        },
        {
          "internalType": "address",
          "name": "account",
          "type": "address"
        }
      ],
      "name": "grantRole",
      "outputs": [],
      "stateMutability": "nonpayable",
      "type": "function"
    },
    {
      "inputs": [
        {
          "internalType": "bytes32",
          "name": "role",
          "type": "bytes32"
        },
        {
          "internalType": "address",
          "name": "account",
          "type": "address"
        }
      ],
      "name": "hasRole",
      "outputs": [
        {
          "internalType": "bool",
          "name": "",
          "type": "bool"
        }
      ],
      "stateMutability": "view",
      "type": "function"
    },
    {
      "inputs": [],
      "name": "infos",
      "outputs": [
        {
          "internalType": "address",
          "name": "",
          "type": "address"
        },
        {
          "internalType": "address",
          "name": "",
          "type": "address"
        },
        {
          "internalType": "uint256[3]",
          "name": "",
          "type": "uint256[3]"
        },
        {
          "internalType": "uint256",
          "name": "",
          "type": "uint256"
        },
        {
          "internalType": "uint256",
          "name": "",
          "type": "uint256"
        },
        {
          "internalType": "uint256",
          "name": "",
          "type": "uint256"
        }
      ],
      "stateMutability": "view",
      "type": "function"
    },
    {
      "inputs": [
        {
          "internalType": "address",
          "name": "account",
          "type": "address"
        }
      ],
      "name": "isAdmin",
      "outputs": [
        {
          "internalType": "bool",
          "name": "",
          "type": "bool"
        }
      ],
      "stateMutability": "view",
      "type": "function"
    },
    {
      "inputs": [],
      "name": "migratedL2",
      "outputs": [
        {
          "internalType": "bool",
          "name": "",
          "type": "bool"
        }
      ],
      "stateMutability": "view",
      "type": "function"
    },
    {
      "inputs": [],
      "name": "pauseProxy",
      "outputs": [
        {
          "internalType": "bool",
          "name": "",
          "type": "bool"
        }
      ],
      "stateMutability": "view",
      "type": "function"
    },
    {
      "inputs": [],
      "name": "paytoken",
      "outputs": [
        {
          "internalType": "address",
          "name": "",
          "type": "address"
        }
      ],
      "stateMutability": "view",
      "type": "function"
    },
    {
      "inputs": [
        {
          "internalType": "address",
          "name": "account",
          "type": "address"
        }
      ],
      "name": "removeAdmin",
      "outputs": [],
      "stateMutability": "nonpayable",
      "type": "function"
    },
    {
      "inputs": [
        {
          "internalType": "bytes32",
          "name": "role",
          "type": "bytes32"
        },
        {
          "internalType": "address",
          "name": "account",
          "type": "address"
        }
      ],
      "name": "renounceRole",
      "outputs": [],
      "stateMutability": "nonpayable",
      "type": "function"
    },
    {
      "inputs": [],
      "name": "requestNum",
      "outputs": [
        {
          "internalType": "uint256",
          "name": "",
          "type": "uint256"
        }
      ],
      "stateMutability": "view",
      "type": "function"
    },
    {
      "inputs": [
        {
          "internalType": "bytes32",
          "name": "role",
          "type": "bytes32"
        },
        {
          "internalType": "address",
          "name": "account",
          "type": "address"
        }
      ],
      "name": "revokeRole",
      "outputs": [],
      "stateMutability": "nonpayable",
      "type": "function"
    },
    {
      "inputs": [],
      "name": "rewardClaimedTotal",
      "outputs": [
        {
          "internalType": "uint256",
          "name": "",
          "type": "uint256"
        }
      ],
      "stateMutability": "view",
      "type": "function"
    },
    {
      "inputs": [],
      "name": "saleStartBlock",
      "outputs": [
        {
          "internalType": "uint256",
          "name": "",
          "type": "uint256"
        }
      ],
      "stateMutability": "view",
      "type": "function"
    },
    {
      "inputs": [],
      "name": "seigManager",
      "outputs": [
        {
          "internalType": "address",
          "name": "",
          "type": "address"
        }
      ],
      "stateMutability": "view",
      "type": "function"
    },
    {
      "inputs": [
        {
          "internalType": "address",
          "name": "_registry",
          "type": "address"
        }
      ],
      "name": "setRegistry",
      "outputs": [],
      "stateMutability": "nonpayable",
      "type": "function"
    },
    {
      "inputs": [
        {
          "internalType": "address",
          "name": "_layer2",
          "type": "address"
        }
      ],
      "name": "setTokamakLayer2",
      "outputs": [],
      "stateMutability": "nonpayable",
      "type": "function"
    },
    {
      "inputs": [],
      "name": "stakeRegistry",
      "outputs": [
        {
          "internalType": "address",
          "name": "",
          "type": "address"
        }
      ],
      "stateMutability": "view",
      "type": "function"
    },
    {
      "inputs": [],
      "name": "startBlock",
      "outputs": [
        {
          "internalType": "uint256",
          "name": "",
          "type": "uint256"
        }
      ],
      "stateMutability": "view",
      "type": "function"
    },
    {
      "inputs": [],
      "name": "swapProxy",
      "outputs": [
        {
          "internalType": "address",
          "name": "",
          "type": "address"
        }
      ],
      "stateMutability": "view",
      "type": "function"
    },
    {
      "inputs": [
        {
          "internalType": "uint256",
          "name": "amount",
          "type": "uint256"
        },
        {
          "internalType": "bool",
          "name": "toWTON",
          "type": "bool"
        }
      ],
      "name": "swapTONtoWTON",
      "outputs": [],
      "stateMutability": "nonpayable",
      "type": "function"
    },
    {
      "inputs": [],
      "name": "swappedAmountTOS",
      "outputs": [
        {
          "internalType": "uint256",
          "name": "",
          "type": "uint256"
        }
      ],
      "stateMutability": "view",
      "type": "function"
    },
    {
      "inputs": [],
      "name": "toTokamak",
      "outputs": [
        {
          "internalType": "uint256",
          "name": "",
          "type": "uint256"
        }
      ],
      "stateMutability": "view",
      "type": "function"
    },
    {
      "inputs": [],
      "name": "toUniswapWTON",
      "outputs": [
        {
          "internalType": "uint256",
          "name": "",
          "type": "uint256"
        }
      ],
      "stateMutability": "view",
      "type": "function"
    },
    {
      "inputs": [],
      "name": "tokamakLayer2",
      "outputs": [
        {
          "internalType": "address",
          "name": "",
          "type": "address"
        }
      ],
      "stateMutability": "view",
      "type": "function"
    },
    {
      "inputs": [
        {
          "internalType": "address",
          "name": "_layer2",
          "type": "address"
        }
      ],
      "name": "tokamakProcessUnStaking",
      "outputs": [],
      "stateMutability": "nonpayable",
      "type": "function"
    },
    {
      "inputs": [
        {
          "internalType": "address",
          "name": "_layer2",
          "type": "address"
        },
        {
          "internalType": "uint256",
          "name": "wtonAmount",
          "type": "uint256"
        }
      ],
      "name": "tokamakRequestUnStaking",
      "outputs": [],
      "stateMutability": "nonpayable",
      "type": "function"
    },
    {
      "inputs": [
        {
          "internalType": "address",
          "name": "_layer2",
          "type": "address"
        }
      ],
      "name": "tokamakRequestUnStakingAll",
      "outputs": [],
      "stateMutability": "nonpayable",
      "type": "function"
    },
    {
      "inputs": [
        {
          "internalType": "address",
          "name": "_layer2",
          "type": "address"
        },
        {
          "internalType": "uint256",
          "name": "stakeAmount",
          "type": "uint256"
        }
      ],
      "name": "tokamakStaking",
      "outputs": [],
      "stateMutability": "nonpayable",
      "type": "function"
    },
    {
      "inputs": [],
      "name": "token",
      "outputs": [
        {
          "internalType": "address",
          "name": "",
          "type": "address"
        }
      ],
      "stateMutability": "view",
      "type": "function"
    },
    {
      "inputs": [],
      "name": "ton",
      "outputs": [
        {
          "internalType": "address",
          "name": "",
          "type": "address"
        }
      ],
      "stateMutability": "view",
      "type": "function"
    },
    {
      "inputs": [],
      "name": "totalStakedAmount",
      "outputs": [
        {
          "internalType": "uint256",
          "name": "",
          "type": "uint256"
        }
      ],
      "stateMutability": "view",
      "type": "function"
    },
    {
      "inputs": [],
      "name": "totalStakers",
      "outputs": [
        {
          "internalType": "uint256",
          "name": "",
          "type": "uint256"
        }
      ],
      "stateMutability": "view",
      "type": "function"
    },
    {
      "inputs": [
        {
          "internalType": "address",
          "name": "newAdmin",
          "type": "address"
        }
      ],
      "name": "transferAdmin",
      "outputs": [],
      "stateMutability": "nonpayable",
      "type": "function"
    },
    {
      "inputs": [
        {
          "internalType": "address",
          "name": "",
          "type": "address"
        }
      ],
      "name": "userStaked",
      "outputs": [
        {
          "internalType": "uint256",
          "name": "amount",
          "type": "uint256"
        },
        {
          "internalType": "uint256",
          "name": "claimedBlock",
          "type": "uint256"
        },
        {
          "internalType": "uint256",
          "name": "claimedAmount",
          "type": "uint256"
        },
        {
          "internalType": "uint256",
          "name": "releasedBlock",
          "type": "uint256"
        },
        {
          "internalType": "uint256",
          "name": "releasedAmount",
          "type": "uint256"
        },
        {
          "internalType": "uint256",
          "name": "releasedTOSAmount",
          "type": "uint256"
        },
        {
          "internalType": "bool",
          "name": "released",
          "type": "bool"
        }
      ],
      "stateMutability": "view",
      "type": "function"
    },
    {
      "inputs": [],
      "name": "vault",
      "outputs": [
        {
          "internalType": "address",
          "name": "",
          "type": "address"
        }
      ],
      "stateMutability": "view",
      "type": "function"
    },
    {
      "inputs": [],
      "name": "withdraw",
      "outputs": [],
      "stateMutability": "nonpayable",
      "type": "function"
    },
    {
      "inputs": [],
      "name": "withdrawFlag",
      "outputs": [
        {
          "internalType": "bool",
          "name": "",
          "type": "bool"
        }
      ],
      "stateMutability": "view",
      "type": "function"
    },
    {
      "inputs": [],
      "name": "wton",
      "outputs": [
        {
          "internalType": "address",
          "name": "",
          "type": "address"
        }
      ],
      "stateMutability": "view",
      "type": "function"
    },
    {
      "stateMutability": "payable",
      "type": "receive"
    }
  ],
  "bytecode": "0x608060405234801561001057600080fd5b506154bd806100206000396000f3fe60806040526004361061031b5760003560e01c806375829def1161019c578063b2d4d6a3116100e2578063e09974b911610090578063e09974b9146108c8578063e58e2747146108dd578063e6a7bc87146108f2578063f0cdfa5314610907578063fbfa77cf14610927578063fc0c546a1461093c578063fd7fa46014610951578063ff7587881461096657610341565b8063b2d4d6a314610809578063ca15c8731461081e578063cc48b9471461083e578063ce681ce614610853578063d539139314610873578063d547741f14610888578063dac3fc3f146108a857610341565b806392ea3b4c1161014a57806392ea3b4c1461071b5780639a88be2f146107305780639d84ca3514610757578063a1f5f50e1461076c578063a217fddf14610781578063a6e8670e14610796578063a91ee0dc146107b6578063acc3a939146107d657610341565b806375829def1461065c57806375b238fc1461067c5780637df3f40c1461069157806386989038146106b15780638d62d949146106c65780639010d07c146106db57806391d14854146106fb57610341565b806343b0934a116102615780636c7ac9d81161020f5780636c7ac9d8146105935780636e7cf534146105a85780636ec4be90146105bd5780636fb7f558146105d257806370480275146105e757806371def0b3146106075780637228532614610627578063730464a91461063c57610341565b806343b0934a146104e857806348cd4cb11461050a5780634e71d92d1461051f578063567e98f91461053457806363a8fd891461054957806367cf3e181461055e578063683048351461057e57610341565b8063248a9ca3116102c9578063248a9ca31461040757806324d7806c14610427578063282c51f3146104545780632995fa0e146104695780632f2ff15d1461047e57806336568abe1461049e5780633ccfd60b146104be57806341c04d5e146104d357610341565b806305871b7814610346578063065c431314610371578063083c6323146103935780630ac8e0f3146103a85780630ea3d9c9146103bd5780631785f53c146103d257806320027275146103f257610341565b366103415760405162461bcd60e51b8152600401610338906151a4565b60405180910390fd5b600080fd5b34801561035257600080fd5b5061035b61098c565b60405161036891906147dd565b60405180910390f35b34801561037d57600080fd5b5061039161038c366004614401565b610992565b005b34801561039f57600080fd5b5061035b610f1c565b3480156103b457600080fd5b5061035b610f22565b3480156103c957600080fd5b5061035b610f28565b3480156103de57600080fd5b506103916103ed366004614315565b610f2e565b3480156103fe57600080fd5b5061035b610f8d565b34801561041357600080fd5b5061035b6104223660046144f6565b610f93565b34801561043357600080fd5b50610447610442366004614315565b610fa8565b60405161036891906147d2565b34801561046057600080fd5b5061035b610fc8565b34801561047557600080fd5b50610391610fec565b34801561048a57600080fd5b5061039161049936600461450e565b611171565b3480156104aa57600080fd5b506103916104b936600461450e565b6111d8565b3480156104ca57600080fd5b50610391611239565b3480156104df57600080fd5b5061035b6119c9565b3480156104f457600080fd5b506104fd6119ed565b6040516103689190614682565b34801561051657600080fd5b5061035b6119fc565b34801561052b57600080fd5b50610391611a02565b34801561054057600080fd5b5061035b611cee565b34801561055557600080fd5b50610447611cf4565b34801561056a57600080fd5b5061035b610579366004614401565b611cfd565b34801561058a57600080fd5b506104fd612053565b34801561059f57600080fd5b506104fd612062565b3480156105b457600080fd5b50610447612071565b3480156105c957600080fd5b506104fd61207a565b3480156105de57600080fd5b506104fd612089565b3480156105f357600080fd5b50610391610602366004614315565b612098565b34801561061357600080fd5b50610391610622366004614315565b6120f4565b34801561063357600080fd5b5061035b6122f5565b34801561064857600080fd5b50610391610657366004614315565b6122fb565b34801561066857600080fd5b50610391610677366004614315565b61264d565b34801561068857600080fd5b5061035b61276e565b34801561069d57600080fd5b506103916106ac366004614576565b612780565b3480156106bd57600080fd5b5061035b612a9d565b3480156106d257600080fd5b506104fd612aa3565b3480156106e757600080fd5b506104fd6106f636600461453d565b612ab2565b34801561070757600080fd5b5061044761071636600461450e565b612aca565b34801561072757600080fd5b506104fd612ae2565b34801561073c57600080fd5b50610745612af1565b6040516103689695949392919061471a565b34801561076357600080fd5b506104fd612b47565b34801561077857600080fd5b50610447612b5b565b34801561078d57600080fd5b5061035b612b6b565b3480156107a257600080fd5b506103916107b1366004614315565b612b70565b3480156107c257600080fd5b506103916107d1366004614315565b612c4c565b3480156107e257600080fd5b506107f66107f1366004614315565b612d14565b604051610368979695949392919061531f565b34801561081557600080fd5b5061035b612d54565b34801561082a57600080fd5b5061035b6108393660046144f6565b612d5a565b34801561084a57600080fd5b506104fd612d71565b34801561085f57600080fd5b5061039161086e366004614401565b612d80565b34801561087f57600080fd5b5061035b61302c565b34801561089457600080fd5b506103916108a336600461450e565b613050565b3480156108b457600080fd5b506107f66108c3366004614315565b6130a9565b3480156108d457600080fd5b5061035b6130f2565b3480156108e957600080fd5b5061035b6130f8565b3480156108fe57600080fd5b5061035b6130fe565b34801561091357600080fd5b5061035b61092236600461459a565b613104565b34801561093357600080fd5b506104fd61397e565b34801561094857600080fd5b506104fd61398d565b34801561095d57600080fd5b5061035b61399c565b34801561097257600080fd5b5061097b6139a2565b6040516103689594939291906146ea565b60155481565b600b54156109b25760405162461bcd60e51b815260040161033890614bc6565b6001600b819055546001600160a01b0316806109e05760405162461bcd60e51b8152600401610338906147e6565b826001600160a01b038116610a075760405162461bcd60e51b8152600401610338906147e6565b600360009054906101000a90046001600160a01b03166001600160a01b031663b8c766b86040518163ffffffff1660e01b815260040160206040518083038186803b158015610a5557600080fd5b505afa158015610a69573d6000803e3d6000fd5b505050506040513d601f19601f82011682018060405250810190610a8d91906144da565b610aa95760405162461bcd60e51b815260040161033890615171565b600654431115610acb5760405162461bcd60e51b815260040161033890614990565b60008311610aeb5760405162461bcd60e51b815260040161033890614fba565b6002601955610af8610fec565b60105460408051633761ead760e11b815290516000926001600160a01b031691636ec3d5ae916004808301926020929190829003018186803b158015610b3d57600080fd5b505afa158015610b51573d6000803e3d6000fd5b505050506040513d601f19601f82011682018060405250810190610b75919061455e565b905080600654034310610b9a5760405162461bcd60e51b8152600401610338906149f9565b6012546001600160a01b0316610bca57601280546001600160a01b0319166001600160a01b038716179055610d4f565b600f546012546040516367265c3b60e11b81526000926001600160a01b039081169263ce4cb87692610c04929091169030906004016146d0565b60206040518083038186803b158015610c1c57600080fd5b505afa158015610c30573d6000803e3d6000fd5b505050506040513d601f19601f82011682018060405250810190610c54919061455e565b1180610ce75750601054601254604051632638fdf560e01b81526000926001600160a01b0390811692632638fdf592610c95929091169030906004016146d0565b60206040518083038186803b158015610cad57600080fd5b505afa158015610cc1573d6000803e3d6000fd5b505050506040513d601f19601f82011682018060405250810190610ce5919061455e565b115b15610d1e576012546001600160a01b03868116911614610d195760405162461bcd60e51b815260040161033890614d9a565b610d4f565b6012546001600160a01b03868116911614610d4f57601280546001600160a01b0319166001600160a01b0387161790555b600d546040516370a0823160e01b815285916001600160a01b0316906370a0823190610d7f903090600401614682565b60206040518083038186803b158015610d9757600080fd5b505afa158015610dab573d6000803e3d6000fd5b505050506040513d601f19601f82011682018060405250810190610dcf919061455e565b1015610ded5760405162461bcd60e51b815260040161033890614e85565b601354610dfa9085613a41565b601355601054604051600091610e20916001600160a01b039091169088906020016146d0565b60408051601f1981840301815290829052600d54600e5463cae9ca5160e01b84529193506001600160a01b039081169263cae9ca5192610e68921690899086906004016147a2565b602060405180830381600087803b158015610e8257600080fd5b505af1158015610e96573d6000803e3d6000fd5b505050506040513d601f19601f82011682018060405250810190610eba91906144da565b610ed65760405162461bcd60e51b815260040161033890614c6d565b7f36f1e081b7e687a2472c2fbd52bc97993ddc788b19c74010f11e25f3c917d2dd8686604051610f07929190614696565b60405180910390a150506000600b5550505050565b60065481565b60145481565b60165481565b610f3733610fa8565b610f725760405162461bcd60e51b81526004018080602001828103825260228152602001806153c66022913960400191505060405180910390fd5b610f8a600080516020615439833981519152826111d8565b50565b60045481565b6000908152601c602052604090206002015490565b6000610fc260008051602061543983398151915283612aca565b92915050565b7f9667e80708b6eeeb0053fa0cca44e028ff548e2a9f029edfeac87c118b08b7c881565b600d546001600160a01b03166110ed576000806000806000600160009054906101000a90046001600160a01b03166001600160a01b031663a782ebd56040518163ffffffff1660e01b815260040160a06040518083038186803b15801561105257600080fd5b505afa158015611066573d6000803e3d6000fd5b505050506040513d601f19601f8201168201806040525081019061108a9190614331565b600d80546001600160a01b03199081166001600160a01b0397881617909155600e805482169587169590951790945560108054851693861693909317909255600f8054841691851691909117905560118054909216921691909117905550505050505b600d546001600160a01b0316158015906111115750600e546001600160a01b031615155b80156111275750600f546001600160a01b031615155b801561113d57506010546001600160a01b031615155b801561115357506011546001600160a01b031615155b61116f5760405162461bcd60e51b815260040161033890614f83565b565b6000828152601c602052604090206002015461118f90610716613a9b565b6111ca5760405162461bcd60e51b815260040180806020018281038252602f815260200180615397602f913960400191505060405180910390fd5b6111d48282613a9f565b5050565b6111e0613a9b565b6001600160a01b0316816001600160a01b03161461122f5760405162461bcd60e51b815260040180806020018281038252602f815260200180615459602f913960400191505060405180910390fd5b6111d48282613b08565b600060065411801561124c575043600654105b6112685760405162461bcd60e51b8152600401610338906150d8565b600080600080600160009054906101000a90046001600160a01b03166001600160a01b031663a782ebd56040518163ffffffff1660e01b815260040160a06040518083038186803b1580156112bc57600080fd5b505afa1580156112d0573d6000803e3d6000fd5b505050506040513d601f19601f820116820180604052508101906112f49190614331565b50929650909450925090506001600160a01b0384161580159061131f57506001600160a01b03831615155b801561133357506001600160a01b03821615155b801561134757506001600160a01b03811615155b6113635760405162461bcd60e51b815260040161033890614a42565b6012546001600160a01b0316156114a2576012546040516367265c3b60e11b81526001600160a01b038381169263ce4cb876926113a8929091169030906004016146d0565b60206040518083038186803b1580156113c057600080fd5b505afa1580156113d4573d6000803e3d6000fd5b505050506040513d601f19601f820116820180604052508101906113f8919061455e565b1580156114865750601254604051632638fdf560e01b81526001600160a01b0384811692632638fdf592611434929091169030906004016146d0565b60206040518083038186803b15801561144c57600080fd5b505afa158015611460573d6000803e3d6000fd5b505050506040513d601f19601f82011682018060405250810190611484919061455e565b155b6114a25760405162461bcd60e51b815260040161033890614bf4565b336000908152600960205260409020600681015460ff16156114d65760405162461bcd60e51b815260040161033890614854565b601b5460ff166116c557601b805460ff191660011790556002546001600160a01b0390811690861614156116c5576000546040516370a0823160e01b81526001600160a01b03909116906370a0823190611534903090600401614682565b60206040518083038186803b15801561154c57600080fd5b505afa158015611560573d6000803e3d6000fd5b505050506040513d601f19601f82011682018060405250810190611584919061455e565b6016556040516370a0823160e01b81526001600160a01b038516906370a08231906115b3903090600401614682565b60206040518083038186803b1580156115cb57600080fd5b505afa1580156115df573d6000803e3d6000fd5b505050506040513d601f19601f82011682018060405250810190611603919061455e565b6018556040516370a0823160e01b81526001600160a01b038616906370a0823190611632903090600401614682565b60206040518083038186803b15801561164a57600080fd5b505afa15801561165e573d6000803e3d6000fd5b505050506040513d601f19601f82011682018060405250810190611682919061455e565b601781905560085460185490916116a7916116a190633b9aca00613b71565b90613a41565b10156116c55760405162461bcd60e51b815260040161033890614c36565b8054806116e45760405162461bcd60e51b815260040161033890614e55565b43600383015560068201805460ff191660011790556002546001600160a01b0390811690871614156117d55760008060008060175411156117435761174060085461173a86601754613bb390919063ffffffff16565b90613b71565b92505b601854156117695761176660085461173a86601854613bb390919063ffffffff16565b91505b6016541561178f5761178c60085461173a86601654613bb390919063ffffffff16565b90505b6005850181905581156117b8576117ae836116a184633b9aca00613b71565b60048601556117c0565b600485018390555b6117cd8989858585613c0c565b50505061197f565b6002546001600160a01b03166118b55780826004015411156118095760405162461bcd60e51b815260040161033890614e55565b600482018190553080318211156118325760405162461bcd60e51b815260040161033890614ffb565b6000336001600160a01b03168360405161184b9061467f565b60006040518083038185875af1925050503d8060008114611888576040519150601f19603f3d011682016040523d82523d6000602084013e61188d565b606091505b50509050806118ae5760405162461bcd60e51b815260040161033890614d2c565b505061197f565b80826004015411156118d95760405162461bcd60e51b815260040161033890614e55565b600480830182905560025460405163a9059cbb60e01b81526001600160a01b039091169163a9059cbb91611911913391869101614696565b602060405180830381600087803b15801561192b57600080fd5b505af115801561193f573d6000803e3d6000fd5b505050506040513d601f19601f8201168201806040525081019061196391906144da565b61197f5760405162461bcd60e51b81526004016103389061495f565b6004820154600583015460405133927fdf273cb619d95419a9cd0ec88123a0538c85064229baa6363788f743fff90deb926119b992615311565b60405180910390a2505050505050565b7f52eafc11f6f81f86878bffd31109a0d92f37506527754f00788853ff9f63b13081565b6002546001600160a01b031681565b60055481565b600b5415611a225760405162461bcd60e51b815260040161033890614bc6565b6001600b5560035460408051631718ecd760e31b815290516001600160a01b039092169163b8c766b891600480820192602092909190829003018186803b158015611a6c57600080fd5b505afa158015611a80573d6000803e3d6000fd5b505050506040513d601f19601f82011682018060405250810190611aa491906144da565b611ac05760405162461bcd60e51b815260040161033890614a79565b336000908152600960205260408120600654600182015410611af45760405162461bcd60e51b815260040161033890614d01565b611afe3343611cfd565b915060008211611b205760405162461bcd60e51b81526004016103389061488b565b60035460405163032f7adb60e61b81526000916001600160a01b03169063cbdeb6c090611b51903090600401614682565b60206040518083038186803b158015611b6957600080fd5b505afa158015611b7d573d6000803e3d6000fd5b505050506040513d601f19601f82011682018060405250810190611ba1919061455e565b905080611bb984600754613a4190919063ffffffff16565b1115611bd75760405162461bcd60e51b815260040161033890615219565b4360018301556002820154611bec9084613a41565b6002830155600754611bfe9084613a41565b600755600354604051635569f64b60e11b81526001600160a01b039091169063aad3ec9690611c339033908790600401614696565b602060405180830381600087803b158015611c4d57600080fd5b505af1158015611c61573d6000803e3d6000fd5b505050506040513d601f19601f82011682018060405250810190611c8591906144da565b611ca15760405162461bcd60e51b815260040161033890614ecf565b336001600160a01b03167f987d620f307ff6b94d58743cb7a7509f24071586a77759b77c2d4e29f75a2f9a8443604051611cdc929190615311565b60405180910390a250506000600b5550565b60085481565b600c5460ff1681565b6006546000908190831115611d125760065492505b600554831080611d3857506001600160a01b038416600090815260096020526040902054155b80611d5f57506006546001600160a01b038516600090815260096020526040902060010154115b80611d8457506001600160a01b03841660009081526009602052604090206001015483105b15611d915750600061204c565b6005546006546001600160a01b038616600090815260096020526040902060010154821015611dd9576001600160a01b03861660009081526009602052604090206001015491505b80851015611de45750835b6003546040805163c1b422fd60e01b815290516000926001600160a01b03169163c1b422fd9160048083019286929190829003018186803b158015611e2857600080fd5b505afa158015611e3c573d6000803e3d6000fd5b505050506040513d6000823e601f3d908101601f19168201604052611e64919081019061442c565b805190915015612048576003546040805163d105bf8560e01b815290516000928692849283926001600160a01b03169163d105bf85916004808301926020929190829003018186803b158015611eb957600080fd5b505afa158015611ecd573d6000803e3d6000fd5b505050506040513d601f19601f82011682018060405250810190611ef1919061455e565b6001600160a01b038c166000908152600960205260408120549192508c91905b875181101561204057878181518110611f2657fe5b6020908102919091010151600354604051632f8deb1560e11b81529198506001600160a01b031690635f1bd62a90611f62908a906004016147dd565b60206040518083038186803b158015611f7a57600080fd5b505afa158015611f8e573d6000803e3d6000fd5b505050506040513d601f19601f82011682018060405250810190611fb2919061455e565b945086861115611fc157612038565b868911612007578415612002576000611fda8a8c613fd3565b9050611ffe611ff78761173a86611ff18a87613bb3565b90613bb3565b8d90613a41565b9b50505b612040565b8415612034576000612019888c613fd3565b9050612030611ff78761173a86611ff18a87613bb3565b9b50505b8699505b600101611f11565b505050505050505b5050505b9392505050565b6001546001600160a01b031681565b6010546001600160a01b031681565b601b5460ff1681565b6011546001600160a01b031681565b600f546001600160a01b031681565b6120a133610fa8565b6120dc5760405162461bcd60e51b81526004018080602001828103825260228152602001806153c66022913960400191505060405180910390fd5b610f8a60008051602061543983398151915282611171565b600b54156121145760405162461bcd60e51b815260040161033890614bc6565b6001600b819055546001600160a01b0316806121425760405162461bcd60e51b8152600401610338906147e6565b600360009054906101000a90046001600160a01b03166001600160a01b031663b8c766b86040518163ffffffff1660e01b815260040160206040518083038186803b15801561219057600080fd5b505afa1580156121a4573d6000803e3d6000fd5b505050506040513d601f19601f820116820180604052508101906121c891906144da565b6121e45760405162461bcd60e51b815260040161033890615171565b60125482906001600160a01b038083169116146122135760405162461bcd60e51b815260040161033890614d9a565b6003601955601a54612226906001613a41565b601a55612231610fec565b601054604051636b2160b760e01b81526001600160a01b0390911690636b2160b790612261908690600401614682565b602060405180830381600087803b15801561227b57600080fd5b505af115801561228f573d6000803e3d6000fd5b505050506040513d601f19601f820116820180604052508101906122b391906144da565b507fd1c4e96e0fd22936ea8aebe0b8e06b19f1c4a836b141a34cf9e925d2afb20523836040516122e39190614682565b60405180910390a150506000600b5550565b60195481565b600b541561231b5760405162461bcd60e51b815260040161033890614bc6565b6001600b819055546001600160a01b0316806123495760405162461bcd60e51b8152600401610338906147e6565b600360009054906101000a90046001600160a01b03166001600160a01b031663b8c766b86040518163ffffffff1660e01b815260040160206040518083038186803b15801561239757600080fd5b505afa1580156123ab573d6000803e3d6000fd5b505050506040513d601f19601f820116820180604052508101906123cf91906144da565b6123eb5760405162461bcd60e51b815260040161033890615171565b60125482906001600160a01b0380831691161461241a5760405162461bcd60e51b815260040161033890614d9a565b6005601954141561243d5760405162461bcd60e51b815260040161033890614f06565b6005601955601a80546000909155612453610fec565b600f546012546040516367265c3b60e11b81526001600160a01b039283169263ce4cb876926124899291169030906004016146d0565b60206040518083038186803b1580156124a157600080fd5b505afa1580156124b5573d6000803e3d6000fd5b505050506040513d601f19601f820116820180604052508101906124d9919061455e565b6124ee57601280546001600160a01b03191690555b601054604051632638fdf560e01b815261257b916001600160a01b031690632638fdf59061252290889030906004016146d0565b60206040518083038186803b15801561253a57600080fd5b505afa15801561254e573d6000803e3d6000fd5b505050506040513d601f19601f82011682018060405250810190612572919061455e565b60145490613a41565b60145560105460405163fb0713b160e01b81526001600160a01b039091169063fb0713b1906125b3908790859060019060040161477f565b602060405180830381600087803b1580156125cd57600080fd5b505af11580156125e1573d6000803e3d6000fd5b505050506040513d601f19601f8201168201806040525081019061260591906144da565b507f76d210b2dc3da8be1904d8b5da9feb5cdd21af436261626c4ec607e2123b417d8482600160405161263a9392919061477f565b60405180910390a150506000600b555050565b61265633610fa8565b6126915760405162461bcd60e51b81526004018080602001828103825260228152602001806153c66022913960400191505060405180910390fd5b6001600160a01b0381166126e7576040805162461bcd60e51b815260206004820152601860248201527741636365737369626c653a207a65726f206164647265737360401b604482015290519081900360640190fd5b336001600160a01b038216141561273e576040805162461bcd60e51b815260206004820152601660248201527520b1b1b2b9b9b4b136329d1039b0b6b29030b236b4b760511b604482015290519081900360640190fd5b61275660008051602061543983398151915282611171565b610f8a600080516020615439833981519152336111d8565b60008051602061543983398151915281565b600b54156127a05760405162461bcd60e51b815260040161033890614bc6565b6001600b556127ad610fec565b8015612958576011546001600160a01b03166127db5760405162461bcd60e51b81526004016103389061492a565b600d546040516370a0823160e01b815283916001600160a01b0316906370a082319061280b903090600401614682565b60206040518083038186803b15801561282357600080fd5b505afa158015612837573d6000803e3d6000fd5b505050506040513d601f19601f8201168201806040525081019061285b919061455e565b10156128795760405162461bcd60e51b815260040161033890614ade565b60115460405160009161289c916001600160a01b039091169081906020016146d0565b60408051601f1981840301815290829052600d54600e5463cae9ca5160e01b84529193506001600160a01b039081169263cae9ca51926128e4921690879086906004016147a2565b602060405180830381600087803b1580156128fe57600080fd5b505af1158015612912573d6000803e3d6000fd5b505050506040513d601f19601f8201168201806040525081019061293691906144da565b6129525760405162461bcd60e51b815260040161033890614e06565b50612a94565b600e546040516370a0823160e01b815283916001600160a01b0316906370a0823190612988903090600401614682565b60206040518083038186803b1580156129a057600080fd5b505afa1580156129b4573d6000803e3d6000fd5b505050506040513d601f19601f820116820180604052508101906129d8919061455e565b10156129f65760405162461bcd60e51b815260040161033890614b6d565b600e5460405163f53fe70f60e01b81526001600160a01b039091169063f53fe70f90612a269085906004016147dd565b602060405180830381600087803b158015612a4057600080fd5b505af1158015612a54573d6000803e3d6000fd5b505050506040513d601f19601f82011682018060405250810190612a7891906144da565b612a945760405162461bcd60e51b815260040161033890614f4c565b50506000600b55565b600a5481565b600e546001600160a01b031681565b6000828152601c6020526040812061204c9083614015565b6000828152601c6020526040812061204c9083614021565b6012546001600160a01b031681565b600080612afc6142f7565b5050600254600354604080516060810182526004548152600554602082015260065491810191909152600754600854600a546001600160a01b03958616979590941695509193909290565b600c5461010090046001600160a01b031681565b600c54600160a81b900460ff1681565b600081565b612b7933610fa8565b612bb45760405162461bcd60e51b81526004018080602001828103825260228152602001806153c66022913960400191505060405180910390fd5b6001600160a01b03811615801590612bda57506012546001600160a01b03828116911614155b612bf65760405162461bcd60e51b8152600401610338906148e9565b601280546001600160a01b0319166001600160a01b0383161790556040517fbcf2b04f5517cca822ae60e21bb6e3889b8d8307ea062c5266c63a014386c99090612c41908390614682565b60405180910390a150565b612c5533610fa8565b612c905760405162461bcd60e51b81526004018080602001828103825260228152602001806153c66022913960400191505060405180910390fd5b806001600160a01b038116612cb75760405162461bcd60e51b8152600401610338906147e6565b600180546001600160a01b0319166001600160a01b0384811691909117918290556040517f278c70ced5f3e0e5eeb385b5ff9cb735748ba00a625147e66065ed48fc1562cd92612d08921690614682565b60405180910390a15050565b6009602052600090815260409020805460018201546002830154600384015460048501546005860154600690960154949593949293919290919060ff1687565b60075481565b6000818152601c60205260408120610fc290614036565b600d546001600160a01b031681565b600b5415612da05760405162461bcd60e51b815260040161033890614bc6565b6001600b819055546001600160a01b031680612dce5760405162461bcd60e51b8152600401610338906147e6565b600360009054906101000a90046001600160a01b03166001600160a01b031663b8c766b86040518163ffffffff1660e01b815260040160206040518083038186803b158015612e1c57600080fd5b505afa158015612e30573d6000803e3d6000fd5b505050506040513d601f19601f82011682018060405250810190612e5491906144da565b612e705760405162461bcd60e51b815260040161033890615171565b60125483906001600160a01b03808316911614612e9f5760405162461bcd60e51b815260040161033890614d9a565b6003601955601a54612eb2906001613a41565b601a55612ebd610fec565b600f546040516367265c3b60e11b81526000916001600160a01b03169063ce4cb87690612ef090889030906004016146d0565b60206040518083038186803b158015612f0857600080fd5b505afa158015612f1c573d6000803e3d6000fd5b505050506040513d601f19601f82011682018060405250810190612f40919061455e565b905083811015612f625760405162461bcd60e51b8152600401610338906148bd565b60105460405163da95ebf760e01b81526001600160a01b039091169063da95ebf790612f949088908890600401614696565b602060405180830381600087803b158015612fae57600080fd5b505af1158015612fc2573d6000803e3d6000fd5b505050506040513d601f19601f82011682018060405250810190612fe691906144da565b507f2a23e23c116b511f71c9f0c2648b0372e6bbcb1f559a7cbfaed5c55933ea6c4e8585604051613018929190614696565b60405180910390a150506000600b55505050565b7ff0887ba65ee2024ea881d91b74c2450ef19e1557f03bed3ea9f16b037cbe2dc981565b6000828152601c602052604090206002015461306e90610716613a9b565b61122f5760405162461bcd60e51b81526004018080602001828103825260308152602001806153e86030913960400191505060405180910390fd5b6001600160a01b03166000908152600960205260409020805460018201546002830154600384015460048501546005860154600690960154949693959294919390929160ff1690565b601a5481565b60175481565b60185481565b6000600b546000146131285760405162461bcd60e51b815260040161033890614bc6565b6001600b5560035460408051631718ecd760e31b815290516001600160a01b039092169163b8c766b891600480820192602092909190829003018186803b15801561317257600080fd5b505afa158015613186573d6000803e3d6000fd5b505050506040513d601f19601f820116820180604052508101906131aa91906144da565b6131c65760405162461bcd60e51b815260040161033890615171565b6006544311156131e85760405162461bcd60e51b8152600401610338906150a5565b600282106132085760405162461bcd60e51b815260040161033890615064565b613210610fec565b600e546040516370a0823160e01b81526000916001600160a01b0316906370a0823190613241903090600401614682565b60206040518083038186803b15801561325957600080fd5b505afa15801561326d573d6000803e3d6000fd5b505050506040513d601f19601f82011682018060405250810190613291919061455e565b600d546040516370a0823160e01b81529192506000916001600160a01b03909116906370a08231906132c7903090600401614682565b60206040518083038186803b1580156132df57600080fd5b505afa1580156132f3573d6000803e3d6000fd5b505050506040513d601f19601f82011682018060405250810190613317919061455e565b6012549091506000906001600160a01b03161561344b57600f546012546040516367265c3b60e11b81526001600160a01b039283169263ce4cb876926133649291169030906004016146d0565b60206040518083038186803b15801561337c57600080fd5b505afa158015613390573d6000803e3d6000fd5b505050506040513d601f19601f820116820180604052508101906133b4919061455e565b601054601254604051632638fdf560e01b8152929350613448926001600160a01b0392831692632638fdf5926133f19291169030906004016146d0565b60206040518083038186803b15801561340957600080fd5b505afa15801561341d573d6000803e3d6000fd5b505050506040513d601f19601f82011682018060405250810190613441919061455e565b8290613a41565b90505b8282156134665761346361344184633b9aca00613bb3565b90505b898110156134865760405162461bcd60e51b815260040161033890614dd1565b8115613499576134968183613a41565b90505b6008546134aa90633b9aca00613bb3565b811180156134da5750896134d76134d0633b9aca00600854613bb390919063ffffffff16565b8390613fd3565b10155b6134f65760405162461bcd60e51b815260040161033890614d63565b898410156135f257601154604051600091613521916001600160a01b039091169081906020016146d0565b60408051601f1981840301815291905290506000613547633b9aca0061173a8e89613fd3565b600d54600e5460405163cae9ca5160e01b81529293506001600160a01b039182169263cae9ca5192613581921690859087906004016147a2565b602060405180830381600087803b15801561359b57600080fd5b505af11580156135af573d6000803e3d6000fd5b505050506040513d601f19601f820116820180604052508101906135d391906144da565b6135ef5760405162461bcd60e51b815260040161033890614cae565b50505b50506015546136049250905087613a41565b6015819055506000806000600160009054906101000a90046001600160a01b03166001600160a01b031663504563c06040518163ffffffff1660e01b815260040160a06040518083038186803b15801561365d57600080fd5b505afa158015613671573d6000803e3d6000fd5b505050506040513d601f19601f8201168201806040525081019061369591906143a5565b509295509350909150506001600160a01b0383166136c55760405162461bcd60e51b81526004016103389061481d565b600e5460405163095ea7b360e01b81526001600160a01b039091169063095ea7b3906136f79086908d90600401614696565b602060405180830381600087803b15801561371157600080fd5b505af1158015613725573d6000803e3d6000fd5b505050506040513d601f19601f8201168201806040525081019061374991906144da565b6137655760405162461bcd60e51b8152600401610338906151d0565b8461383b576040805161010081018252600e546001600160a01b0390811682526000548116602083015262ffffff841682840152306060830152608082018a905260a082018c905260c082018b905288811660e0830152915163414bf38960e01b8152909185169063414bf389906137e19084906004016152a8565b602060405180830381600087803b1580156137fb57600080fd5b505af115801561380f573d6000803e3d6000fd5b505050506040513d601f19601f82011682018060405250810190613833919061455e565b945050613932565b8460011415613932576040805160a08101909152600e5460008054909291829161387b916001600160a01b03908116918791899183911660c0870161462d565b6040516020818303038152906040528152602001306001600160a01b031681526020018981526020018b81526020018a8152509050836001600160a01b031663c04b8d59826040518263ffffffff1660e01b81526004016138dc9190615250565b602060405180830381600087803b1580156138f657600080fd5b505af115801561390a573d6000803e3d6000fd5b505050506040513d601f19601f8201168201806040525081019061392e919061455e565b9450505b7f6ad50db5d488c314f9077fc5c41c7d8bcdd86ddc409871512ddd009f21067d32338a86604051613965939291906146af565b60405180910390a150506000600b555095945050505050565b6003546001600160a01b031681565b6000546001600160a01b031681565b60135481565b6000806000806000600160009054906101000a90046001600160a01b03166001600160a01b031663504563c06040518163ffffffff1660e01b815260040160a06040518083038186803b1580156139f857600080fd5b505afa158015613a0c573d6000803e3d6000fd5b505050506040513d601f19601f82011682018060405250810190613a3091906143a5565b945094509450945094509091929394565b60008282018381101561204c576040805162461bcd60e51b815260206004820152601b60248201527f536166654d6174683a206164646974696f6e206f766572666c6f770000000000604482015290519081900360640190fd5b3390565b6000828152601c60205260409020613ab79082614041565b156111d457613ac4613a9b565b6001600160a01b0316816001600160a01b0316837f2f8788117e7eff1d82e926ec794901d17c78024a50270940304540a733656f0d60405160405180910390a45050565b6000828152601c60205260409020613b209082614056565b156111d457613b2d613a9b565b6001600160a01b0316816001600160a01b0316837ff6391f5c32d9c69d2a47ea670b442974b53935d1edc7fd64eb21e047a839171b60405160405180910390a45050565b600061204c83836040518060400160405280601a81526020017f536166654d6174683a206469766973696f6e206279207a65726f00000000000081525061406b565b600082613bc257506000610fc2565b82820282848281613bcf57fe5b041461204c5760405162461bcd60e51b81526004018080602001828103825260218152602001806154186021913960400191505060405180910390fd5b8215613d4a576040516370a0823160e01b815283906001600160a01b038716906370a0823190613c40903090600401614682565b60206040518083038186803b158015613c5857600080fd5b505afa158015613c6c573d6000803e3d6000fd5b505050506040513d601f19601f82011682018060405250810190613c90919061455e565b1015613cae5760405162461bcd60e51b81526004016103389061513a565b60405163a9059cbb60e01b81526001600160a01b0386169063a9059cbb90613cdc9033908790600401614696565b602060405180830381600087803b158015613cf657600080fd5b505af1158015613d0a573d6000803e3d6000fd5b505050506040513d601f19601f82011682018060405250810190613d2e91906144da565b613d4a5760405162461bcd60e51b815260040161033890614aa7565b8115613e88576040516370a0823160e01b815282906001600160a01b038616906370a0823190613d7e903090600401614682565b60206040518083038186803b158015613d9657600080fd5b505afa158015613daa573d6000803e3d6000fd5b505050506040513d601f19601f82011682018060405250810190613dce919061455e565b1015613dec5760405162461bcd60e51b815260040161033890615103565b60405163e3b99e8560e01b81526001600160a01b0385169063e3b99e8590613e1a9033908690600401614696565b602060405180830381600087803b158015613e3457600080fd5b505af1158015613e48573d6000803e3d6000fd5b505050506040513d601f19601f82011682018060405250810190613e6c91906144da565b613e885760405162461bcd60e51b815260040161033890614b36565b8015613fcc576000546040516370a0823160e01b815282916001600160a01b0316906370a0823190613ebe903090600401614682565b60206040518083038186803b158015613ed657600080fd5b505afa158015613eea573d6000803e3d6000fd5b505050506040513d601f19601f82011682018060405250810190613f0e919061455e565b1015613f2c5760405162461bcd60e51b81526004016103389061502d565b60005460405163a9059cbb60e01b81526001600160a01b039091169063a9059cbb90613f5e9033908590600401614696565b602060405180830381600087803b158015613f7857600080fd5b505af1158015613f8c573d6000803e3d6000fd5b505050506040513d601f19601f82011682018060405250810190613fb091906144da565b613fcc5760405162461bcd60e51b8152600401610338906149c2565b5050505050565b600061204c83836040518060400160405280601e81526020017f536166654d6174683a207375627472616374696f6e206f766572666c6f77000081525061410d565b600061204c8383614167565b600061204c836001600160a01b0384166141cb565b6000610fc2826141e3565b600061204c836001600160a01b0384166141e7565b600061204c836001600160a01b038416614231565b600081836140f75760405162461bcd60e51b81526004018080602001828103825283818151815260200191508051906020019080838360005b838110156140bc5781810151838201526020016140a4565b50505050905090810190601f1680156140e95780820380516001836020036101000a031916815260200191505b509250505060405180910390fd5b50600083858161410357fe5b0495945050505050565b6000818484111561415f5760405162461bcd60e51b81526020600482018181528351602484015283519092839260449091019190850190808383600083156140bc5781810151838201526020016140a4565b505050900390565b815460009082106141a95760405162461bcd60e51b81526004018080602001828103825260228152602001806153756022913960400191505060405180910390fd5b8260000182815481106141b857fe5b9060005260206000200154905092915050565b60009081526001919091016020526040902054151590565b5490565b60006141f383836141cb565b61422957508154600181810184556000848152602080822090930184905584548482528286019093526040902091909155610fc2565b506000610fc2565b600081815260018301602052604081205480156142ed578354600019808301919081019060009087908390811061426457fe5b906000526020600020015490508087600001848154811061428157fe5b6000918252602080832090910192909255828152600189810190925260409020908401905586548790806142b157fe5b60019003818190600052602060002001600090559055866001016000878152602001908152602001600020600090556001945050505050610fc2565b6000915050610fc2565b60405180606001604052806003906020820280368337509192915050565b600060208284031215614326578081fd5b813561204c81615351565b600080600080600060a08688031215614348578081fd5b855161435381615351565b602087015190955061436481615351565b604087015190945061437581615351565b606087015190935061438681615351565b608087015190925061439781615351565b809150509295509295909350565b600080600080600060a086880312156143bc578081fd5b85516143c781615351565b60208701519095506143d881615351565b60408701519094506143e981615351565b60608701516080880151919450925061439781615351565b60008060408385031215614413578182fd5b823561441e81615351565b946020939093013593505050565b6000602080838503121561443e578182fd5b825167ffffffffffffffff80821115614455578384fd5b818501915085601f830112614468578384fd5b81518181111561447457fe5b8381026040518582820101818110858211171561448d57fe5b604052828152858101935084860182860187018a10156144ab578788fd5b8795505b838610156144cd5780518552600195909501949386019386016144af565b5098975050505050505050565b6000602082840312156144eb578081fd5b815161204c81615366565b600060208284031215614507578081fd5b5035919050565b60008060408385031215614520578182fd5b82359150602083013561453281615351565b809150509250929050565b6000806040838503121561454f578182fd5b50508035926020909101359150565b60006020828403121561456f578081fd5b5051919050565b60008060408385031215614588578182fd5b82359150602083013561453281615366565b600080600080600060a086880312156145b1578081fd5b85359450602086013593506040860135925060608601356145d181615351565b949793965091946080013592915050565b60008151808452815b81811015614607576020818501810151868301820152016145eb565b818111156146185782602083870101525b50601f01601f19169290920160200192915050565b6bffffffffffffffffffffffff19606096871b811682526001600160e81b031960e896871b8116601484015294871b811660178301529290941b909216602b840152921b909116602e82015260420190565b90565b6001600160a01b0391909116815260200190565b6001600160a01b03929092168252602082015260400190565b6001600160a01b039390931683526020830191909152604082015260600190565b6001600160a01b0392831681529116602082015260400190565b6001600160a01b039586168152938516602085015291841660408401526060830152909116608082015260a00190565b6001600160a01b038781168252861660208083019190915261010082019060408301908760005b600381101561475e57815184529282019290820190600101614741565b505050508460a08301528360c08301528260e0830152979650505050505050565b6001600160a01b0393909316835260208301919091521515604082015260600190565b600060018060a01b0385168252836020830152606060408301526147c960608301846145e2565b95945050505050565b901515815260200190565b90815260200190565b6020808252601b908201527f546f6b616d616b5374616b65723a207a65726f20616464726573730000000000604082015260600190565b6020808252601a908201527f546f6b616d616b5374616b65723a756e6973776170207a65726f000000000000604082015260600190565b6020808252601a908201527f5374616b65544f4e3a20416c7265616479207769746864726177000000000000604082015260600190565b6020808252601890820152775374616b65544f4e3a20726577617264206973207a65726f60401b604082015260600190565b602080825260129082015271546f6b616d616b5374616b65723a6c61636b60701b604082015260600190565b60208082526021908201527f546f6b616d616b5374616b65723a746f6b616d616b4c6179657232207a65726f6040820152600160fd1b606082015260800190565b6020808252818101527f546f6b616d616b5374616b65723a207377617050726f7879206973207a65726f604082015260600190565b60208082526017908201527614dd185ad95513d38e881d1c985b9cd9995c8819985a5b604a1b604082015260600190565b602080825260189082015277151bdad85b585ad4dd185ad95c8e9c195c9a5bd908195b9960421b604082015260600190565b6020808252601b908201527f5374616b65544f4e3a207472616e7366657220746f73206661696c0000000000604082015260600190565b60208082526029908201527f546f6b616d616b5374616b65723a706572696f64287769746864726177616c44604082015268195b185e4a48195b9960ba1b606082015260800190565b6020808252601f908201527f5374616b65544f4e3a2049546f6b616d616b5265676973747279207a65726f00604082015260600190565b60208082526014908201527314dd185ad95513d38e881b9bdd0818db1bdcd95960621b604082015260600190565b6020808252601b908201527f5374616b65544f4e3a207472616e7366657220746f6e206661696c0000000000604082015260600190565b60208082526038908201527f546f6b616d616b5374616b65723a2073776170544f4e746f57544f4e20746f6e6040820152770818985b185b98d9481a5cc81a5b9cdd59999a58da595b9d60421b606082015260800190565b6020808252601c908201527f5374616b65544f4e3a207472616e736665722077746f6e206661696c00000000604082015260600190565b60208082526039908201527f546f6b616d616b5374616b65723a2073776170544f4e746f57544f4e2077746f6040820152781b8818985b185b98d9481a5cc81a5b9cdd59999a58da595b9d603a1b606082015260800190565b602080825260149082015273151bdad85b585ad4dd185ad95c8e9313d0d2d15160621b604082015260600190565b60208082526022908201527f5374616b65544f4e3a2072656d61696e20616d6f756e7420696e20746f6b616d604082015261616b60f01b606082015260800190565b6020808252601e908201527f5374616b65544f4e3a2066696e616c42616c616e6365206973206c61636b0000604082015260600190565b60208082526021908201527f546f6b616d616b5374616b65723a617070726f7665416e6443616c6c206661696040820152601b60fa1b606082015260800190565b60208082526033908201527f546f6b616d616b5374616b65723a65786368616e676557544f4e746f544f5320604082015272185c1c1c9bdd99505b9910d85b1b0819985a5b606a1b606082015260800190565b60208082526011908201527014dd185ad95513d38e8818db185a5b5959607a1b604082015260600190565b6020808252601a908201527f5374616b65544f4e3a207769746864726177206661696c65642e000000000000604082015260600190565b6020808252601a908201527f546f6b616d616b5374616b65723a696e73756666696369656e74000000000000604082015260600190565b6020808252601d908201527f546f6b616d616b5374616b65723a646966666572656e74206c61796572000000604082015260600190565b6020808252818101527f546f6b616d616b5374616b65723a2077746f6e20696e73756666696369656e74604082015260600190565b6020808252602f908201527f546f6b616d616b5374616b65723a73776170544f4e746f57544f4e206170707260408201526e1bdd99505b9910d85b1b0819985a5b608a1b606082015260800190565b6020808252601690820152755374616b65544f4e3a20416d6f756e742077726f6e6760501b604082015260600190565b6020808252602a908201527f546f6b616d616b5374616b65723a20746f6e2062616c616e636520697320696e6040820152691cdd59999a58da595b9d60b21b606082015260800190565b6020808252601f908201527f5374616b65544f4e3a206661696c20636c61696d2066726f6d207661756c7400604082015260600190565b60208082526026908201527f546f6b616d616b5374616b65723a416c72656164792050726f63657373556e5360408201526574616b696e6760d01b606082015260800190565b6020808252601c908201527f546f6b616d616b5374616b65723a73776170546f544f4e206661696c00000000604082015260600190565b6020808252601a908201527f546f6b616d616b5374616b65723a746f6b616d616b207a65726f000000000000604082015260600190565b60208082526021908201527f546f6b616d616b5374616b65723a7374616b65416d6f756e74206973207a65726040820152606f60f81b606082015260800190565b6020808252601890820152770a6e8c2d6caa89e9c7440d2dce6eaccccd2cadce8408aa8960431b604082015260600190565b6020808252601d908201527f5374616b65544f4e3a20746f732062616c616e6365206973206c61636b000000604082015260600190565b60208082526021908201527f546f6b616d616b5374616b65723a206e6f7420617661696c61626c65206b696e6040820152601960fa1b606082015260800190565b602080825260199082015278151bdad85b585ad4dd185ad95c8e881c195c9a5bd908195b99603a1b604082015260600190565b60208082526011908201527014dd185ad95513d38e881b9bdd08195b99607a1b604082015260600190565b6020808252601e908201527f5374616b65544f4e3a2077746f6e2062616c616e6365206973206c61636b0000604082015260600190565b6020808252601d908201527f5374616b65544f4e3a20746f6e2062616c616e6365206973206c61636b000000604082015260600190565b602080825260199082015278151bdad85b585ad4dd185ad95c8e881b9bdd0818db1bdcd959603a1b604082015260600190565b60208082526012908201527131b0b73737ba1039ba30b5b29022ba3432b960711b604082015260600190565b60208082526029908201527f546f6b616d616b5374616b65723a63616e277420617070726f766520756e69736040820152683bb0b82937baba32b960b91b606082015260800190565b6020808252601e908201527f5374616b65544f4e3a20746f74616c2072657761726420657863656564730000604082015260600190565b600060208252825160a0602084015261526c60c08401826145e2565b905060018060a01b0360208501511660408401526040840151606084015260608401516080840152608084015160a08401528091505092915050565b81516001600160a01b03908116825260208084015182169083015260408084015162ffffff16908301526060808401518216908301526080808401519083015260a0838101519083015260c0808401519083015260e09283015116918101919091526101000190565b918252602082015260400190565b968752602087019590955260408601939093526060850191909152608084015260a0830152151560c082015260e00190565b6001600160a01b0381168114610f8a57600080fd5b8015158114610f8a57600080fdfe456e756d657261626c655365743a20696e646578206f7574206f6620626f756e6473416363657373436f6e74726f6c3a2073656e646572206d75737420626520616e2061646d696e20746f206772616e7441636365737369626c653a2043616c6c6572206973206e6f7420616e2061646d696e416363657373436f6e74726f6c3a2073656e646572206d75737420626520616e2061646d696e20746f207265766f6b65536166654d6174683a206d756c7469706c69636174696f6e206f766572666c6f77df8b4c520ffe197c5343c6f5aec59570151ef9a492f2c624fd45ddde6135ec42416363657373436f6e74726f6c3a2063616e206f6e6c792072656e6f756e636520726f6c657320666f722073656c66a2646970667358221220a694b4c170dc6f2f859a2ab459bf315982a4e3f94a19f45f3ce056d4dd2810b864736f6c63430007060033",
  "linkReferences": {},
  "deployedLinkReferences": {}
}