{
  "_format": "hh-sol-artifact-1",
  "contractName": "StakeTONUnstaking",
  "sourceName": "contracts/stake/StakeTONUnstaking.sol",
  "abi": [
    {
      "inputs": [],
      "stateMutability": "nonpayable",
      "type": "constructor"
    },
    {
      "anonymous": false,
      "inputs": [
        {
          "indexed": true,
          "internalType": "bytes32",
          "name": "role",
          "type": "bytes32"
        },
        {
          "indexed": true,
          "internalType": "bytes32",
          "name": "previousAdminRole",
          "type": "bytes32"
        },
        {
          "indexed": true,
          "internalType": "bytes32",
          "name": "newAdminRole",
          "type": "bytes32"
        }
      ],
      "name": "RoleAdminChanged",
      "type": "event"
    },
    {
      "anonymous": false,
      "inputs": [
        {
          "indexed": true,
          "internalType": "bytes32",
          "name": "role",
          "type": "bytes32"
        },
        {
          "indexed": true,
          "internalType": "address",
          "name": "account",
          "type": "address"
        },
        {
          "indexed": true,
          "internalType": "address",
          "name": "sender",
          "type": "address"
        }
      ],
      "name": "RoleGranted",
      "type": "event"
    },
    {
      "anonymous": false,
      "inputs": [
        {
          "indexed": true,
          "internalType": "bytes32",
          "name": "role",
          "type": "bytes32"
        },
        {
          "indexed": true,
          "internalType": "address",
          "name": "account",
          "type": "address"
        },
        {
          "indexed": true,
          "internalType": "address",
          "name": "sender",
          "type": "address"
        }
      ],
      "name": "RoleRevoked",
      "type": "event"
    },
    {
      "inputs": [],
      "name": "ADMIN_ROLE",
      "outputs": [
        {
          "internalType": "bytes32",
          "name": "",
          "type": "bytes32"
        }
      ],
      "stateMutability": "view",
      "type": "function"
    },
    {
      "inputs": [],
      "name": "BURNER_ROLE",
      "outputs": [
        {
          "internalType": "bytes32",
          "name": "",
          "type": "bytes32"
        }
      ],
      "stateMutability": "view",
      "type": "function"
    },
    {
      "inputs": [],
      "name": "DEFAULT_ADMIN_ROLE",
      "outputs": [
        {
          "internalType": "bytes32",
          "name": "",
          "type": "bytes32"
        }
      ],
      "stateMutability": "view",
      "type": "function"
    },
    {
      "inputs": [],
      "name": "MINTER_ROLE",
      "outputs": [
        {
          "internalType": "bytes32",
          "name": "",
          "type": "bytes32"
        }
      ],
      "stateMutability": "view",
      "type": "function"
    },
    {
      "inputs": [],
      "name": "PROJECT_ADMIN_ROLE",
      "outputs": [
        {
          "internalType": "bytes32",
          "name": "",
          "type": "bytes32"
        }
      ],
      "stateMutability": "view",
      "type": "function"
    },
    {
      "inputs": [
        {
          "internalType": "address",
          "name": "account",
          "type": "address"
        }
      ],
      "name": "addAdmin",
      "outputs": [],
      "stateMutability": "nonpayable",
      "type": "function"
    },
    {
      "inputs": [
        {
          "internalType": "uint256",
          "name": "_index",
          "type": "uint256"
        },
        {
          "internalType": "address",
          "name": "addr",
          "type": "address"
        }
      ],
      "name": "addStakeTon",
      "outputs": [],
      "stateMutability": "nonpayable",
      "type": "function"
    },
    {
      "inputs": [
        {
          "internalType": "address[]",
          "name": "_addr",
          "type": "address[]"
        }
      ],
      "name": "addStakeTons",
      "outputs": [],
      "stateMutability": "nonpayable",
      "type": "function"
    },
    {
      "inputs": [],
      "name": "canRequestUnstakingLayer2All",
      "outputs": [
        {
          "internalType": "bool",
          "name": "can",
          "type": "bool"
        },
        {
          "internalType": "bool[]",
          "name": "canRequestUnStaking",
          "type": "bool[]"
        },
        {
          "internalType": "bool[]",
          "name": "canRequestUnStakingAll",
          "type": "bool[]"
        }
      ],
      "stateMutability": "view",
      "type": "function"
    },
    {
      "inputs": [],
      "name": "countStakeTons",
      "outputs": [
        {
          "internalType": "uint256",
          "name": "",
          "type": "uint256"
        }
      ],
      "stateMutability": "view",
      "type": "function"
    },
    {
      "inputs": [
        {
          "internalType": "uint256",
          "name": "_index",
          "type": "uint256"
        }
      ],
      "name": "deleteStakeTon",
      "outputs": [],
      "stateMutability": "nonpayable",
      "type": "function"
    },
    {
      "inputs": [],
      "name": "depositManager",
      "outputs": [
        {
          "internalType": "address",
          "name": "",
          "type": "address"
        }
      ],
      "stateMutability": "view",
      "type": "function"
    },
    {
      "inputs": [
        {
          "internalType": "bytes32",
          "name": "role",
          "type": "bytes32"
        }
      ],
      "name": "getRoleAdmin",
      "outputs": [
        {
          "internalType": "bytes32",
          "name": "",
          "type": "bytes32"
        }
      ],
      "stateMutability": "view",
      "type": "function"
    },
    {
      "inputs": [
        {
          "internalType": "bytes32",
          "name": "role",
          "type": "bytes32"
        },
        {
          "internalType": "uint256",
          "name": "index",
          "type": "uint256"
        }
      ],
      "name": "getRoleMember",
      "outputs": [
        {
          "internalType": "address",
          "name": "",
          "type": "address"
        }
      ],
      "stateMutability": "view",
      "type": "function"
    },
    {
      "inputs": [
        {
          "internalType": "bytes32",
          "name": "role",
          "type": "bytes32"
        }
      ],
      "name": "getRoleMemberCount",
      "outputs": [
        {
          "internalType": "uint256",
          "name": "",
          "type": "uint256"
        }
      ],
      "stateMutability": "view",
      "type": "function"
    },
    {
      "inputs": [
        {
          "internalType": "bytes32",
          "name": "role",
          "type": "bytes32"
        },
        {
          "internalType": "address",
          "name": "account",
          "type": "address"
        }
      ],
      "name": "grantRole",
      "outputs": [],
      "stateMutability": "nonpayable",
      "type": "function"
    },
    {
      "inputs": [
        {
          "internalType": "bytes32",
          "name": "role",
          "type": "bytes32"
        },
        {
          "internalType": "address",
          "name": "account",
          "type": "address"
        }
      ],
      "name": "hasRole",
      "outputs": [
        {
          "internalType": "bool",
          "name": "",
          "type": "bool"
        }
      ],
      "stateMutability": "view",
      "type": "function"
    },
    {
      "inputs": [
        {
          "internalType": "address",
          "name": "account",
          "type": "address"
        }
      ],
      "name": "isAdmin",
      "outputs": [
        {
          "internalType": "bool",
          "name": "",
          "type": "bool"
        }
      ],
      "stateMutability": "view",
      "type": "function"
    },
    {
      "inputs": [],
      "name": "layer2",
      "outputs": [
        {
          "internalType": "address",
          "name": "",
          "type": "address"
        }
      ],
      "stateMutability": "view",
      "type": "function"
    },
    {
      "inputs": [
        {
          "internalType": "address",
          "name": "account",
          "type": "address"
        }
      ],
      "name": "removeAdmin",
      "outputs": [],
      "stateMutability": "nonpayable",
      "type": "function"
    },
    {
      "inputs": [
        {
          "internalType": "bytes32",
          "name": "role",
          "type": "bytes32"
        },
        {
          "internalType": "address",
          "name": "account",
          "type": "address"
        }
      ],
      "name": "renounceRole",
      "outputs": [],
      "stateMutability": "nonpayable",
      "type": "function"
    },
    {
      "inputs": [],
      "name": "requestUnstakingLayer2All",
      "outputs": [],
      "stateMutability": "nonpayable",
      "type": "function"
    },
    {
      "inputs": [
        {
          "internalType": "bytes32",
          "name": "role",
          "type": "bytes32"
        },
        {
          "internalType": "address",
          "name": "account",
          "type": "address"
        }
      ],
      "name": "revokeRole",
      "outputs": [],
      "stateMutability": "nonpayable",
      "type": "function"
    },
    {
      "inputs": [],
      "name": "seigManager",
      "outputs": [
        {
          "internalType": "address",
          "name": "",
          "type": "address"
        }
      ],
      "stateMutability": "view",
      "type": "function"
    },
    {
      "inputs": [
        {
          "internalType": "address",
          "name": "_ton",
          "type": "address"
        },
        {
          "internalType": "address",
          "name": "_wton",
          "type": "address"
        },
        {
          "internalType": "address",
          "name": "_tos",
          "type": "address"
        },
        {
          "internalType": "address",
          "name": "_depositManager",
          "type": "address"
        },
        {
          "internalType": "address",
          "name": "_seigManager",
          "type": "address"
        },
        {
          "internalType": "address",
          "name": "_layer2",
          "type": "address"
        },
        {
          "internalType": "uint256",
          "name": "_countStakeTons",
          "type": "uint256"
        }
      ],
      "name": "setInfo",
      "outputs": [],
      "stateMutability": "nonpayable",
      "type": "function"
    },
    {
      "inputs": [
        {
          "internalType": "uint256",
          "name": "",
          "type": "uint256"
        }
      ],
      "name": "stakeTons",
      "outputs": [
        {
          "internalType": "address",
          "name": "",
          "type": "address"
        }
      ],
      "stateMutability": "view",
      "type": "function"
    },
    {
      "inputs": [],
      "name": "ton",
      "outputs": [
        {
          "internalType": "address",
          "name": "",
          "type": "address"
        }
      ],
      "stateMutability": "view",
      "type": "function"
    },
    {
      "inputs": [],
      "name": "tos",
      "outputs": [
        {
          "internalType": "address",
          "name": "",
          "type": "address"
        }
      ],
      "stateMutability": "view",
      "type": "function"
    },
    {
      "inputs": [
        {
          "internalType": "address",
          "name": "newAdmin",
          "type": "address"
        }
      ],
      "name": "transferAdmin",
      "outputs": [],
      "stateMutability": "nonpayable",
      "type": "function"
    },
    {
      "inputs": [],
      "name": "wton",
      "outputs": [
        {
          "internalType": "address",
          "name": "",
          "type": "address"
        }
      ],
      "stateMutability": "view",
      "type": "function"
    }
  ],
  "bytecode": "0x60806040523480156200001157600080fd5b506200002d60008051602062001981833981519152806200004e565b620000486000805160206200198183398151915233620000a0565b620001b4565b600082815260208190526040808220600201549051839285917fbd79b86ffe0ab8e8776151514217cd7cacd52c909f66475c3af44e129f0b00ff9190a460009182526020829052604090912060020155565b620000ac8282620000b0565b5050565b600082815260208181526040909120620000d591839062000fa962000129821b17901c565b15620000ac57620000e562000149565b6001600160a01b0316816001600160a01b0316837f2f8788117e7eff1d82e926ec794901d17c78024a50270940304540a733656f0d60405160405180910390a45050565b600062000140836001600160a01b0384166200014d565b90505b92915050565b3390565b60006200015b83836200019c565b620001935750815460018181018455600084815260208082209093018490558454848252828601909352604090209190915562000143565b50600062000143565b60009081526001919091016020526040902054151590565b6117bd80620001c46000396000f3fe608060405234801561001057600080fd5b506004361061019a5760003560e01c806375bbb591116100e4578063a6d415be11610092578063a6d415be14610310578063ab6cc4bd14610318578063ca15c8731461032b578063cc48b9471461033e578063d539139314610346578063d547741f1461034e578063d7b2fb2c14610361578063f42be871146103785761019a565b806375bbb591146102b757806389f395de146102bf5780638d62d949146102c75780639010d07c146102cf57806391d14854146102e25780639d834795146102f5578063a217fddf146103085761019a565b806341c04d5e1161014c57806341c04d5e1461023e57806365752612146102465780636c7ac9d8146102595780636fb7f5581461026e578063704802751461027657806371aec17a1461028957806375829def1461029c57806375b238fc146102af5761019a565b80631785f53c1461019f578063248a9ca3146101b457806324d7806c146101dd578063282c51f3146101fd5780632ae63a47146102055780632f2ff15d1461021857806336568abe1461022b575b600080fd5b6101b26101ad366004611265565b610380565b005b6101c76101c23660046113b8565b6103df565b6040516101d491906114e3565b60405180910390f35b6101f06101eb366004611265565b6103f4565b6040516101d491906114a1565b6101c7610414565b6101b2610213366004611329565b610438565b6101b26102263660046113d0565b61052a565b6101b26102393660046113d0565b610591565b6101c76105f2565b6101b26102543660046113b8565b610616565b6102616106bc565b6040516101d49190611474565b6102616106cb565b6101b2610284366004611265565b6106da565b6102616102973660046113b8565b610736565b6101b26102aa366004611265565b610751565b6101c7610872565b6101c7610884565b61026161088a565b610261610899565b6102616102dd3660046113ff565b6108a8565b6101f06102f03660046113d0565b6108c7565b6101b26103033660046113d0565b6108df565b6101c7610995565b6101b261099a565b6101b261032636600461129d565b610b35565b6101c76103393660046113b8565b610beb565b610261610c02565b6101c7610c11565b6101b261035c3660046113d0565b610c35565b610369610c8e565b6040516101d4939291906114ac565b610261610f9a565b610389336103f4565b6103c45760405162461bcd60e51b81526004018080602001828103825260228152602001806116e76022913960400191505060405180910390fd5b6103dc60008051602061173983398151915282610591565b50565b60009081526020819052604090206002015490565b600061040e600080516020611739833981519152836108c7565b92915050565b7f9667e80708b6eeeb0053fa0cca44e028ff548e2a9f029edfeac87c118b08b7c881565b610441336103f4565b61047c5760405162461bcd60e51b81526004018080602001828103825260228152602001806116e76022913960400191505060405180910390fd5b806104a25760405162461bcd60e51b815260040161049990611523565b60405180910390fd5b60075481146104c35760405162461bcd60e51b81526004016104999061159e565b60015b818111610525578282600183038181106104dc57fe5b90506020020160208101906104f19190611265565b600082815260086020526040902080546001600160a01b0319166001600160a01b03929092169190911790556001016104c6565b505050565b600082815260208190526040902060020154610548906102f0610fbe565b6105835760405162461bcd60e51b815260040180806020018281038252602f8152602001806116b8602f913960400191505060405180910390fd5b61058d8282610fc2565b5050565b610599610fbe565b6001600160a01b0316816001600160a01b0316146105e85760405162461bcd60e51b815260040180806020018281038252602f815260200180611759602f913960400191505060405180910390fd5b61058d828261102b565b7f52eafc11f6f81f86878bffd31109a0d92f37506527754f00788853ff9f63b13081565b61061f336103f4565b61065a5760405162461bcd60e51b81526004018080602001828103825260228152602001806116e76022913960400191505060405180910390fd5b806000811161067b5760405162461bcd60e51b815260040161049990611639565b60075481111561069d5760405162461bcd60e51b81526004016104999061155a565b50600090815260086020526040902080546001600160a01b0319169055565b6004546001600160a01b031681565b6005546001600160a01b031681565b6106e3336103f4565b61071e5760405162461bcd60e51b81526004018080602001828103825260228152602001806116e76022913960400191505060405180910390fd5b6103dc6000805160206117398339815191528261052a565b6008602052600090815260409020546001600160a01b031681565b61075a336103f4565b6107955760405162461bcd60e51b81526004018080602001828103825260228152602001806116e76022913960400191505060405180910390fd5b6001600160a01b0381166107eb576040805162461bcd60e51b815260206004820152601860248201527741636365737369626c653a207a65726f206164647265737360401b604482015290519081900360640190fd5b336001600160a01b0382161415610842576040805162461bcd60e51b815260206004820152601660248201527520b1b1b2b9b9b4b136329d1039b0b6b29030b236b4b760511b604482015290519081900360640190fd5b61085a6000805160206117398339815191528261052a565b6103dc60008051602061173983398151915233610591565b60008051602061173983398151915281565b60075481565b6003546001600160a01b031681565b6002546001600160a01b031681565b60008281526020819052604081206108c09083611094565b9392505050565b60008281526020819052604081206108c090836110a0565b6108e8336103f4565b6109235760405162461bcd60e51b81526004018080602001828103825260228152602001806116e76022913960400191505060405180910390fd5b81600081116109445760405162461bcd60e51b815260040161049990611639565b6007548111156109665760405162461bcd60e51b81526004016104999061155a565b5060009182526008602052604090912080546001600160a01b0319166001600160a01b03909216919091179055565b600081565b6006546001600160a01b0316806109c35760405162461bcd60e51b8152600401610499906114ec565b60008060006109d0610c8e565b925092509250826109f35760405162461bcd60e51b8152600401610499906115e4565b60015b6007548111610b2e57816001820381518110610a0e57fe5b602002602001015115610a9357600081815260086020526040908190205460065491516371def0b360e01b81526001600160a01b03918216926371def0b392610a5c92911690600401611474565b600060405180830381600087803b158015610a7657600080fd5b505af1158015610a8a573d6000803e3d6000fd5b50505050610b26565b826001820381518110610aa257fe5b602002602001015115610b2657600081815260086020526040908190205460065491516367340e7360e11b81526001600160a01b039182169263ce681ce692610af392911690600190600401611488565b600060405180830381600087803b158015610b0d57600080fd5b505af1158015610b21573d6000803e3d6000fd5b505050505b6001016109f6565b5050505050565b610b3e336103f4565b610b795760405162461bcd60e51b81526004018080602001828103825260228152602001806116e76022913960400191505060405180910390fd5b600180546001600160a01b03199081166001600160a01b03998a1617909155600280548216978916979097179096556003805487169588169590951790945560048054861693871693909317909255600580548516918616919091179055600680549093169316929092179055600755565b600081815260208190526040812061040e906110b5565b6001546001600160a01b031681565b7ff0887ba65ee2024ea881d91b74c2450ef19e1557f03bed3ea9f16b037cbe2dc981565b600082815260208190526040902060020154610c53906102f0610fbe565b6105e85760405162461bcd60e51b81526004018080602001828103825260308152602001806117096030913960400191505060405180910390fd5b60065460009060609081906001600160a01b031680610cbf5760405162461bcd60e51b8152600401610499906114ec565b6000935060075467ffffffffffffffff81118015610cdc57600080fd5b50604051908082528060200260200182016040528015610d06578160200160208202803683370190505b50925060075467ffffffffffffffff81118015610d2257600080fd5b50604051908082528060200260200182016040528015610d4c578160200160208202803683370190505b50915060015b6007548111610f93576006546000828152600860209081526040918290205482516324ba8ed360e21b815292516001600160a01b0394851694909116926392ea3b4c926004808301939192829003018186803b158015610db157600080fd5b505afa158015610dc5573d6000803e3d6000fd5b505050506040513d601f19601f82011682018060405250810190610de99190611281565b6001600160a01b03161415610f8b5760008181526008602052604080822054600654915163343da9df60e11b81526001600160a01b039182169263687b53be92610e3892911690600401611474565b60206040518083038186803b158015610e5057600080fd5b505afa158015610e64573d6000803e3d6000fd5b505050506040513d601f19601f82011682018060405250810190610e889190611420565b60008381526008602052604080822054600654915163119ad35960e11b815293945091926001600160a01b0392831692632335a6b292610ecd92911690600401611474565b60206040518083038186803b158015610ee557600080fd5b505afa158015610ef9573d6000803e3d6000fd5b505050506040513d601f19601f82011682018060405250810190610f1d9190611398565b90506000821180610f2b5750805b15610f885786610f3a57600196505b8015610f66576001856001850381518110610f5157fe5b91151560209283029190910190910152610f88565b6001866001850381518110610f7757fe5b911515602092830291909101909101525b50505b600101610d52565b5050909192565b6006546001600160a01b031681565b60006108c0836001600160a01b0384166110c0565b3390565b6000828152602081905260409020610fda9082610fa9565b1561058d57610fe7610fbe565b6001600160a01b0316816001600160a01b0316837f2f8788117e7eff1d82e926ec794901d17c78024a50270940304540a733656f0d60405160405180910390a45050565b6000828152602081905260409020611043908261110a565b1561058d57611050610fbe565b6001600160a01b0316816001600160a01b0316837ff6391f5c32d9c69d2a47ea670b442974b53935d1edc7fd64eb21e047a839171b60405160405180910390a45050565b60006108c0838361111f565b60006108c0836001600160a01b038416611183565b600061040e8261119b565b60006110cc8383611183565b6111025750815460018181018455600084815260208082209093018490558454848252828601909352604090209190915561040e565b50600061040e565b60006108c0836001600160a01b03841661119f565b815460009082106111615760405162461bcd60e51b81526004018080602001828103825260228152602001806116966022913960400191505060405180910390fd5b82600001828154811061117057fe5b9060005260206000200154905092915050565b60009081526001919091016020526040902054151590565b5490565b6000818152600183016020526040812054801561125b57835460001980830191908101906000908790839081106111d257fe5b90600052602060002001549050808760000184815481106111ef57fe5b60009182526020808320909101929092558281526001898101909252604090209084019055865487908061121f57fe5b6001900381819060005260206000200160009055905586600101600087815260200190815260200160002060009055600194505050505061040e565b600091505061040e565b600060208284031215611276578081fd5b81356108c081611680565b600060208284031215611292578081fd5b81516108c081611680565b600080600080600080600060e0888a0312156112b7578283fd5b87356112c281611680565b965060208801356112d281611680565b955060408801356112e281611680565b945060608801356112f281611680565b9350608088013561130281611680565b925060a088013561131281611680565b8092505060c0880135905092959891949750929550565b6000806020838503121561133b578182fd5b823567ffffffffffffffff80821115611352578384fd5b818501915085601f830112611365578384fd5b813581811115611373578485fd5b8660208083028501011115611386578485fd5b60209290920196919550909350505050565b6000602082840312156113a9578081fd5b815180151581146108c0578182fd5b6000602082840312156113c9578081fd5b5035919050565b600080604083850312156113e2578182fd5b8235915060208301356113f481611680565b809150509250929050565b60008060408385031215611411578182fd5b50508035926020909101359150565b600060208284031215611431578081fd5b5051919050565b6000815180845260208085019450808401835b8381101561146957815115158752958201959082019060010161144b565b509495945050505050565b6001600160a01b0391909116815260200190565b6001600160a01b03929092168252602082015260400190565b901515815260200190565b60008415158252606060208301526114c76060830185611438565b82810360408401526114d98185611438565b9695505050505050565b90815260200190565b6020808252601f908201527f5374616b65544f4e556e7374616b696e673a207a65726f206164647265737300604082015260600190565b6020808252601e908201527f5374616b65544f4e556e7374616b696e673a207a65726f206c656e6774680000604082015260600190565b60208082526024908201527f5374616b65544f4e556e7374616b696e673a206578636565646564206d6178496040820152630dcc8caf60e31b606082015260800190565b60208082526026908201527f5374616b65544f4e556e7374616b696e673a206469666620636f756e745374616040820152656b65546f6e7360d01b606082015260800190565b60208082526035908201527f5374616b65544f4e556e7374616b696e673a206e6f20617661696c61626c65206040820152743ab739ba30b5b4b73390333937b6903630bcb2b91960591b606082015260800190565b60208082526027908201527f5374616b65544f4e556e7374616b696e673a2063616e277420757365207a65726040820152660de40d2dcc8caf60cb1b606082015260800190565b6001600160a01b03811681146103dc57600080fdfe456e756d657261626c655365743a20696e646578206f7574206f6620626f756e6473416363657373436f6e74726f6c3a2073656e646572206d75737420626520616e2061646d696e20746f206772616e7441636365737369626c653a2043616c6c6572206973206e6f7420616e2061646d696e416363657373436f6e74726f6c3a2073656e646572206d75737420626520616e2061646d696e20746f207265766f6b65df8b4c520ffe197c5343c6f5aec59570151ef9a492f2c624fd45ddde6135ec42416363657373436f6e74726f6c3a2063616e206f6e6c792072656e6f756e636520726f6c657320666f722073656c66a264697066735822122077897e1d95555ef7684a10feb2d1d1ca901c58112b51685238301c0763e43c3364736f6c63430007060033df8b4c520ffe197c5343c6f5aec59570151ef9a492f2c624fd45ddde6135ec42",
  "linkReferences": {},
  "deployedLinkReferences": {}
}