{
  "_format": "hh-sol-artifact-1",
  "contractName": "StakeUniswapV3",
  "sourceName": "contracts/stake/StakeUniswapV3.sol",
  "abi": [
    {
      "inputs": [],
      "stateMutability": "nonpayable",
      "type": "constructor"
    },
    {
      "anonymous": false,
      "inputs": [
        {
          "indexed": false,
          "internalType": "uint256",
          "name": "curTime",
          "type": "uint256"
        },
        {
          "indexed": false,
          "internalType": "uint256",
          "name": "tokenId",
          "type": "uint256"
        },
        {
          "indexed": false,
          "internalType": "uint256",
          "name": "burningAmount",
          "type": "uint256"
        },
        {
          "indexed": false,
          "internalType": "uint256",
          "name": "prevTotalSupply",
          "type": "uint256"
        },
        {
          "indexed": false,
          "internalType": "uint256",
          "name": "afterTotalSupply",
          "type": "uint256"
        }
      ],
      "name": "BurnedCoinage",
      "type": "event"
    },
    {
      "anonymous": false,
      "inputs": [
        {
          "indexed": true,
          "internalType": "address",
          "name": "to",
          "type": "address"
        },
        {
          "indexed": false,
          "internalType": "address",
          "name": "poolAddress",
          "type": "address"
        },
        {
          "indexed": false,
          "internalType": "uint256",
          "name": "tokenId",
          "type": "uint256"
        },
        {
          "indexed": false,
          "internalType": "uint256",
          "name": "miningAmount",
          "type": "uint256"
        },
        {
          "indexed": false,
          "internalType": "uint256",
          "name": "nonMiningAmount",
          "type": "uint256"
        }
      ],
      "name": "Claimed",
      "type": "event"
    },
    {
      "anonymous": false,
      "inputs": [
        {
          "indexed": false,
          "internalType": "uint256",
          "name": "curTime",
          "type": "uint256"
        },
        {
          "indexed": false,
          "internalType": "uint256",
          "name": "miningInterval",
          "type": "uint256"
        },
        {
          "indexed": false,
          "internalType": "uint256",
          "name": "miningAmount",
          "type": "uint256"
        },
        {
          "indexed": false,
          "internalType": "uint256",
          "name": "prevTotalSupply",
          "type": "uint256"
        },
        {
          "indexed": false,
          "internalType": "uint256",
          "name": "afterTotalSupply",
          "type": "uint256"
        },
        {
          "indexed": false,
          "internalType": "uint256",
          "name": "factor",
          "type": "uint256"
        }
      ],
      "name": "MinedCoinage",
      "type": "event"
    },
    {
      "anonymous": false,
      "inputs": [
        {
          "indexed": true,
          "internalType": "bytes32",
          "name": "role",
          "type": "bytes32"
        },
        {
          "indexed": true,
          "internalType": "bytes32",
          "name": "previousAdminRole",
          "type": "bytes32"
        },
        {
          "indexed": true,
          "internalType": "bytes32",
          "name": "newAdminRole",
          "type": "bytes32"
        }
      ],
      "name": "RoleAdminChanged",
      "type": "event"
    },
    {
      "anonymous": false,
      "inputs": [
        {
          "indexed": true,
          "internalType": "bytes32",
          "name": "role",
          "type": "bytes32"
        },
        {
          "indexed": true,
          "internalType": "address",
          "name": "account",
          "type": "address"
        },
        {
          "indexed": true,
          "internalType": "address",
          "name": "sender",
          "type": "address"
        }
      ],
      "name": "RoleGranted",
      "type": "event"
    },
    {
      "anonymous": false,
      "inputs": [
        {
          "indexed": true,
          "internalType": "bytes32",
          "name": "role",
          "type": "bytes32"
        },
        {
          "indexed": true,
          "internalType": "address",
          "name": "account",
          "type": "address"
        },
        {
          "indexed": true,
          "internalType": "address",
          "name": "sender",
          "type": "address"
        }
      ],
      "name": "RoleRevoked",
      "type": "event"
    },
    {
      "anonymous": false,
      "inputs": [
        {
          "indexed": true,
          "internalType": "address",
          "name": "to",
          "type": "address"
        },
        {
          "indexed": true,
          "internalType": "address",
          "name": "poolAddress",
          "type": "address"
        },
        {
          "indexed": false,
          "internalType": "uint256",
          "name": "tokenId",
          "type": "uint256"
        },
        {
          "indexed": false,
          "internalType": "uint256",
          "name": "amount",
          "type": "uint256"
        }
      ],
      "name": "Staked",
      "type": "event"
    },
    {
      "anonymous": false,
      "inputs": [
        {
          "indexed": true,
          "internalType": "address",
          "name": "to",
          "type": "address"
        },
        {
          "indexed": false,
          "internalType": "uint256",
          "name": "tokenId",
          "type": "uint256"
        },
        {
          "indexed": false,
          "internalType": "uint256",
          "name": "miningAmount",
          "type": "uint256"
        },
        {
          "indexed": false,
          "internalType": "uint256",
          "name": "nonMiningAmount",
          "type": "uint256"
        }
      ],
      "name": "WithdrawalToken",
      "type": "event"
    },
    {
      "inputs": [],
      "name": "ADMIN_ROLE",
      "outputs": [
        {
          "internalType": "bytes32",
          "name": "",
          "type": "bytes32"
        }
      ],
      "stateMutability": "view",
      "type": "function"
    },
    {
      "inputs": [],
      "name": "BURNER_ROLE",
      "outputs": [
        {
          "internalType": "bytes32",
          "name": "",
          "type": "bytes32"
        }
      ],
      "stateMutability": "view",
      "type": "function"
    },
    {
      "inputs": [],
      "name": "DEFAULT_ADMIN_ROLE",
      "outputs": [
        {
          "internalType": "bytes32",
          "name": "",
          "type": "bytes32"
        }
      ],
      "stateMutability": "view",
      "type": "function"
    },
    {
      "inputs": [],
      "name": "MINTER_ROLE",
      "outputs": [
        {
          "internalType": "bytes32",
          "name": "",
          "type": "bytes32"
        }
      ],
      "stateMutability": "view",
      "type": "function"
    },
    {
      "inputs": [],
      "name": "PROJECT_ADMIN_ROLE",
      "outputs": [
        {
          "internalType": "bytes32",
          "name": "",
          "type": "bytes32"
        }
      ],
      "stateMutability": "view",
      "type": "function"
    },
    {
      "inputs": [
        {
          "internalType": "address",
          "name": "account",
          "type": "address"
        }
      ],
      "name": "addAdmin",
      "outputs": [],
      "stateMutability": "nonpayable",
      "type": "function"
    },
    {
      "inputs": [
        {
          "internalType": "uint256",
          "name": "tokenId",
          "type": "uint256"
        }
      ],
      "name": "balanceOfCoinage",
      "outputs": [
        {
          "internalType": "uint256",
          "name": "",
          "type": "uint256"
        }
      ],
      "stateMutability": "view",
      "type": "function"
    },
    {
      "inputs": [
        {
          "internalType": "uint256",
          "name": "tokenId",
          "type": "uint256"
        }
      ],
      "name": "claim",
      "outputs": [],
      "stateMutability": "nonpayable",
      "type": "function"
    },
    {
      "inputs": [],
      "name": "coinage",
      "outputs": [
        {
          "internalType": "address",
          "name": "",
          "type": "address"
        }
      ],
      "stateMutability": "view",
      "type": "function"
    },
    {
      "inputs": [],
      "name": "coinageLastMintBlockTimetamp",
      "outputs": [
        {
          "internalType": "uint256",
          "name": "",
          "type": "uint256"
        }
      ],
      "stateMutability": "view",
      "type": "function"
    },
    {
      "inputs": [
        {
          "internalType": "uint256",
          "name": "tokenId",
          "type": "uint256"
        },
        {
          "internalType": "uint256",
          "name": "expectBlocktimestamp",
          "type": "uint256"
        }
      ],
      "name": "currentCoinageBalanceTokenId",
      "outputs": [
        {
          "internalType": "uint256",
          "name": "currentTotalCoinage",
          "type": "uint256"
        },
        {
          "internalType": "uint256",
          "name": "afterTotalCoinage",
          "type": "uint256"
        },
        {
          "internalType": "uint256",
          "name": "afterBalanceTokenId",
          "type": "uint256"
        },
        {
          "internalType": "uint256",
          "name": "expectTime",
          "type": "uint256"
        },
        {
          "internalType": "uint256",
          "name": "addIntervalTime",
          "type": "uint256"
        }
      ],
      "stateMutability": "view",
      "type": "function"
    },
    {
      "inputs": [
        {
          "internalType": "uint256",
          "name": "tokenId",
          "type": "uint256"
        },
        {
          "internalType": "uint256",
          "name": "expectBlocktimestamp",
          "type": "uint256"
        }
      ],
      "name": "currentliquidityTokenId",
      "outputs": [
        {
          "internalType": "uint256",
          "name": "secondsAbsolute",
          "type": "uint256"
        },
        {
          "internalType": "uint256",
          "name": "secondsInsideDiff256",
          "type": "uint256"
        },
        {
          "internalType": "uint256",
          "name": "expectTime",
          "type": "uint256"
        }
      ],
      "stateMutability": "view",
      "type": "function"
    },
    {
      "inputs": [
        {
          "internalType": "uint256",
          "name": "",
          "type": "uint256"
        }
      ],
      "name": "depositTokens",
      "outputs": [
        {
          "internalType": "address",
          "name": "owner",
          "type": "address"
        },
        {
          "internalType": "uint256",
          "name": "idIndex",
          "type": "uint256"
        },
        {
          "internalType": "uint128",
          "name": "liquidity",
          "type": "uint128"
        },
        {
          "internalType": "int24",
          "name": "tickLower",
          "type": "int24"
        },
        {
          "internalType": "int24",
          "name": "tickUpper",
          "type": "int24"
        },
        {
          "internalType": "uint32",
          "name": "startTime",
          "type": "uint32"
        },
        {
          "internalType": "uint32",
          "name": "claimedTime",
          "type": "uint32"
        },
        {
          "internalType": "uint160",
          "name": "secondsInsideInitial",
          "type": "uint160"
        },
        {
          "internalType": "uint160",
          "name": "secondsInsideLast",
          "type": "uint160"
        },
        {
          "internalType": "bool",
          "name": "claimLock",
          "type": "bool"
        },
        {
          "internalType": "bool",
          "name": "withdraw",
          "type": "bool"
        }
      ],
      "stateMutability": "view",
      "type": "function"
    },
    {
      "inputs": [
        {
          "internalType": "uint256",
          "name": "tokenId",
          "type": "uint256"
        },
        {
          "internalType": "uint256",
          "name": "expectBlocktimestamp",
          "type": "uint256"
        }
      ],
      "name": "expectedPlusClaimableAmount",
      "outputs": [
        {
          "internalType": "uint256",
          "name": "miningAmount",
          "type": "uint256"
        },
        {
          "internalType": "uint256",
          "name": "nonMiningAmount",
          "type": "uint256"
        },
        {
          "internalType": "uint256",
          "name": "minableAmount",
          "type": "uint256"
        },
        {
          "internalType": "uint256",
          "name": "minableAmountRay",
          "type": "uint256"
        },
        {
          "internalType": "uint256",
          "name": "expectTime",
          "type": "uint256"
        }
      ],
      "stateMutability": "view",
      "type": "function"
    },
    {
      "inputs": [
        {
          "internalType": "uint256",
          "name": "tokenId",
          "type": "uint256"
        }
      ],
      "name": "getDepositToken",
      "outputs": [
        {
          "internalType": "address",
          "name": "_poolAddress",
          "type": "address"
        },
        {
          "internalType": "int24[2]",
          "name": "tick",
          "type": "int24[2]"
        },
        {
          "internalType": "uint128",
          "name": "liquidity",
          "type": "uint128"
        },
        {
          "internalType": "uint256[5]",
          "name": "args",
          "type": "uint256[5]"
        },
        {
          "internalType": "uint160[2]",
          "name": "secondsPL",
          "type": "uint160[2]"
        }
      ],
      "stateMutability": "view",
      "type": "function"
    },
    {
      "inputs": [
        {
          "internalType": "uint256",
          "name": "tokenId",
          "type": "uint256"
        }
      ],
      "name": "getMiningTokenId",
      "outputs": [
        {
          "internalType": "uint256",
          "name": "miningAmount",
          "type": "uint256"
        },
        {
          "internalType": "uint256",
          "name": "nonMiningAmount",
          "type": "uint256"
        },
        {
          "internalType": "uint256",
          "name": "minableAmount",
          "type": "uint256"
        },
        {
          "internalType": "uint160",
          "name": "secondsInside",
          "type": "uint160"
        },
        {
          "internalType": "uint256",
          "name": "secondsInsideDiff256",
          "type": "uint256"
        },
        {
          "internalType": "uint256",
          "name": "liquidity",
          "type": "uint256"
        },
        {
          "internalType": "uint256",
          "name": "balanceOfTokenIdRay",
          "type": "uint256"
        },
        {
          "internalType": "uint256",
          "name": "minableAmountRay",
          "type": "uint256"
        },
        {
          "internalType": "uint256",
          "name": "secondsInside256",
          "type": "uint256"
        },
        {
          "internalType": "uint256",
          "name": "secondsAbsolute256",
          "type": "uint256"
        }
      ],
      "stateMutability": "view",
      "type": "function"
    },
    {
      "inputs": [
        {
          "internalType": "uint256",
          "name": "decimals",
          "type": "uint256"
        }
      ],
      "name": "getPrice",
      "outputs": [
        {
          "internalType": "uint256",
          "name": "price",
          "type": "uint256"
        }
      ],
      "stateMutability": "view",
      "type": "function"
    },
    {
      "inputs": [
        {
          "internalType": "bytes32",
          "name": "role",
          "type": "bytes32"
        }
      ],
      "name": "getRoleAdmin",
      "outputs": [
        {
          "internalType": "bytes32",
          "name": "",
          "type": "bytes32"
        }
      ],
      "stateMutability": "view",
      "type": "function"
    },
    {
      "inputs": [
        {
          "internalType": "bytes32",
          "name": "role",
          "type": "bytes32"
        },
        {
          "internalType": "uint256",
          "name": "index",
          "type": "uint256"
        }
      ],
      "name": "getRoleMember",
      "outputs": [
        {
          "internalType": "address",
          "name": "",
          "type": "address"
        }
      ],
      "stateMutability": "view",
      "type": "function"
    },
    {
      "inputs": [
        {
          "internalType": "bytes32",
          "name": "role",
          "type": "bytes32"
        }
      ],
      "name": "getRoleMemberCount",
      "outputs": [
        {
          "internalType": "uint256",
          "name": "",
          "type": "uint256"
        }
      ],
      "stateMutability": "view",
      "type": "function"
    },
    {
      "inputs": [
        {
          "internalType": "address",
          "name": "user",
          "type": "address"
        }
      ],
      "name": "getUserStakedTokenIds",
      "outputs": [
        {
          "internalType": "uint256[]",
          "name": "ids",
          "type": "uint256[]"
        }
      ],
      "stateMutability": "view",
      "type": "function"
    },
    {
      "inputs": [
        {
          "internalType": "address",
          "name": "user",
          "type": "address"
        }
      ],
      "name": "getUserStakedTotal",
      "outputs": [
        {
          "internalType": "uint256",
          "name": "totalDepositAmount",
          "type": "uint256"
        },
        {
          "internalType": "uint256",
          "name": "totalMiningAmount",
          "type": "uint256"
        },
        {
          "internalType": "uint256",
          "name": "totalNonMiningAmount",
          "type": "uint256"
        }
      ],
      "stateMutability": "view",
      "type": "function"
    },
    {
      "inputs": [
        {
          "internalType": "bytes32",
          "name": "role",
          "type": "bytes32"
        },
        {
          "internalType": "address",
          "name": "account",
          "type": "address"
        }
      ],
      "name": "grantRole",
      "outputs": [],
      "stateMutability": "nonpayable",
      "type": "function"
    },
    {
      "inputs": [
        {
          "internalType": "bytes32",
          "name": "role",
          "type": "bytes32"
        },
        {
          "internalType": "address",
          "name": "account",
          "type": "address"
        }
      ],
      "name": "hasRole",
      "outputs": [
        {
          "internalType": "bool",
          "name": "",
          "type": "bool"
        }
      ],
      "stateMutability": "view",
      "type": "function"
    },
    {
      "inputs": [],
      "name": "infos",
      "outputs": [
        {
          "internalType": "address[4]",
          "name": "",
          "type": "address[4]"
        },
        {
          "internalType": "address[4]",
          "name": "",
          "type": "address[4]"
        },
        {
          "internalType": "uint256[4]",
          "name": "",
          "type": "uint256[4]"
        }
      ],
      "stateMutability": "view",
      "type": "function"
    },
    {
      "inputs": [
        {
          "internalType": "address",
          "name": "account",
          "type": "address"
        }
      ],
      "name": "isAdmin",
      "outputs": [
        {
          "internalType": "bool",
          "name": "",
          "type": "bool"
        }
      ],
      "stateMutability": "view",
      "type": "function"
    },
    {
      "inputs": [],
      "name": "migratedL2",
      "outputs": [
        {
          "internalType": "bool",
          "name": "",
          "type": "bool"
        }
      ],
      "stateMutability": "view",
      "type": "function"
    },
    {
      "inputs": [],
      "name": "miningAmountTotal",
      "outputs": [
        {
          "internalType": "uint256",
          "name": "",
          "type": "uint256"
        }
      ],
      "stateMutability": "view",
      "type": "function"
    },
    {
      "inputs": [],
      "name": "miningCoinage",
      "outputs": [],
      "stateMutability": "nonpayable",
      "type": "function"
    },
    {
      "inputs": [],
      "name": "miningEndTime",
      "outputs": [
        {
          "internalType": "uint256",
          "name": "",
          "type": "uint256"
        }
      ],
      "stateMutability": "view",
      "type": "function"
    },
    {
      "inputs": [],
      "name": "miningIntervalSeconds",
      "outputs": [
        {
          "internalType": "uint256",
          "name": "",
          "type": "uint256"
        }
      ],
      "stateMutability": "view",
      "type": "function"
    },
    {
      "inputs": [],
      "name": "nonMiningAmountTotal",
      "outputs": [
        {
          "internalType": "uint256",
          "name": "",
          "type": "uint256"
        }
      ],
      "stateMutability": "view",
      "type": "function"
    },
    {
      "inputs": [],
      "name": "nonfungiblePositionManager",
      "outputs": [
        {
          "internalType": "contract INonfungiblePositionManager",
          "name": "",
          "type": "address"
        }
      ],
      "stateMutability": "view",
      "type": "function"
    },
    {
      "inputs": [],
      "name": "pauseProxy",
      "outputs": [
        {
          "internalType": "bool",
          "name": "",
          "type": "bool"
        }
      ],
      "stateMutability": "view",
      "type": "function"
    },
    {
      "inputs": [],
      "name": "poolAddress",
      "outputs": [
        {
          "internalType": "address",
          "name": "",
          "type": "address"
        }
      ],
      "stateMutability": "view",
      "type": "function"
    },
    {
      "inputs": [],
      "name": "poolFee",
      "outputs": [
        {
          "internalType": "uint256",
          "name": "",
          "type": "uint256"
        }
      ],
      "stateMutability": "view",
      "type": "function"
    },
    {
      "inputs": [],
      "name": "poolSlot0",
      "outputs": [
        {
          "internalType": "uint160",
          "name": "sqrtPriceX96",
          "type": "uint160"
        },
        {
          "internalType": "int24",
          "name": "tick",
          "type": "int24"
        },
        {
          "internalType": "uint16",
          "name": "observationIndex",
          "type": "uint16"
        },
        {
          "internalType": "uint16",
          "name": "observationCardinality",
          "type": "uint16"
        },
        {
          "internalType": "uint16",
          "name": "observationCardinalityNext",
          "type": "uint16"
        },
        {
          "internalType": "uint8",
          "name": "feeProtocol",
          "type": "uint8"
        },
        {
          "internalType": "bool",
          "name": "unlocked",
          "type": "bool"
        }
      ],
      "stateMutability": "view",
      "type": "function"
    },
    {
      "inputs": [],
      "name": "poolToken0",
      "outputs": [
        {
          "internalType": "address",
          "name": "",
          "type": "address"
        }
      ],
      "stateMutability": "view",
      "type": "function"
    },
    {
      "inputs": [],
      "name": "poolToken1",
      "outputs": [
        {
          "internalType": "address",
          "name": "",
          "type": "address"
        }
      ],
      "stateMutability": "view",
      "type": "function"
    },
    {
      "inputs": [
        {
          "internalType": "address",
          "name": "account",
          "type": "address"
        }
      ],
      "name": "removeAdmin",
      "outputs": [],
      "stateMutability": "nonpayable",
      "type": "function"
    },
    {
      "inputs": [
        {
          "internalType": "bytes32",
          "name": "role",
          "type": "bytes32"
        },
        {
          "internalType": "address",
          "name": "account",
          "type": "address"
        }
      ],
      "name": "renounceRole",
      "outputs": [],
      "stateMutability": "nonpayable",
      "type": "function"
    },
    {
      "inputs": [],
      "name": "resetCoinageTime",
      "outputs": [],
      "stateMutability": "nonpayable",
      "type": "function"
    },
    {
      "inputs": [
        {
          "internalType": "bytes32",
          "name": "role",
          "type": "bytes32"
        },
        {
          "internalType": "address",
          "name": "account",
          "type": "address"
        }
      ],
      "name": "revokeRole",
      "outputs": [],
      "stateMutability": "nonpayable",
      "type": "function"
    },
    {
      "inputs": [],
      "name": "saleStartTime",
      "outputs": [
        {
          "internalType": "uint256",
          "name": "",
          "type": "uint256"
        }
      ],
      "stateMutability": "view",
      "type": "function"
    },
    {
      "inputs": [
        {
          "internalType": "uint256",
          "name": "_intervalSeconds",
          "type": "uint256"
        }
      ],
      "name": "setMiningIntervalSeconds",
      "outputs": [],
      "stateMutability": "nonpayable",
      "type": "function"
    },
    {
      "inputs": [
        {
          "internalType": "uint256",
          "name": "tokenId",
          "type": "uint256"
        }
      ],
      "name": "setPoolAddress",
      "outputs": [],
      "stateMutability": "nonpayable",
      "type": "function"
    },
    {
      "inputs": [
        {
          "internalType": "uint256",
          "name": "_saleStartTime",
          "type": "uint256"
        }
      ],
      "name": "setSaleStartTime",
      "outputs": [],
      "stateMutability": "nonpayable",
      "type": "function"
    },
    {
      "inputs": [
        {
          "internalType": "uint256",
          "name": "tokenId",
          "type": "uint256"
        }
      ],
      "name": "stake",
      "outputs": [],
      "stateMutability": "nonpayable",
      "type": "function"
    },
    {
      "inputs": [
        {
          "internalType": "uint256",
          "name": "tokenId",
          "type": "uint256"
        },
        {
          "internalType": "uint256",
          "name": "deadline",
          "type": "uint256"
        },
        {
          "internalType": "uint8",
          "name": "v",
          "type": "uint8"
        },
        {
          "internalType": "bytes32",
          "name": "r",
          "type": "bytes32"
        },
        {
          "internalType": "bytes32",
          "name": "s",
          "type": "bytes32"
        }
      ],
      "name": "stakePermit",
      "outputs": [],
      "stateMutability": "nonpayable",
      "type": "function"
    },
    {
      "inputs": [],
      "name": "stakeRegistry",
      "outputs": [
        {
          "internalType": "address",
          "name": "",
          "type": "address"
        }
      ],
      "stateMutability": "view",
      "type": "function"
    },
    {
      "inputs": [],
      "name": "stakeStartTime",
      "outputs": [
        {
          "internalType": "uint256",
          "name": "",
          "type": "uint256"
        }
      ],
      "stateMutability": "view",
      "type": "function"
    },
    {
      "inputs": [
        {
          "internalType": "uint256",
          "name": "",
          "type": "uint256"
        }
      ],
      "name": "stakedCoinageTokens",
      "outputs": [
        {
          "internalType": "uint256",
          "name": "amount",
          "type": "uint256"
        },
        {
          "internalType": "uint32",
          "name": "startTime",
          "type": "uint32"
        },
        {
          "internalType": "uint32",
          "name": "claimedTime",
          "type": "uint32"
        },
        {
          "internalType": "uint256",
          "name": "claimedAmount",
          "type": "uint256"
        },
        {
          "internalType": "uint256",
          "name": "nonMiningAmount",
          "type": "uint256"
        }
      ],
      "stateMutability": "view",
      "type": "function"
    },
    {
      "inputs": [],
      "name": "token",
      "outputs": [
        {
          "internalType": "address",
          "name": "",
          "type": "address"
        }
      ],
      "stateMutability": "view",
      "type": "function"
    },
    {
      "inputs": [],
      "name": "totalStakedAmount",
      "outputs": [
        {
          "internalType": "uint256",
          "name": "",
          "type": "uint256"
        }
      ],
      "stateMutability": "view",
      "type": "function"
    },
    {
      "inputs": [],
      "name": "totalStakers",
      "outputs": [
        {
          "internalType": "uint256",
          "name": "",
          "type": "uint256"
        }
      ],
      "stateMutability": "view",
      "type": "function"
    },
    {
      "inputs": [],
      "name": "totalSupplyCoinage",
      "outputs": [
        {
          "internalType": "uint256",
          "name": "",
          "type": "uint256"
        }
      ],
      "stateMutability": "view",
      "type": "function"
    },
    {
      "inputs": [],
      "name": "totalTokens",
      "outputs": [
        {
          "internalType": "uint256",
          "name": "",
          "type": "uint256"
        }
      ],
      "stateMutability": "view",
      "type": "function"
    },
    {
      "inputs": [
        {
          "internalType": "address",
          "name": "newAdmin",
          "type": "address"
        }
      ],
      "name": "transferAdmin",
      "outputs": [],
      "stateMutability": "nonpayable",
      "type": "function"
    },
    {
      "inputs": [],
      "name": "uniswapV3FactoryAddress",
      "outputs": [
        {
          "internalType": "address",
          "name": "",
          "type": "address"
        }
      ],
      "stateMutability": "view",
      "type": "function"
    },
    {
      "inputs": [
        {
          "internalType": "address",
          "name": "",
          "type": "address"
        },
        {
          "internalType": "uint256",
          "name": "",
          "type": "uint256"
        }
      ],
      "name": "userStakedTokenIds",
      "outputs": [
        {
          "internalType": "uint256",
          "name": "",
          "type": "uint256"
        }
      ],
      "stateMutability": "view",
      "type": "function"
    },
    {
      "inputs": [
        {
          "internalType": "address",
          "name": "",
          "type": "address"
        }
      ],
      "name": "userTotalStaked",
      "outputs": [
        {
          "internalType": "bool",
          "name": "staked",
          "type": "bool"
        },
        {
          "internalType": "uint256",
          "name": "totalDepositAmount",
          "type": "uint256"
        },
        {
          "internalType": "uint256",
          "name": "totalMiningAmount",
          "type": "uint256"
        },
        {
          "internalType": "uint256",
          "name": "totalNonMiningAmount",
          "type": "uint256"
        }
      ],
      "stateMutability": "view",
      "type": "function"
    },
    {
      "inputs": [],
      "name": "vault",
      "outputs": [
        {
          "internalType": "address",
          "name": "",
          "type": "address"
        }
      ],
      "stateMutability": "view",
      "type": "function"
    },
    {
      "inputs": [
        {
          "internalType": "uint256",
          "name": "tokenId",
          "type": "uint256"
        }
      ],
      "name": "withdraw",
      "outputs": [],
      "stateMutability": "nonpayable",
      "type": "function"
    },
    {
      "stateMutability": "payable",
      "type": "receive"
    }
  ],
  "bytecode": "0x60806040523480156200001157600080fd5b506200002d600080516020620059a78339815191528062000052565b62000048600080516020620059a783398151915233620000a4565b600f8055620001ba565b6000828152601a6020526040808220600201549051839285917fbd79b86ffe0ab8e8776151514217cd7cacd52c909f66475c3af44e129f0b00ff9190a46000918252601a602052604090912060020155565b620000b08282620000b4565b5050565b6000828152601a60209081526040909120620000db918390620043ee6200012f821b17901c565b15620000b057620000eb6200014f565b6001600160a01b0316816001600160a01b0316837f2f8788117e7eff1d82e926ec794901d17c78024a50270940304540a733656f0d60405160405180910390a45050565b600062000146836001600160a01b03841662000153565b90505b92915050565b3390565b6000620001618383620001a2565b620001995750815460018181018455600084815260208082209093018490558454848252828601909352604090209190915562000149565b50600062000149565b60009081526001919091016020526040902054151590565b6157dd80620001ca6000396000f3fe60806040526004361061033c5760003560e01c806375829def116101b2578063ad1b3909116100ed578063dcfe138e11610090578063dcfe138e14610d59578063dd49756e14610d89578063dee712a314610e33578063e757223014610e48578063ecce6c4014610e72578063fbfa77cf14610ef4578063fc0c546a14610f09578063fdfeb8c014610f1e57610346565b8063ad1b390914610c1a578063af182fce14610c2f578063b44a272214610c44578063b8ebb13314610c59578063b97db3dc14610cb7578063ca15c87314610ce1578063d539139314610d0b578063d547741f14610d2057610346565b806391d148541161015557806391d1485414610a6d5780639988220214610aa65780639a88be2f14610af75780639c4b76a014610b9c578063a1f5f50e14610bb1578063a217fddf14610bc6578063a694fc3a14610bdb578063a73bf6df14610c0557610346565b806375829def1461090357806375b238fc146109365780637e1c0c091461094b57806380f5db8c146109605780638113d2301461097557806384d1df18146109f85780638698903814610a285780639010d07c14610a3d57610346565b806334586e8b11610282578063525f8a5c11610225578063525f8a5c146107e2578063567e98f91461080c5780635f139e3f1461082157806363a8fd8914610836578063683048351461084b5780637048027514610860578063719de1ef146108935780637419f190146108ee57610346565b806334586e8b146105eb57806336568abe14610615578063379607f51461064e5780633d0935ab1461067857806341c04d5e146106a25780634372f61f146106b75780634758af8a1461079457806349cba16c146107a957610346565b80631cbaee2d116102ea5780631cbaee2d146104c3578063248a9ca3146104d857806324d7806c146105025780632736b39114610549578063282c51f31461055e5780632867bb5b146105735780632e1a7d4d146105885780632f2ff15d146105b257610346565b806302ff153e1461034b57806304f93b9714610372578063089fe6aa146103cd5780630a5b631d146103e25780630f5d38ae146103f95780631755ff211461045f5780631785f53c1461049057610346565b3661034657600080fd5b600080fd5b34801561035757600080fd5b50610360610f63565b60408051918252519081900360200190f35b34801561037e57600080fd5b506103a26004803603604081101561039557600080fd5b5080359060200135610f69565b6040805195865260208601949094528484019290925260608401526080830152519081900360a00190f35b3480156103d957600080fd5b50610360611356565b3480156103ee57600080fd5b506103f761135c565b005b34801561040557600080fd5b5061040e6117a6565b604080516001600160a01b03909816885260029690960b602088015261ffff9485168787015292841660608701529216608085015260ff90911660a0840152151560c0830152519081900360e00190f35b34801561046b57600080fd5b506104746118ad565b604080516001600160a01b039092168252519081900360200190f35b34801561049c57600080fd5b506103f7600480360360208110156104b357600080fd5b50356001600160a01b03166118bc565b3480156104cf57600080fd5b5061036061191b565b3480156104e457600080fd5b50610360600480360360208110156104fb57600080fd5b5035611921565b34801561050e57600080fd5b506105356004803603602081101561052557600080fd5b50356001600160a01b0316611936565b604080519115158252519081900360200190f35b34801561055557600080fd5b50610360611956565b34801561056a57600080fd5b50610360611a21565b34801561057f57600080fd5b50610360611a45565b34801561059457600080fd5b506103f7600480360360208110156105ab57600080fd5b5035611a4b565b3480156105be57600080fd5b506103f7600480360360408110156105d557600080fd5b50803590602001356001600160a01b0316611ed8565b3480156105f757600080fd5b506103f76004803603602081101561060e57600080fd5b5035611f44565b34801561062157600080fd5b506103f76004803603604081101561063857600080fd5b50803590602001356001600160a01b03166123b4565b34801561065a57600080fd5b506103f76004803603602081101561067157600080fd5b5035612415565b34801561068457600080fd5b506103606004803603602081101561069b57600080fd5b5035612841565b3480156106ae57600080fd5b506103606128bf565b3480156106c357600080fd5b506106e1600480360360208110156106da57600080fd5b50356128e3565b60405180866001600160a01b0316815260200185600260200280838360005b83811015610718578181015183820152602001610700565b50505050905001846001600160801b0316815260200183600560200280838360005b8381101561075257818101518382015260200161073a565b5050505090500182600260200280838360005b8381101561077d578181015183820152602001610765565b505050509050019550505050505060405180910390f35b3480156107a057600080fd5b50610474612c1e565b3480156107b557600080fd5b50610360600480360360408110156107cc57600080fd5b506001600160a01b038135169060200135612c2d565b3480156107ee57600080fd5b506103f76004803603602081101561080557600080fd5b5035612c5e565b34801561081857600080fd5b50610360612cf4565b34801561082d57600080fd5b50610360612cfa565b34801561084257600080fd5b50610535612d00565b34801561085757600080fd5b50610474612d09565b34801561086c57600080fd5b506103f76004803603602081101561088357600080fd5b50356001600160a01b0316612d18565b34801561089f57600080fd5b506108c6600480360360208110156108b657600080fd5b50356001600160a01b0316612d74565b6040805194151585526020850193909352838301919091526060830152519081900360800190f35b3480156108fa57600080fd5b50610360612d9f565b34801561090f57600080fd5b506103f76004803603602081101561092657600080fd5b50356001600160a01b0316612da5565b34801561094257600080fd5b50610360612ec6565b34801561095757600080fd5b50610360612ed8565b34801561096c57600080fd5b50610474612ede565b34801561098157600080fd5b506109a86004803603602081101561099857600080fd5b50356001600160a01b0316612eed565b60408051602080825283518183015283519192839290830191858101910280838360005b838110156109e45781810151838201526020016109cc565b505050509050019250505060405180910390f35b348015610a0457600080fd5b506103a260048036036040811015610a1b57600080fd5b5080359060200135612f59565b348015610a3457600080fd5b50610360613129565b348015610a4957600080fd5b5061047460048036036040811015610a6057600080fd5b508035906020013561312f565b348015610a7957600080fd5b5061053560048036036040811015610a9057600080fd5b50803590602001356001600160a01b031661314e565b348015610ab257600080fd5b50610ad960048036036020811015610ac957600080fd5b50356001600160a01b0316613166565b60408051938452602084019290925282820152519081900360600190f35b348015610b0357600080fd5b50610b0c613191565b6040518084608080838360005b83811015610b31578181015183820152602001610b19565b5050505090500183600460200280838360005b83811015610b5c578181015183820152602001610b44565b5050505090500182600460200280838360005b83811015610b87578181015183820152602001610b6f565b50505050905001935050505060405180910390f35b348015610ba857600080fd5b50610360613247565b348015610bbd57600080fd5b506105356132bd565b348015610bd257600080fd5b506103606132c6565b348015610be757600080fd5b506103f760048036036020811015610bfe57600080fd5b50356132cb565b348015610c1157600080fd5b506104746136c4565b348015610c2657600080fd5b506104746136d3565b348015610c3b57600080fd5b506103606136e2565b348015610c5057600080fd5b506104746136e8565b348015610c6557600080fd5b50610c8360048036036020811015610c7c57600080fd5b50356136f7565b6040805195865263ffffffff9485166020870152929093168483015260608401526080830191909152519081900360a00190f35b348015610cc357600080fd5b506103f760048036036020811015610cda57600080fd5b5035613730565b348015610ced57600080fd5b5061036060048036036020811015610d0457600080fd5b5035613779565b348015610d1757600080fd5b50610360613790565b348015610d2c57600080fd5b506103f760048036036040811015610d4357600080fd5b50803590602001356001600160a01b03166137b4565b348015610d6557600080fd5b50610ad960048036036040811015610d7c57600080fd5b508035906020013561380d565b348015610d9557600080fd5b50610db360048036036020811015610dac57600080fd5b5035613a30565b604080516001600160a01b039c8d168152602081019b909b526001600160801b039099168a8a0152600297880b60608b01529590960b608089015263ffffffff93841660a08901529190921660c087015290861660e086015290941661010084015215156101208301529115156101408201529051908190036101600190f35b348015610e3f57600080fd5b506103f7613aba565b348015610e5457600080fd5b5061036060048036036020811015610e6b57600080fd5b5035613b05565b348015610e7e57600080fd5b50610e9c60048036036020811015610e9557600080fd5b5035613bec565b604080519a8b5260208b0199909952898901979097526001600160a01b039095166060890152608088019390935260a087019190915260c086015260e085015261010084015261012083015251908190036101400190f35b348015610f0057600080fd5b50610474613f4a565b348015610f1557600080fd5b50610474613f59565b348015610f2a57600080fd5b506103f7600480360360a0811015610f4157600080fd5b5080359060208101359060ff6040820135169060608101359060800135613f68565b60175481565b60125460009081908190819081906001600160a01b031680610fbc5760405162461bcd60e51b81526004018080602001828103825260238152602001806156f46023913960400191505060405180910390fd5b60009550600094506000935060009250600091506000600d54118015610fe3575060175487115b1561134b5760025460408051632736b39160e01b815290518995506000926001600160a01b031691632736b391916004808301926020929190829003018186803b15801561103057600080fd5b505afa158015611044573d6000803e3d6000fd5b505050506040513d602081101561105a57600080fd5b505190508084111561106a578093505b601660009054906101000a90046001600160a01b03166001600160a01b03166318160ddd6040518163ffffffff1660e01b815260040160206040518083038186803b1580156110b857600080fd5b505afa1580156110cc573d6000803e3d6000fd5b505050506040513d60208110156110e257600080fd5b50516016546040805163c1211c4360e01b8152600481018d90529051929950600092839283926001600160a01b039091169163c1211c4391602480820192606092909190829003018186803b15801561113a57600080fd5b505afa15801561114e573d6000803e3d6000fd5b505050506040513d606081101561116457600080fd5b5080516020820151604090920151601754919550919350909150806111885750600d545b6111928882614403565b96506000600f541180156111a75750600f5487115b156111bd57600f546111ba908890614403565b96505b86156113455760025460408051632673bd5f60e11b815290516000926001600160a01b031691634ce77abe916004808301926020929190829003018186803b15801561120857600080fd5b505afa15801561121c573d6000803e3d6000fd5b505050506040513d602081101561123257600080fd5b5051905060006112428983614445565b905061125c61125582633b9aca00614445565b8e9061449e565b9b506000601660009054906101000a90046001600160a01b03166001600160a01b03166354f703f86040518163ffffffff1660e01b815260040160206040518083038186803b1580156112ae57600080fd5b505afa1580156112c2573d6000803e3d6000fd5b505050506040513d60208110156112d857600080fd5b5051905060006112e98f8f846144f8565b90506000815b6b204fce5e3e2502611000000081106113215761130d82600161449e565b915061131a816002614515565b90506112ef565b600061132f8b8b8486614557565b905061133b818a61449e565b9f50505050505050505b50505050505b509295509295909350565b60135481565b600b54156113b1576040805162461bcd60e51b815260206004820152601d60248201527f5374616b65556e6973776170563353746f726167653a204c4f434b4544000000604482015290519081900360640190fd5b6001600b55600e5415806113c6575042600e54115b156113d05761179f565b600d5415806113e0575042600d54115b156113ea5761179f565b6002546040805162fc469360e11b8152905142926001600160a01b0316916301f88d26916004808301926020929190829003018186803b15801561142d57600080fd5b505afa158015611441573d6000803e3d6000fd5b505050506040513d602081101561145757600080fd5b505111806114d2575060025460408051632736b39160e01b8152905142926001600160a01b031691632736b391916004808301926020929190829003018186803b1580156114a457600080fd5b505afa1580156114b8573d6000803e3d6000fd5b505050506040513d60208110156114ce57600080fd5b5051105b156114dc5761179f565b6017546114ea57600d546017555b600f546017546114f99161449e565b42111561179f5760006115176017544261440390919063ffffffff16565b9050600061159f600260009054906101000a90046001600160a01b03166001600160a01b0316634ce77abe6040518163ffffffff1660e01b815260040160206040518083038186803b15801561156c57600080fd5b505afa158015611580573d6000803e3d6000fd5b505050506040513d602081101561159657600080fd5b50518390614445565b90506000601660009054906101000a90046001600160a01b03166001600160a01b03166318160ddd6040518163ffffffff1660e01b815260040160206040518083038186803b1580156115f157600080fd5b505afa158015611605573d6000803e3d6000fd5b505050506040513d602081101561161b57600080fd5b50519050811580159061162e5750600081115b1561179b57600061164d61164684633b9aca00614445565b839061449e565b60165460408051630a9ee07f60e31b815290519293506000926001600160a01b039092169163817e9d31916116d8918791879186916354f703f8916004808301926020929190829003018186803b1580156116a757600080fd5b505afa1580156116bb573d6000803e3d6000fd5b505050506040513d60208110156116d157600080fd5b50516144f8565b6040518263ffffffff1660e01b815260040180828152602001915050602060405180830381600087803b15801561170e57600080fd5b505af1158015611722573d6000803e3d6000fd5b505050506040513d602081101561173857600080fd5b50514260178190556040805191825260208201889052818101879052606082018690526080820185905260a08201839052519192507fe8c31506e2202c904fc838af92d6a36a6a155eab78cc591af005df916d3ccaf8919081900360c00190a150505b5050505b6000600b55565b6012546000908190819081908190819081906001600160a01b0316806117fd5760405162461bcd60e51b81526004018080602001828103825260238152602001806156f46023913960400191505060405180910390fd5b601260009054906101000a90046001600160a01b03166001600160a01b0316633850c7bd6040518163ffffffff1660e01b815260040160e06040518083038186803b15801561184b57600080fd5b505afa15801561185f573d6000803e3d6000fd5b505050506040513d60e081101561187557600080fd5b508051602082015160408301516060840151608085015160a086015160c090960151949e939d50919b50995097509195509350915050565b6012546001600160a01b031681565b6118c533611936565b6119005760405162461bcd60e51b81526004018080602001828103825260228152602001806156816022913960400191505060405180910390fd5b611918600080516020615738833981519152826123b4565b50565b600e5481565b6000908152601a602052604090206002015490565b60006119506000805160206157388339815191528361314e565b92915050565b6002546000906001600160a01b0316806119a15760405162461bcd60e51b81526004018080602001828103825260238152602001806156f46023913960400191505060405180910390fd5b600260009054906101000a90046001600160a01b03166001600160a01b0316632736b3916040518163ffffffff1660e01b815260040160206040518083038186803b1580156119ef57600080fd5b505afa158015611a03573d6000803e3d6000fd5b505050506040513d6020811015611a1957600080fd5b505191505090565b7f9667e80708b6eeeb0053fa0cca44e028ff548e2a9f029edfeac87c118b08b7c881565b600f5481565b600081815260076020526040902080546001600160a01b03163314611ab4576040805162461bcd60e51b815260206004820152601a60248201527929ba30b5b2aab734b9bbb0b82b199d103737ba1039ba30b5b2b960311b604482015290519081900360640190fd5b6004810154600160a81b900460ff1615611b15576040805162461bcd60e51b815260206004820152601b60248201527f5374616b65556e697377617056333a207769746864726177696e670000000000604482015290519081900360640190fd5b60048101805460ff60a81b1916600160a81b179055611b3261135c565b60028101546005546001600160801b0390911611611b68576002810154600554611b64916001600160801b0316614403565b6005555b60185415611b8257601854611b7e906001614403565b6018555b6000806000611b9085613bec565b50505050505050925092509250601660009054906101000a90046001600160a01b03166001600160a01b0316636621a02533876040518363ffffffff1660e01b815260040180836001600160a01b0316815260200182815260200192505050600060405180830381600087803b158015611c0957600080fd5b505af1158015611c1d573d6000803e3d6000fd5b505033600090815260096020526040902060028701546001820154919350611c4e92506001600160801b0316614403565b60018201556002810154611c62908561449e565b60028201556003810154611c76908461449e565b60038083019190915554611c8a908561449e565b600355600454611c9a908461449e565b60045584546001860154611cb9916001600160a01b0316908890614594565b600086815260076020908152604080832080546001600160a01b031990811682556001808301869055600280840180546001600160f01b031916905560038085018054909416909355600490930180546001600160b01b03191690556008909452918420848155808401805467ffffffffffffffff191690559081018490550191909155810154611d7f57600a54611d52906001614403565b600a55336000908152600960205260408120805460ff191681556001810182905560028101829055600301555b8115611e1c5760025460408051633c09d84560e21b815233600482015260248101859052604481018790526064810186905290516001600160a01b039092169163f0276114916084808201926020929091908290030181600087803b158015611de757600080fd5b505af1158015611dfb573d6000803e3d6000fd5b505050506040513d6020811015611e1157600080fd5b5051611e1c57600080fd5b60145460408051632142170760e11b81523060048201523360248201526044810189905290516001600160a01b03909216916342842e0e9160648082019260009290919082900301818387803b158015611e7557600080fd5b505af1158015611e89573d6000803e3d6000fd5b5050604080518981526020810188905280820187905290513393507faed5c5198ccd7615c0128c72fcfc060e97b14315cb791a46bf42b5b6f36c38b992509081900360600190a2505050505050565b6000828152601a6020526040902060020154611efb90611ef661471f565b61314e565b611f365760405162461bcd60e51b815260040180806020018281038252602f815260200180615652602f913960400191505060405180910390fd5b611f408282614723565b5050565b611f4d33611936565b611f885760405162461bcd60e51b81526004018080602001828103825260228152602001806156816022913960400191505060405180910390fd5b6000546001600160a01b031680611fd05760405162461bcd60e51b81526004018080602001828103825260238152602001806156f46023913960400191505060405180910390fd5b6002546001600160a01b0316806120185760405162461bcd60e51b81526004018080602001828103825260238152602001806156f46023913960400191505060405180910390fd5b6001546001600160a01b0316806120605760405162461bcd60e51b81526004018080602001828103825260238152602001806156f46023913960400191505060405180910390fd5b6010546001600160a01b0316806120a85760405162461bcd60e51b81526004018080602001828103825260238152602001806156f46023913960400191505060405180910390fd5b6011546001600160a01b0316806120f05760405162461bcd60e51b81526004018080602001828103825260238152602001806156f46023913960400191505060405180910390fd5b6014546001600160a01b0316806121385760405162461bcd60e51b81526004018080602001828103825260238152602001806156f46023913960400191505060405180910390fd5b6015546001600160a01b0316806121805760405162461bcd60e51b81526004018080602001828103825260238152602001806156f46023913960400191505060405180910390fd5b6012546001600160a01b0316156121de576040805162461bcd60e51b815260206004820152601b60248201527f5374616b65556e697377617056333a20616c7265616479207365740000000000604482015290519081900360640190fd5b6014546040805163133f757160e31b8152600481018b90529051600092839283926001600160a01b03909216916399fbab889160248082019261018092909190829003018186803b15801561223257600080fd5b505afa158015612246573d6000803e3d6000fd5b505050506040513d61018081101561225d57600080fd5b50604081015160608201516080909201516010549195509193509091506001600160a01b0380851691161480156122a157506011546001600160a01b038381169116145b806122d157506011546001600160a01b0384811691161480156122d157506010546001600160a01b038381169116145b612322576040805162461bcd60e51b815260206004820152601f60248201527f5374616b65556e697377617056333a20646966666572656e7420746f6b656e00604482015290519081900360640190fd5b601080546001600160a01b038086166001600160a01b031992831681179093556011805486831693168317905560155460408051606081018252948552602085019390935262ffffff8516928401929092526123809291169061478c565b601280546001600160a01b0319166001600160a01b039290921691909117905562ffffff1660135550505050505050505050565b6123bc61471f565b6001600160a01b0316816001600160a01b03161461240b5760405162461bcd60e51b815260040180806020018281038252602f815260200180615779602f913960400191505060405180910390fd5b611f408282614870565b600081815260076020526040902080546001600160a01b0316331461247e576040805162461bcd60e51b815260206004820152601a60248201527929ba30b5b2aab734b9bbb0b82b199d103737ba1039ba30b5b2b960311b604482015290519081900360640190fd5b600f5461248c904290614403565b600282015463ffffffff918216600160d01b909104909116106124f6576040805162461bcd60e51b815260206004820152601f60248201527f5374616b65556e697377617056333a20616c726561647920636c61696d656400604482015290519081900360640190fd5b6004810154600160a01b900460ff1615612552576040805162461bcd60e51b81526020600482015260186024820152775374616b65556e697377617056333a20636c61696d696e6760401b604482015290519081900360640190fd5b60048101805460ff60a01b1916600160a01b17905561256f61135c565b600080600080600061258087613bec565b505097505050509450945094509450600085116125ce5760405162461bcd60e51b81526004018080602001828103825260218152602001806156a36021913960400191505060405180910390fd5b60028601805463ffffffff60d01b1916600160d01b4263ffffffff1602179055600480870180546001600160a01b0319166001600160a01b038581169190911790915560165460408051637a94c56560e11b81523394810194909452602484018b9052604484018590525191169163f5298aca91606480830192600092919082900301818387803b15801561266257600080fd5b505af1158015612676573d6000803e3d6000fd5b505050600088815260086020526040902060018101805463ffffffff4281166401000000000267ffffffff00000000199092169190911790915560028201549192506126c59190889061449e16565b600282015560038101546126d9908661449e565b600382015533600090815260096020526040902060028101546126fc908861449e565b60028201556003810154612710908761449e565b60038083019190915554612724908861449e565b600355600454612734908761449e565b600490815560025460408051633c09d84560e21b8152339381019390935260248301889052604483018a905260648301899052516001600160a01b039091169163f02761149160848083019260209291908290030181600087803b15801561279b57600080fd5b505af11580156127af573d6000803e3d6000fd5b505050506040513d60208110156127c557600080fd5b50516127d057600080fd5b60048801805460ff60a01b19169055601254604080516001600160a01b03929092168252602082018b9052818101899052606082018890525133917fd795915374024be1f03204e052bd584b33bb85c9128ede9c54adbe0bbdc22095919081900360800190a2505050505050505050565b60165460408051631398fee160e31b81526004810184905290516000926001600160a01b031691639cc7f708916024808301926020929190829003018186803b15801561288d57600080fd5b505afa1580156128a1573d6000803e3d6000fd5b505050506040513d60208110156128b757600080fd5b505192915050565b7f52eafc11f6f81f86878bffd31109a0d92f37506527754f00788853ff9f63b13081565b60006128ed6155aa565b60006128f76155c8565b6128ff6155aa565b600060076000888152602001908152602001600020604051806101600160405290816000820160009054906101000a90046001600160a01b03166001600160a01b03166001600160a01b03168152602001600182015481526020016002820160009054906101000a90046001600160801b03166001600160801b03166001600160801b031681526020016002820160109054906101000a900460020b60020b60020b81526020016002820160139054906101000a900460020b60020b60020b81526020016002820160169054906101000a900463ffffffff1663ffffffff1663ffffffff16815260200160028201601a9054906101000a900463ffffffff1663ffffffff1663ffffffff1681526020016003820160009054906101000a90046001600160a01b03166001600160a01b03166001600160a01b031681526020016004820160009054906101000a90046001600160a01b03166001600160a01b03166001600160a01b031681526020016004820160149054906101000a900460ff161515151581526020016004820160159054906101000a900460ff16151515158152505090506000600860008981526020019081526020016000206040518060a0016040529081600082015481526020016001820160009054906101000a900463ffffffff1663ffffffff1663ffffffff1681526020016001820160049054906101000a900463ffffffff1663ffffffff1663ffffffff168152602001600282015481526020016003820154815250509050601260009054906101000a90046001600160a01b03166040518060400160405280846060015160020b60020b8152602001846080015160020b60020b81525083604001516040518060a001604052808660a0015163ffffffff1681526020018660c0015163ffffffff168152602001856020015163ffffffff168152602001856040015163ffffffff168152602001856060015181525060405180604001604052808760e001516001600160a01b03166001600160a01b031681526020018761010001516001600160a01b03166001600160a01b031681525096509650965096509650505091939590929450565b6011546001600160a01b031681565b60066020528160005260406000208181548110612c4957600080fd5b90600052602060002001600091509150505481565b612c6733611936565b612ca25760405162461bcd60e51b81526004018080602001828103825260228152602001806156816022913960400191505060405180910390fd5b600081118015612cb4575080600e5414155b612cef5760405162461bcd60e51b815260040180806020018281038252602b815260200180615627602b913960400191505060405180910390fd5b600e55565b60055481565b60035481565b600c5460ff1681565b6001546001600160a01b031681565b612d2133611936565b612d5c5760405162461bcd60e51b81526004018080602001828103825260228152602001806156816022913960400191505060405180910390fd5b61191860008051602061573883398151915282611ed8565b600960205260009081526040902080546001820154600283015460039093015460ff90921692909184565b600d5481565b612dae33611936565b612de95760405162461bcd60e51b81526004018080602001828103825260228152602001806156816022913960400191505060405180910390fd5b6001600160a01b038116612e3f576040805162461bcd60e51b815260206004820152601860248201527741636365737369626c653a207a65726f206164647265737360401b604482015290519081900360640190fd5b336001600160a01b0382161415612e96576040805162461bcd60e51b815260206004820152601660248201527520b1b1b2b9b9b4b136329d1039b0b6b29030b236b4b760511b604482015290519081900360640190fd5b612eae60008051602061573883398151915282611ed8565b611918600080516020615738833981519152336123b4565b60008051602061573883398151915281565b60185481565b6015546001600160a01b031681565b6001600160a01b038116600090815260066020908152604091829020805483518184028101840190945280845260609392830182828015612f4d57602002820191906000526020600020905b815481526020019060010190808311612f39575b50505050509050919050565b60125460009081908190819081906001600160a01b031680612fac5760405162461bcd60e51b81526004018080602001828103825260238152602001806156f46023913960400191505060405180910390fd5b60009550600094506000935060009250600091506000600d54118015612fd3575060175487115b1561134b5760165460408051631398fee160e31b8152600481018b905290518994506000928392839283926001600160a01b031691639cc7f708916024808301926020929190829003018186803b15801561302d57600080fd5b505afa158015613041573d6000803e3d6000fd5b505050506040513d602081101561305757600080fd5b505190506130658c8761380d565b5090935091506130758c87610f69565b50909650505081158015915061308a57508084115b156130ac576130998482614403565b96506130a987633b9aca00614515565b97505b6000881180156130bc5750600083115b80156130c85750600082115b156131115782821080156130dc5750600082115b15613108576130f5836130ef8a85614445565b90614515565b9950613101888b614403565b985061310c565b8799505b61311a565b8161311a578798505b50505050509295509295909350565b600a5481565b6000828152601a6020526040812061314790836148d9565b9392505050565b6000828152601a6020526040812061314790836148e5565b6001600160a01b03166000908152600960205260409020600181015460028201546003909201549092565b6131996155e6565b6131a16155e6565b6131a96155e6565b505060408051608080820183526000546001600160a01b0390811683526002548116602080850191909152600154821684860152601654821660608086019190915285518085018752601054841681526011548416818401526014548416818801526015549093168382015285519384018652600a548452600554918401919091526003549483019490945260045493820193909352909250909192565b601654604080516318160ddd60e01b815290516000926001600160a01b0316916318160ddd916004808301926020929190829003018186803b15801561328c57600080fd5b505afa1580156132a0573d6000803e3d6000fd5b505050506040513d60208110156132b657600080fd5b5051905090565b60195460ff1681565b600081565b6000546001600160a01b0316806133135760405162461bcd60e51b81526004018080602001828103825260238152602001806156f46023913960400191505060405180910390fd5b6002546001600160a01b03168061335b5760405162461bcd60e51b81526004018080602001828103825260238152602001806156f46023913960400191505060405180910390fd5b6001546001600160a01b0316806133a35760405162461bcd60e51b81526004018080602001828103825260238152602001806156f46023913960400191505060405180910390fd5b6010546001600160a01b0316806133eb5760405162461bcd60e51b81526004018080602001828103825260238152602001806156f46023913960400191505060405180910390fd5b6011546001600160a01b0316806134335760405162461bcd60e51b81526004018080602001828103825260238152602001806156f46023913960400191505060405180910390fd5b6014546001600160a01b03168061347b5760405162461bcd60e51b81526004018080602001828103825260238152602001806156f46023913960400191505060405180910390fd5b6015546001600160a01b0316806134c35760405162461bcd60e51b81526004018080602001828103825260238152602001806156f46023913960400191505060405180910390fd5b42600e5410613519576040805162461bcd60e51b815260206004820152601c60248201527f5374616b65556e697377617056333a206265666f726520737461727400000000604482015290519081900360640190fd5b600260009054906101000a90046001600160a01b03166001600160a01b0316632736b3916040518163ffffffff1660e01b815260040160206040518083038186803b15801561356757600080fd5b505afa15801561357b573d6000803e3d6000fd5b505050506040513d602081101561359157600080fd5b505142106135e3576040805162461bcd60e51b815260206004820152601a6024820152795374616b65556e697377617056333a20656e64206d696e696e6760301b604482015290519081900360640190fd5b601454604080516331a9108f60e11b8152600481018b9052905133926001600160a01b031691636352211e916024808301926020929190829003018186803b15801561362e57600080fd5b505afa158015613642573d6000803e3d6000fd5b505050506040513d602081101561365857600080fd5b50516001600160a01b0316146136b1576040805162461bcd60e51b815260206004820152601960248201527829ba30b5b2aab734b9bbb0b82b199d103737ba1037bbb732b960391b604482015290519081900360640190fd5b6136ba886148fa565b5050505050505050565b6010546001600160a01b031681565b6016546001600160a01b031681565b60045481565b6014546001600160a01b031681565b6008602052600090815260409020805460018201546002830154600390930154919263ffffffff80831693640100000000909304169185565b61373933611936565b6137745760405162461bcd60e51b81526004018080602001828103825260228152602001806156816022913960400191505060405180910390fd5b600f55565b6000818152601a60205260408120611950906151b4565b7ff0887ba65ee2024ea881d91b74c2450ef19e1557f03bed3ea9f16b037cbe2dc981565b6000828152601a60205260409020600201546137d290611ef661471f565b61240b5760405162461bcd60e51b81526004018080602001828103825260308152602001806156c46030913960400191505060405180910390fd5b601254600090819081906001600160a01b03168061385c5760405162461bcd60e51b81526004018080602001828103825260238152602001806156f46023913960400191505060405180910390fd5b6000935060009250600091506000600d5411801561387b575060175485115b15613a285760008681526007602052604080822060125460028083015484516351c403f960e11b8152600160801b8204830b830b6004820152600160981b909104820b90910b602482015292518996509193926001600160a01b039091169163a38807f291604480820192606092909190829003018186803b15801561390057600080fd5b505afa158015613914573d6000803e3d6000fd5b505050506040513d606081101561392a57600080fd5b5060400151600283015463ffffffff9182169250600160d01b9004168411801561396457506002820154600160b01b900463ffffffff1684115b15613a25576002820154600160d01b900463ffffffff16156139a85760028201546139a190859063ffffffff600160d01b90910481169061440316565b95506139cc565b60028201546139c990859063ffffffff600160b01b90910481169061440316565b95505b8515613a255760048201546001600160a01b031615613a07576004820154613a00906001600160a01b038381169116614403565b9450613a25565b6003820154613a22906001600160a01b038381169116614403565b94505b50505b509250925092565b60076020526000908152604090208054600182015460028084015460038501546004909501546001600160a01b039485169593946001600160801b03831694600160801b8404850b94600160981b8504900b9363ffffffff600160b01b8204811694600160d01b90920416929182169181169060ff600160a01b8204811691600160a81b9004168b565b613ac333611936565b613afe5760405162461bcd60e51b81526004018080602001828103825260228152602001806156816022913960400191505060405180910390fd5b6000601755565b6012546000906001600160a01b031680613b505760405162461bcd60e51b81526004018080602001828103825260238152602001806156f46023913960400191505060405180910390fd5b60125460408051633850c7bd60e01b815290516000926001600160a01b031691633850c7bd9160048083019260e0929190829003018186803b158015613b9557600080fd5b505afa158015613ba9573d6000803e3d6000fd5b505050506040513d60e0811015613bbf57600080fd5b5051905060c0613be285613bdc6001600160a01b03851680614445565b90614445565b901c949350505050565b6012546000908190819081908190819081908190819081906001600160a01b031680613c495760405162461bcd60e51b81526004018080602001828103825260238152602001806156f46023913960400191505060405180910390fd5b42600d54108015613c5b575042600d54105b15613f3c576000600760008e815260200190815260200160002090508060020160009054906101000a90046001600160801b03166001600160801b031696506000601660009054906101000a90046001600160a01b03166001600160a01b0316639cc7f7088f6040518263ffffffff1660e01b81526004018082815260200191505060206040518083038186803b158015613cf557600080fd5b505afa158015613d09573d6000803e3d6000fd5b505050506040513d6020811015613d1f57600080fd5b505160028301549097506001600160801b031615801590613d405750600087115b15613f3957613d5388633b9aca00614445565b871115613d8557613d72613d6b89633b9aca00614445565b8890614403565b9550613d8286633b9aca00614515565b9a505b8a15613f3957601254600280840154604080516351c403f960e11b8152600160801b8304840b840b6004820152600160981b909204830b90920b602482015290516001600160a01b039092169163a38807f291604480820192606092909190829003018186803b158015613df857600080fd5b505afa158015613e0c573d6000803e3d6000fd5b505050506040513d6060811015613e2257600080fd5b5060400151600283015463ffffffff9182169b508b9650600160d01b90041615613e6f576002820154613e689063ffffffff42811691600160d01b90048116906151bf16565b9050613e94565b6002820154613e919063ffffffff42811691600160b01b90048116906151bf16565b90505b63ffffffff811693508315613f395760048201546001600160a01b031615613ed6576004820154613ecf9086906001600160a01b0316614403565b9850613ef2565b6003820154613eef9086906001600160a01b0316614403565b98505b8389108015613f015750600089115b15613f2757613f14846130ef8d8c614445565b9c50613f208b8e614403565b9b50613f39565b8815613f35578a9c50613f39565b8a9b505b50505b509193959799509193959799565b6002546001600160a01b031681565b6000546001600160a01b031681565b6000546001600160a01b031680613fb05760405162461bcd60e51b81526004018080602001828103825260238152602001806156f46023913960400191505060405180910390fd5b6002546001600160a01b031680613ff85760405162461bcd60e51b81526004018080602001828103825260238152602001806156f46023913960400191505060405180910390fd5b6001546001600160a01b0316806140405760405162461bcd60e51b81526004018080602001828103825260238152602001806156f46023913960400191505060405180910390fd5b6010546001600160a01b0316806140885760405162461bcd60e51b81526004018080602001828103825260238152602001806156f46023913960400191505060405180910390fd5b6011546001600160a01b0316806140d05760405162461bcd60e51b81526004018080602001828103825260238152602001806156f46023913960400191505060405180910390fd5b6014546001600160a01b0316806141185760405162461bcd60e51b81526004018080602001828103825260238152602001806156f46023913960400191505060405180910390fd5b6015546001600160a01b0316806141605760405162461bcd60e51b81526004018080602001828103825260238152602001806156f46023913960400191505060405180910390fd5b42600e54106141b6576040805162461bcd60e51b815260206004820152601c60248201527f5374616b65556e697377617056333a206265666f726520737461727400000000604482015290519081900360640190fd5b600260009054906101000a90046001600160a01b03166001600160a01b0316632736b3916040518163ffffffff1660e01b815260040160206040518083038186803b15801561420457600080fd5b505afa158015614218573d6000803e3d6000fd5b505050506040513d602081101561422e57600080fd5b50514210614280576040805162461bcd60e51b815260206004820152601a6024820152795374616b65556e697377617056333a20656e64206d696e696e6760301b604482015290519081900360640190fd5b601454604080516331a9108f60e11b8152600481018f9052905133926001600160a01b031691636352211e916024808301926020929190829003018186803b1580156142cb57600080fd5b505afa1580156142df573d6000803e3d6000fd5b505050506040513d60208110156142f557600080fd5b50516001600160a01b03161461434e576040805162461bcd60e51b815260206004820152601960248201527829ba30b5b2aab734b9bbb0b82b199d103737ba1037bbb732b960391b604482015290519081900360640190fd5b60145460408051637ac2ff7b60e01b8152306004820152602481018f9052604481018e905260ff8d166064820152608481018c905260a481018b905290516001600160a01b0390921691637ac2ff7b9160c48082019260009290919082900301818387803b1580156143bf57600080fd5b505af11580156143d3573d6000803e3d6000fd5b505050506143e08c6148fa565b505050505050505050505050565b6000613147836001600160a01b0384166151dd565b600061314783836040518060400160405280601e81526020017f536166654d6174683a207375627472616374696f6e206f766572666c6f770000815250615227565b60008261445457506000611950565b8282028284828161446157fe5b04146131475760405162461bcd60e51b81526004018080602001828103825260218152602001806157176021913960400191505060405180910390fd5b600082820183811015613147576040805162461bcd60e51b815260206004820152601b60248201527f536166654d6174683a206164646974696f6e206f766572666c6f770000000000604482015290519081900360640190fd5b600061450d61450784846152be565b856152fd565b949350505050565b600061314783836040518060400160405280601a81526020017f536166654d6174683a206469766973696f6e206279207a65726f000000000000815250615320565b6000846145665750600061450d565b6145708584615385565b9450835b8281101561458a57600290950294600101614574565b5093949350505050565b6001600160a01b03831660009081526006602052604081208054839081106145b857fe5b90600052602060002001549050828114614619576040805162461bcd60e51b815260206004820152601e60248201527f5374616b65556e697377617056333a206d69736d6174636820746f6b656e0000604482015290519081900360640190fd5b6001600160a01b03841660009081526006602052604081205461463d906001614403565b905060008411801561464e57508382145b1561471857808310156146e0576001600160a01b038516600090815260066020526040812080548390811061467f57fe5b906000526020600020015490508060066000886001600160a01b03166001600160a01b0316815260200190815260200160002085815481106146bd57fe5b600091825260208083209091019290925591825260079052604090206001018390555b6001600160a01b038516600090815260066020526040902080548061470157fe5b600190038181906000526020600020016000905590555b5050505050565b3390565b6000828152601a6020526040902061473b90826143ee565b15611f405761474861471f565b6001600160a01b0316816001600160a01b0316837f2f8788117e7eff1d82e926ec794901d17c78024a50270940304540a733656f0d60405160405180910390a45050565b600081602001516001600160a01b031682600001516001600160a01b0316106147b457600080fd5b50805160208083015160409384015184516001600160a01b0394851681850152939091168385015262ffffff166060808401919091528351808403820181526080840185528051908301206001600160f81b031960a085015294901b6bffffffffffffffffffffffff191660a183015260b58201939093527fe34f199b19b2b4f47f68442619d555527d244f78a3297ea89325f843f87b8b5460d5808301919091528251808303909101815260f5909101909152805191012090565b6000828152601a60205260409020614888908261539d565b15611f405761489561471f565b6001600160a01b0316816001600160a01b0316837ff6391f5c32d9c69d2a47ea670b442974b53935d1edc7fd64eb21e047a839171b60405160405180910390a45050565b600061314783836153b2565b6000613147836001600160a01b038416615416565b600081815260076020526040902080546001600160a01b031615614965576040805162461bcd60e51b815260206004820152601e60248201527f5374616b65556e697377617056333a20416c7265616479207374616b65640000604482015290519081900360640190fd5b6014546040805163133f757160e31b81526004810185905290518492600092839283928392839283926001600160a01b0316916399fbab8891602480830192610180929190829003018186803b1580156149be57600080fd5b505afa1580156149d2573d6000803e3d6000fd5b505050506040513d6101808110156149e957600080fd5b5060408101516060820151608083015160a084015160c085015160e090950151601054949b5092995090975095509193509091506001600160a01b038088169116148015614a4457506011546001600160a01b038681169116145b80614a7457506011546001600160a01b038781169116148015614a7457506010546001600160a01b038681169116145b614ac5576040805162461bcd60e51b815260206004820152601f60248201527f5374616b65556e697377617056333a20646966666572656e7420746f6b656e00604482015290519081900360640190fd5b6000816001600160801b031611614b23576040805162461bcd60e51b815260206004820152601e60248201527f5374616b65556e697377617056333a207a65726f206c69717569646974790000604482015290519081900360640190fd5b6012546001600160a01b0316614ba457614b83601560009054906101000a90046001600160a01b03166040518060600160405280896001600160a01b03168152602001886001600160a01b031681526020018762ffffff1681525061478c565b601280546001600160a01b0319166001600160a01b03929092169190911790555b6012546001600160a01b0316614c01576040805162461bcd60e51b815260206004820181905260248201527f5374616b65556e697377617056333a207a65726f20706f6f6c41646472657373604482015290519081900360640190fd5b600080601260009054906101000a90046001600160a01b03166001600160a01b0316633850c7bd6040518163ffffffff1660e01b815260040160e06040518083038186803b158015614c5257600080fd5b505afa158015614c66573d6000803e3d6000fd5b505050506040513d60e0811015614c7c57600080fd5b50602081015160c090910151909250905080614cdf576040805162461bcd60e51b815260206004820152601d60248201527f5374616b65556e697377617056333a20756e6c6f636b656420706f6f6c000000604482015290519081900360640190fd5b8160020b8560020b128015614cf957508360020b8260020b125b614d345760405162461bcd60e51b81526004018080602001828103825260218152602001806157586021913960400191505060405180910390fd5b601254604080516351c403f960e11b8152600288810b600483015287900b602482015290516000926001600160a01b03169163a38807f2916044808301926060929190829003018186803b158015614d8b57600080fd5b505afa158015614d9f573d6000803e3d6000fd5b505050506040513d6060811015614db557600080fd5b5060400151600d549091508a90614dcb5742600d555b338c60000160006101000a8154816001600160a01b0302191690836001600160a01b0316021790555060066000336001600160a01b03166001600160a01b03168152602001908152602001600020805490508c60010181905550848c60020160006101000a8154816001600160801b0302191690836001600160801b03160217905550868c60020160106101000a81548162ffffff021916908360020b62ffffff160217905550858c60020160136101000a81548162ffffff021916908360020b62ffffff160217905550428c60020160166101000a81548163ffffffff021916908363ffffffff16021790555060008c600201601a6101000a81548163ffffffff021916908363ffffffff1602179055508163ffffffff168c60030160006101000a8154816001600160a01b0302191690836001600160a01b0316021790555060008c60040160006101000a8154816001600160a01b0302191690836001600160a01b03160217905550601460009054906101000a90046001600160a01b03166001600160a01b03166323b872dd3330846040518463ffffffff1660e01b815260040180846001600160a01b03168152602001836001600160a01b031681526020018281526020019350505050600060405180830381600087803b158015614fb357600080fd5b505af1158015614fc7573d6000803e3d6000fd5b5050336000908152600660209081526040822080546001810182559083529120018390555050600554615003906001600160801b03871661449e565b60055560185461501490600161449e565b601855336000908152600960205260409020805460ff1661504157600a5461503d90600161449e565b600a555b805460ff191660019081178255810154615064906001600160801b03881661449e565b60018281019190915560008381526008602052604090206001600160801b038816808255918101805463ffffffff19164263ffffffff9081169190911790915560165491926001600160a01b039092169163156e29f691339187916150d09190633b9aca009061444516565b6040518463ffffffff1660e01b815260040180846001600160a01b031681526020018381526020018281526020019350505050602060405180830381600087803b15801561511d57600080fd5b505af1158015615131573d6000803e3d6000fd5b505050506040513d602081101561514757600080fd5b50615152905061135c565b601254604080518581526001600160801b038a16602082015281516001600160a01b039093169233927f6c86f3fd5118b3aa8bb4f389a617046de0a3d3d477de1a1673d227f802f616dc928290030190a3505050505050505050505050505050565b60006119508261542e565b60008263ffffffff168263ffffffff1611156151d757fe5b50900390565b60006151e98383615416565b61521f57508154600181810184556000848152602080822090930184905584548482528286019093526040902091909155611950565b506000611950565b600081848411156152b65760405162461bcd60e51b81526004018080602001828103825283818151815260200191508051906020019080838360005b8381101561527b578181015183820152602001615263565b50505050905090810190601f1680156152a85780820380516001836020036101000a031916815260200191505b509250505060405180910390fd5b505050900390565b6000676765c793fa10079d601b1b6152ee6152d98585615432565b6002676765c793fa10079d601b1b5b04615495565b816152f557fe5b049392505050565b6000816152ee61531885676765c793fa10079d601b1b615432565b6002856152e8565b6000818361536f5760405162461bcd60e51b815260206004820181815283516024840152835190928392604490910191908501908083836000831561527b578181015183820152602001615263565b50600083858161537b57fe5b0495945050505050565b6000676765c793fa10079d601b1b6152ee8484615432565b6000613147836001600160a01b0384166154e4565b815460009082106153f45760405162461bcd60e51b81526004018080602001828103825260228152602001806156056022913960400191505060405180910390fd5b82600001828154811061540357fe5b9060005260206000200154905092915050565b60009081526001919091016020526040902054151590565b5490565b600081158061544d5750508082028282828161544a57fe5b04145b611950576040805162461bcd60e51b815260206004820152601460248201527364732d6d6174682d6d756c2d6f766572666c6f7760601b604482015290519081900360640190fd5b80820182811015611950576040805162461bcd60e51b815260206004820152601460248201527364732d6d6174682d6164642d6f766572666c6f7760601b604482015290519081900360640190fd5b600081815260018301602052604081205480156155a0578354600019808301919081019060009087908390811061551757fe5b906000526020600020015490508087600001848154811061553457fe5b60009182526020808320909101929092558281526001898101909252604090209084019055865487908061556457fe5b60019003818190600052602060002001600090559055866001016000878152602001908152602001600020600090556001945050505050611950565b6000915050611950565b60405180604001604052806002906020820280368337509192915050565b6040518060a001604052806005906020820280368337509192915050565b6040518060800160405280600490602082028036833750919291505056fe456e756d657261626c655365743a20696e646578206f7574206f6620626f756e64735374616b65556e697377617056333a207a65726f206f722073616d65205f73616c65537461727454696d65416363657373436f6e74726f6c3a2073656e646572206d75737420626520616e2061646d696e20746f206772616e7441636365737369626c653a2043616c6c6572206973206e6f7420616e2061646d696e5374616b65556e697377617056333a207a65726f206d696e696e67416d6f756e74416363657373436f6e74726f6c3a2073656e646572206d75737420626520616e2061646d696e20746f207265766f6b655374616b65556e6973776170563353746f726167653a207a65726f2061646472657373536166654d6174683a206d756c7469706c69636174696f6e206f766572666c6f77df8b4c520ffe197c5343c6f5aec59570151ef9a492f2c624fd45ddde6135ec425374616b65556e697377617056333a206f7574206f66207469636b2072616e6765416363657373436f6e74726f6c3a2063616e206f6e6c792072656e6f756e636520726f6c657320666f722073656c66a2646970667358221220899e09e63fc1667ce81b494836af0418e3c9ec43fc4892674e6f1c0af9837f3064736f6c63430007060033df8b4c520ffe197c5343c6f5aec59570151ef9a492f2c624fd45ddde6135ec42",
  "linkReferences": {},
  "deployedLinkReferences": {}
}