{
  "_format": "hh-sol-artifact-1",
  "contractName": "AutoRefactorCoinageWithTokenId",
  "sourceName": "contracts/tokens/AutoRefactorCoinageWithTokenId.sol",
  "abi": [
    {
      "inputs": [
        {
          "internalType": "uint256",
          "name": "initfactor",
          "type": "uint256"
        }
      ],
      "stateMutability": "nonpayable",
      "type": "constructor"
    },
    {
      "anonymous": false,
      "inputs": [
        {
          "indexed": true,
          "internalType": "address",
          "name": "tokenOwner",
          "type": "address"
        },
        {
          "indexed": true,
          "internalType": "uint256",
          "name": "tokenId",
          "type": "uint256"
        },
        {
          "indexed": false,
          "internalType": "uint256",
          "name": "amount",
          "type": "uint256"
        }
      ],
      "name": "Burned",
      "type": "event"
    },
    {
      "anonymous": false,
      "inputs": [
        {
          "indexed": false,
          "internalType": "uint256",
          "name": "previous",
          "type": "uint256"
        },
        {
          "indexed": false,
          "internalType": "uint256",
          "name": "current",
          "type": "uint256"
        },
        {
          "indexed": false,
          "internalType": "uint256",
          "name": "shiftCount",
          "type": "uint256"
        }
      ],
      "name": "FactorSet",
      "type": "event"
    },
    {
      "anonymous": false,
      "inputs": [
        {
          "indexed": true,
          "internalType": "address",
          "name": "tokenOwner",
          "type": "address"
        },
        {
          "indexed": true,
          "internalType": "uint256",
          "name": "tokenId",
          "type": "uint256"
        },
        {
          "indexed": false,
          "internalType": "uint256",
          "name": "amount",
          "type": "uint256"
        }
      ],
      "name": "Mined",
      "type": "event"
    },
    {
      "anonymous": false,
      "inputs": [
        {
          "indexed": true,
          "internalType": "bytes32",
          "name": "role",
          "type": "bytes32"
        },
        {
          "indexed": true,
          "internalType": "bytes32",
          "name": "previousAdminRole",
          "type": "bytes32"
        },
        {
          "indexed": true,
          "internalType": "bytes32",
          "name": "newAdminRole",
          "type": "bytes32"
        }
      ],
      "name": "RoleAdminChanged",
      "type": "event"
    },
    {
      "anonymous": false,
      "inputs": [
        {
          "indexed": true,
          "internalType": "bytes32",
          "name": "role",
          "type": "bytes32"
        },
        {
          "indexed": true,
          "internalType": "address",
          "name": "account",
          "type": "address"
        },
        {
          "indexed": true,
          "internalType": "address",
          "name": "sender",
          "type": "address"
        }
      ],
      "name": "RoleGranted",
      "type": "event"
    },
    {
      "anonymous": false,
      "inputs": [
        {
          "indexed": true,
          "internalType": "bytes32",
          "name": "role",
          "type": "bytes32"
        },
        {
          "indexed": true,
          "internalType": "address",
          "name": "account",
          "type": "address"
        },
        {
          "indexed": true,
          "internalType": "address",
          "name": "sender",
          "type": "address"
        }
      ],
      "name": "RoleRevoked",
      "type": "event"
    },
    {
      "inputs": [],
      "name": "ADMIN_ROLE",
      "outputs": [
        {
          "internalType": "bytes32",
          "name": "",
          "type": "bytes32"
        }
      ],
      "stateMutability": "view",
      "type": "function"
    },
    {
      "inputs": [],
      "name": "BURNER_ROLE",
      "outputs": [
        {
          "internalType": "bytes32",
          "name": "",
          "type": "bytes32"
        }
      ],
      "stateMutability": "view",
      "type": "function"
    },
    {
      "inputs": [],
      "name": "DEFAULT_ADMIN_ROLE",
      "outputs": [
        {
          "internalType": "bytes32",
          "name": "",
          "type": "bytes32"
        }
      ],
      "stateMutability": "view",
      "type": "function"
    },
    {
      "inputs": [],
      "name": "MINTER_ROLE",
      "outputs": [
        {
          "internalType": "bytes32",
          "name": "",
          "type": "bytes32"
        }
      ],
      "stateMutability": "view",
      "type": "function"
    },
    {
      "inputs": [],
      "name": "PROJECT_ADMIN_ROLE",
      "outputs": [
        {
          "internalType": "bytes32",
          "name": "",
          "type": "bytes32"
        }
      ],
      "stateMutability": "view",
      "type": "function"
    },
    {
      "inputs": [],
      "name": "REFACTOR_BOUNDARY",
      "outputs": [
        {
          "internalType": "uint256",
          "name": "",
          "type": "uint256"
        }
      ],
      "stateMutability": "view",
      "type": "function"
    },
    {
      "inputs": [],
      "name": "REFACTOR_DIVIDER",
      "outputs": [
        {
          "internalType": "uint256",
          "name": "",
          "type": "uint256"
        }
      ],
      "stateMutability": "view",
      "type": "function"
    },
    {
      "inputs": [],
      "name": "_factor",
      "outputs": [
        {
          "internalType": "uint256",
          "name": "",
          "type": "uint256"
        }
      ],
      "stateMutability": "view",
      "type": "function"
    },
    {
      "inputs": [],
      "name": "_totalSupply",
      "outputs": [
        {
          "internalType": "uint256",
          "name": "balance",
          "type": "uint256"
        },
        {
          "internalType": "uint256",
          "name": "refactoredCount",
          "type": "uint256"
        },
        {
          "internalType": "uint256",
          "name": "remain",
          "type": "uint256"
        }
      ],
      "stateMutability": "view",
      "type": "function"
    },
    {
      "inputs": [
        {
          "internalType": "address",
          "name": "account",
          "type": "address"
        }
      ],
      "name": "addAdmin",
      "outputs": [],
      "stateMutability": "nonpayable",
      "type": "function"
    },
    {
      "inputs": [
        {
          "internalType": "uint256",
          "name": "tokenId",
          "type": "uint256"
        }
      ],
      "name": "balanceOf",
      "outputs": [
        {
          "internalType": "uint256",
          "name": "",
          "type": "uint256"
        }
      ],
      "stateMutability": "view",
      "type": "function"
    },
    {
      "inputs": [
        {
          "internalType": "uint256",
          "name": "",
          "type": "uint256"
        }
      ],
      "name": "balances",
      "outputs": [
        {
          "internalType": "uint256",
          "name": "balance",
          "type": "uint256"
        },
        {
          "internalType": "uint256",
          "name": "refactoredCount",
          "type": "uint256"
        },
        {
          "internalType": "uint256",
          "name": "remain",
          "type": "uint256"
        }
      ],
      "stateMutability": "view",
      "type": "function"
    },
    {
      "inputs": [
        {
          "internalType": "uint256",
          "name": "tokenId",
          "type": "uint256"
        }
      ],
      "name": "balancesTokenId",
      "outputs": [
        {
          "internalType": "uint256",
          "name": "balance",
          "type": "uint256"
        },
        {
          "internalType": "uint256",
          "name": "refactoredCount",
          "type": "uint256"
        },
        {
          "internalType": "uint256",
          "name": "remain",
          "type": "uint256"
        }
      ],
      "stateMutability": "view",
      "type": "function"
    },
    {
      "inputs": [
        {
          "internalType": "address",
          "name": "tokenOwner",
          "type": "address"
        },
        {
          "internalType": "uint256",
          "name": "tokenId",
          "type": "uint256"
        },
        {
          "internalType": "uint256",
          "name": "amount",
          "type": "uint256"
        }
      ],
      "name": "burn",
      "outputs": [],
      "stateMutability": "nonpayable",
      "type": "function"
    },
    {
      "inputs": [
        {
          "internalType": "address",
          "name": "tokenOwner",
          "type": "address"
        },
        {
          "internalType": "uint256",
          "name": "tokenId",
          "type": "uint256"
        }
      ],
      "name": "burnTokenId",
      "outputs": [],
      "stateMutability": "nonpayable",
      "type": "function"
    },
    {
      "inputs": [],
      "name": "decimal",
      "outputs": [
        {
          "internalType": "uint8",
          "name": "",
          "type": "uint8"
        }
      ],
      "stateMutability": "view",
      "type": "function"
    },
    {
      "inputs": [],
      "name": "factor",
      "outputs": [
        {
          "internalType": "uint256",
          "name": "",
          "type": "uint256"
        }
      ],
      "stateMutability": "view",
      "type": "function"
    },
    {
      "inputs": [
        {
          "internalType": "bytes32",
          "name": "role",
          "type": "bytes32"
        }
      ],
      "name": "getRoleAdmin",
      "outputs": [
        {
          "internalType": "bytes32",
          "name": "",
          "type": "bytes32"
        }
      ],
      "stateMutability": "view",
      "type": "function"
    },
    {
      "inputs": [
        {
          "internalType": "bytes32",
          "name": "role",
          "type": "bytes32"
        },
        {
          "internalType": "uint256",
          "name": "index",
          "type": "uint256"
        }
      ],
      "name": "getRoleMember",
      "outputs": [
        {
          "internalType": "address",
          "name": "",
          "type": "address"
        }
      ],
      "stateMutability": "view",
      "type": "function"
    },
    {
      "inputs": [
        {
          "internalType": "bytes32",
          "name": "role",
          "type": "bytes32"
        }
      ],
      "name": "getRoleMemberCount",
      "outputs": [
        {
          "internalType": "uint256",
          "name": "",
          "type": "uint256"
        }
      ],
      "stateMutability": "view",
      "type": "function"
    },
    {
      "inputs": [
        {
          "internalType": "bytes32",
          "name": "role",
          "type": "bytes32"
        },
        {
          "internalType": "address",
          "name": "account",
          "type": "address"
        }
      ],
      "name": "grantRole",
      "outputs": [],
      "stateMutability": "nonpayable",
      "type": "function"
    },
    {
      "inputs": [
        {
          "internalType": "bytes32",
          "name": "role",
          "type": "bytes32"
        },
        {
          "internalType": "address",
          "name": "account",
          "type": "address"
        }
      ],
      "name": "hasRole",
      "outputs": [
        {
          "internalType": "bool",
          "name": "",
          "type": "bool"
        }
      ],
      "stateMutability": "view",
      "type": "function"
    },
    {
      "inputs": [
        {
          "internalType": "address",
          "name": "account",
          "type": "address"
        }
      ],
      "name": "isAdmin",
      "outputs": [
        {
          "internalType": "bool",
          "name": "",
          "type": "bool"
        }
      ],
      "stateMutability": "view",
      "type": "function"
    },
    {
      "inputs": [
        {
          "internalType": "address",
          "name": "tokenOwner",
          "type": "address"
        },
        {
          "internalType": "uint256",
          "name": "tokenId",
          "type": "uint256"
        },
        {
          "internalType": "uint256",
          "name": "amount",
          "type": "uint256"
        }
      ],
      "name": "mint",
      "outputs": [
        {
          "internalType": "bool",
          "name": "",
          "type": "bool"
        }
      ],
      "stateMutability": "nonpayable",
      "type": "function"
    },
    {
      "inputs": [],
      "name": "refactorCount",
      "outputs": [
        {
          "internalType": "uint256",
          "name": "",
          "type": "uint256"
        }
      ],
      "stateMutability": "view",
      "type": "function"
    },
    {
      "inputs": [
        {
          "internalType": "address",
          "name": "account",
          "type": "address"
        }
      ],
      "name": "removeAdmin",
      "outputs": [],
      "stateMutability": "nonpayable",
      "type": "function"
    },
    {
      "inputs": [
        {
          "internalType": "bytes32",
          "name": "role",
          "type": "bytes32"
        },
        {
          "internalType": "address",
          "name": "account",
          "type": "address"
        }
      ],
      "name": "renounceRole",
      "outputs": [],
      "stateMutability": "nonpayable",
      "type": "function"
    },
    {
      "inputs": [
        {
          "internalType": "bytes32",
          "name": "role",
          "type": "bytes32"
        },
        {
          "internalType": "address",
          "name": "account",
          "type": "address"
        }
      ],
      "name": "revokeRole",
      "outputs": [],
      "stateMutability": "nonpayable",
      "type": "function"
    },
    {
      "inputs": [
        {
          "internalType": "uint256",
          "name": "infactor",
          "type": "uint256"
        }
      ],
      "name": "setFactor",
      "outputs": [
        {
          "internalType": "uint256",
          "name": "",
          "type": "uint256"
        }
      ],
      "stateMutability": "nonpayable",
      "type": "function"
    },
    {
      "inputs": [],
      "name": "totalSupply",
      "outputs": [
        {
          "internalType": "uint256",
          "name": "",
          "type": "uint256"
        }
      ],
      "stateMutability": "view",
      "type": "function"
    },
    {
      "inputs": [
        {
          "internalType": "address",
          "name": "newAdmin",
          "type": "address"
        }
      ],
      "name": "transferAdmin",
      "outputs": [],
      "stateMutability": "nonpayable",
      "type": "function"
    }
  ],
  "bytecode": "0x60806040526001805460ff1916601b1790556b204fce5e3e2502611000000060029081556003553480156200003357600080fd5b50604051620016ae380380620016ae833981810160405260208110156200005957600080fd5b505160098190556200007b6000805160206200168e833981519152806200009d565b620000966000805160206200168e83398151915233620000ef565b5062000203565b600082815260208190526040808220600201549051839285917fbd79b86ffe0ab8e8776151514217cd7cacd52c909f66475c3af44e129f0b00ff9190a460009182526020829052604090912060020155565b620000fb8282620000ff565b5050565b6000828152602081815260409091206200012491839062000cf662000178821b17901c565b15620000fb576200013462000198565b6001600160a01b0316816001600160a01b0316837f2f8788117e7eff1d82e926ec794901d17c78024a50270940304540a733656f0d60405160405180910390a45050565b60006200018f836001600160a01b0384166200019c565b90505b92915050565b3390565b6000620001aa8383620001eb565b620001e25750815460018181018455600084815260208082209093018490558454848252828601909352604090209190915562000192565b50600062000192565b60009081526001919091016020526040902054151590565b61147b80620002136000396000f3fe608060405234801561001057600080fd5b50600436106101a45760003560e01c806370480275116100ef578063a217fddf11610092578063a217fddf1461047a578063a7ac30b014610482578063b7c246d71461048a578063c1211c4314610492578063ca15c873146104af578063d5391393146104cc578063d547741f146104d4578063f5298aca14610500576101a4565b8063704802751461036357806375829def1461038957806375b238fc146103af57806376809ce3146103b7578063817e9d31146103d55780639010d07c146103f257806391d14854146104315780639cc7f7081461045d576101a4565b80632f2ff15d116101575780632f2ff15d1461028457806336568abe146102b05780633eaaf86b146102dc57806341c04d5e146103025780634903b0d11461030a57806354f703f8146103275780636621a0251461032f5780636d1506111461035b576101a4565b8062d87a9c146101a9578063156e29f6146101c35780631785f53c1461020957806318160ddd14610231578063248a9ca31461023957806324d7806c14610256578063282c51f31461027c575b600080fd5b6101b1610532565b60408051918252519081900360200190f35b6101f5600480360360608110156101d957600080fd5b506001600160a01b038135169060208101359060400135610538565b604080519115158252519081900360200190f35b61022f6004803603602081101561021f57600080fd5b50356001600160a01b0316610618565b005b6101b1610677565b6101b16004803603602081101561024f57600080fd5b5035610693565b6101f56004803603602081101561026c57600080fd5b50356001600160a01b03166106a8565b6101b16106c8565b61022f6004803603604081101561029a57600080fd5b50803590602001356001600160a01b03166106ec565b61022f600480360360408110156102c657600080fd5b50803590602001356001600160a01b0316610758565b6102e46107b9565b60408051938452602084019290925282820152519081900360600190f35b6101b16107c5565b6102e46004803603602081101561032057600080fd5b50356107e9565b6101b161080a565b61022f6004803603604081101561034557600080fd5b506001600160a01b038135169060200135610832565b6101b16108ba565b61022f6004803603602081101561037957600080fd5b50356001600160a01b03166108c0565b61022f6004803603602081101561039f57600080fd5b50356001600160a01b031661091c565b6101b1610a3d565b6103bf610a4f565b6040805160ff9092168252519081900360200190f35b6101b1600480360360208110156103eb57600080fd5b5035610a58565b6104156004803603604081101561040857600080fd5b5080359060200135610b1d565b604080516001600160a01b039092168252519081900360200190f35b6101f56004803603604081101561044757600080fd5b50803590602001356001600160a01b0316610b3c565b6101b16004803603602081101561047357600080fd5b5035610b54565b6101b1610b80565b6101b1610b85565b6101b1610b8b565b6102e4600480360360208110156104a857600080fd5b5035610b91565b6101b1600480360360208110156104c557600080fd5b5035610bb0565b6101b1610bc7565b61022f600480360360408110156104ea57600080fd5b50803590602001356001600160a01b0316610beb565b61022f6004803603606081101561051657600080fd5b506001600160a01b038135169060208101359060400135610c44565b60035481565b6000610543336106a8565b61057e5760405162461bcd60e51b81526004018080602001828103825260228152602001806113006022913960400191505060405180910390fd5b836001600160a01b0381166105c45760405162461bcd60e51b815260040180806020018281038252602b8152602001806113b2602b913960400191505060405180910390fd5b83806106015760405162461bcd60e51b815260040180806020018281038252602b8152602001806113b2602b913960400191505060405180910390fd5b61060c868686610d0b565b50600195945050505050565b610621336106a8565b61065c5760405162461bcd60e51b81526004018080602001828103825260228152602001806113006022913960400191505060405180910390fd5b61067460008051602061139283398151915282610758565b50565b6008546006546007546000929161068d91610dd4565b01905090565b60009081526020819052604090206002015490565b60006106c260008051602061139283398151915283610b3c565b92915050565b7f9667e80708b6eeeb0053fa0cca44e028ff548e2a9f029edfeac87c118b08b7c881565b60008281526020819052604090206002015461070f9061070a610e15565b610b3c565b61074a5760405162461bcd60e51b815260040180806020018281038252602f815260200180611299602f913960400191505060405180910390fd5b6107548282610e19565b5050565b610760610e15565b6001600160a01b0316816001600160a01b0316146107af5760405162461bcd60e51b815260040180806020018281038252602f815260200180611417602f913960400191505060405180910390fd5b6107548282610e82565b60065460075460085483565b7f52eafc11f6f81f86878bffd31109a0d92f37506527754f00788853ff9f63b13081565b60056020526000908152604090208054600182015460029092015490919083565b600954600090815b60045481101561082c576003549190910290600101610812565b50905090565b61083b336106a8565b6108765760405162461bcd60e51b81526004018080602001828103825260228152602001806113006022913960400191505060405180910390fd5b6000610880610677565b905061088b82610b54565b8110156108a25761089d838383610eeb565b6108b5565b6108b583836108b085610b54565b610eeb565b505050565b60095481565b6108c9336106a8565b6109045760405162461bcd60e51b81526004018080602001828103825260228152602001806113006022913960400191505060405180910390fd5b610674600080516020611392833981519152826106ec565b610925336106a8565b6109605760405162461bcd60e51b81526004018080602001828103825260228152602001806113006022913960400191505060405180910390fd5b6001600160a01b0381166109b6576040805162461bcd60e51b815260206004820152601860248201527741636365737369626c653a207a65726f206164647265737360401b604482015290519081900360640190fd5b336001600160a01b0382161415610a0d576040805162461bcd60e51b815260206004820152601660248201527520b1b1b2b9b9b4b136329d1039b0b6b29030b236b4b760511b604482015290519081900360640190fd5b610a25600080516020611392833981519152826106ec565b61067460008051602061139283398151915233610758565b60008051602061139283398151915281565b60015460ff1681565b6000610a63336106a8565b610a9e5760405162461bcd60e51b81526004018080602001828103825260228152602001806113006022913960400191505060405180910390fd5b6009546000835b6002548110610ac7578160010191506003548181610abf57fe5b049050610aa5565b60048290556009819055604080518481526020810183905280820184905290517f47eb304b27f9efb047a046029f8a279a7cc8fccc6786f1e2f65939639584fbdc9181900360600190a150506009549392505050565b6000828152602081905260408120610b359083610f9a565b9392505050565b6000828152602081905260408120610b359083610fa6565b6000818152600560205260408120600281015481546001830154610b789190610dd4565b019392505050565b600081565b60045481565b60025481565b6000908152600560205260409020805460018201546002909201549092565b60008181526020819052604081206106c290610fbb565b7ff0887ba65ee2024ea881d91b74c2450ef19e1557f03bed3ea9f16b037cbe2dc981565b600082815260208190526040902060020154610c099061070a610e15565b6107af5760405162461bcd60e51b81526004018080602001828103825260308152602001806113226030913960400191505060405180910390fd5b610c4d336106a8565b610c885760405162461bcd60e51b81526004018080602001828103825260228152602001806113006022913960400191505060405180910390fd5b610c9182610b54565b811115610ccf5760405162461bcd60e51b81526004018080602001828103825260408152602001806113526040913960400191505060405180910390fd5b610cd7610677565b811115610ceb5761089d83836108b0610677565b6108b5838383610eeb565b6000610b35836001600160a01b038416610fc6565b81610d475760405162461bcd60e51b81526004018080602001828103825260388152602001806112c86038913960400191505060405180910390fd5b600082815260056020526040812090610d5f84610b54565b90508281016000610d6f82611010565b80855560045460018601559050610d858561101e565b85876001600160a01b03167f5a9ec13c12ca9563a7b3108125f74c57ed388bb313394ea50f7e4a71b01497c2610dba8461104f565b60408051918252519081900360200190a350505050505050565b600082610de3575060006106c2565b610def83600954611059565b9250815b600454811015610e0d576003549390930292600101610df3565b509192915050565b3390565b6000828152602081905260409020610e319082610cf6565b1561075457610e3e610e15565b6001600160a01b0316816001600160a01b0316837f2f8788117e7eff1d82e926ec794901d17c78024a50270940304540a733656f0d60405160405180910390a45050565b6000828152602081905260409020610e9a9082611081565b1561075457610ea7610e15565b6001600160a01b0316816001600160a01b0316837ff6391f5c32d9c69d2a47ea670b442974b53935d1edc7fd64eb21e047a839171b60405160405180910390a45050565b81610f275760405162461bcd60e51b815260040180806020018281038252603a8152602001806113dd603a913960400191505060405180910390fd5b600082815260056020526040812090610f3f84610b54565b90508281036000610f4f82611010565b80855560045460018601559050610f6585611096565b85876001600160a01b03167f23ff0e75edf108e3d0392d92e13e8c8a868ef19001bd49f9e94876dc46dff87f610dba8461104f565b6000610b3583836110b8565b6000610b35836001600160a01b03841661111c565b60006106c282611134565b6000610fd2838361111c565b611008575081546001818101845560008481526020808220909301849055845484825282860190935260409020919091556106c2565b5060006106c2565b60006106c282600954611138565b60065460075460009161103091610dd4565b9050818101600061104082611010565b60065550506004546007555050565b60006106c2826009545b60006b033b2e3c9fd0803ce8000000611072848461114d565b8161107957fe5b049392505050565b6000610b35836001600160a01b0384166111b0565b6006546007546000916110a891610dd4565b9050818103600061104082611010565b815460009082106110fa5760405162461bcd60e51b81526004018080602001828103825260228152602001806112776022913960400191505060405180910390fd5b82600001828154811061110957fe5b9060005260206000200154905092915050565b60009081526001919091016020526040902054151590565b5490565b600081611072846b033b2e3c9fd0803ce80000005b60008115806111685750508082028282828161116557fe5b04145b6106c2576040805162461bcd60e51b815260206004820152601460248201527364732d6d6174682d6d756c2d6f766572666c6f7760601b604482015290519081900360640190fd5b6000818152600183016020526040812054801561126c57835460001980830191908101906000908790839081106111e357fe5b906000526020600020015490508087600001848154811061120057fe5b60009182526020808320909101929092558281526001898101909252604090209084019055865487908061123057fe5b600190038181906000526020600020016000905590558660010160008781526020019081526020016000206000905560019450505050506106c2565b60009150506106c256fe456e756d657261626c655365743a20696e646578206f7574206f6620626f756e6473416363657373436f6e74726f6c3a2073656e646572206d75737420626520616e2061646d696e20746f206772616e744175746f5265666163746f72436f696e61676557697468546f6b656e49643a206d696e7420746f20746865207a65726f20746f6b656e496441636365737369626c653a2043616c6c6572206973206e6f7420616e2061646d696e416363657373436f6e74726f6c3a2073656e646572206d75737420626520616e2061646d696e20746f207265766f6b654175746f5265666163746f72436f696e61676557697468546f6b656e49643a20496e73756666696369656e742062616c616e6365206f6620746f6b656e204944df8b4c520ffe197c5343c6f5aec59570151ef9a492f2c624fd45ddde6135ec424175746f5265666163746f72436f696e61676557697468546f6b656e49643a7a65726f20616464726573734175746f5265666163746f72436f696e61676557697468546f6b656e49643a206275726e2066726f6d20746865207a65726f20746f6b656e4964416363657373436f6e74726f6c3a2063616e206f6e6c792072656e6f756e636520726f6c657320666f722073656c66a2646970667358221220c993d0e2ca2effed5d003fe7e7d2cc98df354ed4d3ef58af086945cc238d6dac64736f6c63430007060033df8b4c520ffe197c5343c6f5aec59570151ef9a492f2c624fd45ddde6135ec42",
  "linkReferences": {},
  "deployedLinkReferences": {}
}