{
  "_format": "hh-sol-artifact-1",
  "contractName": "StakeVaultStorage",
  "sourceName": "contracts/stake/StakeVaultStorage.sol",
  "abi": [
    {
      "anonymous": false,
      "inputs": [
        {
          "indexed": true,
          "internalType": "bytes32",
          "name": "role",
          "type": "bytes32"
        },
        {
          "indexed": true,
          "internalType": "bytes32",
          "name": "previousAdminRole",
          "type": "bytes32"
        },
        {
          "indexed": true,
          "internalType": "bytes32",
          "name": "newAdminRole",
          "type": "bytes32"
        }
      ],
      "name": "RoleAdminChanged",
      "type": "event"
    },
    {
      "anonymous": false,
      "inputs": [
        {
          "indexed": true,
          "internalType": "bytes32",
          "name": "role",
          "type": "bytes32"
        },
        {
          "indexed": true,
          "internalType": "address",
          "name": "account",
          "type": "address"
        },
        {
          "indexed": true,
          "internalType": "address",
          "name": "sender",
          "type": "address"
        }
      ],
      "name": "RoleGranted",
      "type": "event"
    },
    {
      "anonymous": false,
      "inputs": [
        {
          "indexed": true,
          "internalType": "bytes32",
          "name": "role",
          "type": "bytes32"
        },
        {
          "indexed": true,
          "internalType": "address",
          "name": "account",
          "type": "address"
        },
        {
          "indexed": true,
          "internalType": "address",
          "name": "sender",
          "type": "address"
        }
      ],
      "name": "RoleRevoked",
      "type": "event"
    },
    {
      "inputs": [],
      "name": "ADMIN_ROLE",
      "outputs": [
        {
          "internalType": "bytes32",
          "name": "",
          "type": "bytes32"
        }
      ],
      "stateMutability": "view",
      "type": "function"
    },
    {
      "inputs": [],
      "name": "BURNER_ROLE",
      "outputs": [
        {
          "internalType": "bytes32",
          "name": "",
          "type": "bytes32"
        }
      ],
      "stateMutability": "view",
      "type": "function"
    },
    {
      "inputs": [],
      "name": "DEFAULT_ADMIN_ROLE",
      "outputs": [
        {
          "internalType": "bytes32",
          "name": "",
          "type": "bytes32"
        }
      ],
      "stateMutability": "view",
      "type": "function"
    },
    {
      "inputs": [],
      "name": "MINTER_ROLE",
      "outputs": [
        {
          "internalType": "bytes32",
          "name": "",
          "type": "bytes32"
        }
      ],
      "stateMutability": "view",
      "type": "function"
    },
    {
      "inputs": [],
      "name": "PROJECT_ADMIN_ROLE",
      "outputs": [
        {
          "internalType": "bytes32",
          "name": "",
          "type": "bytes32"
        }
      ],
      "stateMutability": "view",
      "type": "function"
    },
    {
      "inputs": [
        {
          "internalType": "address",
          "name": "account",
          "type": "address"
        }
      ],
      "name": "addAdmin",
      "outputs": [],
      "stateMutability": "nonpayable",
      "type": "function"
    },
    {
      "inputs": [],
      "name": "blockTotalReward",
      "outputs": [
        {
          "internalType": "uint256",
          "name": "",
          "type": "uint256"
        }
      ],
      "stateMutability": "view",
      "type": "function"
    },
    {
      "inputs": [],
      "name": "cap",
      "outputs": [
        {
          "internalType": "uint256",
          "name": "",
          "type": "uint256"
        }
      ],
      "stateMutability": "view",
      "type": "function"
    },
    {
      "inputs": [],
      "name": "defiAddr",
      "outputs": [
        {
          "internalType": "address",
          "name": "",
          "type": "address"
        }
      ],
      "stateMutability": "view",
      "type": "function"
    },
    {
      "inputs": [
        {
          "internalType": "bytes32",
          "name": "role",
          "type": "bytes32"
        }
      ],
      "name": "getRoleAdmin",
      "outputs": [
        {
          "internalType": "bytes32",
          "name": "",
          "type": "bytes32"
        }
      ],
      "stateMutability": "view",
      "type": "function"
    },
    {
      "inputs": [
        {
          "internalType": "bytes32",
          "name": "role",
          "type": "bytes32"
        },
        {
          "internalType": "uint256",
          "name": "index",
          "type": "uint256"
        }
      ],
      "name": "getRoleMember",
      "outputs": [
        {
          "internalType": "address",
          "name": "",
          "type": "address"
        }
      ],
      "stateMutability": "view",
      "type": "function"
    },
    {
      "inputs": [
        {
          "internalType": "bytes32",
          "name": "role",
          "type": "bytes32"
        }
      ],
      "name": "getRoleMemberCount",
      "outputs": [
        {
          "internalType": "uint256",
          "name": "",
          "type": "uint256"
        }
      ],
      "stateMutability": "view",
      "type": "function"
    },
    {
      "inputs": [
        {
          "internalType": "bytes32",
          "name": "role",
          "type": "bytes32"
        },
        {
          "internalType": "address",
          "name": "account",
          "type": "address"
        }
      ],
      "name": "grantRole",
      "outputs": [],
      "stateMutability": "nonpayable",
      "type": "function"
    },
    {
      "inputs": [
        {
          "internalType": "bytes32",
          "name": "role",
          "type": "bytes32"
        },
        {
          "internalType": "address",
          "name": "account",
          "type": "address"
        }
      ],
      "name": "hasRole",
      "outputs": [
        {
          "internalType": "bool",
          "name": "",
          "type": "bool"
        }
      ],
      "stateMutability": "view",
      "type": "function"
    },
    {
      "inputs": [
        {
          "internalType": "address",
          "name": "account",
          "type": "address"
        }
      ],
      "name": "isAdmin",
      "outputs": [
        {
          "internalType": "bool",
          "name": "",
          "type": "bool"
        }
      ],
      "stateMutability": "view",
      "type": "function"
    },
    {
      "inputs": [],
      "name": "migratedL2",
      "outputs": [
        {
          "internalType": "bool",
          "name": "",
          "type": "bool"
        }
      ],
      "stateMutability": "view",
      "type": "function"
    },
    {
      "inputs": [
        {
          "internalType": "uint256",
          "name": "",
          "type": "uint256"
        }
      ],
      "name": "orderedEndBlocks",
      "outputs": [
        {
          "internalType": "uint256",
          "name": "",
          "type": "uint256"
        }
      ],
      "stateMutability": "view",
      "type": "function"
    },
    {
      "inputs": [],
      "name": "pauseProxy",
      "outputs": [
        {
          "internalType": "bool",
          "name": "",
          "type": "bool"
        }
      ],
      "stateMutability": "view",
      "type": "function"
    },
    {
      "inputs": [],
      "name": "paytoken",
      "outputs": [
        {
          "internalType": "address",
          "name": "",
          "type": "address"
        }
      ],
      "stateMutability": "view",
      "type": "function"
    },
    {
      "inputs": [],
      "name": "realEndBlock",
      "outputs": [
        {
          "internalType": "uint256",
          "name": "",
          "type": "uint256"
        }
      ],
      "stateMutability": "view",
      "type": "function"
    },
    {
      "inputs": [
        {
          "internalType": "address",
          "name": "account",
          "type": "address"
        }
      ],
      "name": "removeAdmin",
      "outputs": [],
      "stateMutability": "nonpayable",
      "type": "function"
    },
    {
      "inputs": [
        {
          "internalType": "bytes32",
          "name": "role",
          "type": "bytes32"
        },
        {
          "internalType": "address",
          "name": "account",
          "type": "address"
        }
      ],
      "name": "renounceRole",
      "outputs": [],
      "stateMutability": "nonpayable",
      "type": "function"
    },
    {
      "inputs": [
        {
          "internalType": "bytes32",
          "name": "role",
          "type": "bytes32"
        },
        {
          "internalType": "address",
          "name": "account",
          "type": "address"
        }
      ],
      "name": "revokeRole",
      "outputs": [],
      "stateMutability": "nonpayable",
      "type": "function"
    },
    {
      "inputs": [],
      "name": "saleClosed",
      "outputs": [
        {
          "internalType": "bool",
          "name": "",
          "type": "bool"
        }
      ],
      "stateMutability": "view",
      "type": "function"
    },
    {
      "inputs": [],
      "name": "saleStartBlock",
      "outputs": [
        {
          "internalType": "uint256",
          "name": "",
          "type": "uint256"
        }
      ],
      "stateMutability": "view",
      "type": "function"
    },
    {
      "inputs": [
        {
          "internalType": "uint256",
          "name": "",
          "type": "uint256"
        }
      ],
      "name": "stakeAddresses",
      "outputs": [
        {
          "internalType": "address",
          "name": "",
          "type": "address"
        }
      ],
      "stateMutability": "view",
      "type": "function"
    },
    {
      "inputs": [],
      "name": "stakeEndBlock",
      "outputs": [
        {
          "internalType": "uint256",
          "name": "",
          "type": "uint256"
        }
      ],
      "stateMutability": "view",
      "type": "function"
    },
    {
      "inputs": [
        {
          "internalType": "uint256",
          "name": "",
          "type": "uint256"
        }
      ],
      "name": "stakeEndBlockTotal",
      "outputs": [
        {
          "internalType": "uint256",
          "name": "",
          "type": "uint256"
        }
      ],
      "stateMutability": "view",
      "type": "function"
    },
    {
      "inputs": [
        {
          "internalType": "address",
          "name": "",
          "type": "address"
        }
      ],
      "name": "stakeInfos",
      "outputs": [
        {
          "internalType": "string",
          "name": "name",
          "type": "string"
        },
        {
          "internalType": "uint256",
          "name": "startBlock",
          "type": "uint256"
        },
        {
          "internalType": "uint256",
          "name": "endBlock",
          "type": "uint256"
        },
        {
          "internalType": "uint256",
          "name": "balance",
          "type": "uint256"
        },
        {
          "internalType": "uint256",
          "name": "totalRewardAmount",
          "type": "uint256"
        },
        {
          "internalType": "uint256",
          "name": "claimRewardAmount",
          "type": "uint256"
        }
      ],
      "stateMutability": "view",
      "type": "function"
    },
    {
      "inputs": [],
      "name": "stakeStartBlock",
      "outputs": [
        {
          "internalType": "uint256",
          "name": "",
          "type": "uint256"
        }
      ],
      "stateMutability": "view",
      "type": "function"
    },
    {
      "inputs": [],
      "name": "stakeType",
      "outputs": [
        {
          "internalType": "uint256",
          "name": "",
          "type": "uint256"
        }
      ],
      "stateMutability": "view",
      "type": "function"
    },
    {
      "inputs": [],
      "name": "tos",
      "outputs": [
        {
          "internalType": "address",
          "name": "",
          "type": "address"
        }
      ],
      "stateMutability": "view",
      "type": "function"
    },
    {
      "inputs": [
        {
          "internalType": "address",
          "name": "newAdmin",
          "type": "address"
        }
      ],
      "name": "transferAdmin",
      "outputs": [],
      "stateMutability": "nonpayable",
      "type": "function"
    }
  ],
  "bytecode": "0x608060405234801561001057600080fd5b50610ed0806100206000396000f3fe608060405234801561001057600080fd5b50600436106101bb5760003560e01c806370480275116100fa578063a217fddf1161009d578063a217fddf14610417578063b03dc5141461041f578063b8c766b814610427578063b97af0db1461042f578063ca15c87314610437578063d105bf8514610454578063d53913931461045c578063d547741f14610464578063dfbf9def14610490576101bb565b8063704802751461035c57806375829def1461038257806375b238fc146103a857806389f395de146103b05780639010d07c146103b857806391d14854146103db5780639d84ca3514610407578063a1f5f50e1461040f576101bb565b8063355274ea11610162578063355274ea146102e357806336568abe146102eb5780633a76eb371461031757806341c04d5e1461031f57806343b0934a146103275780634b5e7cd51461032f5780635f1bd62a1461033757806363a8fd8914610354576101bb565b8063153099d0146101c05780631785f53c146101ef5780632002727514610217578063248a9ca31461021f57806324d7806c1461023c578063282c51f314610276578063294f5fa31461027e5780632f2ff15d146102b7575b600080fd5b6101dd600480360360208110156101d657600080fd5b5035610551565b60408051918252519081900360200190f35b6102156004803603602081101561020557600080fd5b50356001600160a01b0316610572565b005b6101dd6105d1565b6101dd6004803603602081101561023557600080fd5b50356105d7565b6102626004803603602081101561025257600080fd5b50356001600160a01b03166105ec565b604080519115158252519081900360200190f35b6101dd61060c565b61029b6004803603602081101561029457600080fd5b5035610630565b604080516001600160a01b039092168252519081900360200190f35b610215600480360360408110156102cd57600080fd5b50803590602001356001600160a01b031661065a565b6101dd6106c6565b6102156004803603604081101561030157600080fd5b50803590602001356001600160a01b03166106cc565b6101dd61072d565b6101dd610733565b61029b610757565b6101dd610766565b6101dd6004803603602081101561034d57600080fd5b503561076c565b61026261077e565b6102156004803603602081101561037257600080fd5b50356001600160a01b0316610787565b6102156004803603602081101561039857600080fd5b50356001600160a01b03166107e3565b6101dd610904565b61029b610916565b61029b600480360360408110156103ce57600080fd5b5080359060200135610925565b610262600480360360408110156103f157600080fd5b50803590602001356001600160a01b0316610944565b61029b61095c565b61026261096b565b6101dd610979565b6101dd61097e565b610262610984565b6101dd61098d565b6101dd6004803603602081101561044d57600080fd5b5035610993565b6101dd6109aa565b6101dd6109b0565b6102156004803603604081101561047a57600080fd5b50803590602001356001600160a01b03166109d4565b6104b6600480360360208110156104a657600080fd5b50356001600160a01b0316610a2d565b6040518080602001878152602001868152602001858152602001848152602001838152602001828103825288818151815260200191508051906020019080838360005b838110156105115781810151838201526020016104f9565b50505050905090810190601f16801561053e5780820380516001836020036101000a031916815260200191505b5097505050505050505060405180910390f35b600e818154811061056157600080fd5b600091825260209091200154905081565b61057b336105ec565b6105b65760405162461bcd60e51b8152600401808060200182810382526022815260200180610dfa6022913960400191505060405180910390fd5b6105ce600080516020610e4c833981519152826106cc565b50565b60045481565b60009081526020819052604090206002015490565b6000610606600080516020610e4c83398151915283610944565b92915050565b7f9667e80708b6eeeb0053fa0cca44e028ff548e2a9f029edfeac87c118b08b7c881565b600c818154811061064057600080fd5b6000918252602090912001546001600160a01b0316905081565b60008281526020819052604090206002015461067d90610678610aec565b610944565b6106b85760405162461bcd60e51b815260040180806020018281038252602f815260200180610dcb602f913960400191505060405180910390fd5b6106c28282610af0565b5050565b60035481565b6106d4610aec565b6001600160a01b0316816001600160a01b0316146107235760405162461bcd60e51b815260040180806020018281038252602f815260200180610e6c602f913960400191505060405180910390fd5b6106c28282610b59565b60065481565b7f52eafc11f6f81f86878bffd31109a0d92f37506527754f00788853ff9f63b13081565b6002546001600160a01b031681565b60055481565b600f6020526000908152604090205481565b60115460ff1681565b610790336105ec565b6107cb5760405162461bcd60e51b8152600401808060200182810382526022815260200180610dfa6022913960400191505060405180910390fd5b6105ce600080516020610e4c8339815191528261065a565b6107ec336105ec565b6108275760405162461bcd60e51b8152600401808060200182810382526022815260200180610dfa6022913960400191505060405180910390fd5b6001600160a01b03811661087d576040805162461bcd60e51b815260206004820152601860248201527741636365737369626c653a207a65726f206164647265737360401b604482015290519081900360640190fd5b336001600160a01b03821614156108d4576040805162461bcd60e51b815260206004820152601660248201527520b1b1b2b9b9b4b136329d1039b0b6b29030b236b4b760511b604482015290519081900360640190fd5b6108ec600080516020610e4c8339815191528261065a565b6105ce600080516020610e4c833981519152336106cc565b600080516020610e4c83398151915281565b6001546001600160a01b031681565b600082815260208190526040812061093d9083610bc2565b9392505050565b600082815260208190526040812061093d9083610bce565b600b546001600160a01b031681565b601154610100900460ff1681565b600081565b60075481565b60095460ff1681565b600a5481565b600081815260208190526040812061060690610be3565b60085481565b7ff0887ba65ee2024ea881d91b74c2450ef19e1557f03bed3ea9f16b037cbe2dc981565b6000828152602081905260409020600201546109f290610678610aec565b6107235760405162461bcd60e51b8152600401808060200182810382526030815260200180610e1c6030913960400191505060405180910390fd5b600d6020908152600091825260409182902080548351601f60026000196101006001861615020190931692909204918201849004840281018401909452808452909291839190830182828015610ac45780601f10610a9957610100808354040283529160200191610ac4565b820191906000526020600020905b815481529060010190602001808311610aa757829003601f168201915b5050505050908060010154908060020154908060030154908060040154908060050154905086565b3390565b6000828152602081905260409020610b089082610bee565b156106c257610b15610aec565b6001600160a01b0316816001600160a01b0316837f2f8788117e7eff1d82e926ec794901d17c78024a50270940304540a733656f0d60405160405180910390a45050565b6000828152602081905260409020610b719082610c03565b156106c257610b7e610aec565b6001600160a01b0316816001600160a01b0316837ff6391f5c32d9c69d2a47ea670b442974b53935d1edc7fd64eb21e047a839171b60405160405180910390a45050565b600061093d8383610c18565b600061093d836001600160a01b038416610c7c565b600061060682610c94565b600061093d836001600160a01b038416610c98565b600061093d836001600160a01b038416610ce2565b81546000908210610c5a5760405162461bcd60e51b8152600401808060200182810382526022815260200180610da96022913960400191505060405180910390fd5b826000018281548110610c6957fe5b9060005260206000200154905092915050565b60009081526001919091016020526040902054151590565b5490565b6000610ca48383610c7c565b610cda57508154600181810184556000848152602080822090930184905584548482528286019093526040902091909155610606565b506000610606565b60008181526001830160205260408120548015610d9e5783546000198083019190810190600090879083908110610d1557fe5b9060005260206000200154905080876000018481548110610d3257fe5b600091825260208083209091019290925582815260018981019092526040902090840190558654879080610d6257fe5b60019003818190600052602060002001600090559055866001016000878152602001908152602001600020600090556001945050505050610606565b600091505061060656fe456e756d657261626c655365743a20696e646578206f7574206f6620626f756e6473416363657373436f6e74726f6c3a2073656e646572206d75737420626520616e2061646d696e20746f206772616e7441636365737369626c653a2043616c6c6572206973206e6f7420616e2061646d696e416363657373436f6e74726f6c3a2073656e646572206d75737420626520616e2061646d696e20746f207265766f6b65df8b4c520ffe197c5343c6f5aec59570151ef9a492f2c624fd45ddde6135ec42416363657373436f6e74726f6c3a2063616e206f6e6c792072656e6f756e636520726f6c657320666f722073656c66a26469706673582212208f02c2979a46d2bca78dbe143f8346ac149acea0ed5f0c63e92f12199b4a47f364736f6c63430007060033",
  "linkReferences": {},
  "deployedLinkReferences": {}
}