{
  "_format": "hh-sol-artifact-1",
  "contractName": "PrivateSale",
  "sourceName": "contracts/sale/PrivateSale.sol",
  "abi": [
    {
      "anonymous": false,
      "inputs": [
        {
          "indexed": false,
          "internalType": "address",
          "name": "user",
          "type": "address"
        },
        {
          "indexed": false,
          "internalType": "uint256",
          "name": "inputAmount",
          "type": "uint256"
        },
        {
          "indexed": false,
          "internalType": "uint256",
          "name": "totalOutPutamount",
          "type": "uint256"
        },
        {
          "indexed": false,
          "internalType": "uint256",
          "name": "inputTime",
          "type": "uint256"
        },
        {
          "indexed": false,
          "internalType": "uint256",
          "name": "monthlyReward",
          "type": "uint256"
        },
        {
          "indexed": false,
          "internalType": "uint256",
          "name": "firstReward",
          "type": "uint256"
        }
      ],
      "name": "Buyinfo",
      "type": "event"
    },
    {
      "anonymous": false,
      "inputs": [
        {
          "indexed": false,
          "internalType": "address",
          "name": "user",
          "type": "address"
        },
        {
          "indexed": false,
          "internalType": "uint256",
          "name": "claimAmount",
          "type": "uint256"
        },
        {
          "indexed": false,
          "internalType": "uint256",
          "name": "claimTime",
          "type": "uint256"
        }
      ],
      "name": "Claiminfo",
      "type": "event"
    },
    {
      "anonymous": false,
      "inputs": [
        {
          "indexed": false,
          "internalType": "address",
          "name": "user",
          "type": "address"
        },
        {
          "indexed": false,
          "internalType": "uint256",
          "name": "claimAmount",
          "type": "uint256"
        },
        {
          "indexed": false,
          "internalType": "uint256",
          "name": "claimTime",
          "type": "uint256"
        }
      ],
      "name": "FirstClaiminfo",
      "type": "event"
    },
    {
      "anonymous": false,
      "inputs": [
        {
          "indexed": true,
          "internalType": "bytes32",
          "name": "role",
          "type": "bytes32"
        },
        {
          "indexed": true,
          "internalType": "bytes32",
          "name": "previousAdminRole",
          "type": "bytes32"
        },
        {
          "indexed": true,
          "internalType": "bytes32",
          "name": "newAdminRole",
          "type": "bytes32"
        }
      ],
      "name": "RoleAdminChanged",
      "type": "event"
    },
    {
      "anonymous": false,
      "inputs": [
        {
          "indexed": true,
          "internalType": "bytes32",
          "name": "role",
          "type": "bytes32"
        },
        {
          "indexed": true,
          "internalType": "address",
          "name": "account",
          "type": "address"
        },
        {
          "indexed": true,
          "internalType": "address",
          "name": "sender",
          "type": "address"
        }
      ],
      "name": "RoleGranted",
      "type": "event"
    },
    {
      "anonymous": false,
      "inputs": [
        {
          "indexed": true,
          "internalType": "bytes32",
          "name": "role",
          "type": "bytes32"
        },
        {
          "indexed": true,
          "internalType": "address",
          "name": "account",
          "type": "address"
        },
        {
          "indexed": true,
          "internalType": "address",
          "name": "sender",
          "type": "address"
        }
      ],
      "name": "RoleRevoked",
      "type": "event"
    },
    {
      "anonymous": false,
      "inputs": [
        {
          "indexed": false,
          "internalType": "address",
          "name": "user",
          "type": "address"
        },
        {
          "indexed": false,
          "internalType": "uint256",
          "name": "withdrawAmount",
          "type": "uint256"
        }
      ],
      "name": "Withdrawinfo",
      "type": "event"
    },
    {
      "anonymous": false,
      "inputs": [
        {
          "indexed": false,
          "internalType": "address",
          "name": "account",
          "type": "address"
        },
        {
          "indexed": false,
          "internalType": "uint256",
          "name": "amount",
          "type": "uint256"
        }
      ],
      "name": "addList",
      "type": "event"
    },
    {
      "anonymous": false,
      "inputs": [
        {
          "indexed": false,
          "internalType": "address",
          "name": "account",
          "type": "address"
        },
        {
          "indexed": false,
          "internalType": "uint256",
          "name": "amount",
          "type": "uint256"
        }
      ],
      "name": "delList",
      "type": "event"
    },
    {
      "inputs": [],
      "name": "ADMIN_ROLE",
      "outputs": [
        {
          "internalType": "bytes32",
          "name": "",
          "type": "bytes32"
        }
      ],
      "stateMutability": "view",
      "type": "function"
    },
    {
      "inputs": [],
      "name": "BURNER_ROLE",
      "outputs": [
        {
          "internalType": "bytes32",
          "name": "",
          "type": "bytes32"
        }
      ],
      "stateMutability": "view",
      "type": "function"
    },
    {
      "inputs": [],
      "name": "DEFAULT_ADMIN_ROLE",
      "outputs": [
        {
          "internalType": "bytes32",
          "name": "",
          "type": "bytes32"
        }
      ],
      "stateMutability": "view",
      "type": "function"
    },
    {
      "inputs": [],
      "name": "MINTER_ROLE",
      "outputs": [
        {
          "internalType": "bytes32",
          "name": "",
          "type": "bytes32"
        }
      ],
      "stateMutability": "view",
      "type": "function"
    },
    {
      "inputs": [],
      "name": "PROJECT_ADMIN_ROLE",
      "outputs": [
        {
          "internalType": "bytes32",
          "name": "",
          "type": "bytes32"
        }
      ],
      "stateMutability": "view",
      "type": "function"
    },
    {
      "inputs": [],
      "name": "_claim",
      "outputs": [],
      "stateMutability": "nonpayable",
      "type": "function"
    },
    {
      "inputs": [
        {
          "internalType": "bytes",
          "name": "data",
          "type": "bytes"
        }
      ],
      "name": "_decodeApproveData",
      "outputs": [
        {
          "internalType": "uint256",
          "name": "approveData",
          "type": "uint256"
        }
      ],
      "stateMutability": "pure",
      "type": "function"
    },
    {
      "inputs": [
        {
          "internalType": "uint256",
          "name": "v",
          "type": "uint256"
        }
      ],
      "name": "_toWAD",
      "outputs": [
        {
          "internalType": "uint256",
          "name": "",
          "type": "uint256"
        }
      ],
      "stateMutability": "pure",
      "type": "function"
    },
    {
      "inputs": [
        {
          "internalType": "address",
          "name": "account",
          "type": "address"
        }
      ],
      "name": "addAdmin",
      "outputs": [],
      "stateMutability": "nonpayable",
      "type": "function"
    },
    {
      "inputs": [
        {
          "internalType": "address",
          "name": "_account",
          "type": "address"
        },
        {
          "internalType": "uint256",
          "name": "_amount",
          "type": "uint256"
        }
      ],
      "name": "addWhiteList",
      "outputs": [],
      "stateMutability": "nonpayable",
      "type": "function"
    },
    {
      "inputs": [
        {
          "internalType": "address[]",
          "name": "_account",
          "type": "address[]"
        },
        {
          "internalType": "uint256[]",
          "name": "_amount",
          "type": "uint256[]"
        }
      ],
      "name": "addWhiteListArray",
      "outputs": [],
      "stateMutability": "nonpayable",
      "type": "function"
    },
    {
      "inputs": [
        {
          "internalType": "address",
          "name": "_saleToken",
          "type": "address"
        },
        {
          "internalType": "address",
          "name": "_getToken",
          "type": "address"
        },
        {
          "internalType": "address",
          "name": "_ownerToken",
          "type": "address"
        }
      ],
      "name": "addressSetting",
      "outputs": [],
      "stateMutability": "nonpayable",
      "type": "function"
    },
    {
      "inputs": [
        {
          "internalType": "address",
          "name": "",
          "type": "address"
        }
      ],
      "name": "aliveImplementation",
      "outputs": [
        {
          "internalType": "bool",
          "name": "",
          "type": "bool"
        }
      ],
      "stateMutability": "view",
      "type": "function"
    },
    {
      "inputs": [
        {
          "internalType": "address",
          "name": "_sender",
          "type": "address"
        },
        {
          "internalType": "uint256",
          "name": "_amount",
          "type": "uint256"
        }
      ],
      "name": "buy",
      "outputs": [],
      "stateMutability": "nonpayable",
      "type": "function"
    },
    {
      "inputs": [
        {
          "internalType": "uint256",
          "name": "_amount",
          "type": "uint256"
        }
      ],
      "name": "calculGetToken",
      "outputs": [
        {
          "internalType": "uint256",
          "name": "",
          "type": "uint256"
        }
      ],
      "stateMutability": "view",
      "type": "function"
    },
    {
      "inputs": [
        {
          "internalType": "uint256",
          "name": "_amount",
          "type": "uint256"
        }
      ],
      "name": "calculSaleToken",
      "outputs": [
        {
          "internalType": "uint256",
          "name": "",
          "type": "uint256"
        }
      ],
      "stateMutability": "view",
      "type": "function"
    },
    {
      "inputs": [
        {
          "internalType": "address",
          "name": "_address",
          "type": "address"
        }
      ],
      "name": "changeGetAddress",
      "outputs": [],
      "stateMutability": "nonpayable",
      "type": "function"
    },
    {
      "inputs": [
        {
          "internalType": "address",
          "name": "_saleToken",
          "type": "address"
        },
        {
          "internalType": "address",
          "name": "_getToken",
          "type": "address"
        }
      ],
      "name": "changeTokenAddress",
      "outputs": [],
      "stateMutability": "nonpayable",
      "type": "function"
    },
    {
      "inputs": [
        {
          "internalType": "address",
          "name": "_wton",
          "type": "address"
        }
      ],
      "name": "changeWTONAddress",
      "outputs": [],
      "stateMutability": "nonpayable",
      "type": "function"
    },
    {
      "inputs": [],
      "name": "claim",
      "outputs": [],
      "stateMutability": "nonpayable",
      "type": "function"
    },
    {
      "inputs": [
        {
          "internalType": "address",
          "name": "_account",
          "type": "address"
        }
      ],
      "name": "claimAmount",
      "outputs": [
        {
          "internalType": "uint256",
          "name": "",
          "type": "uint256"
        }
      ],
      "stateMutability": "view",
      "type": "function"
    },
    {
      "inputs": [],
      "name": "claimEndTime",
      "outputs": [
        {
          "internalType": "uint256",
          "name": "",
          "type": "uint256"
        }
      ],
      "stateMutability": "view",
      "type": "function"
    },
    {
      "inputs": [],
      "name": "claimStartTime",
      "outputs": [
        {
          "internalType": "uint256",
          "name": "",
          "type": "uint256"
        }
      ],
      "stateMutability": "view",
      "type": "function"
    },
    {
      "inputs": [
        {
          "internalType": "address",
          "name": "_account",
          "type": "address"
        },
        {
          "internalType": "uint256",
          "name": "_amount",
          "type": "uint256"
        }
      ],
      "name": "delWhiteList",
      "outputs": [],
      "stateMutability": "nonpayable",
      "type": "function"
    },
    {
      "inputs": [],
      "name": "firstClaim",
      "outputs": [],
      "stateMutability": "nonpayable",
      "type": "function"
    },
    {
      "inputs": [],
      "name": "firstClaimTime",
      "outputs": [
        {
          "internalType": "uint256",
          "name": "",
          "type": "uint256"
        }
      ],
      "stateMutability": "view",
      "type": "function"
    },
    {
      "inputs": [
        {
          "internalType": "bytes32",
          "name": "role",
          "type": "bytes32"
        }
      ],
      "name": "getRoleAdmin",
      "outputs": [
        {
          "internalType": "bytes32",
          "name": "",
          "type": "bytes32"
        }
      ],
      "stateMutability": "view",
      "type": "function"
    },
    {
      "inputs": [
        {
          "internalType": "bytes32",
          "name": "role",
          "type": "bytes32"
        },
        {
          "internalType": "uint256",
          "name": "index",
          "type": "uint256"
        }
      ],
      "name": "getRoleMember",
      "outputs": [
        {
          "internalType": "address",
          "name": "",
          "type": "address"
        }
      ],
      "stateMutability": "view",
      "type": "function"
    },
    {
      "inputs": [
        {
          "internalType": "bytes32",
          "name": "role",
          "type": "bytes32"
        }
      ],
      "name": "getRoleMemberCount",
      "outputs": [
        {
          "internalType": "uint256",
          "name": "",
          "type": "uint256"
        }
      ],
      "stateMutability": "view",
      "type": "function"
    },
    {
      "inputs": [],
      "name": "getToken",
      "outputs": [
        {
          "internalType": "contract IERC20",
          "name": "",
          "type": "address"
        }
      ],
      "stateMutability": "view",
      "type": "function"
    },
    {
      "inputs": [],
      "name": "getTokenOwner",
      "outputs": [
        {
          "internalType": "address",
          "name": "",
          "type": "address"
        }
      ],
      "stateMutability": "view",
      "type": "function"
    },
    {
      "inputs": [],
      "name": "getTokenPrice",
      "outputs": [
        {
          "internalType": "uint256",
          "name": "",
          "type": "uint256"
        }
      ],
      "stateMutability": "view",
      "type": "function"
    },
    {
      "inputs": [
        {
          "internalType": "bytes32",
          "name": "role",
          "type": "bytes32"
        },
        {
          "internalType": "address",
          "name": "account",
          "type": "address"
        }
      ],
      "name": "grantRole",
      "outputs": [],
      "stateMutability": "nonpayable",
      "type": "function"
    },
    {
      "inputs": [
        {
          "internalType": "bytes32",
          "name": "role",
          "type": "bytes32"
        },
        {
          "internalType": "address",
          "name": "account",
          "type": "address"
        }
      ],
      "name": "hasRole",
      "outputs": [
        {
          "internalType": "bool",
          "name": "",
          "type": "bool"
        }
      ],
      "stateMutability": "view",
      "type": "function"
    },
    {
      "inputs": [
        {
          "internalType": "address",
          "name": "account",
          "type": "address"
        }
      ],
      "name": "isAdmin",
      "outputs": [
        {
          "internalType": "bool",
          "name": "",
          "type": "bool"
        }
      ],
      "stateMutability": "view",
      "type": "function"
    },
    {
      "inputs": [
        {
          "internalType": "address",
          "name": "sender",
          "type": "address"
        },
        {
          "internalType": "address",
          "name": "spender",
          "type": "address"
        },
        {
          "internalType": "uint256",
          "name": "amount",
          "type": "uint256"
        },
        {
          "internalType": "bytes",
          "name": "data",
          "type": "bytes"
        }
      ],
      "name": "onApprove",
      "outputs": [
        {
          "internalType": "bool",
          "name": "",
          "type": "bool"
        }
      ],
      "stateMutability": "nonpayable",
      "type": "function"
    },
    {
      "inputs": [],
      "name": "pauseProxy",
      "outputs": [
        {
          "internalType": "bool",
          "name": "",
          "type": "bool"
        }
      ],
      "stateMutability": "view",
      "type": "function"
    },
    {
      "inputs": [
        {
          "internalType": "uint256",
          "name": "",
          "type": "uint256"
        }
      ],
      "name": "proxyImplementation",
      "outputs": [
        {
          "internalType": "address",
          "name": "",
          "type": "address"
        }
      ],
      "stateMutability": "view",
      "type": "function"
    },
    {
      "inputs": [
        {
          "internalType": "address",
          "name": "account",
          "type": "address"
        }
      ],
      "name": "removeAdmin",
      "outputs": [],
      "stateMutability": "nonpayable",
      "type": "function"
    },
    {
      "inputs": [
        {
          "internalType": "bytes32",
          "name": "role",
          "type": "bytes32"
        },
        {
          "internalType": "address",
          "name": "account",
          "type": "address"
        }
      ],
      "name": "renounceRole",
      "outputs": [],
      "stateMutability": "nonpayable",
      "type": "function"
    },
    {
      "inputs": [
        {
          "internalType": "bytes32",
          "name": "role",
          "type": "bytes32"
        },
        {
          "internalType": "address",
          "name": "account",
          "type": "address"
        }
      ],
      "name": "revokeRole",
      "outputs": [],
      "stateMutability": "nonpayable",
      "type": "function"
    },
    {
      "inputs": [],
      "name": "saleEndTime",
      "outputs": [
        {
          "internalType": "uint256",
          "name": "",
          "type": "uint256"
        }
      ],
      "stateMutability": "view",
      "type": "function"
    },
    {
      "inputs": [],
      "name": "saleStartTime",
      "outputs": [
        {
          "internalType": "uint256",
          "name": "",
          "type": "uint256"
        }
      ],
      "stateMutability": "view",
      "type": "function"
    },
    {
      "inputs": [],
      "name": "saleToken",
      "outputs": [
        {
          "internalType": "contract IERC20",
          "name": "",
          "type": "address"
        }
      ],
      "stateMutability": "view",
      "type": "function"
    },
    {
      "inputs": [],
      "name": "saleTokenPrice",
      "outputs": [
        {
          "internalType": "uint256",
          "name": "",
          "type": "uint256"
        }
      ],
      "stateMutability": "view",
      "type": "function"
    },
    {
      "inputs": [
        {
          "internalType": "bytes4",
          "name": "",
          "type": "bytes4"
        }
      ],
      "name": "selectorImplementation",
      "outputs": [
        {
          "internalType": "address",
          "name": "",
          "type": "address"
        }
      ],
      "stateMutability": "view",
      "type": "function"
    },
    {
      "inputs": [
        {
          "internalType": "uint256",
          "name": "_saleTokenPrice",
          "type": "uint256"
        },
        {
          "internalType": "uint256",
          "name": "_getTokenPrice",
          "type": "uint256"
        }
      ],
      "name": "setTokenPrice",
      "outputs": [],
      "stateMutability": "nonpayable",
      "type": "function"
    },
    {
      "inputs": [
        {
          "internalType": "uint256[4]",
          "name": "_time",
          "type": "uint256[4]"
        },
        {
          "internalType": "uint256",
          "name": "_saleTokenPrice",
          "type": "uint256"
        },
        {
          "internalType": "uint256",
          "name": "_getTokenPrice",
          "type": "uint256"
        }
      ],
      "name": "settingAll",
      "outputs": [],
      "stateMutability": "nonpayable",
      "type": "function"
    },
    {
      "inputs": [
        {
          "internalType": "uint256",
          "name": "_time",
          "type": "uint256"
        }
      ],
      "name": "settingClaimTime",
      "outputs": [],
      "stateMutability": "nonpayable",
      "type": "function"
    },
    {
      "inputs": [
        {
          "internalType": "uint256",
          "name": "_claimTime",
          "type": "uint256"
        }
      ],
      "name": "settingFirstClaimTime",
      "outputs": [],
      "stateMutability": "nonpayable",
      "type": "function"
    },
    {
      "inputs": [
        {
          "internalType": "uint256",
          "name": "_startTime",
          "type": "uint256"
        },
        {
          "internalType": "uint256",
          "name": "_endTime",
          "type": "uint256"
        },
        {
          "internalType": "uint256",
          "name": "_firstTime",
          "type": "uint256"
        },
        {
          "internalType": "uint256",
          "name": "_claimTime",
          "type": "uint256"
        }
      ],
      "name": "settingPrivateTime",
      "outputs": [],
      "stateMutability": "nonpayable",
      "type": "function"
    },
    {
      "inputs": [
        {
          "internalType": "uint256",
          "name": "_startTime",
          "type": "uint256"
        },
        {
          "internalType": "uint256",
          "name": "_endTime",
          "type": "uint256"
        }
      ],
      "name": "settingSaleTime",
      "outputs": [],
      "stateMutability": "nonpayable",
      "type": "function"
    },
    {
      "inputs": [
        {
          "internalType": "bytes4",
          "name": "interfaceId",
          "type": "bytes4"
        }
      ],
      "name": "supportsInterface",
      "outputs": [
        {
          "internalType": "bool",
          "name": "",
          "type": "bool"
        }
      ],
      "stateMutability": "view",
      "type": "function"
    },
    {
      "inputs": [],
      "name": "totalGetAmount",
      "outputs": [
        {
          "internalType": "uint256",
          "name": "",
          "type": "uint256"
        }
      ],
      "stateMutability": "view",
      "type": "function"
    },
    {
      "inputs": [],
      "name": "totalSaleAmount",
      "outputs": [
        {
          "internalType": "uint256",
          "name": "",
          "type": "uint256"
        }
      ],
      "stateMutability": "view",
      "type": "function"
    },
    {
      "inputs": [
        {
          "internalType": "address",
          "name": "newAdmin",
          "type": "address"
        }
      ],
      "name": "transferAdmin",
      "outputs": [],
      "stateMutability": "nonpayable",
      "type": "function"
    },
    {
      "inputs": [
        {
          "internalType": "address",
          "name": "",
          "type": "address"
        }
      ],
      "name": "usersAmount",
      "outputs": [
        {
          "internalType": "uint256",
          "name": "inputamount",
          "type": "uint256"
        },
        {
          "internalType": "uint256",
          "name": "totaloutputamount",
          "type": "uint256"
        },
        {
          "internalType": "uint256",
          "name": "inputTime",
          "type": "uint256"
        },
        {
          "internalType": "uint256",
          "name": "monthlyReward",
          "type": "uint256"
        },
        {
          "internalType": "uint256",
          "name": "firstReward",
          "type": "uint256"
        }
      ],
      "stateMutability": "view",
      "type": "function"
    },
    {
      "inputs": [
        {
          "internalType": "address",
          "name": "",
          "type": "address"
        }
      ],
      "name": "usersClaim",
      "outputs": [
        {
          "internalType": "uint256",
          "name": "claimTime",
          "type": "uint256"
        },
        {
          "internalType": "uint256",
          "name": "claimAmount",
          "type": "uint256"
        },
        {
          "internalType": "uint256",
          "name": "firstClaimAmount",
          "type": "uint256"
        },
        {
          "internalType": "uint256",
          "name": "firstClaimTime",
          "type": "uint256"
        },
        {
          "internalType": "bool",
          "name": "first",
          "type": "bool"
        }
      ],
      "stateMutability": "view",
      "type": "function"
    },
    {
      "inputs": [
        {
          "internalType": "address",
          "name": "",
          "type": "address"
        }
      ],
      "name": "usersWhite",
      "outputs": [
        {
          "internalType": "uint256",
          "name": "amount",
          "type": "uint256"
        }
      ],
      "stateMutability": "view",
      "type": "function"
    },
    {
      "inputs": [
        {
          "internalType": "uint256",
          "name": "_amount",
          "type": "uint256"
        }
      ],
      "name": "withdraw",
      "outputs": [],
      "stateMutability": "nonpayable",
      "type": "function"
    },
    {
      "inputs": [],
      "name": "wton",
      "outputs": [
        {
          "internalType": "address",
          "name": "",
          "type": "address"
        }
      ],
      "stateMutability": "view",
      "type": "function"
    }
  ],
  "bytecode": "0x60806040523480156200001157600080fd5b506001601555620000296301ffc9a760e01b62000041565b6200003b632139e50b60e11b62000041565b620000c6565b6001600160e01b03198082161415620000a1576040805162461bcd60e51b815260206004820152601c60248201527f4552433136353a20696e76616c696420696e7465726661636520696400000000604482015290519081900360640190fd5b6001600160e01b0319166000908152601660205260409020805460ff19166001179055565b6133b880620000d66000396000f3fe608060405234801561001057600080fd5b506004361061032f5760003560e01c8063746de388116101b4578063b3f3bf0e116100fa578063ddec4bda1161009d578063ddec4bda14610a90578063e985e36714610ac8578063eb685c4714610ad0578063ed338ff114610af3578063f0fc915214610afb578063f58afd2d14610b18578063fac0d7c314610b44578063ff6dac7614610b6a5761032f565b8063b3f3bf0e1461096f578063b7182b95146109c0578063b911135f146109c8578063c6580fec146109e5578063ca15c87314610a13578063cce7ec1314610a30578063d539139314610a5c578063d547741f14610a645761032f565b80638d62d949116101625780638d62d949146108185780639010d07c1461082057806391d14854146108435780639f5c92061461086f578063a217fddf1461089e578063a38ffdea146108a6578063a6a11bb1146108c3578063aa5bbf55146108cb5761032f565b8063746de3881461078957806375829def146107ac57806375b238fc146107d257806378317be7146107da5780637ce5437014610800578063814e5c9b1461080857806382d72f7f146108105761032f565b80634273ca16116102795780635a1f8508116102275780635a1f8508146106a15780635b8a7845146106c75780635cdafdfe146106ed5780635cf75bec1461070a57806363a8fd89146107125780636bbe48af1461071a5780636e2db8d71461073757806370480275146107635761032f565b80634273ca16146104f05780634b94f50e1461057e5780634e71d92d1461058657806350d2a2761461058e57806351d28a7e146105b5578063550d01a3146105bd5780635544b37d146105e35761032f565b806324d7806c116102e157806324d7806c14610435578063282c51f31461045b5780632e1a7d4d146104635780632f2ff15d1461048057806333efe953146104ac57806336568abe146104b457806340d1d255146104e057806341c04d5e146104e85761032f565b806301ffc9a7146103345780630757eb4a1461036f5780630f9e8781146103a75780631785f53c146103c45780631cbaee2d146103ec57806321df0da7146103f4578063248a9ca314610418575b600080fd5b61035b6004803603602081101561034a57600080fd5b50356001600160e01b031916610bbd565b604080519115158252519081900360200190f35b6103956004803603602081101561038557600080fd5b50356001600160a01b0316610be0565b60408051918252519081900360200190f35b610395600480360360208110156103bd57600080fd5b5035610bf2565b6103ea600480360360208110156103da57600080fd5b50356001600160a01b0316610c1d565b005b610395610c7c565b6103fc610c82565b604080516001600160a01b039092168252519081900360200190f35b6103956004803603602081101561042e57600080fd5b5035610c91565b61035b6004803603602081101561044b57600080fd5b50356001600160a01b0316610ca6565b610395610cc6565b6103ea6004803603602081101561047957600080fd5b5035610cea565b6103ea6004803603604081101561049657600080fd5b50803590602001356001600160a01b0316610e45565b6103ea610eb1565b6103ea600480360360408110156104ca57600080fd5b50803590602001356001600160a01b03166111ae565b61039561120f565b610395611215565b61035b6004803603608081101561050657600080fd5b6001600160a01b03823581169260208101359091169160408201359190810190608081016060820135600160201b81111561054057600080fd5b82018360208201111561055257600080fd5b803590602001918460018302840111600160201b8311171561057357600080fd5b509092509050611239565b610395611352565b6103ea611358565b6103fc600480360360208110156105a457600080fd5b50356001600160e01b031916611439565b610395611454565b61035b600480360360208110156105d357600080fd5b50356001600160a01b031661145a565b6103ea600480360360408110156105f957600080fd5b810190602081018135600160201b81111561061357600080fd5b82018360208201111561062557600080fd5b803590602001918460208302840111600160201b8311171561064657600080fd5b919390929091602081019035600160201b81111561066357600080fd5b82018360208201111561067557600080fd5b803590602001918460208302840111600160201b8311171561069657600080fd5b50909250905061146f565b6103ea600480360360208110156106b757600080fd5b50356001600160a01b03166115a9565b6103ea600480360360c08110156106dd57600080fd5b50608081013560a082013561160f565b6103ea6004803603602081101561070357600080fd5b503561167b565b6103956116d8565b61035b6116de565b6103956004803603602081101561073057600080fd5b50356116e7565b6103ea6004803603604081101561074d57600080fd5b506001600160a01b0381351690602001356116f1565b6103ea6004803603602081101561077957600080fd5b50356001600160a01b03166117a4565b6103ea6004803603604081101561079f57600080fd5b5080359060200135611800565b6103ea600480360360208110156107c257600080fd5b50356001600160a01b031661184f565b610395611970565b610395600480360360208110156107f057600080fd5b50356001600160a01b0316611982565b6103ea611b6e565b610395611caf565b610395611cb5565b6103fc611cbb565b6103fc6004803603604081101561083657600080fd5b5080359060200135611cca565b61035b6004803603604081101561085957600080fd5b50803590602001356001600160a01b0316611ce2565b6103ea6004803603608081101561088557600080fd5b5080359060208101359060408101359060600135611cfa565b610395611d60565b610395600480360360208110156108bc57600080fd5b5035611d65565b610395611d83565b610395600480360360208110156108e157600080fd5b810190602081018135600160201b8111156108fb57600080fd5b82018360208201111561090d57600080fd5b803590602001918460018302840111600160201b8311171561092e57600080fd5b91908080601f016020809104026020016040519081016040528093929190818152602001838380828437600092019190915250929550611d89945050505050565b6109956004803603602081101561098557600080fd5b50356001600160a01b0316611d90565b6040805195865260208601949094528484019290925260608401526080830152519081900360a00190f35b6103fc611dbf565b6103fc600480360360208110156109de57600080fd5b5035611dce565b6103ea600480360360408110156109fb57600080fd5b506001600160a01b0381358116916020013516611de9565b61039560048036036020811015610a2957600080fd5b5035611e5b565b6103ea60048036036040811015610a4657600080fd5b506001600160a01b038135169060200135611e72565b610395611fb6565b6103ea60048036036040811015610a7a57600080fd5b50803590602001356001600160a01b0316611fda565b6103ea60048036036060811015610aa657600080fd5b506001600160a01b038135811691602081013582169160409091013516612033565b6103fc61208a565b6103ea60048036036040811015610ae657600080fd5b5080359060200135612099565b6103956120e8565b6103ea60048036036020811015610b1157600080fd5b50356120ee565b6103ea60048036036040811015610b2e57600080fd5b506001600160a01b038135169060200135612137565b6103ea60048036036020811015610b5a57600080fd5b50356001600160a01b03166121ea565b610b9060048036036020811015610b8057600080fd5b50356001600160a01b0316612250565b60408051958652602086019490945284840192909252606084015215156080830152519081900360a00190f35b6001600160e01b0319811660009081526016602052604090205460ff165b919050565b600f6020526000908152604090205481565b600080610c16600954610c106008548661228290919063ffffffff16565b906122db565b9392505050565b610c2633610ca6565b610c615760405162461bcd60e51b81526004018080602001828103825260228152602001806131e86022913960400191505060405180910390fd5b610c796000805160206132e0833981519152826111ae565b50565b60035481565b600b546001600160a01b031681565b60009081526014602052604090206002015490565b6000610cc06000805160206132e083398151915283611ce2565b92915050565b7f9667e80708b6eeeb0053fa0cca44e028ff548e2a9f029edfeac87c118b08b7c881565b610cf333610ca6565b610d2e5760405162461bcd60e51b81526004018080602001828103825260228152602001806131e86022913960400191505060405180910390fd5b600a54604080516370a0823160e01b8152306004820152905183926001600160a01b0316916370a08231916024808301926020929190829003018186803b158015610d7857600080fd5b505afa158015610d8c573d6000803e3d6000fd5b505050506040513d6020811015610da257600080fd5b50511015610df0576040805162461bcd60e51b8152602060048201526016602482015275191bdb9d081a185d99481d1bdad95b88185b5bdd5b9d60521b604482015290519081900360640190fd5b600a54610e07906001600160a01b0316338361231d565b604080513381526020810183905281517f819ae5479998603a492c55379b91f23479a085abf18d92185cd8dd344cd7ef43929181900390910190a150565b600082815260146020526040902060020154610e6890610e6361236f565b611ce2565b610ea35760405162461bcd60e51b815260040180806020018281038252602f8152602001806131b9602f913960400191505060405180910390fd5b610ead8282612373565b5050565b600654421015610f02576040805162461bcd60e51b81526020600482015260176024820152766e656564207468652074696d6520666f7220636c61696d60481b604482015290519081900360640190fd5b336000908152600d60209081526040808320600e9092529091208154610f67576040805162461bcd60e51b81526020600482015260156024820152743732b2b2103a3790313abc903a3432903a37b5b2b760591b604482015290519081900360640190fd5b60028101546001820154610f7a916123dc565b82600101541415610fc9576040805162461bcd60e51b8152602060048201526014602482015273185b1c9958591e4819d95d105b1b1c995dd85c9960621b604482015290519081900360640190fd5b6002810154610fda57610fda611b6e565b6000610ff9428360010154856003015486600101548660020154612436565b905080611017836001015485600101546124b590919063ffffffff16565b101561106a576040805162461bcd60e51b815260206004820152601c60248201527f7573657220697320616c726561647920676574416c6c72657761726400000000604482015290519081900360640190fd5b600a54604080516370a0823160e01b8152306004820152905183926001600160a01b0316916370a08231916024808301926020929190829003018186803b1580156110b457600080fd5b505afa1580156110c8573d6000803e3d6000fd5b505050506040513d60208110156110de57600080fd5b50511015611133576040805162461bcd60e51b815260206004820152601b60248201527f646f6e7420686176652073616c65546f6b656e20696e20706f6f6c0000000000604482015290519081900360640190fd5b600182015461114290826123dc565b6001830155428255600a54611161906001600160a01b0316338361231d565b6001820154825460408051338152602081019390935282810191909152517f7f4326bdb66799a5fc854030a5d7b275c177cf965160a7f93fc8af6e0af021cb9181900360600190a1505050565b6111b661236f565b6001600160a01b0316816001600160a01b0316146112055760405162461bcd60e51b815260040180806020018281038252602f815260200180613354602f913960400191505060405180910390fd5b610ead82826124f7565b60075481565b7f52eafc11f6f81f86878bffd31109a0d92f37506527754f00788853ff9f63b13081565b600b546000906001600160a01b031633148061125f5750600c546001600160a01b031633145b61129a5760405162461bcd60e51b81526004018080602001828103825260368152602001806132aa6036913960400191505060405180910390fd5b600b546001600160a01b03163314156113195760006112ee84848080601f016020809104026020016040519081016040528093929190818152602001838380828437600092019190915250611d8992505050565b905080611304576112ff8786611e72565b611313565b8481016113118882611e72565b505b50611345565b600c546001600160a01b0316331415611345576000611337856116e7565b90506113438782611e72565b505b5060015b95945050505050565b60095481565b6005541580159061136a575060045415155b6113b2576040805162461bcd60e51b81526020600482015260146024820152736e65656420746f2073657474696e672054696d6560601b604482015290519081900360640190fd5b600454421180156113c4575060055442115b61140e576040805162461bcd60e51b81526020600482015260166024820152756e656564207468652066697372436c61696d74696d6560501b604482015290519081900360640190fd5b60065442101561142557611420611b6e565b611437565b42600654101561143757611437610eb1565b565b6013602052600090815260409020546001600160a01b031681565b60085481565b60126020526000908152604090205460ff1681565b61147833610ca6565b6114b35760405162461bcd60e51b81526004018080602001828103825260228152602001806131e86022913960400191505060405180910390fd5b60005b838110156115a2576000600f60008787858181106114d057fe5b905060200201356001600160a01b03166001600160a01b03166001600160a01b03168152602001908152602001600020905061152284848481811061151157fe5b8454926020909102013590506123dc565b81557f3cae96b8a7ef17eb661fcc82dde55328d906c9fd82fc1a34b17fcdcece13748086868481811061155157fe5b905060200201356001600160a01b031685858581811061156d57fe5b9050602002013560405180836001600160a01b031681526020018281526020019250505060405180910390a1506001016114b6565b5050505050565b6115b233610ca6565b6115ed5760405162461bcd60e51b81526004018080602001828103825260228152602001806131e86022913960400191505060405180910390fd5b600080546001600160a01b0319166001600160a01b0392909216919091179055565b61161833610ca6565b6116535760405162461bcd60e51b81526004018080602001828103825260228152602001806131e86022913960400191505060405180910390fd5b61166c8335602085013560408601356060870135611cfa565b6116768282612099565b505050565b61168433610ca6565b6116bf5760405162461bcd60e51b81526004018080602001828103825260228152602001806131e86022913960400191505060405180910390fd5b60068190556116d2816301da9c006123dc565b60075550565b60015481565b60105460ff1681565b633b9aca00900490565b6116fa33610ca6565b6117355760405162461bcd60e51b81526004018080602001828103825260228152602001806131e86022913960400191505060405180910390fd5b6001600160a01b0382166000908152600f60205260409020805461175990836123dc565b8155604080516001600160a01b03851681526020810184905281517f3cae96b8a7ef17eb661fcc82dde55328d906c9fd82fc1a34b17fcdcece137480929181900390910190a1505050565b6117ad33610ca6565b6117e85760405162461bcd60e51b81526004018080602001828103825260228152602001806131e86022913960400191505060405180910390fd5b610c796000805160206132e083398151915282610e45565b61180933610ca6565b6118445760405162461bcd60e51b81526004018080602001828103825260228152602001806131e86022913960400191505060405180910390fd5b600391909155600455565b61185833610ca6565b6118935760405162461bcd60e51b81526004018080602001828103825260228152602001806131e86022913960400191505060405180910390fd5b6001600160a01b0381166118e9576040805162461bcd60e51b815260206004820152601860248201527741636365737369626c653a207a65726f206164647265737360401b604482015290519081900360640190fd5b336001600160a01b0382161415611940576040805162461bcd60e51b815260206004820152601660248201527520b1b1b2b9b9b4b136329d1039b0b6b29030b236b4b760511b604482015290519081900360640190fd5b6119586000805160206132e083398151915282610e45565b610c796000805160206132e0833981519152336111ae565b6000805160206132e083398151915281565b6001600160a01b0381166000908152600d60209081526040808320815160a08101835281548082526001830154948201949094526002820154928101929092526003810154606083015260040154608082015290611a18576040805162461bcd60e51b815260206004820152600e60248201526d757365722069736e27742062757960901b604482015290519081900360640190fd5b6006544211611a67576040805162461bcd60e51b81526020600482015260166024820152756e65656420746f2074696d6520666f7220636c61696d60501b604482015290519081900360640190fd5b336000908152600e60209081526040808320815160a08101835281548152600182015493810193909352600281015491830191909152600381015460608301526004015460ff1615156080820152600654909190611ac69042906124b5565b905062278d0080821015611b075760208301516060850151600191600091611af99190611af39085612282565b906124b5565b9650610bdb95505050505050565b6000611b1e6001611b1885856122db565b906123dc565b9050600c8110611b4d576000611af98560400151611af3876020015189602001516124b590919063ffffffff16565b6000611af98560200151611af384896060015161228290919063ffffffff16565b336000908152600d60209081526040808320600e9092529091208154611bd3576040805162461bcd60e51b81526020600482015260156024820152743732b2b2103a3790313abc903a3432903a37b5b2b760591b604482015290519081900360640190fd5b600281015415611c23576040805162461bcd60e51b8152602060048201526016602482015275185b1c9958591e4819d95d119a5c9cdd1c995dd85c9960521b604482015290519081900360640190fd5b60048201546002820154611c36916123dc565b60028201554260038201556004820154600a54611c60916001600160a01b0390911690339061231d565b6002810154600382015460408051338152602081019390935282810191909152517fb3e9b679b172e146de5a0b37852e6cb939409e02a621fe64c2821e7ab86b7c639181900360600190a15050565b60025481565b60055481565b600c546001600160a01b031681565b6000828152601460205260408120610c169083612560565b6000828152601460205260408120610c16908361256c565b611d0333610ca6565b611d3e5760405162461bcd60e51b81526004018080602001828103825260228152602001806131e86022913960400191505060405180910390fd5b611d488484611800565b611d51826120ee565b611d5a8161167b565b50505050565b600081565b600080610c16600854610c106009548661228290919063ffffffff16565b60065481565b6020015190565b600d60205260009081526040902080546001820154600283015460038401546004909401549293919290919085565b6000546001600160a01b031681565b6011602052600090815260409020546001600160a01b031681565b611df233610ca6565b611e2d5760405162461bcd60e51b81526004018080602001828103825260228152602001806131e86022913960400191505060405180910390fd5b600a80546001600160a01b039384166001600160a01b031991821617909155600b8054929093169116179055565b6000818152601460205260408120610cc090612581565b60035415801590611e84575060045415155b611ed0576040805162461bcd60e51b81526020600482015260186024820152776e65656420746f2073657474696e672073616c6554696d6560401b604482015290519081900360640190fd5b6003544210158015611ee457506004544211155b611f2c576040805162461bcd60e51b81526020600482015260146024820152731c1c9a5d9854d85b19481c195c9a5bd908195b9960621b604482015290519081900360640190fd5b6001600160a01b0382166000908152600f602052604090208054821115611f9a576040805162461bcd60e51b815260206004820152601c60248201527f6e65656420746f206164642077686974654c69737420616d6f756e7400000000604482015290519081900360640190fd5b611fa4838361258c565b8054611fb090836124b5565b90555050565b7ff0887ba65ee2024ea881d91b74c2450ef19e1557f03bed3ea9f16b037cbe2dc981565b600082815260146020526040902060020154611ff890610e6361236f565b6112055760405162461bcd60e51b81526004018080602001828103825260308152602001806132306030913960400191505060405180910390fd5b61203c33610ca6565b6120775760405162461bcd60e51b81526004018080602001828103825260228152602001806131e86022913960400191505060405180910390fd5b6120818383611de9565b611676816115a9565b600a546001600160a01b031681565b6120a233610ca6565b6120dd5760405162461bcd60e51b81526004018080602001828103825260228152602001806131e86022913960400191505060405180910390fd5b600891909155600955565b60045481565b6120f733610ca6565b6121325760405162461bcd60e51b81526004018080602001828103825260228152602001806131e86022913960400191505060405180910390fd5b600555565b61214033610ca6565b61217b5760405162461bcd60e51b81526004018080602001828103825260228152602001806131e86022913960400191505060405180910390fd5b6001600160a01b0382166000908152600f60205260409020805461219f90836124b5565b8155604080516001600160a01b03851681526020810184905281517fc5481633c7aba2072faff430a48242e5b5e14c211eb5d450ac1c31752bcd71af929181900390910190a1505050565b6121f333610ca6565b61222e5760405162461bcd60e51b81526004018080602001828103825260228152602001806131e86022913960400191505060405180910390fd5b600c80546001600160a01b0319166001600160a01b0392909216919091179055565b600e60205260009081526040902080546001820154600283015460038401546004909401549293919290919060ff1685565b60008261229157506000610cc0565b8282028284828161229e57fe5b0414610c165760405162461bcd60e51b81526004018080602001828103825260218152602001806132896021913960400191505060405180910390fd5b6000610c1683836040518060400160405280601a81526020017f536166654d6174683a206469766973696f6e206279207a65726f000000000000815250612bee565b604080516001600160a01b038416602482015260448082018490528251808303909101815260649091019091526020810180516001600160e01b031663a9059cbb60e01b179052611676908490612c90565b3390565b600082815260146020526040902061238b9082612d41565b15610ead5761239861236f565b6001600160a01b0316816001600160a01b0316837f2f8788117e7eff1d82e926ec794901d17c78024a50270940304540a733656f0d60405160405180910390a45050565b600082820183811015610c16576040805162461bcd60e51b815260206004820152601b60248201527f536166654d6174683a206164646974696f6e206f766572666c6f770000000000604482015290519081900360640190fd5b60008061244e600654886124b590919063ffffffff16565b905062278d008082101561247a576001600061246e89611af38a85612282565b94506113499350505050565b600061248b6001611b1885856122db565b9050600c81106124a557600061246e86611af3898c6124b5565b600061246e89611af38a85612282565b6000610c1683836040518060400160405280601e81526020017f536166654d6174683a207375627472616374696f6e206f766572666c6f770000815250612d56565b600082815260146020526040902061250f9082612db0565b15610ead5761251c61236f565b6001600160a01b0316816001600160a01b0316837ff6391f5c32d9c69d2a47ea670b442974b53935d1edc7fd64eb21e047a839171b60405160405180910390a45050565b6000610c168383612dc5565b6000610c16836001600160a01b038416612e29565b6000610cc082612e41565b6001600160a01b0382166000908152600d60205260408120906125ae83611d65565b905060006125c7826002546123dc90919063ffffffff16565b600a54604080516370a0823160e01b815230600482015290519293506000926001600160a01b03909216916370a0823191602480820192602092909190829003018186803b15801561261857600080fd5b505afa15801561262c573d6000803e3d6000fd5b505050506040513d602081101561264257600080fd5b5051905081811015612695576040805162461bcd60e51b8152602060048201526017602482015276191bdb89dd081a185d99481d1bdad95b88185b5bdd5b9d604a1b604482015290519081900360640190fd5b600b5460408051636eb1769f60e11b81526001600160a01b0389811660048301523060248301529151600093929092169163dd62ed3e91604480820192602092909190829003018186803b1580156126ec57600080fd5b505afa158015612700573d6000803e3d6000fd5b505050506040513d602081101561271657600080fd5b5051600b54604080516370a0823160e01b81526001600160a01b038b81166004830152915193945060009391909216916370a08231916024808301926020929190829003018186803b15801561276b57600080fd5b505afa15801561277f573d6000803e3d6000fd5b505050506040513d602081101561279557600080fd5b50519050808211156127a5578091505b86821015612a7c576000806127ba89856124b5565b90506127c581612e45565b600c5460408051636eb1769f60e11b81526001600160a01b038e8116600483015230602483015291519395508593919092169163dd62ed3e9160448083019260209291908290030181600087803b15801561281f57600080fd5b505af1158015612833573d6000803e3d6000fd5b505050506040513d602081101561284957600080fd5b505110156128885760405162461bcd60e51b815260040180806020018281038252602a815260200180613300602a913960400191505060405180910390fd5b600c54604080516370a0823160e01b81526001600160a01b038d811660048301529151859392909216916370a0823191602480820192602092909190829003018186803b1580156128d857600080fd5b505afa1580156128ec573d6000803e3d6000fd5b505050506040513d602081101561290257600080fd5b50511015612948576040805162461bcd60e51b815260206004820152600e60248201526d3732b2b21036b7b932903bba37b760911b604482015290519081900360640190fd5b600c54612960906001600160a01b03168b3085612e4e565b600c546040805163f53fe70f60e01b81526004810185905290516001600160a01b039092169163f53fe70f916024808201926020929091908290030181600087803b1580156129ae57600080fd5b505af11580156129c2573d6000803e3d6000fd5b505050506040513d60208110156129d857600080fd5b506129e5905089826124b5565b841015612a235760405162461bcd60e51b81526004018080602001828103825260298152602001806132606029913960400191505060405180910390fd5b6000612a2f8a836124b5565b1115612a5857612a588a30612a448c856124b5565b600b546001600160a01b0316929190612e4e565b600054600b54612a75916001600160a01b0391821691168b61231d565b5050612afc565b868210158015612a8c5750868110155b612ac75760405162461bcd60e51b81526004018080602001828103825260298152602001806132606029913960400191505060405180910390fd5b600b54612adf906001600160a01b031689308a612e4e565b600054600b54612afc916001600160a01b0391821691168961231d565b8554612b0890886123dc565b86556001860154612b1990866123dc565b60018701819055612b3290606490610c10906005612282565b600487018190556001870154612b4e91600c91610c10916124b5565b6003870155426002870155600154612b6690886123dc565b600155600254612b7690866123dc565b60029081558654600188015491880154600389015460048a0154604080513381526020810195909552848101959095526060840192909252608083015260a082015290517f344ad4ad025d9efe1d220eea3f1aae5842cb867c601bea94f24ad59b32166c5b9181900360c00190a15050505050505050565b60008183612c7a5760405162461bcd60e51b81526004018080602001828103825283818151815260200191508051906020019080838360005b83811015612c3f578181015183820152602001612c27565b50505050905090810190601f168015612c6c5780820380516001836020036101000a031916815260200191505b509250505060405180910390fd5b506000838581612c8657fe5b0495945050505050565b6000612ce5826040518060400160405280602081526020017f5361666545524332303a206c6f772d6c6576656c2063616c6c206661696c6564815250856001600160a01b0316612ea89092919063ffffffff16565b80519091501561167657808060200190516020811015612d0457600080fd5b50516116765760405162461bcd60e51b815260040180806020018281038252602a81526020018061332a602a913960400191505060405180910390fd5b6000610c16836001600160a01b038416612ebf565b60008184841115612da85760405162461bcd60e51b8152602060048201818152835160248401528351909283926044909101919085019080838360008315612c3f578181015183820152602001612c27565b505050900390565b6000610c16836001600160a01b038416612f09565b81546000908210612e075760405162461bcd60e51b81526004018080602001828103825260228152602001806131976022913960400191505060405180910390fd5b826000018281548110612e1657fe5b9060005260206000200154905092915050565b60009081526001919091016020526040902054151590565b5490565b633b9aca000290565b604080516001600160a01b0380861660248301528416604482015260648082018490528251808303909101815260849091019091526020810180516001600160e01b03166323b872dd60e01b179052611d5a908590612c90565b6060612eb78484600085612fcf565b949350505050565b6000612ecb8383612e29565b612f0157508154600181810184556000848152602080822090930184905584548482528286019093526040902091909155610cc0565b506000610cc0565b60008181526001830160205260408120548015612fc55783546000198083019190810190600090879083908110612f3c57fe5b9060005260206000200154905080876000018481548110612f5957fe5b600091825260208083209091019290925582815260018981019092526040902090840190558654879080612f8957fe5b60019003818190600052602060002001600090559055866001016000878152602001908152602001600020600090556001945050505050610cc0565b6000915050610cc0565b6060824710156130105760405162461bcd60e51b815260040180806020018281038252602681526020018061320a6026913960400191505060405180910390fd5b6130198561312a565b61306a576040805162461bcd60e51b815260206004820152601d60248201527f416464726573733a2063616c6c20746f206e6f6e2d636f6e7472616374000000604482015290519081900360640190fd5b600080866001600160a01b031685876040518082805190602001908083835b602083106130a85780518252601f199092019160209182019101613089565b6001836020036101000a03801982511681845116808217855250505050505090500191505060006040518083038185875af1925050503d806000811461310a576040519150601f19603f3d011682016040523d82523d6000602084013e61310f565b606091505b509150915061311f828286613130565b979650505050505050565b3b151590565b6060831561313f575081610c16565b82511561314f5782518084602001fd5b60405162461bcd60e51b8152602060048201818152845160248401528451859391928392604401919085019080838360008315612c3f578181015183820152602001612c2756fe456e756d657261626c655365743a20696e646578206f7574206f6620626f756e6473416363657373436f6e74726f6c3a2073656e646572206d75737420626520616e2061646d696e20746f206772616e7441636365737369626c653a2043616c6c6572206973206e6f7420616e2061646d696e416464726573733a20696e73756666696369656e742062616c616e636520666f722063616c6c416363657373436f6e74726f6c3a2073656e646572206d75737420626520616e2061646d696e20746f207265766f6b657072697661746553616c653a20746f6e20616d6f756e74206578636565647320616c6c6f77616e6365536166654d6174683a206d756c7469706c69636174696f6e206f766572666c6f775072697661746553616c653a206f6e6c792061636365707420544f4e20616e642057544f4e20617070726f76652063616c6c6261636bdf8b4c520ffe197c5343c6f5aec59570151ef9a492f2c624fd45ddde6135ec427072697661746553616c653a2077746f6e20616d6f756e74206578636565647320616c6c6f77616e63655361666545524332303a204552433230206f7065726174696f6e20646964206e6f742073756363656564416363657373436f6e74726f6c3a2063616e206f6e6c792072656e6f756e636520726f6c657320666f722073656c66a2646970667358221220bed7a22b9a9be14291a857b403670574b554101901a864d787720c8657524a6c64736f6c63430007060033",
  "linkReferences": {},
  "deployedLinkReferences": {}
}