{
  "_format": "hh-sol-artifact-1",
  "contractName": "LockTOSDividendStorage",
  "sourceName": "contracts/stake/LockTOSDividendStorage.sol",
  "abi": [
    {
      "inputs": [
        {
          "internalType": "uint256",
          "name": "",
          "type": "uint256"
        }
      ],
      "name": "distributedTokens",
      "outputs": [
        {
          "internalType": "address",
          "name": "",
          "type": "address"
        }
      ],
      "stateMutability": "view",
      "type": "function"
    },
    {
      "inputs": [
        {
          "internalType": "address",
          "name": "",
          "type": "address"
        }
      ],
      "name": "distributions",
      "outputs": [
        {
          "internalType": "bool",
          "name": "exists",
          "type": "bool"
        },
        {
          "internalType": "uint256",
          "name": "totalDistribution",
          "type": "uint256"
        },
        {
          "internalType": "uint256",
          "name": "lastBalance",
          "type": "uint256"
        }
      ],
      "stateMutability": "view",
      "type": "function"
    },
    {
      "inputs": [],
      "name": "epochUnit",
      "outputs": [
        {
          "internalType": "uint256",
          "name": "",
          "type": "uint256"
        }
      ],
      "stateMutability": "view",
      "type": "function"
    },
    {
      "inputs": [],
      "name": "genesis",
      "outputs": [
        {
          "internalType": "uint256",
          "name": "",
          "type": "uint256"
        }
      ],
      "stateMutability": "view",
      "type": "function"
    },
    {
      "inputs": [],
      "name": "lockTOS",
      "outputs": [
        {
          "internalType": "address",
          "name": "",
          "type": "address"
        }
      ],
      "stateMutability": "view",
      "type": "function"
    },
    {
      "inputs": [],
      "name": "migratedL2",
      "outputs": [
        {
          "internalType": "bool",
          "name": "",
          "type": "bool"
        }
      ],
      "stateMutability": "view",
      "type": "function"
    },
    {
      "inputs": [],
      "name": "pauseProxy",
      "outputs": [
        {
          "internalType": "bool",
          "name": "",
          "type": "bool"
        }
      ],
      "stateMutability": "view",
      "type": "function"
    },
    {
      "inputs": [],
      "name": "stakeRegistry",
      "outputs": [
        {
          "internalType": "address",
          "name": "",
          "type": "address"
        }
      ],
      "stateMutability": "view",
      "type": "function"
    }
  ],
  "bytecode": "0x6080604052600160065534801561001557600080fd5b5061021f806100256000396000f3fe608060405234801561001057600080fd5b50600436106100785760003560e01c806337a155031461007d5780634e6c4466146100b657806363a8fd89146100be57806368304835146100da5780639353b9df146100e2578063a1f5f50e14610128578063a7f0b3de14610130578063fd2dcecf1461014a575b600080fd5b61009a6004803603602081101561009357600080fd5b5035610152565b604080516001600160a01b039092168252519081900360200190f35b61009a61017c565b6100c661018b565b604080519115158252519081900360200190f35b61009a610194565b610108600480360360208110156100f857600080fd5b50356001600160a01b03166101a8565b604080519315158452602084019290925282820152519081900360600190f35b6100c66101cd565b6101386101dd565b60408051918252519081900360200190f35b6101386101e3565b6005818154811061016257600080fd5b6000918252602090912001546001600160a01b0316905081565b6002546001600160a01b031681565b60005460ff1681565b60005461010090046001600160a01b031681565b60046020526000908152604090208054600182015460029092015460ff909116919083565b600054600160a81b900460ff1681565b60035481565b6001548156fea264697066735822122054ee5b14205aa6fc050f892b406f30f41caf170d3cb70defc4c37c1bb04fa5b664736f6c63430007060033",
  "linkReferences": {},
  "deployedLinkReferences": {}
}