{
  "_format": "hh-sol-artifact-1",
  "contractName": "Stake2Vault",
  "sourceName": "contracts/stake/Stake2Vault.sol",
  "abi": [
    {
      "inputs": [],
      "stateMutability": "nonpayable",
      "type": "constructor"
    },
    {
      "anonymous": false,
      "inputs": [
        {
          "indexed": true,
          "internalType": "address",
          "name": "from",
          "type": "address"
        },
        {
          "indexed": false,
          "internalType": "address",
          "name": "to",
          "type": "address"
        },
        {
          "indexed": false,
          "internalType": "uint256",
          "name": "amount",
          "type": "uint256"
        }
      ],
      "name": "Claimed",
      "type": "event"
    },
    {
      "anonymous": false,
      "inputs": [
        {
          "indexed": true,
          "internalType": "address",
          "name": "to",
          "type": "address"
        },
        {
          "indexed": false,
          "internalType": "uint256",
          "name": "minableAmount",
          "type": "uint256"
        },
        {
          "indexed": false,
          "internalType": "uint256",
          "name": "miningAmount",
          "type": "uint256"
        },
        {
          "indexed": false,
          "internalType": "uint256",
          "name": "nonMiningAmount",
          "type": "uint256"
        }
      ],
      "name": "ClaimedMining",
      "type": "event"
    },
    {
      "anonymous": false,
      "inputs": [
        {
          "indexed": true,
          "internalType": "bytes32",
          "name": "role",
          "type": "bytes32"
        },
        {
          "indexed": true,
          "internalType": "bytes32",
          "name": "previousAdminRole",
          "type": "bytes32"
        },
        {
          "indexed": true,
          "internalType": "bytes32",
          "name": "newAdminRole",
          "type": "bytes32"
        }
      ],
      "name": "RoleAdminChanged",
      "type": "event"
    },
    {
      "anonymous": false,
      "inputs": [
        {
          "indexed": true,
          "internalType": "bytes32",
          "name": "role",
          "type": "bytes32"
        },
        {
          "indexed": true,
          "internalType": "address",
          "name": "account",
          "type": "address"
        },
        {
          "indexed": true,
          "internalType": "address",
          "name": "sender",
          "type": "address"
        }
      ],
      "name": "RoleGranted",
      "type": "event"
    },
    {
      "anonymous": false,
      "inputs": [
        {
          "indexed": true,
          "internalType": "bytes32",
          "name": "role",
          "type": "bytes32"
        },
        {
          "indexed": true,
          "internalType": "address",
          "name": "account",
          "type": "address"
        },
        {
          "indexed": true,
          "internalType": "address",
          "name": "sender",
          "type": "address"
        }
      ],
      "name": "RoleRevoked",
      "type": "event"
    },
    {
      "inputs": [],
      "name": "ADMIN_ROLE",
      "outputs": [
        {
          "internalType": "bytes32",
          "name": "",
          "type": "bytes32"
        }
      ],
      "stateMutability": "view",
      "type": "function"
    },
    {
      "inputs": [],
      "name": "BURNER_ROLE",
      "outputs": [
        {
          "internalType": "bytes32",
          "name": "",
          "type": "bytes32"
        }
      ],
      "stateMutability": "view",
      "type": "function"
    },
    {
      "inputs": [],
      "name": "DEFAULT_ADMIN_ROLE",
      "outputs": [
        {
          "internalType": "bytes32",
          "name": "",
          "type": "bytes32"
        }
      ],
      "stateMutability": "view",
      "type": "function"
    },
    {
      "inputs": [],
      "name": "MINTER_ROLE",
      "outputs": [
        {
          "internalType": "bytes32",
          "name": "",
          "type": "bytes32"
        }
      ],
      "stateMutability": "view",
      "type": "function"
    },
    {
      "inputs": [],
      "name": "PROJECT_ADMIN_ROLE",
      "outputs": [
        {
          "internalType": "bytes32",
          "name": "",
          "type": "bytes32"
        }
      ],
      "stateMutability": "view",
      "type": "function"
    },
    {
      "inputs": [
        {
          "internalType": "address",
          "name": "account",
          "type": "address"
        }
      ],
      "name": "addAdmin",
      "outputs": [],
      "stateMutability": "nonpayable",
      "type": "function"
    },
    {
      "inputs": [],
      "name": "balanceTOSAvailableAmount",
      "outputs": [
        {
          "internalType": "uint256",
          "name": "",
          "type": "uint256"
        }
      ],
      "stateMutability": "view",
      "type": "function"
    },
    {
      "inputs": [],
      "name": "cap",
      "outputs": [
        {
          "internalType": "uint256",
          "name": "",
          "type": "uint256"
        }
      ],
      "stateMutability": "view",
      "type": "function"
    },
    {
      "inputs": [
        {
          "internalType": "uint256",
          "name": "_cap",
          "type": "uint256"
        }
      ],
      "name": "changeCap",
      "outputs": [],
      "stateMutability": "nonpayable",
      "type": "function"
    },
    {
      "inputs": [
        {
          "internalType": "string",
          "name": "_name",
          "type": "string"
        }
      ],
      "name": "changeName",
      "outputs": [],
      "stateMutability": "nonpayable",
      "type": "function"
    },
    {
      "inputs": [
        {
          "internalType": "address",
          "name": "_to",
          "type": "address"
        },
        {
          "internalType": "uint256",
          "name": "_amount",
          "type": "uint256"
        }
      ],
      "name": "claim",
      "outputs": [
        {
          "internalType": "bool",
          "name": "",
          "type": "bool"
        }
      ],
      "stateMutability": "nonpayable",
      "type": "function"
    },
    {
      "inputs": [
        {
          "internalType": "address",
          "name": "to",
          "type": "address"
        },
        {
          "internalType": "uint256",
          "name": "minableAmount",
          "type": "uint256"
        },
        {
          "internalType": "uint256",
          "name": "miningAmount",
          "type": "uint256"
        },
        {
          "internalType": "uint256",
          "name": "nonMiningAmount",
          "type": "uint256"
        }
      ],
      "name": "claimMining",
      "outputs": [
        {
          "internalType": "bool",
          "name": "",
          "type": "bool"
        }
      ],
      "stateMutability": "nonpayable",
      "type": "function"
    },
    {
      "inputs": [
        {
          "internalType": "bytes32",
          "name": "role",
          "type": "bytes32"
        }
      ],
      "name": "getRoleAdmin",
      "outputs": [
        {
          "internalType": "bytes32",
          "name": "",
          "type": "bytes32"
        }
      ],
      "stateMutability": "view",
      "type": "function"
    },
    {
      "inputs": [
        {
          "internalType": "bytes32",
          "name": "role",
          "type": "bytes32"
        },
        {
          "internalType": "uint256",
          "name": "index",
          "type": "uint256"
        }
      ],
      "name": "getRoleMember",
      "outputs": [
        {
          "internalType": "address",
          "name": "",
          "type": "address"
        }
      ],
      "stateMutability": "view",
      "type": "function"
    },
    {
      "inputs": [
        {
          "internalType": "bytes32",
          "name": "role",
          "type": "bytes32"
        }
      ],
      "name": "getRoleMemberCount",
      "outputs": [
        {
          "internalType": "uint256",
          "name": "",
          "type": "uint256"
        }
      ],
      "stateMutability": "view",
      "type": "function"
    },
    {
      "inputs": [
        {
          "internalType": "bytes32",
          "name": "role",
          "type": "bytes32"
        },
        {
          "internalType": "address",
          "name": "account",
          "type": "address"
        }
      ],
      "name": "grantRole",
      "outputs": [],
      "stateMutability": "nonpayable",
      "type": "function"
    },
    {
      "inputs": [
        {
          "internalType": "bytes32",
          "name": "role",
          "type": "bytes32"
        },
        {
          "internalType": "address",
          "name": "account",
          "type": "address"
        }
      ],
      "name": "hasRole",
      "outputs": [
        {
          "internalType": "bool",
          "name": "",
          "type": "bool"
        }
      ],
      "stateMutability": "view",
      "type": "function"
    },
    {
      "inputs": [],
      "name": "infos",
      "outputs": [
        {
          "internalType": "address[2]",
          "name": "",
          "type": "address[2]"
        },
        {
          "internalType": "uint256",
          "name": "",
          "type": "uint256"
        },
        {
          "internalType": "uint256",
          "name": "",
          "type": "uint256"
        },
        {
          "internalType": "uint256",
          "name": "",
          "type": "uint256"
        },
        {
          "internalType": "string",
          "name": "",
          "type": "string"
        }
      ],
      "stateMutability": "view",
      "type": "function"
    },
    {
      "inputs": [
        {
          "internalType": "address",
          "name": "account",
          "type": "address"
        }
      ],
      "name": "isAdmin",
      "outputs": [
        {
          "internalType": "bool",
          "name": "",
          "type": "bool"
        }
      ],
      "stateMutability": "view",
      "type": "function"
    },
    {
      "inputs": [],
      "name": "migratedL2",
      "outputs": [
        {
          "internalType": "bool",
          "name": "",
          "type": "bool"
        }
      ],
      "stateMutability": "view",
      "type": "function"
    },
    {
      "inputs": [],
      "name": "miningAmountTotal",
      "outputs": [
        {
          "internalType": "uint256",
          "name": "",
          "type": "uint256"
        }
      ],
      "stateMutability": "view",
      "type": "function"
    },
    {
      "inputs": [],
      "name": "miningEndTime",
      "outputs": [
        {
          "internalType": "uint256",
          "name": "",
          "type": "uint256"
        }
      ],
      "stateMutability": "view",
      "type": "function"
    },
    {
      "inputs": [],
      "name": "miningPerSecond",
      "outputs": [
        {
          "internalType": "uint256",
          "name": "",
          "type": "uint256"
        }
      ],
      "stateMutability": "view",
      "type": "function"
    },
    {
      "inputs": [],
      "name": "miningStartTime",
      "outputs": [
        {
          "internalType": "uint256",
          "name": "",
          "type": "uint256"
        }
      ],
      "stateMutability": "view",
      "type": "function"
    },
    {
      "inputs": [],
      "name": "name",
      "outputs": [
        {
          "internalType": "string",
          "name": "",
          "type": "string"
        }
      ],
      "stateMutability": "view",
      "type": "function"
    },
    {
      "inputs": [],
      "name": "nonMiningAmountTotal",
      "outputs": [
        {
          "internalType": "uint256",
          "name": "",
          "type": "uint256"
        }
      ],
      "stateMutability": "view",
      "type": "function"
    },
    {
      "inputs": [],
      "name": "pauseProxy",
      "outputs": [
        {
          "internalType": "bool",
          "name": "",
          "type": "bool"
        }
      ],
      "stateMutability": "view",
      "type": "function"
    },
    {
      "inputs": [
        {
          "internalType": "address",
          "name": "account",
          "type": "address"
        }
      ],
      "name": "removeAdmin",
      "outputs": [],
      "stateMutability": "nonpayable",
      "type": "function"
    },
    {
      "inputs": [
        {
          "internalType": "bytes32",
          "name": "role",
          "type": "bytes32"
        },
        {
          "internalType": "address",
          "name": "account",
          "type": "address"
        }
      ],
      "name": "renounceRole",
      "outputs": [],
      "stateMutability": "nonpayable",
      "type": "function"
    },
    {
      "inputs": [
        {
          "internalType": "bytes32",
          "name": "role",
          "type": "bytes32"
        },
        {
          "internalType": "address",
          "name": "account",
          "type": "address"
        }
      ],
      "name": "revokeRole",
      "outputs": [],
      "stateMutability": "nonpayable",
      "type": "function"
    },
    {
      "inputs": [
        {
          "internalType": "uint256",
          "name": "_miningPerSecond",
          "type": "uint256"
        }
      ],
      "name": "setMiningAmountPerSecond",
      "outputs": [],
      "stateMutability": "nonpayable",
      "type": "function"
    },
    {
      "inputs": [
        {
          "internalType": "uint256",
          "name": "_miningEndTime",
          "type": "uint256"
        }
      ],
      "name": "setMiningEndTime",
      "outputs": [],
      "stateMutability": "nonpayable",
      "type": "function"
    },
    {
      "inputs": [
        {
          "internalType": "uint256",
          "name": "_miningStartTime",
          "type": "uint256"
        }
      ],
      "name": "setMiningStartTime",
      "outputs": [],
      "stateMutability": "nonpayable",
      "type": "function"
    },
    {
      "inputs": [
        {
          "internalType": "address",
          "name": "_stakeAddress",
          "type": "address"
        }
      ],
      "name": "setStakeAddress",
      "outputs": [],
      "stateMutability": "nonpayable",
      "type": "function"
    },
    {
      "inputs": [
        {
          "internalType": "address",
          "name": "_tos",
          "type": "address"
        }
      ],
      "name": "setTOS",
      "outputs": [],
      "stateMutability": "nonpayable",
      "type": "function"
    },
    {
      "inputs": [],
      "name": "stakeAddress",
      "outputs": [
        {
          "internalType": "address",
          "name": "",
          "type": "address"
        }
      ],
      "stateMutability": "view",
      "type": "function"
    },
    {
      "inputs": [],
      "name": "stakeAddressesAll",
      "outputs": [
        {
          "internalType": "address[]",
          "name": "",
          "type": "address[]"
        }
      ],
      "stateMutability": "view",
      "type": "function"
    },
    {
      "inputs": [],
      "name": "stakeType",
      "outputs": [
        {
          "internalType": "uint256",
          "name": "",
          "type": "uint256"
        }
      ],
      "stateMutability": "view",
      "type": "function"
    },
    {
      "inputs": [],
      "name": "tos",
      "outputs": [
        {
          "internalType": "address",
          "name": "",
          "type": "address"
        }
      ],
      "stateMutability": "view",
      "type": "function"
    },
    {
      "inputs": [],
      "name": "totalMinedAmount",
      "outputs": [
        {
          "internalType": "uint256",
          "name": "",
          "type": "uint256"
        }
      ],
      "stateMutability": "view",
      "type": "function"
    },
    {
      "inputs": [
        {
          "internalType": "address",
          "name": "newAdmin",
          "type": "address"
        }
      ],
      "name": "transferAdmin",
      "outputs": [],
      "stateMutability": "nonpayable",
      "type": "function"
    },
    {
      "inputs": [
        {
          "internalType": "address",
          "name": "to",
          "type": "address"
        },
        {
          "internalType": "uint256",
          "name": "_amount",
          "type": "uint256"
        }
      ],
      "name": "withdraw",
      "outputs": [],
      "stateMutability": "nonpayable",
      "type": "function"
    },
    {
      "stateMutability": "payable",
      "type": "receive"
    }
  ],
  "bytecode": "0x608060405234801561001057600080fd5b5061275f806100206000396000f3fe6080604052600436106102555760003560e01c8063800edb9d11610139578063af182fce116100b6578063d547741f1161007a578063d547741f14610681578063e79e447c146106a1578063f0091509146106c1578063f0276114146106d6578063f3fef3a3146106f6578063fb9af8b8146107165761027b565b8063af182fce14610600578063b97af0db14610615578063ca15c8731461062a578063d007e8961461064a578063d53913931461066c5761027b565b80639a88be2f116100fd5780639a88be2f14610570578063a1f5f50e14610596578063a217fddf146105ab578063a842d78e146105c0578063aad3ec96146105e05761027b565b8063800edb9d146104d957806385107367146104f957806389f395de1461051b5780639010d07c1461053057806391d14854146105505761027b565b806336568abe116101d25780635f139e3f116101965780635f139e3f1461044557806363a8fd891461045a57806366b2d5271461046f578063704802751461048457806375829def146104a457806375b238fc146104c45761027b565b806336568abe146103bb57806340c2ce86146103db57806341c04d5e146103fb5780634ce77abe146104105780635353a2d8146104255761027b565b806324d7806c1161021957806324d7806c1461032f5780632736b3911461035c578063282c51f3146103715780632f2ff15d14610386578063355274ea146103a65761027b565b806301f88d261461028057806306fdde03146102ab5780631785f53c146102cd57806323471d18146102ef578063248a9ca31461030f5761027b565b3661027b5760405162461bcd60e51b81526004016102729061237c565b60405180910390fd5b600080fd5b34801561028c57600080fd5b50610295610736565b6040516102a291906121e0565b60405180910390f35b3480156102b757600080fd5b506102c061073c565b6040516102a291906121e9565b3480156102d957600080fd5b506102ed6102e8366004611e95565b6107c7565b005b3480156102fb57600080fd5b506102ed61030a366004611e95565b610826565b34801561031b57600080fd5b5061029561032a366004611f30565b610917565b34801561033b57600080fd5b5061034f61034a366004611e95565b61092f565b6040516102a291906121d5565b34801561036857600080fd5b5061029561094f565b34801561037d57600080fd5b50610295610955565b34801561039257600080fd5b506102ed6103a1366004611f48565b610979565b3480156103b257600080fd5b506102956109e0565b3480156103c757600080fd5b506102ed6103d6366004611f48565b6109e6565b3480156103e757600080fd5b506102ed6103f6366004611e95565b610a47565b34801561040757600080fd5b50610295610b0a565b34801561041c57600080fd5b50610295610b2e565b34801561043157600080fd5b506102ed610440366004611f94565b610b34565b34801561045157600080fd5b50610295610bf8565b34801561046657600080fd5b5061034f610bfe565b34801561047b57600080fd5b50610295610c07565b34801561049057600080fd5b506102ed61049f366004611e95565b610c8d565b3480156104b057600080fd5b506102ed6104bf366004611e95565b610ce9565b3480156104d057600080fd5b50610295610e0a565b3480156104e557600080fd5b506102ed6104f4366004611f30565b610e1c565b34801561050557600080fd5b5061050e610e93565b6040516102a291906120f9565b34801561052757600080fd5b5061050e610ea2565b34801561053c57600080fd5b5061050e61054b366004611f73565b610eb1565b34801561055c57600080fd5b5061034f61056b366004611f48565b610ed0565b34801561057c57600080fd5b50610585610ee8565b6040516102a2959493929190612126565b3480156105a257600080fd5b5061034f610fca565b3480156105b757600080fd5b50610295610fd8565b3480156105cc57600080fd5b506102ed6105db366004611f30565b610fdd565b3480156105ec57600080fd5b5061034f6105fb366004611eaf565b611054565b34801561060c57600080fd5b50610295611281565b34801561062157600080fd5b50610295611287565b34801561063657600080fd5b50610295610645366004611f30565b61128d565b34801561065657600080fd5b5061065f6112a4565b6040516102a29190612188565b34801561067857600080fd5b50610295611301565b34801561068d57600080fd5b506102ed61069c366004611f48565b611325565b3480156106ad57600080fd5b506102ed6106bc366004611f30565b61137e565b3480156106cd57600080fd5b506102956113f5565b3480156106e257600080fd5b5061034f6106f1366004611ed8565b6113fb565b34801561070257600080fd5b506102ed610711366004611eaf565b611774565b34801561072257600080fd5b506102ed610731366004611f30565b611900565b60045481565b6002805460408051602060018416156101000260001901909316849004601f810184900484028201840190925281815292918301828280156107bf5780601f10610794576101008083540402835291602001916107bf565b820191906000526020600020905b8154815290600101906020018083116107a257829003601f168201915b505050505081565b6107d03361092f565b61080b5760405162461bcd60e51b81526004018080602001828103825260228152602001806126486022913960400191505060405180910390fd5b6108236000805160206126db833981519152826109e6565b50565b806001600160a01b038116610882576040805162461bcd60e51b815260206004820181905260248201527f5374616b65325661756c7453746f726167653a207a65726f2061646472657373604482015290519081900360640190fd5b61088b3361092f565b6108c65760405162461bcd60e51b81526004018080602001828103825260228152602001806126486022913960400191505060405180910390fd5b6008546001600160a01b03838116911614156108f45760405162461bcd60e51b8152600401610272906124be565b50600880546001600160a01b0319166001600160a01b0392909216919091179055565b6000818152602081905260409020600201545b919050565b60006109496000805160206126db83398151915283610ed0565b92915050565b60055481565b7f9667e80708b6eeeb0053fa0cca44e028ff548e2a9f029edfeac87c118b08b7c881565b6000828152602081905260409020600201546109979061056b611977565b6109d25760405162461bcd60e51b815260040180806020018281038252602f815260200180612619602f913960400191505060405180910390fd5b6109dc828261197b565b5050565b60035481565b6109ee611977565b6001600160a01b0316816001600160a01b031614610a3d5760405162461bcd60e51b815260040180806020018281038252602f8152602001806126fb602f913960400191505060405180910390fd5b6109dc82826119e4565b610a503361092f565b610a8b5760405162461bcd60e51b81526004018080602001828103825260228152602001806126486022913960400191505060405180910390fd5b806001600160a01b038116610ae7576040805162461bcd60e51b815260206004820181905260248201527f5374616b65325661756c7453746f726167653a207a65726f2061646472657373604482015290519081900360640190fd5b50600180546001600160a01b0319166001600160a01b0392909216919091179055565b7f52eafc11f6f81f86878bffd31109a0d92f37506527754f00788853ff9f63b13081565b60065481565b610b3d3361092f565b610b785760405162461bcd60e51b81526004018080602001828103825260228152602001806126486022913960400191505060405180910390fd5b80604051602001610b89919061206d565b604051602081830303815290604052805190602001206002604051602001610bb19190612089565b604051602081830303815290604052805190602001201415610be55760405162461bcd60e51b81526004016102729061230e565b80516109dc906002906020840190611dbf565b60095481565b600d5460ff1681565b6001546040516370a0823160e01b81526000916001600160a01b0316906370a0823190610c389030906004016120f9565b60206040518083038186803b158015610c5057600080fd5b505afa158015610c64573d6000803e3d6000fd5b505050506040513d601f19601f82011682018060405250810190610c889190612029565b905090565b610c963361092f565b610cd15760405162461bcd60e51b81526004018080602001828103825260228152602001806126486022913960400191505060405180910390fd5b6108236000805160206126db83398151915282610979565b610cf23361092f565b610d2d5760405162461bcd60e51b81526004018080602001828103825260228152602001806126486022913960400191505060405180910390fd5b6001600160a01b038116610d83576040805162461bcd60e51b815260206004820152601860248201527741636365737369626c653a207a65726f206164647265737360401b604482015290519081900360640190fd5b336001600160a01b0382161415610dda576040805162461bcd60e51b815260206004820152601660248201527520b1b1b2b9b9b4b136329d1039b0b6b29030b236b4b760511b604482015290519081900360640190fd5b610df26000805160206126db83398151915282610979565b6108236000805160206126db833981519152336109e6565b6000805160206126db83398151915281565b610e253361092f565b610e605760405162461bcd60e51b81526004018080602001828103825260228152602001806126486022913960400191505060405180910390fd5b600081118015610e7257508060035414155b610e8e5760405162461bcd60e51b8152600401610272906123e2565b600355565b6008546001600160a01b031681565b6001546001600160a01b031681565b6000828152602081905260408120610ec99083611a4d565b9392505050565b6000828152602081905260408120610ec99083611a59565b610ef0611e4b565b604080518082018252600180546001600160a01b0390811683526008541660208084019190915260035460075460065460028054885161010097821615979097026000190116819004601f8101869004860287018601909852878652600097889788976060979196959493929091839190830182828015610fb25780601f10610f8757610100808354040283529160200191610fb2565b820191906000526020600020905b815481529060010190602001808311610f9557829003601f168201915b50505050509050945094509450945094509091929394565b600d54610100900460ff1681565b600081565b610fe63361092f565b6110215760405162461bcd60e51b81526004018080602001828103825260228152602001806126486022913960400191505060405180910390fd5b60008111801561103357508060055414155b61104f5760405162461bcd60e51b815260040161027290612488565b600555565b600061105f3361092f565b61109a5760405162461bcd60e51b81526004018080602001828103825260228152602001806126486022913960400191505060405180910390fd5b81600081116110f0576040805162461bcd60e51b815260206004820152601e60248201527f5374616b65325661756c7453746f726167653a207a65726f2076616c75650000604482015290519081900360640190fd5b6001546040516370a0823160e01b81526000916001600160a01b0316906370a08231906111219030906004016120f9565b60206040518083038186803b15801561113957600080fd5b505afa15801561114d573d6000803e3d6000fd5b505050506040513d601f19601f820116820180604052508101906111719190612029565b9050838110156111935760405162461bcd60e51b8152600401610272906122d7565b60015460405163a9059cbb60e01b81526001600160a01b039091169063a9059cbb906111c5908890889060040161210d565b602060405180830381600087803b1580156111df57600080fd5b505af11580156111f3573d6000803e3d6000fd5b505050506040513d601f19601f820116820180604052508101906112179190611f10565b6112335760405162461bcd60e51b815260040161027290612548565b336001600160a01b03167ff7a40077ff7a04c7e61f6f26fb13774259ddf1b6bce9ecf26a8276cdd3992683868660405161126e92919061210d565b60405180910390a2506001949350505050565b600a5481565b60075481565b600081815260208190526040812061094990611a6e565b6040805160018082528183019092526060916000919060208083019080368337505060085482519293506001600160a01b0316918391506000906112e457fe5b6001600160a01b0390921660209283029190910190910152905090565b7ff0887ba65ee2024ea881d91b74c2450ef19e1557f03bed3ea9f16b037cbe2dc981565b6000828152602081905260409020600201546113439061056b611977565b610a3d5760405162461bcd60e51b815260040180806020018281038252603081526020018061266a6030913960400191505060405180910390fd5b6113873361092f565b6113c25760405162461bcd60e51b81526004018080602001828103825260228152602001806126486022913960400191505060405180910390fd5b6000811180156113d457508060065414155b6113f05760405162461bcd60e51b8152600401610272906123aa565b600655565b600b5481565b60008360008111611453576040805162461bcd60e51b815260206004820152601e60248201527f5374616b65325661756c7453746f726167653a207a65726f2076616c75650000604482015290519081900360640190fd5b42600454106114745760405162461bcd60e51b8152600401610272906121fc565b6008546001600160a01b0316331461149e5760405162461bcd60e51b815260040161027290612500565b6114a88484611a79565b85146114c65760405162461bcd60e51b81526004016102729061228d565b6001546040516370a0823160e01b81526000916001600160a01b0316906370a08231906114f79030906004016120f9565b60206040518083038186803b15801561150f57600080fd5b505afa158015611523573d6000803e3d6000fd5b505050506040513d601f19601f820116820180604052508101906115479190612029565b9050858110156115695760405162461bcd60e51b8152600401610272906122d7565b6009546115769086611a79565b600955600a546115869085611a79565b600a55600b546115969087611a79565b600b556006546004546115b591906115af904290611ad3565b90611b15565b600b5411156115d65760405162461bcd60e51b815260040161027290612242565b841561167c5760015460405163a9059cbb60e01b81526001600160a01b039091169063a9059cbb9061160e908a90899060040161210d565b602060405180830381600087803b15801561162857600080fd5b505af115801561163c573d6000803e3d6000fd5b505050506040513d601f19601f820116820180604052508101906116609190611f10565b61167c5760405162461bcd60e51b815260040161027290612548565b831561172257600154604051632770a7eb60e21b81526001600160a01b0390911690639dc29fac906116b4903090889060040161210d565b602060405180830381600087803b1580156116ce57600080fd5b505af11580156116e2573d6000803e3d6000fd5b505050506040513d601f19601f820116820180604052508101906117069190611f10565b6117225760405162461bcd60e51b815260040161027290612345565b866001600160a01b03167f5a9adfc919404a42fdf241694d4c9ff0041b7b48fca6ed837402db9d1d6385a887878760405161175f939291906125b0565b60405180910390a25060019695505050505050565b61177d3361092f565b6117b85760405162461bcd60e51b81526004018080602001828103825260228152602001806126486022913960400191505060405180910390fd5b6001546040516370a0823160e01b81526000916001600160a01b0316906370a08231906117e99030906004016120f9565b60206040518083038186803b15801561180157600080fd5b505afa158015611815573d6000803e3d6000fd5b505050506040513d601f19601f820116820180604052508101906118399190612029565b90508181101561185b5760405162461bcd60e51b81526004016102729061257f565b60015460405163a9059cbb60e01b81526001600160a01b039091169063a9059cbb9061188d908690869060040161210d565b602060405180830381600087803b1580156118a757600080fd5b505af11580156118bb573d6000803e3d6000fd5b505050506040513d601f19601f820116820180604052508101906118df9190611f10565b6118fb5760405162461bcd60e51b815260040161027290612419565b505050565b6119093361092f565b6119445760405162461bcd60e51b81526004018080602001828103825260228152602001806126486022913960400191505060405180910390fd5b60008111801561195657508060045414155b6119725760405162461bcd60e51b815260040161027290612450565b600455565b3390565b60008281526020819052604090206119939082611b6e565b156109dc576119a0611977565b6001600160a01b0316816001600160a01b0316837f2f8788117e7eff1d82e926ec794901d17c78024a50270940304540a733656f0d60405160405180910390a45050565b60008281526020819052604090206119fc9082611b83565b156109dc57611a09611977565b6001600160a01b0316816001600160a01b0316837ff6391f5c32d9c69d2a47ea670b442974b53935d1edc7fd64eb21e047a839171b60405160405180910390a45050565b6000610ec98383611b98565b6000610ec9836001600160a01b038416611bfc565b600061094982611c14565b600082820183811015610ec9576040805162461bcd60e51b815260206004820152601b60248201527f536166654d6174683a206164646974696f6e206f766572666c6f770000000000604482015290519081900360640190fd5b6000610ec983836040518060400160405280601e81526020017f536166654d6174683a207375627472616374696f6e206f766572666c6f770000815250611c18565b600082611b2457506000610949565b82820282848281611b3157fe5b0414610ec95760405162461bcd60e51b81526004018080602001828103825260218152602001806126ba6021913960400191505060405180910390fd5b6000610ec9836001600160a01b038416611caf565b6000610ec9836001600160a01b038416611cf9565b81546000908210611bda5760405162461bcd60e51b81526004018080602001828103825260228152602001806125f76022913960400191505060405180910390fd5b826000018281548110611be957fe5b9060005260206000200154905092915050565b60009081526001919091016020526040902054151590565b5490565b60008184841115611ca75760405162461bcd60e51b81526004018080602001828103825283818151815260200191508051906020019080838360005b83811015611c6c578181015183820152602001611c54565b50505050905090810190601f168015611c995780820380516001836020036101000a031916815260200191505b509250505060405180910390fd5b505050900390565b6000611cbb8383611bfc565b611cf157508154600181810184556000848152602080822090930184905584548482528286019093526040902091909155610949565b506000610949565b60008181526001830160205260408120548015611db55783546000198083019190810190600090879083908110611d2c57fe5b9060005260206000200154905080876000018481548110611d4957fe5b600091825260208083209091019290925582815260018981019092526040902090840190558654879080611d7957fe5b60019003818190600052602060002001600090559055866001016000878152602001908152602001600020600090556001945050505050610949565b6000915050610949565b828054600181600116156101000203166002900490600052602060002090601f016020900481019282611df55760008555611e3b565b82601f10611e0e57805160ff1916838001178555611e3b565b82800160010185558215611e3b579182015b82811115611e3b578251825591602001919060010190611e20565b50611e47929150611e69565b5090565b60405180604001604052806002906020820280368337509192915050565b5b80821115611e475760008155600101611e6a565b80356001600160a01b038116811461092a57600080fd5b600060208284031215611ea6578081fd5b610ec982611e7e565b60008060408385031215611ec1578081fd5b611eca83611e7e565b946020939093013593505050565b60008060008060808587031215611eed578182fd5b611ef685611e7e565b966020860135965060408601359560600135945092505050565b600060208284031215611f21578081fd5b81518015158114610ec9578182fd5b600060208284031215611f41578081fd5b5035919050565b60008060408385031215611f5a578182fd5b82359150611f6a60208401611e7e565b90509250929050565b60008060408385031215611f85578182fd5b50508035926020909101359150565b60006020808385031215611fa6578182fd5b823567ffffffffffffffff80821115611fbd578384fd5b818501915085601f830112611fd0578384fd5b813581811115611fdc57fe5b604051601f8201601f1916810185018381118282101715611ff957fe5b604052818152838201850188101561200f578586fd5b818585018683013790810190930193909352509392505050565b60006020828403121561203a578081fd5b5051919050565b600081518084526120598160208601602086016125c6565b601f01601f19169290920160200192915050565b6000825161207f8184602087016125c6565b9190910192915050565b60008083546001808216600081146120a857600181146120bf576120ee565b60ff198316865260028304607f16860193506120ee565b600283048786526020808720875b838110156120e65781548a8201529085019082016120cd565b505050860193505b509195945050505050565b6001600160a01b0391909116815260200190565b6001600160a01b03929092168252602082015260400190565b60008187825b60028110156121545781516001600160a01b031683526020928301929091019060010161212c565b50505085604083015284606083015283608083015260c060a083015261217d60c0830184612041565b979650505050505050565b6020808252825182820181905260009190848201906040850190845b818110156121c95783516001600160a01b0316835292840192918401916001016121a4565b50909695505050505050565b901515815260200190565b90815260200190565b600060208252610ec96020830184612041565b60208082526026908201527f5374616b65325661756c743a204974206973206e6f742061206d696e696e67206040820152651c195c9a5bd960d21b606082015260800190565b6020808252602b908201527f5374616b65325661756c743a2045786365656465642074686520736574206d6960408201526a1b9a5b99c8185b5bdd5b9d60aa1b606082015260800190565b6020808252602a908201527f5374616b65325661756c743a206d696e61626c6520616d6f756e74206973206e6040820152691bdd0818dbdc9c9958dd60b21b606082015260800190565b6020808252601f908201527f5374616b65325661756c743a206e6f7420656e6f7567682062616c616e636500604082015260600190565b6020808252601d908201527f5374616b65325661756c743a206368616e67654e616d65206661696c73000000604082015260600190565b6020808252601a908201527f5374616b65325661756c743a20544f53206275726e206661696c000000000000604082015260600190565b60208082526014908201527331b0b73737ba103932b1b2b4bb329022ba3432b960611b604082015260600190565b6020808252602a9082015260008051602061269a83398151915260408201526919d4195c94d958dbdb9960b21b606082015260800190565b6020808252601c908201527f5374616b65325661756c743a206368616e6765436170206661696c7300000000604082015260600190565b6020808252601a908201527f5374616b65325661756c743a206661696c207769746864726177000000000000604082015260600190565b6020808252602a9082015260008051602061269a83398151915260408201526967537461727454696d6560b01b606082015260800190565b602080825260289082015260008051602061269a83398151915260408201526767456e6454696d6560c01b606082015260800190565b60208082526022908201527f5374616b65325661756c743a207365745374616b6541646472657373206661696040820152616c7360f01b606082015260800190565b60208082526028908201527f5374616b65325661756c743a2073656e646572206973206e6f74207374616b6560408201526710dbdb9d1c9858dd60c21b606082015260800190565b6020808252601e908201527f5374616b65325661756c743a20544f53207472616e73666572206661696c0000604082015260600190565b60208082526017908201527614dd185ad94c95985d5b1d0e881a5b9cdd59999a595b9d604a1b604082015260600190565b9283526020830191909152604082015260600190565b60005b838110156125e15781810151838201526020016125c9565b838111156125f0576000848401525b5050505056fe456e756d657261626c655365743a20696e646578206f7574206f6620626f756e6473416363657373436f6e74726f6c3a2073656e646572206d75737420626520616e2061646d696e20746f206772616e7441636365737369626c653a2043616c6c6572206973206e6f7420616e2061646d696e416363657373436f6e74726f6c3a2073656e646572206d75737420626520616e2061646d696e20746f207265766f6b655374616b65325661756c743a207a65726f206f722073616d65205f6d696e696e536166654d6174683a206d756c7469706c69636174696f6e206f766572666c6f77df8b4c520ffe197c5343c6f5aec59570151ef9a492f2c624fd45ddde6135ec42416363657373436f6e74726f6c3a2063616e206f6e6c792072656e6f756e636520726f6c657320666f722073656c66a26469706673582212208375ce7f523830d28b5e6355f7d89b4ca00c642b3be6321e67ae1029864c688564736f6c63430007060033",
  "linkReferences": {},
  "deployedLinkReferences": {}
}