{
  "_format": "hh-sol-artifact-1",
  "contractName": "StakeVaultProxy",
  "sourceName": "contracts/stake/StakeVaultProxy.sol",
  "abi": [
    {
      "inputs": [
        {
          "internalType": "address",
          "name": "impl",
          "type": "address"
        }
      ],
      "stateMutability": "nonpayable",
      "type": "constructor"
    },
    {
      "anonymous": false,
      "inputs": [
        {
          "indexed": true,
          "internalType": "bytes32",
          "name": "role",
          "type": "bytes32"
        },
        {
          "indexed": true,
          "internalType": "bytes32",
          "name": "previousAdminRole",
          "type": "bytes32"
        },
        {
          "indexed": true,
          "internalType": "bytes32",
          "name": "newAdminRole",
          "type": "bytes32"
        }
      ],
      "name": "RoleAdminChanged",
      "type": "event"
    },
    {
      "anonymous": false,
      "inputs": [
        {
          "indexed": true,
          "internalType": "bytes32",
          "name": "role",
          "type": "bytes32"
        },
        {
          "indexed": true,
          "internalType": "address",
          "name": "account",
          "type": "address"
        },
        {
          "indexed": true,
          "internalType": "address",
          "name": "sender",
          "type": "address"
        }
      ],
      "name": "RoleGranted",
      "type": "event"
    },
    {
      "anonymous": false,
      "inputs": [
        {
          "indexed": true,
          "internalType": "bytes32",
          "name": "role",
          "type": "bytes32"
        },
        {
          "indexed": true,
          "internalType": "address",
          "name": "account",
          "type": "address"
        },
        {
          "indexed": true,
          "internalType": "address",
          "name": "sender",
          "type": "address"
        }
      ],
      "name": "RoleRevoked",
      "type": "event"
    },
    {
      "anonymous": false,
      "inputs": [
        {
          "indexed": true,
          "internalType": "address",
          "name": "implementation",
          "type": "address"
        }
      ],
      "name": "Upgraded",
      "type": "event"
    },
    {
      "stateMutability": "payable",
      "type": "fallback"
    },
    {
      "inputs": [],
      "name": "ADMIN_ROLE",
      "outputs": [
        {
          "internalType": "bytes32",
          "name": "",
          "type": "bytes32"
        }
      ],
      "stateMutability": "view",
      "type": "function"
    },
    {
      "inputs": [],
      "name": "BURNER_ROLE",
      "outputs": [
        {
          "internalType": "bytes32",
          "name": "",
          "type": "bytes32"
        }
      ],
      "stateMutability": "view",
      "type": "function"
    },
    {
      "inputs": [],
      "name": "DEFAULT_ADMIN_ROLE",
      "outputs": [
        {
          "internalType": "bytes32",
          "name": "",
          "type": "bytes32"
        }
      ],
      "stateMutability": "view",
      "type": "function"
    },
    {
      "inputs": [],
      "name": "MINTER_ROLE",
      "outputs": [
        {
          "internalType": "bytes32",
          "name": "",
          "type": "bytes32"
        }
      ],
      "stateMutability": "view",
      "type": "function"
    },
    {
      "inputs": [],
      "name": "PROJECT_ADMIN_ROLE",
      "outputs": [
        {
          "internalType": "bytes32",
          "name": "",
          "type": "bytes32"
        }
      ],
      "stateMutability": "view",
      "type": "function"
    },
    {
      "inputs": [
        {
          "internalType": "address",
          "name": "account",
          "type": "address"
        }
      ],
      "name": "addAdmin",
      "outputs": [],
      "stateMutability": "nonpayable",
      "type": "function"
    },
    {
      "inputs": [],
      "name": "blockTotalReward",
      "outputs": [
        {
          "internalType": "uint256",
          "name": "",
          "type": "uint256"
        }
      ],
      "stateMutability": "view",
      "type": "function"
    },
    {
      "inputs": [],
      "name": "cap",
      "outputs": [
        {
          "internalType": "uint256",
          "name": "",
          "type": "uint256"
        }
      ],
      "stateMutability": "view",
      "type": "function"
    },
    {
      "inputs": [],
      "name": "defiAddr",
      "outputs": [
        {
          "internalType": "address",
          "name": "",
          "type": "address"
        }
      ],
      "stateMutability": "view",
      "type": "function"
    },
    {
      "inputs": [
        {
          "internalType": "bytes32",
          "name": "role",
          "type": "bytes32"
        }
      ],
      "name": "getRoleAdmin",
      "outputs": [
        {
          "internalType": "bytes32",
          "name": "",
          "type": "bytes32"
        }
      ],
      "stateMutability": "view",
      "type": "function"
    },
    {
      "inputs": [
        {
          "internalType": "bytes32",
          "name": "role",
          "type": "bytes32"
        },
        {
          "internalType": "uint256",
          "name": "index",
          "type": "uint256"
        }
      ],
      "name": "getRoleMember",
      "outputs": [
        {
          "internalType": "address",
          "name": "",
          "type": "address"
        }
      ],
      "stateMutability": "view",
      "type": "function"
    },
    {
      "inputs": [
        {
          "internalType": "bytes32",
          "name": "role",
          "type": "bytes32"
        }
      ],
      "name": "getRoleMemberCount",
      "outputs": [
        {
          "internalType": "uint256",
          "name": "",
          "type": "uint256"
        }
      ],
      "stateMutability": "view",
      "type": "function"
    },
    {
      "inputs": [
        {
          "internalType": "bytes32",
          "name": "role",
          "type": "bytes32"
        },
        {
          "internalType": "address",
          "name": "account",
          "type": "address"
        }
      ],
      "name": "grantRole",
      "outputs": [],
      "stateMutability": "nonpayable",
      "type": "function"
    },
    {
      "inputs": [
        {
          "internalType": "bytes32",
          "name": "role",
          "type": "bytes32"
        },
        {
          "internalType": "address",
          "name": "account",
          "type": "address"
        }
      ],
      "name": "hasRole",
      "outputs": [
        {
          "internalType": "bool",
          "name": "",
          "type": "bool"
        }
      ],
      "stateMutability": "view",
      "type": "function"
    },
    {
      "inputs": [],
      "name": "implementation",
      "outputs": [
        {
          "internalType": "address",
          "name": "",
          "type": "address"
        }
      ],
      "stateMutability": "view",
      "type": "function"
    },
    {
      "inputs": [
        {
          "internalType": "address",
          "name": "_tos",
          "type": "address"
        },
        {
          "internalType": "address",
          "name": "_paytoken",
          "type": "address"
        },
        {
          "internalType": "uint256",
          "name": "_cap",
          "type": "uint256"
        },
        {
          "internalType": "uint256",
          "name": "_saleStartBlock",
          "type": "uint256"
        },
        {
          "internalType": "uint256",
          "name": "_stakeStartBlock",
          "type": "uint256"
        },
        {
          "internalType": "address",
          "name": "_stakefactory",
          "type": "address"
        },
        {
          "internalType": "uint256",
          "name": "_stakeType",
          "type": "uint256"
        },
        {
          "internalType": "address",
          "name": "_defiAddr",
          "type": "address"
        }
      ],
      "name": "initialize",
      "outputs": [],
      "stateMutability": "nonpayable",
      "type": "function"
    },
    {
      "inputs": [
        {
          "internalType": "address",
          "name": "account",
          "type": "address"
        }
      ],
      "name": "isAdmin",
      "outputs": [
        {
          "internalType": "bool",
          "name": "",
          "type": "bool"
        }
      ],
      "stateMutability": "view",
      "type": "function"
    },
    {
      "inputs": [],
      "name": "migratedL2",
      "outputs": [
        {
          "internalType": "bool",
          "name": "",
          "type": "bool"
        }
      ],
      "stateMutability": "view",
      "type": "function"
    },
    {
      "inputs": [
        {
          "internalType": "uint256",
          "name": "",
          "type": "uint256"
        }
      ],
      "name": "orderedEndBlocks",
      "outputs": [
        {
          "internalType": "uint256",
          "name": "",
          "type": "uint256"
        }
      ],
      "stateMutability": "view",
      "type": "function"
    },
    {
      "inputs": [],
      "name": "pauseProxy",
      "outputs": [
        {
          "internalType": "bool",
          "name": "",
          "type": "bool"
        }
      ],
      "stateMutability": "view",
      "type": "function"
    },
    {
      "inputs": [],
      "name": "paytoken",
      "outputs": [
        {
          "internalType": "address",
          "name": "",
          "type": "address"
        }
      ],
      "stateMutability": "view",
      "type": "function"
    },
    {
      "inputs": [],
      "name": "realEndBlock",
      "outputs": [
        {
          "internalType": "uint256",
          "name": "",
          "type": "uint256"
        }
      ],
      "stateMutability": "view",
      "type": "function"
    },
    {
      "inputs": [
        {
          "internalType": "address",
          "name": "account",
          "type": "address"
        }
      ],
      "name": "removeAdmin",
      "outputs": [],
      "stateMutability": "nonpayable",
      "type": "function"
    },
    {
      "inputs": [
        {
          "internalType": "bytes32",
          "name": "role",
          "type": "bytes32"
        },
        {
          "internalType": "address",
          "name": "account",
          "type": "address"
        }
      ],
      "name": "renounceRole",
      "outputs": [],
      "stateMutability": "nonpayable",
      "type": "function"
    },
    {
      "inputs": [
        {
          "internalType": "bytes32",
          "name": "role",
          "type": "bytes32"
        },
        {
          "internalType": "address",
          "name": "account",
          "type": "address"
        }
      ],
      "name": "revokeRole",
      "outputs": [],
      "stateMutability": "nonpayable",
      "type": "function"
    },
    {
      "inputs": [],
      "name": "saleClosed",
      "outputs": [
        {
          "internalType": "bool",
          "name": "",
          "type": "bool"
        }
      ],
      "stateMutability": "view",
      "type": "function"
    },
    {
      "inputs": [],
      "name": "saleStartBlock",
      "outputs": [
        {
          "internalType": "uint256",
          "name": "",
          "type": "uint256"
        }
      ],
      "stateMutability": "view",
      "type": "function"
    },
    {
      "inputs": [
        {
          "internalType": "bool",
          "name": "_pause",
          "type": "bool"
        }
      ],
      "name": "setProxyPause",
      "outputs": [],
      "stateMutability": "nonpayable",
      "type": "function"
    },
    {
      "inputs": [
        {
          "internalType": "uint256",
          "name": "",
          "type": "uint256"
        }
      ],
      "name": "stakeAddresses",
      "outputs": [
        {
          "internalType": "address",
          "name": "",
          "type": "address"
        }
      ],
      "stateMutability": "view",
      "type": "function"
    },
    {
      "inputs": [],
      "name": "stakeEndBlock",
      "outputs": [
        {
          "internalType": "uint256",
          "name": "",
          "type": "uint256"
        }
      ],
      "stateMutability": "view",
      "type": "function"
    },
    {
      "inputs": [
        {
          "internalType": "uint256",
          "name": "",
          "type": "uint256"
        }
      ],
      "name": "stakeEndBlockTotal",
      "outputs": [
        {
          "internalType": "uint256",
          "name": "",
          "type": "uint256"
        }
      ],
      "stateMutability": "view",
      "type": "function"
    },
    {
      "inputs": [
        {
          "internalType": "address",
          "name": "",
          "type": "address"
        }
      ],
      "name": "stakeInfos",
      "outputs": [
        {
          "internalType": "string",
          "name": "name",
          "type": "string"
        },
        {
          "internalType": "uint256",
          "name": "startBlock",
          "type": "uint256"
        },
        {
          "internalType": "uint256",
          "name": "endBlock",
          "type": "uint256"
        },
        {
          "internalType": "uint256",
          "name": "balance",
          "type": "uint256"
        },
        {
          "internalType": "uint256",
          "name": "totalRewardAmount",
          "type": "uint256"
        },
        {
          "internalType": "uint256",
          "name": "claimRewardAmount",
          "type": "uint256"
        }
      ],
      "stateMutability": "view",
      "type": "function"
    },
    {
      "inputs": [],
      "name": "stakeStartBlock",
      "outputs": [
        {
          "internalType": "uint256",
          "name": "",
          "type": "uint256"
        }
      ],
      "stateMutability": "view",
      "type": "function"
    },
    {
      "inputs": [],
      "name": "stakeType",
      "outputs": [
        {
          "internalType": "uint256",
          "name": "",
          "type": "uint256"
        }
      ],
      "stateMutability": "view",
      "type": "function"
    },
    {
      "inputs": [],
      "name": "tos",
      "outputs": [
        {
          "internalType": "address",
          "name": "",
          "type": "address"
        }
      ],
      "stateMutability": "view",
      "type": "function"
    },
    {
      "inputs": [
        {
          "internalType": "address",
          "name": "newAdmin",
          "type": "address"
        }
      ],
      "name": "transferAdmin",
      "outputs": [],
      "stateMutability": "nonpayable",
      "type": "function"
    },
    {
      "inputs": [
        {
          "internalType": "address",
          "name": "impl",
          "type": "address"
        }
      ],
      "name": "upgradeTo",
      "outputs": [],
      "stateMutability": "nonpayable",
      "type": "function"
    },
    {
      "stateMutability": "payable",
      "type": "receive"
    }
  ],
  "bytecode": "0x60806040523480156200001157600080fd5b5060405162001aaf38038062001aaf833981810160405260208110156200003757600080fd5b50516001600160a01b03811662000095576040805162461bcd60e51b815260206004820152601a60248201527f5374616b653150726f78793a206c6f676963206973207a65726f000000000000604482015290519081900360640190fd5b620000a081620000f8565b620000bb60008051602062001a49833981519152806200016f565b620000d660008051602062001a4983398151915233620001c1565b620000f160008051602062001a4983398151915230620001c1565b50620002db565b6200010e81620001d160201b6200122c1760201c565b6200014b5760405162461bcd60e51b815260040180806020018281038252604681526020018062001a696046913960600191505060405180910390fd5b7f360894a13ba1a3210667c828492db98dca3e2076cc3735a920a3ca505d382bbc55565b600082815260208190526040808220600201549051839285917fbd79b86ffe0ab8e8776151514217cd7cacd52c909f66475c3af44e129f0b00ff9190a460009182526020829052604090912060020155565b620001cd8282620001d7565b5050565b3b151590565b600082815260208181526040909120620001fc9183906200123262000250821b17901c565b15620001cd576200020c62000270565b6001600160a01b0316816001600160a01b0316837f2f8788117e7eff1d82e926ec794901d17c78024a50270940304540a733656f0d60405160405180910390a45050565b600062000267836001600160a01b03841662000274565b90505b92915050565b3390565b6000620002828383620002c3565b620002ba575081546001818101845560008481526020808220909301849055845484825282860190935260409020919091556200026a565b5060006200026a565b60009081526001919091016020526040902054151590565b61175e80620002eb6000396000f3fe6080604052600436106101ee5760003560e01c80637048027511610113578063a217fddf116100ab578063d105bf851161006f578063d105bf85146106c0578063d5391393146106d5578063d547741f146106ea578063dc999b9414610723578063dfbf9def1461078757610237565b8063a217fddf14610642578063b03dc51414610657578063b8c766b81461066c578063b97af0db14610681578063ca15c8731461069657610237565b806370480275146104f357806375829def1461052657806375b238fc146105595780637cb00d251461056e57806389f395de1461059a5780639010d07c146105af57806391d14854146105df5780639d84ca3514610618578063a1f5f50e1461062d57610237565b806336568abe1161018657806336568abe146103df5780633659cfe6146104185780633a76eb371461044b57806341c04d5e1461046057806343b0934a146104755780634b5e7cd51461048a5780635c60da1b1461049f5780635f1bd62a146104b457806363a8fd89146104de57610237565b8063153099d0146102415780631785f53c1461027d57806320027275146102b0578063248a9ca3146102c557806324d7806c146102ef578063282c51f314610336578063294f5fa31461034b5780632f2ff15d14610391578063355274ea146103ca57610237565b36610237576040805162461bcd60e51b815260206004820152601460248201527331b0b73737ba103932b1b2b4bb329022ba3432b960611b604482015290519081900360640190fd5b61023f610855565b005b34801561024d57600080fd5b5061026b6004803603602081101561026457600080fd5b50356108db565b60408051918252519081900360200190f35b34801561028957600080fd5b5061023f600480360360208110156102a057600080fd5b50356001600160a01b03166108fc565b3480156102bc57600080fd5b5061026b61095b565b3480156102d157600080fd5b5061026b600480360360208110156102e857600080fd5b5035610961565b3480156102fb57600080fd5b506103226004803603602081101561031257600080fd5b50356001600160a01b0316610976565b604080519115158252519081900360200190f35b34801561034257600080fd5b5061026b610996565b34801561035757600080fd5b506103756004803603602081101561036e57600080fd5b50356109ba565b604080516001600160a01b039092168252519081900360200190f35b34801561039d57600080fd5b5061023f600480360360408110156103b457600080fd5b50803590602001356001600160a01b03166109e4565b3480156103d657600080fd5b5061026b610a50565b3480156103eb57600080fd5b5061023f6004803603604081101561040257600080fd5b50803590602001356001600160a01b0316610a56565b34801561042457600080fd5b5061023f6004803603602081101561043b57600080fd5b50356001600160a01b0316610ab7565b34801561045757600080fd5b5061026b610bfc565b34801561046c57600080fd5b5061026b610c02565b34801561048157600080fd5b50610375610c26565b34801561049657600080fd5b5061026b610c35565b3480156104ab57600080fd5b50610375610c3b565b3480156104c057600080fd5b5061026b600480360360208110156104d757600080fd5b5035610c4a565b3480156104ea57600080fd5b50610322610c5c565b3480156104ff57600080fd5b5061023f6004803603602081101561051657600080fd5b50356001600160a01b0316610c65565b34801561053257600080fd5b5061023f6004803603602081101561054957600080fd5b50356001600160a01b0316610cc1565b34801561056557600080fd5b5061026b610de2565b34801561057a57600080fd5b5061023f6004803603602081101561059157600080fd5b50351515610df4565b3480156105a657600080fd5b50610375610e4b565b3480156105bb57600080fd5b50610375600480360360408110156105d257600080fd5b5080359060200135610e5a565b3480156105eb57600080fd5b506103226004803603604081101561060257600080fd5b50803590602001356001600160a01b0316610e79565b34801561062457600080fd5b50610375610e91565b34801561063957600080fd5b50610322610ea0565b34801561064e57600080fd5b5061026b610eae565b34801561066357600080fd5b5061026b610eb3565b34801561067857600080fd5b50610322610eb9565b34801561068d57600080fd5b5061026b610ec2565b3480156106a257600080fd5b5061026b600480360360208110156106b957600080fd5b5035610ec8565b3480156106cc57600080fd5b5061026b610edf565b3480156106e157600080fd5b5061026b610ee5565b3480156106f657600080fd5b5061023f6004803603604081101561070d57600080fd5b50803590602001356001600160a01b0316610f09565b34801561072f57600080fd5b5061023f600480360361010081101561074757600080fd5b506001600160a01b038135811691602081013582169160408201359160608101359160808201359160a081013582169160c08201359160e0013516610f62565b34801561079357600080fd5b506107ba600480360360208110156107aa57600080fd5b50356001600160a01b031661116d565b6040518080602001878152602001868152602001858152602001848152602001838152602001828103825288818151815260200191508051906020019080838360005b838110156108155781810151838201526020016107fd565b50505050905090810190601f1680156108425780820380516001836020036101000a031916815260200191505b5097505050505050505060405180910390f35b600061085f611247565b90506001600160a01b0381161580159061087c575060115460ff16155b6108b75760405162461bcd60e51b81526004018080602001828103825260278152602001806116696027913960400191505060405180910390fd5b3660008037600080366000845af43d6000803e8080156108d6573d6000f35b3d6000fd5b600e81815481106108eb57600080fd5b600091825260209091200154905081565b61090533610976565b6109405760405162461bcd60e51b81526004018080602001828103825260228152602001806115cd6022913960400191505060405180910390fd5b61095860008051602061164983398151915282610a56565b50565b60045481565b60009081526020819052604090206002015490565b600061099060008051602061164983398151915283610e79565b92915050565b7f9667e80708b6eeeb0053fa0cca44e028ff548e2a9f029edfeac87c118b08b7c881565b600c81815481106109ca57600080fd5b6000918252602090912001546001600160a01b0316905081565b600082815260208190526040902060020154610a0790610a0261126c565b610e79565b610a425760405162461bcd60e51b815260040180806020018281038252602f81526020018061159e602f913960400191505060405180910390fd5b610a4c8282611270565b5050565b60035481565b610a5e61126c565b6001600160a01b0316816001600160a01b031614610aad5760405162461bcd60e51b815260040180806020018281038252602f8152602001806116fa602f913960400191505060405180910390fd5b610a4c82826112d9565b610ac033610976565b610afb5760405162461bcd60e51b81526004018080602001828103825260228152602001806115cd6022913960400191505060405180910390fd5b6001600160a01b038116610b56576040805162461bcd60e51b815260206004820152601e60248201527f5374616b655661756c7450726f78793a20696e707574206973207a65726f0000604482015290519081900360640190fd5b806001600160a01b0316610b68611247565b6001600160a01b03161415610bbc576040805162461bcd60e51b81526020600482015260156024820152745374616b655661756c7450726f78793a2073616d6560581b604482015290519081900360640190fd5b610bc581611342565b6040516001600160a01b038216907fbc7cd75a20ee27fd9adebab32041f755214dbc6bffa90cc0225b39da2e5c2d3b90600090a250565b60065481565b7f52eafc11f6f81f86878bffd31109a0d92f37506527754f00788853ff9f63b13081565b6002546001600160a01b031681565b60055481565b6000610c45611247565b905090565b600f6020526000908152604090205481565b60115460ff1681565b610c6e33610976565b610ca95760405162461bcd60e51b81526004018080602001828103825260228152602001806115cd6022913960400191505060405180910390fd5b610958600080516020611649833981519152826109e4565b610cca33610976565b610d055760405162461bcd60e51b81526004018080602001828103825260228152602001806115cd6022913960400191505060405180910390fd5b6001600160a01b038116610d5b576040805162461bcd60e51b815260206004820152601860248201527741636365737369626c653a207a65726f206164647265737360401b604482015290519081900360640190fd5b336001600160a01b0382161415610db2576040805162461bcd60e51b815260206004820152601660248201527520b1b1b2b9b9b4b136329d1039b0b6b29030b236b4b760511b604482015290519081900360640190fd5b610dca600080516020611649833981519152826109e4565b61095860008051602061164983398151915233610a56565b60008051602061164983398151915281565b610dfd33610976565b610e385760405162461bcd60e51b81526004018080602001828103825260228152602001806115cd6022913960400191505060405180910390fd5b6011805460ff1916911515919091179055565b6001546001600160a01b031681565b6000828152602081905260408120610e7290836113aa565b9392505050565b6000828152602081905260408120610e7290836113b6565b600b546001600160a01b031681565b601154610100900460ff1681565b600081565b60075481565b60095460ff1681565b600a5481565b6000818152602081905260408120610990906113cb565b60085481565b7ff0887ba65ee2024ea881d91b74c2450ef19e1557f03bed3ea9f16b037cbe2dc981565b600082815260208190526040902060020154610f2790610a0261126c565b610aad5760405162461bcd60e51b81526004018080602001828103825260308152602001806116196030913960400191505060405180910390fd5b610f6b33610976565b610fa65760405162461bcd60e51b81526004018080602001828103825260228152602001806115cd6022913960400191505060405180910390fd5b6001546001600160a01b031615610fee5760405162461bcd60e51b81526004018080602001828103825260248152602001806116d66024913960400191505060405180910390fd5b6001600160a01b0388161580159061100e57506001600160a01b03831615155b61105f576040805162461bcd60e51b815260206004820152601e60248201527f5374616b655661756c7450726f78793a20696e707574206973207a65726f0000604482015290519081900360640190fd5b600086116110b0576040805162461bcd60e51b81526020600482015260196024820152785374616b65315661756c743a205f636170206973207a65726f60381b604482015290519081900360640190fd5b83851080156110bf5750600084115b6110fa5760405162461bcd60e51b815260040180806020018281038252602a8152602001806115ef602a913960400191505060405180910390fd5b600180546001600160a01b03808b166001600160a01b0319928316179092556003889055600280548a841690831617905560048790556005869055600a849055600b805492841692909116919091179055611163600080516020611649833981519152846109e4565b5050505050505050565b600d6020908152600091825260409182902080548351601f600260001961010060018616150201909316929092049182018490048402810184019094528084529092918391908301828280156112045780601f106111d957610100808354040283529160200191611204565b820191906000526020600020905b8154815290600101906020018083116111e757829003601f168201915b5050505050908060010154908060020154908060030154908060040154908060050154905086565b3b151590565b6000610e72836001600160a01b0384166113d6565b7f360894a13ba1a3210667c828492db98dca3e2076cc3735a920a3ca505d382bbc5490565b3390565b60008281526020819052604090206112889082611232565b15610a4c5761129561126c565b6001600160a01b0316816001600160a01b0316837f2f8788117e7eff1d82e926ec794901d17c78024a50270940304540a733656f0d60405160405180910390a45050565b60008281526020819052604090206112f19082611420565b15610a4c576112fe61126c565b6001600160a01b0316816001600160a01b0316837ff6391f5c32d9c69d2a47ea670b442974b53935d1edc7fd64eb21e047a839171b60405160405180910390a45050565b61134b8161122c565b6113865760405162461bcd60e51b81526004018080602001828103825260468152602001806116906046913960600191505060405180910390fd5b7f360894a13ba1a3210667c828492db98dca3e2076cc3735a920a3ca505d382bbc55565b6000610e728383611435565b6000610e72836001600160a01b038416611499565b6000610990826114b1565b60006113e28383611499565b61141857508154600181810184556000848152602080822090930184905584548482528286019093526040902091909155610990565b506000610990565b6000610e72836001600160a01b0384166114b5565b815460009082106114775760405162461bcd60e51b815260040180806020018281038252602281526020018061157c6022913960400191505060405180910390fd5b82600001828154811061148657fe5b9060005260206000200154905092915050565b60009081526001919091016020526040902054151590565b5490565b6000818152600183016020526040812054801561157157835460001980830191908101906000908790839081106114e857fe5b906000526020600020015490508087600001848154811061150557fe5b60009182526020808320909101929092558281526001898101909252604090209084019055865487908061153557fe5b60019003818190600052602060002001600090559055866001016000878152602001908152602001600020600090556001945050505050610990565b600091505061099056fe456e756d657261626c655365743a20696e646578206f7574206f6620626f756e6473416363657373436f6e74726f6c3a2073656e646572206d75737420626520616e2061646d696e20746f206772616e7441636365737369626c653a2043616c6c6572206973206e6f7420616e2061646d696e5374616b655661756c7450726f78793a207374617274426c6f636b20697320756e617661696c61626c65416363657373436f6e74726f6c3a2073656e646572206d75737420626520616e2061646d696e20746f207265766f6b65df8b4c520ffe197c5343c6f5aec59570151ef9a492f2c624fd45ddde6135ec425374616b655661756c7450726f78793a20696d706c204f522070726f78792069732066616c736550726f7879426173653a2043616e6e6f742073657420612070726f787920696d706c656d656e746174696f6e20746f2061206e6f6e2d636f6e747261637420616464726573735374616b655661756c7450726f78793a20616c726561647920696e697469616c697a6564416363657373436f6e74726f6c3a2063616e206f6e6c792072656e6f756e636520726f6c657320666f722073656c66a2646970667358221220f1927b322fec5739bb81d6a4a40a759d5c8ae5ff469846b24538c174e3b3692964736f6c63430007060033df8b4c520ffe197c5343c6f5aec59570151ef9a492f2c624fd45ddde6135ec4250726f7879426173653a2043616e6e6f742073657420612070726f787920696d706c656d656e746174696f6e20746f2061206e6f6e2d636f6e74726163742061646472657373",
  "linkReferences": {},
  "deployedLinkReferences": {}
}