{
  "_format": "hh-sol-artifact-1",
  "contractName": "StakeTONUpgrade",
  "sourceName": "contracts/stake/StakeTONUpgrade.sol",
  "abi": [
    {
      "inputs": [],
      "stateMutability": "nonpayable",
      "type": "constructor"
    },
    {
      "anonymous": false,
      "inputs": [
        {
          "indexed": true,
          "internalType": "address",
          "name": "to",
          "type": "address"
        },
        {
          "indexed": false,
          "internalType": "uint256",
          "name": "amount",
          "type": "uint256"
        },
        {
          "indexed": false,
          "internalType": "uint256",
          "name": "claimBlock",
          "type": "uint256"
        }
      ],
      "name": "Claimed",
      "type": "event"
    },
    {
      "anonymous": false,
      "inputs": [
        {
          "indexed": false,
          "internalType": "address",
          "name": "caller",
          "type": "address"
        },
        {
          "indexed": false,
          "internalType": "uint256",
          "name": "amountIn",
          "type": "uint256"
        },
        {
          "indexed": false,
          "internalType": "uint256",
          "name": "amountOut",
          "type": "uint256"
        }
      ],
      "name": "ExchangedWTONtoTOS",
      "type": "event"
    },
    {
      "anonymous": false,
      "inputs": [
        {
          "indexed": true,
          "internalType": "bytes32",
          "name": "role",
          "type": "bytes32"
        },
        {
          "indexed": true,
          "internalType": "bytes32",
          "name": "previousAdminRole",
          "type": "bytes32"
        },
        {
          "indexed": true,
          "internalType": "bytes32",
          "name": "newAdminRole",
          "type": "bytes32"
        }
      ],
      "name": "RoleAdminChanged",
      "type": "event"
    },
    {
      "anonymous": false,
      "inputs": [
        {
          "indexed": true,
          "internalType": "bytes32",
          "name": "role",
          "type": "bytes32"
        },
        {
          "indexed": true,
          "internalType": "address",
          "name": "account",
          "type": "address"
        },
        {
          "indexed": true,
          "internalType": "address",
          "name": "sender",
          "type": "address"
        }
      ],
      "name": "RoleGranted",
      "type": "event"
    },
    {
      "anonymous": false,
      "inputs": [
        {
          "indexed": true,
          "internalType": "bytes32",
          "name": "role",
          "type": "bytes32"
        },
        {
          "indexed": true,
          "internalType": "address",
          "name": "account",
          "type": "address"
        },
        {
          "indexed": true,
          "internalType": "address",
          "name": "sender",
          "type": "address"
        }
      ],
      "name": "RoleRevoked",
      "type": "event"
    },
    {
      "anonymous": false,
      "inputs": [
        {
          "indexed": false,
          "internalType": "address",
          "name": "registry",
          "type": "address"
        }
      ],
      "name": "SetRegistry",
      "type": "event"
    },
    {
      "anonymous": false,
      "inputs": [
        {
          "indexed": false,
          "internalType": "address",
          "name": "layer2",
          "type": "address"
        }
      ],
      "name": "SetTokamakLayer2",
      "type": "event"
    },
    {
      "anonymous": false,
      "inputs": [
        {
          "indexed": true,
          "internalType": "address",
          "name": "to",
          "type": "address"
        },
        {
          "indexed": false,
          "internalType": "uint256",
          "name": "amount",
          "type": "uint256"
        }
      ],
      "name": "Staked",
      "type": "event"
    },
    {
      "anonymous": false,
      "inputs": [
        {
          "indexed": false,
          "internalType": "address",
          "name": "layer2",
          "type": "address"
        },
        {
          "indexed": false,
          "internalType": "uint256",
          "name": "rn",
          "type": "uint256"
        },
        {
          "indexed": false,
          "internalType": "bool",
          "name": "receiveTON",
          "type": "bool"
        }
      ],
      "name": "TokamakProcessedUnStaking",
      "type": "event"
    },
    {
      "anonymous": false,
      "inputs": [
        {
          "indexed": false,
          "internalType": "address",
          "name": "layer2",
          "type": "address"
        },
        {
          "indexed": false,
          "internalType": "uint256",
          "name": "amount",
          "type": "uint256"
        }
      ],
      "name": "TokamakRequestedUnStaking",
      "type": "event"
    },
    {
      "anonymous": false,
      "inputs": [
        {
          "indexed": false,
          "internalType": "address",
          "name": "layer2",
          "type": "address"
        }
      ],
      "name": "TokamakRequestedUnStakingAll",
      "type": "event"
    },
    {
      "anonymous": false,
      "inputs": [
        {
          "indexed": false,
          "internalType": "address",
          "name": "layer2",
          "type": "address"
        },
        {
          "indexed": false,
          "internalType": "uint256",
          "name": "amount",
          "type": "uint256"
        }
      ],
      "name": "TokamakStaked",
      "type": "event"
    },
    {
      "anonymous": false,
      "inputs": [
        {
          "indexed": true,
          "internalType": "address",
          "name": "to",
          "type": "address"
        },
        {
          "indexed": false,
          "internalType": "uint256",
          "name": "tonAmount",
          "type": "uint256"
        },
        {
          "indexed": false,
          "internalType": "uint256",
          "name": "tosAmount",
          "type": "uint256"
        }
      ],
      "name": "Withdrawal",
      "type": "event"
    },
    {
      "inputs": [],
      "name": "ADMIN_ROLE",
      "outputs": [
        {
          "internalType": "bytes32",
          "name": "",
          "type": "bytes32"
        }
      ],
      "stateMutability": "view",
      "type": "function"
    },
    {
      "inputs": [],
      "name": "BURNER_ROLE",
      "outputs": [
        {
          "internalType": "bytes32",
          "name": "",
          "type": "bytes32"
        }
      ],
      "stateMutability": "view",
      "type": "function"
    },
    {
      "inputs": [],
      "name": "DEFAULT_ADMIN_ROLE",
      "outputs": [
        {
          "internalType": "bytes32",
          "name": "",
          "type": "bytes32"
        }
      ],
      "stateMutability": "view",
      "type": "function"
    },
    {
      "inputs": [],
      "name": "MINTER_ROLE",
      "outputs": [
        {
          "internalType": "bytes32",
          "name": "",
          "type": "bytes32"
        }
      ],
      "stateMutability": "view",
      "type": "function"
    },
    {
      "inputs": [],
      "name": "PROJECT_ADMIN_ROLE",
      "outputs": [
        {
          "internalType": "bytes32",
          "name": "",
          "type": "bytes32"
        }
      ],
      "stateMutability": "view",
      "type": "function"
    },
    {
      "inputs": [
        {
          "internalType": "address",
          "name": "account",
          "type": "address"
        }
      ],
      "name": "addAdmin",
      "outputs": [],
      "stateMutability": "nonpayable",
      "type": "function"
    },
    {
      "inputs": [
        {
          "internalType": "address",
          "name": "account",
          "type": "address"
        },
        {
          "internalType": "uint256",
          "name": "specificBlock",
          "type": "uint256"
        }
      ],
      "name": "canRewardAmount",
      "outputs": [
        {
          "internalType": "uint256",
          "name": "",
          "type": "uint256"
        }
      ],
      "stateMutability": "view",
      "type": "function"
    },
    {
      "inputs": [
        {
          "internalType": "address",
          "name": "_layer2",
          "type": "address"
        }
      ],
      "name": "canTokamakRequestUnStaking",
      "outputs": [
        {
          "internalType": "uint256",
          "name": "canUnStakingAmount",
          "type": "uint256"
        }
      ],
      "stateMutability": "view",
      "type": "function"
    },
    {
      "inputs": [
        {
          "internalType": "address",
          "name": "_layer2",
          "type": "address"
        }
      ],
      "name": "canTokamakRequestUnStakingAll",
      "outputs": [
        {
          "internalType": "bool",
          "name": "can",
          "type": "bool"
        }
      ],
      "stateMutability": "view",
      "type": "function"
    },
    {
      "inputs": [
        {
          "internalType": "address",
          "name": "_layer2",
          "type": "address"
        }
      ],
      "name": "canTokamakRequestUnStakingAllBlock",
      "outputs": [
        {
          "internalType": "uint256",
          "name": "_block",
          "type": "uint256"
        }
      ],
      "stateMutability": "view",
      "type": "function"
    },
    {
      "inputs": [],
      "name": "checkTokamak",
      "outputs": [],
      "stateMutability": "nonpayable",
      "type": "function"
    },
    {
      "inputs": [],
      "name": "claim",
      "outputs": [],
      "stateMutability": "nonpayable",
      "type": "function"
    },
    {
      "inputs": [],
      "name": "defiAddr",
      "outputs": [
        {
          "internalType": "address",
          "name": "",
          "type": "address"
        }
      ],
      "stateMutability": "view",
      "type": "function"
    },
    {
      "inputs": [],
      "name": "defiStatus",
      "outputs": [
        {
          "internalType": "uint256",
          "name": "",
          "type": "uint256"
        }
      ],
      "stateMutability": "view",
      "type": "function"
    },
    {
      "inputs": [],
      "name": "depositManager",
      "outputs": [
        {
          "internalType": "address",
          "name": "",
          "type": "address"
        }
      ],
      "stateMutability": "view",
      "type": "function"
    },
    {
      "inputs": [],
      "name": "endBlock",
      "outputs": [
        {
          "internalType": "uint256",
          "name": "",
          "type": "uint256"
        }
      ],
      "stateMutability": "view",
      "type": "function"
    },
    {
      "inputs": [
        {
          "internalType": "uint256",
          "name": "_amountIn",
          "type": "uint256"
        },
        {
          "internalType": "uint256",
          "name": "_amountOutMinimum",
          "type": "uint256"
        },
        {
          "internalType": "uint256",
          "name": "_deadline",
          "type": "uint256"
        },
        {
          "internalType": "uint160",
          "name": "_sqrtPriceLimitX96",
          "type": "uint160"
        },
        {
          "internalType": "uint256",
          "name": "_kind",
          "type": "uint256"
        }
      ],
      "name": "exchangeWTONtoTOS",
      "outputs": [
        {
          "internalType": "uint256",
          "name": "amountOut",
          "type": "uint256"
        }
      ],
      "stateMutability": "nonpayable",
      "type": "function"
    },
    {
      "inputs": [],
      "name": "finalBalanceTON",
      "outputs": [
        {
          "internalType": "uint256",
          "name": "",
          "type": "uint256"
        }
      ],
      "stateMutability": "view",
      "type": "function"
    },
    {
      "inputs": [],
      "name": "finalBalanceWTON",
      "outputs": [
        {
          "internalType": "uint256",
          "name": "",
          "type": "uint256"
        }
      ],
      "stateMutability": "view",
      "type": "function"
    },
    {
      "inputs": [],
      "name": "fromTokamak",
      "outputs": [
        {
          "internalType": "uint256",
          "name": "",
          "type": "uint256"
        }
      ],
      "stateMutability": "view",
      "type": "function"
    },
    {
      "inputs": [
        {
          "internalType": "bytes32",
          "name": "role",
          "type": "bytes32"
        }
      ],
      "name": "getRoleAdmin",
      "outputs": [
        {
          "internalType": "bytes32",
          "name": "",
          "type": "bytes32"
        }
      ],
      "stateMutability": "view",
      "type": "function"
    },
    {
      "inputs": [
        {
          "internalType": "bytes32",
          "name": "role",
          "type": "bytes32"
        },
        {
          "internalType": "uint256",
          "name": "index",
          "type": "uint256"
        }
      ],
      "name": "getRoleMember",
      "outputs": [
        {
          "internalType": "address",
          "name": "",
          "type": "address"
        }
      ],
      "stateMutability": "view",
      "type": "function"
    },
    {
      "inputs": [
        {
          "internalType": "bytes32",
          "name": "role",
          "type": "bytes32"
        }
      ],
      "name": "getRoleMemberCount",
      "outputs": [
        {
          "internalType": "uint256",
          "name": "",
          "type": "uint256"
        }
      ],
      "stateMutability": "view",
      "type": "function"
    },
    {
      "inputs": [],
      "name": "getUniswapInfo",
      "outputs": [
        {
          "internalType": "address",
          "name": "uniswapRouter",
          "type": "address"
        },
        {
          "internalType": "address",
          "name": "npm",
          "type": "address"
        },
        {
          "internalType": "address",
          "name": "ext",
          "type": "address"
        },
        {
          "internalType": "uint256",
          "name": "fee",
          "type": "uint256"
        },
        {
          "internalType": "address",
          "name": "uniswapRouterV2",
          "type": "address"
        }
      ],
      "stateMutability": "view",
      "type": "function"
    },
    {
      "inputs": [
        {
          "internalType": "address",
          "name": "user",
          "type": "address"
        }
      ],
      "name": "getUserStaked",
      "outputs": [
        {
          "internalType": "uint256",
          "name": "amount",
          "type": "uint256"
        },
        {
          "internalType": "uint256",
          "name": "claimedBlock",
          "type": "uint256"
        },
        {
          "internalType": "uint256",
          "name": "claimedAmount",
          "type": "uint256"
        },
        {
          "internalType": "uint256",
          "name": "releasedBlock",
          "type": "uint256"
        },
        {
          "internalType": "uint256",
          "name": "releasedAmount",
          "type": "uint256"
        },
        {
          "internalType": "uint256",
          "name": "releasedTOSAmount",
          "type": "uint256"
        },
        {
          "internalType": "bool",
          "name": "released",
          "type": "bool"
        }
      ],
      "stateMutability": "view",
      "type": "function"
    },
    {
      "inputs": [
        {
          "internalType": "bytes32",
          "name": "role",
          "type": "bytes32"
        },
        {
          "internalType": "address",
          "name": "account",
          "type": "address"
        }
      ],
      "name": "grantRole",
      "outputs": [],
      "stateMutability": "nonpayable",
      "type": "function"
    },
    {
      "inputs": [
        {
          "internalType": "bytes32",
          "name": "role",
          "type": "bytes32"
        },
        {
          "internalType": "address",
          "name": "account",
          "type": "address"
        }
      ],
      "name": "hasRole",
      "outputs": [
        {
          "internalType": "bool",
          "name": "",
          "type": "bool"
        }
      ],
      "stateMutability": "view",
      "type": "function"
    },
    {
      "inputs": [],
      "name": "infos",
      "outputs": [
        {
          "internalType": "address",
          "name": "",
          "type": "address"
        },
        {
          "internalType": "address",
          "name": "",
          "type": "address"
        },
        {
          "internalType": "uint256[3]",
          "name": "",
          "type": "uint256[3]"
        },
        {
          "internalType": "uint256",
          "name": "",
          "type": "uint256"
        },
        {
          "internalType": "uint256",
          "name": "",
          "type": "uint256"
        },
        {
          "internalType": "uint256",
          "name": "",
          "type": "uint256"
        }
      ],
      "stateMutability": "view",
      "type": "function"
    },
    {
      "inputs": [
        {
          "internalType": "address",
          "name": "account",
          "type": "address"
        }
      ],
      "name": "isAdmin",
      "outputs": [
        {
          "internalType": "bool",
          "name": "",
          "type": "bool"
        }
      ],
      "stateMutability": "view",
      "type": "function"
    },
    {
      "inputs": [],
      "name": "migratedL2",
      "outputs": [
        {
          "internalType": "bool",
          "name": "",
          "type": "bool"
        }
      ],
      "stateMutability": "view",
      "type": "function"
    },
    {
      "inputs": [],
      "name": "pauseProxy",
      "outputs": [
        {
          "internalType": "bool",
          "name": "",
          "type": "bool"
        }
      ],
      "stateMutability": "view",
      "type": "function"
    },
    {
      "inputs": [],
      "name": "paytoken",
      "outputs": [
        {
          "internalType": "address",
          "name": "",
          "type": "address"
        }
      ],
      "stateMutability": "view",
      "type": "function"
    },
    {
      "inputs": [
        {
          "internalType": "address",
          "name": "account",
          "type": "address"
        }
      ],
      "name": "removeAdmin",
      "outputs": [],
      "stateMutability": "nonpayable",
      "type": "function"
    },
    {
      "inputs": [
        {
          "internalType": "bytes32",
          "name": "role",
          "type": "bytes32"
        },
        {
          "internalType": "address",
          "name": "account",
          "type": "address"
        }
      ],
      "name": "renounceRole",
      "outputs": [],
      "stateMutability": "nonpayable",
      "type": "function"
    },
    {
      "inputs": [],
      "name": "requestNum",
      "outputs": [
        {
          "internalType": "uint256",
          "name": "",
          "type": "uint256"
        }
      ],
      "stateMutability": "view",
      "type": "function"
    },
    {
      "inputs": [
        {
          "internalType": "bytes32",
          "name": "role",
          "type": "bytes32"
        },
        {
          "internalType": "address",
          "name": "account",
          "type": "address"
        }
      ],
      "name": "revokeRole",
      "outputs": [],
      "stateMutability": "nonpayable",
      "type": "function"
    },
    {
      "inputs": [],
      "name": "rewardClaimedTotal",
      "outputs": [
        {
          "internalType": "uint256",
          "name": "",
          "type": "uint256"
        }
      ],
      "stateMutability": "view",
      "type": "function"
    },
    {
      "inputs": [],
      "name": "saleStartBlock",
      "outputs": [
        {
          "internalType": "uint256",
          "name": "",
          "type": "uint256"
        }
      ],
      "stateMutability": "view",
      "type": "function"
    },
    {
      "inputs": [],
      "name": "seigManager",
      "outputs": [
        {
          "internalType": "address",
          "name": "",
          "type": "address"
        }
      ],
      "stateMutability": "view",
      "type": "function"
    },
    {
      "inputs": [
        {
          "internalType": "address",
          "name": "_registry",
          "type": "address"
        }
      ],
      "name": "setRegistry",
      "outputs": [],
      "stateMutability": "nonpayable",
      "type": "function"
    },
    {
      "inputs": [
        {
          "internalType": "address",
          "name": "_layer2",
          "type": "address"
        }
      ],
      "name": "setTokamakLayer2",
      "outputs": [],
      "stateMutability": "nonpayable",
      "type": "function"
    },
    {
      "inputs": [],
      "name": "stakeRegistry",
      "outputs": [
        {
          "internalType": "address",
          "name": "",
          "type": "address"
        }
      ],
      "stateMutability": "view",
      "type": "function"
    },
    {
      "inputs": [],
      "name": "startBlock",
      "outputs": [
        {
          "internalType": "uint256",
          "name": "",
          "type": "uint256"
        }
      ],
      "stateMutability": "view",
      "type": "function"
    },
    {
      "inputs": [],
      "name": "swapProxy",
      "outputs": [
        {
          "internalType": "address",
          "name": "",
          "type": "address"
        }
      ],
      "stateMutability": "view",
      "type": "function"
    },
    {
      "inputs": [
        {
          "internalType": "uint256",
          "name": "amount",
          "type": "uint256"
        },
        {
          "internalType": "bool",
          "name": "toWTON",
          "type": "bool"
        }
      ],
      "name": "swapTONtoWTON",
      "outputs": [],
      "stateMutability": "nonpayable",
      "type": "function"
    },
    {
      "inputs": [],
      "name": "swappedAmountTOS",
      "outputs": [
        {
          "internalType": "uint256",
          "name": "",
          "type": "uint256"
        }
      ],
      "stateMutability": "view",
      "type": "function"
    },
    {
      "inputs": [],
      "name": "toTokamak",
      "outputs": [
        {
          "internalType": "uint256",
          "name": "",
          "type": "uint256"
        }
      ],
      "stateMutability": "view",
      "type": "function"
    },
    {
      "inputs": [],
      "name": "toUniswapWTON",
      "outputs": [
        {
          "internalType": "uint256",
          "name": "",
          "type": "uint256"
        }
      ],
      "stateMutability": "view",
      "type": "function"
    },
    {
      "inputs": [],
      "name": "tokamakLayer2",
      "outputs": [
        {
          "internalType": "address",
          "name": "",
          "type": "address"
        }
      ],
      "stateMutability": "view",
      "type": "function"
    },
    {
      "inputs": [
        {
          "internalType": "address",
          "name": "_layer2",
          "type": "address"
        }
      ],
      "name": "tokamakProcessUnStaking",
      "outputs": [],
      "stateMutability": "nonpayable",
      "type": "function"
    },
    {
      "inputs": [
        {
          "internalType": "address",
          "name": "_layer2",
          "type": "address"
        },
        {
          "internalType": "uint256",
          "name": "wtonAmount",
          "type": "uint256"
        }
      ],
      "name": "tokamakRequestUnStaking",
      "outputs": [],
      "stateMutability": "nonpayable",
      "type": "function"
    },
    {
      "inputs": [
        {
          "internalType": "address",
          "name": "_layer2",
          "type": "address"
        }
      ],
      "name": "tokamakRequestUnStakingAll",
      "outputs": [],
      "stateMutability": "nonpayable",
      "type": "function"
    },
    {
      "inputs": [
        {
          "internalType": "address",
          "name": "_layer2",
          "type": "address"
        },
        {
          "internalType": "uint256",
          "name": "stakeAmount",
          "type": "uint256"
        }
      ],
      "name": "tokamakStaking",
      "outputs": [],
      "stateMutability": "nonpayable",
      "type": "function"
    },
    {
      "inputs": [],
      "name": "token",
      "outputs": [
        {
          "internalType": "address",
          "name": "",
          "type": "address"
        }
      ],
      "stateMutability": "view",
      "type": "function"
    },
    {
      "inputs": [],
      "name": "ton",
      "outputs": [
        {
          "internalType": "address",
          "name": "",
          "type": "address"
        }
      ],
      "stateMutability": "view",
      "type": "function"
    },
    {
      "inputs": [],
      "name": "totalStakedAmount",
      "outputs": [
        {
          "internalType": "uint256",
          "name": "",
          "type": "uint256"
        }
      ],
      "stateMutability": "view",
      "type": "function"
    },
    {
      "inputs": [],
      "name": "totalStakers",
      "outputs": [
        {
          "internalType": "uint256",
          "name": "",
          "type": "uint256"
        }
      ],
      "stateMutability": "view",
      "type": "function"
    },
    {
      "inputs": [
        {
          "internalType": "address",
          "name": "newAdmin",
          "type": "address"
        }
      ],
      "name": "transferAdmin",
      "outputs": [],
      "stateMutability": "nonpayable",
      "type": "function"
    },
    {
      "inputs": [
        {
          "internalType": "address",
          "name": "",
          "type": "address"
        }
      ],
      "name": "userStaked",
      "outputs": [
        {
          "internalType": "uint256",
          "name": "amount",
          "type": "uint256"
        },
        {
          "internalType": "uint256",
          "name": "claimedBlock",
          "type": "uint256"
        },
        {
          "internalType": "uint256",
          "name": "claimedAmount",
          "type": "uint256"
        },
        {
          "internalType": "uint256",
          "name": "releasedBlock",
          "type": "uint256"
        },
        {
          "internalType": "uint256",
          "name": "releasedAmount",
          "type": "uint256"
        },
        {
          "internalType": "uint256",
          "name": "releasedTOSAmount",
          "type": "uint256"
        },
        {
          "internalType": "bool",
          "name": "released",
          "type": "bool"
        }
      ],
      "stateMutability": "view",
      "type": "function"
    },
    {
      "inputs": [],
      "name": "vault",
      "outputs": [
        {
          "internalType": "address",
          "name": "",
          "type": "address"
        }
      ],
      "stateMutability": "view",
      "type": "function"
    },
    {
      "inputs": [],
      "name": "version",
      "outputs": [
        {
          "internalType": "string",
          "name": "",
          "type": "string"
        }
      ],
      "stateMutability": "pure",
      "type": "function"
    },
    {
      "inputs": [],
      "name": "withdraw",
      "outputs": [],
      "stateMutability": "nonpayable",
      "type": "function"
    },
    {
      "inputs": [],
      "name": "withdrawFlag",
      "outputs": [
        {
          "internalType": "bool",
          "name": "",
          "type": "bool"
        }
      ],
      "stateMutability": "view",
      "type": "function"
    },
    {
      "inputs": [],
      "name": "wton",
      "outputs": [
        {
          "internalType": "address",
          "name": "",
          "type": "address"
        }
      ],
      "stateMutability": "view",
      "type": "function"
    },
    {
      "stateMutability": "payable",
      "type": "receive"
    }
  ],
  "bytecode": "0x608060405234801561001057600080fd5b50615c3980620000216000396000f3fe6080604052600436106103475760003560e01c8063730464a9116101b2578063acc3a939116100ed578063e09974b911610090578063e09974b914610976578063e58e27471461098b578063e6a7bc87146109a0578063f0cdfa53146109b5578063fbfa77cf146109d5578063fc0c546a146109ea578063fd7fa460146109ff578063ff75878814610a145761036d565b8063acc3a93914610884578063b2d4d6a3146108b7578063ca15c873146108cc578063cc48b947146108ec578063ce681ce614610901578063d539139314610921578063d547741f14610936578063dac3fc3f146109565761036d565b806392ea3b4c1161015557806392ea3b4c146107a95780639a88be2f146107be5780639d84ca35146107e5578063a1f5f50e146107fa578063a217fddf1461080f578063a6e8670e14610824578063a852175614610844578063a91ee0dc146108645761036d565b8063730464a9146106ca57806375829def146106ea57806375b238fc1461070a5780637df3f40c1461071f578063869890381461073f5780638d62d949146107545780639010d07c1461076957806391d14854146107895761036d565b806343b0934a11610282578063687b53be11610225578063687b53be146106015780636c7ac9d8146106215780636e7cf534146106365780636ec4be901461064b5780636fb7f55814610660578063704802751461067557806371def0b31461069557806372285326146106b55761036d565b806343b0934a1461053457806348cd4cb1146105565780634e71d92d1461056b57806354fd4d5014610580578063567e98f9146105a257806363a8fd89146105b757806367cf3e18146105cc57806368304835146105ec5761036d565b8063248a9ca3116102ea578063248a9ca31461046057806324d7806c14610480578063282c51f3146104a05780632995fa0e146104b55780632f2ff15d146104ca57806336568abe146104ea5780633ccfd60b1461050a57806341c04d5e1461051f5761036d565b806305871b7814610372578063065c43131461039d578063083c6323146103bf5780630ac8e0f3146103d45780630ea3d9c9146103e95780631785f53c146103fe578063200272751461041e5780632335a6b2146104335761036d565b3661036d5760405162461bcd60e51b815260040161036490615920565b60405180910390fd5b600080fd5b34801561037e57600080fd5b50610387610a3a565b6040516103949190614e9c565b60405180910390f35b3480156103a957600080fd5b506103bd6103b8366004614ac0565b610a40565b005b3480156103cb57600080fd5b50610387610fd3565b3480156103e057600080fd5b50610387610fd9565b3480156103f557600080fd5b50610387610fdf565b34801561040a57600080fd5b506103bd6104193660046149d4565b610fe5565b34801561042a57600080fd5b50610387611044565b34801561043f57600080fd5b5061045361044e3660046149d4565b61104a565b6040516103949190614e91565b34801561046c57600080fd5b5061038761047b366004614bb5565b6111ef565b34801561048c57600080fd5b5061045361049b3660046149d4565b611204565b3480156104ac57600080fd5b50610387611224565b3480156104c157600080fd5b506103bd611248565b3480156104d657600080fd5b506103bd6104e5366004614bcd565b6113cd565b3480156104f657600080fd5b506103bd610505366004614bcd565b611434565b34801561051657600080fd5b506103bd611495565b34801561052b57600080fd5b50610387611c25565b34801561054057600080fd5b50610549611c49565b6040516103949190614d41565b34801561056257600080fd5b50610387611c58565b34801561057757600080fd5b506103bd611c5e565b34801561058c57600080fd5b50610595611f4a565b6040516103949190614ea5565b3480156105ae57600080fd5b50610387611f74565b3480156105c357600080fd5b50610453611f7a565b3480156105d857600080fd5b506103876105e7366004614ac0565b611f83565b3480156105f857600080fd5b506105496122d9565b34801561060d57600080fd5b5061038761061c3660046149d4565b6122e8565b34801561062d57600080fd5b5061054961240a565b34801561064257600080fd5b50610453612419565b34801561065757600080fd5b50610549612422565b34801561066c57600080fd5b50610549612431565b34801561068157600080fd5b506103bd6106903660046149d4565b612440565b3480156106a157600080fd5b506103bd6106b03660046149d4565b61249c565b3480156106c157600080fd5b50610387612825565b3480156106d657600080fd5b506103bd6106e53660046149d4565b61282b565b3480156106f657600080fd5b506103bd6107053660046149d4565b612b7d565b34801561071657600080fd5b50610387612c9e565b34801561072b57600080fd5b506103bd61073a366004614c35565b612cb0565b34801561074b57600080fd5b50610387612fcd565b34801561076057600080fd5b50610549612fd3565b34801561077557600080fd5b50610549610784366004614bfc565b612fe2565b34801561079557600080fd5b506104536107a4366004614bcd565b612ffa565b3480156107b557600080fd5b50610549613012565b3480156107ca57600080fd5b506107d3613021565b60405161039496959493929190614dd9565b3480156107f157600080fd5b50610549613077565b34801561080657600080fd5b5061045361308b565b34801561081b57600080fd5b5061038761309b565b34801561083057600080fd5b506103bd61083f3660046149d4565b6130a0565b34801561085057600080fd5b5061038761085f3660046149d4565b61317c565b34801561087057600080fd5b506103bd61087f3660046149d4565b61327a565b34801561089057600080fd5b506108a461089f3660046149d4565b613342565b6040516103949796959493929190615a9b565b3480156108c357600080fd5b50610387613382565b3480156108d857600080fd5b506103876108e7366004614bb5565b613388565b3480156108f857600080fd5b5061054961339f565b34801561090d57600080fd5b506103bd61091c366004614ac0565b6133ae565b34801561092d57600080fd5b506103876136eb565b34801561094257600080fd5b506103bd610951366004614bcd565b61370f565b34801561096257600080fd5b506108a46109713660046149d4565b613768565b34801561098257600080fd5b506103876137b1565b34801561099757600080fd5b506103876137b7565b3480156109ac57600080fd5b506103876137bd565b3480156109c157600080fd5b506103876109d0366004614c59565b6137c3565b3480156109e157600080fd5b5061054961403d565b3480156109f657600080fd5b5061054961404c565b348015610a0b57600080fd5b5061038761405b565b348015610a2057600080fd5b50610a29614061565b604051610394959493929190614da9565b60155481565b600b5415610a605760405162461bcd60e51b8152600401610364906152a3565b6001600b819055546001600160a01b031680610a8e5760405162461bcd60e51b815260040161036490614eb8565b826001600160a01b038116610ab55760405162461bcd60e51b815260040161036490614eb8565b600360009054906101000a90046001600160a01b03166001600160a01b031663b8c766b86040518163ffffffff1660e01b815260040160206040518083038186803b158015610b0357600080fd5b505afa158015610b17573d6000803e3d6000fd5b505050506040513d601f19601f82011682018060405250810190610b3b9190614b99565b610b575760405162461bcd60e51b8152600401610364906158ed565b600654431115610b795760405162461bcd60e51b81526004016103649061506d565b60008311610b995760405162461bcd60e51b815260040161036490615697565b6002601955610ba6611248565b60105460408051633761ead760e11b815290516000926001600160a01b031691636ec3d5ae916004808301926020929190829003018186803b158015610beb57600080fd5b505afa158015610bff573d6000803e3d6000fd5b505050506040513d601f19601f82011682018060405250810190610c239190614c1d565b600654909150610c339082614100565b4310610c515760405162461bcd60e51b8152600401610364906150d6565b6012546001600160a01b0316610c8157601280546001600160a01b0319166001600160a01b038716179055610e06565b600f546012546040516367265c3b60e11b81526000926001600160a01b039081169263ce4cb87692610cbb92909116903090600401614d8f565b60206040518083038186803b158015610cd357600080fd5b505afa158015610ce7573d6000803e3d6000fd5b505050506040513d601f19601f82011682018060405250810190610d0b9190614c1d565b1180610d9e5750601054601254604051632638fdf560e01b81526000926001600160a01b0390811692632638fdf592610d4c92909116903090600401614d8f565b60206040518083038186803b158015610d6457600080fd5b505afa158015610d78573d6000803e3d6000fd5b505050506040513d601f19601f82011682018060405250810190610d9c9190614c1d565b115b15610dd5576012546001600160a01b03868116911614610dd05760405162461bcd60e51b815260040161036490615477565b610e06565b6012546001600160a01b03868116911614610e0657601280546001600160a01b0319166001600160a01b0387161790555b600d546040516370a0823160e01b815285916001600160a01b0316906370a0823190610e36903090600401614d41565b60206040518083038186803b158015610e4e57600080fd5b505afa158015610e62573d6000803e3d6000fd5b505050506040513d601f19601f82011682018060405250810190610e869190614c1d565b1015610ea45760405162461bcd60e51b815260040161036490615562565b601354610eb19085614142565b601355601054604051600091610ed7916001600160a01b03909116908890602001614d8f565b60408051601f1981840301815290829052600d54600e5463cae9ca5160e01b84529193506001600160a01b039081169263cae9ca5192610f1f92169089908690600401614e61565b602060405180830381600087803b158015610f3957600080fd5b505af1158015610f4d573d6000803e3d6000fd5b505050506040513d601f19601f82011682018060405250810190610f719190614b99565b610f8d5760405162461bcd60e51b81526004016103649061534a565b7f36f1e081b7e687a2472c2fbd52bc97993ddc788b19c74010f11e25f3c917d2dd8686604051610fbe929190614d55565b60405180910390a150506000600b5550505050565b60065481565b60145481565b60165481565b610fee33611204565b6110295760405162461bcd60e51b8152600401808060200182810382526022815260200180615b426022913960400191505060405180910390fd5b611041600080516020615bb583398151915282611434565b50565b60045481565b6012546000906001600160a01b03161580159061107457506012546001600160a01b038381169116145b801561108a57506010546001600160a01b031615155b80156110a05750600f546001600160a01b031615155b156111ea5760105460408051633761ead760e11b815290516000926001600160a01b031691636ec3d5ae916004808301926020929190829003018186803b1580156110ea57600080fd5b505afa1580156110fe573d6000803e3d6000fd5b505050506040513d601f19601f820116820180604052508101906111229190614c1d565b600f546040516367265c3b60e11b8152919250600e8304916000916001600160a01b03169063ce4cb8769061115d9088903090600401614d8f565b60206040518083038186803b15801561117557600080fd5b505afa158015611189573d6000803e3d6000fd5b505050506040513d601f19601f820116820180604052508101906111ad9190614c1d565b90506000811180156111dc57506111d9826111d38560065461410090919063ffffffff16565b90614100565b43115b156111e657600193505b5050505b919050565b6000908152601c602052604090206002015490565b600061121e600080516020615bb583398151915283612ffa565b92915050565b7f9667e80708b6eeeb0053fa0cca44e028ff548e2a9f029edfeac87c118b08b7c881565b600d546001600160a01b0316611349576000806000806000600160009054906101000a90046001600160a01b03166001600160a01b031663a782ebd56040518163ffffffff1660e01b815260040160a06040518083038186803b1580156112ae57600080fd5b505afa1580156112c2573d6000803e3d6000fd5b505050506040513d601f19601f820116820180604052508101906112e691906149f0565b600d80546001600160a01b03199081166001600160a01b0397881617909155600e805482169587169590951790945560108054851693861693909317909255600f8054841691851691909117905560118054909216921691909117905550505050505b600d546001600160a01b03161580159061136d5750600e546001600160a01b031615155b80156113835750600f546001600160a01b031615155b801561139957506010546001600160a01b031615155b80156113af57506011546001600160a01b031615155b6113cb5760405162461bcd60e51b815260040161036490615660565b565b6000828152601c60205260409020600201546113eb906107a461419c565b6114265760405162461bcd60e51b815260040180806020018281038252602f815260200180615b13602f913960400191505060405180910390fd5b61143082826141a0565b5050565b61143c61419c565b6001600160a01b0316816001600160a01b03161461148b5760405162461bcd60e51b815260040180806020018281038252602f815260200180615bd5602f913960400191505060405180910390fd5b6114308282614209565b60006006541180156114a8575043600654105b6114c45760405162461bcd60e51b815260040161036490615854565b600080600080600160009054906101000a90046001600160a01b03166001600160a01b031663a782ebd56040518163ffffffff1660e01b815260040160a06040518083038186803b15801561151857600080fd5b505afa15801561152c573d6000803e3d6000fd5b505050506040513d601f19601f8201168201806040525081019061155091906149f0565b50929650909450925090506001600160a01b0384161580159061157b57506001600160a01b03831615155b801561158f57506001600160a01b03821615155b80156115a357506001600160a01b03811615155b6115bf5760405162461bcd60e51b81526004016103649061511f565b6012546001600160a01b0316156116fe576012546040516367265c3b60e11b81526001600160a01b038381169263ce4cb8769261160492909116903090600401614d8f565b60206040518083038186803b15801561161c57600080fd5b505afa158015611630573d6000803e3d6000fd5b505050506040513d601f19601f820116820180604052508101906116549190614c1d565b1580156116e25750601254604051632638fdf560e01b81526001600160a01b0384811692632638fdf59261169092909116903090600401614d8f565b60206040518083038186803b1580156116a857600080fd5b505afa1580156116bc573d6000803e3d6000fd5b505050506040513d601f19601f820116820180604052508101906116e09190614c1d565b155b6116fe5760405162461bcd60e51b8152600401610364906152d1565b336000908152600960205260409020600681015460ff16156117325760405162461bcd60e51b815260040161036490614f26565b601b5460ff1661192157601b805460ff191660011790556002546001600160a01b039081169086161415611921576000546040516370a0823160e01b81526001600160a01b03909116906370a0823190611790903090600401614d41565b60206040518083038186803b1580156117a857600080fd5b505afa1580156117bc573d6000803e3d6000fd5b505050506040513d601f19601f820116820180604052508101906117e09190614c1d565b6016556040516370a0823160e01b81526001600160a01b038516906370a082319061180f903090600401614d41565b60206040518083038186803b15801561182757600080fd5b505afa15801561183b573d6000803e3d6000fd5b505050506040513d601f19601f8201168201806040525081019061185f9190614c1d565b6018556040516370a0823160e01b81526001600160a01b038616906370a082319061188e903090600401614d41565b60206040518083038186803b1580156118a657600080fd5b505afa1580156118ba573d6000803e3d6000fd5b505050506040513d601f19601f820116820180604052508101906118de9190614c1d565b60178190556008546018549091611903916118fd90633b9aca00614272565b90614142565b10156119215760405162461bcd60e51b815260040161036490615313565b8054806119405760405162461bcd60e51b815260040161036490615532565b43600383015560068201805460ff191660011790556002546001600160a01b039081169087161415611a3157600080600080601754111561199f5761199c600854611996866017546142b490919063ffffffff16565b90614272565b92505b601854156119c5576119c2600854611996866018546142b490919063ffffffff16565b91505b601654156119eb576119e8600854611996866016546142b490919063ffffffff16565b90505b600585018190558115611a1457611a0a836118fd84633b9aca00614272565b6004860155611a1c565b600485018390555b611a29898985858561430d565b505050611bdb565b6002546001600160a01b0316611b11578082600401541115611a655760405162461bcd60e51b815260040161036490615532565b60048201819055308031821115611a8e5760405162461bcd60e51b8152600401610364906156d8565b6000336001600160a01b031683604051611aa790614d3e565b60006040518083038185875af1925050503d8060008114611ae4576040519150601f19603f3d011682016040523d82523d6000602084013e611ae9565b606091505b5050905080611b0a5760405162461bcd60e51b815260040161036490615409565b5050611bdb565b8082600401541115611b355760405162461bcd60e51b815260040161036490615532565b600480830182905560025460405163a9059cbb60e01b81526001600160a01b039091169163a9059cbb91611b6d913391869101614d55565b602060405180830381600087803b158015611b8757600080fd5b505af1158015611b9b573d6000803e3d6000fd5b505050506040513d601f19601f82011682018060405250810190611bbf9190614b99565b611bdb5760405162461bcd60e51b815260040161036490615005565b6004820154600583015460405133927fdf273cb619d95419a9cd0ec88123a0538c85064229baa6363788f743fff90deb92611c1592615a8d565b60405180910390a2505050505050565b7f52eafc11f6f81f86878bffd31109a0d92f37506527754f00788853ff9f63b13081565b6002546001600160a01b031681565b60055481565b600b5415611c7e5760405162461bcd60e51b8152600401610364906152a3565b6001600b5560035460408051631718ecd760e31b815290516001600160a01b039092169163b8c766b891600480820192602092909190829003018186803b158015611cc857600080fd5b505afa158015611cdc573d6000803e3d6000fd5b505050506040513d601f19601f82011682018060405250810190611d009190614b99565b611d1c5760405162461bcd60e51b815260040161036490615156565b336000908152600960205260408120600654600182015410611d505760405162461bcd60e51b8152600401610364906153de565b611d5a3343611f83565b915060008211611d7c5760405162461bcd60e51b815260040161036490614f5d565b60035460405163032f7adb60e61b81526000916001600160a01b03169063cbdeb6c090611dad903090600401614d41565b60206040518083038186803b158015611dc557600080fd5b505afa158015611dd9573d6000803e3d6000fd5b505050506040513d601f19601f82011682018060405250810190611dfd9190614c1d565b905080611e158460075461414290919063ffffffff16565b1115611e335760405162461bcd60e51b815260040161036490615995565b4360018301556002820154611e489084614142565b6002830155600754611e5a9084614142565b600755600354604051635569f64b60e11b81526001600160a01b039091169063aad3ec9690611e8f9033908790600401614d55565b602060405180830381600087803b158015611ea957600080fd5b505af1158015611ebd573d6000803e3d6000fd5b505050506040513d601f19601f82011682018060405250810190611ee19190614b99565b611efd5760405162461bcd60e51b8152600401610364906155ac565b336001600160a01b03167f987d620f307ff6b94d58743cb7a7509f24071586a77759b77c2d4e29f75a2f9a8443604051611f38929190615a8d565b60405180910390a250506000600b5550565b60408051808201909152601081526f757067726164652e323032313038303360801b602082015290565b60085481565b600c5460ff1681565b6006546000908190831115611f985760065492505b600554831080611fbe57506001600160a01b038416600090815260096020526040902054155b80611fe557506006546001600160a01b038516600090815260096020526040902060010154115b8061200a57506001600160a01b03841660009081526009602052604090206001015483105b15612017575060006122d2565b6005546006546001600160a01b03861660009081526009602052604090206001015482101561205f576001600160a01b03861660009081526009602052604090206001015491505b8085101561206a5750835b6003546040805163c1b422fd60e01b815290516000926001600160a01b03169163c1b422fd9160048083019286929190829003018186803b1580156120ae57600080fd5b505afa1580156120c2573d6000803e3d6000fd5b505050506040513d6000823e601f3d908101601f191682016040526120ea9190810190614aeb565b8051909150156122ce576003546040805163d105bf8560e01b815290516000928692849283926001600160a01b03169163d105bf85916004808301926020929190829003018186803b15801561213f57600080fd5b505afa158015612153573d6000803e3d6000fd5b505050506040513d601f19601f820116820180604052508101906121779190614c1d565b6001600160a01b038c166000908152600960205260408120549192508c91905b87518110156122c6578781815181106121ac57fe5b6020908102919091010151600354604051632f8deb1560e11b81529198506001600160a01b031690635f1bd62a906121e8908a90600401614e9c565b60206040518083038186803b15801561220057600080fd5b505afa158015612214573d6000803e3d6000fd5b505050506040513d601f19601f820116820180604052508101906122389190614c1d565b945086861115612247576122be565b86891161228d5784156122885760006122608a8c614100565b905061228461227d87611996866122778a876142b4565b906142b4565b8d90614142565b9b50505b6122c6565b84156122ba57600061229f888c614100565b90506122b661227d87611996866122778a876142b4565b9b50505b8699505b600101612197565b505050505050505b5050505b9392505050565b6001546001600160a01b031681565b6012546000906001600160a01b03161580159061231257506012546001600160a01b038381169116145b80156123285750600f546001600160a01b031615155b156111ea57600f546040516367265c3b60e11b81526000916001600160a01b03169063ce4cb876906123609086903090600401614d8f565b60206040518083038186803b15801561237857600080fd5b505afa15801561238c573d6000803e3d6000fd5b505050506040513d601f19601f820116820180604052508101906123b09190614c1d565b90506000811180156123c457506000600854115b80156123e0575060085481906123de90633b9aca006142b4565b105b1561240457600854612401906123fa90633b9aca006142b4565b8290614100565b91505b50919050565b6010546001600160a01b031681565b601b5460ff1681565b6011546001600160a01b031681565b600f546001600160a01b031681565b61244933611204565b6124845760405162461bcd60e51b8152600401808060200182810382526022815260200180615b426022913960400191505060405180910390fd5b611041600080516020615bb5833981519152826113cd565b600b54156124bc5760405162461bcd60e51b8152600401610364906152a3565b6001600b819055546001600160a01b0316806124ea5760405162461bcd60e51b815260040161036490614eb8565b816001600160a01b0381166125115760405162461bcd60e51b815260040161036490614eb8565b600360009054906101000a90046001600160a01b03166001600160a01b031663b8c766b86040518163ffffffff1660e01b815260040160206040518083038186803b15801561255f57600080fd5b505afa158015612573573d6000803e3d6000fd5b505050506040513d601f19601f820116820180604052508101906125979190614b99565b6125b35760405162461bcd60e51b8152600401610364906158ed565b60125483906001600160a01b038083169116146125e25760405162461bcd60e51b815260040161036490615477565b6003601955601a546125f5906001614142565b601a55612600611248565b60105460408051633761ead760e11b815290516000926001600160a01b031691636ec3d5ae916004808301926020929190829003018186803b15801561264557600080fd5b505afa158015612659573d6000803e3d6000fd5b505050506040513d601f19601f8201168201806040525081019061267d9190614c1d565b600f546040516367265c3b60e11b81529192506000916001600160a01b039091169063ce4cb876906126b59089903090600401614d8f565b60206040518083038186803b1580156126cd57600080fd5b505afa1580156126e1573d6000803e3d6000fd5b505050506040513d601f19601f820116820180604052508101906127059190614c1d565b9050600081116127275760405162461bcd60e51b815260040161036490615036565b600654600e83049061273f9082906111d39086614100565b431161275d5760405162461bcd60e51b81526004016103649061570a565b601054604051636b2160b760e01b81526001600160a01b0390911690636b2160b79061278d908a90600401614d41565b602060405180830381600087803b1580156127a757600080fd5b505af11580156127bb573d6000803e3d6000fd5b505050506040513d601f19601f820116820180604052508101906127df9190614b99565b507fd1c4e96e0fd22936ea8aebe0b8e06b19f1c4a836b141a34cf9e925d2afb205238760405161280f9190614d41565b60405180910390a150506000600b555050505050565b60195481565b600b541561284b5760405162461bcd60e51b8152600401610364906152a3565b6001600b819055546001600160a01b0316806128795760405162461bcd60e51b815260040161036490614eb8565b600360009054906101000a90046001600160a01b03166001600160a01b031663b8c766b86040518163ffffffff1660e01b815260040160206040518083038186803b1580156128c757600080fd5b505afa1580156128db573d6000803e3d6000fd5b505050506040513d601f19601f820116820180604052508101906128ff9190614b99565b61291b5760405162461bcd60e51b8152600401610364906158ed565b60125482906001600160a01b0380831691161461294a5760405162461bcd60e51b815260040161036490615477565b6005601954141561296d5760405162461bcd60e51b8152600401610364906155e3565b6005601955601a80546000909155612983611248565b600f546012546040516367265c3b60e11b81526001600160a01b039283169263ce4cb876926129b9929116903090600401614d8f565b60206040518083038186803b1580156129d157600080fd5b505afa1580156129e5573d6000803e3d6000fd5b505050506040513d601f19601f82011682018060405250810190612a099190614c1d565b612a1e57601280546001600160a01b03191690555b601054604051632638fdf560e01b8152612aab916001600160a01b031690632638fdf590612a529088903090600401614d8f565b60206040518083038186803b158015612a6a57600080fd5b505afa158015612a7e573d6000803e3d6000fd5b505050506040513d601f19601f82011682018060405250810190612aa29190614c1d565b60145490614142565b60145560105460405163fb0713b160e01b81526001600160a01b039091169063fb0713b190612ae39087908590600190600401614e3e565b602060405180830381600087803b158015612afd57600080fd5b505af1158015612b11573d6000803e3d6000fd5b505050506040513d601f19601f82011682018060405250810190612b359190614b99565b507f76d210b2dc3da8be1904d8b5da9feb5cdd21af436261626c4ec607e2123b417d84826001604051612b6a93929190614e3e565b60405180910390a150506000600b555050565b612b8633611204565b612bc15760405162461bcd60e51b8152600401808060200182810382526022815260200180615b426022913960400191505060405180910390fd5b6001600160a01b038116612c17576040805162461bcd60e51b815260206004820152601860248201527741636365737369626c653a207a65726f206164647265737360401b604482015290519081900360640190fd5b336001600160a01b0382161415612c6e576040805162461bcd60e51b815260206004820152601660248201527520b1b1b2b9b9b4b136329d1039b0b6b29030b236b4b760511b604482015290519081900360640190fd5b612c86600080516020615bb5833981519152826113cd565b611041600080516020615bb583398151915233611434565b600080516020615bb583398151915281565b600b5415612cd05760405162461bcd60e51b8152600401610364906152a3565b6001600b55612cdd611248565b8015612e88576011546001600160a01b0316612d0b5760405162461bcd60e51b815260040161036490614fd0565b600d546040516370a0823160e01b815283916001600160a01b0316906370a0823190612d3b903090600401614d41565b60206040518083038186803b158015612d5357600080fd5b505afa158015612d67573d6000803e3d6000fd5b505050506040513d601f19601f82011682018060405250810190612d8b9190614c1d565b1015612da95760405162461bcd60e51b8152600401610364906151bb565b601154604051600091612dcc916001600160a01b03909116908190602001614d8f565b60408051601f1981840301815290829052600d54600e5463cae9ca5160e01b84529193506001600160a01b039081169263cae9ca5192612e1492169087908690600401614e61565b602060405180830381600087803b158015612e2e57600080fd5b505af1158015612e42573d6000803e3d6000fd5b505050506040513d601f19601f82011682018060405250810190612e669190614b99565b612e825760405162461bcd60e51b8152600401610364906154e3565b50612fc4565b600e546040516370a0823160e01b815283916001600160a01b0316906370a0823190612eb8903090600401614d41565b60206040518083038186803b158015612ed057600080fd5b505afa158015612ee4573d6000803e3d6000fd5b505050506040513d601f19601f82011682018060405250810190612f089190614c1d565b1015612f265760405162461bcd60e51b81526004016103649061524a565b600e5460405163f53fe70f60e01b81526001600160a01b039091169063f53fe70f90612f56908590600401614e9c565b602060405180830381600087803b158015612f7057600080fd5b505af1158015612f84573d6000803e3d6000fd5b505050506040513d601f19601f82011682018060405250810190612fa89190614b99565b612fc45760405162461bcd60e51b815260040161036490615629565b50506000600b55565b600a5481565b600e546001600160a01b031681565b6000828152601c602052604081206122d290836146d4565b6000828152601c602052604081206122d290836146e0565b6012546001600160a01b031681565b60008061302c6149b6565b5050600254600354604080516060810182526004548152600554602082015260065491810191909152600754600854600a546001600160a01b03958616979590941695509193909290565b600c5461010090046001600160a01b031681565b600c54600160a81b900460ff1681565b600081565b6130a933611204565b6130e45760405162461bcd60e51b8152600401808060200182810382526022815260200180615b426022913960400191505060405180910390fd5b6001600160a01b0381161580159061310a57506012546001600160a01b03828116911614155b6131265760405162461bcd60e51b815260040161036490614f8f565b601280546001600160a01b0319166001600160a01b0383161790556040517fbcf2b04f5517cca822ae60e21bb6e3889b8d8307ea062c5266c63a014386c99090613171908390614d41565b60405180910390a150565b6012546000906001600160a01b0316158015906131a657506012546001600160a01b038381169116145b80156131bc57506010546001600160a01b031615155b156111ea5760105460408051633761ead760e11b815290516000926001600160a01b031691636ec3d5ae916004808301926020929190829003018186803b15801561320657600080fd5b505afa15801561321a573d6000803e3d6000fd5b505050506040513d601f19601f8201168201806040525081019061323e9190614c1d565b9050600e810461324e8282614142565b600654111561327357613270816111d38460065461410090919063ffffffff16565b92505b5050919050565b61328333611204565b6132be5760405162461bcd60e51b8152600401808060200182810382526022815260200180615b426022913960400191505060405180910390fd5b806001600160a01b0381166132e55760405162461bcd60e51b815260040161036490614eb8565b600180546001600160a01b0319166001600160a01b0384811691909117918290556040517f278c70ced5f3e0e5eeb385b5ff9cb735748ba00a625147e66065ed48fc1562cd92613336921690614d41565b60405180910390a15050565b6009602052600090815260409020805460018201546002830154600384015460048501546005860154600690960154949593949293919290919060ff1687565b60075481565b6000818152601c6020526040812061121e906146f5565b600d546001600160a01b031681565b600b54156133ce5760405162461bcd60e51b8152600401610364906152a3565b6001600b819055546001600160a01b0316806133fc5760405162461bcd60e51b815260040161036490614eb8565b826001600160a01b0381166134235760405162461bcd60e51b815260040161036490614eb8565b600360009054906101000a90046001600160a01b03166001600160a01b031663b8c766b86040518163ffffffff1660e01b815260040160206040518083038186803b15801561347157600080fd5b505afa158015613485573d6000803e3d6000fd5b505050506040513d601f19601f820116820180604052508101906134a99190614b99565b6134c55760405162461bcd60e51b8152600401610364906158ed565b60125484906001600160a01b038083169116146134f45760405162461bcd60e51b815260040161036490615477565b6003601955601a54613507906001614142565b601a55613512611248565b600f546040516367265c3b60e11b81526000916001600160a01b03169063ce4cb876906135459089903090600401614d8f565b60206040518083038186803b15801561355d57600080fd5b505afa158015613571573d6000803e3d6000fd5b505050506040513d601f19601f820116820180604052508101906135959190614c1d565b9050600081116135b75760405162461bcd60e51b815260040161036490615036565b6008546000906135cb90633b9aca006142b4565b9050600080821180156135e757506135e4836064614100565b82105b156135fe576135fb60646111d38585614100565b90505b6000811161361e5760405162461bcd60e51b8152600401610364906157d3565b60105460405163da95ebf760e01b81526001600160a01b039091169063da95ebf790613650908b908590600401614d55565b602060405180830381600087803b15801561366a57600080fd5b505af115801561367e573d6000803e3d6000fd5b505050506040513d601f19601f820116820180604052508101906136a29190614b99565b507f2a23e23c116b511f71c9f0c2648b0372e6bbcb1f559a7cbfaed5c55933ea6c4e88826040516136d4929190614d55565b60405180910390a150506000600b55505050505050565b7ff0887ba65ee2024ea881d91b74c2450ef19e1557f03bed3ea9f16b037cbe2dc981565b6000828152601c602052604090206002015461372d906107a461419c565b61148b5760405162461bcd60e51b8152600401808060200182810382526030815260200180615b646030913960400191505060405180910390fd5b6001600160a01b03166000908152600960205260409020805460018201546002830154600384015460048501546005860154600690960154949693959294919390929160ff1690565b601a5481565b60175481565b60185481565b6000600b546000146137e75760405162461bcd60e51b8152600401610364906152a3565b6001600b5560035460408051631718ecd760e31b815290516001600160a01b039092169163b8c766b891600480820192602092909190829003018186803b15801561383157600080fd5b505afa158015613845573d6000803e3d6000fd5b505050506040513d601f19601f820116820180604052508101906138699190614b99565b6138855760405162461bcd60e51b8152600401610364906158ed565b6006544311156138a75760405162461bcd60e51b815260040161036490615821565b600282106138c75760405162461bcd60e51b815260040161036490615792565b6138cf611248565b600e546040516370a0823160e01b81526000916001600160a01b0316906370a0823190613900903090600401614d41565b60206040518083038186803b15801561391857600080fd5b505afa15801561392c573d6000803e3d6000fd5b505050506040513d601f19601f820116820180604052508101906139509190614c1d565b600d546040516370a0823160e01b81529192506000916001600160a01b03909116906370a0823190613986903090600401614d41565b60206040518083038186803b15801561399e57600080fd5b505afa1580156139b2573d6000803e3d6000fd5b505050506040513d601f19601f820116820180604052508101906139d69190614c1d565b6012549091506000906001600160a01b031615613b0a57600f546012546040516367265c3b60e11b81526001600160a01b039283169263ce4cb87692613a23929116903090600401614d8f565b60206040518083038186803b158015613a3b57600080fd5b505afa158015613a4f573d6000803e3d6000fd5b505050506040513d601f19601f82011682018060405250810190613a739190614c1d565b601054601254604051632638fdf560e01b8152929350613b07926001600160a01b0392831692632638fdf592613ab0929116903090600401614d8f565b60206040518083038186803b158015613ac857600080fd5b505afa158015613adc573d6000803e3d6000fd5b505050506040513d601f19601f82011682018060405250810190613b009190614c1d565b8290614142565b90505b828215613b2557613b22613b0084633b9aca006142b4565b90505b89811015613b455760405162461bcd60e51b8152600401610364906154ae565b8115613b5857613b558183614142565b90505b600854613b6990633b9aca006142b4565b81118015613b99575089613b96613b8f633b9aca006008546142b490919063ffffffff16565b8390614100565b10155b613bb55760405162461bcd60e51b815260040161036490615440565b89841015613cb157601154604051600091613be0916001600160a01b03909116908190602001614d8f565b60408051601f1981840301815291905290506000613c06633b9aca006119968e89614100565b600d54600e5460405163cae9ca5160e01b81529293506001600160a01b039182169263cae9ca5192613c4092169085908790600401614e61565b602060405180830381600087803b158015613c5a57600080fd5b505af1158015613c6e573d6000803e3d6000fd5b505050506040513d601f19601f82011682018060405250810190613c929190614b99565b613cae5760405162461bcd60e51b81526004016103649061538b565b50505b5050601554613cc39250905087614142565b6015819055506000806000600160009054906101000a90046001600160a01b03166001600160a01b031663504563c06040518163ffffffff1660e01b815260040160a06040518083038186803b158015613d1c57600080fd5b505afa158015613d30573d6000803e3d6000fd5b505050506040513d601f19601f82011682018060405250810190613d549190614a64565b509295509350909150506001600160a01b038316613d845760405162461bcd60e51b815260040161036490614eef565b600e5460405163095ea7b360e01b81526001600160a01b039091169063095ea7b390613db69086908d90600401614d55565b602060405180830381600087803b158015613dd057600080fd5b505af1158015613de4573d6000803e3d6000fd5b505050506040513d601f19601f82011682018060405250810190613e089190614b99565b613e245760405162461bcd60e51b81526004016103649061594c565b84613efa576040805161010081018252600e546001600160a01b0390811682526000548116602083015262ffffff841682840152306060830152608082018a905260a082018c905260c082018b905288811660e0830152915163414bf38960e01b8152909185169063414bf38990613ea0908490600401615a24565b602060405180830381600087803b158015613eba57600080fd5b505af1158015613ece573d6000803e3d6000fd5b505050506040513d601f19601f82011682018060405250810190613ef29190614c1d565b945050613ff1565b8460011415613ff1576040805160a08101909152600e54600080549092918291613f3a916001600160a01b03908116918791899183911660c08701614cec565b6040516020818303038152906040528152602001306001600160a01b031681526020018981526020018b81526020018a8152509050836001600160a01b031663c04b8d59826040518263ffffffff1660e01b8152600401613f9b91906159cc565b602060405180830381600087803b158015613fb557600080fd5b505af1158015613fc9573d6000803e3d6000fd5b505050506040513d601f19601f82011682018060405250810190613fed9190614c1d565b9450505b7f6ad50db5d488c314f9077fc5c41c7d8bcdd86ddc409871512ddd009f21067d32338a8660405161402493929190614d6e565b60405180910390a150506000600b555095945050505050565b6003546001600160a01b031681565b6000546001600160a01b031681565b60135481565b6000806000806000600160009054906101000a90046001600160a01b03166001600160a01b031663504563c06040518163ffffffff1660e01b815260040160a06040518083038186803b1580156140b757600080fd5b505afa1580156140cb573d6000803e3d6000fd5b505050506040513d601f19601f820116820180604052508101906140ef9190614a64565b945094509450945094509091929394565b60006122d283836040518060400160405280601e81526020017f536166654d6174683a207375627472616374696f6e206f766572666c6f770000815250614700565b6000828201838110156122d2576040805162461bcd60e51b815260206004820152601b60248201527f536166654d6174683a206164646974696f6e206f766572666c6f770000000000604482015290519081900360640190fd5b3390565b6000828152601c602052604090206141b89082614797565b15611430576141c561419c565b6001600160a01b0316816001600160a01b0316837f2f8788117e7eff1d82e926ec794901d17c78024a50270940304540a733656f0d60405160405180910390a45050565b6000828152601c6020526040902061422190826147ac565b156114305761422e61419c565b6001600160a01b0316816001600160a01b0316837ff6391f5c32d9c69d2a47ea670b442974b53935d1edc7fd64eb21e047a839171b60405160405180910390a45050565b60006122d283836040518060400160405280601a81526020017f536166654d6174683a206469766973696f6e206279207a65726f0000000000008152506147c1565b6000826142c35750600061121e565b828202828482816142d057fe5b04146122d25760405162461bcd60e51b8152600401808060200182810382526021815260200180615b946021913960400191505060405180910390fd5b821561444b576040516370a0823160e01b815283906001600160a01b038716906370a0823190614341903090600401614d41565b60206040518083038186803b15801561435957600080fd5b505afa15801561436d573d6000803e3d6000fd5b505050506040513d601f19601f820116820180604052508101906143919190614c1d565b10156143af5760405162461bcd60e51b8152600401610364906158b6565b60405163a9059cbb60e01b81526001600160a01b0386169063a9059cbb906143dd9033908790600401614d55565b602060405180830381600087803b1580156143f757600080fd5b505af115801561440b573d6000803e3d6000fd5b505050506040513d601f19601f8201168201806040525081019061442f9190614b99565b61444b5760405162461bcd60e51b815260040161036490615184565b8115614589576040516370a0823160e01b815282906001600160a01b038616906370a082319061447f903090600401614d41565b60206040518083038186803b15801561449757600080fd5b505afa1580156144ab573d6000803e3d6000fd5b505050506040513d601f19601f820116820180604052508101906144cf9190614c1d565b10156144ed5760405162461bcd60e51b81526004016103649061587f565b60405163e3b99e8560e01b81526001600160a01b0385169063e3b99e859061451b9033908690600401614d55565b602060405180830381600087803b15801561453557600080fd5b505af1158015614549573d6000803e3d6000fd5b505050506040513d601f19601f8201168201806040525081019061456d9190614b99565b6145895760405162461bcd60e51b815260040161036490615213565b80156146cd576000546040516370a0823160e01b815282916001600160a01b0316906370a08231906145bf903090600401614d41565b60206040518083038186803b1580156145d757600080fd5b505afa1580156145eb573d6000803e3d6000fd5b505050506040513d601f19601f8201168201806040525081019061460f9190614c1d565b101561462d5760405162461bcd60e51b81526004016103649061575b565b60005460405163a9059cbb60e01b81526001600160a01b039091169063a9059cbb9061465f9033908590600401614d55565b602060405180830381600087803b15801561467957600080fd5b505af115801561468d573d6000803e3d6000fd5b505050506040513d601f19601f820116820180604052508101906146b19190614b99565b6146cd5760405162461bcd60e51b81526004016103649061509f565b5050505050565b60006122d28383614826565b60006122d2836001600160a01b03841661488a565b600061121e826148a2565b6000818484111561478f5760405162461bcd60e51b81526004018080602001828103825283818151815260200191508051906020019080838360005b8381101561475457818101518382015260200161473c565b50505050905090810190601f1680156147815780820380516001836020036101000a031916815260200191505b509250505060405180910390fd5b505050900390565b60006122d2836001600160a01b0384166148a6565b60006122d2836001600160a01b0384166148f0565b600081836148105760405162461bcd60e51b815260206004820181815283516024840152835190928392604490910191908501908083836000831561475457818101518382015260200161473c565b50600083858161481c57fe5b0495945050505050565b815460009082106148685760405162461bcd60e51b8152600401808060200182810382526022815260200180615af16022913960400191505060405180910390fd5b82600001828154811061487757fe5b9060005260206000200154905092915050565b60009081526001919091016020526040902054151590565b5490565b60006148b2838361488a565b6148e85750815460018181018455600084815260208082209093018490558454848252828601909352604090209190915561121e565b50600061121e565b600081815260018301602052604081205480156149ac578354600019808301919081019060009087908390811061492357fe5b906000526020600020015490508087600001848154811061494057fe5b60009182526020808320909101929092558281526001898101909252604090209084019055865487908061497057fe5b6001900381819060005260206000200160009055905586600101600087815260200190815260200160002060009055600194505050505061121e565b600091505061121e565b60405180606001604052806003906020820280368337509192915050565b6000602082840312156149e5578081fd5b81356122d281615acd565b600080600080600060a08688031215614a07578081fd5b8551614a1281615acd565b6020870151909550614a2381615acd565b6040870151909450614a3481615acd565b6060870151909350614a4581615acd565b6080870151909250614a5681615acd565b809150509295509295909350565b600080600080600060a08688031215614a7b578081fd5b8551614a8681615acd565b6020870151909550614a9781615acd565b6040870151909450614aa881615acd565b606087015160808801519194509250614a5681615acd565b60008060408385031215614ad2578182fd5b8235614add81615acd565b946020939093013593505050565b60006020808385031215614afd578182fd5b825167ffffffffffffffff80821115614b14578384fd5b818501915085601f830112614b27578384fd5b815181811115614b3357fe5b83810260405185828201018181108582111715614b4c57fe5b604052828152858101935084860182860187018a1015614b6a578788fd5b8795505b83861015614b8c578051855260019590950194938601938601614b6e565b5098975050505050505050565b600060208284031215614baa578081fd5b81516122d281615ae2565b600060208284031215614bc6578081fd5b5035919050565b60008060408385031215614bdf578182fd5b823591506020830135614bf181615acd565b809150509250929050565b60008060408385031215614c0e578182fd5b50508035926020909101359150565b600060208284031215614c2e578081fd5b5051919050565b60008060408385031215614c47578182fd5b823591506020830135614bf181615ae2565b600080600080600060a08688031215614c70578081fd5b8535945060208601359350604086013592506060860135614c9081615acd565b949793965091946080013592915050565b60008151808452815b81811015614cc657602081850181015186830182015201614caa565b81811115614cd75782602083870101525b50601f01601f19169290920160200192915050565b6bffffffffffffffffffffffff19606096871b811682526001600160e81b031960e896871b8116601484015294871b811660178301529290941b909216602b840152921b909116602e82015260420190565b90565b6001600160a01b0391909116815260200190565b6001600160a01b03929092168252602082015260400190565b6001600160a01b039390931683526020830191909152604082015260600190565b6001600160a01b0392831681529116602082015260400190565b6001600160a01b039586168152938516602085015291841660408401526060830152909116608082015260a00190565b6001600160a01b038781168252861660208083019190915261010082019060408301908760005b6003811015614e1d57815184529282019290820190600101614e00565b505050508460a08301528360c08301528260e0830152979650505050505050565b6001600160a01b0393909316835260208301919091521515604082015260600190565b600060018060a01b038516825283602083015260606040830152614e886060830184614ca1565b95945050505050565b901515815260200190565b90815260200190565b6000602082526122d26020830184614ca1565b6020808252601b908201527f546f6b616d616b5374616b65723a207a65726f20616464726573730000000000604082015260600190565b6020808252601a908201527f546f6b616d616b5374616b65723a756e6973776170207a65726f000000000000604082015260600190565b6020808252601a908201527f5374616b65544f4e3a20416c7265616479207769746864726177000000000000604082015260600190565b6020808252601890820152775374616b65544f4e3a20726577617264206973207a65726f60401b604082015260600190565b60208082526021908201527f546f6b616d616b5374616b65723a746f6b616d616b4c6179657232207a65726f6040820152600160fd1b606082015260800190565b6020808252818101527f546f6b616d616b5374616b65723a207377617050726f7879206973207a65726f604082015260600190565b60208082526017908201527614dd185ad95513d38e881d1c985b9cd9995c8819985a5b604a1b604082015260600190565b6020808252601e908201527f546f6b616d616b5374616b65723a207374616b654f66206973207a65726f0000604082015260600190565b602080825260189082015277151bdad85b585ad4dd185ad95c8e9c195c9a5bd908195b9960421b604082015260600190565b6020808252601b908201527f5374616b65544f4e3a207472616e7366657220746f73206661696c0000000000604082015260600190565b60208082526029908201527f546f6b616d616b5374616b65723a706572696f64287769746864726177616c44604082015268195b185e4a48195b9960ba1b606082015260800190565b6020808252601f908201527f5374616b65544f4e3a2049546f6b616d616b5265676973747279207a65726f00604082015260600190565b60208082526014908201527314dd185ad95513d38e881b9bdd0818db1bdcd95960621b604082015260600190565b6020808252601b908201527f5374616b65544f4e3a207472616e7366657220746f6e206661696c0000000000604082015260600190565b60208082526038908201527f546f6b616d616b5374616b65723a2073776170544f4e746f57544f4e20746f6e6040820152770818985b185b98d9481a5cc81a5b9cdd59999a58da595b9d60421b606082015260800190565b6020808252601c908201527f5374616b65544f4e3a207472616e736665722077746f6e206661696c00000000604082015260600190565b60208082526039908201527f546f6b616d616b5374616b65723a2073776170544f4e746f57544f4e2077746f6040820152781b8818985b185b98d9481a5cc81a5b9cdd59999a58da595b9d603a1b606082015260800190565b602080825260149082015273151bdad85b585ad4dd185ad95c8e9313d0d2d15160621b604082015260600190565b60208082526022908201527f5374616b65544f4e3a2072656d61696e20616d6f756e7420696e20746f6b616d604082015261616b60f01b606082015260800190565b6020808252601e908201527f5374616b65544f4e3a2066696e616c42616c616e6365206973206c61636b0000604082015260600190565b60208082526021908201527f546f6b616d616b5374616b65723a617070726f7665416e6443616c6c206661696040820152601b60fa1b606082015260800190565b60208082526033908201527f546f6b616d616b5374616b65723a65786368616e676557544f4e746f544f5320604082015272185c1c1c9bdd99505b9910d85b1b0819985a5b606a1b606082015260800190565b60208082526011908201527014dd185ad95513d38e8818db185a5b5959607a1b604082015260600190565b6020808252601a908201527f5374616b65544f4e3a207769746864726177206661696c65642e000000000000604082015260600190565b6020808252601a908201527f546f6b616d616b5374616b65723a696e73756666696369656e74000000000000604082015260600190565b6020808252601d908201527f546f6b616d616b5374616b65723a646966666572656e74206c61796572000000604082015260600190565b6020808252818101527f546f6b616d616b5374616b65723a2077746f6e20696e73756666696369656e74604082015260600190565b6020808252602f908201527f546f6b616d616b5374616b65723a73776170544f4e746f57544f4e206170707260408201526e1bdd99505b9910d85b1b0819985a5b608a1b606082015260800190565b6020808252601690820152755374616b65544f4e3a20416d6f756e742077726f6e6760501b604082015260600190565b6020808252602a908201527f546f6b616d616b5374616b65723a20746f6e2062616c616e636520697320696e6040820152691cdd59999a58da595b9d60b21b606082015260800190565b6020808252601f908201527f5374616b65544f4e3a206661696c20636c61696d2066726f6d207661756c7400604082015260600190565b60208082526026908201527f546f6b616d616b5374616b65723a416c72656164792050726f63657373556e5360408201526574616b696e6760d01b606082015260800190565b6020808252601c908201527f546f6b616d616b5374616b65723a73776170546f544f4e206661696c00000000604082015260600190565b6020808252601a908201527f546f6b616d616b5374616b65723a746f6b616d616b207a65726f000000000000604082015260600190565b60208082526021908201527f546f6b616d616b5374616b65723a7374616b65416d6f756e74206973207a65726040820152606f60f81b606082015260800190565b6020808252601890820152770a6e8c2d6caa89e9c7440d2dce6eaccccd2cadce8408aa8960431b604082015260600190565b60208082526031908201527f546f6b616d616b5374616b65723a5468652065786563757461626c6520626c6f60408201527018dac81a185cc81b9bdd081c185cdcd959607a1b606082015260800190565b6020808252601d908201527f5374616b65544f4e3a20746f732062616c616e6365206973206c61636b000000604082015260600190565b60208082526021908201527f546f6b616d616b5374616b65723a206e6f7420617661696c61626c65206b696e6040820152601960fa1b606082015260800190565b6020808252602e908201527f546f6b616d616b5374616b65723a206e6f2077697468647261772d61626c652060408201526d185b5bdd5b9d081b9bdd081e595d60921b606082015260800190565b602080825260199082015278151bdad85b585ad4dd185ad95c8e881c195c9a5bd908195b99603a1b604082015260600190565b60208082526011908201527014dd185ad95513d38e881b9bdd08195b99607a1b604082015260600190565b6020808252601e908201527f5374616b65544f4e3a2077746f6e2062616c616e6365206973206c61636b0000604082015260600190565b6020808252601d908201527f5374616b65544f4e3a20746f6e2062616c616e6365206973206c61636b000000604082015260600190565b602080825260199082015278151bdad85b585ad4dd185ad95c8e881b9bdd0818db1bdcd959603a1b604082015260600190565b60208082526012908201527131b0b73737ba1039ba30b5b29022ba3432b960711b604082015260600190565b60208082526029908201527f546f6b616d616b5374616b65723a63616e277420617070726f766520756e69736040820152683bb0b82937baba32b960b91b606082015260800190565b6020808252601e908201527f5374616b65544f4e3a20746f74616c2072657761726420657863656564730000604082015260600190565b600060208252825160a060208401526159e860c0840182614ca1565b905060018060a01b0360208501511660408401526040840151606084015260608401516080840152608084015160a08401528091505092915050565b81516001600160a01b03908116825260208084015182169083015260408084015162ffffff16908301526060808401518216908301526080808401519083015260a0838101519083015260c0808401519083015260e09283015116918101919091526101000190565b918252602082015260400190565b968752602087019590955260408601939093526060850191909152608084015260a0830152151560c082015260e00190565b6001600160a01b038116811461104157600080fd5b801515811461104157600080fdfe456e756d657261626c655365743a20696e646578206f7574206f6620626f756e6473416363657373436f6e74726f6c3a2073656e646572206d75737420626520616e2061646d696e20746f206772616e7441636365737369626c653a2043616c6c6572206973206e6f7420616e2061646d696e416363657373436f6e74726f6c3a2073656e646572206d75737420626520616e2061646d696e20746f207265766f6b65536166654d6174683a206d756c7469706c69636174696f6e206f766572666c6f77df8b4c520ffe197c5343c6f5aec59570151ef9a492f2c624fd45ddde6135ec42416363657373436f6e74726f6c3a2063616e206f6e6c792072656e6f756e636520726f6c657320666f722073656c66a2646970667358221220388d0e2f57d7c0e0b966651141ca161aa656bc94521f99dd90daeb8e0c3ac32264736f6c63430007060033",
  "linkReferences": {},
  "deployedLinkReferences": {}
}