{
  "_format": "hh-sol-artifact-1",
  "contractName": "StakeRegistry",
  "sourceName": "contracts/stake/StakeRegistry.sol",
  "abi": [
    {
      "inputs": [
        {
          "internalType": "address",
          "name": "_tos",
          "type": "address"
        }
      ],
      "stateMutability": "nonpayable",
      "type": "constructor"
    },
    {
      "anonymous": false,
      "inputs": [
        {
          "indexed": false,
          "internalType": "bytes32",
          "name": "nameHash",
          "type": "bytes32"
        },
        {
          "indexed": false,
          "internalType": "string",
          "name": "name",
          "type": "string"
        },
        {
          "indexed": false,
          "internalType": "address",
          "name": "router",
          "type": "address"
        },
        {
          "indexed": false,
          "internalType": "address",
          "name": "ex1",
          "type": "address"
        },
        {
          "indexed": false,
          "internalType": "address",
          "name": "ex2",
          "type": "address"
        },
        {
          "indexed": false,
          "internalType": "uint256",
          "name": "fee",
          "type": "uint256"
        },
        {
          "indexed": false,
          "internalType": "address",
          "name": "routerV2",
          "type": "address"
        }
      ],
      "name": "AddedDefiInfo",
      "type": "event"
    },
    {
      "anonymous": false,
      "inputs": [
        {
          "indexed": true,
          "internalType": "address",
          "name": "vault",
          "type": "address"
        },
        {
          "indexed": true,
          "internalType": "address",
          "name": "stakeContract",
          "type": "address"
        }
      ],
      "name": "AddedStakeContract",
      "type": "event"
    },
    {
      "anonymous": false,
      "inputs": [
        {
          "indexed": true,
          "internalType": "address",
          "name": "vault",
          "type": "address"
        },
        {
          "indexed": false,
          "internalType": "uint256",
          "name": "phase",
          "type": "uint256"
        }
      ],
      "name": "AddedVault",
      "type": "event"
    },
    {
      "anonymous": false,
      "inputs": [
        {
          "indexed": true,
          "internalType": "bytes32",
          "name": "role",
          "type": "bytes32"
        },
        {
          "indexed": true,
          "internalType": "bytes32",
          "name": "previousAdminRole",
          "type": "bytes32"
        },
        {
          "indexed": true,
          "internalType": "bytes32",
          "name": "newAdminRole",
          "type": "bytes32"
        }
      ],
      "name": "RoleAdminChanged",
      "type": "event"
    },
    {
      "anonymous": false,
      "inputs": [
        {
          "indexed": true,
          "internalType": "bytes32",
          "name": "role",
          "type": "bytes32"
        },
        {
          "indexed": true,
          "internalType": "address",
          "name": "account",
          "type": "address"
        },
        {
          "indexed": true,
          "internalType": "address",
          "name": "sender",
          "type": "address"
        }
      ],
      "name": "RoleGranted",
      "type": "event"
    },
    {
      "anonymous": false,
      "inputs": [
        {
          "indexed": true,
          "internalType": "bytes32",
          "name": "role",
          "type": "bytes32"
        },
        {
          "indexed": true,
          "internalType": "address",
          "name": "account",
          "type": "address"
        },
        {
          "indexed": true,
          "internalType": "address",
          "name": "sender",
          "type": "address"
        }
      ],
      "name": "RoleRevoked",
      "type": "event"
    },
    {
      "anonymous": false,
      "inputs": [
        {
          "indexed": false,
          "internalType": "address",
          "name": "ton",
          "type": "address"
        },
        {
          "indexed": false,
          "internalType": "address",
          "name": "wton",
          "type": "address"
        },
        {
          "indexed": false,
          "internalType": "address",
          "name": "depositManager",
          "type": "address"
        },
        {
          "indexed": false,
          "internalType": "address",
          "name": "seigManager",
          "type": "address"
        },
        {
          "indexed": false,
          "internalType": "address",
          "name": "swapProxy",
          "type": "address"
        }
      ],
      "name": "SetTokamak",
      "type": "event"
    },
    {
      "inputs": [],
      "name": "ADMIN_ROLE",
      "outputs": [
        {
          "internalType": "bytes32",
          "name": "",
          "type": "bytes32"
        }
      ],
      "stateMutability": "view",
      "type": "function"
    },
    {
      "inputs": [],
      "name": "BURNER_ROLE",
      "outputs": [
        {
          "internalType": "bytes32",
          "name": "",
          "type": "bytes32"
        }
      ],
      "stateMutability": "view",
      "type": "function"
    },
    {
      "inputs": [],
      "name": "DEFAULT_ADMIN_ROLE",
      "outputs": [
        {
          "internalType": "bytes32",
          "name": "",
          "type": "bytes32"
        }
      ],
      "stateMutability": "view",
      "type": "function"
    },
    {
      "inputs": [],
      "name": "MINTER_ROLE",
      "outputs": [
        {
          "internalType": "bytes32",
          "name": "",
          "type": "bytes32"
        }
      ],
      "stateMutability": "view",
      "type": "function"
    },
    {
      "inputs": [],
      "name": "PROJECT_ADMIN_ROLE",
      "outputs": [
        {
          "internalType": "bytes32",
          "name": "",
          "type": "bytes32"
        }
      ],
      "stateMutability": "view",
      "type": "function"
    },
    {
      "inputs": [],
      "name": "ZERO_HASH",
      "outputs": [
        {
          "internalType": "bytes32",
          "name": "",
          "type": "bytes32"
        }
      ],
      "stateMutability": "view",
      "type": "function"
    },
    {
      "inputs": [
        {
          "internalType": "address",
          "name": "account",
          "type": "address"
        }
      ],
      "name": "addAdmin",
      "outputs": [],
      "stateMutability": "nonpayable",
      "type": "function"
    },
    {
      "inputs": [
        {
          "internalType": "string",
          "name": "_name",
          "type": "string"
        },
        {
          "internalType": "address",
          "name": "_router",
          "type": "address"
        },
        {
          "internalType": "address",
          "name": "_ex1",
          "type": "address"
        },
        {
          "internalType": "address",
          "name": "_ex2",
          "type": "address"
        },
        {
          "internalType": "uint256",
          "name": "_fee",
          "type": "uint256"
        },
        {
          "internalType": "address",
          "name": "_routerV2",
          "type": "address"
        }
      ],
      "name": "addDefiInfo",
      "outputs": [],
      "stateMutability": "nonpayable",
      "type": "function"
    },
    {
      "inputs": [
        {
          "internalType": "address",
          "name": "_vault",
          "type": "address"
        },
        {
          "internalType": "address",
          "name": "_stakeContract",
          "type": "address"
        }
      ],
      "name": "addStakeContract",
      "outputs": [],
      "stateMutability": "nonpayable",
      "type": "function"
    },
    {
      "inputs": [
        {
          "internalType": "address",
          "name": "_vault",
          "type": "address"
        },
        {
          "internalType": "uint256",
          "name": "_phase",
          "type": "uint256"
        },
        {
          "internalType": "bytes32",
          "name": "_vaultName",
          "type": "bytes32"
        }
      ],
      "name": "addVault",
      "outputs": [],
      "stateMutability": "nonpayable",
      "type": "function"
    },
    {
      "inputs": [
        {
          "internalType": "bytes32",
          "name": "",
          "type": "bytes32"
        }
      ],
      "name": "defiInfo",
      "outputs": [
        {
          "internalType": "string",
          "name": "name",
          "type": "string"
        },
        {
          "internalType": "address",
          "name": "router",
          "type": "address"
        },
        {
          "internalType": "address",
          "name": "ext1",
          "type": "address"
        },
        {
          "internalType": "address",
          "name": "ext2",
          "type": "address"
        },
        {
          "internalType": "uint256",
          "name": "fee",
          "type": "uint256"
        },
        {
          "internalType": "address",
          "name": "routerV2",
          "type": "address"
        }
      ],
      "stateMutability": "view",
      "type": "function"
    },
    {
      "inputs": [],
      "name": "depositManager",
      "outputs": [
        {
          "internalType": "address",
          "name": "",
          "type": "address"
        }
      ],
      "stateMutability": "view",
      "type": "function"
    },
    {
      "inputs": [
        {
          "internalType": "bytes32",
          "name": "role",
          "type": "bytes32"
        }
      ],
      "name": "getRoleAdmin",
      "outputs": [
        {
          "internalType": "bytes32",
          "name": "",
          "type": "bytes32"
        }
      ],
      "stateMutability": "view",
      "type": "function"
    },
    {
      "inputs": [
        {
          "internalType": "bytes32",
          "name": "role",
          "type": "bytes32"
        },
        {
          "internalType": "uint256",
          "name": "index",
          "type": "uint256"
        }
      ],
      "name": "getRoleMember",
      "outputs": [
        {
          "internalType": "address",
          "name": "",
          "type": "address"
        }
      ],
      "stateMutability": "view",
      "type": "function"
    },
    {
      "inputs": [
        {
          "internalType": "bytes32",
          "name": "role",
          "type": "bytes32"
        }
      ],
      "name": "getRoleMemberCount",
      "outputs": [
        {
          "internalType": "uint256",
          "name": "",
          "type": "uint256"
        }
      ],
      "stateMutability": "view",
      "type": "function"
    },
    {
      "inputs": [],
      "name": "getTokamak",
      "outputs": [
        {
          "internalType": "address",
          "name": "",
          "type": "address"
        },
        {
          "internalType": "address",
          "name": "",
          "type": "address"
        },
        {
          "internalType": "address",
          "name": "",
          "type": "address"
        },
        {
          "internalType": "address",
          "name": "",
          "type": "address"
        },
        {
          "internalType": "address",
          "name": "",
          "type": "address"
        }
      ],
      "stateMutability": "view",
      "type": "function"
    },
    {
      "inputs": [],
      "name": "getUniswap",
      "outputs": [
        {
          "internalType": "address",
          "name": "",
          "type": "address"
        },
        {
          "internalType": "address",
          "name": "",
          "type": "address"
        },
        {
          "internalType": "address",
          "name": "",
          "type": "address"
        },
        {
          "internalType": "uint256",
          "name": "",
          "type": "uint256"
        },
        {
          "internalType": "address",
          "name": "",
          "type": "address"
        }
      ],
      "stateMutability": "view",
      "type": "function"
    },
    {
      "inputs": [
        {
          "internalType": "bytes32",
          "name": "role",
          "type": "bytes32"
        },
        {
          "internalType": "address",
          "name": "account",
          "type": "address"
        }
      ],
      "name": "grantRole",
      "outputs": [],
      "stateMutability": "nonpayable",
      "type": "function"
    },
    {
      "inputs": [
        {
          "internalType": "bytes32",
          "name": "role",
          "type": "bytes32"
        },
        {
          "internalType": "address",
          "name": "account",
          "type": "address"
        }
      ],
      "name": "hasRole",
      "outputs": [
        {
          "internalType": "bool",
          "name": "",
          "type": "bool"
        }
      ],
      "stateMutability": "view",
      "type": "function"
    },
    {
      "inputs": [
        {
          "internalType": "address",
          "name": "account",
          "type": "address"
        }
      ],
      "name": "isAdmin",
      "outputs": [
        {
          "internalType": "bool",
          "name": "",
          "type": "bool"
        }
      ],
      "stateMutability": "view",
      "type": "function"
    },
    {
      "inputs": [
        {
          "internalType": "uint256",
          "name": "",
          "type": "uint256"
        },
        {
          "internalType": "uint256",
          "name": "",
          "type": "uint256"
        }
      ],
      "name": "phases",
      "outputs": [
        {
          "internalType": "address",
          "name": "",
          "type": "address"
        }
      ],
      "stateMutability": "view",
      "type": "function"
    },
    {
      "inputs": [
        {
          "internalType": "uint256",
          "name": "_index",
          "type": "uint256"
        }
      ],
      "name": "phasesAll",
      "outputs": [
        {
          "internalType": "address[]",
          "name": "",
          "type": "address[]"
        }
      ],
      "stateMutability": "view",
      "type": "function"
    },
    {
      "inputs": [
        {
          "internalType": "address",
          "name": "account",
          "type": "address"
        }
      ],
      "name": "removeAdmin",
      "outputs": [],
      "stateMutability": "nonpayable",
      "type": "function"
    },
    {
      "inputs": [
        {
          "internalType": "bytes32",
          "name": "role",
          "type": "bytes32"
        },
        {
          "internalType": "address",
          "name": "account",
          "type": "address"
        }
      ],
      "name": "renounceRole",
      "outputs": [],
      "stateMutability": "nonpayable",
      "type": "function"
    },
    {
      "inputs": [
        {
          "internalType": "bytes32",
          "name": "role",
          "type": "bytes32"
        },
        {
          "internalType": "address",
          "name": "account",
          "type": "address"
        }
      ],
      "name": "revokeRole",
      "outputs": [],
      "stateMutability": "nonpayable",
      "type": "function"
    },
    {
      "inputs": [],
      "name": "seigManager",
      "outputs": [
        {
          "internalType": "address",
          "name": "",
          "type": "address"
        }
      ],
      "stateMutability": "view",
      "type": "function"
    },
    {
      "inputs": [
        {
          "internalType": "address",
          "name": "_ton",
          "type": "address"
        },
        {
          "internalType": "address",
          "name": "_wton",
          "type": "address"
        },
        {
          "internalType": "address",
          "name": "_depositManager",
          "type": "address"
        },
        {
          "internalType": "address",
          "name": "_seigManager",
          "type": "address"
        },
        {
          "internalType": "address",
          "name": "_swapProxy",
          "type": "address"
        }
      ],
      "name": "setTokamak",
      "outputs": [],
      "stateMutability": "nonpayable",
      "type": "function"
    },
    {
      "inputs": [
        {
          "internalType": "address",
          "name": "",
          "type": "address"
        }
      ],
      "name": "stakeContractVault",
      "outputs": [
        {
          "internalType": "address",
          "name": "",
          "type": "address"
        }
      ],
      "stateMutability": "view",
      "type": "function"
    },
    {
      "inputs": [
        {
          "internalType": "address",
          "name": "",
          "type": "address"
        },
        {
          "internalType": "uint256",
          "name": "",
          "type": "uint256"
        }
      ],
      "name": "stakeContractsOfVault",
      "outputs": [
        {
          "internalType": "address",
          "name": "",
          "type": "address"
        }
      ],
      "stateMutability": "view",
      "type": "function"
    },
    {
      "inputs": [
        {
          "internalType": "address",
          "name": "_vault",
          "type": "address"
        }
      ],
      "name": "stakeContractsOfVaultAll",
      "outputs": [
        {
          "internalType": "address[]",
          "name": "",
          "type": "address[]"
        }
      ],
      "stateMutability": "view",
      "type": "function"
    },
    {
      "inputs": [],
      "name": "swapProxy",
      "outputs": [
        {
          "internalType": "address",
          "name": "",
          "type": "address"
        }
      ],
      "stateMutability": "view",
      "type": "function"
    },
    {
      "inputs": [],
      "name": "ton",
      "outputs": [
        {
          "internalType": "address",
          "name": "",
          "type": "address"
        }
      ],
      "stateMutability": "view",
      "type": "function"
    },
    {
      "inputs": [],
      "name": "tos",
      "outputs": [
        {
          "internalType": "address",
          "name": "",
          "type": "address"
        }
      ],
      "stateMutability": "view",
      "type": "function"
    },
    {
      "inputs": [
        {
          "internalType": "address",
          "name": "newAdmin",
          "type": "address"
        }
      ],
      "name": "transferAdmin",
      "outputs": [],
      "stateMutability": "nonpayable",
      "type": "function"
    },
    {
      "inputs": [
        {
          "internalType": "uint256",
          "name": "_phase",
          "type": "uint256"
        },
        {
          "internalType": "address",
          "name": "_vault",
          "type": "address"
        }
      ],
      "name": "validVault",
      "outputs": [
        {
          "internalType": "bool",
          "name": "valid",
          "type": "bool"
        }
      ],
      "stateMutability": "view",
      "type": "function"
    },
    {
      "inputs": [
        {
          "internalType": "address",
          "name": "",
          "type": "address"
        }
      ],
      "name": "vaultNames",
      "outputs": [
        {
          "internalType": "bytes32",
          "name": "",
          "type": "bytes32"
        }
      ],
      "stateMutability": "view",
      "type": "function"
    },
    {
      "inputs": [
        {
          "internalType": "bytes32",
          "name": "",
          "type": "bytes32"
        }
      ],
      "name": "vaults",
      "outputs": [
        {
          "internalType": "address",
          "name": "",
          "type": "address"
        }
      ],
      "stateMutability": "view",
      "type": "function"
    },
    {
      "inputs": [],
      "name": "wton",
      "outputs": [
        {
          "internalType": "address",
          "name": "",
          "type": "address"
        }
      ],
      "stateMutability": "view",
      "type": "function"
    }
  ],
  "bytecode": "0x60806040523480156200001157600080fd5b5060405162001ee938038062001ee9833981810160405260208110156200003757600080fd5b50516200005460008051602062001ec98339815191528062000095565b6200006f60008051602062001ec983398151915233620000e7565b600180546001600160a01b0319166001600160a01b0392909216919091179055620001fb565b600082815260208190526040808220600201549051839285917fbd79b86ffe0ab8e8776151514217cd7cacd52c909f66475c3af44e129f0b00ff9190a460009182526020829052604090912060020155565b620000f38282620000f7565b5050565b6000828152602081815260409091206200011c918390620017c962000170821b17901c565b15620000f3576200012c62000190565b6001600160a01b0316816001600160a01b0316837f2f8788117e7eff1d82e926ec794901d17c78024a50270940304540a733656f0d60405160405180910390a45050565b600062000187836001600160a01b03841662000194565b90505b92915050565b3390565b6000620001a28383620001e3565b620001da575081546001818101845560008481526020808220909301849055845484825282860190935260409020919091556200018a565b5060006200018a565b60009081526001919091016020526040902054151590565b611cbe806200020b6000396000f3fe608060405234801561001057600080fd5b50600436106102125760003560e01c80638d62d94911610120578063a95031f1116100b8578063d53913931161007c578063d5391393146107c2578063d547741f146107ca578063efc9f746146107f6578063f025a65714610828578063faeb6b9f1461084e57610212565b8063a95031f114610687578063c9560c92146106a4578063ca15c87314610780578063cc48b9471461079d578063cca23bf2146107a557610212565b80638d62d9491461048c5780638dea8fd7146104945780639010d07c146104c2578063918dafa4146104e557806391d148541461050857806399469a5714610534578063a217fddf146103a0578063a782ebd5146105cd578063a8fcc09a1461061157610212565b80634ce76a3c116101ae5780636fb7f558116101725780636fb7f55814610428578063704802751461043057806375829def1461045657806375b238fc1461047c57806389f395de1461048457610212565b80634ce76a3c146103a0578063504563c0146103a85780636b7e2bd0146103ec5780636c7ac9d8146104185780636ec4be901461042057610212565b80631785f53c14610217578063248a9ca31461023f57806324d7806c1461026e578063282c51f3146102a85780632f2ff15d146102b057806336568abe146102dc57806341c04d5e146103085780634b2e0ebd146103105780634be8b11614610358575b600080fd5b61023d6004803603602081101561022d57600080fd5b50356001600160a01b0316610874565b005b61025c6004803603602081101561025557600080fd5b50356108d3565b60408051918252519081900360200190f35b6102946004803603602081101561028457600080fd5b50356001600160a01b03166108e8565b604080519115158252519081900360200190f35b61025c610908565b61023d600480360360408110156102c657600080fd5b50803590602001356001600160a01b031661092c565b61023d600480360360408110156102f257600080fd5b50803590602001356001600160a01b0316610998565b61025c6109f9565b61023d600480360360a081101561032657600080fd5b506001600160a01b03813581169160208101358216916040820135811691606081013582169160809091013516610a1d565b6103846004803603604081101561036e57600080fd5b506001600160a01b038135169060200135610c8d565b604080516001600160a01b039092168252519081900360200190f35b61025c610cc5565b6103b0610cca565b604080516001600160a01b0396871681529486166020860152928516848401526060840191909152909216608082015290519081900360a00190f35b6102946004803603604081101561040257600080fd5b50803590602001356001600160a01b0316610d3f565b610384610df4565b610384610e03565b610384610e12565b61023d6004803603602081101561044657600080fd5b50356001600160a01b0316610e21565b61023d6004803603602081101561046c57600080fd5b50356001600160a01b0316610e7d565b61025c610f9e565b610384610fb0565b610384610fbf565b61023d600480360360408110156104aa57600080fd5b506001600160a01b0381358116916020013516610fce565b610384600480360360408110156104d857600080fd5b5080359060200135611126565b610384600480360360408110156104fb57600080fd5b5080359060200135611145565b6102946004803603604081101561051e57600080fd5b50803590602001356001600160a01b0316611161565b61023d600480360360c081101561054a57600080fd5b81019060208101813564010000000081111561056557600080fd5b82018360208201111561057757600080fd5b8035906020019184600183028401116401000000008311171561059957600080fd5b91935091506001600160a01b0381358116916020810135821691604082013581169160608101359160809091013516611179565b6105d56113b1565b604080516001600160a01b0396871681529486166020860152928516848401529084166060840152909216608082015290519081900360a00190f35b6106376004803603602081101561062757600080fd5b50356001600160a01b03166113dc565b60408051602080825283518183015283519192839290830191858101910280838360005b8381101561067357818101518382015260200161065b565b505050509050019250505060405180910390f35b6106376004803603602081101561069d57600080fd5b5035611452565b6106c1600480360360208110156106ba57600080fd5b50356114bc565b6040518080602001876001600160a01b03168152602001866001600160a01b03168152602001856001600160a01b03168152602001848152602001836001600160a01b03168152602001828103825288818151815260200191508051906020019080838360005b83811015610740578181015183820152602001610728565b50505050905090810190601f16801561076d5780820380516001836020036101000a031916815260200191505b5097505050505050505060405180910390f35b61025c6004803603602081101561079657600080fd5b503561158d565b6103846115a4565b610384600480360360208110156107bb57600080fd5b50356115b3565b61025c6115ce565b61023d600480360360408110156107e057600080fd5b50803590602001356001600160a01b03166115f2565b61023d6004803603606081101561080c57600080fd5b506001600160a01b03813516906020810135906040013561164b565b61025c6004803603602081101561083e57600080fd5b50356001600160a01b031661179c565b6103846004803603602081101561086457600080fd5b50356001600160a01b03166117ae565b61087d336108e8565b6108b85760405162461bcd60e51b8152600401808060200182810382526022815260200180611b996022913960400191505060405180910390fd5b6108d0600080516020611beb83398151915282610998565b50565b60009081526020819052604090206002015490565b6000610902600080516020611beb83398151915283611161565b92915050565b7f9667e80708b6eeeb0053fa0cca44e028ff548e2a9f029edfeac87c118b08b7c881565b60008281526020819052604090206002015461094f9061094a6117de565b611161565b61098a5760405162461bcd60e51b815260040180806020018281038252602f815260200180611b49602f913960400191505060405180910390fd5b61099482826117e2565b5050565b6109a06117de565b6001600160a01b0316816001600160a01b0316146109ef5760405162461bcd60e51b815260040180806020018281038252602f815260200180611c5a602f913960400191505060405180910390fd5b610994828261184b565b7f52eafc11f6f81f86878bffd31109a0d92f37506527754f00788853ff9f63b13081565b610a26336108e8565b610a615760405162461bcd60e51b8152600401808060200182810382526022815260200180611b996022913960400191505060405180910390fd5b846001600160a01b038116610aab576040805162461bcd60e51b815260206004820152601b6024820152600080516020611c0b833981519152604482015290519081900360640190fd5b846001600160a01b038116610af5576040805162461bcd60e51b815260206004820152601b6024820152600080516020611c0b833981519152604482015290519081900360640190fd5b846001600160a01b038116610b3f576040805162461bcd60e51b815260206004820152601b6024820152600080516020611c0b833981519152604482015290519081900360640190fd5b846001600160a01b038116610b89576040805162461bcd60e51b815260206004820152601b6024820152600080516020611c0b833981519152604482015290519081900360640190fd5b846001600160a01b038116610bd3576040805162461bcd60e51b815260206004820152601b6024820152600080516020611c0b833981519152604482015290519081900360640190fd5b600280546001600160a01b03199081166001600160a01b038d811691909117928390556003805483168d831617908190556004805484168d841617908190556005805485168d85161790819055600680549095168c851617948590556040805196851687529284166020870152908316858301528216606085015291166080830152517f46a53dd818efcc0314aabace01e93d87ceaacb400503f8ae380689193622edbc9160a0908290030190a150505050505050505050565b600a6020528160005260406000208181548110610ca957600080fd5b6000918252602090912001546001600160a01b03169150829050565b600081565b6040805169554e49535741505f563360b01b6020808301919091528251600a818403018152602a90920183528151918101919091206000908152600c9091522060018101546002820154600383015460048401546005909401546001600160a01b039384169592841694918416939192911690565b600082815260076020526040812054610d895760405162461bcd60e51b8152600401808060200182810382526021815260200180611b786021913960400191505060405180910390fd5b60005b600084815260076020526040902054811015610ded576000848152600760205260409020805482908110610dbc57fe5b6000918252602090912001546001600160a01b0384811691161415610de5576001915050610902565b600101610d8c565b5092915050565b6004546001600160a01b031681565b6006546001600160a01b031681565b6005546001600160a01b031681565b610e2a336108e8565b610e655760405162461bcd60e51b8152600401808060200182810382526022815260200180611b996022913960400191505060405180910390fd5b6108d0600080516020611beb8339815191528261092c565b610e86336108e8565b610ec15760405162461bcd60e51b8152600401808060200182810382526022815260200180611b996022913960400191505060405180910390fd5b6001600160a01b038116610f17576040805162461bcd60e51b815260206004820152601860248201527741636365737369626c653a207a65726f206164647265737360401b604482015290519081900360640190fd5b336001600160a01b0382161415610f6e576040805162461bcd60e51b815260206004820152601660248201527520b1b1b2b9b9b4b136329d1039b0b6b29030b236b4b760511b604482015290519081900360640190fd5b610f86600080516020611beb8339815191528261092c565b6108d0600080516020611beb83398151915233610998565b600080516020611beb83398151915281565b6001546001600160a01b031681565b6003546001600160a01b031681565b610fd7336108e8565b6110125760405162461bcd60e51b8152600401808060200182810382526022815260200180611b996022913960400191505060405180910390fd5b6001600160a01b0382166000908152600960205260409020541580159061105157506001600160a01b038181166000908152600b602052604090205416155b6110a2576040805162461bcd60e51b815260206004820152601c60248201527f5374616b6552656769737472793a20696e707574206973207a65726f00000000604482015290519081900360640190fd5b6001600160a01b038082166000818152600b6020908152604080832080549588166001600160a01b03199687168117909155808452600a835281842080546001810182559085529284209092018054909516841790945592519192917fe6584895e96f2ea505afcd22b465ea591aaa448ca2b1512ee7e6cf0a0b06bddb9190a35050565b600082815260208190526040812061113e90836118b4565b9392505050565b60076020528160005260406000208181548110610ca957600080fd5b600082815260208190526040812061113e90836118c0565b611182336108e8565b6111bd5760405162461bcd60e51b8152600401808060200182810382526022815260200180611b996022913960400191505060405180910390fd5b846001600160a01b038116611207576040805162461bcd60e51b815260206004820152601b6024820152600080516020611c0b833981519152604482015290519081900360640190fd5b600088886040516020018083838082843780830192505050925050506040516020818303038152906040528051906020012090506000801b811415611293576040805162461bcd60e51b815260206004820152601c60248201527f5374616b6552656769737472793a206e616d6548617368207a65726f00000000604482015290519081900360640190fd5b6000818152600c602052604090206112ac818b8b611a85565b506001810180546001600160a01b03808b166001600160a01b031992831681179093556002840180548b831690841681179091556003850180548b84169085168117909155600486018a9055600586018054938a1693909416831790935560408051878152908101949094526060840152608083019190915260a0820187905260c082015260e0602082018181529082018b90527f0147e7efb7b14e89c57dff67004f0d16bcb8fd1de7b6a1495516966b9f9454c09184918d918d918d918d918d918d918d91906101008201898980828437600083820152604051601f909101601f19169092018290039b50909950505050505050505050a150505050505050505050565b6002546003546004546005546006546001600160a01b03948516959385169492831693918316921690565b6001600160a01b0381166000908152600a602090815260409182902080548351818402810184019094528084526060939283018282801561144657602002820191906000526020600020905b81546001600160a01b03168152600190910190602001808311611428575b50505050509050919050565b600081815260076020908152604091829020805483518184028101840190945280845260609392830182828015611446576020028201919060005260206000209081546001600160a01b031681526001909101906020018083116114285750505050509050919050565b600c6020908152600091825260409182902080548351601f600260001961010060018616150201909316929092049182018490048402810184019094528084529092918391908301828280156115535780601f1061152857610100808354040283529160200191611553565b820191906000526020600020905b81548152906001019060200180831161153657829003601f168201915b505050600184015460028501546003860154600487015460059097015495966001600160a01b039384169692841695509083169350911686565b6000818152602081905260408120610902906118d5565b6002546001600160a01b031681565b6008602052600090815260409020546001600160a01b031681565b7ff0887ba65ee2024ea881d91b74c2450ef19e1557f03bed3ea9f16b037cbe2dc981565b6000828152602081905260409020600201546116109061094a6117de565b6109ef5760405162461bcd60e51b8152600401808060200182810382526030815260200180611bbb6030913960400191505060405180910390fd5b611654336108e8565b61168f5760405162461bcd60e51b8152600401808060200182810382526022815260200180611b996022913960400191505060405180910390fd5b6001600160a01b03831660009081526009602052604090205415806116c957506000818152600860205260409020546001600160a01b0316155b6117045760405162461bcd60e51b815260040180806020018281038252602f815260200180611c2b602f913960400191505060405180910390fd5b600081815260086020908152604080832080546001600160a01b0388166001600160a01b03199182168117909255818552600984528285208690558685526007845282852080546001810182559086529484902090940180549094168117909355805185815290517fdfaf8626b603a61190ccb047f953d17d6bb3bbe900c801d2b813ce3e526c59a7929181900390910190a2505050565b60096020526000908152604090205481565b600b602052600090815260409020546001600160a01b031681565b600061113e836001600160a01b0384166118e0565b3390565b60008281526020819052604090206117fa90826117c9565b15610994576118076117de565b6001600160a01b0316816001600160a01b0316837f2f8788117e7eff1d82e926ec794901d17c78024a50270940304540a733656f0d60405160405180910390a45050565b6000828152602081905260409020611863908261192a565b15610994576118706117de565b6001600160a01b0316816001600160a01b0316837ff6391f5c32d9c69d2a47ea670b442974b53935d1edc7fd64eb21e047a839171b60405160405180910390a45050565b600061113e838361193f565b600061113e836001600160a01b0384166119a3565b6000610902826119bb565b60006118ec83836119a3565b61192257508154600181810184556000848152602080822090930184905584548482528286019093526040902091909155610902565b506000610902565b600061113e836001600160a01b0384166119bf565b815460009082106119815760405162461bcd60e51b8152600401808060200182810382526022815260200180611b276022913960400191505060405180910390fd5b82600001828154811061199057fe5b9060005260206000200154905092915050565b60009081526001919091016020526040902054151590565b5490565b60008181526001830160205260408120548015611a7b57835460001980830191908101906000908790839081106119f257fe5b9060005260206000200154905080876000018481548110611a0f57fe5b600091825260208083209091019290925582815260018981019092526040902090840190558654879080611a3f57fe5b60019003818190600052602060002001600090559055866001016000878152602001908152602001600020600090556001945050505050610902565b6000915050610902565b828054600181600116156101000203166002900490600052602060002090601f016020900481019282611abb5760008555611b01565b82601f10611ad45782800160ff19823516178555611b01565b82800160010185558215611b01579182015b82811115611b01578235825591602001919060010190611ae6565b50611b0d929150611b11565b5090565b5b80821115611b0d5760008155600101611b1256fe456e756d657261626c655365743a20696e646578206f7574206f6620626f756e6473416363657373436f6e74726f6c3a2073656e646572206d75737420626520616e2061646d696e20746f206772616e745374616b6552656769737472793a2076616c69645661756c74206973206661696c41636365737369626c653a2043616c6c6572206973206e6f7420616e2061646d696e416363657373436f6e74726f6c3a2073656e646572206d75737420626520616e2061646d696e20746f207265766f6b65df8b4c520ffe197c5343c6f5aec59570151ef9a492f2c624fd45ddde6135ec425374616b6552656769737472793a207a65726f206164647265737300000000005374616b6552656769737472793a206164645661756c7420696e7075742076616c7565206973206e6f74207a65726f416363657373436f6e74726f6c3a2063616e206f6e6c792072656e6f756e636520726f6c657320666f722073656c66a264697066735822122096721ca484ab31339bcc4d09ce28adc4dccbb9dd67edd157b9973673709128e264736f6c63430007060033df8b4c520ffe197c5343c6f5aec59570151ef9a492f2c624fd45ddde6135ec42",
  "linkReferences": {},
  "deployedLinkReferences": {}
}