{
  "_format": "hh-sol-artifact-1",
  "contractName": "StakeSimpleFactory",
  "sourceName": "contracts/factory/StakeSimpleFactory.sol",
  "abi": [
    {
      "inputs": [
        {
          "internalType": "address",
          "name": "_stakeSimpleLogic",
          "type": "address"
        }
      ],
      "stateMutability": "nonpayable",
      "type": "constructor"
    },
    {
      "inputs": [],
      "name": "ADMIN_ROLE",
      "outputs": [
        {
          "internalType": "bytes32",
          "name": "",
          "type": "bytes32"
        }
      ],
      "stateMutability": "view",
      "type": "function"
    },
    {
      "inputs": [],
      "name": "BURNER_ROLE",
      "outputs": [
        {
          "internalType": "bytes32",
          "name": "",
          "type": "bytes32"
        }
      ],
      "stateMutability": "view",
      "type": "function"
    },
    {
      "inputs": [],
      "name": "MINTER_ROLE",
      "outputs": [
        {
          "internalType": "bytes32",
          "name": "",
          "type": "bytes32"
        }
      ],
      "stateMutability": "view",
      "type": "function"
    },
    {
      "inputs": [],
      "name": "PROJECT_ADMIN_ROLE",
      "outputs": [
        {
          "internalType": "bytes32",
          "name": "",
          "type": "bytes32"
        }
      ],
      "stateMutability": "view",
      "type": "function"
    },
    {
      "inputs": [
        {
          "internalType": "address[4]",
          "name": "_addr",
          "type": "address[4]"
        },
        {
          "internalType": "address",
          "name": "_registry",
          "type": "address"
        },
        {
          "internalType": "uint256[3]",
          "name": "_intdata",
          "type": "uint256[3]"
        },
        {
          "internalType": "address",
          "name": "owner",
          "type": "address"
        }
      ],
      "name": "create",
      "outputs": [
        {
          "internalType": "address",
          "name": "",
          "type": "address"
        }
      ],
      "stateMutability": "nonpayable",
      "type": "function"
    },
    {
      "inputs": [],
      "name": "stakeSimpleLogic",
      "outputs": [
        {
          "internalType": "address",
          "name": "",
          "type": "address"
        }
      ],
      "stateMutability": "view",
      "type": "function"
    }
  ],
  "bytecode": "0x608060405234801561001057600080fd5b50604051611eb6380380611eb68339818101604052602081101561003357600080fd5b50516001600160a01b038116610090576040805162461bcd60e51b815260206004820152601e60248201527f5374616b6553696d706c65466163746f72793a206c6f676963207a65726f0000604482015290519081900360640190fd5b600080546001600160a01b039092166001600160a01b0319909216919091179055611df6806100c06000396000f3fe608060405234801561001057600080fd5b50600436106100625760003560e01c8063282c51f3146100675780632c4ffdda1461008157806341c04d5e146100a557806375b238fc146100ad578063ba3d3045146100b5578063d5391393146100ee575b600080fd5b61006f6100f6565b60408051918252519081900360200190f35b61008961011a565b604080516001600160a01b039092168252519081900360200190f35b61006f610129565b61006f61014d565b61008960048036036101208110156100cc57600080fd5b506001600160a01b03608082013581169060a08301906101008401351661015f565b61006f6103a7565b7f9667e80708b6eeeb0053fa0cca44e028ff548e2a9f029edfeac87c118b08b7c881565b6000546001600160a01b031681565b7f52eafc11f6f81f86878bffd31109a0d92f37506527754f00788853ff9f63b13081565b600080516020611da183398151915281565b6000805460405182916001600160a01b03169061017b906103cb565b6001600160a01b03909116815260405190819003602001906000f0801580156101a8573d6000803e3d6000fd5b5090506001600160a01b038116610206576040805162461bcd60e51b815260206004820152601e60248201527f5374616b6553696d706c65466163746f72793a2070726f7879207a65726f0000604482015290519081900360640190fd5b6040516339efe54360e21b81526001600160a01b0382169063e7bf950c9088908890889060040180846080808284376000838201526001600160a01b038616601f909101601f19169092019182525060200182606080828437600081840152601f19601f8201169050808301925050509350505050600060405180830381600087803b15801561029557600080fd5b505af11580156102a9573d6000803e3d6000fd5b50505050806001600160a01b0316632f2ff15d600080516020611da1833981519152856040518363ffffffff1660e01b815260040180838152602001826001600160a01b0316815260200192505050600060405180830381600087803b15801561031257600080fd5b505af1158015610326573d6000803e3d6000fd5b50506040805163d547741f60e01b8152600080516020611da1833981519152600482015230602482015290516001600160a01b038516935063d547741f9250604480830192600092919082900301818387803b15801561038557600080fd5b505af1158015610399573d6000803e3d6000fd5b509298975050505050505050565b7ff0887ba65ee2024ea881d91b74c2450ef19e1557f03bed3ea9f16b037cbe2dc981565b6119c8806103d98339019056fe60806040523480156200001157600080fd5b50604051620019c8380380620019c8833981810160405260208110156200003757600080fd5b50516001600160a01b03811662000095576040805162461bcd60e51b815260206004820152601f60248201527f5374616b6553696d706c6550726f78793a206c6f676963206973207a65726f00604482015290519081900360640190fd5b620000a081620000f8565b620000bb60008051602062001962833981519152806200016f565b620000d66000805160206200196283398151915233620001c1565b620000f16000805160206200196283398151915230620001c1565b50620002dd565b6200010e81620001d160201b620011451760201c565b6200014b5760405162461bcd60e51b8152600401808060200182810382526046815260200180620019826046913960600191505060405180910390fd5b7f360894a13ba1a3210667c828492db98dca3e2076cc3735a920a3ca505d382bbc55565b6000828152600d6020526040808220600201549051839285917fbd79b86ffe0ab8e8776151514217cd7cacd52c909f66475c3af44e129f0b00ff9190a46000918252600d602052604090912060020155565b620001cd8282620001d7565b5050565b3b151590565b6000828152600d60209081526040909120620001fe9183906200114b62000252821b17901c565b15620001cd576200020e62000272565b6001600160a01b0316816001600160a01b0316837f2f8788117e7eff1d82e926ec794901d17c78024a50270940304540a733656f0d60405160405180910390a45050565b600062000269836001600160a01b03841662000276565b90505b92915050565b3390565b6000620002848383620002c5565b620002bc575081546001818101845560008481526020808220909301849055845484825282860190935260409020919091556200026c565b5060006200026c565b60009081526001919091016020526040902054151590565b61167580620002ed6000396000f3fe6080604052600436106101d35760003560e01c806375b238fc116100f8578063acc3a93911610090578063acc3a93914610612578063b2d4d6a31461067f578063ca15c87314610694578063d5391393146106be578063d547741f146106d3578063dac3fc3f1461070c578063e7bf950c1461073f578063fbfa77cf146107df578063fc0c546a146107f4576101e2565b806375b238fc146104995780637cb00d25146104ae57806386989038146104da5780639010d07c146104ef57806391d148541461051f5780639a88be2f146105585780639d84ca35146105d3578063a1f5f50e146105e8578063a217fddf146105fd576101e2565b806341c04d5e1161016b57806341c04d5e1461038457806343b0934a1461039957806348cd4cb1146103ca578063567e98f9146103df5780635c60da1b146103f457806363a8fd8914610409578063683048351461041e578063704802751461043357806375829def14610466576101e2565b8063083c6323146101ea5780631785f53c146102115780632002727514610244578063248a9ca31461025957806324d7806c14610283578063282c51f3146102ca5780632f2ff15d146102df57806336568abe146103185780633659cfe614610351576101e2565b366101e2576101e0610809565b005b6101e0610809565b3480156101f657600080fd5b506101ff61088f565b60408051918252519081900360200190f35b34801561021d57600080fd5b506101e06004803603602081101561023457600080fd5b50356001600160a01b0316610895565b34801561025057600080fd5b506101ff6108f4565b34801561026557600080fd5b506101ff6004803603602081101561027c57600080fd5b50356108fa565b34801561028f57600080fd5b506102b6600480360360208110156102a657600080fd5b50356001600160a01b031661090f565b604080519115158252519081900360200190f35b3480156102d657600080fd5b506101ff61092f565b3480156102eb57600080fd5b506101e06004803603604081101561030257600080fd5b50803590602001356001600160a01b0316610953565b34801561032457600080fd5b506101e06004803603604081101561033b57600080fd5b50803590602001356001600160a01b03166109bf565b34801561035d57600080fd5b506101e06004803603602081101561037457600080fd5b50356001600160a01b0316610a20565b34801561039057600080fd5b506101ff610b66565b3480156103a557600080fd5b506103ae610b8a565b604080516001600160a01b039092168252519081900360200190f35b3480156103d657600080fd5b506101ff610b99565b3480156103eb57600080fd5b506101ff610b9f565b34801561040057600080fd5b506103ae610ba5565b34801561041557600080fd5b506102b6610bb4565b34801561042a57600080fd5b506103ae610bbd565b34801561043f57600080fd5b506101e06004803603602081101561045657600080fd5b50356001600160a01b0316610bcc565b34801561047257600080fd5b506101e06004803603602081101561048957600080fd5b50356001600160a01b0316610c28565b3480156104a557600080fd5b506101ff610d49565b3480156104ba57600080fd5b506101e0600480360360208110156104d157600080fd5b50351515610d5b565b3480156104e657600080fd5b506101ff610db2565b3480156104fb57600080fd5b506103ae6004803603604081101561051257600080fd5b5080359060200135610db8565b34801561052b57600080fd5b506102b66004803603604081101561054257600080fd5b50803590602001356001600160a01b0316610dd7565b34801561056457600080fd5b5061056d610def565b604080516001600160a01b0380891682528716602082015290810185606080838360005b838110156105a9578181015183820152602001610591565b50505050905001848152602001838152602001828152602001965050505050505060405180910390f35b3480156105df57600080fd5b506103ae610e45565b3480156105f457600080fd5b506102b6610e59565b34801561060957600080fd5b506101ff610e69565b34801561061e57600080fd5b506106456004803603602081101561063557600080fd5b50356001600160a01b0316610e6e565b604080519788526020880196909652868601949094526060860192909252608085015260a0840152151560c0830152519081900360e00190f35b34801561068b57600080fd5b506101ff610eae565b3480156106a057600080fd5b506101ff600480360360208110156106b757600080fd5b5035610eb4565b3480156106ca57600080fd5b506101ff610ecb565b3480156106df57600080fd5b506101e0600480360360408110156106f657600080fd5b50803590602001356001600160a01b0316610eef565b34801561071857600080fd5b506106456004803603602081101561072f57600080fd5b50356001600160a01b0316610f48565b34801561074b57600080fd5b506101e0600480360361010081101561076357600080fd5b81019080806080019060048060200260405190810160405280929190826004602002808284376000920191909152505060408051606081810190925292956001600160a01b038535169590949093608082019350916020909101906003908390839080828437600092019190915250919450610f919350505050565b3480156107eb57600080fd5b506103ae611127565b34801561080057600080fd5b506103ae611136565b6000610813611160565b90506001600160a01b038116158015906108305750600c5460ff16155b61086b5760405162461bcd60e51b81526004018080602001828103825260308152602001806115e16030913960400191505060405180910390fd5b3660008037600080366000845af43d6000803e80801561088a573d6000f35b3d6000fd5b60065481565b61089e3361090f565b6108d95760405162461bcd60e51b81526004018080602001828103825260228152602001806115296022913960400191505060405180910390fd5b6108f160008051602061157b833981519152826109bf565b50565b60045481565b6000908152600d602052604090206002015490565b600061092960008051602061157b83398151915283610dd7565b92915050565b7f9667e80708b6eeeb0053fa0cca44e028ff548e2a9f029edfeac87c118b08b7c881565b6000828152600d602052604090206002015461097690610971611185565b610dd7565b6109b15760405162461bcd60e51b815260040180806020018281038252602f8152602001806114d5602f913960400191505060405180910390fd5b6109bb8282611189565b5050565b6109c7611185565b6001600160a01b0316816001600160a01b031614610a165760405162461bcd60e51b815260040180806020018281038252602f815260200180611611602f913960400191505060405180910390fd5b6109bb82826111f2565b610a293361090f565b610a645760405162461bcd60e51b81526004018080602001828103825260228152602001806115296022913960400191505060405180910390fd5b6001600160a01b038116610abf576040805162461bcd60e51b815260206004820152601f60248201527f5374616b6553696d706c6550726f78793a20696e707574206973207a65726f00604482015290519081900360640190fd5b806001600160a01b0316610ad1611160565b6001600160a01b03161415610b26576040805162461bcd60e51b81526020600482015260166024820152755374616b6553696d706c6550726f78793a2073616d6560501b604482015290519081900360640190fd5b610b2f8161125b565b6040516001600160a01b038216907fbc7cd75a20ee27fd9adebab32041f755214dbc6bffa90cc0225b39da2e5c2d3b90600090a250565b7f52eafc11f6f81f86878bffd31109a0d92f37506527754f00788853ff9f63b13081565b6002546001600160a01b031681565b60055481565b60085481565b6000610baf611160565b905090565b600c5460ff1681565b6001546001600160a01b031681565b610bd53361090f565b610c105760405162461bcd60e51b81526004018080602001828103825260228152602001806115296022913960400191505060405180910390fd5b6108f160008051602061157b83398151915282610953565b610c313361090f565b610c6c5760405162461bcd60e51b81526004018080602001828103825260228152602001806115296022913960400191505060405180910390fd5b6001600160a01b038116610cc2576040805162461bcd60e51b815260206004820152601860248201527741636365737369626c653a207a65726f206164647265737360401b604482015290519081900360640190fd5b336001600160a01b0382161415610d19576040805162461bcd60e51b815260206004820152601660248201527520b1b1b2b9b9b4b136329d1039b0b6b29030b236b4b760511b604482015290519081900360640190fd5b610d3160008051602061157b83398151915282610953565b6108f160008051602061157b833981519152336109bf565b60008051602061157b83398151915281565b610d643361090f565b610d9f5760405162461bcd60e51b81526004018080602001828103825260228152602001806115296022913960400191505060405180910390fd5b600c805460ff1916911515919091179055565b600a5481565b6000828152600d60205260408120610dd090836112c3565b9392505050565b6000828152600d60205260408120610dd090836112cf565b600080610dfa611494565b5050600254600354604080516060810182526004548152600554602082015260065491810191909152600754600854600a546001600160a01b03958616979590941695509193909290565b600c5461010090046001600160a01b031681565b600c54600160a81b900460ff1681565b600081565b6009602052600090815260409020805460018201546002830154600384015460048501546005860154600690960154949593949293919290919060ff1687565b60075481565b6000818152600d60205260408120610929906112e4565b7ff0887ba65ee2024ea881d91b74c2450ef19e1557f03bed3ea9f16b037cbe2dc981565b6000828152600d6020526040902060020154610f0d90610971611185565b610a165760405162461bcd60e51b815260040180806020018281038252603081526020018061154b6030913960400191505060405180910390fd5b6001600160a01b03166000908152600960205260409020805460018201546002830154600384015460048501546005860154600690960154949693959294919390929160ff1690565b610f9a3361090f565b610fd55760405162461bcd60e51b81526004018080602001828103825260228152602001806115296022913960400191505060405180910390fd5b6000546001600160a01b03161561101d5760405162461bcd60e51b81526004018080602001828103825260258152602001806115046025913960400191505060405180910390fd5b60408301516001600160a01b03161580159061103d575060208101518151105b61108e576040805162461bcd60e51b815260206004820152601e60248201527f5374616b6553696d706c6550726f78793a20736574496e6974206661696c0000604482015290519081900360640190fd5b8251600080546001600160a01b03199081166001600160a01b0393841617909155602080860151600280548416918516919091179055604080870151600380548516918616919091179055606090960151600c8054610100600160a81b03191661010092861692909202919091179055600180549092169490921693909317909255805160045590810151600581905591015101600655565b6003546001600160a01b031681565b6000546001600160a01b031681565b3b151590565b6000610dd0836001600160a01b0384166112ef565b7f360894a13ba1a3210667c828492db98dca3e2076cc3735a920a3ca505d382bbc5490565b3390565b6000828152600d602052604090206111a1908261114b565b156109bb576111ae611185565b6001600160a01b0316816001600160a01b0316837f2f8788117e7eff1d82e926ec794901d17c78024a50270940304540a733656f0d60405160405180910390a45050565b6000828152600d6020526040902061120a9082611339565b156109bb57611217611185565b6001600160a01b0316816001600160a01b0316837ff6391f5c32d9c69d2a47ea670b442974b53935d1edc7fd64eb21e047a839171b60405160405180910390a45050565b61126481611145565b61129f5760405162461bcd60e51b815260040180806020018281038252604681526020018061159b6046913960600191505060405180910390fd5b7f360894a13ba1a3210667c828492db98dca3e2076cc3735a920a3ca505d382bbc55565b6000610dd0838361134e565b6000610dd0836001600160a01b0384166113b2565b6000610929826113ca565b60006112fb83836113b2565b61133157508154600181810184556000848152602080822090930184905584548482528286019093526040902091909155610929565b506000610929565b6000610dd0836001600160a01b0384166113ce565b815460009082106113905760405162461bcd60e51b81526004018080602001828103825260228152602001806114b36022913960400191505060405180910390fd5b82600001828154811061139f57fe5b9060005260206000200154905092915050565b60009081526001919091016020526040902054151590565b5490565b6000818152600183016020526040812054801561148a578354600019808301919081019060009087908390811061140157fe5b906000526020600020015490508087600001848154811061141e57fe5b60009182526020808320909101929092558281526001898101909252604090209084019055865487908061144e57fe5b60019003818190600052602060002001600090559055866001016000878152602001908152602001600020600090556001945050505050610929565b6000915050610929565b6040518060600160405280600390602082028036833750919291505056fe456e756d657261626c655365743a20696e646578206f7574206f6620626f756e6473416363657373436f6e74726f6c3a2073656e646572206d75737420626520616e2061646d696e20746f206772616e745374616b6553696d706c6550726f78793a20616c726561647920696e697469616c697a656441636365737369626c653a2043616c6c6572206973206e6f7420616e2061646d696e416363657373436f6e74726f6c3a2073656e646572206d75737420626520616e2061646d696e20746f207265766f6b65df8b4c520ffe197c5343c6f5aec59570151ef9a492f2c624fd45ddde6135ec4250726f7879426173653a2043616e6e6f742073657420612070726f787920696d706c656d656e746174696f6e20746f2061206e6f6e2d636f6e747261637420616464726573735374616b6553696d706c6550726f78793a20696d706c206973207a65726f204f522070726f78792069732066616c7365416363657373436f6e74726f6c3a2063616e206f6e6c792072656e6f756e636520726f6c657320666f722073656c66a26469706673582212203a7eb7dc691284b1f22913e5dbc36d1ac64133d0c8af34f69f62a18c5a90799664736f6c63430007060033df8b4c520ffe197c5343c6f5aec59570151ef9a492f2c624fd45ddde6135ec4250726f7879426173653a2043616e6e6f742073657420612070726f787920696d706c656d656e746174696f6e20746f2061206e6f6e2d636f6e74726163742061646472657373df8b4c520ffe197c5343c6f5aec59570151ef9a492f2c624fd45ddde6135ec42a2646970667358221220e65791cb7aaa806226ce24b2e7b2e0d4cc8dba803e8b52fa0f61c85d9199730b64736f6c63430007060033",
  "linkReferences": {},
  "deployedLinkReferences": {}
}