{
  "_format": "hh-sol-artifact-1",
  "contractName": "StakeVaultFactory",
  "sourceName": "contracts/factory/StakeVaultFactory.sol",
  "abi": [
    {
      "inputs": [
        {
          "internalType": "address",
          "name": "_stakeVaultLogic",
          "type": "address"
        }
      ],
      "stateMutability": "nonpayable",
      "type": "constructor"
    },
    {
      "anonymous": false,
      "inputs": [
        {
          "indexed": true,
          "internalType": "bytes32",
          "name": "role",
          "type": "bytes32"
        },
        {
          "indexed": true,
          "internalType": "bytes32",
          "name": "previousAdminRole",
          "type": "bytes32"
        },
        {
          "indexed": true,
          "internalType": "bytes32",
          "name": "newAdminRole",
          "type": "bytes32"
        }
      ],
      "name": "RoleAdminChanged",
      "type": "event"
    },
    {
      "anonymous": false,
      "inputs": [
        {
          "indexed": true,
          "internalType": "bytes32",
          "name": "role",
          "type": "bytes32"
        },
        {
          "indexed": true,
          "internalType": "address",
          "name": "account",
          "type": "address"
        },
        {
          "indexed": true,
          "internalType": "address",
          "name": "sender",
          "type": "address"
        }
      ],
      "name": "RoleGranted",
      "type": "event"
    },
    {
      "anonymous": false,
      "inputs": [
        {
          "indexed": true,
          "internalType": "bytes32",
          "name": "role",
          "type": "bytes32"
        },
        {
          "indexed": true,
          "internalType": "address",
          "name": "account",
          "type": "address"
        },
        {
          "indexed": true,
          "internalType": "address",
          "name": "sender",
          "type": "address"
        }
      ],
      "name": "RoleRevoked",
      "type": "event"
    },
    {
      "inputs": [],
      "name": "ADMIN_ROLE",
      "outputs": [
        {
          "internalType": "bytes32",
          "name": "",
          "type": "bytes32"
        }
      ],
      "stateMutability": "view",
      "type": "function"
    },
    {
      "inputs": [],
      "name": "BURNER_ROLE",
      "outputs": [
        {
          "internalType": "bytes32",
          "name": "",
          "type": "bytes32"
        }
      ],
      "stateMutability": "view",
      "type": "function"
    },
    {
      "inputs": [],
      "name": "DEFAULT_ADMIN_ROLE",
      "outputs": [
        {
          "internalType": "bytes32",
          "name": "",
          "type": "bytes32"
        }
      ],
      "stateMutability": "view",
      "type": "function"
    },
    {
      "inputs": [],
      "name": "MINTER_ROLE",
      "outputs": [
        {
          "internalType": "bytes32",
          "name": "",
          "type": "bytes32"
        }
      ],
      "stateMutability": "view",
      "type": "function"
    },
    {
      "inputs": [],
      "name": "PROJECT_ADMIN_ROLE",
      "outputs": [
        {
          "internalType": "bytes32",
          "name": "",
          "type": "bytes32"
        }
      ],
      "stateMutability": "view",
      "type": "function"
    },
    {
      "inputs": [
        {
          "internalType": "address",
          "name": "account",
          "type": "address"
        }
      ],
      "name": "addAdmin",
      "outputs": [],
      "stateMutability": "nonpayable",
      "type": "function"
    },
    {
      "inputs": [
        {
          "internalType": "uint256",
          "name": "_phase",
          "type": "uint256"
        },
        {
          "internalType": "address[4]",
          "name": "_addr",
          "type": "address[4]"
        },
        {
          "internalType": "uint256[4]",
          "name": "_intInfo",
          "type": "uint256[4]"
        },
        {
          "internalType": "address",
          "name": "owner",
          "type": "address"
        }
      ],
      "name": "create",
      "outputs": [
        {
          "internalType": "address",
          "name": "",
          "type": "address"
        }
      ],
      "stateMutability": "nonpayable",
      "type": "function"
    },
    {
      "inputs": [
        {
          "internalType": "uint256",
          "name": "_phase",
          "type": "uint256"
        },
        {
          "internalType": "address[2]",
          "name": "_addr",
          "type": "address[2]"
        },
        {
          "internalType": "uint256[3]",
          "name": "_intInfo",
          "type": "uint256[3]"
        },
        {
          "internalType": "string",
          "name": "_name",
          "type": "string"
        },
        {
          "internalType": "address",
          "name": "owner",
          "type": "address"
        }
      ],
      "name": "create2",
      "outputs": [
        {
          "internalType": "address",
          "name": "",
          "type": "address"
        }
      ],
      "stateMutability": "nonpayable",
      "type": "function"
    },
    {
      "inputs": [
        {
          "internalType": "bytes32",
          "name": "role",
          "type": "bytes32"
        }
      ],
      "name": "getRoleAdmin",
      "outputs": [
        {
          "internalType": "bytes32",
          "name": "",
          "type": "bytes32"
        }
      ],
      "stateMutability": "view",
      "type": "function"
    },
    {
      "inputs": [
        {
          "internalType": "bytes32",
          "name": "role",
          "type": "bytes32"
        },
        {
          "internalType": "uint256",
          "name": "index",
          "type": "uint256"
        }
      ],
      "name": "getRoleMember",
      "outputs": [
        {
          "internalType": "address",
          "name": "",
          "type": "address"
        }
      ],
      "stateMutability": "view",
      "type": "function"
    },
    {
      "inputs": [
        {
          "internalType": "bytes32",
          "name": "role",
          "type": "bytes32"
        }
      ],
      "name": "getRoleMemberCount",
      "outputs": [
        {
          "internalType": "uint256",
          "name": "",
          "type": "uint256"
        }
      ],
      "stateMutability": "view",
      "type": "function"
    },
    {
      "inputs": [
        {
          "internalType": "bytes32",
          "name": "role",
          "type": "bytes32"
        },
        {
          "internalType": "address",
          "name": "account",
          "type": "address"
        }
      ],
      "name": "grantRole",
      "outputs": [],
      "stateMutability": "nonpayable",
      "type": "function"
    },
    {
      "inputs": [
        {
          "internalType": "bytes32",
          "name": "role",
          "type": "bytes32"
        },
        {
          "internalType": "address",
          "name": "account",
          "type": "address"
        }
      ],
      "name": "hasRole",
      "outputs": [
        {
          "internalType": "bool",
          "name": "",
          "type": "bool"
        }
      ],
      "stateMutability": "view",
      "type": "function"
    },
    {
      "inputs": [
        {
          "internalType": "address",
          "name": "account",
          "type": "address"
        }
      ],
      "name": "isAdmin",
      "outputs": [
        {
          "internalType": "bool",
          "name": "",
          "type": "bool"
        }
      ],
      "stateMutability": "view",
      "type": "function"
    },
    {
      "inputs": [
        {
          "internalType": "address",
          "name": "account",
          "type": "address"
        }
      ],
      "name": "removeAdmin",
      "outputs": [],
      "stateMutability": "nonpayable",
      "type": "function"
    },
    {
      "inputs": [
        {
          "internalType": "bytes32",
          "name": "role",
          "type": "bytes32"
        },
        {
          "internalType": "address",
          "name": "account",
          "type": "address"
        }
      ],
      "name": "renounceRole",
      "outputs": [],
      "stateMutability": "nonpayable",
      "type": "function"
    },
    {
      "inputs": [
        {
          "internalType": "bytes32",
          "name": "role",
          "type": "bytes32"
        },
        {
          "internalType": "address",
          "name": "account",
          "type": "address"
        }
      ],
      "name": "revokeRole",
      "outputs": [],
      "stateMutability": "nonpayable",
      "type": "function"
    },
    {
      "inputs": [
        {
          "internalType": "uint256",
          "name": "_phase",
          "type": "uint256"
        },
        {
          "internalType": "address",
          "name": "_logic",
          "type": "address"
        }
      ],
      "name": "setVaultLogicByPhase",
      "outputs": [],
      "stateMutability": "nonpayable",
      "type": "function"
    },
    {
      "inputs": [
        {
          "internalType": "address",
          "name": "newAdmin",
          "type": "address"
        }
      ],
      "name": "transferAdmin",
      "outputs": [],
      "stateMutability": "nonpayable",
      "type": "function"
    },
    {
      "inputs": [
        {
          "internalType": "uint256",
          "name": "",
          "type": "uint256"
        }
      ],
      "name": "vaultLogics",
      "outputs": [
        {
          "internalType": "address",
          "name": "",
          "type": "address"
        }
      ],
      "stateMutability": "view",
      "type": "function"
    }
  ],
  "bytecode": "0x60806040523480156200001157600080fd5b5060405162004b5a38038062004b5a833981810160405260208110156200003757600080fd5b50516001600160a01b03811662000095576040805162461bcd60e51b815260206004820152601d60248201527f5374616b655661756c74466163746f72793a206c6f676963207a65726f000000604482015290519081900360640190fd5b600160008190526020527fcc69885fda6bcc1a4ace058b4a62bf5e179ea78fd58a1ccd71c22cc9b688792f80546001600160a01b0319166001600160a01b038316179055620000f460008051602062004b3a8339815191528062000116565b6200010f60008051602062004b3a8339815191523362000168565b506200027c565b600082815260208190526040808220600201549051839285917fbd79b86ffe0ab8e8776151514217cd7cacd52c909f66475c3af44e129f0b00ff9190a460009182526020829052604090912060020155565b62000174828262000178565b5050565b6000828152602081815260409091206200019d91839062000ff8620001f1821b17901c565b156200017457620001ad62000211565b6001600160a01b0316816001600160a01b0316837f2f8788117e7eff1d82e926ec794901d17c78024a50270940304540a733656f0d60405160405180910390a45050565b600062000208836001600160a01b03841662000215565b90505b92915050565b3390565b600062000223838362000264565b6200025b575081546001818101845560008481526020808220909301849055845484825282860190935260409020919091556200020b565b5060006200020b565b60009081526001919091016020526040902054151590565b6148ae806200028c6000396000f3fe60806040523480156200001157600080fd5b5060043610620001485760003560e01c806375b238fc11620000bd578063a217fddf116200007b578063a217fddf146200044a578063ca15c8731462000454578063d53913931462000474578063d547741f146200047e578063e282369814620004ad5762000148565b806375b238fc146200030257806383564531146200030c5780639010d07c14620003d557806390934a4314620003fb57806391d14854146200041b5762000148565b806336568abe116200010b57806336568abe146200022057806341c04d5e146200024f5780634b0ca20e14620002595780637048027514620002b057806375829def14620002d95762000148565b80631785f53c146200014d578063248a9ca3146200017857806324d7806c14620001aa578063282c51f314620001e75780632f2ff15d14620001f1575b600080fd5b62000176600480360360208110156200016557600080fd5b50356001600160a01b0316620004dc565b005b62000198600480360360208110156200019057600080fd5b503562000542565b60408051918252519081900360200190f35b620001d360048036036020811015620001c257600080fd5b50356001600160a01b031662000557565b604080519115158252519081900360200190f35b620001986200057a565b62000176600480360360408110156200020957600080fd5b50803590602001356001600160a01b03166200059e565b62000176600480360360408110156200023857600080fd5b50803590602001356001600160a01b031662000612565b6200019862000679565b6200029460048036036101408110156200027257600080fd5b50803590602081019060a081019061012001356001600160a01b03166200069d565b604080516001600160a01b039092168252519081900360200190f35b6200017660048036036020811015620002c857600080fd5b50356001600160a01b03166200097b565b6200017660048036036020811015620002f157600080fd5b50356001600160a01b0316620009de565b6200019862000b0b565b6200029460048036036101008110156200032557600080fd5b813591602081019160608201919081019060e0810160c08201356401000000008111156200035257600080fd5b8201836020820111156200036557600080fd5b803590602001918460018302840111640100000000831117156200038857600080fd5b91908080601f016020809104026020016040519081016040528093929190818152602001838380828437600092019190915250929550505090356001600160a01b0316915062000b1e9050565b6200029460048036036040811015620003ed57600080fd5b508035906020013562000e34565b62000294600480360360208110156200041357600080fd5b503562000e55565b620001d3600480360360408110156200043357600080fd5b50803590602001356001600160a01b031662000e70565b6200019862000e8a565b62000198600480360360208110156200046c57600080fd5b503562000e8f565b6200019862000ea8565b62000176600480360360408110156200049657600080fd5b50803590602001356001600160a01b031662000ecc565b6200017660048036036040811015620004c557600080fd5b50803590602001356001600160a01b031662000f2a565b620004e73362000557565b620005245760405162461bcd60e51b81526004018080602001828103825260228152602001806200478c6022913960400191505060405180910390fd5b6200053f6000805160206200482a8339815191528262000612565b50565b60009081526020819052604090206002015490565b6000620005746000805160206200482a8339815191528362000e70565b92915050565b7f9667e80708b6eeeb0053fa0cca44e028ff548e2a9f029edfeac87c118b08b7c881565b600082815260208190526040902060020154620005c590620005bf6200100f565b62000e70565b620006025760405162461bcd60e51b815260040180806020018281038252602f8152602001806200475d602f913960400191505060405180910390fd5b6200060e828262001013565b5050565b6200061c6200100f565b6001600160a01b0316816001600160a01b0316146200066d5760405162461bcd60e51b815260040180806020018281038252602f8152602001806200484a602f913960400191505060405180910390fd5b6200060e828262001081565b7f52eafc11f6f81f86878bffd31109a0d92f37506527754f00788853ff9f63b13081565b6000848152600160205260408120546001600160a01b0316620006f25760405162461bcd60e51b8152600401808060200182810382526024815260200180620048066024913960400191505060405180910390fd5b60008581526001602090815260408083205481516001600160a01b0389358116958a8601358216958b8601358316956060808e01358516968d3596938e013595928e013594918e013593919216906200074b90620012d6565b6001600160a01b03909116815260405190819003602001906000f08015801562000779573d6000803e3d6000fd5b5090506001600160a01b038116620007d8576040805162461bcd60e51b815260206004820152601d60248201527f5374616b655661756c74466163746f72793a2070726f7879207a65726f000000604482015290519081900360640190fd5b6040805163372666e560e21b81526001600160a01b038b811660048301528a8116602483015260448201879052606482018690526084820185905289811660a483015260c4820188905288811660e483015291519183169163dc999b94916101048082019260009290919082900301818387803b1580156200085957600080fd5b505af11580156200086e573d6000803e3d6000fd5b50505050806001600160a01b0316632f2ff15d6000805160206200482a8339815191528d6040518363ffffffff1660e01b815260040180838152602001826001600160a01b0316815260200192505050600060405180830381600087803b158015620008d957600080fd5b505af1158015620008ee573d6000803e3d6000fd5b50506040805163d547741f60e01b81526000805160206200482a833981519152600482015230602482015290516001600160a01b038516935063d547741f9250604480830192600092919082900301818387803b1580156200094f57600080fd5b505af115801562000964573d6000803e3d6000fd5b50929b505050505050505050505050949350505050565b620009863362000557565b620009c35760405162461bcd60e51b81526004018080602001828103825260228152602001806200478c6022913960400191505060405180910390fd5b6200053f6000805160206200482a833981519152826200059e565b620009e93362000557565b62000a265760405162461bcd60e51b81526004018080602001828103825260228152602001806200478c6022913960400191505060405180910390fd5b6001600160a01b03811662000a7d576040805162461bcd60e51b815260206004820152601860248201527741636365737369626c653a207a65726f206164647265737360401b604482015290519081900360640190fd5b336001600160a01b038216141562000ad5576040805162461bcd60e51b815260206004820152601660248201527520b1b1b2b9b9b4b136329d1039b0b6b29030b236b4b760511b604482015290519081900360640190fd5b62000af06000805160206200482a833981519152826200059e565b6200053f6000805160206200482a8339815191523362000612565b6000805160206200482a83398151915281565b6000858152600160205260408120546001600160a01b031662000b735760405162461bcd60e51b8152600401808060200182810382526025815260200180620047386025913960400191505060405180910390fd5b60008681526001602090815260408083205481516001600160a01b038a358116958b8601358216958b3595908c013594908c0135939192169062000bb790620012e4565b6001600160a01b03909116815260405190819003602001906000f08015801562000be5573d6000803e3d6000fd5b5090506001600160a01b03811662000c2f5760405162461bcd60e51b8152600401808060200182810382526028815260200180620047de6028913960400191505060405180910390fd5b806001600160a01b031663b90a762a87878787878f6040518763ffffffff1660e01b815260040180876001600160a01b03168152602001866001600160a01b0316815260200185815260200184815260200183815260200180602001828103825283818151815260200191508051906020019080838360005b8381101562000cc257818101518382015260200162000ca8565b50505050905090810190601f16801562000cf05780820380516001836020036101000a031916815260200191505b50975050505050505050600060405180830381600087803b15801562000d1557600080fd5b505af115801562000d2a573d6000803e3d6000fd5b50505050806001600160a01b0316632f2ff15d6000805160206200482a8339815191528a6040518363ffffffff1660e01b815260040180838152602001826001600160a01b0316815260200192505050600060405180830381600087803b15801562000d9557600080fd5b505af115801562000daa573d6000803e3d6000fd5b50506040805163d547741f60e01b81526000805160206200482a833981519152600482015230602482015290516001600160a01b038516935063d547741f9250604480830192600092919082900301818387803b15801562000e0b57600080fd5b505af115801562000e20573d6000803e3d6000fd5b50929e9d5050505050505050505050505050565b600082815260208190526040812062000e4e9083620010ef565b9392505050565b6001602052600090815260409020546001600160a01b031681565b600082815260208190526040812062000e4e9083620010fd565b600081565b6000818152602081905260408120620005749062001114565b7ff0887ba65ee2024ea881d91b74c2450ef19e1557f03bed3ea9f16b037cbe2dc981565b60008281526020819052604090206002015462000eed90620005bf6200100f565b6200066d5760405162461bcd60e51b8152600401808060200182810382526030815260200180620047ae6030913960400191505060405180910390fd5b62000f353362000557565b62000f725760405162461bcd60e51b81526004018080602001828103825260228152602001806200478c6022913960400191505060405180910390fd5b806001600160a01b03811662000fc9576040805162461bcd60e51b81526020600482015260176024820152765374616b655661756c74466163746f72793a207a65726f60481b604482015290519081900360640190fd5b5060009182526001602052604090912080546001600160a01b0319166001600160a01b03909216919091179055565b600062000e4e836001600160a01b03841662001121565b3390565b60008281526020819052604090206200102d908262000ff8565b156200060e576200103d6200100f565b6001600160a01b0316816001600160a01b0316837f2f8788117e7eff1d82e926ec794901d17c78024a50270940304540a733656f0d60405160405180910390a45050565b60008281526020819052604090206200109b908262001170565b156200060e57620010ab6200100f565b6001600160a01b0316816001600160a01b0316837ff6391f5c32d9c69d2a47ea670b442974b53935d1edc7fd64eb21e047a839171b60405160405180910390a45050565b600062000e4e838362001187565b600062000e4e836001600160a01b038416620011ee565b6000620005748262001206565b60006200112f8383620011ee565b620011675750815460018181018455600084815260208082209093018490558454848252828601909352604090209190915562000574565b50600062000574565b600062000e4e836001600160a01b0384166200120a565b81546000908210620011cb5760405162461bcd60e51b8152600401808060200182810382526022815260200180620047166022913960400191505060405180910390fd5b826000018281548110620011db57fe5b9060005260206000200154905092915050565b60009081526001919091016020526040902054151590565b5490565b60008181526001830160205260408120548015620012cb57835460001980830191908101906000908790839081106200123f57fe5b90600052602060002001549050808760000184815481106200125d57fe5b6000918252602080832090910192909255828152600189810190925260409020908401905586548790806200128e57fe5b6001900381819060005260206000200160009055905586600101600087815260200190815260200160002060009055600194505050505062000574565b600091505062000574565b611aaf80620012f383390190565b6119748062002da28339019056fe60806040523480156200001157600080fd5b5060405162001aaf38038062001aaf833981810160405260208110156200003757600080fd5b50516001600160a01b03811662000095576040805162461bcd60e51b815260206004820152601a60248201527f5374616b653150726f78793a206c6f676963206973207a65726f000000000000604482015290519081900360640190fd5b620000a081620000f8565b620000bb60008051602062001a49833981519152806200016f565b620000d660008051602062001a4983398151915233620001c1565b620000f160008051602062001a4983398151915230620001c1565b50620002db565b6200010e81620001d160201b6200122c1760201c565b6200014b5760405162461bcd60e51b815260040180806020018281038252604681526020018062001a696046913960600191505060405180910390fd5b7f360894a13ba1a3210667c828492db98dca3e2076cc3735a920a3ca505d382bbc55565b600082815260208190526040808220600201549051839285917fbd79b86ffe0ab8e8776151514217cd7cacd52c909f66475c3af44e129f0b00ff9190a460009182526020829052604090912060020155565b620001cd8282620001d7565b5050565b3b151590565b600082815260208181526040909120620001fc9183906200123262000250821b17901c565b15620001cd576200020c62000270565b6001600160a01b0316816001600160a01b0316837f2f8788117e7eff1d82e926ec794901d17c78024a50270940304540a733656f0d60405160405180910390a45050565b600062000267836001600160a01b03841662000274565b90505b92915050565b3390565b6000620002828383620002c3565b620002ba575081546001818101845560008481526020808220909301849055845484825282860190935260409020919091556200026a565b5060006200026a565b60009081526001919091016020526040902054151590565b61175e80620002eb6000396000f3fe6080604052600436106101ee5760003560e01c80637048027511610113578063a217fddf116100ab578063d105bf851161006f578063d105bf85146106c0578063d5391393146106d5578063d547741f146106ea578063dc999b9414610723578063dfbf9def1461078757610237565b8063a217fddf14610642578063b03dc51414610657578063b8c766b81461066c578063b97af0db14610681578063ca15c8731461069657610237565b806370480275146104f357806375829def1461052657806375b238fc146105595780637cb00d251461056e57806389f395de1461059a5780639010d07c146105af57806391d14854146105df5780639d84ca3514610618578063a1f5f50e1461062d57610237565b806336568abe1161018657806336568abe146103df5780633659cfe6146104185780633a76eb371461044b57806341c04d5e1461046057806343b0934a146104755780634b5e7cd51461048a5780635c60da1b1461049f5780635f1bd62a146104b457806363a8fd89146104de57610237565b8063153099d0146102415780631785f53c1461027d57806320027275146102b0578063248a9ca3146102c557806324d7806c146102ef578063282c51f314610336578063294f5fa31461034b5780632f2ff15d14610391578063355274ea146103ca57610237565b36610237576040805162461bcd60e51b815260206004820152601460248201527331b0b73737ba103932b1b2b4bb329022ba3432b960611b604482015290519081900360640190fd5b61023f610855565b005b34801561024d57600080fd5b5061026b6004803603602081101561026457600080fd5b50356108db565b60408051918252519081900360200190f35b34801561028957600080fd5b5061023f600480360360208110156102a057600080fd5b50356001600160a01b03166108fc565b3480156102bc57600080fd5b5061026b61095b565b3480156102d157600080fd5b5061026b600480360360208110156102e857600080fd5b5035610961565b3480156102fb57600080fd5b506103226004803603602081101561031257600080fd5b50356001600160a01b0316610976565b604080519115158252519081900360200190f35b34801561034257600080fd5b5061026b610996565b34801561035757600080fd5b506103756004803603602081101561036e57600080fd5b50356109ba565b604080516001600160a01b039092168252519081900360200190f35b34801561039d57600080fd5b5061023f600480360360408110156103b457600080fd5b50803590602001356001600160a01b03166109e4565b3480156103d657600080fd5b5061026b610a50565b3480156103eb57600080fd5b5061023f6004803603604081101561040257600080fd5b50803590602001356001600160a01b0316610a56565b34801561042457600080fd5b5061023f6004803603602081101561043b57600080fd5b50356001600160a01b0316610ab7565b34801561045757600080fd5b5061026b610bfc565b34801561046c57600080fd5b5061026b610c02565b34801561048157600080fd5b50610375610c26565b34801561049657600080fd5b5061026b610c35565b3480156104ab57600080fd5b50610375610c3b565b3480156104c057600080fd5b5061026b600480360360208110156104d757600080fd5b5035610c4a565b3480156104ea57600080fd5b50610322610c5c565b3480156104ff57600080fd5b5061023f6004803603602081101561051657600080fd5b50356001600160a01b0316610c65565b34801561053257600080fd5b5061023f6004803603602081101561054957600080fd5b50356001600160a01b0316610cc1565b34801561056557600080fd5b5061026b610de2565b34801561057a57600080fd5b5061023f6004803603602081101561059157600080fd5b50351515610df4565b3480156105a657600080fd5b50610375610e4b565b3480156105bb57600080fd5b50610375600480360360408110156105d257600080fd5b5080359060200135610e5a565b3480156105eb57600080fd5b506103226004803603604081101561060257600080fd5b50803590602001356001600160a01b0316610e79565b34801561062457600080fd5b50610375610e91565b34801561063957600080fd5b50610322610ea0565b34801561064e57600080fd5b5061026b610eae565b34801561066357600080fd5b5061026b610eb3565b34801561067857600080fd5b50610322610eb9565b34801561068d57600080fd5b5061026b610ec2565b3480156106a257600080fd5b5061026b600480360360208110156106b957600080fd5b5035610ec8565b3480156106cc57600080fd5b5061026b610edf565b3480156106e157600080fd5b5061026b610ee5565b3480156106f657600080fd5b5061023f6004803603604081101561070d57600080fd5b50803590602001356001600160a01b0316610f09565b34801561072f57600080fd5b5061023f600480360361010081101561074757600080fd5b506001600160a01b038135811691602081013582169160408201359160608101359160808201359160a081013582169160c08201359160e0013516610f62565b34801561079357600080fd5b506107ba600480360360208110156107aa57600080fd5b50356001600160a01b031661116d565b6040518080602001878152602001868152602001858152602001848152602001838152602001828103825288818151815260200191508051906020019080838360005b838110156108155781810151838201526020016107fd565b50505050905090810190601f1680156108425780820380516001836020036101000a031916815260200191505b5097505050505050505060405180910390f35b600061085f611247565b90506001600160a01b0381161580159061087c575060115460ff16155b6108b75760405162461bcd60e51b81526004018080602001828103825260278152602001806116696027913960400191505060405180910390fd5b3660008037600080366000845af43d6000803e8080156108d6573d6000f35b3d6000fd5b600e81815481106108eb57600080fd5b600091825260209091200154905081565b61090533610976565b6109405760405162461bcd60e51b81526004018080602001828103825260228152602001806115cd6022913960400191505060405180910390fd5b61095860008051602061164983398151915282610a56565b50565b60045481565b60009081526020819052604090206002015490565b600061099060008051602061164983398151915283610e79565b92915050565b7f9667e80708b6eeeb0053fa0cca44e028ff548e2a9f029edfeac87c118b08b7c881565b600c81815481106109ca57600080fd5b6000918252602090912001546001600160a01b0316905081565b600082815260208190526040902060020154610a0790610a0261126c565b610e79565b610a425760405162461bcd60e51b815260040180806020018281038252602f81526020018061159e602f913960400191505060405180910390fd5b610a4c8282611270565b5050565b60035481565b610a5e61126c565b6001600160a01b0316816001600160a01b031614610aad5760405162461bcd60e51b815260040180806020018281038252602f8152602001806116fa602f913960400191505060405180910390fd5b610a4c82826112d9565b610ac033610976565b610afb5760405162461bcd60e51b81526004018080602001828103825260228152602001806115cd6022913960400191505060405180910390fd5b6001600160a01b038116610b56576040805162461bcd60e51b815260206004820152601e60248201527f5374616b655661756c7450726f78793a20696e707574206973207a65726f0000604482015290519081900360640190fd5b806001600160a01b0316610b68611247565b6001600160a01b03161415610bbc576040805162461bcd60e51b81526020600482015260156024820152745374616b655661756c7450726f78793a2073616d6560581b604482015290519081900360640190fd5b610bc581611342565b6040516001600160a01b038216907fbc7cd75a20ee27fd9adebab32041f755214dbc6bffa90cc0225b39da2e5c2d3b90600090a250565b60065481565b7f52eafc11f6f81f86878bffd31109a0d92f37506527754f00788853ff9f63b13081565b6002546001600160a01b031681565b60055481565b6000610c45611247565b905090565b600f6020526000908152604090205481565b60115460ff1681565b610c6e33610976565b610ca95760405162461bcd60e51b81526004018080602001828103825260228152602001806115cd6022913960400191505060405180910390fd5b610958600080516020611649833981519152826109e4565b610cca33610976565b610d055760405162461bcd60e51b81526004018080602001828103825260228152602001806115cd6022913960400191505060405180910390fd5b6001600160a01b038116610d5b576040805162461bcd60e51b815260206004820152601860248201527741636365737369626c653a207a65726f206164647265737360401b604482015290519081900360640190fd5b336001600160a01b0382161415610db2576040805162461bcd60e51b815260206004820152601660248201527520b1b1b2b9b9b4b136329d1039b0b6b29030b236b4b760511b604482015290519081900360640190fd5b610dca600080516020611649833981519152826109e4565b61095860008051602061164983398151915233610a56565b60008051602061164983398151915281565b610dfd33610976565b610e385760405162461bcd60e51b81526004018080602001828103825260228152602001806115cd6022913960400191505060405180910390fd5b6011805460ff1916911515919091179055565b6001546001600160a01b031681565b6000828152602081905260408120610e7290836113aa565b9392505050565b6000828152602081905260408120610e7290836113b6565b600b546001600160a01b031681565b601154610100900460ff1681565b600081565b60075481565b60095460ff1681565b600a5481565b6000818152602081905260408120610990906113cb565b60085481565b7ff0887ba65ee2024ea881d91b74c2450ef19e1557f03bed3ea9f16b037cbe2dc981565b600082815260208190526040902060020154610f2790610a0261126c565b610aad5760405162461bcd60e51b81526004018080602001828103825260308152602001806116196030913960400191505060405180910390fd5b610f6b33610976565b610fa65760405162461bcd60e51b81526004018080602001828103825260228152602001806115cd6022913960400191505060405180910390fd5b6001546001600160a01b031615610fee5760405162461bcd60e51b81526004018080602001828103825260248152602001806116d66024913960400191505060405180910390fd5b6001600160a01b0388161580159061100e57506001600160a01b03831615155b61105f576040805162461bcd60e51b815260206004820152601e60248201527f5374616b655661756c7450726f78793a20696e707574206973207a65726f0000604482015290519081900360640190fd5b600086116110b0576040805162461bcd60e51b81526020600482015260196024820152785374616b65315661756c743a205f636170206973207a65726f60381b604482015290519081900360640190fd5b83851080156110bf5750600084115b6110fa5760405162461bcd60e51b815260040180806020018281038252602a8152602001806115ef602a913960400191505060405180910390fd5b600180546001600160a01b03808b166001600160a01b0319928316179092556003889055600280548a841690831617905560048790556005869055600a849055600b805492841692909116919091179055611163600080516020611649833981519152846109e4565b5050505050505050565b600d6020908152600091825260409182902080548351601f600260001961010060018616150201909316929092049182018490048402810184019094528084529092918391908301828280156112045780601f106111d957610100808354040283529160200191611204565b820191906000526020600020905b8154815290600101906020018083116111e757829003601f168201915b5050505050908060010154908060020154908060030154908060040154908060050154905086565b3b151590565b6000610e72836001600160a01b0384166113d6565b7f360894a13ba1a3210667c828492db98dca3e2076cc3735a920a3ca505d382bbc5490565b3390565b60008281526020819052604090206112889082611232565b15610a4c5761129561126c565b6001600160a01b0316816001600160a01b0316837f2f8788117e7eff1d82e926ec794901d17c78024a50270940304540a733656f0d60405160405180910390a45050565b60008281526020819052604090206112f19082611420565b15610a4c576112fe61126c565b6001600160a01b0316816001600160a01b0316837ff6391f5c32d9c69d2a47ea670b442974b53935d1edc7fd64eb21e047a839171b60405160405180910390a45050565b61134b8161122c565b6113865760405162461bcd60e51b81526004018080602001828103825260468152602001806116906046913960600191505060405180910390fd5b7f360894a13ba1a3210667c828492db98dca3e2076cc3735a920a3ca505d382bbc55565b6000610e728383611435565b6000610e72836001600160a01b038416611499565b6000610990826114b1565b60006113e28383611499565b61141857508154600181810184556000848152602080822090930184905584548482528286019093526040902091909155610990565b506000610990565b6000610e72836001600160a01b0384166114b5565b815460009082106114775760405162461bcd60e51b815260040180806020018281038252602281526020018061157c6022913960400191505060405180910390fd5b82600001828154811061148657fe5b9060005260206000200154905092915050565b60009081526001919091016020526040902054151590565b5490565b6000818152600183016020526040812054801561157157835460001980830191908101906000908790839081106114e857fe5b906000526020600020015490508087600001848154811061150557fe5b60009182526020808320909101929092558281526001898101909252604090209084019055865487908061153557fe5b60019003818190600052602060002001600090559055866001016000878152602001908152602001600020600090556001945050505050610990565b600091505061099056fe456e756d657261626c655365743a20696e646578206f7574206f6620626f756e6473416363657373436f6e74726f6c3a2073656e646572206d75737420626520616e2061646d696e20746f206772616e7441636365737369626c653a2043616c6c6572206973206e6f7420616e2061646d696e5374616b655661756c7450726f78793a207374617274426c6f636b20697320756e617661696c61626c65416363657373436f6e74726f6c3a2073656e646572206d75737420626520616e2061646d696e20746f207265766f6b65df8b4c520ffe197c5343c6f5aec59570151ef9a492f2c624fd45ddde6135ec425374616b655661756c7450726f78793a20696d706c204f522070726f78792069732066616c736550726f7879426173653a2043616e6e6f742073657420612070726f787920696d706c656d656e746174696f6e20746f2061206e6f6e2d636f6e747261637420616464726573735374616b655661756c7450726f78793a20616c726561647920696e697469616c697a6564416363657373436f6e74726f6c3a2063616e206f6e6c792072656e6f756e636520726f6c657320666f722073656c66a2646970667358221220f1927b322fec5739bb81d6a4a40a759d5c8ae5ff469846b24538c174e3b3692964736f6c63430007060033df8b4c520ffe197c5343c6f5aec59570151ef9a492f2c624fd45ddde6135ec4250726f7879426173653a2043616e6e6f742073657420612070726f787920696d706c656d656e746174696f6e20746f2061206e6f6e2d636f6e7472616374206164647265737360806040523480156200001157600080fd5b506040516200197438038062001974833981810160405260208110156200003757600080fd5b50516001600160a01b03811662000095576040805162461bcd60e51b815260206004820152601f60248201527f5374616b65325661756c7450726f78793a206c6f676963206973207a65726f00604482015290519081900360640190fd5b620000a081620000dd565b620000bb6000805160206200190e8339815191528062000154565b620000d66000805160206200190e83398151915233620001a6565b50620002c0565b620000f381620001b660201b620010931760201c565b620001305760405162461bcd60e51b81526004018080602001828103825260468152602001806200192e6046913960600191505060405180910390fd5b7f360894a13ba1a3210667c828492db98dca3e2076cc3735a920a3ca505d382bbc55565b600082815260208190526040808220600201549051839285917fbd79b86ffe0ab8e8776151514217cd7cacd52c909f66475c3af44e129f0b00ff9190a460009182526020829052604090912060020155565b620001b28282620001bc565b5050565b3b151590565b600082815260208181526040909120620001e19183906200109962000235821b17901c565b15620001b257620001f162000255565b6001600160a01b0316816001600160a01b0316837f2f8788117e7eff1d82e926ec794901d17c78024a50270940304540a733656f0d60405160405180910390a45050565b60006200024c836001600160a01b03841662000259565b90505b92915050565b3390565b6000620002678383620002a8565b6200029f575081546001818101845560008481526020808220909301849055845484825282860190935260409020919091556200024f565b5060006200024f565b60009081526001919091016020526040902054151590565b61163e80620002d06000396000f3fe6080604052600436106101b25760003560e01c806370480275116100ed578063a1f5f50e11610090578063a1f5f50e146105fd578063a217fddf14610612578063af182fce14610627578063b90a762a1461063c578063b97af0db1461071b578063ca15c87314610730578063d53913931461075a578063d547741f1461076f578063f0091509146107a8576101fb565b806370480275146104c357806375829def146104f657806375b238fc146105295780637cb00d251461053e578063851073671461056a57806389f395de1461057f5780639010d07c1461059457806391d14854146105c4576101fb565b8063355274ea11610155578063355274ea146103bd57806336568abe146103d25780633659cfe61461040b57806341c04d5e1461043e5780634ce77abe146104535780635c60da1b146104685780635f139e3f1461049957806363a8fd89146104ae576101fb565b806301f88d261461020557806306fdde031461022c5780631785f53c146102b6578063248a9ca3146102e957806324d7806c146103135780632736b3911461035a578063282c51f31461036f5780632f2ff15d14610384576101fb565b366101fb576040805162461bcd60e51b815260206004820152601460248201527331b0b73737ba103932b1b2b4bb329022ba3432b960611b604482015290519081900360640190fd5b6102036107bd565b005b34801561021157600080fd5b5061021a610843565b60408051918252519081900360200190f35b34801561023857600080fd5b50610241610849565b6040805160208082528351818301528351919283929083019185019080838360005b8381101561027b578181015183820152602001610263565b50505050905090810190601f1680156102a85780820380516001836020036101000a031916815260200191505b509250505060405180910390f35b3480156102c257600080fd5b50610203600480360360208110156102d957600080fd5b50356001600160a01b03166108d4565b3480156102f557600080fd5b5061021a6004803603602081101561030c57600080fd5b5035610933565b34801561031f57600080fd5b506103466004803603602081101561033657600080fd5b50356001600160a01b0316610948565b604080519115158252519081900360200190f35b34801561036657600080fd5b5061021a610968565b34801561037b57600080fd5b5061021a61096e565b34801561039057600080fd5b50610203600480360360408110156103a757600080fd5b50803590602001356001600160a01b0316610992565b3480156103c957600080fd5b5061021a6109fe565b3480156103de57600080fd5b50610203600480360360408110156103f557600080fd5b50803590602001356001600160a01b0316610a04565b34801561041757600080fd5b506102036004803603602081101561042e57600080fd5b50356001600160a01b0316610a65565b34801561044a57600080fd5b5061021a610bab565b34801561045f57600080fd5b5061021a610bcf565b34801561047457600080fd5b5061047d610bd5565b604080516001600160a01b039092168252519081900360200190f35b3480156104a557600080fd5b5061021a610be4565b3480156104ba57600080fd5b50610346610bea565b3480156104cf57600080fd5b50610203600480360360208110156104e657600080fd5b50356001600160a01b0316610bf3565b34801561050257600080fd5b506102036004803603602081101561051957600080fd5b50356001600160a01b0316610c4f565b34801561053557600080fd5b5061021a610d70565b34801561054a57600080fd5b506102036004803603602081101561056157600080fd5b50351515610d82565b34801561057657600080fd5b5061047d610dd9565b34801561058b57600080fd5b5061047d610de8565b3480156105a057600080fd5b5061047d600480360360408110156105b757600080fd5b5080359060200135610df7565b3480156105d057600080fd5b50610346600480360360408110156105e757600080fd5b50803590602001356001600160a01b0316610e16565b34801561060957600080fd5b50610346610e2e565b34801561061e57600080fd5b5061021a610e3c565b34801561063357600080fd5b5061021a610e41565b34801561064857600080fd5b50610203600480360360c081101561065f57600080fd5b6001600160a01b0382358116926020810135909116916040820135916060810135916080820135919081019060c0810160a08201356401000000008111156106a657600080fd5b8201836020820111156106b857600080fd5b803590602001918460018302840111640100000000831117156106da57600080fd5b91908080601f016020809104026020016040519081016040528093929190818152602001838380828437600092019190915250929550610e47945050505050565b34801561072757600080fd5b5061021a610ff3565b34801561073c57600080fd5b5061021a6004803603602081101561075357600080fd5b5035610ff9565b34801561076657600080fd5b5061021a611010565b34801561077b57600080fd5b506102036004803603604081101561079257600080fd5b50803590602001356001600160a01b0316611034565b3480156107b457600080fd5b5061021a61108d565b60006107c76110ae565b90506001600160a01b038116158015906107e45750600d5460ff16155b61081f5760405162461bcd60e51b81526004018080602001828103825260288152602001806115276028913960400191505060405180910390fd5b3660008037600080366000845af43d6000803e80801561083e573d6000f35b3d6000fd5b60045481565b6002805460408051602060018416156101000260001901909316849004601f810184900484028201840190925281815292918301828280156108cc5780601f106108a1576101008083540402835291602001916108cc565b820191906000526020600020905b8154815290600101906020018083116108af57829003601f168201915b505050505081565b6108dd33610948565b6109185760405162461bcd60e51b81526004018080602001828103825260228152602001806114d56022913960400191505060405180910390fd5b61093060008051602061157483398151915282610a04565b50565b60009081526020819052604090206002015490565b600061096260008051602061157483398151915283610e16565b92915050565b60055481565b7f9667e80708b6eeeb0053fa0cca44e028ff548e2a9f029edfeac87c118b08b7c881565b6000828152602081905260409020600201546109b5906109b06110d3565b610e16565b6109f05760405162461bcd60e51b815260040180806020018281038252602f8152602001806114a6602f913960400191505060405180910390fd5b6109fa82826110d7565b5050565b60035481565b610a0c6110d3565b6001600160a01b0316816001600160a01b031614610a5b5760405162461bcd60e51b815260040180806020018281038252602f8152602001806115da602f913960400191505060405180910390fd5b6109fa8282611140565b610a6e33610948565b610aa95760405162461bcd60e51b81526004018080602001828103825260228152602001806114d56022913960400191505060405180910390fd5b6001600160a01b038116610b04576040805162461bcd60e51b815260206004820152601f60248201527f5374616b65325661756c7450726f78793a20696e707574206973207a65726f00604482015290519081900360640190fd5b806001600160a01b0316610b166110ae565b6001600160a01b03161415610b6b576040805162461bcd60e51b81526020600482015260166024820152755374616b65325661756c7450726f78793a2073616d6560501b604482015290519081900360640190fd5b610b74816111a9565b6040516001600160a01b038216907fbc7cd75a20ee27fd9adebab32041f755214dbc6bffa90cc0225b39da2e5c2d3b90600090a250565b7f52eafc11f6f81f86878bffd31109a0d92f37506527754f00788853ff9f63b13081565b60065481565b6000610bdf6110ae565b905090565b60095481565b600d5460ff1681565b610bfc33610948565b610c375760405162461bcd60e51b81526004018080602001828103825260228152602001806114d56022913960400191505060405180910390fd5b61093060008051602061157483398151915282610992565b610c5833610948565b610c935760405162461bcd60e51b81526004018080602001828103825260228152602001806114d56022913960400191505060405180910390fd5b6001600160a01b038116610ce9576040805162461bcd60e51b815260206004820152601860248201527741636365737369626c653a207a65726f206164647265737360401b604482015290519081900360640190fd5b336001600160a01b0382161415610d40576040805162461bcd60e51b815260206004820152601660248201527520b1b1b2b9b9b4b136329d1039b0b6b29030b236b4b760511b604482015290519081900360640190fd5b610d5860008051602061157483398151915282610992565b61093060008051602061157483398151915233610a04565b60008051602061157483398151915281565b610d8b33610948565b610dc65760405162461bcd60e51b81526004018080602001828103825260228152602001806114d56022913960400191505060405180910390fd5b600d805460ff1916911515919091179055565b6008546001600160a01b031681565b6001546001600160a01b031681565b6000828152602081905260408120610e0f9083611211565b9392505050565b6000828152602081905260408120610e0f908361121d565b600d54610100900460ff1681565b600081565b600a5481565b610e5033610948565b610e8b5760405162461bcd60e51b81526004018080602001828103825260228152602001806114d56022913960400191505060405180910390fd5b6001546001600160a01b031615610ed35760405162461bcd60e51b815260040180806020018281038252602581526020018061154f6025913960400191505060405180910390fd5b6001600160a01b03861615801590610ef357506001600160a01b03851615155b610f44576040805162461bcd60e51b815260206004820152601f60248201527f5374616b65325661756c7450726f78793a20696e707574206973207a65726f00604482015290519081900360640190fd5b60008311610f95576040805162461bcd60e51b81526020600482015260196024820152785374616b65315661756c743a205f636170206973207a65726f60381b604482015290519081900360640190fd5b600180546001600160a01b0319166001600160a01b0388161790556003839055600784905560068290558051610fd29060029060208401906113e2565b50610feb60008051602061157483398151915286610992565b505050505050565b60075481565b600081815260208190526040812061096290611232565b7ff0887ba65ee2024ea881d91b74c2450ef19e1557f03bed3ea9f16b037cbe2dc981565b600082815260208190526040902060020154611052906109b06110d3565b610a5b5760405162461bcd60e51b81526004018080602001828103825260308152602001806114f76030913960400191505060405180910390fd5b600b5481565b3b151590565b6000610e0f836001600160a01b03841661123d565b7f360894a13ba1a3210667c828492db98dca3e2076cc3735a920a3ca505d382bbc5490565b3390565b60008281526020819052604090206110ef9082611099565b156109fa576110fc6110d3565b6001600160a01b0316816001600160a01b0316837f2f8788117e7eff1d82e926ec794901d17c78024a50270940304540a733656f0d60405160405180910390a45050565b60008281526020819052604090206111589082611287565b156109fa576111656110d3565b6001600160a01b0316816001600160a01b0316837ff6391f5c32d9c69d2a47ea670b442974b53935d1edc7fd64eb21e047a839171b60405160405180910390a45050565b6111b281611093565b6111ed5760405162461bcd60e51b81526004018080602001828103825260468152602001806115946046913960600191505060405180910390fd5b7f360894a13ba1a3210667c828492db98dca3e2076cc3735a920a3ca505d382bbc55565b6000610e0f838361129c565b6000610e0f836001600160a01b038416611300565b600061096282611318565b60006112498383611300565b61127f57508154600181810184556000848152602080822090930184905584548482528286019093526040902091909155610962565b506000610962565b6000610e0f836001600160a01b03841661131c565b815460009082106112de5760405162461bcd60e51b81526004018080602001828103825260228152602001806114846022913960400191505060405180910390fd5b8260000182815481106112ed57fe5b9060005260206000200154905092915050565b60009081526001919091016020526040902054151590565b5490565b600081815260018301602052604081205480156113d8578354600019808301919081019060009087908390811061134f57fe5b906000526020600020015490508087600001848154811061136c57fe5b60009182526020808320909101929092558281526001898101909252604090209084019055865487908061139c57fe5b60019003818190600052602060002001600090559055866001016000878152602001908152602001600020600090556001945050505050610962565b6000915050610962565b828054600181600116156101000203166002900490600052602060002090601f016020900481019282611418576000855561145e565b82601f1061143157805160ff191683800117855561145e565b8280016001018555821561145e579182015b8281111561145e578251825591602001919060010190611443565b5061146a92915061146e565b5090565b5b8082111561146a576000815560010161146f56fe456e756d657261626c655365743a20696e646578206f7574206f6620626f756e6473416363657373436f6e74726f6c3a2073656e646572206d75737420626520616e2061646d696e20746f206772616e7441636365737369626c653a2043616c6c6572206973206e6f7420616e2061646d696e416363657373436f6e74726f6c3a2073656e646572206d75737420626520616e2061646d696e20746f207265766f6b655374616b65325661756c7450726f78793a20696d706c204f522070726f78792069732066616c73655374616b65325661756c7450726f78793a20616c726561647920696e697469616c697a6564df8b4c520ffe197c5343c6f5aec59570151ef9a492f2c624fd45ddde6135ec4250726f7879426173653a2043616e6e6f742073657420612070726f787920696d706c656d656e746174696f6e20746f2061206e6f6e2d636f6e74726163742061646472657373416363657373436f6e74726f6c3a2063616e206f6e6c792072656e6f756e636520726f6c657320666f722073656c66a2646970667358221220359473764abb9a83f724859620dddec5b3c9bae9006d2362f524d26b4ce7f0b764736f6c63430007060033df8b4c520ffe197c5343c6f5aec59570151ef9a492f2c624fd45ddde6135ec4250726f7879426173653a2043616e6e6f742073657420612070726f787920696d706c656d656e746174696f6e20746f2061206e6f6e2d636f6e74726163742061646472657373456e756d657261626c655365743a20696e646578206f7574206f6620626f756e64735374616b655661756c74466163746f72793a207a65726f207661756c7432206c6f67696320416363657373436f6e74726f6c3a2073656e646572206d75737420626520616e2061646d696e20746f206772616e7441636365737369626c653a2043616c6c6572206973206e6f7420616e2061646d696e416363657373436f6e74726f6c3a2073656e646572206d75737420626520616e2061646d696e20746f207265766f6b655374616b655661756c74466163746f72793a205374616b65325661756c7450726f7879207a65726f5374616b655661756c74466163746f72793a207a65726f207661756c74206c6f67696320df8b4c520ffe197c5343c6f5aec59570151ef9a492f2c624fd45ddde6135ec42416363657373436f6e74726f6c3a2063616e206f6e6c792072656e6f756e636520726f6c657320666f722073656c66a26469706673582212208a9a0e689c92e804ee51545642a863345476f736ecda84d3891a71da48986c8464736f6c63430007060033df8b4c520ffe197c5343c6f5aec59570151ef9a492f2c624fd45ddde6135ec42",
  "linkReferences": {},
  "deployedLinkReferences": {}
}