{
  "_format": "hh-sol-artifact-1",
  "contractName": "AccessiblePlusCommon",
  "sourceName": "contracts/common/AccessiblePlusCommon.sol",
  "abi": [
    {
      "anonymous": false,
      "inputs": [
        {
          "indexed": true,
          "internalType": "bytes32",
          "name": "role",
          "type": "bytes32"
        },
        {
          "indexed": true,
          "internalType": "bytes32",
          "name": "previousAdminRole",
          "type": "bytes32"
        },
        {
          "indexed": true,
          "internalType": "bytes32",
          "name": "newAdminRole",
          "type": "bytes32"
        }
      ],
      "name": "RoleAdminChanged",
      "type": "event"
    },
    {
      "anonymous": false,
      "inputs": [
        {
          "indexed": true,
          "internalType": "bytes32",
          "name": "role",
          "type": "bytes32"
        },
        {
          "indexed": true,
          "internalType": "address",
          "name": "account",
          "type": "address"
        },
        {
          "indexed": true,
          "internalType": "address",
          "name": "sender",
          "type": "address"
        }
      ],
      "name": "RoleGranted",
      "type": "event"
    },
    {
      "anonymous": false,
      "inputs": [
        {
          "indexed": true,
          "internalType": "bytes32",
          "name": "role",
          "type": "bytes32"
        },
        {
          "indexed": true,
          "internalType": "address",
          "name": "account",
          "type": "address"
        },
        {
          "indexed": true,
          "internalType": "address",
          "name": "sender",
          "type": "address"
        }
      ],
      "name": "RoleRevoked",
      "type": "event"
    },
    {
      "inputs": [],
      "name": "ADMIN_ROLE",
      "outputs": [
        {
          "internalType": "bytes32",
          "name": "",
          "type": "bytes32"
        }
      ],
      "stateMutability": "view",
      "type": "function"
    },
    {
      "inputs": [],
      "name": "BURNER_ROLE",
      "outputs": [
        {
          "internalType": "bytes32",
          "name": "",
          "type": "bytes32"
        }
      ],
      "stateMutability": "view",
      "type": "function"
    },
    {
      "inputs": [],
      "name": "DEFAULT_ADMIN_ROLE",
      "outputs": [
        {
          "internalType": "bytes32",
          "name": "",
          "type": "bytes32"
        }
      ],
      "stateMutability": "view",
      "type": "function"
    },
    {
      "inputs": [],
      "name": "MINTER_ROLE",
      "outputs": [
        {
          "internalType": "bytes32",
          "name": "",
          "type": "bytes32"
        }
      ],
      "stateMutability": "view",
      "type": "function"
    },
    {
      "inputs": [],
      "name": "PROJECT_ADMIN_ROLE",
      "outputs": [
        {
          "internalType": "bytes32",
          "name": "",
          "type": "bytes32"
        }
      ],
      "stateMutability": "view",
      "type": "function"
    },
    {
      "inputs": [
        {
          "internalType": "address",
          "name": "account",
          "type": "address"
        }
      ],
      "name": "addAdmin",
      "outputs": [],
      "stateMutability": "nonpayable",
      "type": "function"
    },
    {
      "inputs": [
        {
          "internalType": "address",
          "name": "account",
          "type": "address"
        }
      ],
      "name": "addBurner",
      "outputs": [],
      "stateMutability": "nonpayable",
      "type": "function"
    },
    {
      "inputs": [
        {
          "internalType": "address",
          "name": "account",
          "type": "address"
        }
      ],
      "name": "addMinter",
      "outputs": [],
      "stateMutability": "nonpayable",
      "type": "function"
    },
    {
      "inputs": [
        {
          "internalType": "bytes32",
          "name": "role",
          "type": "bytes32"
        }
      ],
      "name": "getRoleAdmin",
      "outputs": [
        {
          "internalType": "bytes32",
          "name": "",
          "type": "bytes32"
        }
      ],
      "stateMutability": "view",
      "type": "function"
    },
    {
      "inputs": [
        {
          "internalType": "bytes32",
          "name": "role",
          "type": "bytes32"
        },
        {
          "internalType": "uint256",
          "name": "index",
          "type": "uint256"
        }
      ],
      "name": "getRoleMember",
      "outputs": [
        {
          "internalType": "address",
          "name": "",
          "type": "address"
        }
      ],
      "stateMutability": "view",
      "type": "function"
    },
    {
      "inputs": [
        {
          "internalType": "bytes32",
          "name": "role",
          "type": "bytes32"
        }
      ],
      "name": "getRoleMemberCount",
      "outputs": [
        {
          "internalType": "uint256",
          "name": "",
          "type": "uint256"
        }
      ],
      "stateMutability": "view",
      "type": "function"
    },
    {
      "inputs": [
        {
          "internalType": "bytes32",
          "name": "role",
          "type": "bytes32"
        },
        {
          "internalType": "address",
          "name": "account",
          "type": "address"
        }
      ],
      "name": "grantRole",
      "outputs": [],
      "stateMutability": "nonpayable",
      "type": "function"
    },
    {
      "inputs": [
        {
          "internalType": "bytes32",
          "name": "role",
          "type": "bytes32"
        },
        {
          "internalType": "address",
          "name": "account",
          "type": "address"
        }
      ],
      "name": "hasRole",
      "outputs": [
        {
          "internalType": "bool",
          "name": "",
          "type": "bool"
        }
      ],
      "stateMutability": "view",
      "type": "function"
    },
    {
      "inputs": [
        {
          "internalType": "address",
          "name": "account",
          "type": "address"
        }
      ],
      "name": "isAdmin",
      "outputs": [
        {
          "internalType": "bool",
          "name": "",
          "type": "bool"
        }
      ],
      "stateMutability": "view",
      "type": "function"
    },
    {
      "inputs": [
        {
          "internalType": "address",
          "name": "account",
          "type": "address"
        }
      ],
      "name": "isBurner",
      "outputs": [
        {
          "internalType": "bool",
          "name": "",
          "type": "bool"
        }
      ],
      "stateMutability": "view",
      "type": "function"
    },
    {
      "inputs": [
        {
          "internalType": "address",
          "name": "account",
          "type": "address"
        }
      ],
      "name": "isMinter",
      "outputs": [
        {
          "internalType": "bool",
          "name": "",
          "type": "bool"
        }
      ],
      "stateMutability": "view",
      "type": "function"
    },
    {
      "inputs": [
        {
          "internalType": "address",
          "name": "account",
          "type": "address"
        }
      ],
      "name": "removeAdmin",
      "outputs": [],
      "stateMutability": "nonpayable",
      "type": "function"
    },
    {
      "inputs": [
        {
          "internalType": "address",
          "name": "account",
          "type": "address"
        }
      ],
      "name": "removeBurner",
      "outputs": [],
      "stateMutability": "nonpayable",
      "type": "function"
    },
    {
      "inputs": [
        {
          "internalType": "address",
          "name": "account",
          "type": "address"
        }
      ],
      "name": "removeMinter",
      "outputs": [],
      "stateMutability": "nonpayable",
      "type": "function"
    },
    {
      "inputs": [
        {
          "internalType": "bytes32",
          "name": "role",
          "type": "bytes32"
        },
        {
          "internalType": "address",
          "name": "account",
          "type": "address"
        }
      ],
      "name": "renounceRole",
      "outputs": [],
      "stateMutability": "nonpayable",
      "type": "function"
    },
    {
      "inputs": [
        {
          "internalType": "bytes32",
          "name": "role",
          "type": "bytes32"
        },
        {
          "internalType": "address",
          "name": "account",
          "type": "address"
        }
      ],
      "name": "revokeRole",
      "outputs": [],
      "stateMutability": "nonpayable",
      "type": "function"
    },
    {
      "inputs": [
        {
          "internalType": "address",
          "name": "newAdmin",
          "type": "address"
        }
      ],
      "name": "transferAdmin",
      "outputs": [],
      "stateMutability": "nonpayable",
      "type": "function"
    }
  ],
  "bytecode": "0x608060405234801561001057600080fd5b50610de8806100206000396000f3fe608060405234801561001057600080fd5b50600436106101425760003560e01c806375829def116100b8578063a217fddf1161007c578063a217fddf14610397578063aa271e1a1461039f578063ca15c873146103c5578063d5391393146103e2578063d547741f146103ea578063f44637ba1461041657610142565b806375829def146102d857806375b238fc146102fe5780639010d07c1461030657806391d1485414610345578063983b2d561461037157610142565b80632f2ff15d1161010a5780632f2ff15d146102065780633092afd51461023257806336568abe1461025857806341c04d5e146102845780634334614a1461028c57806370480275146102b257610142565b806302846858146101475780631785f53c1461016f578063248a9ca31461019557806324d7806c146101c4578063282c51f3146101fe575b600080fd5b61016d6004803603602081101561015d57600080fd5b50356001600160a01b031661043c565b005b61016d6004803603602081101561018557600080fd5b50356001600160a01b031661049b565b6101b2600480360360208110156101ab57600080fd5b50356104f7565b60408051918252519081900360200190f35b6101ea600480360360208110156101da57600080fd5b50356001600160a01b031661050c565b604080519115158252519081900360200190f35b6101b261052c565b61016d6004803603604081101561021c57600080fd5b50803590602001356001600160a01b031661053e565b61016d6004803603602081101561024857600080fd5b50356001600160a01b03166105aa565b61016d6004803603604081101561026e57600080fd5b50803590602001356001600160a01b0316610606565b6101b2610667565b6101ea600480360360208110156102a257600080fd5b50356001600160a01b031661068b565b61016d600480360360208110156102c857600080fd5b50356001600160a01b03166106a5565b61016d600480360360208110156102ee57600080fd5b50356001600160a01b0316610701565b6101b2610822565b6103296004803603604081101561031c57600080fd5b5080359060200135610834565b604080516001600160a01b039092168252519081900360200190f35b6101ea6004803603604081101561035b57600080fd5b50803590602001356001600160a01b0316610853565b61016d6004803603602081101561038757600080fd5b50356001600160a01b031661086b565b6101b26108c7565b6101ea600480360360208110156103b557600080fd5b50356001600160a01b03166108cc565b6101b2600480360360208110156103db57600080fd5b50356108e6565b6101b26108fd565b61016d6004803603604081101561040057600080fd5b50803590602001356001600160a01b031661090f565b61016d6004803603602081101561042c57600080fd5b50356001600160a01b0316610968565b6104453361050c565b6104805760405162461bcd60e51b8152600401808060200182810382526022815260200180610cd26022913960400191505060405180910390fd5b610498600080516020610d648339815191528261090f565b50565b6104a43361050c565b6104df5760405162461bcd60e51b8152600401808060200182810382526022815260200180610cd26022913960400191505060405180910390fd5b610498600080516020610d4483398151915282610606565b60009081526020819052604090206002015490565b6000610526600080516020610d4483398151915283610853565b92915050565b600080516020610d6483398151915281565b6000828152602081905260409020600201546105619061055c6109c4565b610853565b61059c5760405162461bcd60e51b815260040180806020018281038252602f815260200180610ca3602f913960400191505060405180910390fd5b6105a682826109c8565b5050565b6105b33361050c565b6105ee5760405162461bcd60e51b8152600401808060200182810382526022815260200180610cd26022913960400191505060405180910390fd5b610498600080516020610cf48339815191528261090f565b61060e6109c4565b6001600160a01b0316816001600160a01b03161461065d5760405162461bcd60e51b815260040180806020018281038252602f815260200180610d84602f913960400191505060405180910390fd5b6105a68282610a31565b7f52eafc11f6f81f86878bffd31109a0d92f37506527754f00788853ff9f63b13081565b6000610526600080516020610d6483398151915283610853565b6106ae3361050c565b6106e95760405162461bcd60e51b8152600401808060200182810382526022815260200180610cd26022913960400191505060405180910390fd5b610498600080516020610d448339815191528261053e565b61070a3361050c565b6107455760405162461bcd60e51b8152600401808060200182810382526022815260200180610cd26022913960400191505060405180910390fd5b6001600160a01b03811661079b576040805162461bcd60e51b815260206004820152601860248201527741636365737369626c653a207a65726f206164647265737360401b604482015290519081900360640190fd5b336001600160a01b03821614156107f2576040805162461bcd60e51b815260206004820152601660248201527520b1b1b2b9b9b4b136329d1039b0b6b29030b236b4b760511b604482015290519081900360640190fd5b61080a600080516020610d448339815191528261053e565b610498600080516020610d4483398151915233610606565b600080516020610d4483398151915281565b600082815260208190526040812061084c9083610a9a565b9392505050565b600082815260208190526040812061084c9083610aa6565b6108743361050c565b6108af5760405162461bcd60e51b8152600401808060200182810382526022815260200180610cd26022913960400191505060405180910390fd5b610498600080516020610cf48339815191528261053e565b600081565b6000610526600080516020610cf483398151915283610853565b600081815260208190526040812061052690610abb565b600080516020610cf483398151915281565b60008281526020819052604090206002015461092d9061055c6109c4565b61065d5760405162461bcd60e51b8152600401808060200182810382526030815260200180610d146030913960400191505060405180910390fd5b6109713361050c565b6109ac5760405162461bcd60e51b8152600401808060200182810382526022815260200180610cd26022913960400191505060405180910390fd5b610498600080516020610d648339815191528261053e565b3390565b60008281526020819052604090206109e09082610ac6565b156105a6576109ed6109c4565b6001600160a01b0316816001600160a01b0316837f2f8788117e7eff1d82e926ec794901d17c78024a50270940304540a733656f0d60405160405180910390a45050565b6000828152602081905260409020610a499082610adb565b156105a657610a566109c4565b6001600160a01b0316816001600160a01b0316837ff6391f5c32d9c69d2a47ea670b442974b53935d1edc7fd64eb21e047a839171b60405160405180910390a45050565b600061084c8383610af0565b600061084c836001600160a01b038416610b54565b600061052682610b6c565b600061084c836001600160a01b038416610b70565b600061084c836001600160a01b038416610bba565b81546000908210610b325760405162461bcd60e51b8152600401808060200182810382526022815260200180610c816022913960400191505060405180910390fd5b826000018281548110610b4157fe5b9060005260206000200154905092915050565b60009081526001919091016020526040902054151590565b5490565b6000610b7c8383610b54565b610bb257508154600181810184556000848152602080822090930184905584548482528286019093526040902091909155610526565b506000610526565b60008181526001830160205260408120548015610c765783546000198083019190810190600090879083908110610bed57fe5b9060005260206000200154905080876000018481548110610c0a57fe5b600091825260208083209091019290925582815260018981019092526040902090840190558654879080610c3a57fe5b60019003818190600052602060002001600090559055866001016000878152602001908152602001600020600090556001945050505050610526565b600091505061052656fe456e756d657261626c655365743a20696e646578206f7574206f6620626f756e6473416363657373436f6e74726f6c3a2073656e646572206d75737420626520616e2061646d696e20746f206772616e7441636365737369626c653a2043616c6c6572206973206e6f7420616e2061646d696ef0887ba65ee2024ea881d91b74c2450ef19e1557f03bed3ea9f16b037cbe2dc9416363657373436f6e74726f6c3a2073656e646572206d75737420626520616e2061646d696e20746f207265766f6b65df8b4c520ffe197c5343c6f5aec59570151ef9a492f2c624fd45ddde6135ec429667e80708b6eeeb0053fa0cca44e028ff548e2a9f029edfeac87c118b08b7c8416363657373436f6e74726f6c3a2063616e206f6e6c792072656e6f756e636520726f6c657320666f722073656c66a26469706673582212204de72242c7b4d41b1969f6fd06539d7120cb4c27bcf0c623d003772694c722a964736f6c63430007060033",
  "linkReferences": {},
  "deployedLinkReferences": {}
}