{
  "_format": "hh-sol-artifact-1",
  "contractName": "PublicSale",
  "sourceName": "contracts/sale/PublicSale.sol",
  "abi": [
    {
      "anonymous": false,
      "inputs": [
        {
          "indexed": true,
          "internalType": "address",
          "name": "from",
          "type": "address"
        },
        {
          "indexed": false,
          "internalType": "uint256",
          "name": "tier",
          "type": "uint256"
        }
      ],
      "name": "AddedWhiteList",
      "type": "event"
    },
    {
      "anonymous": false,
      "inputs": [
        {
          "indexed": true,
          "internalType": "address",
          "name": "from",
          "type": "address"
        },
        {
          "indexed": false,
          "internalType": "uint256",
          "name": "amount",
          "type": "uint256"
        }
      ],
      "name": "Claimed",
      "type": "event"
    },
    {
      "anonymous": false,
      "inputs": [
        {
          "indexed": true,
          "internalType": "address",
          "name": "from",
          "type": "address"
        },
        {
          "indexed": false,
          "internalType": "uint256",
          "name": "amount",
          "type": "uint256"
        },
        {
          "indexed": false,
          "internalType": "uint256",
          "name": "liquidityAmount",
          "type": "uint256"
        }
      ],
      "name": "DepositWithdrawal",
      "type": "event"
    },
    {
      "anonymous": false,
      "inputs": [
        {
          "indexed": true,
          "internalType": "address",
          "name": "from",
          "type": "address"
        },
        {
          "indexed": false,
          "internalType": "uint256",
          "name": "amount",
          "type": "uint256"
        }
      ],
      "name": "Deposited",
      "type": "event"
    },
    {
      "anonymous": false,
      "inputs": [
        {
          "indexed": true,
          "internalType": "address",
          "name": "from",
          "type": "address"
        },
        {
          "indexed": false,
          "internalType": "uint256",
          "name": "amount",
          "type": "uint256"
        }
      ],
      "name": "ExclusiveSaled",
      "type": "event"
    },
    {
      "anonymous": false,
      "inputs": [
        {
          "indexed": true,
          "internalType": "bytes32",
          "name": "role",
          "type": "bytes32"
        },
        {
          "indexed": true,
          "internalType": "bytes32",
          "name": "previousAdminRole",
          "type": "bytes32"
        },
        {
          "indexed": true,
          "internalType": "bytes32",
          "name": "newAdminRole",
          "type": "bytes32"
        }
      ],
      "name": "RoleAdminChanged",
      "type": "event"
    },
    {
      "anonymous": false,
      "inputs": [
        {
          "indexed": true,
          "internalType": "bytes32",
          "name": "role",
          "type": "bytes32"
        },
        {
          "indexed": true,
          "internalType": "address",
          "name": "account",
          "type": "address"
        },
        {
          "indexed": true,
          "internalType": "address",
          "name": "sender",
          "type": "address"
        }
      ],
      "name": "RoleGranted",
      "type": "event"
    },
    {
      "anonymous": false,
      "inputs": [
        {
          "indexed": true,
          "internalType": "bytes32",
          "name": "role",
          "type": "bytes32"
        },
        {
          "indexed": true,
          "internalType": "address",
          "name": "account",
          "type": "address"
        },
        {
          "indexed": true,
          "internalType": "address",
          "name": "sender",
          "type": "address"
        }
      ],
      "name": "RoleRevoked",
      "type": "event"
    },
    {
      "anonymous": false,
      "inputs": [
        {
          "indexed": true,
          "internalType": "address",
          "name": "from",
          "type": "address"
        },
        {
          "indexed": false,
          "internalType": "uint256",
          "name": "amount",
          "type": "uint256"
        }
      ],
      "name": "Withdrawal",
      "type": "event"
    },
    {
      "inputs": [],
      "name": "ADMIN_ROLE",
      "outputs": [
        {
          "internalType": "bytes32",
          "name": "",
          "type": "bytes32"
        }
      ],
      "stateMutability": "view",
      "type": "function"
    },
    {
      "inputs": [],
      "name": "BURNER_ROLE",
      "outputs": [
        {
          "internalType": "bytes32",
          "name": "",
          "type": "bytes32"
        }
      ],
      "stateMutability": "view",
      "type": "function"
    },
    {
      "inputs": [],
      "name": "DEFAULT_ADMIN_ROLE",
      "outputs": [
        {
          "internalType": "bytes32",
          "name": "",
          "type": "bytes32"
        }
      ],
      "stateMutability": "view",
      "type": "function"
    },
    {
      "inputs": [],
      "name": "MINTER_ROLE",
      "outputs": [
        {
          "internalType": "bytes32",
          "name": "",
          "type": "bytes32"
        }
      ],
      "stateMutability": "view",
      "type": "function"
    },
    {
      "inputs": [],
      "name": "PROJECT_ADMIN_ROLE",
      "outputs": [
        {
          "internalType": "bytes32",
          "name": "",
          "type": "bytes32"
        }
      ],
      "stateMutability": "view",
      "type": "function"
    },
    {
      "inputs": [
        {
          "internalType": "bytes",
          "name": "data",
          "type": "bytes"
        }
      ],
      "name": "_decodeApproveData",
      "outputs": [
        {
          "internalType": "uint256",
          "name": "approveData",
          "type": "uint256"
        }
      ],
      "stateMutability": "pure",
      "type": "function"
    },
    {
      "inputs": [
        {
          "internalType": "uint256",
          "name": "v",
          "type": "uint256"
        }
      ],
      "name": "_toWAD",
      "outputs": [
        {
          "internalType": "uint256",
          "name": "",
          "type": "uint256"
        }
      ],
      "stateMutability": "pure",
      "type": "function"
    },
    {
      "inputs": [
        {
          "internalType": "address",
          "name": "account",
          "type": "address"
        }
      ],
      "name": "addAdmin",
      "outputs": [],
      "stateMutability": "nonpayable",
      "type": "function"
    },
    {
      "inputs": [
        {
          "internalType": "address",
          "name": "_owner",
          "type": "address"
        }
      ],
      "name": "addProxyAdmin",
      "outputs": [],
      "stateMutability": "nonpayable",
      "type": "function"
    },
    {
      "inputs": [],
      "name": "addWhiteList",
      "outputs": [],
      "stateMutability": "nonpayable",
      "type": "function"
    },
    {
      "inputs": [],
      "name": "adminWithdraw",
      "outputs": [
        {
          "internalType": "bool",
          "name": "",
          "type": "bool"
        }
      ],
      "stateMutability": "view",
      "type": "function"
    },
    {
      "inputs": [
        {
          "internalType": "address",
          "name": "_account",
          "type": "address"
        },
        {
          "internalType": "uint256",
          "name": "_round",
          "type": "uint256"
        }
      ],
      "name": "calculClaimAmount",
      "outputs": [
        {
          "internalType": "uint256",
          "name": "_reward",
          "type": "uint256"
        },
        {
          "internalType": "uint256",
          "name": "_totalClaim",
          "type": "uint256"
        },
        {
          "internalType": "uint256",
          "name": "_refundAmount",
          "type": "uint256"
        }
      ],
      "stateMutability": "view",
      "type": "function"
    },
    {
      "inputs": [
        {
          "internalType": "address",
          "name": "_account",
          "type": "address"
        },
        {
          "internalType": "uint256",
          "name": "_amount",
          "type": "uint256"
        }
      ],
      "name": "calculOpenSaleAmount",
      "outputs": [
        {
          "internalType": "uint256",
          "name": "",
          "type": "uint256"
        }
      ],
      "stateMutability": "view",
      "type": "function"
    },
    {
      "inputs": [
        {
          "internalType": "uint256",
          "name": "_amount",
          "type": "uint256"
        }
      ],
      "name": "calculPayToken",
      "outputs": [
        {
          "internalType": "uint256",
          "name": "",
          "type": "uint256"
        }
      ],
      "stateMutability": "view",
      "type": "function"
    },
    {
      "inputs": [
        {
          "internalType": "uint256",
          "name": "_amount",
          "type": "uint256"
        }
      ],
      "name": "calculSaleToken",
      "outputs": [
        {
          "internalType": "uint256",
          "name": "",
          "type": "uint256"
        }
      ],
      "stateMutability": "view",
      "type": "function"
    },
    {
      "inputs": [
        {
          "internalType": "address",
          "name": "_address",
          "type": "address"
        }
      ],
      "name": "calculTier",
      "outputs": [
        {
          "internalType": "uint256",
          "name": "",
          "type": "uint256"
        }
      ],
      "stateMutability": "view",
      "type": "function"
    },
    {
      "inputs": [
        {
          "internalType": "address",
          "name": "_address",
          "type": "address"
        }
      ],
      "name": "calculTierAmount",
      "outputs": [
        {
          "internalType": "uint256",
          "name": "",
          "type": "uint256"
        }
      ],
      "stateMutability": "view",
      "type": "function"
    },
    {
      "inputs": [
        {
          "internalType": "address",
          "name": "_address",
          "type": "address"
        }
      ],
      "name": "changeTONOwner",
      "outputs": [],
      "stateMutability": "nonpayable",
      "type": "function"
    },
    {
      "inputs": [],
      "name": "changeTOS",
      "outputs": [
        {
          "internalType": "uint256",
          "name": "",
          "type": "uint256"
        }
      ],
      "stateMutability": "view",
      "type": "function"
    },
    {
      "inputs": [],
      "name": "claim",
      "outputs": [],
      "stateMutability": "nonpayable",
      "type": "function"
    },
    {
      "inputs": [],
      "name": "claimFirst",
      "outputs": [
        {
          "internalType": "uint256",
          "name": "",
          "type": "uint256"
        }
      ],
      "stateMutability": "view",
      "type": "function"
    },
    {
      "inputs": [],
      "name": "claimInterval",
      "outputs": [
        {
          "internalType": "uint256",
          "name": "",
          "type": "uint256"
        }
      ],
      "stateMutability": "view",
      "type": "function"
    },
    {
      "inputs": [
        {
          "internalType": "uint256",
          "name": "",
          "type": "uint256"
        }
      ],
      "name": "claimPercents",
      "outputs": [
        {
          "internalType": "uint256",
          "name": "",
          "type": "uint256"
        }
      ],
      "stateMutability": "view",
      "type": "function"
    },
    {
      "inputs": [],
      "name": "claimPeriod",
      "outputs": [
        {
          "internalType": "uint256",
          "name": "",
          "type": "uint256"
        }
      ],
      "stateMutability": "view",
      "type": "function"
    },
    {
      "inputs": [
        {
          "internalType": "uint256",
          "name": "",
          "type": "uint256"
        }
      ],
      "name": "claimTimes",
      "outputs": [
        {
          "internalType": "uint256",
          "name": "",
          "type": "uint256"
        }
      ],
      "stateMutability": "view",
      "type": "function"
    },
    {
      "inputs": [],
      "name": "currentRound",
      "outputs": [
        {
          "internalType": "uint256",
          "name": "round",
          "type": "uint256"
        }
      ],
      "stateMutability": "view",
      "type": "function"
    },
    {
      "inputs": [],
      "name": "delayTime",
      "outputs": [
        {
          "internalType": "uint256",
          "name": "",
          "type": "uint256"
        }
      ],
      "stateMutability": "view",
      "type": "function"
    },
    {
      "inputs": [],
      "name": "deployTime",
      "outputs": [
        {
          "internalType": "uint256",
          "name": "",
          "type": "uint256"
        }
      ],
      "stateMutability": "view",
      "type": "function"
    },
    {
      "inputs": [
        {
          "internalType": "address",
          "name": "_sender",
          "type": "address"
        },
        {
          "internalType": "uint256",
          "name": "_amount",
          "type": "uint256"
        }
      ],
      "name": "deposit",
      "outputs": [],
      "stateMutability": "nonpayable",
      "type": "function"
    },
    {
      "inputs": [],
      "name": "depositWithdraw",
      "outputs": [],
      "stateMutability": "nonpayable",
      "type": "function"
    },
    {
      "inputs": [
        {
          "internalType": "uint256",
          "name": "",
          "type": "uint256"
        }
      ],
      "name": "depositors",
      "outputs": [
        {
          "internalType": "address",
          "name": "",
          "type": "address"
        }
      ],
      "stateMutability": "view",
      "type": "function"
    },
    {
      "inputs": [
        {
          "internalType": "uint256",
          "name": "_round",
          "type": "uint256"
        }
      ],
      "name": "distributionByRound",
      "outputs": [
        {
          "internalType": "uint256",
          "name": "",
          "type": "uint256"
        }
      ],
      "stateMutability": "view",
      "type": "function"
    },
    {
      "inputs": [
        {
          "internalType": "uint256",
          "name": "startRound",
          "type": "uint256"
        },
        {
          "internalType": "uint256",
          "name": "endRound",
          "type": "uint256"
        }
      ],
      "name": "distributionByRounds",
      "outputs": [
        {
          "internalType": "uint256[]",
          "name": "",
          "type": "uint256[]"
        }
      ],
      "stateMutability": "view",
      "type": "function"
    },
    {
      "inputs": [],
      "name": "endAddWhiteTime",
      "outputs": [
        {
          "internalType": "uint256",
          "name": "",
          "type": "uint256"
        }
      ],
      "stateMutability": "view",
      "type": "function"
    },
    {
      "inputs": [],
      "name": "endDepositTime",
      "outputs": [
        {
          "internalType": "uint256",
          "name": "",
          "type": "uint256"
        }
      ],
      "stateMutability": "view",
      "type": "function"
    },
    {
      "inputs": [],
      "name": "endExclusiveTime",
      "outputs": [
        {
          "internalType": "uint256",
          "name": "",
          "type": "uint256"
        }
      ],
      "stateMutability": "view",
      "type": "function"
    },
    {
      "inputs": [
        {
          "internalType": "address",
          "name": "_sender",
          "type": "address"
        },
        {
          "internalType": "uint256",
          "name": "_amount",
          "type": "uint256"
        }
      ],
      "name": "exclusiveSale",
      "outputs": [],
      "stateMutability": "nonpayable",
      "type": "function"
    },
    {
      "inputs": [
        {
          "internalType": "bytes32",
          "name": "role",
          "type": "bytes32"
        }
      ],
      "name": "getRoleAdmin",
      "outputs": [
        {
          "internalType": "bytes32",
          "name": "",
          "type": "bytes32"
        }
      ],
      "stateMutability": "view",
      "type": "function"
    },
    {
      "inputs": [
        {
          "internalType": "bytes32",
          "name": "role",
          "type": "bytes32"
        },
        {
          "internalType": "uint256",
          "name": "index",
          "type": "uint256"
        }
      ],
      "name": "getRoleMember",
      "outputs": [
        {
          "internalType": "address",
          "name": "",
          "type": "address"
        }
      ],
      "stateMutability": "view",
      "type": "function"
    },
    {
      "inputs": [
        {
          "internalType": "bytes32",
          "name": "role",
          "type": "bytes32"
        }
      ],
      "name": "getRoleMemberCount",
      "outputs": [
        {
          "internalType": "uint256",
          "name": "",
          "type": "uint256"
        }
      ],
      "stateMutability": "view",
      "type": "function"
    },
    {
      "inputs": [],
      "name": "getToken",
      "outputs": [
        {
          "internalType": "address",
          "name": "",
          "type": "address"
        }
      ],
      "stateMutability": "view",
      "type": "function"
    },
    {
      "inputs": [],
      "name": "getTokenOwner",
      "outputs": [
        {
          "internalType": "address",
          "name": "",
          "type": "address"
        }
      ],
      "stateMutability": "view",
      "type": "function"
    },
    {
      "inputs": [
        {
          "internalType": "bytes32",
          "name": "role",
          "type": "bytes32"
        },
        {
          "internalType": "address",
          "name": "account",
          "type": "address"
        }
      ],
      "name": "grantRole",
      "outputs": [],
      "stateMutability": "nonpayable",
      "type": "function"
    },
    {
      "inputs": [],
      "name": "hardCap",
      "outputs": [
        {
          "internalType": "uint256",
          "name": "",
          "type": "uint256"
        }
      ],
      "stateMutability": "view",
      "type": "function"
    },
    {
      "inputs": [],
      "name": "hardcapCalcul",
      "outputs": [
        {
          "internalType": "uint256",
          "name": "",
          "type": "uint256"
        }
      ],
      "stateMutability": "view",
      "type": "function"
    },
    {
      "inputs": [
        {
          "internalType": "bytes32",
          "name": "role",
          "type": "bytes32"
        },
        {
          "internalType": "address",
          "name": "account",
          "type": "address"
        }
      ],
      "name": "hasRole",
      "outputs": [
        {
          "internalType": "bool",
          "name": "",
          "type": "bool"
        }
      ],
      "stateMutability": "view",
      "type": "function"
    },
    {
      "inputs": [
        {
          "internalType": "address",
          "name": "account",
          "type": "address"
        }
      ],
      "name": "isAdmin",
      "outputs": [
        {
          "internalType": "bool",
          "name": "",
          "type": "bool"
        }
      ],
      "stateMutability": "view",
      "type": "function"
    },
    {
      "inputs": [
        {
          "internalType": "address",
          "name": "account",
          "type": "address"
        }
      ],
      "name": "isProxyAdmin",
      "outputs": [
        {
          "internalType": "bool",
          "name": "",
          "type": "bool"
        }
      ],
      "stateMutability": "view",
      "type": "function"
    },
    {
      "inputs": [],
      "name": "liquidityVaultAddress",
      "outputs": [
        {
          "internalType": "address",
          "name": "",
          "type": "address"
        }
      ],
      "stateMutability": "view",
      "type": "function"
    },
    {
      "inputs": [],
      "name": "maxPer",
      "outputs": [
        {
          "internalType": "uint256",
          "name": "",
          "type": "uint256"
        }
      ],
      "stateMutability": "view",
      "type": "function"
    },
    {
      "inputs": [],
      "name": "minPer",
      "outputs": [
        {
          "internalType": "uint256",
          "name": "",
          "type": "uint256"
        }
      ],
      "stateMutability": "view",
      "type": "function"
    },
    {
      "inputs": [
        {
          "internalType": "address",
          "name": "user",
          "type": "address"
        }
      ],
      "name": "openSaleUserAmount",
      "outputs": [
        {
          "internalType": "uint256",
          "name": "_realPayAmount",
          "type": "uint256"
        },
        {
          "internalType": "uint256",
          "name": "_realSaleAmount",
          "type": "uint256"
        },
        {
          "internalType": "uint256",
          "name": "_refundAmount",
          "type": "uint256"
        }
      ],
      "stateMutability": "view",
      "type": "function"
    },
    {
      "inputs": [],
      "name": "pauseProxy",
      "outputs": [
        {
          "internalType": "bool",
          "name": "",
          "type": "bool"
        }
      ],
      "stateMutability": "view",
      "type": "function"
    },
    {
      "inputs": [],
      "name": "payTokenPrice",
      "outputs": [
        {
          "internalType": "uint256",
          "name": "",
          "type": "uint256"
        }
      ],
      "stateMutability": "view",
      "type": "function"
    },
    {
      "inputs": [],
      "name": "poolFee",
      "outputs": [
        {
          "internalType": "uint24",
          "name": "",
          "type": "uint24"
        }
      ],
      "stateMutability": "view",
      "type": "function"
    },
    {
      "inputs": [],
      "name": "removeAdmin",
      "outputs": [],
      "stateMutability": "nonpayable",
      "type": "function"
    },
    {
      "inputs": [],
      "name": "removeProxyAdmin",
      "outputs": [],
      "stateMutability": "nonpayable",
      "type": "function"
    },
    {
      "inputs": [
        {
          "internalType": "bytes32",
          "name": "role",
          "type": "bytes32"
        },
        {
          "internalType": "address",
          "name": "account",
          "type": "address"
        }
      ],
      "name": "renounceRole",
      "outputs": [],
      "stateMutability": "nonpayable",
      "type": "function"
    },
    {
      "inputs": [
        {
          "internalType": "bytes32",
          "name": "role",
          "type": "bytes32"
        },
        {
          "internalType": "address",
          "name": "account",
          "type": "address"
        }
      ],
      "name": "revokeRole",
      "outputs": [],
      "stateMutability": "nonpayable",
      "type": "function"
    },
    {
      "inputs": [],
      "name": "sTOS",
      "outputs": [
        {
          "internalType": "contract ILockTOS",
          "name": "",
          "type": "address"
        }
      ],
      "stateMutability": "view",
      "type": "function"
    },
    {
      "inputs": [],
      "name": "saleToken",
      "outputs": [
        {
          "internalType": "contract IERC20",
          "name": "",
          "type": "address"
        }
      ],
      "stateMutability": "view",
      "type": "function"
    },
    {
      "inputs": [],
      "name": "saleTokenPrice",
      "outputs": [
        {
          "internalType": "uint256",
          "name": "",
          "type": "uint256"
        }
      ],
      "stateMutability": "view",
      "type": "function"
    },
    {
      "inputs": [
        {
          "internalType": "uint256[2]",
          "name": "_expectAmount",
          "type": "uint256[2]"
        },
        {
          "internalType": "uint256[2]",
          "name": "_priceAmount",
          "type": "uint256[2]"
        }
      ],
      "name": "setAllAmount",
      "outputs": [],
      "stateMutability": "nonpayable",
      "type": "function"
    },
    {
      "inputs": [
        {
          "internalType": "uint256[4]",
          "name": "_tier",
          "type": "uint256[4]"
        },
        {
          "internalType": "uint256[4]",
          "name": "_tierPercent",
          "type": "uint256[4]"
        }
      ],
      "name": "setAllTier",
      "outputs": [],
      "stateMutability": "nonpayable",
      "type": "function"
    },
    {
      "inputs": [
        {
          "internalType": "uint256[8]",
          "name": "_Tier",
          "type": "uint256[8]"
        },
        {
          "internalType": "uint256[6]",
          "name": "_amount",
          "type": "uint256[6]"
        },
        {
          "internalType": "uint256[8]",
          "name": "_time",
          "type": "uint256[8]"
        },
        {
          "internalType": "uint256[]",
          "name": "_claimTimes",
          "type": "uint256[]"
        },
        {
          "internalType": "uint256[]",
          "name": "_claimPercents",
          "type": "uint256[]"
        }
      ],
      "name": "setAllsetting",
      "outputs": [],
      "stateMutability": "nonpayable",
      "type": "function"
    },
    {
      "inputs": [
        {
          "internalType": "uint256",
          "name": "_claimCounts",
          "type": "uint256"
        },
        {
          "internalType": "uint256[]",
          "name": "_claimTimes",
          "type": "uint256[]"
        },
        {
          "internalType": "uint256[]",
          "name": "_claimPercents",
          "type": "uint256[]"
        }
      ],
      "name": "setEachClaim",
      "outputs": [],
      "stateMutability": "nonpayable",
      "type": "function"
    },
    {
      "inputs": [
        {
          "internalType": "uint256",
          "name": "_startAddWhiteTime",
          "type": "uint256"
        },
        {
          "internalType": "uint256",
          "name": "_endAddWhiteTime",
          "type": "uint256"
        },
        {
          "internalType": "uint256",
          "name": "_startExclusiveTime",
          "type": "uint256"
        },
        {
          "internalType": "uint256",
          "name": "_endExclusiveTime",
          "type": "uint256"
        }
      ],
      "name": "setExclusiveTime",
      "outputs": [],
      "stateMutability": "nonpayable",
      "type": "function"
    },
    {
      "inputs": [
        {
          "internalType": "uint256",
          "name": "_hardcapAmount",
          "type": "uint256"
        },
        {
          "internalType": "uint256",
          "name": "_changePercent",
          "type": "uint256"
        }
      ],
      "name": "setHardcap",
      "outputs": [],
      "stateMutability": "nonpayable",
      "type": "function"
    },
    {
      "inputs": [
        {
          "internalType": "uint256",
          "name": "_startDepositTime",
          "type": "uint256"
        },
        {
          "internalType": "uint256",
          "name": "_endDepositTime",
          "type": "uint256"
        }
      ],
      "name": "setOpenTime",
      "outputs": [],
      "stateMutability": "nonpayable",
      "type": "function"
    },
    {
      "inputs": [
        {
          "internalType": "uint256",
          "name": "_totalExpectSaleAmount",
          "type": "uint256"
        },
        {
          "internalType": "uint256",
          "name": "_totalExpectOpenSaleAmount",
          "type": "uint256"
        }
      ],
      "name": "setSaleAmount",
      "outputs": [],
      "stateMutability": "nonpayable",
      "type": "function"
    },
    {
      "inputs": [
        {
          "internalType": "uint256",
          "name": "_snapshot",
          "type": "uint256"
        }
      ],
      "name": "setSnapshot",
      "outputs": [],
      "stateMutability": "nonpayable",
      "type": "function"
    },
    {
      "inputs": [
        {
          "internalType": "uint256",
          "name": "_tier1",
          "type": "uint256"
        },
        {
          "internalType": "uint256",
          "name": "_tier2",
          "type": "uint256"
        },
        {
          "internalType": "uint256",
          "name": "_tier3",
          "type": "uint256"
        },
        {
          "internalType": "uint256",
          "name": "_tier4",
          "type": "uint256"
        }
      ],
      "name": "setTier",
      "outputs": [],
      "stateMutability": "nonpayable",
      "type": "function"
    },
    {
      "inputs": [
        {
          "internalType": "uint256",
          "name": "_tier1",
          "type": "uint256"
        },
        {
          "internalType": "uint256",
          "name": "_tier2",
          "type": "uint256"
        },
        {
          "internalType": "uint256",
          "name": "_tier3",
          "type": "uint256"
        },
        {
          "internalType": "uint256",
          "name": "_tier4",
          "type": "uint256"
        }
      ],
      "name": "setTierPercents",
      "outputs": [],
      "stateMutability": "nonpayable",
      "type": "function"
    },
    {
      "inputs": [
        {
          "internalType": "uint256",
          "name": "_saleTokenPrice",
          "type": "uint256"
        },
        {
          "internalType": "uint256",
          "name": "_payTokenPrice",
          "type": "uint256"
        }
      ],
      "name": "setTokenPrice",
      "outputs": [],
      "stateMutability": "nonpayable",
      "type": "function"
    },
    {
      "inputs": [],
      "name": "snapshot",
      "outputs": [
        {
          "internalType": "uint256",
          "name": "",
          "type": "uint256"
        }
      ],
      "stateMutability": "view",
      "type": "function"
    },
    {
      "inputs": [],
      "name": "stanTier1",
      "outputs": [
        {
          "internalType": "uint256",
          "name": "",
          "type": "uint256"
        }
      ],
      "stateMutability": "view",
      "type": "function"
    },
    {
      "inputs": [],
      "name": "stanTier2",
      "outputs": [
        {
          "internalType": "uint256",
          "name": "",
          "type": "uint256"
        }
      ],
      "stateMutability": "view",
      "type": "function"
    },
    {
      "inputs": [],
      "name": "stanTier3",
      "outputs": [
        {
          "internalType": "uint256",
          "name": "",
          "type": "uint256"
        }
      ],
      "stateMutability": "view",
      "type": "function"
    },
    {
      "inputs": [],
      "name": "stanTier4",
      "outputs": [
        {
          "internalType": "uint256",
          "name": "",
          "type": "uint256"
        }
      ],
      "stateMutability": "view",
      "type": "function"
    },
    {
      "inputs": [],
      "name": "startAddWhiteTime",
      "outputs": [
        {
          "internalType": "uint256",
          "name": "",
          "type": "uint256"
        }
      ],
      "stateMutability": "view",
      "type": "function"
    },
    {
      "inputs": [],
      "name": "startClaimTime",
      "outputs": [
        {
          "internalType": "uint256",
          "name": "",
          "type": "uint256"
        }
      ],
      "stateMutability": "view",
      "type": "function"
    },
    {
      "inputs": [],
      "name": "startDepositTime",
      "outputs": [
        {
          "internalType": "uint256",
          "name": "",
          "type": "uint256"
        }
      ],
      "stateMutability": "view",
      "type": "function"
    },
    {
      "inputs": [],
      "name": "startExclusiveTime",
      "outputs": [
        {
          "internalType": "uint256",
          "name": "",
          "type": "uint256"
        }
      ],
      "stateMutability": "view",
      "type": "function"
    },
    {
      "inputs": [
        {
          "internalType": "uint256",
          "name": "",
          "type": "uint256"
        }
      ],
      "name": "tiers",
      "outputs": [
        {
          "internalType": "uint256",
          "name": "",
          "type": "uint256"
        }
      ],
      "stateMutability": "view",
      "type": "function"
    },
    {
      "inputs": [
        {
          "internalType": "uint256",
          "name": "",
          "type": "uint256"
        }
      ],
      "name": "tiersAccount",
      "outputs": [
        {
          "internalType": "uint256",
          "name": "",
          "type": "uint256"
        }
      ],
      "stateMutability": "view",
      "type": "function"
    },
    {
      "inputs": [
        {
          "internalType": "uint256",
          "name": "",
          "type": "uint256"
        }
      ],
      "name": "tiersExAccount",
      "outputs": [
        {
          "internalType": "uint256",
          "name": "",
          "type": "uint256"
        }
      ],
      "stateMutability": "view",
      "type": "function"
    },
    {
      "inputs": [
        {
          "internalType": "uint256",
          "name": "",
          "type": "uint256"
        }
      ],
      "name": "tiersPercents",
      "outputs": [
        {
          "internalType": "uint256",
          "name": "",
          "type": "uint256"
        }
      ],
      "stateMutability": "view",
      "type": "function"
    },
    {
      "inputs": [],
      "name": "tos",
      "outputs": [
        {
          "internalType": "contract IERC20",
          "name": "",
          "type": "address"
        }
      ],
      "stateMutability": "view",
      "type": "function"
    },
    {
      "inputs": [],
      "name": "totalClaimCounts",
      "outputs": [
        {
          "internalType": "uint256",
          "name": "",
          "type": "uint256"
        }
      ],
      "stateMutability": "view",
      "type": "function"
    },
    {
      "inputs": [],
      "name": "totalDepositAmount",
      "outputs": [
        {
          "internalType": "uint256",
          "name": "",
          "type": "uint256"
        }
      ],
      "stateMutability": "view",
      "type": "function"
    },
    {
      "inputs": [],
      "name": "totalExPurchasedAmount",
      "outputs": [
        {
          "internalType": "uint256",
          "name": "",
          "type": "uint256"
        }
      ],
      "stateMutability": "view",
      "type": "function"
    },
    {
      "inputs": [],
      "name": "totalExSaleAmount",
      "outputs": [
        {
          "internalType": "uint256",
          "name": "",
          "type": "uint256"
        }
      ],
      "stateMutability": "view",
      "type": "function"
    },
    {
      "inputs": [],
      "name": "totalExpectOpenSaleAmount",
      "outputs": [
        {
          "internalType": "uint256",
          "name": "",
          "type": "uint256"
        }
      ],
      "stateMutability": "view",
      "type": "function"
    },
    {
      "inputs": [],
      "name": "totalExpectOpenSaleAmountView",
      "outputs": [
        {
          "internalType": "uint256",
          "name": "",
          "type": "uint256"
        }
      ],
      "stateMutability": "view",
      "type": "function"
    },
    {
      "inputs": [],
      "name": "totalExpectSaleAmount",
      "outputs": [
        {
          "internalType": "uint256",
          "name": "",
          "type": "uint256"
        }
      ],
      "stateMutability": "view",
      "type": "function"
    },
    {
      "inputs": [],
      "name": "totalOpenPurchasedAmount",
      "outputs": [
        {
          "internalType": "uint256",
          "name": "",
          "type": "uint256"
        }
      ],
      "stateMutability": "view",
      "type": "function"
    },
    {
      "inputs": [],
      "name": "totalOpenSaleAmount",
      "outputs": [
        {
          "internalType": "uint256",
          "name": "",
          "type": "uint256"
        }
      ],
      "stateMutability": "view",
      "type": "function"
    },
    {
      "inputs": [],
      "name": "totalRound1NonSaleAmount",
      "outputs": [
        {
          "internalType": "uint256",
          "name": "",
          "type": "uint256"
        }
      ],
      "stateMutability": "view",
      "type": "function"
    },
    {
      "inputs": [],
      "name": "totalRound1Users",
      "outputs": [
        {
          "internalType": "uint256",
          "name": "",
          "type": "uint256"
        }
      ],
      "stateMutability": "view",
      "type": "function"
    },
    {
      "inputs": [],
      "name": "totalRound2Users",
      "outputs": [
        {
          "internalType": "uint256",
          "name": "",
          "type": "uint256"
        }
      ],
      "stateMutability": "view",
      "type": "function"
    },
    {
      "inputs": [],
      "name": "totalRound2UsersClaim",
      "outputs": [
        {
          "internalType": "uint256",
          "name": "",
          "type": "uint256"
        }
      ],
      "stateMutability": "view",
      "type": "function"
    },
    {
      "inputs": [
        {
          "internalType": "address",
          "name": "user",
          "type": "address"
        }
      ],
      "name": "totalSaleUserAmount",
      "outputs": [
        {
          "internalType": "uint256",
          "name": "_realPayAmount",
          "type": "uint256"
        },
        {
          "internalType": "uint256",
          "name": "_realSaleAmount",
          "type": "uint256"
        },
        {
          "internalType": "uint256",
          "name": "_refundAmount",
          "type": "uint256"
        }
      ],
      "stateMutability": "view",
      "type": "function"
    },
    {
      "inputs": [],
      "name": "totalUsers",
      "outputs": [
        {
          "internalType": "uint256",
          "name": "",
          "type": "uint256"
        }
      ],
      "stateMutability": "view",
      "type": "function"
    },
    {
      "inputs": [],
      "name": "totalWhitelists",
      "outputs": [
        {
          "internalType": "uint256",
          "name": "",
          "type": "uint256"
        }
      ],
      "stateMutability": "view",
      "type": "function"
    },
    {
      "inputs": [
        {
          "internalType": "address",
          "name": "newAdmin",
          "type": "address"
        }
      ],
      "name": "transferAdmin",
      "outputs": [],
      "stateMutability": "nonpayable",
      "type": "function"
    },
    {
      "inputs": [
        {
          "internalType": "address",
          "name": "newAdmin",
          "type": "address"
        }
      ],
      "name": "transferProxyAdmin",
      "outputs": [],
      "stateMutability": "nonpayable",
      "type": "function"
    },
    {
      "inputs": [],
      "name": "uniswapRouter",
      "outputs": [
        {
          "internalType": "contract ISwapRouter",
          "name": "",
          "type": "address"
        }
      ],
      "stateMutability": "view",
      "type": "function"
    },
    {
      "inputs": [
        {
          "internalType": "address",
          "name": "",
          "type": "address"
        }
      ],
      "name": "usersClaim",
      "outputs": [
        {
          "internalType": "bool",
          "name": "exec",
          "type": "bool"
        },
        {
          "internalType": "uint256",
          "name": "claimAmount",
          "type": "uint256"
        },
        {
          "internalType": "uint256",
          "name": "refundAmount",
          "type": "uint256"
        }
      ],
      "stateMutability": "view",
      "type": "function"
    },
    {
      "inputs": [
        {
          "internalType": "address",
          "name": "",
          "type": "address"
        }
      ],
      "name": "usersEx",
      "outputs": [
        {
          "internalType": "bool",
          "name": "join",
          "type": "bool"
        },
        {
          "internalType": "uint256",
          "name": "tier",
          "type": "uint256"
        },
        {
          "internalType": "uint256",
          "name": "payAmount",
          "type": "uint256"
        },
        {
          "internalType": "uint256",
          "name": "saleAmount",
          "type": "uint256"
        }
      ],
      "stateMutability": "view",
      "type": "function"
    },
    {
      "inputs": [
        {
          "internalType": "address",
          "name": "",
          "type": "address"
        }
      ],
      "name": "usersOpen",
      "outputs": [
        {
          "internalType": "bool",
          "name": "join",
          "type": "bool"
        },
        {
          "internalType": "uint256",
          "name": "depositAmount",
          "type": "uint256"
        },
        {
          "internalType": "uint256",
          "name": "payAmount",
          "type": "uint256"
        }
      ],
      "stateMutability": "view",
      "type": "function"
    },
    {
      "inputs": [
        {
          "internalType": "uint256",
          "name": "",
          "type": "uint256"
        }
      ],
      "name": "whitelists",
      "outputs": [
        {
          "internalType": "address",
          "name": "",
          "type": "address"
        }
      ],
      "stateMutability": "view",
      "type": "function"
    },
    {
      "inputs": [],
      "name": "wton",
      "outputs": [
        {
          "internalType": "address",
          "name": "",
          "type": "address"
        }
      ],
      "stateMutability": "view",
      "type": "function"
    }
  ],
  "bytecode": "0x608060405260006001556000600455600060055560006006556000600755600060085560006009556000600a556000600b556000600c556000600d556000600e556000600f55600060105534801561005657600080fd5b506001603755615acb806200006c6000396000f3fe608060405234801561001057600080fd5b50600436106105e05760003560e01c806389f395de11610307578063bfc630b11161019e578063e985e367116100ef578063f3e16d481161009d578063f3e16d4814610ba1578063f47f2f1d14610bb4578063fb86a40414610bc7578063fbd9070f14610bcf578063fe404c9614610bd7578063fe4d5add14610bea578063ff6dac7614610bfd576105e0565b8063e985e36714610b48578063eaff056d14610b50578063eb685c4714610b58578063eb8445f814610b6b578063ed5131f514610b73578063f0fbf32d14610b86578063f18d20be14610b99576105e0565b8063d21eb9081161014c578063d21eb90814610ae4578063d539139314610af7578063d547741f14610aff578063dc560fcd14610b12578063e016bac414610b1a578063e30821c614610b22578063e4b2fb7914610b35576105e0565b8063bfc630b114610a7b578063bfc93b0c14610a83578063bff1f9e114610a96578063c3e5763514610a9e578063c5408d5014610aa6578063ca15c87314610aae578063cae9ce1b14610ac1576105e0565b80639f87b77f11610258578063aa5bbf5511610206578063aa5bbf5514610a0a578063ae6fa04514610a1d578063b569176714610a30578063b7182b9514610a43578063b960ca0414610a4b578063be72f2d314610a53578063bf235a1514610a5b576105e0565b80639f87b77f146109c7578063a055e625146109cf578063a1b89b70146109d7578063a217fddf146109df578063a389595f146109e7578063a38ffdea146109ef578063a55abb1714610a02576105e0565b806394f641d5116102b557806394f641d514610979578063952526921461098157806396f1557c146109895780639711715a1461099c57806398d97da4146109a45780639a202d47146109b75780639d18fde7146109bf576105e0565b806389f395de146109205780638a19c8bc146109285780638d62d949146109305780638f68711a146109385780639010d07c1461094b578063907784231461095e57806391d1485414610966576105e0565b806351d28a7e1161047b57806370480275116103cc5780637a40624b1161037a5780637a40624b146108d25780637dc2cd98146108da5780637e2eee53146108e25780637ecd5c70146108ea5780638181e847146108fd57806381a9f6d7146109055780638356ca4f1461090d576105e0565b8063704802751461087957806370e5410a1461088c578063735de9f71461089457806375829def1461089c57806375b238fc146108af5780637676ee32146108b7578063768b821f146108ca576105e0565b806366ce72711161042957806366ce72711461080a57806367b399a51461081257806369048005146108255780636bbe48af146108385780636c2308391461084b5780636e0e0da21461085e5780636e59abbb14610866576105e0565b806351d28a7e146107a257806351ebde6d146107aa578063590088bc146107b25780635f1af712146107d457806360a2a25c146107e757806361a33427146107fa57806363a8fd8914610802576105e0565b806328e50f4b1161053557806341c04d5e116104e357806341c04d5e1461072f57806341c0cb771461073757806347e7ef2414610759578063494600ea1461076c5780634dd199211461077f5780634de389c4146107875780634e71d92d1461079a576105e0565b806328e50f4b146106d65780632cbf3188146106de5780632dcdbfd3146106e65780632f2ff15d146106f957806336568abe1461070c57806337bf07191461071f5780633ef541b514610727576105e0565b8063218183a311610592578063218183a31461066357806321df0da714610676578063226bf1a41461068b578063248a9ca31461069357806324d7806c146106a6578063256019d6146106c6578063282c51f3146106ce576105e0565b8063039af9eb146105e5578063089fe6aa1461060e5780630a888550146106235780630b433a12146106385780631a1197e7146106405780631bfc751e146106535780631c53f2561461065b575b600080fd5b6105f86105f3366004614ca7565b610c10565b6040516106059190614f22565b60405180910390f35b610616610c22565b604051610605919061585c565b610636610631366004614e26565b610c28565b005b6105f8610dbb565b6105f861064e366004614b38565b610dc1565b6105f8610eb0565b6105f8610eb6565b610636610671366004614e26565b610ebc565b61067e6110f6565b6040516106059190614e57565b6105f8611105565b6105f86106a1366004614ca7565b61110b565b6106b96106b4366004614b38565b611120565b6040516106059190614ee2565b6105f8611140565b6105f8611146565b6105f861116a565b6105f8611199565b6106366106f4366004614e26565b6111ce565b610636610707366004614cbf565b611378565b61063661071a366004614cbf565b6113df565b61067e611440565b6105f861144f565b6105f8611455565b61074a610745366004614b38565b611467565b60405161060593929190614eed565b610636610767366004614b52565b61148c565b6105f861077a366004614b52565b61160d565b61067e61166e565b610636610795366004614ce1565b61167d565b6106366117a4565b6105f8611b26565b6105f8611b2c565b6107c56107c0366004614b38565b611b32565b6040516106059392919061587a565b6107c56107e2366004614b52565b611bbb565b6105f86107f5366004614ca7565b611d4f565b6105f8611d74565b6106b9611d7a565b6105f8611d83565b6105f8610820366004614ca7565b611d89565b6105f8610833366004614ca7565b611d9b565b6105f8610846366004614ca7565b611dad565b610636610859366004614ca7565b611db7565b610636611e97565b610636610874366004614b7b565b6123d0565b610636610887366004614b38565b612449565b6105f86124a8565b61067e6124ea565b6106366108aa366004614b38565b6124f9565b6105f8612629565b6106366108c5366004614baf565b61264d565b6105f8612733565b6105f8612739565b6105f861273f565b6105f8612745565b6105f86108f8366004614b38565b61274b565b610636612a20565b6105f8612bd4565b61063661091b366004614b38565b612bda565b61067e612ce1565b6105f8612cf0565b61067e612d5e565b6105f8610946366004614ca7565b612d6d565b61067e610959366004614ce1565b612d7f565b6105f8612d97565b6106b9610974366004614cbf565b612db0565b6105f8612dc8565b6105f8612dce565b610636610997366004614b38565b612dd4565b6105f8612e23565b6107c56109b2366004614b38565b612e29565b610636612edb565b6105f8612f48565b6105f8612f4e565b6105f8612f54565b6105f8612f5a565b6105f8612f60565b6105f8612f65565b6105f86109fd366004614ca7565b612f6b565b6105f8612f89565b6105f8610a18366004614d02565b612f8f565b6105f8610a2b366004614ca7565b612f96565b610636610a3e366004614ce1565b612ff3565b61067e613109565b6105f8613118565b61063661311e565b610a6e610a69366004614ce1565b61316d565b6040516106059190614e9e565b6105f86132fa565b610636610a91366004614daf565b613300565b6105f86134cd565b6105f86134d3565b6105f86134d9565b6105f8610abc366004614ca7565b6134df565b610ad4610acf366004614b38565b6134f6565b6040516106059493929190614f05565b610636610af2366004614bdb565b613521565b6105f8613803565b610636610b0d366004614cbf565b613827565b6105f8613880565b6105f8613886565b610636610b30366004614b38565b61388c565b61067e610b43366004614ca7565b613901565b61067e61392b565b6105f861393a565b610636610b66366004614ce1565b613940565b6105f8613a48565b6105f8610b81366004614ca7565b613a4e565b610636610b94366004614b52565b613a6f565b6106b9613c8f565b610636610baf366004614ce1565b613c98565b6106b9610bc2366004614b38565b613d7e565b6105f8613d8a565b6105f8613d90565b6105f8610be5366004614ca7565b613dda565b61067e610bf8366004614ca7565b613dea565b61074a610c0b366004614b38565b613dfa565b60326020526000908152604090205481565b610bb881565b610c3133611120565b80610c405750610c4033613d7e565b610c7b5760405162461bcd60e51b81526004018080602001828103825260228152602001806159226022913960400191505060405180910390fd5b8360008111610ca55760405162461bcd60e51b8152600401610c9c906155b8565b60405180910390fd5b8360008111610cc65760405162461bcd60e51b8152600401610c9c906155b8565b8360008111610ce75760405162461bcd60e51b8152600401610c9c906155b8565b8360008111610d085760405162461bcd60e51b8152600401610c9c906155b8565b6004541580610d2557506000600454118015610d25575060045442105b610d415760405162461bcd60e51b8152600401610c9c9061572c565b60045415610d6e57610d5233613d7e565b610d6e5760405162461bcd60e51b8152600401610c9c906154fa565b8688108015610d7c57508587105b8015610d8757508486105b610da35760405162461bcd60e51b8152600401610c9c90614f97565b50505060049490945560059290925560065560075550565b60165481565b6001600160a01b0381166000908152602f6020526040812081610de38461274b565b825490915060ff1615156001148015610dfc5750600081115b15610e42576000818152603360209081526040808320546035909252822054601254610e379261271092610e31928391613e1f565b90613e78565b9350610eab92505050565b8015610ea457600081815260336020526040812054610e62906001613eba565b90506000610e98612710610e3184610e316035600089815260200190815260200160002054601254613e1f90919063ffffffff16565b9450610eab9350505050565b6000925050505b919050565b600a5481565b601c5481565b610ec533611120565b80610ed45750610ed433613d7e565b610f0f5760405162461bcd60e51b81526004018080602001828103825260228152602001806159226022913960400191505060405180910390fd5b8360008111610f305760405162461bcd60e51b8152600401610c9c906155b8565b8360008111610f515760405162461bcd60e51b8152600401610c9c906155b8565b8360008111610f725760405162461bcd60e51b8152600401610c9c906155b8565b8360008111610f935760405162461bcd60e51b8152600401610c9c906155b8565b6004541580610fb057506000600454118015610fb0575060045442105b610fcc5760405162461bcd60e51b8152600401610c9c9061572c565b600160005260356020527f8e3caac72b6c5bb0462da38c8c8c3b5fbc00a646bd75367c23c11d594c4e36c954156110225761100633613d7e565b6110225760405162461bcd60e51b8152600401610c9c906154fa565b6110388561103288818c8c613eba565b90613eba565b612710146110585760405162461bcd60e51b8152600401610c9c9061533f565b5050603560205250507f8e3caac72b6c5bb0462da38c8c8c3b5fbc00a646bd75367c23c11d594c4e36c9939093557ff45abd214a7998af36d567f4bc75c5d50e868cf767d965b54d3b0f5c6200ab64919091557fe5602d426990c0b7b248ffeae167f30eba43086d790c7aa793e2bf3d0e5939195560046000527f80eb70dc00a20ebf6b218a7aea19e260b164cf97e49b31f047fca6f74f8ff9ad55565b6025546001600160a01b031681565b60155481565b60009081526036602052604090206002015490565b600061113a60008051602061590283398151915283612db0565b92915050565b602c5481565b7f9667e80708b6eeeb0053fa0cca44e028ff548e2a9f029edfeac87c118b08b7c881565b600060075442101561117f5750601354611196565b61119361118a612d97565b60135490613eba565b90505b90565b6000806111a7601154612f6b565b905060006111b361116a565b9050808210156111c557509050611196565b91506111969050565b6111d733611120565b806111e657506111e633613d7e565b6112215760405162461bcd60e51b81526004018080602001828103825260228152602001806159226022913960400191505060405180910390fd5b83600081116112425760405162461bcd60e51b8152600401610c9c906155b8565b83600081116112635760405162461bcd60e51b8152600401610c9c906155b8565b83600081116112845760405162461bcd60e51b8152600401610c9c906155b8565b83600081116112a55760405162461bcd60e51b8152600401610c9c906155b8565b60045415806112c2575060006004541180156112c2575060045442105b6112de5760405162461bcd60e51b8152600401610c9c9061572c565b6001600052603260205260008051602061594483398151915254156113225761130633613d7e565b6113225760405162461bcd60e51b8152600401610c9c906154fa565b505060326020525050600080516020615944833981519152939093556000805160206159dc83398151915291909155600080516020615964833981519152556004600052600080516020615a4783398151915255565b60008281526036602052604090206002015461139690610974613f14565b6113d15760405162461bcd60e51b815260040180806020018281038252602f8152602001806158b3602f913960400191505060405180910390fd5b6113db8282613f18565b5050565b6113e7613f14565b6001600160a01b0316816001600160a01b0316146114365760405162461bcd60e51b815260040180806020018281038252602f815260200180615a67602f913960400191505060405180910390fd5b6113db8282613f81565b6028546001600160a01b031681565b60095481565b60008051602061590283398151915281565b60306020526000908152604090208054600182015460029092015460ff909116919083565b600260375414156114d2576040805162461bcd60e51b815260206004820152601f60248201526000805160206158e2833981519152604482015290519081900360640190fd5b60026037556008544210156114f95760405162461bcd60e51b8152600401610c9c9061564c565b600954421061151a5760405162461bcd60e51b8152600401610c9c90615426565b6001600160a01b0382166000908152603060205260409020805460ff166115d55760298054600180820183556000929092527fcb7c14ce178f56e2e8d86ab33ebc0ae081ba8556a00cd122038841867181caac0180546001600160a01b0319166001600160a01b038616179055815460ff191681178255600d5461159d91613eba565b600d556001600160a01b0383166000908152602f6020526040902060028101546115d357600b546115cf906001613eba565b600b555b505b60018101546115e49083613eba565b60018201556011546115f69083613eba565b6011556116038284613fea565b5050600160375550565b6001600160a01b0382166000908152603060205260408120600181015482906116369085613eba565b9050600061166461165286601154613eba90919063ffffffff16565b610e318461165e61116a565b90613e1f565b9695505050505050565b6021546001600160a01b031681565b61168633611120565b80611695575061169533613d7e565b6116d05760405162461bcd60e51b81526004018080602001828103825260228152602001806159226022913960400191505060405180910390fd5b81600081116116f15760405162461bcd60e51b8152600401610c9c906155b8565b81600081116117125760405162461bcd60e51b8152600401610c9c906155b8565b600454158061172f5750600060045411801561172f575060045442105b61174b5760405162461bcd60e51b8152600401610c9c9061572c565b600854156117785761175c33613d7e565b6117785760405162461bcd60e51b8152600401610c9c906154fa565b8284106117975760405162461bcd60e51b8152600401610c9c906153a8565b5050600891909155600955565b602d6000815481106117b257fe5b90600052602060002001544210156117dc5760405162461bcd60e51b8152600401610c9c9061521e565b3360009081526030602090815260408083206031909252822090916117ff613d90565b90508061187e57815460ff1615156001141561182d5760405162461bcd60e51b8152600401610c9c90615494565b336000908152602f602052604081206001850154600282015491929161185291613eba565b845460ff19166001178555602554909150611877906001600160a01b03163383614483565b5050611b21565b600080600061188e336000611bbb565b925092509250600082116118b45760405162461bcd60e51b8152600401610c9c906152a0565b600083116118d45760405162461bcd60e51b8152600401610c9c906154cb565b826118ec8660010154846144d590919063ffffffff16565b101561190a5760405162461bcd60e51b8152600401610c9c906152d7565b6026546040516370a0823160e01b815284916001600160a01b0316906370a082319061193a903090600401614e57565b60206040518083038186803b15801561195257600080fd5b505afa158015611966573d6000803e3d6000fd5b505050506040513d601f19601f8201168201806040525081019061198a9190614d97565b10156119a85760405162461bcd60e51b8152600401610c9c90615524565b60018501546119b79084613eba565b60018601556026546119d3906001600160a01b03163385614483565b845460ff161580156119e65750855460ff165b15611a0857600e546119f9906001613eba565b600e55845460ff191660011785555b600081118015611a1a57506002850154155b15611adc576025546040516370a0823160e01b81526001600160a01b03909116906370a0823190611a4f903090600401614e57565b60206040518083038186803b158015611a6757600080fd5b505afa158015611a7b573d6000803e3d6000fd5b505050506040513d601f19601f82011682018060405250810190611a9f9190614d97565b811115611abe5760405162461bcd60e51b8152600401610c9c90614f2b565b60028501819055602554611adc906001600160a01b03163383614483565b336001600160a01b03167fd8138f8a3f377c5259ca548e70e4c2de94f129f5a11036a15b69513cba2b426a84604051611b159190614f22565b60405180910390a25050505b505050565b60145481565b601f5481565b6001600160a01b0381166000908152602f6020526040812080548291829160ff1615611ba3576000806000611b6688612e29565b925092509250611b83846002015484613eba90919063ffffffff16565b6003850154611b93908490613eba565b8296509650965050505050611bb4565b611bac85612e29565b935093509350505b9193909250565b6000806000600a54421015611bd857506000915081905080611d48565b602c54841115611bf057506000915081905080611d48565b6001600160a01b03851660009081526031602052604081209080611c1388611b32565b92509250508160001415611c34576000806000955095509550505050611d48565b81836001015410611c52576000806000955095509550505050611d48565b8615611ca2576000611c936064610e31602e611c6f8c60016144d5565b81548110611c7957fe5b906000526020600020015486613e1f90919063ffffffff16565b96509194509250611d48915050565b6000611cac612cf0565b905080602c54148015611cbd575087155b15611cd657506001909201548103945092509050611d48565b6000805b82811015611d2557611d1b611d146064610e31602e8581548110611cfa57fe5b906000526020600020015489613e1f90919063ffffffff16565b8390613eba565b9150600101611cda565b5088611d425760019094015490930395509093509150611d489050565b50505050505b9250925092565b600080611d6d601554610e3160145486613e1f90919063ffffffff16565b9392505050565b600e5481565b60005460ff1681565b60075481565b60336020526000908152604090205481565b60356020526000908152604090205481565b633b9aca00900490565b611dc033611120565b80611dcf5750611dcf33613d7e565b611e0a5760405162461bcd60e51b81526004018080602001828103825260228152602001806159226022913960400191505060405180910390fd5b8060008111611e2b5760405162461bcd60e51b8152600401610c9c906155b8565b6004541580611e4857506000600454118015611e48575060045442105b611e645760405162461bcd60e51b8152600401610c9c9061572c565b60015415611e9157611e7533613d7e565b611e915760405162461bcd60e51b8152600401610c9c906154fa565b50600155565b6009544211611eb85760405162461bcd60e51b8152600401610c9c90615127565b6000611ec2613d90565b90506000808211611ee55760405162461bcd60e51b8152600401610c9c9061560a565b602b5460ff16151560011415611f0d5760405162461bcd60e51b8152600401610c9c9061505c565b600e54600d541415611fac576025546040516370a0823160e01b8152611fa59184916001600160a01b03909116906370a0823190611f4f903090600401614e57565b60206040518083038186803b158015611f6757600080fd5b505afa158015611f7b573d6000803e3d6000fd5b505050506040513d601f19601f82011682018060405250810190611f9f9190614d97565b906144d5565b9050611fd3565b611fd0671bc16d674ec80000611f9f84611f9f611fc76124a8565b60105490613eba565b90505b6025546040516370a0823160e01b81526001600160a01b03909116906370a0823190612003903090600401614e57565b60206040518083038186803b15801561201b57600080fd5b505afa15801561202f573d6000803e3d6000fd5b505050506040513d601f19601f820116820180604052508101906120539190614d97565b8111156120725760405162461bcd60e51b8152600401610c9c9061545d565b60245460405163e34869d760e01b81526001600160a01b039091169063e34869d7906120a2908590600401614f22565b602060405180830381600087803b1580156120bc57600080fd5b505af11580156120d0573d6000803e3d6000fd5b505050506040513d601f19601f820116820180604052508101906120f49190614c87565b506024546040516370a0823160e01b81526000916001600160a01b0316906370a0823190612126903090600401614e57565b60206040518083038186803b15801561213e57600080fd5b505afa158015612152573d6000803e3d6000fd5b505050506040513d601f19601f820116820180604052508101906121769190614d97565b60408051610100810182526024546001600160a01b03908116825260275481166020830152610bb88284015230606083015242608083015260a08201849052600060c0830181905260e0830152602254925163414bf38960e01b8152939450909291169063414bf389906121ee9084906004016157f3565b602060405180830381600087803b15801561220857600080fd5b505af115801561221c573d6000803e3d6000fd5b505050506040513d601f19601f820116820180604052508101906122409190614d97565b506000612263600f54611f9f612254611199565b601354601254611f9f91613eba565b6027546040516370a0823160e01b81529192506000916001600160a01b03909116906370a0823190612299903090600401614e57565b60206040518083038186803b1580156122b157600080fd5b505afa1580156122c5573d6000803e3d6000fd5b505050506040513d601f19601f820116820180604052508101906122e99190614d97565b602b805460ff19166001179055602154602754919250612316916001600160a01b03908116911683614483565b602354602554612333916001600160a01b03918216911687614483565b602654604051630852cd8d60e31b81526001600160a01b03909116906342966c6890612363908590600401614f22565b600060405180830381600087803b15801561237d57600080fd5b505af1158015612391573d6000803e3d6000fd5b50505050336001600160a01b03167f27084c94a254e82dc8973b962810cb320efedce3c641c38244a13a32eb8fff088688604051611b1592919061586c565b6123d933611120565b806123e857506123e833613d7e565b6124235760405162461bcd60e51b81526004018080602001828103825260228152602001806159226022913960400191505060405180910390fd5b61243682358360015b6020020135613c98565b6113db81358260015b6020020135613940565b61245233613d7e565b61248d5760405162461bcd60e51b81526004018080602001828103825260288152602001806159846028913960400191505060405180910390fd5b6124a560008051602061590283398151915282611378565b50565b6000806124b6601154612f6b565b905060006124c261116a565b9050808210156124d85760115492505050611196565b6124e181611d4f565b92505050611196565b6022546001600160a01b031681565b61250233611120565b80612511575061251133613d7e565b61254c5760405162461bcd60e51b81526004018080602001828103825260228152602001806159226022913960400191505060405180910390fd5b6001600160a01b0381166125a2576040805162461bcd60e51b815260206004820152601860248201527741636365737369626c653a207a65726f206164647265737360401b604482015290519081900360640190fd5b336001600160a01b03821614156125f9576040805162461bcd60e51b815260206004820152601660248201527520b1b1b2b9b9b4b136329d1039b0b6b29030b236b4b760511b604482015290519081900360640190fd5b61261160008051602061590283398151915282611378565b6124a5600080516020615902833981519152336113df565b7fdf8b4c520ffe197c5343c6f5aec59570151ef9a492f2c624fd45ddde6135ec4281565b61265633611120565b80612665575061266533613d7e565b6126a05760405162461bcd60e51b81526004018080602001828103825260228152602001806159226022913960400191505060405180910390fd5b601d548235108015906126b95750601e54602083013510155b80156126cb5750601f54604083013510155b80156126dd5750602054606083013510155b6126f95760405162461bcd60e51b8152600401610c9c906155e2565b6127168235602084013560408501358560035b60200201356111ce565b6113db8135602083013560408401358460035b6020020135610ebc565b601e5481565b60025481565b60175481565b60035481565b6028546000906001600160a01b0316806127775760405162461bcd60e51b8152600401610c9c90615376565b6001600052603260205260008051602061594483398151915254806127ae5760405162461bcd60e51b8152600401610c9c906155b8565b600260005260326020526000805160206159dc83398151915254806127e55760405162461bcd60e51b8152600401610c9c906155b8565b60036000526032602052600080516020615964833981519152548061281c5760405162461bcd60e51b8152600401610c9c906155b8565b60046000526032602052600080516020615a4783398151915254806128535760405162461bcd60e51b8152600401610c9c906155b8565b60285460015460405163277166bf60e11b81526000926001600160a01b031691634ee2cd7e91612887918c91600401614e85565b60206040518083038186803b15801561289f57600080fd5b505afa1580156128b3573d6000803e3d6000fd5b505050506040513d601f19601f820116820180604052508101906128d79190614d97565b6001600090815260326020526000805160206159448339815191525491925090821080159061291e5750600260005260326020526000805160206159dc8339815191525482105b1561292b57506001612a14565b600260005260326020526000805160206159dc83398151915254821080159061296c5750600360005260326020526000805160206159648339815191525482105b1561297957506002612a14565b600360005260326020526000805160206159648339815191525482108015906129ba575060046000526032602052600080516020615a478339815191525482105b156129c757506003612a14565b60046000526032602052600080516020615a478339815191525482106129ef57506004612a14565b6001600052603260205260008051602061594483398151915254821015612a14575060005b98975050505050505050565b60026037541415612a66576040805162461bcd60e51b815260206004820152601f60248201526000805160206158e2833981519152604482015290519081900360640190fd5b6002603755600454421015612a8d5760405162461bcd60e51b8152600401610c9c906157a6565b6005544210612aae5760405162461bcd60e51b8152600401610c9c906150e6565b6000612ab93361274b565b90506001811015612adc5760405162461bcd60e51b8152600401610c9c90614f60565b336000908152602f60205260409020805460ff16151560011415612b125760405162461bcd60e51b8152600401610c9c9061568f565b602a805460018181019092557fbeced09521047d05b8960b7e7bcc1d1292cf3e4b2a6b63f48335cbde5f7545d20180546001600160a01b03191633179055815460ff19168117825581810183905560006003830181905583815260336020526040902054612b7f91613eba565b60008381526033602052604090819020919091555133907fffc1b88a1c7ff4b7c84aac62283195eb1a6e771eafe7f68ddc27c7539cb0a10590612bc3908590614f22565b60405180910390a250506001603755565b60085481565b612be333613d7e565b612c1e5760405162461bcd60e51b81526004018080602001828103825260288152602001806159846028913960400191505060405180910390fd5b6001600160a01b038116612c74576040805162461bcd60e51b815260206004820152601860248201527741636365737369626c653a207a65726f206164647265737360401b604482015290519081900360640190fd5b336001600160a01b0382161415612ccb576040805162461bcd60e51b815260206004820152601660248201527520b1b1b2b9b9b4b136329d1039b0b6b29030b236b4b760511b604482015290519081900360640190fd5b612cd6600082611378565b6124a56000336113df565b6027546001600160a01b031681565b6000602d6001602c540381548110612d0457fe5b9060005260206000200154421115612d1f5750602c54611196565b60005b602c54811015612d5a57602d8181548110612d3957fe5b9060005260206000200154421015612d52579050611196565b600101612d22565b5090565b6024546001600160a01b031681565b60346020526000908152604090205481565b6000828152603660205260408120611d6d9083614517565b6000611193600f546012546144d590919063ffffffff16565b6000828152603660205260408120611d6d9083614523565b600d5481565b60045481565b612ddd33613d7e565b612e185760405162461bcd60e51b81526004018080602001828103825260288152602001806159846028913960400191505060405180910390fd5b6124a56000826113d1565b60015481565b6001600160a01b038116600090815260306020526040812080548291829160ff161580612e5857506001810154155b15612e6e57600080600093509350935050611bb4565b6000612e7b86600061160d565b90506000612e8882611d4f565b600184015490915060008082841015612eb757612ea583856144d5565b9050612eb084612f6b565b9150612eca565b85600101549350612ec783612f6b565b91505b929990985091965090945050505050565b612ee433611120565b80612ef35750612ef333613d7e565b612f2e5760405162461bcd60e51b81526004018080602001828103825260228152602001806159226022913960400191505060405180910390fd5b612f46600080516020615902833981519152336113df565b565b601a5481565b601d5481565b600c5481565b602a5490565b600081565b601b5481565b600080611d6d601454610e3160155486613e1f90919063ffffffff16565b60105481565b6020015190565b600060075442118015612fa857508115155b15612feb57612fe46064610e31602e6001860381548110612fc557fe5b906000526020600020015461165e612fdb611199565b600f5490613eba565b9050610eab565b506000610eab565b612ffc33611120565b8061300b575061300b33613d7e565b6130465760405162461bcd60e51b81526004018080602001828103825260228152602001806159226022913960400191505060405180910390fd5b80600081116130675760405162461bcd60e51b8152600401610c9c906155b8565b600454158061308457506000600454118015613084575060045442105b6130a05760405162461bcd60e51b8152600401610c9c9061572c565b601a54156130cd576130b133613d7e565b6130cd5760405162461bcd60e51b8152600401610c9c906154fa565b601c5482111580156130e15750601b548210155b6130fd5760405162461bcd60e51b8152600401610c9c9061516e565b50601991909155601a55565b6023546001600160a01b031681565b60125481565b61312733613d7e565b6131625760405162461bcd60e51b81526004018080602001828103825260288152602001806159846028913960400191505060405180910390fd5b612f466000336113df565b60608261317957600192505b82602c54101561318957602c5492505b82821015613195578291505b81602c5410806131a3575081155b156131ae57602c5491505b60006131c56131be8560016144d5565b84906144d5565b905060008167ffffffffffffffff811180156131e057600080fd5b5060405190808252806020026020018201604052801561320a578160200160208202803683370190505b5090506007544211801561321d57508415155b1561327b5760005b828110156132755760006132526064610e31602e6132486001611f9f8d89613eba565b81548110612fc557fe5b90508083838151811061326157fe5b602090810291909101015250600101613225565b506132f2565b60005b828110156132f05760006132cd6064610e31602e6132a16001611f9f8d89613eba565b815481106132ab57fe5b906000526020600020015461165e601354601254613eba90919063ffffffff16565b9050808383815181106132dc57fe5b60209081029190910101525060010161327e565b505b949350505050565b60135481565b61330933611120565b80613318575061331833613d7e565b6133535760405162461bcd60e51b81526004018080602001828103825260228152602001806159226022913960400191505060405180910390fd5b600454158061337057506000600454118015613370575060045442105b61338c5760405162461bcd60e51b8152600401610c9c9061572c565b602c54156133b95761339d33613d7e565b6133b95760405162461bcd60e51b8152600401610c9c906154fa565b602c8590556000805b868210156134a457602d8686848181106133d857fe5b83546001810185556000948552602094859020919094029290920135919092015550811561345057602d828154811061340d57fe5b9060005260206000200154602d600184038154811061342857fe5b9060005260206000200154106134505760405162461bcd60e51b8152600401610c9c9061530c565b602e84848481811061345e57fe5b8354600181018555600094855260209485902091909402929092013591909201555083838381811061348c57fe5b905060200201358101905081806001019250506133c2565b806064146134c45760405162461bcd60e51b8152600401610c9c906150bb565b50505050505050565b600b5481565b60055481565b60115481565b600081815260366020526040812061113a90614538565b602f60205260009081526040902080546001820154600283015460039093015460ff90921692909184565b61352a33611120565b80613539575061353933613d7e565b6135745760405162461bcd60e51b81526004018080602001828103825260228152602001806159226022913960400191505060405180910390fd5b600454158061359157506000600454118015613591575060045442105b6135ad5760405162461bcd60e51b8152600401610c9c9061572c565b6026546040516370a0823160e01b81526000916001600160a01b0316906370a08231906135de903090600401614e57565b60206040518083038186803b1580156135f657600080fd5b505afa15801561360a573d6000803e3d6000fd5b505050506040513d601f19601f8201168201806040525081019061362e9190614d97565b90508635602088013501811080159061364f575080670de0b6b3a764000011155b61366b5760405162461bcd60e51b8152600401610c9c906156c6565b8484600081811061367857fe5b905060200201358660066008811061368c57fe5b6020020135106136ae5760405162461bcd60e51b8152600401610c9c90615596565b60035460025487359101106136d55760405162461bcd60e51b8152600401610c9c906151f1565b60208601358635106136f95760405162461bcd60e51b8152600401610c9c90615773565b831580159061370757508382145b6137235760405162461bcd60e51b8152600401610c9c9061556b565b600154156137505761373433613d7e565b6137505760405162461bcd60e51b8152600401610c9c906154fa565b613767883560208a013560408b01358b600361270c565b613781608089013560a08a013560c08b01358b6007612729565b61378e873588600161242c565b61379e604088013588600361243f565b6137b0608088013560a0890135612ff3565b6137ba8635611db7565b6137d660208701356040880135606089013560808a0135610c28565b6137e860a087013560c088013561167d565b6137f960e087013586868686613300565b5050505050505050565b7ff0887ba65ee2024ea881d91b74c2450ef19e1557f03bed3ea9f16b037cbe2dc981565b60008281526036602052604090206002015461384590610974613f14565b6114365760405162461bcd60e51b81526004018080602001828103825260308152602001806159ac6030913960400191505060405180910390fd5b60205481565b60065481565b61389533611120565b806138a457506138a433613d7e565b6138df5760405162461bcd60e51b81526004018080602001828103825260228152602001806159226022913960400191505060405180910390fd5b602380546001600160a01b0319166001600160a01b0392909216919091179055565b6029818154811061391157600080fd5b6000918252602090912001546001600160a01b0316905081565b6026546001600160a01b031681565b60185481565b61394933611120565b80613958575061395833613d7e565b6139935760405162461bcd60e51b81526004018080602001828103825260228152602001806159226022913960400191505060405180910390fd5b81600081116139b45760405162461bcd60e51b8152600401610c9c906155b8565b81600081116139d55760405162461bcd60e51b8152600401610c9c906155b8565b60045415806139f2575060006004541180156139f2575060045442105b613a0e5760405162461bcd60e51b8152600401610c9c9061572c565b60145415613a3b57613a1f33613d7e565b613a3b5760405162461bcd60e51b8152600401610c9c906154fa565b5050601491909155601555565b600f5481565b602d8181548110613a5e57600080fd5b600091825260209091200154905081565b8060008111613a905760405162461bcd60e51b8152600401610c9c906155b8565b602c5460008111613ab35760405162461bcd60e51b8152600401610c9c906155b8565b60026037541415613af9576040805162461bcd60e51b815260206004820152601f60248201526000805160206158e2833981519152604482015290519081900360640190fd5b6002603755600654421015613b205760405162461bcd60e51b8152600401610c9c9061500f565b6007544210613b415760405162461bcd60e51b8152600401610c9c9061525f565b6001600160a01b0384166000908152602f60205260409020805460ff161515600114613b7f5760405162461bcd60e51b8152600401610c9c906153df565b6000613b8a85612f6b565b90506000613b9787610dc1565b6003840154909150613ba99083613eba565b811015613bc85760405162461bcd60e51b8152600401610c9c906151a5565b6000613bd38861274b565b9050836002015460001415613c2e57600c54613bf0906001613eba565b600c55600b54613c01906001613eba565b600b55600081815260346020526040902054613c1e906001613eba565b6000828152603460205260409020555b6002840154613c3d9088613eba565b60028501556003840154613c519084613eba565b6003850155601054613c639088613eba565b601055600f54613c739084613eba565b600f55613c808789613fea565b50506001603755505050505050565b602b5460ff1681565b613ca133611120565b80613cb05750613cb033613d7e565b613ceb5760405162461bcd60e51b81526004018080602001828103825260228152602001806159226022913960400191505060405180910390fd5b8160008111613d0c5760405162461bcd60e51b8152600401610c9c906155b8565b6004541580613d2957506000600454118015613d29575060045442105b613d455760405162461bcd60e51b8152600401610c9c9061572c565b60125415613d7257613d5633613d7e565b613d725760405162461bcd60e51b8152600401610c9c906154fa565b50601291909155601355565b600061113a8183612db0565b60195481565b600080613d9e611fc76124a8565b905060006019548210613dcf57613dc56064610e31601a5485613e1f90919063ffffffff16565b9250611196915050565b600092505050611196565b602e8181548110613a5e57600080fd5b602a818154811061391157600080fd5b60316020526000908152604090208054600182015460029092015460ff909116919083565b600082613e2e5750600061113a565b82820282848281613e3b57fe5b0414611d6d5760405162461bcd60e51b81526004018080602001828103825260218152602001806159fc6021913960400191505060405180910390fd5b6000611d6d83836040518060400160405280601a81526020017f536166654d6174683a206469766973696f6e206279207a65726f000000000000815250614543565b600082820183811015611d6d576040805162461bcd60e51b815260206004820152601b60248201527f536166654d6174683a206164646974696f6e206f766572666c6f770000000000604482015290519081900360640190fd5b3390565b6000828152603660205260409020613f3090826145e5565b156113db57613f3d613f14565b6001600160a01b0316816001600160a01b0316837f2f8788117e7eff1d82e926ec794901d17c78024a50270940304540a733656f0d60405160405180910390a45050565b6000828152603660205260409020613f9990826145fa565b156113db57613fa6613f14565b6001600160a01b0316816001600160a01b0316837ff6391f5c32d9c69d2a47ea670b442974b53935d1edc7fd64eb21e047a839171b60405160405180910390a45050565b816000811161400b5760405162461bcd60e51b8152600401610c9c906155b8565b816001600160a01b0381166140325760405162461bcd60e51b8152600401610c9c90615376565b602554604051636eb1769f60e11b81526000916001600160a01b03169063dd62ed3e906140659087903090600401614e6b565b60206040518083038186803b15801561407d57600080fd5b505afa158015614091573d6000803e3d6000fd5b505050506040513d601f19601f820116820180604052508101906140b59190614d97565b6025546040516370a0823160e01b81529192506000916001600160a01b03909116906370a08231906140eb908890600401614e57565b60206040518083038186803b15801561410357600080fd5b505afa158015614117573d6000803e3d6000fd5b505050506040513d601f19601f8201168201806040525081019061413b9190614d97565b905080821115614149578091505b858210156143ae5760008061415e88856144d5565b90506141698161460f565b602454604051636eb1769f60e11b815291935083916001600160a01b039091169063dd62ed3e906141a0908b903090600401614e6b565b602060405180830381600087803b1580156141ba57600080fd5b505af11580156141ce573d6000803e3d6000fd5b505050506040513d601f19601f820116820180604052508101906141f29190614d97565b10156142105760405162461bcd60e51b8152600401610c9c906156ea565b6024546040516370a0823160e01b815283916001600160a01b0316906370a0823190614240908b90600401614e57565b60206040518083038186803b15801561425857600080fd5b505afa15801561426c573d6000803e3d6000fd5b505050506040513d601f19601f820116820180604052508101906142909190614d97565b10156142ae5760405162461bcd60e51b8152600401610c9c90615093565b6024546142c6906001600160a01b0316883085614618565b60245460405163f53fe70f60e01b81526001600160a01b039091169063f53fe70f906142f6908590600401614f22565b602060405180830381600087803b15801561431057600080fd5b505af1158015614324573d6000803e3d6000fd5b505050506040513d601f19601f820116820180604052508101906143489190614c87565b5061435388826144d5565b8410156143725760405162461bcd60e51b8152600401610c9c90614fce565b600061437e89836144d5565b11156143a7576143a787306143938b856144d5565b6025546001600160a01b0316929190614618565b50506143f2565b8582101580156143be5750858110155b6143da5760405162461bcd60e51b8152600401610c9c90614fce565b6025546143f2906001600160a01b0316863089614618565b60075442101561444257846001600160a01b03167fc2198f7273f3b4ab95a025cf1f853777ca45149bbc1c005496959a6da70fcb8d876040516144359190614f22565b60405180910390a261447b565b846001600160a01b03167f2da466a7b24304f47e87fa2e1e5a81b9831ce54fec19055ce277ca2f39ba42c487604051611b159190614f22565b505050505050565b604080516001600160a01b038416602482015260448082018490528251808303909101815260649091019091526020810180516001600160e01b031663a9059cbb60e01b179052611b21908490614678565b6000611d6d83836040518060400160405280601e81526020017f536166654d6174683a207375627472616374696f6e206f766572666c6f770000815250614729565b6000611d6d8383614783565b6000611d6d836001600160a01b0384166147e7565b600061113a826147ff565b600081836145cf5760405162461bcd60e51b81526004018080602001828103825283818151815260200191508051906020019080838360005b8381101561459457818101518382015260200161457c565b50505050905090810190601f1680156145c15780820380516001836020036101000a031916815260200191505b509250505060405180910390fd5b5060008385816145db57fe5b0495945050505050565b6000611d6d836001600160a01b038416614803565b6000611d6d836001600160a01b03841661484d565b633b9aca000290565b604080516001600160a01b0380861660248301528416604482015260648082018490528251808303909101815260849091019091526020810180516001600160e01b03166323b872dd60e01b179052614672908590614678565b50505050565b60006146cd826040518060400160405280602081526020017f5361666545524332303a206c6f772d6c6576656c2063616c6c206661696c6564815250856001600160a01b03166149139092919063ffffffff16565b805190915015611b21578080602001905160208110156146ec57600080fd5b5051611b215760405162461bcd60e51b815260040180806020018281038252602a815260200180615a1d602a913960400191505060405180910390fd5b6000818484111561477b5760405162461bcd60e51b815260206004820181815283516024840152835190928392604490910191908501908083836000831561459457818101518382015260200161457c565b505050900390565b815460009082106147c55760405162461bcd60e51b81526004018080602001828103825260228152602001806158916022913960400191505060405180910390fd5b8260000182815481106147d457fe5b9060005260206000200154905092915050565b60009081526001919091016020526040902054151590565b5490565b600061480f83836147e7565b6148455750815460018181018455600084815260208082209093018490558454848252828601909352604090209190915561113a565b50600061113a565b60008181526001830160205260408120548015614909578354600019808301919081019060009087908390811061488057fe5b906000526020600020015490508087600001848154811061489d57fe5b6000918252602080832090910192909255828152600189810190925260409020908401905586548790806148cd57fe5b6001900381819060005260206000200160009055905586600101600087815260200190815260200160002060009055600194505050505061113a565b600091505061113a565b60606132f284846000858561492785614a38565b614978576040805162461bcd60e51b815260206004820152601d60248201527f416464726573733a2063616c6c20746f206e6f6e2d636f6e7472616374000000604482015290519081900360640190fd5b600080866001600160a01b031685876040518082805190602001908083835b602083106149b65780518252601f199092019160209182019101614997565b6001836020036101000a03801982511681845116808217855250505050505090500191505060006040518083038185875af1925050503d8060008114614a18576040519150601f19603f3d011682016040523d82523d6000602084013e614a1d565b606091505b5091509150614a2d828286614a3e565b979650505050505050565b3b151590565b60608315614a4d575081611d6d565b825115614a5d5782518084602001fd5b60405162461bcd60e51b815260206004820181815284516024840152845185939192839260440191908501908083836000831561459457818101518382015260200161457c565b80356001600160a01b0381168114610eab57600080fd5b806040810183101561113a57600080fd5b806080810183101561113a57600080fd5b80610100810183101561113a57600080fd5b60008083601f840112614b00578182fd5b50813567ffffffffffffffff811115614b17578182fd5b6020830191508360208083028501011115614b3157600080fd5b9250929050565b600060208284031215614b49578081fd5b611d6d82614aa4565b60008060408385031215614b64578081fd5b614b6d83614aa4565b946020939093013593505050565b60008060808385031215614b8d578182fd5b614b978484614abb565b9150614ba68460408501614abb565b90509250929050565b6000806101008385031215614bc2578182fd5b614bcc8484614acc565b9150614ba68460808501614acc565b6000806000806000806000610300888a031215614bf6578283fd5b614c008989614add565b96506101c0880189811115614c13578384fd5b61010089019650614c248a82614add565b9550506102c088013567ffffffffffffffff80821115614c42578485fd5b614c4e8b838c01614aef565b90965094506102e08a0135915080821115614c67578384fd5b50614c748a828b01614aef565b989b979a50959850939692959293505050565b600060208284031215614c98578081fd5b81518015158114611d6d578182fd5b600060208284031215614cb8578081fd5b5035919050565b60008060408385031215614cd1578182fd5b82359150614ba660208401614aa4565b60008060408385031215614cf3578182fd5b50508035926020909101359150565b60006020808385031215614d14578182fd5b823567ffffffffffffffff80821115614d2b578384fd5b818501915085601f830112614d3e578384fd5b813581811115614d4a57fe5b604051601f8201601f1916810185018381118282101715614d6757fe5b6040528181528382018501881015614d7d578586fd5b818585018683013790810190930193909352509392505050565b600060208284031215614da8578081fd5b5051919050565b600080600080600060608688031215614dc6578081fd5b85359450602086013567ffffffffffffffff80821115614de4578283fd5b614df089838a01614aef565b90965094506040880135915080821115614e08578283fd5b50614e1588828901614aef565b969995985093965092949392505050565b60008060008060808587031215614e3b578182fd5b5050823594602084013594506040840135936060013592509050565b6001600160a01b0391909116815260200190565b6001600160a01b0392831681529116602082015260400190565b6001600160a01b03929092168252602082015260400190565b6020808252825182820181905260009190848201906040850190845b81811015614ed657835183529284019291840191600101614eba565b50909695505050505050565b901515815260200190565b92151583526020830191909152604082015260600190565b931515845260208401929092526040830152606082015260800190565b90815260200190565b6020808252818101527f5075626c696353616c653a20646f6e74206861766520726566756e6420746f6e604082015260600190565b6020808252601d908201527f5075626c696353616c653a206e65656420746f206d6f72652073544f53000000604082015260600190565b6020808252601b908201527f5075626c696353616c65203a20526f756e643174696d65206572720000000000604082015260600190565b60208082526021908201527f5075626c696353616c653a20746f6e206578636565647320616c6c6f77616e636040820152606560f81b606082015260800190565b6020808252602d908201527f5075626c696353616c653a206578636c7573697665537461727454696d65206860408201526c185cc81b9bdd081c185cdcd959609a1b606082015260800190565b6020808252601f908201527f5075626c696353616c653a20616c7265616479206765742074686520544f4e00604082015260600190565b6020808252600e908201526d3732b2b21036b7b932903bba37b760911b604082015260600190565b60208082526011908201527031b630b4b6a832b931b2b73a399032b93960791b604082015260600190565b60208082526021908201527f5075626c696353616c653a20656e64207468652077686974656c69737454696d6040820152606560f81b606082015260800190565b60208082526027908201527f5075626c696353616c653a206e65656420746f20656e6420746865206465706f60408201526673697454696d6560c81b606082015260800190565b6020808252601f908201527f5075626c696353616c653a206e65656420746f20736574206d696e2c6d617800604082015260600190565b6020808252602c908201527f5075626c696353616c653a206a757374206275792074696572277320616c6c6f60408201526b18d85d195908185b5bdd5b9d60a21b606082015260800190565b60208082526013908201527239b730b839b437ba103732b2b2103630ba32b960691b604082015260600190565b60208082526021908201527f5075626c696353616c653a20646f6e277420737461727420636c61696d54696d6040820152606560f81b606082015260800190565b60208082526021908201527f5075626c696353616c653a20656e6420746865206578636c757369766554696d6040820152606560f81b606082015260800190565b6020808252601e908201527f5075626c696353616c653a206e6f20707572636861736520616d6f756e740000604082015260600190565b6020808252818101527f5075626c696353616c653a20616c726561647920676574416c6c726577617264604082015260600190565b602080825260199082015278283ab13634b1a9b0b6329d1031b630b4b6ba34b6b29032b93960391b604082015260600190565b6020808252601f908201527f5075626c696353616c653a2053756d2073686f756c6420626520313030303000604082015260600190565b6020808252601890820152775075626c696353616c653a207a65726f206164647265737360401b604082015260600190565b6020808252601b908201527f5075626c696353616c65203a20526f756e643274696d65206572720000000000604082015260600190565b60208082526027908201527f5075626c696353616c653a206e6f74207265676973746572656420696e2077686040820152661a5d195b1a5cdd60ca1b606082015260800190565b6020808252601f908201527f5075626c696353616c653a20656e6420746865206465706f73697454696d6500604082015260600190565b6020808252601f908201527f5075626c696353616c653a206e6f20746f6b656e20746f207265636569766500604082015260600190565b6020808252601d908201527f5075626c696353616c653a20616c726561647920676574526566756e64000000604082015260600190565b602080825260159082015274141d589b1a58d4d85b194e881b9bc81c995dd85c99605a1b604082015260600190565b60208082526010908201526f1bdb9b1e48111053c818d85b881cd95d60821b604082015260600190565b60208082526027908201527f5075626c696353616c653a20646f6e7420686176652073616c65546f6b656e206040820152661a5b881c1bdbdb60ca1b606082015260800190565b6020808252601190820152701b995959081d1a194818db185a5b54d95d607a1b604082015260600190565b6020808252600890820152673a34b6b29032b93960c11b604082015260600190565b60208082526010908201526f5075626c696353616c653a207a65726f60801b604082015260600190565b6020808252600e908201526d3a34b2b91039b2ba1032b93937b960911b604082015260600190565b60208082526022908201527f5075626c696353616c653a20646f6e2774207061737320746865206861726443604082015261061760f41b606082015260800190565b60208082526023908201527f5075626c696353616c653a20646f6e2774207374617274206465706f73697454604082015262696d6560e81b606082015260800190565b6020808252601c908201527f5075626c696353616c653a20616c726561647920617474656e64656400000000604082015260600190565b6020808252600a908201526930b6b7bab73a1032b93960b11b604082015260600190565b60208082526022908201527f5075626c696353616c653a2077746f6e206578636565647320616c6c6f77616e604082015261636560f01b606082015260800190565b60208082526027908201527f5075626c696353616c653a206e6f74206265666f72655374617274416464576860408201526669746554696d6560c81b606082015260800190565b6020808252601990820152781dda1a5d195b1a5cdd081899599bdc99481cdb985c1cda1bdd603a1b604082015260600190565b6020808252602d908201527f5075626c696353616c653a2077686974656c697374537461727454696d65206860408201526c185cc81b9bdd081c185cdcd959609a1b606082015260800190565b81516001600160a01b03908116825260208084015182169083015260408084015162ffffff16908301526060808401518216908301526080808401519083015260a0838101519083015260c0808401519083015260e09283015116918101919091526101000190565b62ffffff91909116815260200190565b918252602082015260400190565b928352602083019190915260408201526060019056fe456e756d657261626c655365743a20696e646578206f7574206f6620626f756e6473416363657373436f6e74726f6c3a2073656e646572206d75737420626520616e2061646d696e20746f206772616e745265656e7472616e637947756172643a207265656e7472616e742063616c6c0052eafc11f6f81f86878bffd31109a0d92f37506527754f00788853ff9f63b13041636365737369626c653a2043616c6c6572206973206e6f7420616e2061646d696e0d07fe408fa264e656a9c06e272928e4d4bb400d93cd5b5e74ac592f6170c2fd1f20ec30f5e9c102cf5806d0bb8118b98c797a37ea4ca5b5c306ba879366c77c41636365737369626c653a2043616c6c6572206973206e6f7420616e2070726f78792061646d696e416363657373436f6e74726f6c3a2073656e646572206d75737420626520616e2061646d696e20746f207265766f6b659ff19f865638bb86eeeae31c2a9ec896d92141edd461fe8f31e9e7484e4d2bb5536166654d6174683a206d756c7469706c69636174696f6e206f766572666c6f775361666545524332303a204552433230206f7065726174696f6e20646964206e6f7420737563636565643f52cf82629296489b84e1dbb72f035157400392aa100335795b652755f8cdda416363657373436f6e74726f6c3a2063616e206f6e6c792072656e6f756e636520726f6c657320666f722073656c66a2646970667358221220df764a997a62d49996fa77d5d058f5f7c96342b3a01e222825229407f8da0b0664736f6c63430007060033",
  "linkReferences": {},
  "deployedLinkReferences": {}
}