{
  "_format": "hh-sol-artifact-1",
  "contractName": "AccessibleCommon",
  "sourceName": "contracts/common/AccessibleCommon.sol",
  "abi": [
    {
      "anonymous": false,
      "inputs": [
        {
          "indexed": true,
          "internalType": "bytes32",
          "name": "role",
          "type": "bytes32"
        },
        {
          "indexed": true,
          "internalType": "bytes32",
          "name": "previousAdminRole",
          "type": "bytes32"
        },
        {
          "indexed": true,
          "internalType": "bytes32",
          "name": "newAdminRole",
          "type": "bytes32"
        }
      ],
      "name": "RoleAdminChanged",
      "type": "event"
    },
    {
      "anonymous": false,
      "inputs": [
        {
          "indexed": true,
          "internalType": "bytes32",
          "name": "role",
          "type": "bytes32"
        },
        {
          "indexed": true,
          "internalType": "address",
          "name": "account",
          "type": "address"
        },
        {
          "indexed": true,
          "internalType": "address",
          "name": "sender",
          "type": "address"
        }
      ],
      "name": "RoleGranted",
      "type": "event"
    },
    {
      "anonymous": false,
      "inputs": [
        {
          "indexed": true,
          "internalType": "bytes32",
          "name": "role",
          "type": "bytes32"
        },
        {
          "indexed": true,
          "internalType": "address",
          "name": "account",
          "type": "address"
        },
        {
          "indexed": true,
          "internalType": "address",
          "name": "sender",
          "type": "address"
        }
      ],
      "name": "RoleRevoked",
      "type": "event"
    },
    {
      "inputs": [],
      "name": "ADMIN_ROLE",
      "outputs": [
        {
          "internalType": "bytes32",
          "name": "",
          "type": "bytes32"
        }
      ],
      "stateMutability": "view",
      "type": "function"
    },
    {
      "inputs": [],
      "name": "BURNER_ROLE",
      "outputs": [
        {
          "internalType": "bytes32",
          "name": "",
          "type": "bytes32"
        }
      ],
      "stateMutability": "view",
      "type": "function"
    },
    {
      "inputs": [],
      "name": "DEFAULT_ADMIN_ROLE",
      "outputs": [
        {
          "internalType": "bytes32",
          "name": "",
          "type": "bytes32"
        }
      ],
      "stateMutability": "view",
      "type": "function"
    },
    {
      "inputs": [],
      "name": "MINTER_ROLE",
      "outputs": [
        {
          "internalType": "bytes32",
          "name": "",
          "type": "bytes32"
        }
      ],
      "stateMutability": "view",
      "type": "function"
    },
    {
      "inputs": [],
      "name": "PROJECT_ADMIN_ROLE",
      "outputs": [
        {
          "internalType": "bytes32",
          "name": "",
          "type": "bytes32"
        }
      ],
      "stateMutability": "view",
      "type": "function"
    },
    {
      "inputs": [
        {
          "internalType": "address",
          "name": "account",
          "type": "address"
        }
      ],
      "name": "addAdmin",
      "outputs": [],
      "stateMutability": "nonpayable",
      "type": "function"
    },
    {
      "inputs": [
        {
          "internalType": "bytes32",
          "name": "role",
          "type": "bytes32"
        }
      ],
      "name": "getRoleAdmin",
      "outputs": [
        {
          "internalType": "bytes32",
          "name": "",
          "type": "bytes32"
        }
      ],
      "stateMutability": "view",
      "type": "function"
    },
    {
      "inputs": [
        {
          "internalType": "bytes32",
          "name": "role",
          "type": "bytes32"
        },
        {
          "internalType": "uint256",
          "name": "index",
          "type": "uint256"
        }
      ],
      "name": "getRoleMember",
      "outputs": [
        {
          "internalType": "address",
          "name": "",
          "type": "address"
        }
      ],
      "stateMutability": "view",
      "type": "function"
    },
    {
      "inputs": [
        {
          "internalType": "bytes32",
          "name": "role",
          "type": "bytes32"
        }
      ],
      "name": "getRoleMemberCount",
      "outputs": [
        {
          "internalType": "uint256",
          "name": "",
          "type": "uint256"
        }
      ],
      "stateMutability": "view",
      "type": "function"
    },
    {
      "inputs": [
        {
          "internalType": "bytes32",
          "name": "role",
          "type": "bytes32"
        },
        {
          "internalType": "address",
          "name": "account",
          "type": "address"
        }
      ],
      "name": "grantRole",
      "outputs": [],
      "stateMutability": "nonpayable",
      "type": "function"
    },
    {
      "inputs": [
        {
          "internalType": "bytes32",
          "name": "role",
          "type": "bytes32"
        },
        {
          "internalType": "address",
          "name": "account",
          "type": "address"
        }
      ],
      "name": "hasRole",
      "outputs": [
        {
          "internalType": "bool",
          "name": "",
          "type": "bool"
        }
      ],
      "stateMutability": "view",
      "type": "function"
    },
    {
      "inputs": [
        {
          "internalType": "address",
          "name": "account",
          "type": "address"
        }
      ],
      "name": "isAdmin",
      "outputs": [
        {
          "internalType": "bool",
          "name": "",
          "type": "bool"
        }
      ],
      "stateMutability": "view",
      "type": "function"
    },
    {
      "inputs": [
        {
          "internalType": "address",
          "name": "account",
          "type": "address"
        }
      ],
      "name": "removeAdmin",
      "outputs": [],
      "stateMutability": "nonpayable",
      "type": "function"
    },
    {
      "inputs": [
        {
          "internalType": "bytes32",
          "name": "role",
          "type": "bytes32"
        },
        {
          "internalType": "address",
          "name": "account",
          "type": "address"
        }
      ],
      "name": "renounceRole",
      "outputs": [],
      "stateMutability": "nonpayable",
      "type": "function"
    },
    {
      "inputs": [
        {
          "internalType": "bytes32",
          "name": "role",
          "type": "bytes32"
        },
        {
          "internalType": "address",
          "name": "account",
          "type": "address"
        }
      ],
      "name": "revokeRole",
      "outputs": [],
      "stateMutability": "nonpayable",
      "type": "function"
    },
    {
      "inputs": [
        {
          "internalType": "address",
          "name": "newAdmin",
          "type": "address"
        }
      ],
      "name": "transferAdmin",
      "outputs": [],
      "stateMutability": "nonpayable",
      "type": "function"
    }
  ],
  "bytecode": "0x608060405234801561001057600080fd5b50610ae2806100206000396000f3fe608060405234801561001057600080fd5b50600436106100e05760003560e01c806375829def1161008757806375829def1461020457806375b238fc1461022a5780639010d07c1461023257806391d1485414610271578063a217fddf1461029d578063ca15c873146102a5578063d5391393146102c2578063d547741f146102ca576100e0565b80631785f53c146100e5578063248a9ca31461010d57806324d7806c1461013c578063282c51f3146101765780632f2ff15d1461017e57806336568abe146101aa57806341c04d5e146101d657806370480275146101de575b600080fd5b61010b600480360360208110156100fb57600080fd5b50356001600160a01b03166102f6565b005b61012a6004803603602081101561012357600080fd5b5035610355565b60408051918252519081900360200190f35b6101626004803603602081101561015257600080fd5b50356001600160a01b031661036a565b604080519115158252519081900360200190f35b61012a61038a565b61010b6004803603604081101561019457600080fd5b50803590602001356001600160a01b03166103ae565b61010b600480360360408110156101c057600080fd5b50803590602001356001600160a01b031661041a565b61012a61047b565b61010b600480360360208110156101f457600080fd5b50356001600160a01b031661049f565b61010b6004803603602081101561021a57600080fd5b50356001600160a01b03166104fb565b61012a61061c565b6102556004803603604081101561024857600080fd5b508035906020013561062e565b604080516001600160a01b039092168252519081900360200190f35b6101626004803603604081101561028757600080fd5b50803590602001356001600160a01b031661064d565b61012a610665565b61012a600480360360208110156102bb57600080fd5b503561066a565b61012a610681565b61010b600480360360408110156102e057600080fd5b50803590602001356001600160a01b03166106a5565b6102ff3361036a565b61033a5760405162461bcd60e51b8152600401808060200182810382526022815260200180610a0c6022913960400191505060405180910390fd5b610352600080516020610a5e8339815191528261041a565b50565b60009081526020819052604090206002015490565b6000610384600080516020610a5e8339815191528361064d565b92915050565b7f9667e80708b6eeeb0053fa0cca44e028ff548e2a9f029edfeac87c118b08b7c881565b6000828152602081905260409020600201546103d1906103cc6106fe565b61064d565b61040c5760405162461bcd60e51b815260040180806020018281038252602f8152602001806109dd602f913960400191505060405180910390fd5b6104168282610702565b5050565b6104226106fe565b6001600160a01b0316816001600160a01b0316146104715760405162461bcd60e51b815260040180806020018281038252602f815260200180610a7e602f913960400191505060405180910390fd5b610416828261076b565b7f52eafc11f6f81f86878bffd31109a0d92f37506527754f00788853ff9f63b13081565b6104a83361036a565b6104e35760405162461bcd60e51b8152600401808060200182810382526022815260200180610a0c6022913960400191505060405180910390fd5b610352600080516020610a5e833981519152826103ae565b6105043361036a565b61053f5760405162461bcd60e51b8152600401808060200182810382526022815260200180610a0c6022913960400191505060405180910390fd5b6001600160a01b038116610595576040805162461bcd60e51b815260206004820152601860248201527741636365737369626c653a207a65726f206164647265737360401b604482015290519081900360640190fd5b336001600160a01b03821614156105ec576040805162461bcd60e51b815260206004820152601660248201527520b1b1b2b9b9b4b136329d1039b0b6b29030b236b4b760511b604482015290519081900360640190fd5b610604600080516020610a5e833981519152826103ae565b610352600080516020610a5e8339815191523361041a565b600080516020610a5e83398151915281565b600082815260208190526040812061064690836107d4565b9392505050565b600082815260208190526040812061064690836107e0565b600081565b6000818152602081905260408120610384906107f5565b7ff0887ba65ee2024ea881d91b74c2450ef19e1557f03bed3ea9f16b037cbe2dc981565b6000828152602081905260409020600201546106c3906103cc6106fe565b6104715760405162461bcd60e51b8152600401808060200182810382526030815260200180610a2e6030913960400191505060405180910390fd5b3390565b600082815260208190526040902061071a9082610800565b15610416576107276106fe565b6001600160a01b0316816001600160a01b0316837f2f8788117e7eff1d82e926ec794901d17c78024a50270940304540a733656f0d60405160405180910390a45050565b60008281526020819052604090206107839082610815565b15610416576107906106fe565b6001600160a01b0316816001600160a01b0316837ff6391f5c32d9c69d2a47ea670b442974b53935d1edc7fd64eb21e047a839171b60405160405180910390a45050565b6000610646838361082a565b6000610646836001600160a01b03841661088e565b6000610384826108a6565b6000610646836001600160a01b0384166108aa565b6000610646836001600160a01b0384166108f4565b8154600090821061086c5760405162461bcd60e51b81526004018080602001828103825260228152602001806109bb6022913960400191505060405180910390fd5b82600001828154811061087b57fe5b9060005260206000200154905092915050565b60009081526001919091016020526040902054151590565b5490565b60006108b6838361088e565b6108ec57508154600181810184556000848152602080822090930184905584548482528286019093526040902091909155610384565b506000610384565b600081815260018301602052604081205480156109b0578354600019808301919081019060009087908390811061092757fe5b906000526020600020015490508087600001848154811061094457fe5b60009182526020808320909101929092558281526001898101909252604090209084019055865487908061097457fe5b60019003818190600052602060002001600090559055866001016000878152602001908152602001600020600090556001945050505050610384565b600091505061038456fe456e756d657261626c655365743a20696e646578206f7574206f6620626f756e6473416363657373436f6e74726f6c3a2073656e646572206d75737420626520616e2061646d696e20746f206772616e7441636365737369626c653a2043616c6c6572206973206e6f7420616e2061646d696e416363657373436f6e74726f6c3a2073656e646572206d75737420626520616e2061646d696e20746f207265766f6b65df8b4c520ffe197c5343c6f5aec59570151ef9a492f2c624fd45ddde6135ec42416363657373436f6e74726f6c3a2063616e206f6e6c792072656e6f756e636520726f6c657320666f722073656c66a2646970667358221220f12a289c22d9fa23fcf84ca79ab3f77756435f00307990ed98c4e16eb7378aab64736f6c63430007060033",
  "linkReferences": {},
  "deployedLinkReferences": {}
}