{
  "_format": "hh-sol-artifact-1",
  "contractName": "ProxyAccessCommon",
  "sourceName": "contracts/common/ProxyAccessCommon.sol",
  "abi": [
    {
      "anonymous": false,
      "inputs": [
        {
          "indexed": true,
          "internalType": "bytes32",
          "name": "role",
          "type": "bytes32"
        },
        {
          "indexed": true,
          "internalType": "bytes32",
          "name": "previousAdminRole",
          "type": "bytes32"
        },
        {
          "indexed": true,
          "internalType": "bytes32",
          "name": "newAdminRole",
          "type": "bytes32"
        }
      ],
      "name": "RoleAdminChanged",
      "type": "event"
    },
    {
      "anonymous": false,
      "inputs": [
        {
          "indexed": true,
          "internalType": "bytes32",
          "name": "role",
          "type": "bytes32"
        },
        {
          "indexed": true,
          "internalType": "address",
          "name": "account",
          "type": "address"
        },
        {
          "indexed": true,
          "internalType": "address",
          "name": "sender",
          "type": "address"
        }
      ],
      "name": "RoleGranted",
      "type": "event"
    },
    {
      "anonymous": false,
      "inputs": [
        {
          "indexed": true,
          "internalType": "bytes32",
          "name": "role",
          "type": "bytes32"
        },
        {
          "indexed": true,
          "internalType": "address",
          "name": "account",
          "type": "address"
        },
        {
          "indexed": true,
          "internalType": "address",
          "name": "sender",
          "type": "address"
        }
      ],
      "name": "RoleRevoked",
      "type": "event"
    },
    {
      "inputs": [],
      "name": "ADMIN_ROLE",
      "outputs": [
        {
          "internalType": "bytes32",
          "name": "",
          "type": "bytes32"
        }
      ],
      "stateMutability": "view",
      "type": "function"
    },
    {
      "inputs": [],
      "name": "BURNER_ROLE",
      "outputs": [
        {
          "internalType": "bytes32",
          "name": "",
          "type": "bytes32"
        }
      ],
      "stateMutability": "view",
      "type": "function"
    },
    {
      "inputs": [],
      "name": "DEFAULT_ADMIN_ROLE",
      "outputs": [
        {
          "internalType": "bytes32",
          "name": "",
          "type": "bytes32"
        }
      ],
      "stateMutability": "view",
      "type": "function"
    },
    {
      "inputs": [],
      "name": "MINTER_ROLE",
      "outputs": [
        {
          "internalType": "bytes32",
          "name": "",
          "type": "bytes32"
        }
      ],
      "stateMutability": "view",
      "type": "function"
    },
    {
      "inputs": [],
      "name": "PROJECT_ADMIN_ROLE",
      "outputs": [
        {
          "internalType": "bytes32",
          "name": "",
          "type": "bytes32"
        }
      ],
      "stateMutability": "view",
      "type": "function"
    },
    {
      "inputs": [
        {
          "internalType": "address",
          "name": "account",
          "type": "address"
        }
      ],
      "name": "addAdmin",
      "outputs": [],
      "stateMutability": "nonpayable",
      "type": "function"
    },
    {
      "inputs": [
        {
          "internalType": "address",
          "name": "_owner",
          "type": "address"
        }
      ],
      "name": "addProxyAdmin",
      "outputs": [],
      "stateMutability": "nonpayable",
      "type": "function"
    },
    {
      "inputs": [
        {
          "internalType": "bytes32",
          "name": "role",
          "type": "bytes32"
        }
      ],
      "name": "getRoleAdmin",
      "outputs": [
        {
          "internalType": "bytes32",
          "name": "",
          "type": "bytes32"
        }
      ],
      "stateMutability": "view",
      "type": "function"
    },
    {
      "inputs": [
        {
          "internalType": "bytes32",
          "name": "role",
          "type": "bytes32"
        },
        {
          "internalType": "uint256",
          "name": "index",
          "type": "uint256"
        }
      ],
      "name": "getRoleMember",
      "outputs": [
        {
          "internalType": "address",
          "name": "",
          "type": "address"
        }
      ],
      "stateMutability": "view",
      "type": "function"
    },
    {
      "inputs": [
        {
          "internalType": "bytes32",
          "name": "role",
          "type": "bytes32"
        }
      ],
      "name": "getRoleMemberCount",
      "outputs": [
        {
          "internalType": "uint256",
          "name": "",
          "type": "uint256"
        }
      ],
      "stateMutability": "view",
      "type": "function"
    },
    {
      "inputs": [
        {
          "internalType": "bytes32",
          "name": "role",
          "type": "bytes32"
        },
        {
          "internalType": "address",
          "name": "account",
          "type": "address"
        }
      ],
      "name": "grantRole",
      "outputs": [],
      "stateMutability": "nonpayable",
      "type": "function"
    },
    {
      "inputs": [
        {
          "internalType": "bytes32",
          "name": "role",
          "type": "bytes32"
        },
        {
          "internalType": "address",
          "name": "account",
          "type": "address"
        }
      ],
      "name": "hasRole",
      "outputs": [
        {
          "internalType": "bool",
          "name": "",
          "type": "bool"
        }
      ],
      "stateMutability": "view",
      "type": "function"
    },
    {
      "inputs": [
        {
          "internalType": "address",
          "name": "account",
          "type": "address"
        }
      ],
      "name": "isAdmin",
      "outputs": [
        {
          "internalType": "bool",
          "name": "",
          "type": "bool"
        }
      ],
      "stateMutability": "view",
      "type": "function"
    },
    {
      "inputs": [
        {
          "internalType": "address",
          "name": "account",
          "type": "address"
        }
      ],
      "name": "isProxyAdmin",
      "outputs": [
        {
          "internalType": "bool",
          "name": "",
          "type": "bool"
        }
      ],
      "stateMutability": "view",
      "type": "function"
    },
    {
      "inputs": [],
      "name": "removeAdmin",
      "outputs": [],
      "stateMutability": "nonpayable",
      "type": "function"
    },
    {
      "inputs": [],
      "name": "removeProxyAdmin",
      "outputs": [],
      "stateMutability": "nonpayable",
      "type": "function"
    },
    {
      "inputs": [
        {
          "internalType": "bytes32",
          "name": "role",
          "type": "bytes32"
        },
        {
          "internalType": "address",
          "name": "account",
          "type": "address"
        }
      ],
      "name": "renounceRole",
      "outputs": [],
      "stateMutability": "nonpayable",
      "type": "function"
    },
    {
      "inputs": [
        {
          "internalType": "bytes32",
          "name": "role",
          "type": "bytes32"
        },
        {
          "internalType": "address",
          "name": "account",
          "type": "address"
        }
      ],
      "name": "revokeRole",
      "outputs": [],
      "stateMutability": "nonpayable",
      "type": "function"
    },
    {
      "inputs": [
        {
          "internalType": "address",
          "name": "newAdmin",
          "type": "address"
        }
      ],
      "name": "transferAdmin",
      "outputs": [],
      "stateMutability": "nonpayable",
      "type": "function"
    },
    {
      "inputs": [
        {
          "internalType": "address",
          "name": "newAdmin",
          "type": "address"
        }
      ],
      "name": "transferProxyAdmin",
      "outputs": [],
      "stateMutability": "nonpayable",
      "type": "function"
    }
  ],
  "bytecode": "0x608060405234801561001057600080fd5b50610d83806100206000396000f3fe608060405234801561001057600080fd5b506004361061012c5760003560e01c80639010d07c116100ad578063be72f2d311610071578063be72f2d31461031f578063ca15c87314610327578063d539139314610344578063d547741f1461034c578063f47f2f1d146103785761012c565b80639010d07c1461027e57806391d14854146102bd57806396f1557c146102e95780639a202d471461030f578063a217fddf146103175761012c565b806341c04d5e116100f457806341c04d5e146101fc578063704802751461020457806375829def1461022a57806375b238fc146102505780638356ca4f146102585761012c565b8063248a9ca31461013157806324d7806c14610160578063282c51f31461019a5780632f2ff15d146101a257806336568abe146101d0575b600080fd5b61014e6004803603602081101561014757600080fd5b503561039e565b60408051918252519081900360200190f35b6101866004803603602081101561017657600080fd5b50356001600160a01b03166103b3565b604080519115158252519081900360200190f35b61014e6103d3565b6101ce600480360360408110156101b857600080fd5b50803590602001356001600160a01b03166103f7565b005b6101ce600480360360408110156101e657600080fd5b50803590602001356001600160a01b0316610463565b61014e6104c4565b6101ce6004803603602081101561021a57600080fd5b50356001600160a01b03166104d6565b6101ce6004803603602081101561024057600080fd5b50356001600160a01b0316610535565b61014e610665565b6101ce6004803603602081101561026e57600080fd5b50356001600160a01b0316610689565b6102a16004803603604081101561029457600080fd5b5080359060200135610790565b604080516001600160a01b039092168252519081900360200190f35b610186600480360360408110156102d357600080fd5b50803590602001356001600160a01b03166107af565b6101ce600480360360208110156102ff57600080fd5b50356001600160a01b03166107c7565b6101ce610816565b61014e610883565b6101ce610888565b61014e6004803603602081101561033d57600080fd5b50356108d7565b61014e6108ee565b6101ce6004803603604081101561036257600080fd5b50803590602001356001600160a01b0316610912565b6101866004803603602081101561038e57600080fd5b50356001600160a01b031661096b565b60009081526020819052604090206002015490565b60006103cd600080516020610c85833981519152836107af565b92915050565b7f9667e80708b6eeeb0053fa0cca44e028ff548e2a9f029edfeac87c118b08b7c881565b60008281526020819052604090206002015461041a90610415610977565b6107af565b6104555760405162461bcd60e51b815260040180806020018281038252602f815260200180610c56602f913960400191505060405180910390fd5b61045f828261097b565b5050565b61046b610977565b6001600160a01b0316816001600160a01b0316146104ba5760405162461bcd60e51b815260040180806020018281038252602f815260200180610d1f602f913960400191505060405180910390fd5b61045f82826109e4565b600080516020610c8583398151915281565b6104df3361096b565b61051a5760405162461bcd60e51b8152600401808060200182810382526028815260200180610cc76028913960400191505060405180910390fd5b610532600080516020610c85833981519152826103f7565b50565b61053e336103b3565b8061054d575061054d3361096b565b6105885760405162461bcd60e51b8152600401808060200182810382526022815260200180610ca56022913960400191505060405180910390fd5b6001600160a01b0381166105de576040805162461bcd60e51b815260206004820152601860248201527741636365737369626c653a207a65726f206164647265737360401b604482015290519081900360640190fd5b336001600160a01b0382161415610635576040805162461bcd60e51b815260206004820152601660248201527520b1b1b2b9b9b4b136329d1039b0b6b29030b236b4b760511b604482015290519081900360640190fd5b61064d600080516020610c85833981519152826103f7565b610532600080516020610c8583398151915233610463565b7fdf8b4c520ffe197c5343c6f5aec59570151ef9a492f2c624fd45ddde6135ec4281565b6106923361096b565b6106cd5760405162461bcd60e51b8152600401808060200182810382526028815260200180610cc76028913960400191505060405180910390fd5b6001600160a01b038116610723576040805162461bcd60e51b815260206004820152601860248201527741636365737369626c653a207a65726f206164647265737360401b604482015290519081900360640190fd5b336001600160a01b038216141561077a576040805162461bcd60e51b815260206004820152601660248201527520b1b1b2b9b9b4b136329d1039b0b6b29030b236b4b760511b604482015290519081900360640190fd5b6107856000826103f7565b610532600033610463565b60008281526020819052604081206107a89083610a4d565b9392505050565b60008281526020819052604081206107a89083610a59565b6107d03361096b565b61080b5760405162461bcd60e51b8152600401808060200182810382526028815260200180610cc76028913960400191505060405180910390fd5b610532600082610455565b61081f336103b3565b8061082e575061082e3361096b565b6108695760405162461bcd60e51b8152600401808060200182810382526022815260200180610ca56022913960400191505060405180910390fd5b610881600080516020610c8583398151915233610463565b565b600081565b6108913361096b565b6108cc5760405162461bcd60e51b8152600401808060200182810382526028815260200180610cc76028913960400191505060405180910390fd5b610881600033610463565b60008181526020819052604081206103cd90610a6e565b7ff0887ba65ee2024ea881d91b74c2450ef19e1557f03bed3ea9f16b037cbe2dc981565b60008281526020819052604090206002015461093090610415610977565b6104ba5760405162461bcd60e51b8152600401808060200182810382526030815260200180610cef6030913960400191505060405180910390fd5b60006103cd81836107af565b3390565b60008281526020819052604090206109939082610a79565b1561045f576109a0610977565b6001600160a01b0316816001600160a01b0316837f2f8788117e7eff1d82e926ec794901d17c78024a50270940304540a733656f0d60405160405180910390a45050565b60008281526020819052604090206109fc9082610a8e565b1561045f57610a09610977565b6001600160a01b0316816001600160a01b0316837ff6391f5c32d9c69d2a47ea670b442974b53935d1edc7fd64eb21e047a839171b60405160405180910390a45050565b60006107a88383610aa3565b60006107a8836001600160a01b038416610b07565b60006103cd82610b1f565b60006107a8836001600160a01b038416610b23565b60006107a8836001600160a01b038416610b6d565b81546000908210610ae55760405162461bcd60e51b8152600401808060200182810382526022815260200180610c346022913960400191505060405180910390fd5b826000018281548110610af457fe5b9060005260206000200154905092915050565b60009081526001919091016020526040902054151590565b5490565b6000610b2f8383610b07565b610b65575081546001818101845560008481526020808220909301849055845484825282860190935260409020919091556103cd565b5060006103cd565b60008181526001830160205260408120548015610c295783546000198083019190810190600090879083908110610ba057fe5b9060005260206000200154905080876000018481548110610bbd57fe5b600091825260208083209091019290925582815260018981019092526040902090840190558654879080610bed57fe5b600190038181906000526020600020016000905590558660010160008781526020019081526020016000206000905560019450505050506103cd565b60009150506103cd56fe456e756d657261626c655365743a20696e646578206f7574206f6620626f756e6473416363657373436f6e74726f6c3a2073656e646572206d75737420626520616e2061646d696e20746f206772616e7452eafc11f6f81f86878bffd31109a0d92f37506527754f00788853ff9f63b13041636365737369626c653a2043616c6c6572206973206e6f7420616e2061646d696e41636365737369626c653a2043616c6c6572206973206e6f7420616e2070726f78792061646d696e416363657373436f6e74726f6c3a2073656e646572206d75737420626520616e2061646d696e20746f207265766f6b65416363657373436f6e74726f6c3a2063616e206f6e6c792072656e6f756e636520726f6c657320666f722073656c66a26469706673582212200859f452400cee9d8c036b4a5f3425e12d8a587ec3870257c5802415402ce49564736f6c63430007060033",
  "linkReferences": {},
  "deployedLinkReferences": {}
}