{
  "_format": "hh-sol-artifact-1",
  "contractName": "TokamakStakeUpgrade",
  "sourceName": "contracts/connection/TokamakStakeUpgrade.sol",
  "abi": [
    {
      "anonymous": false,
      "inputs": [
        {
          "indexed": false,
          "internalType": "address",
          "name": "caller",
          "type": "address"
        },
        {
          "indexed": false,
          "internalType": "uint256",
          "name": "amountIn",
          "type": "uint256"
        },
        {
          "indexed": false,
          "internalType": "uint256",
          "name": "amountOut",
          "type": "uint256"
        }
      ],
      "name": "ExchangedWTONtoTOS",
      "type": "event"
    },
    {
      "anonymous": false,
      "inputs": [
        {
          "indexed": true,
          "internalType": "bytes32",
          "name": "role",
          "type": "bytes32"
        },
        {
          "indexed": true,
          "internalType": "bytes32",
          "name": "previousAdminRole",
          "type": "bytes32"
        },
        {
          "indexed": true,
          "internalType": "bytes32",
          "name": "newAdminRole",
          "type": "bytes32"
        }
      ],
      "name": "RoleAdminChanged",
      "type": "event"
    },
    {
      "anonymous": false,
      "inputs": [
        {
          "indexed": true,
          "internalType": "bytes32",
          "name": "role",
          "type": "bytes32"
        },
        {
          "indexed": true,
          "internalType": "address",
          "name": "account",
          "type": "address"
        },
        {
          "indexed": true,
          "internalType": "address",
          "name": "sender",
          "type": "address"
        }
      ],
      "name": "RoleGranted",
      "type": "event"
    },
    {
      "anonymous": false,
      "inputs": [
        {
          "indexed": true,
          "internalType": "bytes32",
          "name": "role",
          "type": "bytes32"
        },
        {
          "indexed": true,
          "internalType": "address",
          "name": "account",
          "type": "address"
        },
        {
          "indexed": true,
          "internalType": "address",
          "name": "sender",
          "type": "address"
        }
      ],
      "name": "RoleRevoked",
      "type": "event"
    },
    {
      "anonymous": false,
      "inputs": [
        {
          "indexed": false,
          "internalType": "address",
          "name": "registry",
          "type": "address"
        }
      ],
      "name": "SetRegistry",
      "type": "event"
    },
    {
      "anonymous": false,
      "inputs": [
        {
          "indexed": false,
          "internalType": "address",
          "name": "layer2",
          "type": "address"
        }
      ],
      "name": "SetTokamakLayer2",
      "type": "event"
    },
    {
      "anonymous": false,
      "inputs": [
        {
          "indexed": false,
          "internalType": "address",
          "name": "layer2",
          "type": "address"
        },
        {
          "indexed": false,
          "internalType": "uint256",
          "name": "rn",
          "type": "uint256"
        },
        {
          "indexed": false,
          "internalType": "bool",
          "name": "receiveTON",
          "type": "bool"
        }
      ],
      "name": "TokamakProcessedUnStaking",
      "type": "event"
    },
    {
      "anonymous": false,
      "inputs": [
        {
          "indexed": false,
          "internalType": "address",
          "name": "layer2",
          "type": "address"
        },
        {
          "indexed": false,
          "internalType": "uint256",
          "name": "amount",
          "type": "uint256"
        }
      ],
      "name": "TokamakRequestedUnStaking",
      "type": "event"
    },
    {
      "anonymous": false,
      "inputs": [
        {
          "indexed": false,
          "internalType": "address",
          "name": "layer2",
          "type": "address"
        }
      ],
      "name": "TokamakRequestedUnStakingAll",
      "type": "event"
    },
    {
      "anonymous": false,
      "inputs": [
        {
          "indexed": false,
          "internalType": "address",
          "name": "layer2",
          "type": "address"
        },
        {
          "indexed": false,
          "internalType": "uint256",
          "name": "amount",
          "type": "uint256"
        }
      ],
      "name": "TokamakStaked",
      "type": "event"
    },
    {
      "inputs": [],
      "name": "ADMIN_ROLE",
      "outputs": [
        {
          "internalType": "bytes32",
          "name": "",
          "type": "bytes32"
        }
      ],
      "stateMutability": "view",
      "type": "function"
    },
    {
      "inputs": [],
      "name": "BURNER_ROLE",
      "outputs": [
        {
          "internalType": "bytes32",
          "name": "",
          "type": "bytes32"
        }
      ],
      "stateMutability": "view",
      "type": "function"
    },
    {
      "inputs": [],
      "name": "DEFAULT_ADMIN_ROLE",
      "outputs": [
        {
          "internalType": "bytes32",
          "name": "",
          "type": "bytes32"
        }
      ],
      "stateMutability": "view",
      "type": "function"
    },
    {
      "inputs": [],
      "name": "MINTER_ROLE",
      "outputs": [
        {
          "internalType": "bytes32",
          "name": "",
          "type": "bytes32"
        }
      ],
      "stateMutability": "view",
      "type": "function"
    },
    {
      "inputs": [],
      "name": "PROJECT_ADMIN_ROLE",
      "outputs": [
        {
          "internalType": "bytes32",
          "name": "",
          "type": "bytes32"
        }
      ],
      "stateMutability": "view",
      "type": "function"
    },
    {
      "inputs": [
        {
          "internalType": "address",
          "name": "account",
          "type": "address"
        }
      ],
      "name": "addAdmin",
      "outputs": [],
      "stateMutability": "nonpayable",
      "type": "function"
    },
    {
      "inputs": [
        {
          "internalType": "address",
          "name": "_layer2",
          "type": "address"
        }
      ],
      "name": "canTokamakRequestUnStaking",
      "outputs": [
        {
          "internalType": "uint256",
          "name": "canUnStakingAmount",
          "type": "uint256"
        }
      ],
      "stateMutability": "view",
      "type": "function"
    },
    {
      "inputs": [
        {
          "internalType": "address",
          "name": "_layer2",
          "type": "address"
        }
      ],
      "name": "canTokamakRequestUnStakingAll",
      "outputs": [
        {
          "internalType": "bool",
          "name": "can",
          "type": "bool"
        }
      ],
      "stateMutability": "view",
      "type": "function"
    },
    {
      "inputs": [
        {
          "internalType": "address",
          "name": "_layer2",
          "type": "address"
        }
      ],
      "name": "canTokamakRequestUnStakingAllBlock",
      "outputs": [
        {
          "internalType": "uint256",
          "name": "_block",
          "type": "uint256"
        }
      ],
      "stateMutability": "view",
      "type": "function"
    },
    {
      "inputs": [],
      "name": "checkTokamak",
      "outputs": [],
      "stateMutability": "nonpayable",
      "type": "function"
    },
    {
      "inputs": [],
      "name": "defiAddr",
      "outputs": [
        {
          "internalType": "address",
          "name": "",
          "type": "address"
        }
      ],
      "stateMutability": "view",
      "type": "function"
    },
    {
      "inputs": [],
      "name": "defiStatus",
      "outputs": [
        {
          "internalType": "uint256",
          "name": "",
          "type": "uint256"
        }
      ],
      "stateMutability": "view",
      "type": "function"
    },
    {
      "inputs": [],
      "name": "depositManager",
      "outputs": [
        {
          "internalType": "address",
          "name": "",
          "type": "address"
        }
      ],
      "stateMutability": "view",
      "type": "function"
    },
    {
      "inputs": [],
      "name": "endBlock",
      "outputs": [
        {
          "internalType": "uint256",
          "name": "",
          "type": "uint256"
        }
      ],
      "stateMutability": "view",
      "type": "function"
    },
    {
      "inputs": [
        {
          "internalType": "uint256",
          "name": "_amountIn",
          "type": "uint256"
        },
        {
          "internalType": "uint256",
          "name": "_amountOutMinimum",
          "type": "uint256"
        },
        {
          "internalType": "uint256",
          "name": "_deadline",
          "type": "uint256"
        },
        {
          "internalType": "uint160",
          "name": "_sqrtPriceLimitX96",
          "type": "uint160"
        },
        {
          "internalType": "uint256",
          "name": "_kind",
          "type": "uint256"
        }
      ],
      "name": "exchangeWTONtoTOS",
      "outputs": [
        {
          "internalType": "uint256",
          "name": "amountOut",
          "type": "uint256"
        }
      ],
      "stateMutability": "nonpayable",
      "type": "function"
    },
    {
      "inputs": [],
      "name": "finalBalanceTON",
      "outputs": [
        {
          "internalType": "uint256",
          "name": "",
          "type": "uint256"
        }
      ],
      "stateMutability": "view",
      "type": "function"
    },
    {
      "inputs": [],
      "name": "finalBalanceWTON",
      "outputs": [
        {
          "internalType": "uint256",
          "name": "",
          "type": "uint256"
        }
      ],
      "stateMutability": "view",
      "type": "function"
    },
    {
      "inputs": [],
      "name": "fromTokamak",
      "outputs": [
        {
          "internalType": "uint256",
          "name": "",
          "type": "uint256"
        }
      ],
      "stateMutability": "view",
      "type": "function"
    },
    {
      "inputs": [
        {
          "internalType": "bytes32",
          "name": "role",
          "type": "bytes32"
        }
      ],
      "name": "getRoleAdmin",
      "outputs": [
        {
          "internalType": "bytes32",
          "name": "",
          "type": "bytes32"
        }
      ],
      "stateMutability": "view",
      "type": "function"
    },
    {
      "inputs": [
        {
          "internalType": "bytes32",
          "name": "role",
          "type": "bytes32"
        },
        {
          "internalType": "uint256",
          "name": "index",
          "type": "uint256"
        }
      ],
      "name": "getRoleMember",
      "outputs": [
        {
          "internalType": "address",
          "name": "",
          "type": "address"
        }
      ],
      "stateMutability": "view",
      "type": "function"
    },
    {
      "inputs": [
        {
          "internalType": "bytes32",
          "name": "role",
          "type": "bytes32"
        }
      ],
      "name": "getRoleMemberCount",
      "outputs": [
        {
          "internalType": "uint256",
          "name": "",
          "type": "uint256"
        }
      ],
      "stateMutability": "view",
      "type": "function"
    },
    {
      "inputs": [],
      "name": "getUniswapInfo",
      "outputs": [
        {
          "internalType": "address",
          "name": "uniswapRouter",
          "type": "address"
        },
        {
          "internalType": "address",
          "name": "npm",
          "type": "address"
        },
        {
          "internalType": "address",
          "name": "ext",
          "type": "address"
        },
        {
          "internalType": "uint256",
          "name": "fee",
          "type": "uint256"
        },
        {
          "internalType": "address",
          "name": "uniswapRouterV2",
          "type": "address"
        }
      ],
      "stateMutability": "view",
      "type": "function"
    },
    {
      "inputs": [
        {
          "internalType": "address",
          "name": "user",
          "type": "address"
        }
      ],
      "name": "getUserStaked",
      "outputs": [
        {
          "internalType": "uint256",
          "name": "amount",
          "type": "uint256"
        },
        {
          "internalType": "uint256",
          "name": "claimedBlock",
          "type": "uint256"
        },
        {
          "internalType": "uint256",
          "name": "claimedAmount",
          "type": "uint256"
        },
        {
          "internalType": "uint256",
          "name": "releasedBlock",
          "type": "uint256"
        },
        {
          "internalType": "uint256",
          "name": "releasedAmount",
          "type": "uint256"
        },
        {
          "internalType": "uint256",
          "name": "releasedTOSAmount",
          "type": "uint256"
        },
        {
          "internalType": "bool",
          "name": "released",
          "type": "bool"
        }
      ],
      "stateMutability": "view",
      "type": "function"
    },
    {
      "inputs": [
        {
          "internalType": "bytes32",
          "name": "role",
          "type": "bytes32"
        },
        {
          "internalType": "address",
          "name": "account",
          "type": "address"
        }
      ],
      "name": "grantRole",
      "outputs": [],
      "stateMutability": "nonpayable",
      "type": "function"
    },
    {
      "inputs": [
        {
          "internalType": "bytes32",
          "name": "role",
          "type": "bytes32"
        },
        {
          "internalType": "address",
          "name": "account",
          "type": "address"
        }
      ],
      "name": "hasRole",
      "outputs": [
        {
          "internalType": "bool",
          "name": "",
          "type": "bool"
        }
      ],
      "stateMutability": "view",
      "type": "function"
    },
    {
      "inputs": [],
      "name": "infos",
      "outputs": [
        {
          "internalType": "address",
          "name": "",
          "type": "address"
        },
        {
          "internalType": "address",
          "name": "",
          "type": "address"
        },
        {
          "internalType": "uint256[3]",
          "name": "",
          "type": "uint256[3]"
        },
        {
          "internalType": "uint256",
          "name": "",
          "type": "uint256"
        },
        {
          "internalType": "uint256",
          "name": "",
          "type": "uint256"
        },
        {
          "internalType": "uint256",
          "name": "",
          "type": "uint256"
        }
      ],
      "stateMutability": "view",
      "type": "function"
    },
    {
      "inputs": [
        {
          "internalType": "address",
          "name": "account",
          "type": "address"
        }
      ],
      "name": "isAdmin",
      "outputs": [
        {
          "internalType": "bool",
          "name": "",
          "type": "bool"
        }
      ],
      "stateMutability": "view",
      "type": "function"
    },
    {
      "inputs": [],
      "name": "migratedL2",
      "outputs": [
        {
          "internalType": "bool",
          "name": "",
          "type": "bool"
        }
      ],
      "stateMutability": "view",
      "type": "function"
    },
    {
      "inputs": [],
      "name": "pauseProxy",
      "outputs": [
        {
          "internalType": "bool",
          "name": "",
          "type": "bool"
        }
      ],
      "stateMutability": "view",
      "type": "function"
    },
    {
      "inputs": [],
      "name": "paytoken",
      "outputs": [
        {
          "internalType": "address",
          "name": "",
          "type": "address"
        }
      ],
      "stateMutability": "view",
      "type": "function"
    },
    {
      "inputs": [
        {
          "internalType": "address",
          "name": "account",
          "type": "address"
        }
      ],
      "name": "removeAdmin",
      "outputs": [],
      "stateMutability": "nonpayable",
      "type": "function"
    },
    {
      "inputs": [
        {
          "internalType": "bytes32",
          "name": "role",
          "type": "bytes32"
        },
        {
          "internalType": "address",
          "name": "account",
          "type": "address"
        }
      ],
      "name": "renounceRole",
      "outputs": [],
      "stateMutability": "nonpayable",
      "type": "function"
    },
    {
      "inputs": [],
      "name": "requestNum",
      "outputs": [
        {
          "internalType": "uint256",
          "name": "",
          "type": "uint256"
        }
      ],
      "stateMutability": "view",
      "type": "function"
    },
    {
      "inputs": [
        {
          "internalType": "bytes32",
          "name": "role",
          "type": "bytes32"
        },
        {
          "internalType": "address",
          "name": "account",
          "type": "address"
        }
      ],
      "name": "revokeRole",
      "outputs": [],
      "stateMutability": "nonpayable",
      "type": "function"
    },
    {
      "inputs": [],
      "name": "rewardClaimedTotal",
      "outputs": [
        {
          "internalType": "uint256",
          "name": "",
          "type": "uint256"
        }
      ],
      "stateMutability": "view",
      "type": "function"
    },
    {
      "inputs": [],
      "name": "saleStartBlock",
      "outputs": [
        {
          "internalType": "uint256",
          "name": "",
          "type": "uint256"
        }
      ],
      "stateMutability": "view",
      "type": "function"
    },
    {
      "inputs": [],
      "name": "seigManager",
      "outputs": [
        {
          "internalType": "address",
          "name": "",
          "type": "address"
        }
      ],
      "stateMutability": "view",
      "type": "function"
    },
    {
      "inputs": [
        {
          "internalType": "address",
          "name": "_registry",
          "type": "address"
        }
      ],
      "name": "setRegistry",
      "outputs": [],
      "stateMutability": "nonpayable",
      "type": "function"
    },
    {
      "inputs": [
        {
          "internalType": "address",
          "name": "_layer2",
          "type": "address"
        }
      ],
      "name": "setTokamakLayer2",
      "outputs": [],
      "stateMutability": "nonpayable",
      "type": "function"
    },
    {
      "inputs": [],
      "name": "stakeRegistry",
      "outputs": [
        {
          "internalType": "address",
          "name": "",
          "type": "address"
        }
      ],
      "stateMutability": "view",
      "type": "function"
    },
    {
      "inputs": [],
      "name": "startBlock",
      "outputs": [
        {
          "internalType": "uint256",
          "name": "",
          "type": "uint256"
        }
      ],
      "stateMutability": "view",
      "type": "function"
    },
    {
      "inputs": [],
      "name": "swapProxy",
      "outputs": [
        {
          "internalType": "address",
          "name": "",
          "type": "address"
        }
      ],
      "stateMutability": "view",
      "type": "function"
    },
    {
      "inputs": [
        {
          "internalType": "uint256",
          "name": "amount",
          "type": "uint256"
        },
        {
          "internalType": "bool",
          "name": "toWTON",
          "type": "bool"
        }
      ],
      "name": "swapTONtoWTON",
      "outputs": [],
      "stateMutability": "nonpayable",
      "type": "function"
    },
    {
      "inputs": [],
      "name": "swappedAmountTOS",
      "outputs": [
        {
          "internalType": "uint256",
          "name": "",
          "type": "uint256"
        }
      ],
      "stateMutability": "view",
      "type": "function"
    },
    {
      "inputs": [],
      "name": "toTokamak",
      "outputs": [
        {
          "internalType": "uint256",
          "name": "",
          "type": "uint256"
        }
      ],
      "stateMutability": "view",
      "type": "function"
    },
    {
      "inputs": [],
      "name": "toUniswapWTON",
      "outputs": [
        {
          "internalType": "uint256",
          "name": "",
          "type": "uint256"
        }
      ],
      "stateMutability": "view",
      "type": "function"
    },
    {
      "inputs": [],
      "name": "tokamakLayer2",
      "outputs": [
        {
          "internalType": "address",
          "name": "",
          "type": "address"
        }
      ],
      "stateMutability": "view",
      "type": "function"
    },
    {
      "inputs": [
        {
          "internalType": "address",
          "name": "_layer2",
          "type": "address"
        }
      ],
      "name": "tokamakProcessUnStaking",
      "outputs": [],
      "stateMutability": "nonpayable",
      "type": "function"
    },
    {
      "inputs": [
        {
          "internalType": "address",
          "name": "_layer2",
          "type": "address"
        },
        {
          "internalType": "uint256",
          "name": "wtonAmount",
          "type": "uint256"
        }
      ],
      "name": "tokamakRequestUnStaking",
      "outputs": [],
      "stateMutability": "nonpayable",
      "type": "function"
    },
    {
      "inputs": [
        {
          "internalType": "address",
          "name": "_layer2",
          "type": "address"
        }
      ],
      "name": "tokamakRequestUnStakingAll",
      "outputs": [],
      "stateMutability": "nonpayable",
      "type": "function"
    },
    {
      "inputs": [
        {
          "internalType": "address",
          "name": "_layer2",
          "type": "address"
        },
        {
          "internalType": "uint256",
          "name": "stakeAmount",
          "type": "uint256"
        }
      ],
      "name": "tokamakStaking",
      "outputs": [],
      "stateMutability": "nonpayable",
      "type": "function"
    },
    {
      "inputs": [],
      "name": "token",
      "outputs": [
        {
          "internalType": "address",
          "name": "",
          "type": "address"
        }
      ],
      "stateMutability": "view",
      "type": "function"
    },
    {
      "inputs": [],
      "name": "ton",
      "outputs": [
        {
          "internalType": "address",
          "name": "",
          "type": "address"
        }
      ],
      "stateMutability": "view",
      "type": "function"
    },
    {
      "inputs": [],
      "name": "totalStakedAmount",
      "outputs": [
        {
          "internalType": "uint256",
          "name": "",
          "type": "uint256"
        }
      ],
      "stateMutability": "view",
      "type": "function"
    },
    {
      "inputs": [],
      "name": "totalStakers",
      "outputs": [
        {
          "internalType": "uint256",
          "name": "",
          "type": "uint256"
        }
      ],
      "stateMutability": "view",
      "type": "function"
    },
    {
      "inputs": [
        {
          "internalType": "address",
          "name": "newAdmin",
          "type": "address"
        }
      ],
      "name": "transferAdmin",
      "outputs": [],
      "stateMutability": "nonpayable",
      "type": "function"
    },
    {
      "inputs": [
        {
          "internalType": "address",
          "name": "",
          "type": "address"
        }
      ],
      "name": "userStaked",
      "outputs": [
        {
          "internalType": "uint256",
          "name": "amount",
          "type": "uint256"
        },
        {
          "internalType": "uint256",
          "name": "claimedBlock",
          "type": "uint256"
        },
        {
          "internalType": "uint256",
          "name": "claimedAmount",
          "type": "uint256"
        },
        {
          "internalType": "uint256",
          "name": "releasedBlock",
          "type": "uint256"
        },
        {
          "internalType": "uint256",
          "name": "releasedAmount",
          "type": "uint256"
        },
        {
          "internalType": "uint256",
          "name": "releasedTOSAmount",
          "type": "uint256"
        },
        {
          "internalType": "bool",
          "name": "released",
          "type": "bool"
        }
      ],
      "stateMutability": "view",
      "type": "function"
    },
    {
      "inputs": [],
      "name": "vault",
      "outputs": [
        {
          "internalType": "address",
          "name": "",
          "type": "address"
        }
      ],
      "stateMutability": "view",
      "type": "function"
    },
    {
      "inputs": [],
      "name": "version",
      "outputs": [
        {
          "internalType": "string",
          "name": "",
          "type": "string"
        }
      ],
      "stateMutability": "pure",
      "type": "function"
    },
    {
      "inputs": [],
      "name": "withdrawFlag",
      "outputs": [
        {
          "internalType": "bool",
          "name": "",
          "type": "bool"
        }
      ],
      "stateMutability": "view",
      "type": "function"
    },
    {
      "inputs": [],
      "name": "wton",
      "outputs": [
        {
          "internalType": "address",
          "name": "",
          "type": "address"
        }
      ],
      "stateMutability": "view",
      "type": "function"
    }
  ],
  "bytecode": "0x608060405234801561001057600080fd5b5061420b806100206000396000f3fe608060405234801561001057600080fd5b506004361061032f5760003560e01c806375829def116101b4578063acc3a939116100fa578063e09974b91161009d578063e09974b91461063d578063e58e274714610645578063e6a7bc871461064d578063f0cdfa5314610655578063fbfa77cf14610668578063fc0c546a14610670578063fd7fa46014610678578063ff758788146106805761032f565b8063acc3a939146105b3578063b2d4d6a3146105d9578063ca15c873146105e1578063cc48b947146105f4578063ce681ce6146105fc578063d53913931461060f578063d547741f14610617578063dac3fc3f1461062a5761032f565b806392ea3b4c1161016257806392ea3b4c146105405780639a88be2f146105485780639d84ca3514610562578063a1f5f50e1461056a578063a217fddf14610572578063a6e8670e1461057a578063a85217561461058d578063a91ee0dc146105a05761032f565b806375829def146104dc57806375b238fc146104ef5780637df3f40c146104f7578063869890381461050a5780638d62d949146105125780639010d07c1461051a57806391d148541461052d5761032f565b806343b0934a116102795780636c7ac9d8116102275780636c7ac9d81461047b5780636e7cf534146104835780636ec4be901461048b5780636fb7f55814610493578063704802751461049b57806371def0b3146104ae57806372285326146104c1578063730464a9146104c95761032f565b806343b0934a1461041e57806348cd4cb11461043357806354fd4d501461043b578063567e98f91461045057806363a8fd89146104585780636830483514610460578063687b53be146104685761032f565b80632335a6b2116102e15780632335a6b21461039a578063248a9ca3146103ba57806324d7806c146103cd578063282c51f3146103e05780632995fa0e146103e85780632f2ff15d146103f057806336568abe1461040357806341c04d5e146104165761032f565b806305871b7814610334578063065c431314610352578063083c6323146103675780630ac8e0f31461036f5780630ea3d9c9146103775780631785f53c1461037f5780632002727514610392575b600080fd5b61033c610699565b60405161034991906138c7565b60405180910390f35b61036561036036600461359c565b61069f565b005b61033c610c3b565b61033c610c41565b61033c610c47565b61036561038d3660046134b0565b610c4d565b61033c610cac565b6103ad6103a83660046134b0565b610cb2565b60405161034991906138bc565b61033c6103c83660046135e3565b610e57565b6103ad6103db3660046134b0565b610e6c565b61033c610e8c565b610365610eb0565b6103656103fe3660046135fb565b611035565b6103656104113660046135fb565b61109c565b61033c6110fd565b610426611121565b604051610349919061376c565b61033c611130565b610443611136565b60405161034991906138d0565b61033c611160565b6103ad611166565b61042661116f565b61033c6104763660046134b0565b61117e565b6104266112a0565b6103ad6112af565b6104266112b8565b6104266112c7565b6103656104a93660046134b0565b6112d6565b6103656104bc3660046134b0565b611332565b61033c6116bb565b6103656104d73660046134b0565b6116c1565b6103656104ea3660046134b0565b611a13565b61033c611b34565b610365610505366004613663565b611b46565b61033c611e63565b610426611e69565b61042661052836600461362a565b611e78565b6103ad61053b3660046135fb565b611e97565b610426611eaf565b610550611ebe565b604051610349969594939291906137eb565b610426611f14565b6103ad611f28565b61033c611f38565b6103656105883660046134b0565b611f3d565b61033c61059b3660046134b0565b612019565b6103656105ae3660046134b0565b612117565b6105c66105c13660046134b0565b6121df565b604051610349979695949392919061406d565b61033c61221f565b61033c6105ef3660046135e3565b612225565b61042661223c565b61036561060a36600461359c565b61224b565b61033c612588565b6103656106253660046135fb565b6125ac565b6105c66106383660046134b0565b612605565b61033c61264e565b61033c612654565b61033c61265a565b61033c610663366004613687565b612660565b610426612ee0565b610426612eef565b61033c612efe565b610688612f04565b6040516103499594939291906137bb565b60155481565b600b54156106c85760405162461bcd60e51b81526004016106bf90613b2a565b60405180910390fd5b6001600b819055546001600160a01b0316806106f65760405162461bcd60e51b81526004016106bf906138e3565b826001600160a01b03811661071d5760405162461bcd60e51b81526004016106bf906138e3565b600360009054906101000a90046001600160a01b03166001600160a01b031663b8c766b86040518163ffffffff1660e01b815260040160206040518083038186803b15801561076b57600080fd5b505afa15801561077f573d6000803e3d6000fd5b505050506040513d601f19601f820116820180604052508101906107a391906135c7565b6107bf5760405162461bcd60e51b81526004016106bf90613f30565b6006544311156107e15760405162461bcd60e51b81526004016106bf906139fe565b600083116108015760405162461bcd60e51b81526004016106bf90613ddc565b600260195561080e610eb0565b60105460408051633761ead760e11b815290516000926001600160a01b031691636ec3d5ae916004808301926020929190829003018186803b15801561085357600080fd5b505afa158015610867573d6000803e3d6000fd5b505050506040513d601f19601f8201168201806040525081019061088b919061364b565b60065490915061089b9082612fa3565b43106108b95760405162461bcd60e51b81526004016106bf90613a30565b6012546001600160a01b03166108e957601280546001600160a01b0319166001600160a01b038716179055610a6e565b600f546012546040516367265c3b60e11b81526000926001600160a01b039081169263ce4cb87692610923929091169030906004016137a1565b60206040518083038186803b15801561093b57600080fd5b505afa15801561094f573d6000803e3d6000fd5b505050506040513d601f19601f82011682018060405250810190610973919061364b565b1180610a065750601054601254604051632638fdf560e01b81526000926001600160a01b0390811692632638fdf5926109b4929091169030906004016137a1565b60206040518083038186803b1580156109cc57600080fd5b505afa1580156109e0573d6000803e3d6000fd5b505050506040513d601f19601f82011682018060405250810190610a04919061364b565b115b15610a3d576012546001600160a01b03868116911614610a385760405162461bcd60e51b81526004016106bf90613c23565b610a6e565b6012546001600160a01b03868116911614610a6e57601280546001600160a01b0319166001600160a01b0387161790555b600d546040516370a0823160e01b815285916001600160a01b0316906370a0823190610a9e90309060040161376c565b60206040518083038186803b158015610ab657600080fd5b505afa158015610aca573d6000803e3d6000fd5b505050506040513d601f19601f82011682018060405250810190610aee919061364b565b1015610b0c5760405162461bcd60e51b81526004016106bf90613cde565b601354610b199085612fe5565b601355601054604051600091610b3f916001600160a01b039091169088906020016137a1565b60408051601f1981840301815290829052600d54600e5463cae9ca5160e01b84529193506001600160a01b039081169263cae9ca5192610b879216908990869060040161388c565b602060405180830381600087803b158015610ba157600080fd5b505af1158015610bb5573d6000803e3d6000fd5b505050506040513d601f19601f82011682018060405250810190610bd991906135c7565b610bf55760405162461bcd60e51b81526004016106bf90613b58565b7f36f1e081b7e687a2472c2fbd52bc97993ddc788b19c74010f11e25f3c917d2dd8686604051610c26929190613850565b60405180910390a150506000600b5550505050565b60065481565b60145481565b60165481565b610c5633610e6c565b610c915760405162461bcd60e51b81526004018080602001828103825260228152602001806141146022913960400191505060405180910390fd5b610ca96000805160206141878339815191528261109c565b50565b60045481565b6012546000906001600160a01b031615801590610cdc57506012546001600160a01b038381169116145b8015610cf257506010546001600160a01b031615155b8015610d085750600f546001600160a01b031615155b15610e525760105460408051633761ead760e11b815290516000926001600160a01b031691636ec3d5ae916004808301926020929190829003018186803b158015610d5257600080fd5b505afa158015610d66573d6000803e3d6000fd5b505050506040513d601f19601f82011682018060405250810190610d8a919061364b565b600f546040516367265c3b60e11b8152919250600e8304916000916001600160a01b03169063ce4cb87690610dc590889030906004016137a1565b60206040518083038186803b158015610ddd57600080fd5b505afa158015610df1573d6000803e3d6000fd5b505050506040513d601f19601f82011682018060405250810190610e15919061364b565b9050600081118015610e445750610e4182610e3b85600654612fa390919063ffffffff16565b90612fa3565b43115b15610e4e57600193505b5050505b919050565b6000908152601c602052604090206002015490565b6000610e8660008051602061418783398151915283611e97565b92915050565b7f9667e80708b6eeeb0053fa0cca44e028ff548e2a9f029edfeac87c118b08b7c881565b600d546001600160a01b0316610fb1576000806000806000600160009054906101000a90046001600160a01b03166001600160a01b031663a782ebd56040518163ffffffff1660e01b815260040160a06040518083038186803b158015610f1657600080fd5b505afa158015610f2a573d6000803e3d6000fd5b505050506040513d601f19601f82011682018060405250810190610f4e91906134cc565b600d80546001600160a01b03199081166001600160a01b0397881617909155600e805482169587169590951790945560108054851693861693909317909255600f8054841691851691909117905560118054909216921691909117905550505050505b600d546001600160a01b031615801590610fd55750600e546001600160a01b031615155b8015610feb5750600f546001600160a01b031615155b801561100157506010546001600160a01b031615155b801561101757506011546001600160a01b031615155b6110335760405162461bcd60e51b81526004016106bf90613da5565b565b6000828152601c60205260409020600201546110539061053b61303f565b61108e5760405162461bcd60e51b815260040180806020018281038252602f8152602001806140e5602f913960400191505060405180910390fd5b6110988282613043565b5050565b6110a461303f565b6001600160a01b0316816001600160a01b0316146110f35760405162461bcd60e51b815260040180806020018281038252602f8152602001806141a7602f913960400191505060405180910390fd5b61109882826130ac565b7f52eafc11f6f81f86878bffd31109a0d92f37506527754f00788853ff9f63b13081565b6002546001600160a01b031681565b60055481565b60408051808201909152601081526f757067726164652e323032313038303360801b602082015290565b60085481565b600c5460ff1681565b6001546001600160a01b031681565b6012546000906001600160a01b0316158015906111a857506012546001600160a01b038381169116145b80156111be5750600f546001600160a01b031615155b15610e5257600f546040516367265c3b60e11b81526000916001600160a01b03169063ce4cb876906111f690869030906004016137a1565b60206040518083038186803b15801561120e57600080fd5b505afa158015611222573d6000803e3d6000fd5b505050506040513d601f19601f82011682018060405250810190611246919061364b565b905060008111801561125a57506000600854115b80156112765750600854819061127490633b9aca00613115565b105b1561129a576008546112979061129090633b9aca00613115565b8290612fa3565b91505b50919050565b6010546001600160a01b031681565b601b5460ff1681565b6011546001600160a01b031681565b600f546001600160a01b031681565b6112df33610e6c565b61131a5760405162461bcd60e51b81526004018080602001828103825260228152602001806141146022913960400191505060405180910390fd5b610ca960008051602061418783398151915282611035565b600b54156113525760405162461bcd60e51b81526004016106bf90613b2a565b6001600b819055546001600160a01b0316806113805760405162461bcd60e51b81526004016106bf906138e3565b816001600160a01b0381166113a75760405162461bcd60e51b81526004016106bf906138e3565b600360009054906101000a90046001600160a01b03166001600160a01b031663b8c766b86040518163ffffffff1660e01b815260040160206040518083038186803b1580156113f557600080fd5b505afa158015611409573d6000803e3d6000fd5b505050506040513d601f19601f8201168201806040525081019061142d91906135c7565b6114495760405162461bcd60e51b81526004016106bf90613f30565b60125483906001600160a01b038083169116146114785760405162461bcd60e51b81526004016106bf90613c23565b6003601955601a5461148b906001612fe5565b601a55611496610eb0565b60105460408051633761ead760e11b815290516000926001600160a01b031691636ec3d5ae916004808301926020929190829003018186803b1580156114db57600080fd5b505afa1580156114ef573d6000803e3d6000fd5b505050506040513d601f19601f82011682018060405250810190611513919061364b565b600f546040516367265c3b60e11b81529192506000916001600160a01b039091169063ce4cb8769061154b90899030906004016137a1565b60206040518083038186803b15801561156357600080fd5b505afa158015611577573d6000803e3d6000fd5b505050506040513d601f19601f8201168201806040525081019061159b919061364b565b9050600081116115bd5760405162461bcd60e51b81526004016106bf906139c7565b600654600e8304906115d5908290610e3b9086612fa3565b43116115f35760405162461bcd60e51b81526004016106bf90613e1d565b601054604051636b2160b760e01b81526001600160a01b0390911690636b2160b790611623908a9060040161376c565b602060405180830381600087803b15801561163d57600080fd5b505af1158015611651573d6000803e3d6000fd5b505050506040513d601f19601f8201168201806040525081019061167591906135c7565b507fd1c4e96e0fd22936ea8aebe0b8e06b19f1c4a836b141a34cf9e925d2afb20523876040516116a5919061376c565b60405180910390a150506000600b555050505050565b60195481565b600b54156116e15760405162461bcd60e51b81526004016106bf90613b2a565b6001600b819055546001600160a01b03168061170f5760405162461bcd60e51b81526004016106bf906138e3565b600360009054906101000a90046001600160a01b03166001600160a01b031663b8c766b86040518163ffffffff1660e01b815260040160206040518083038186803b15801561175d57600080fd5b505afa158015611771573d6000803e3d6000fd5b505050506040513d601f19601f8201168201806040525081019061179591906135c7565b6117b15760405162461bcd60e51b81526004016106bf90613f30565b60125482906001600160a01b038083169116146117e05760405162461bcd60e51b81526004016106bf90613c23565b600560195414156118035760405162461bcd60e51b81526004016106bf90613d28565b6005601955601a80546000909155611819610eb0565b600f546012546040516367265c3b60e11b81526001600160a01b039283169263ce4cb8769261184f9291169030906004016137a1565b60206040518083038186803b15801561186757600080fd5b505afa15801561187b573d6000803e3d6000fd5b505050506040513d601f19601f8201168201806040525081019061189f919061364b565b6118b457601280546001600160a01b03191690555b601054604051632638fdf560e01b8152611941916001600160a01b031690632638fdf5906118e890889030906004016137a1565b60206040518083038186803b15801561190057600080fd5b505afa158015611914573d6000803e3d6000fd5b505050506040513d601f19601f82011682018060405250810190611938919061364b565b60145490612fe5565b60145560105460405163fb0713b160e01b81526001600160a01b039091169063fb0713b1906119799087908590600190600401613869565b602060405180830381600087803b15801561199357600080fd5b505af11580156119a7573d6000803e3d6000fd5b505050506040513d601f19601f820116820180604052508101906119cb91906135c7565b507f76d210b2dc3da8be1904d8b5da9feb5cdd21af436261626c4ec607e2123b417d84826001604051611a0093929190613869565b60405180910390a150506000600b555050565b611a1c33610e6c565b611a575760405162461bcd60e51b81526004018080602001828103825260228152602001806141146022913960400191505060405180910390fd5b6001600160a01b038116611aad576040805162461bcd60e51b815260206004820152601860248201527741636365737369626c653a207a65726f206164647265737360401b604482015290519081900360640190fd5b336001600160a01b0382161415611b04576040805162461bcd60e51b815260206004820152601660248201527520b1b1b2b9b9b4b136329d1039b0b6b29030b236b4b760511b604482015290519081900360640190fd5b611b1c60008051602061418783398151915282611035565b610ca96000805160206141878339815191523361109c565b60008051602061418783398151915281565b600b5415611b665760405162461bcd60e51b81526004016106bf90613b2a565b6001600b55611b73610eb0565b8015611d1e576011546001600160a01b0316611ba15760405162461bcd60e51b81526004016106bf90613992565b600d546040516370a0823160e01b815283916001600160a01b0316906370a0823190611bd190309060040161376c565b60206040518083038186803b158015611be957600080fd5b505afa158015611bfd573d6000803e3d6000fd5b505050506040513d601f19601f82011682018060405250810190611c21919061364b565b1015611c3f5760405162461bcd60e51b81526004016106bf90613a79565b601154604051600091611c62916001600160a01b039091169081906020016137a1565b60408051601f1981840301815290829052600d54600e5463cae9ca5160e01b84529193506001600160a01b039081169263cae9ca5192611caa9216908790869060040161388c565b602060405180830381600087803b158015611cc457600080fd5b505af1158015611cd8573d6000803e3d6000fd5b505050506040513d601f19601f82011682018060405250810190611cfc91906135c7565b611d185760405162461bcd60e51b81526004016106bf90613c8f565b50611e5a565b600e546040516370a0823160e01b815283916001600160a01b0316906370a0823190611d4e90309060040161376c565b60206040518083038186803b158015611d6657600080fd5b505afa158015611d7a573d6000803e3d6000fd5b505050506040513d601f19601f82011682018060405250810190611d9e919061364b565b1015611dbc5760405162461bcd60e51b81526004016106bf90613ad1565b600e5460405163f53fe70f60e01b81526001600160a01b039091169063f53fe70f90611dec9085906004016138c7565b602060405180830381600087803b158015611e0657600080fd5b505af1158015611e1a573d6000803e3d6000fd5b505050506040513d601f19601f82011682018060405250810190611e3e91906135c7565b611e5a5760405162461bcd60e51b81526004016106bf90613d6e565b50506000600b55565b600a5481565b600e546001600160a01b031681565b6000828152601c60205260408120611e90908361316e565b9392505050565b6000828152601c60205260408120611e90908361317a565b6012546001600160a01b031681565b600080611ec9613492565b5050600254600354604080516060810182526004548152600554602082015260065491810191909152600754600854600a546001600160a01b03958616979590941695509193909290565b600c5461010090046001600160a01b031681565b600c54600160a81b900460ff1681565b600081565b611f4633610e6c565b611f815760405162461bcd60e51b81526004018080602001828103825260228152602001806141146022913960400191505060405180910390fd5b6001600160a01b03811615801590611fa757506012546001600160a01b03828116911614155b611fc35760405162461bcd60e51b81526004016106bf90613951565b601280546001600160a01b0319166001600160a01b0383161790556040517fbcf2b04f5517cca822ae60e21bb6e3889b8d8307ea062c5266c63a014386c9909061200e90839061376c565b60405180910390a150565b6012546000906001600160a01b03161580159061204357506012546001600160a01b038381169116145b801561205957506010546001600160a01b031615155b15610e525760105460408051633761ead760e11b815290516000926001600160a01b031691636ec3d5ae916004808301926020929190829003018186803b1580156120a357600080fd5b505afa1580156120b7573d6000803e3d6000fd5b505050506040513d601f19601f820116820180604052508101906120db919061364b565b9050600e81046120eb8282612fe5565b60065411156121105761210d81610e3b84600654612fa390919063ffffffff16565b92505b5050919050565b61212033610e6c565b61215b5760405162461bcd60e51b81526004018080602001828103825260228152602001806141146022913960400191505060405180910390fd5b806001600160a01b0381166121825760405162461bcd60e51b81526004016106bf906138e3565b600180546001600160a01b0319166001600160a01b0384811691909117918290556040517f278c70ced5f3e0e5eeb385b5ff9cb735748ba00a625147e66065ed48fc1562cd926121d392169061376c565b60405180910390a15050565b6009602052600090815260409020805460018201546002830154600384015460048501546005860154600690960154949593949293919290919060ff1687565b60075481565b6000818152601c60205260408120610e869061318f565b600d546001600160a01b031681565b600b541561226b5760405162461bcd60e51b81526004016106bf90613b2a565b6001600b819055546001600160a01b0316806122995760405162461bcd60e51b81526004016106bf906138e3565b826001600160a01b0381166122c05760405162461bcd60e51b81526004016106bf906138e3565b600360009054906101000a90046001600160a01b03166001600160a01b031663b8c766b86040518163ffffffff1660e01b815260040160206040518083038186803b15801561230e57600080fd5b505afa158015612322573d6000803e3d6000fd5b505050506040513d601f19601f8201168201806040525081019061234691906135c7565b6123625760405162461bcd60e51b81526004016106bf90613f30565b60125484906001600160a01b038083169116146123915760405162461bcd60e51b81526004016106bf90613c23565b6003601955601a546123a4906001612fe5565b601a556123af610eb0565b600f546040516367265c3b60e11b81526000916001600160a01b03169063ce4cb876906123e290899030906004016137a1565b60206040518083038186803b1580156123fa57600080fd5b505afa15801561240e573d6000803e3d6000fd5b505050506040513d601f19601f82011682018060405250810190612432919061364b565b9050600081116124545760405162461bcd60e51b81526004016106bf906139c7565b60085460009061246890633b9aca00613115565b9050600080821180156124845750612481836064612fa3565b82105b1561249b576124986064610e3b8585612fa3565b90505b600081116124bb5760405162461bcd60e51b81526004016106bf90613eaf565b60105460405163da95ebf760e01b81526001600160a01b039091169063da95ebf7906124ed908b908590600401613850565b602060405180830381600087803b15801561250757600080fd5b505af115801561251b573d6000803e3d6000fd5b505050506040513d601f19601f8201168201806040525081019061253f91906135c7565b507f2a23e23c116b511f71c9f0c2648b0372e6bbcb1f559a7cbfaed5c55933ea6c4e8882604051612571929190613850565b60405180910390a150506000600b55505050505050565b7ff0887ba65ee2024ea881d91b74c2450ef19e1557f03bed3ea9f16b037cbe2dc981565b6000828152601c60205260409020600201546125ca9061053b61303f565b6110f35760405162461bcd60e51b81526004018080602001828103825260308152602001806141366030913960400191505060405180910390fd5b6001600160a01b03166000908152600960205260409020805460018201546002830154600384015460048501546005860154600690960154949693959294919390929160ff1690565b601a5481565b60175481565b60185481565b6000600b546000146126845760405162461bcd60e51b81526004016106bf90613b2a565b6001600b5560035460408051631718ecd760e31b815290516001600160a01b039092169163b8c766b891600480820192602092909190829003018186803b1580156126ce57600080fd5b505afa1580156126e2573d6000803e3d6000fd5b505050506040513d601f19601f8201168201806040525081019061270691906135c7565b6127225760405162461bcd60e51b81526004016106bf90613f30565b6006544311156127445760405162461bcd60e51b81526004016106bf90613efd565b600282106127645760405162461bcd60e51b81526004016106bf90613e6e565b61276c610eb0565b600e546040516370a0823160e01b81526000916001600160a01b0316906370a082319061279d90309060040161376c565b60206040518083038186803b1580156127b557600080fd5b505afa1580156127c9573d6000803e3d6000fd5b505050506040513d601f19601f820116820180604052508101906127ed919061364b565b600d546040516370a0823160e01b81529192506000916001600160a01b03909116906370a082319061282390309060040161376c565b60206040518083038186803b15801561283b57600080fd5b505afa15801561284f573d6000803e3d6000fd5b505050506040513d601f19601f82011682018060405250810190612873919061364b565b6012549091506000906001600160a01b0316156129a757600f546012546040516367265c3b60e11b81526001600160a01b039283169263ce4cb876926128c09291169030906004016137a1565b60206040518083038186803b1580156128d857600080fd5b505afa1580156128ec573d6000803e3d6000fd5b505050506040513d601f19601f82011682018060405250810190612910919061364b565b601054601254604051632638fdf560e01b81529293506129a4926001600160a01b0392831692632638fdf59261294d9291169030906004016137a1565b60206040518083038186803b15801561296557600080fd5b505afa158015612979573d6000803e3d6000fd5b505050506040513d601f19601f8201168201806040525081019061299d919061364b565b8290612fe5565b90505b8282156129c2576129bf61299d84633b9aca00613115565b90505b898110156129e25760405162461bcd60e51b81526004016106bf90613c5a565b81156129f5576129f28183612fe5565b90505b600854612a0690633b9aca00613115565b81118015612a36575089612a33612a2c633b9aca0060085461311590919063ffffffff16565b8390612fa3565b10155b612a525760405162461bcd60e51b81526004016106bf90613bec565b89841015612b5457601154604051600091612a7d916001600160a01b039091169081906020016137a1565b60408051601f1981840301815291905290506000612aa9633b9aca00612aa38e89612fa3565b9061319a565b600d54600e5460405163cae9ca5160e01b81529293506001600160a01b039182169263cae9ca5192612ae39216908590879060040161388c565b602060405180830381600087803b158015612afd57600080fd5b505af1158015612b11573d6000803e3d6000fd5b505050506040513d601f19601f82011682018060405250810190612b3591906135c7565b612b515760405162461bcd60e51b81526004016106bf90613b99565b50505b5050601554612b669250905087612fe5565b6015819055506000806000600160009054906101000a90046001600160a01b03166001600160a01b031663504563c06040518163ffffffff1660e01b815260040160a06040518083038186803b158015612bbf57600080fd5b505afa158015612bd3573d6000803e3d6000fd5b505050506040513d601f19601f82011682018060405250810190612bf79190613540565b509295509350909150506001600160a01b038316612c275760405162461bcd60e51b81526004016106bf9061391a565b600e5460405163095ea7b360e01b81526001600160a01b039091169063095ea7b390612c599086908d90600401613850565b602060405180830381600087803b158015612c7357600080fd5b505af1158015612c87573d6000803e3d6000fd5b505050506040513d601f19601f82011682018060405250810190612cab91906135c7565b612cc75760405162461bcd60e51b81526004016106bf90613f63565b84612d9d576040805161010081018252600e546001600160a01b0390811682526000548116602083015262ffffff841682840152306060830152608082018a905260a082018c905260c082018b905288811660e0830152915163414bf38960e01b8152909185169063414bf38990612d43908490600401614004565b602060405180830381600087803b158015612d5d57600080fd5b505af1158015612d71573d6000803e3d6000fd5b505050506040513d601f19601f82011682018060405250810190612d95919061364b565b945050612e94565b8460011415612e94576040805160a08101909152600e54600080549092918291612ddd916001600160a01b03908116918791899183911660c0870161371a565b6040516020818303038152906040528152602001306001600160a01b031681526020018981526020018b81526020018a8152509050836001600160a01b031663c04b8d59826040518263ffffffff1660e01b8152600401612e3e9190613fac565b602060405180830381600087803b158015612e5857600080fd5b505af1158015612e6c573d6000803e3d6000fd5b505050506040513d601f19601f82011682018060405250810190612e90919061364b565b9450505b7f6ad50db5d488c314f9077fc5c41c7d8bcdd86ddc409871512ddd009f21067d32338a86604051612ec793929190613780565b60405180910390a150506000600b555095945050505050565b6003546001600160a01b031681565b6000546001600160a01b031681565b60135481565b6000806000806000600160009054906101000a90046001600160a01b03166001600160a01b031663504563c06040518163ffffffff1660e01b815260040160a06040518083038186803b158015612f5a57600080fd5b505afa158015612f6e573d6000803e3d6000fd5b505050506040513d601f19601f82011682018060405250810190612f929190613540565b945094509450945094509091929394565b6000611e9083836040518060400160405280601e81526020017f536166654d6174683a207375627472616374696f6e206f766572666c6f7700008152506131dc565b600082820183811015611e90576040805162461bcd60e51b815260206004820152601b60248201527f536166654d6174683a206164646974696f6e206f766572666c6f770000000000604482015290519081900360640190fd5b3390565b6000828152601c6020526040902061305b9082613273565b156110985761306861303f565b6001600160a01b0316816001600160a01b0316837f2f8788117e7eff1d82e926ec794901d17c78024a50270940304540a733656f0d60405160405180910390a45050565b6000828152601c602052604090206130c49082613288565b15611098576130d161303f565b6001600160a01b0316816001600160a01b0316837ff6391f5c32d9c69d2a47ea670b442974b53935d1edc7fd64eb21e047a839171b60405160405180910390a45050565b60008261312457506000610e86565b8282028284828161313157fe5b0414611e905760405162461bcd60e51b81526004018080602001828103825260218152602001806141666021913960400191505060405180910390fd5b6000611e90838361329d565b6000611e90836001600160a01b038416613301565b6000610e8682613319565b6000611e9083836040518060400160405280601a81526020017f536166654d6174683a206469766973696f6e206279207a65726f00000000000081525061331d565b6000818484111561326b5760405162461bcd60e51b81526004018080602001828103825283818151815260200191508051906020019080838360005b83811015613230578181015183820152602001613218565b50505050905090810190601f16801561325d5780820380516001836020036101000a031916815260200191505b509250505060405180910390fd5b505050900390565b6000611e90836001600160a01b038416613382565b6000611e90836001600160a01b0384166133cc565b815460009082106132df5760405162461bcd60e51b81526004018080602001828103825260228152602001806140c36022913960400191505060405180910390fd5b8260000182815481106132ee57fe5b9060005260206000200154905092915050565b60009081526001919091016020526040902054151590565b5490565b6000818361336c5760405162461bcd60e51b8152602060048201818152835160248401528351909283926044909101919085019080838360008315613230578181015183820152602001613218565b50600083858161337857fe5b0495945050505050565b600061338e8383613301565b6133c457508154600181810184556000848152602080822090930184905584548482528286019093526040902091909155610e86565b506000610e86565b6000818152600183016020526040812054801561348857835460001980830191908101906000908790839081106133ff57fe5b906000526020600020015490508087600001848154811061341c57fe5b60009182526020808320909101929092558281526001898101909252604090209084019055865487908061344c57fe5b60019003818190600052602060002001600090559055866001016000878152602001908152602001600020600090556001945050505050610e86565b6000915050610e86565b60405180606001604052806003906020820280368337509192915050565b6000602082840312156134c1578081fd5b8135611e908161409f565b600080600080600060a086880312156134e3578081fd5b85516134ee8161409f565b60208701519095506134ff8161409f565b60408701519094506135108161409f565b60608701519093506135218161409f565b60808701519092506135328161409f565b809150509295509295909350565b600080600080600060a08688031215613557578081fd5b85516135628161409f565b60208701519095506135738161409f565b60408701519094506135848161409f565b6060870151608088015191945092506135328161409f565b600080604083850312156135ae578182fd5b82356135b98161409f565b946020939093013593505050565b6000602082840312156135d8578081fd5b8151611e90816140b4565b6000602082840312156135f4578081fd5b5035919050565b6000806040838503121561360d578182fd5b82359150602083013561361f8161409f565b809150509250929050565b6000806040838503121561363c578182fd5b50508035926020909101359150565b60006020828403121561365c578081fd5b5051919050565b60008060408385031215613675578182fd5b82359150602083013561361f816140b4565b600080600080600060a0868803121561369e578081fd5b85359450602086013593506040860135925060608601356136be8161409f565b949793965091946080013592915050565b60008151808452815b818110156136f4576020818501810151868301820152016136d8565b818111156137055782602083870101525b50601f01601f19169290920160200192915050565b6bffffffffffffffffffffffff19606096871b811682526001600160e81b031960e896871b8116601484015294871b811660178301529290941b909216602b840152921b909116602e82015260420190565b6001600160a01b0391909116815260200190565b6001600160a01b039390931683526020830191909152604082015260600190565b6001600160a01b0392831681529116602082015260400190565b6001600160a01b039586168152938516602085015291841660408401526060830152909116608082015260a00190565b6001600160a01b038781168252861660208083019190915261010082019060408301908760005b600381101561382f57815184529282019290820190600101613812565b505050508460a08301528360c08301528260e0830152979650505050505050565b6001600160a01b03929092168252602082015260400190565b6001600160a01b0393909316835260208301919091521515604082015260600190565b600060018060a01b0385168252836020830152606060408301526138b360608301846136cf565b95945050505050565b901515815260200190565b90815260200190565b600060208252611e9060208301846136cf565b6020808252601b908201527f546f6b616d616b5374616b65723a207a65726f20616464726573730000000000604082015260600190565b6020808252601a908201527f546f6b616d616b5374616b65723a756e6973776170207a65726f000000000000604082015260600190565b60208082526021908201527f546f6b616d616b5374616b65723a746f6b616d616b4c6179657232207a65726f6040820152600160fd1b606082015260800190565b6020808252818101527f546f6b616d616b5374616b65723a207377617050726f7879206973207a65726f604082015260600190565b6020808252601e908201527f546f6b616d616b5374616b65723a207374616b654f66206973207a65726f0000604082015260600190565b602080825260189082015277151bdad85b585ad4dd185ad95c8e9c195c9a5bd908195b9960421b604082015260600190565b60208082526029908201527f546f6b616d616b5374616b65723a706572696f64287769746864726177616c44604082015268195b185e4a48195b9960ba1b606082015260800190565b60208082526038908201527f546f6b616d616b5374616b65723a2073776170544f4e746f57544f4e20746f6e6040820152770818985b185b98d9481a5cc81a5b9cdd59999a58da595b9d60421b606082015260800190565b60208082526039908201527f546f6b616d616b5374616b65723a2073776170544f4e746f57544f4e2077746f6040820152781b8818985b185b98d9481a5cc81a5b9cdd59999a58da595b9d603a1b606082015260800190565b602080825260149082015273151bdad85b585ad4dd185ad95c8e9313d0d2d15160621b604082015260600190565b60208082526021908201527f546f6b616d616b5374616b65723a617070726f7665416e6443616c6c206661696040820152601b60fa1b606082015260800190565b60208082526033908201527f546f6b616d616b5374616b65723a65786368616e676557544f4e746f544f5320604082015272185c1c1c9bdd99505b9910d85b1b0819985a5b606a1b606082015260800190565b6020808252601a908201527f546f6b616d616b5374616b65723a696e73756666696369656e74000000000000604082015260600190565b6020808252601d908201527f546f6b616d616b5374616b65723a646966666572656e74206c61796572000000604082015260600190565b6020808252818101527f546f6b616d616b5374616b65723a2077746f6e20696e73756666696369656e74604082015260600190565b6020808252602f908201527f546f6b616d616b5374616b65723a73776170544f4e746f57544f4e206170707260408201526e1bdd99505b9910d85b1b0819985a5b608a1b606082015260800190565b6020808252602a908201527f546f6b616d616b5374616b65723a20746f6e2062616c616e636520697320696e6040820152691cdd59999a58da595b9d60b21b606082015260800190565b60208082526026908201527f546f6b616d616b5374616b65723a416c72656164792050726f63657373556e5360408201526574616b696e6760d01b606082015260800190565b6020808252601c908201527f546f6b616d616b5374616b65723a73776170546f544f4e206661696c00000000604082015260600190565b6020808252601a908201527f546f6b616d616b5374616b65723a746f6b616d616b207a65726f000000000000604082015260600190565b60208082526021908201527f546f6b616d616b5374616b65723a7374616b65416d6f756e74206973207a65726040820152606f60f81b606082015260800190565b60208082526031908201527f546f6b616d616b5374616b65723a5468652065786563757461626c6520626c6f60408201527018dac81a185cc81b9bdd081c185cdcd959607a1b606082015260800190565b60208082526021908201527f546f6b616d616b5374616b65723a206e6f7420617661696c61626c65206b696e6040820152601960fa1b606082015260800190565b6020808252602e908201527f546f6b616d616b5374616b65723a206e6f2077697468647261772d61626c652060408201526d185b5bdd5b9d081b9bdd081e595d60921b606082015260800190565b602080825260199082015278151bdad85b585ad4dd185ad95c8e881c195c9a5bd908195b99603a1b604082015260600190565b602080825260199082015278151bdad85b585ad4dd185ad95c8e881b9bdd0818db1bdcd959603a1b604082015260600190565b60208082526029908201527f546f6b616d616b5374616b65723a63616e277420617070726f766520756e69736040820152683bb0b82937baba32b960b91b606082015260800190565b600060208252825160a06020840152613fc860c08401826136cf565b905060018060a01b0360208501511660408401526040840151606084015260608401516080840152608084015160a08401528091505092915050565b81516001600160a01b03908116825260208084015182169083015260408084015162ffffff16908301526060808401518216908301526080808401519083015260a0838101519083015260c0808401519083015260e09283015116918101919091526101000190565b968752602087019590955260408601939093526060850191909152608084015260a0830152151560c082015260e00190565b6001600160a01b0381168114610ca957600080fd5b8015158114610ca957600080fdfe456e756d657261626c655365743a20696e646578206f7574206f6620626f756e6473416363657373436f6e74726f6c3a2073656e646572206d75737420626520616e2061646d696e20746f206772616e7441636365737369626c653a2043616c6c6572206973206e6f7420616e2061646d696e416363657373436f6e74726f6c3a2073656e646572206d75737420626520616e2061646d696e20746f207265766f6b65536166654d6174683a206d756c7469706c69636174696f6e206f766572666c6f77df8b4c520ffe197c5343c6f5aec59570151ef9a492f2c624fd45ddde6135ec42416363657373436f6e74726f6c3a2063616e206f6e6c792072656e6f756e636520726f6c657320666f722073656c66a2646970667358221220c320c5e69702c956f3b78a4d3500ab4cc67adbe1ea394e46474fc0289b3419dc64736f6c63430007060033",
  "linkReferences": {},
  "deployedLinkReferences": {}
}