{
  "_format": "hh-sol-artifact-1",
  "contractName": "LockTOSv2Logic1",
  "sourceName": "contracts/stake/LockTOSv2Logic1.sol",
  "abi": [
    {
      "anonymous": false,
      "inputs": [
        {
          "indexed": false,
          "internalType": "address",
          "name": "account",
          "type": "address"
        },
        {
          "indexed": false,
          "internalType": "uint256",
          "name": "lockId",
          "type": "uint256"
        },
        {
          "indexed": false,
          "internalType": "uint256",
          "name": "value",
          "type": "uint256"
        }
      ],
      "name": "LockAmountIncreased",
      "type": "event"
    },
    {
      "anonymous": false,
      "inputs": [
        {
          "indexed": false,
          "internalType": "address",
          "name": "account",
          "type": "address"
        },
        {
          "indexed": false,
          "internalType": "uint256",
          "name": "lockId",
          "type": "uint256"
        },
        {
          "indexed": false,
          "internalType": "uint256",
          "name": "value",
          "type": "uint256"
        },
        {
          "indexed": false,
          "internalType": "uint256",
          "name": "unlockTime",
          "type": "uint256"
        }
      ],
      "name": "LockCreated",
      "type": "event"
    },
    {
      "anonymous": false,
      "inputs": [
        {
          "indexed": false,
          "internalType": "address",
          "name": "account",
          "type": "address"
        },
        {
          "indexed": false,
          "internalType": "uint256",
          "name": "lockId",
          "type": "uint256"
        },
        {
          "indexed": false,
          "internalType": "uint256",
          "name": "value",
          "type": "uint256"
        }
      ],
      "name": "LockDeposited",
      "type": "event"
    },
    {
      "anonymous": false,
      "inputs": [
        {
          "indexed": false,
          "internalType": "address",
          "name": "account",
          "type": "address"
        },
        {
          "indexed": false,
          "internalType": "uint256",
          "name": "lockId",
          "type": "uint256"
        },
        {
          "indexed": false,
          "internalType": "uint256",
          "name": "unlockTime",
          "type": "uint256"
        }
      ],
      "name": "LockUnlockTimeIncreased",
      "type": "event"
    },
    {
      "anonymous": false,
      "inputs": [
        {
          "indexed": false,
          "internalType": "address",
          "name": "account",
          "type": "address"
        },
        {
          "indexed": false,
          "internalType": "uint256",
          "name": "lockId",
          "type": "uint256"
        },
        {
          "indexed": false,
          "internalType": "uint256",
          "name": "value",
          "type": "uint256"
        }
      ],
      "name": "LockWithdrawn",
      "type": "event"
    },
    {
      "anonymous": false,
      "inputs": [
        {
          "indexed": true,
          "internalType": "bytes32",
          "name": "role",
          "type": "bytes32"
        },
        {
          "indexed": true,
          "internalType": "bytes32",
          "name": "previousAdminRole",
          "type": "bytes32"
        },
        {
          "indexed": true,
          "internalType": "bytes32",
          "name": "newAdminRole",
          "type": "bytes32"
        }
      ],
      "name": "RoleAdminChanged",
      "type": "event"
    },
    {
      "anonymous": false,
      "inputs": [
        {
          "indexed": true,
          "internalType": "bytes32",
          "name": "role",
          "type": "bytes32"
        },
        {
          "indexed": true,
          "internalType": "address",
          "name": "account",
          "type": "address"
        },
        {
          "indexed": true,
          "internalType": "address",
          "name": "sender",
          "type": "address"
        }
      ],
      "name": "RoleGranted",
      "type": "event"
    },
    {
      "anonymous": false,
      "inputs": [
        {
          "indexed": true,
          "internalType": "bytes32",
          "name": "role",
          "type": "bytes32"
        },
        {
          "indexed": true,
          "internalType": "address",
          "name": "account",
          "type": "address"
        },
        {
          "indexed": true,
          "internalType": "address",
          "name": "sender",
          "type": "address"
        }
      ],
      "name": "RoleRevoked",
      "type": "event"
    },
    {
      "inputs": [],
      "name": "ADMIN_ROLE",
      "outputs": [
        {
          "internalType": "bytes32",
          "name": "",
          "type": "bytes32"
        }
      ],
      "stateMutability": "view",
      "type": "function"
    },
    {
      "inputs": [],
      "name": "BURNER_ROLE",
      "outputs": [
        {
          "internalType": "bytes32",
          "name": "",
          "type": "bytes32"
        }
      ],
      "stateMutability": "view",
      "type": "function"
    },
    {
      "inputs": [],
      "name": "DEFAULT_ADMIN_ROLE",
      "outputs": [
        {
          "internalType": "bytes32",
          "name": "",
          "type": "bytes32"
        }
      ],
      "stateMutability": "view",
      "type": "function"
    },
    {
      "inputs": [],
      "name": "MINTER_ROLE",
      "outputs": [
        {
          "internalType": "bytes32",
          "name": "",
          "type": "bytes32"
        }
      ],
      "stateMutability": "view",
      "type": "function"
    },
    {
      "inputs": [],
      "name": "MULTIPLIER",
      "outputs": [
        {
          "internalType": "uint256",
          "name": "",
          "type": "uint256"
        }
      ],
      "stateMutability": "view",
      "type": "function"
    },
    {
      "inputs": [],
      "name": "PROJECT_ADMIN_ROLE",
      "outputs": [
        {
          "internalType": "bytes32",
          "name": "",
          "type": "bytes32"
        }
      ],
      "stateMutability": "view",
      "type": "function"
    },
    {
      "inputs": [],
      "name": "activeHolders",
      "outputs": [
        {
          "internalType": "address[]",
          "name": "",
          "type": "address[]"
        }
      ],
      "stateMutability": "view",
      "type": "function"
    },
    {
      "inputs": [
        {
          "internalType": "address",
          "name": "_addr",
          "type": "address"
        }
      ],
      "name": "activeLocksOf",
      "outputs": [
        {
          "internalType": "uint256[]",
          "name": "",
          "type": "uint256[]"
        }
      ],
      "stateMutability": "view",
      "type": "function"
    },
    {
      "inputs": [
        {
          "internalType": "address",
          "name": "account",
          "type": "address"
        }
      ],
      "name": "addAdmin",
      "outputs": [],
      "stateMutability": "nonpayable",
      "type": "function"
    },
    {
      "inputs": [
        {
          "internalType": "address",
          "name": "",
          "type": "address"
        }
      ],
      "name": "aliveImplementation",
      "outputs": [
        {
          "internalType": "bool",
          "name": "",
          "type": "bool"
        }
      ],
      "stateMutability": "view",
      "type": "function"
    },
    {
      "inputs": [],
      "name": "allHolders",
      "outputs": [
        {
          "internalType": "address[]",
          "name": "",
          "type": "address[]"
        }
      ],
      "stateMutability": "view",
      "type": "function"
    },
    {
      "inputs": [
        {
          "internalType": "uint256",
          "name": "",
          "type": "uint256"
        }
      ],
      "name": "allLocks",
      "outputs": [
        {
          "internalType": "uint256",
          "name": "start",
          "type": "uint256"
        },
        {
          "internalType": "uint256",
          "name": "end",
          "type": "uint256"
        },
        {
          "internalType": "uint256",
          "name": "amount",
          "type": "uint256"
        },
        {
          "internalType": "bool",
          "name": "withdrawn",
          "type": "bool"
        }
      ],
      "stateMutability": "view",
      "type": "function"
    },
    {
      "inputs": [
        {
          "internalType": "address",
          "name": "_addr",
          "type": "address"
        }
      ],
      "name": "balanceOf",
      "outputs": [
        {
          "internalType": "uint256",
          "name": "balance",
          "type": "uint256"
        }
      ],
      "stateMutability": "view",
      "type": "function"
    },
    {
      "inputs": [
        {
          "internalType": "address",
          "name": "_addr",
          "type": "address"
        },
        {
          "internalType": "uint256",
          "name": "_timestamp",
          "type": "uint256"
        }
      ],
      "name": "balanceOfAt",
      "outputs": [
        {
          "internalType": "uint256",
          "name": "balance",
          "type": "uint256"
        }
      ],
      "stateMutability": "view",
      "type": "function"
    },
    {
      "inputs": [
        {
          "internalType": "uint256",
          "name": "_lockId",
          "type": "uint256"
        }
      ],
      "name": "balanceOfLock",
      "outputs": [
        {
          "internalType": "uint256",
          "name": "",
          "type": "uint256"
        }
      ],
      "stateMutability": "view",
      "type": "function"
    },
    {
      "inputs": [
        {
          "internalType": "uint256",
          "name": "_lockId",
          "type": "uint256"
        },
        {
          "internalType": "uint256",
          "name": "_timestamp",
          "type": "uint256"
        }
      ],
      "name": "balanceOfLockAt",
      "outputs": [
        {
          "internalType": "uint256",
          "name": "",
          "type": "uint256"
        }
      ],
      "stateMutability": "view",
      "type": "function"
    },
    {
      "inputs": [
        {
          "internalType": "address",
          "name": "user",
          "type": "address"
        },
        {
          "internalType": "uint256",
          "name": "_value",
          "type": "uint256"
        },
        {
          "internalType": "uint256",
          "name": "_unlockWeeks",
          "type": "uint256"
        }
      ],
      "name": "createLockByStaker",
      "outputs": [
        {
          "internalType": "uint256",
          "name": "lockId",
          "type": "uint256"
        }
      ],
      "stateMutability": "nonpayable",
      "type": "function"
    },
    {
      "inputs": [],
      "name": "cumulativeEpochUnit",
      "outputs": [
        {
          "internalType": "uint256",
          "name": "",
          "type": "uint256"
        }
      ],
      "stateMutability": "view",
      "type": "function"
    },
    {
      "inputs": [],
      "name": "cumulativeTOSAmount",
      "outputs": [
        {
          "internalType": "uint256",
          "name": "",
          "type": "uint256"
        }
      ],
      "stateMutability": "view",
      "type": "function"
    },
    {
      "inputs": [],
      "name": "currentStakedTotalTOS",
      "outputs": [
        {
          "internalType": "uint256",
          "name": "",
          "type": "uint256"
        }
      ],
      "stateMutability": "view",
      "type": "function"
    },
    {
      "inputs": [
        {
          "internalType": "address",
          "name": "_addr",
          "type": "address"
        },
        {
          "internalType": "uint256",
          "name": "_lockId",
          "type": "uint256"
        },
        {
          "internalType": "uint256",
          "name": "_value",
          "type": "uint256"
        }
      ],
      "name": "depositFor",
      "outputs": [],
      "stateMutability": "nonpayable",
      "type": "function"
    },
    {
      "inputs": [],
      "name": "epochUnit",
      "outputs": [
        {
          "internalType": "uint256",
          "name": "",
          "type": "uint256"
        }
      ],
      "stateMutability": "view",
      "type": "function"
    },
    {
      "inputs": [],
      "name": "getCurrentTime",
      "outputs": [
        {
          "internalType": "uint256",
          "name": "",
          "type": "uint256"
        }
      ],
      "stateMutability": "view",
      "type": "function"
    },
    {
      "inputs": [
        {
          "internalType": "bytes32",
          "name": "role",
          "type": "bytes32"
        }
      ],
      "name": "getRoleAdmin",
      "outputs": [
        {
          "internalType": "bytes32",
          "name": "",
          "type": "bytes32"
        }
      ],
      "stateMutability": "view",
      "type": "function"
    },
    {
      "inputs": [
        {
          "internalType": "bytes32",
          "name": "role",
          "type": "bytes32"
        },
        {
          "internalType": "uint256",
          "name": "index",
          "type": "uint256"
        }
      ],
      "name": "getRoleMember",
      "outputs": [
        {
          "internalType": "address",
          "name": "",
          "type": "address"
        }
      ],
      "stateMutability": "view",
      "type": "function"
    },
    {
      "inputs": [
        {
          "internalType": "bytes32",
          "name": "role",
          "type": "bytes32"
        }
      ],
      "name": "getRoleMemberCount",
      "outputs": [
        {
          "internalType": "uint256",
          "name": "",
          "type": "uint256"
        }
      ],
      "stateMutability": "view",
      "type": "function"
    },
    {
      "inputs": [],
      "name": "globalCheckpoint",
      "outputs": [],
      "stateMutability": "nonpayable",
      "type": "function"
    },
    {
      "inputs": [
        {
          "internalType": "uint256",
          "name": "count",
          "type": "uint256"
        }
      ],
      "name": "globalCheckpoint",
      "outputs": [],
      "stateMutability": "nonpayable",
      "type": "function"
    },
    {
      "inputs": [
        {
          "internalType": "bytes32",
          "name": "role",
          "type": "bytes32"
        },
        {
          "internalType": "address",
          "name": "account",
          "type": "address"
        }
      ],
      "name": "grantRole",
      "outputs": [],
      "stateMutability": "nonpayable",
      "type": "function"
    },
    {
      "inputs": [
        {
          "internalType": "bytes32",
          "name": "role",
          "type": "bytes32"
        },
        {
          "internalType": "address",
          "name": "account",
          "type": "address"
        }
      ],
      "name": "hasRole",
      "outputs": [
        {
          "internalType": "bool",
          "name": "",
          "type": "bool"
        }
      ],
      "stateMutability": "view",
      "type": "function"
    },
    {
      "inputs": [
        {
          "internalType": "uint256",
          "name": "",
          "type": "uint256"
        }
      ],
      "name": "inUse",
      "outputs": [
        {
          "internalType": "bool",
          "name": "",
          "type": "bool"
        }
      ],
      "stateMutability": "view",
      "type": "function"
    },
    {
      "inputs": [
        {
          "internalType": "address",
          "name": "user",
          "type": "address"
        },
        {
          "internalType": "uint256",
          "name": "_lockId",
          "type": "uint256"
        },
        {
          "internalType": "uint256",
          "name": "_value",
          "type": "uint256"
        }
      ],
      "name": "increaseAmountByStaker",
      "outputs": [],
      "stateMutability": "nonpayable",
      "type": "function"
    },
    {
      "inputs": [
        {
          "internalType": "address[]",
          "name": "users",
          "type": "address[]"
        },
        {
          "internalType": "uint256[]",
          "name": "_lockIds",
          "type": "uint256[]"
        },
        {
          "internalType": "uint256[]",
          "name": "_values",
          "type": "uint256[]"
        },
        {
          "internalType": "uint256",
          "name": "curTime",
          "type": "uint256"
        }
      ],
      "name": "increaseAmountOfIds",
      "outputs": [],
      "stateMutability": "nonpayable",
      "type": "function"
    },
    {
      "inputs": [
        {
          "internalType": "address",
          "name": "user",
          "type": "address"
        },
        {
          "internalType": "uint256",
          "name": "_lockId",
          "type": "uint256"
        },
        {
          "internalType": "uint256",
          "name": "_value",
          "type": "uint256"
        },
        {
          "internalType": "uint256",
          "name": "_unlockWeeks",
          "type": "uint256"
        }
      ],
      "name": "increaseAmountUnlockTimeByStaker",
      "outputs": [],
      "stateMutability": "nonpayable",
      "type": "function"
    },
    {
      "inputs": [
        {
          "internalType": "address",
          "name": "user",
          "type": "address"
        },
        {
          "internalType": "uint256",
          "name": "_lockId",
          "type": "uint256"
        },
        {
          "internalType": "uint256",
          "name": "_unlockWeeks",
          "type": "uint256"
        }
      ],
      "name": "increaseUnlockTimeByStaker",
      "outputs": [],
      "stateMutability": "nonpayable",
      "type": "function"
    },
    {
      "inputs": [
        {
          "internalType": "address",
          "name": "account",
          "type": "address"
        }
      ],
      "name": "isAdmin",
      "outputs": [
        {
          "internalType": "bool",
          "name": "",
          "type": "bool"
        }
      ],
      "stateMutability": "view",
      "type": "function"
    },
    {
      "inputs": [],
      "name": "lockIdCounter",
      "outputs": [
        {
          "internalType": "uint256",
          "name": "",
          "type": "uint256"
        }
      ],
      "stateMutability": "view",
      "type": "function"
    },
    {
      "inputs": [
        {
          "internalType": "uint256",
          "name": "",
          "type": "uint256"
        },
        {
          "internalType": "uint256",
          "name": "",
          "type": "uint256"
        }
      ],
      "name": "lockPointHistory",
      "outputs": [
        {
          "internalType": "int256",
          "name": "bias",
          "type": "int256"
        },
        {
          "internalType": "int256",
          "name": "slope",
          "type": "int256"
        },
        {
          "internalType": "uint256",
          "name": "timestamp",
          "type": "uint256"
        }
      ],
      "stateMutability": "view",
      "type": "function"
    },
    {
      "inputs": [],
      "name": "lock_",
      "outputs": [
        {
          "internalType": "bool",
          "name": "",
          "type": "bool"
        }
      ],
      "stateMutability": "view",
      "type": "function"
    },
    {
      "inputs": [
        {
          "internalType": "address",
          "name": "",
          "type": "address"
        },
        {
          "internalType": "uint256",
          "name": "",
          "type": "uint256"
        }
      ],
      "name": "lockedBalances",
      "outputs": [
        {
          "internalType": "uint256",
          "name": "start",
          "type": "uint256"
        },
        {
          "internalType": "uint256",
          "name": "end",
          "type": "uint256"
        },
        {
          "internalType": "uint256",
          "name": "amount",
          "type": "uint256"
        },
        {
          "internalType": "bool",
          "name": "withdrawn",
          "type": "bool"
        }
      ],
      "stateMutability": "view",
      "type": "function"
    },
    {
      "inputs": [
        {
          "internalType": "uint256",
          "name": "_lockId",
          "type": "uint256"
        }
      ],
      "name": "locksInfo",
      "outputs": [
        {
          "internalType": "uint256",
          "name": "start",
          "type": "uint256"
        },
        {
          "internalType": "uint256",
          "name": "end",
          "type": "uint256"
        },
        {
          "internalType": "uint256",
          "name": "amount",
          "type": "uint256"
        }
      ],
      "stateMutability": "view",
      "type": "function"
    },
    {
      "inputs": [
        {
          "internalType": "address",
          "name": "_addr",
          "type": "address"
        }
      ],
      "name": "locksOf",
      "outputs": [
        {
          "internalType": "uint256[]",
          "name": "",
          "type": "uint256[]"
        }
      ],
      "stateMutability": "view",
      "type": "function"
    },
    {
      "inputs": [],
      "name": "maxTime",
      "outputs": [
        {
          "internalType": "uint256",
          "name": "",
          "type": "uint256"
        }
      ],
      "stateMutability": "view",
      "type": "function"
    },
    {
      "inputs": [],
      "name": "migratedL2",
      "outputs": [
        {
          "internalType": "bool",
          "name": "",
          "type": "bool"
        }
      ],
      "stateMutability": "view",
      "type": "function"
    },
    {
      "inputs": [],
      "name": "needCheckpoint",
      "outputs": [
        {
          "internalType": "bool",
          "name": "need",
          "type": "bool"
        }
      ],
      "stateMutability": "view",
      "type": "function"
    },
    {
      "inputs": [],
      "name": "pauseProxy",
      "outputs": [
        {
          "internalType": "bool",
          "name": "",
          "type": "bool"
        }
      ],
      "stateMutability": "view",
      "type": "function"
    },
    {
      "inputs": [
        {
          "internalType": "uint256",
          "name": "",
          "type": "uint256"
        }
      ],
      "name": "pointHistory",
      "outputs": [
        {
          "internalType": "int256",
          "name": "bias",
          "type": "int256"
        },
        {
          "internalType": "int256",
          "name": "slope",
          "type": "int256"
        },
        {
          "internalType": "uint256",
          "name": "timestamp",
          "type": "uint256"
        }
      ],
      "stateMutability": "view",
      "type": "function"
    },
    {
      "inputs": [
        {
          "internalType": "uint256",
          "name": "_lockId",
          "type": "uint256"
        }
      ],
      "name": "pointHistoryOf",
      "outputs": [
        {
          "components": [
            {
              "internalType": "int256",
              "name": "bias",
              "type": "int256"
            },
            {
              "internalType": "int256",
              "name": "slope",
              "type": "int256"
            },
            {
              "internalType": "uint256",
              "name": "timestamp",
              "type": "uint256"
            }
          ],
          "internalType": "struct LibLockTOS.Point[]",
          "name": "",
          "type": "tuple[]"
        }
      ],
      "stateMutability": "view",
      "type": "function"
    },
    {
      "inputs": [
        {
          "internalType": "uint256",
          "name": "",
          "type": "uint256"
        }
      ],
      "name": "proxyImplementation",
      "outputs": [
        {
          "internalType": "address",
          "name": "",
          "type": "address"
        }
      ],
      "stateMutability": "view",
      "type": "function"
    },
    {
      "inputs": [
        {
          "internalType": "address",
          "name": "account",
          "type": "address"
        }
      ],
      "name": "removeAdmin",
      "outputs": [],
      "stateMutability": "nonpayable",
      "type": "function"
    },
    {
      "inputs": [
        {
          "internalType": "bytes32",
          "name": "role",
          "type": "bytes32"
        },
        {
          "internalType": "address",
          "name": "account",
          "type": "address"
        }
      ],
      "name": "renounceRole",
      "outputs": [],
      "stateMutability": "nonpayable",
      "type": "function"
    },
    {
      "inputs": [
        {
          "internalType": "bytes32",
          "name": "role",
          "type": "bytes32"
        },
        {
          "internalType": "address",
          "name": "account",
          "type": "address"
        }
      ],
      "name": "revokeRole",
      "outputs": [],
      "stateMutability": "nonpayable",
      "type": "function"
    },
    {
      "inputs": [
        {
          "internalType": "bytes4",
          "name": "",
          "type": "bytes4"
        }
      ],
      "name": "selectorImplementation",
      "outputs": [
        {
          "internalType": "address",
          "name": "",
          "type": "address"
        }
      ],
      "stateMutability": "view",
      "type": "function"
    },
    {
      "inputs": [
        {
          "internalType": "uint256",
          "name": "_maxTime",
          "type": "uint256"
        }
      ],
      "name": "setMaxTime",
      "outputs": [],
      "stateMutability": "nonpayable",
      "type": "function"
    },
    {
      "inputs": [
        {
          "internalType": "address",
          "name": "_staker",
          "type": "address"
        }
      ],
      "name": "setStaker",
      "outputs": [],
      "stateMutability": "nonpayable",
      "type": "function"
    },
    {
      "inputs": [
        {
          "internalType": "uint256",
          "name": "",
          "type": "uint256"
        }
      ],
      "name": "slopeChanges",
      "outputs": [
        {
          "internalType": "int256",
          "name": "",
          "type": "int256"
        }
      ],
      "stateMutability": "view",
      "type": "function"
    },
    {
      "inputs": [],
      "name": "stakeRegistry",
      "outputs": [
        {
          "internalType": "address",
          "name": "",
          "type": "address"
        }
      ],
      "stateMutability": "view",
      "type": "function"
    },
    {
      "inputs": [],
      "name": "staker",
      "outputs": [
        {
          "internalType": "address",
          "name": "",
          "type": "address"
        }
      ],
      "stateMutability": "view",
      "type": "function"
    },
    {
      "inputs": [],
      "name": "tos",
      "outputs": [
        {
          "internalType": "address",
          "name": "",
          "type": "address"
        }
      ],
      "stateMutability": "view",
      "type": "function"
    },
    {
      "inputs": [
        {
          "internalType": "address",
          "name": "_addr",
          "type": "address"
        }
      ],
      "name": "totalLockedAmountOf",
      "outputs": [
        {
          "internalType": "uint256",
          "name": "",
          "type": "uint256"
        }
      ],
      "stateMutability": "view",
      "type": "function"
    },
    {
      "inputs": [],
      "name": "totalSupply",
      "outputs": [
        {
          "internalType": "uint256",
          "name": "",
          "type": "uint256"
        }
      ],
      "stateMutability": "view",
      "type": "function"
    },
    {
      "inputs": [
        {
          "internalType": "uint256",
          "name": "_timestamp",
          "type": "uint256"
        }
      ],
      "name": "totalSupplyAt",
      "outputs": [
        {
          "internalType": "uint256",
          "name": "",
          "type": "uint256"
        }
      ],
      "stateMutability": "view",
      "type": "function"
    },
    {
      "inputs": [
        {
          "internalType": "address",
          "name": "newAdmin",
          "type": "address"
        }
      ],
      "name": "transferAdmin",
      "outputs": [],
      "stateMutability": "nonpayable",
      "type": "function"
    },
    {
      "inputs": [
        {
          "internalType": "address",
          "name": "_treasury",
          "type": "address"
        }
      ],
      "name": "transferTosToTreasury",
      "outputs": [],
      "stateMutability": "nonpayable",
      "type": "function"
    },
    {
      "inputs": [
        {
          "internalType": "uint256",
          "name": "",
          "type": "uint256"
        }
      ],
      "name": "uniqueUsers",
      "outputs": [
        {
          "internalType": "address",
          "name": "",
          "type": "address"
        }
      ],
      "stateMutability": "view",
      "type": "function"
    },
    {
      "inputs": [
        {
          "internalType": "address",
          "name": "",
          "type": "address"
        },
        {
          "internalType": "uint256",
          "name": "",
          "type": "uint256"
        }
      ],
      "name": "userLocks",
      "outputs": [
        {
          "internalType": "uint256",
          "name": "",
          "type": "uint256"
        }
      ],
      "stateMutability": "view",
      "type": "function"
    },
    {
      "inputs": [],
      "name": "version2",
      "outputs": [
        {
          "internalType": "bool",
          "name": "",
          "type": "bool"
        }
      ],
      "stateMutability": "pure",
      "type": "function"
    },
    {
      "inputs": [
        {
          "internalType": "address",
          "name": "user",
          "type": "address"
        }
      ],
      "name": "withdrawAllByStaker",
      "outputs": [],
      "stateMutability": "nonpayable",
      "type": "function"
    },
    {
      "inputs": [
        {
          "internalType": "address",
          "name": "user",
          "type": "address"
        },
        {
          "internalType": "uint256",
          "name": "_lockId",
          "type": "uint256"
        }
      ],
      "name": "withdrawByStaker",
      "outputs": [],
      "stateMutability": "nonpayable",
      "type": "function"
    },
    {
      "inputs": [
        {
          "internalType": "address",
          "name": "_addr",
          "type": "address"
        }
      ],
      "name": "withdrawableAmountOf",
      "outputs": [
        {
          "internalType": "uint256",
          "name": "",
          "type": "uint256"
        }
      ],
      "stateMutability": "view",
      "type": "function"
    },
    {
      "inputs": [
        {
          "internalType": "address",
          "name": "_addr",
          "type": "address"
        }
      ],
      "name": "withdrawableLocksOf",
      "outputs": [
        {
          "internalType": "uint256[]",
          "name": "",
          "type": "uint256[]"
        }
      ],
      "stateMutability": "view",
      "type": "function"
    }
  ],
  "bytecode": "0x6080604052600160075534801561001557600080fd5b50614cda806100256000396000f3fe608060405234801561001057600080fd5b506004361061039d5760003560e01c80639010d07c116101eb578063c3f9ab5811610110578063dd383394116100a8578063dd383394146107b7578063e43cb666146107ca578063ea31e895146107dd578063eb86b342146107e5578063ed50c699146107f8578063efe2b7201461080b578063f52a36f71461081e578063f52dde6d14610831578063fd2dcecf146108445761039d565b8063c3f9ab5814610711578063c577365614610731578063c5dc1e5f14610746578063c79acdda14610766578063c80a3aa614610779578063ca15c87314610781578063cd29ca0e14610794578063d53913931461079c578063d547741f146107a45761039d565b8063aa33fedb11610183578063aa33fedb14610687578063ab2f59171461069a578063afae883e146106ad578063b2e9a1b7146106b5578063b534ad56146106bd578063b839c0a5146106c5578063b911135f146106d8578063b94419e0146106eb578063c0a37b3f146106fe5761039d565b80639010d07c146105f257806391d1485414610605578063981b24d01461061857806398b777e71461062b5780639ce563051461063e5780639f7166a414610651578063a1f5f50e14610664578063a217fddf1461066c578063a29a43bb146106745761039d565b80634cf5fbf5116102d157806368304835116102695780636830483514610573578063704802751461057b57806370a082311461058e57806373e1d4fe146105a157806375829def146105a957806375b238fc146105bc57806389f395de146105c45780638ad4c447146105cc5780638bc6fff8146105df5761039d565b80634cf5fbf5146104c15780634ee2cd7e146104d457806350d2a276146104e7578063550d01a3146105075780635d16a6f91461051a5780635ebaf1db1461053d57806363a8fd891461054557806363d5a3d91461054d578063642cf649146105605761039d565b806322e67e711161034457806322e67e7114610433578063248a9ca31461043b57806324d7806c1461044e578063282c51f31461046157806329cb924d146104695780632f2ff15d1461047157806336568abe14610484578063367b7b231461049757806341c04d5e146104b95761039d565b8063059f8b16146103a2578063086c46f4146103c05780630b7858ba146103d35780630db9cb0c146103e85780631785f53c146103fb57806318160ddd146104105780631ac40e66146104185780631b83194414610420575b600080fd5b6103aa61084c565b6040516103b7919061471a565b60405180910390f35b6103aa6103ce366004614364565b610858565b6103db610924565b6040516103b7919061470f565b6103aa6103f63660046143a7565b610968565b61040e610409366004614364565b610b7e565b005b6103aa610bdd565b61040e610caf565b61040e61042e366004614411565b610cb7565b6103aa610f89565b6103aa610449366004614519565b610f8f565b6103db61045c366004614364565b610fa4565b6103aa610fc4565b6103aa610fe8565b61040e61047f366004614531565b610fec565b61040e610492366004614531565b611053565b6104aa6104a536600461455c565b6110b4565b6040516103b793929190614723565b6103aa6110f6565b61040e6104cf3660046143a7565b61111a565b6103aa6104e236600461437e565b6112a0565b6104fa6104f536600461457d565b61135d565b6040516103b791906145bd565b6103db610515366004614364565b611378565b61052d61052836600461437e565b61138d565b6040516103b79493929190614a80565b6104fa6113c2565b6103db6113d6565b61052d61055b366004614519565b6113df565b6103aa61056e36600461455c565b611409565b6104fa611482565b61040e610589366004614364565b611496565b6103aa61059c366004614364565b6114f2565b6103db6115a6565b61040e6105b7366004614364565b6115ab565b6103aa6116cc565b6104fa6116de565b6104aa6105da366004614519565b6116ed565b61040e6105ed366004614364565b611720565b6104fa61060036600461455c565b611910565b6103db610613366004614531565b61192f565b6103aa610626366004614519565b611947565b61040e610639366004614519565b6119dd565b6104aa61064c366004614519565b611a26565b61040e61065f366004614364565b611a45565b6103db611beb565b6103aa611bfb565b61040e610682366004614364565b611c00565b6103aa61069536600461437e565b611cc5565b61040e6106a8366004614519565b611cf6565b6103aa611cff565b6103db611d05565b6103aa611d0e565b61040e6106d33660046143d9565b611d14565b6104fa6106e6366004614519565b611fab565b6103aa6106f9366004614519565b611fc6565b61040e61070c36600461437e565b61207a565b61072461071f366004614364565b612126565b6040516103b791906146d7565b610739612192565b6040516103b79190614631565b610759610754366004614519565b612327565b6040516103b7919061467e565b6103db610774366004614519565b6123b7565b6107396123cc565b6103aa61078f366004614519565b61242e565b6103aa612445565b6103aa61244b565b61040e6107b2366004614531565b61246f565b6107246107c5366004614364565b6124c8565b6107246107d8366004614364565b61272c565b6103aa6128f6565b6103aa6107f3366004614364565b61297c565b6104fa610806366004614519565b612a66565b61040e6108193660046143a7565b612a90565b6103aa61082c366004614519565b612af2565b61040e61083f3660046143a7565b612b04565b6103aa612ce2565b670de0b6b3a764000081565b6001600160a01b0381166000908152600d602052604081205481805b8281101561091a576001600160a01b0385166000908152600d602052604081208054839081106108a057fe5b60009182526020808320909101546001600160a01b0389168352600b8252604080842082855283529283902083516080810185528154815260018201549381019390935260028101549383018490526003015460ff161515606083015292509061090b908590612ce8565b93505050806001019050610874565b509150505b919050565b60095460009080610939576001915050610965565b6001546009600183038154811061094c57fe5b9060005260206000209060030201600201544203119150505b90565b60145460009061010090046001600160a01b031633146109bd576040805162461bcd60e51b81526020600482015260146024820152600080516020614ba2833981519152604482015290519081900360640190fd5b600083116109e65760405162461bcd60e51b81526004016109dd906148c9565b60405180910390fd5b60008211610a065760405162461bcd60e51b81526004016109dd90614994565b600554610a139083612ce8565b600555600654610a239084612ce8565b600655600154600090610a4290610a3b908590612d42565b4290612ce8565b600154909150610a5c90610a568382612d9b565b90612d42565b90506002544282031115610a825760405162461bcd60e51b81526004016109dd90614798565b6001600160a01b0385166000908152600d6020526040902054610aeb57600880546001810182556000919091527ff3f7a9fe364faab93b216da50a3214154f22a0a2b415b23a84c8169e8b636ee30180546001600160a01b0319166001600160a01b0387161790555b600454610af9906001612ce8565b60048190559150610b0c85838684612ddd565b6001600160a01b0385166000908152600d6020908152604080832080546001810182559084529190922001839055517f71fc552ee832a9004ea0bdb07cb6dd9d641eb2cb53b3cfe88c8fdcff886734a090610b6e90879085908890869061460b565b60405180910390a1509392505050565b610b8733610fa4565b610bc25760405162461bcd60e51b8152600401808060200182810382526022815260200180614b2f6022913960400191505060405180910390fd5b610bda600080516020614be383398151915282611053565b50565b600954600090610bef57506000610965565b60098054600091610c45916000198101908110610c0857fe5b9060005260206000209060030201604051806060016040529081600082015481526020016001820154815260200160028201548152505042612fe1565b90506000610c76610c6b610c668460400151426130e090919063ffffffff16565b613122565b60208401519061316a565b9050610ca8670de0b6b3a764000082846000015113610c96576000610ca2565b8351610ca29084613213565b90612d9b565b9250505090565b610bda613278565b610cc033610fa4565b610cfb5760405162461bcd60e51b8152600401808060200182810382526022815260200180614b2f6022913960400191505060405180910390fd5b60008451118015610d0d575082518451145b8015610d1a575081518451145b610d365760405162461bcd60e51b81526004016109dd9061481e565b835160005b81811015610f81576000868281518110610d5157fe5b602002602001015190506000868381518110610d6957fe5b602002602001015190506000868481518110610d8157fe5b6020908102919091018101516001600160a01b0385166000908152600b835260408082208683528452908190208151608081018352815481526001820154948101949094526002810154918401919091526003015460ff161580156060840181905291935090610df15750600082115b15610f7157600654610e039083612ce8565b5060408051608081018252825181526020808401519082015281830151918101829052600060608201528291610e399085612ce8565b6040820152610e4981838b613471565b6001600160a01b0386166000908152600b60209081526040808320888452825280832084518155828501805160018084019190915583870180516002808601919091556060890180516003968701805491151560ff19928316179055600c9098529588208951815593519284019290925551828201819055935191909201805491151591909416179092559054610ef191610c669190610ca290670de0b6b3a7640000612d42565b90506000610f19610f12610c668d86602001516130e090919063ffffffff16565b839061316a565b6040805160608101825291825260208083019485528282018e815260008b8152600a83529283208054600181810183559185529290932093516003909202909301908155935190840155516002909201919091555050505b505060019092019150610d3b9050565b505050505050565b60025481565b60009081526010602052604090206002015490565b6000610fbe600080516020614be38339815191528361192f565b92915050565b7f9667e80708b6eeeb0053fa0cca44e028ff548e2a9f029edfeac87c118b08b7c881565b4290565b60008281526010602052604090206002015461100a90610613613669565b6110455760405162461bcd60e51b815260040180806020018281038252602f815260200180614b00602f913960400191505060405180910390fd5b61104f828261366d565b5050565b61105b613669565b6001600160a01b0316816001600160a01b0316146110aa5760405162461bcd60e51b815260040180806020018281038252602f815260200180614c76602f913960400191505060405180910390fd5b61104f82826136d6565b600a60205281600052604060002081815481106110d057600080fd5b600091825260209091206003909102018054600182015460029092015490935090915083565b7f52eafc11f6f81f86878bffd31109a0d92f37506527754f00788853ff9f63b13081565b60145461010090046001600160a01b0316331461116c576040805162461bcd60e51b81526020600482015260146024820152600080516020614ba2833981519152604482015290519081900360640190fd5b6000811161118c5760405162461bcd60e51b81526004016109dd906148c9565b6001600160a01b0383166000908152600b6020908152604080832085845282529182902082516080810184528154815260018201549281019290925260028101549282019290925260039091015460ff1615801560608301526112015760405162461bcd60e51b81526004016109dd9061489e565b805161121f5760405162461bcd60e51b81526004016109dd90614a53565b428160200151116112425760405162461bcd60e51b81526004016109dd90614844565b60065461124f9083612ce8565b60065561125f8484846000612ddd565b7fea44bc904f77b1be47cd5b840b00f19b7238f88d7524fa5a86629282bfe6bcc5848484604051611292939291906145ea565b60405180910390a150505050565b6001600160a01b0382166000908152600d60209081526040808320805482518185028101850190935280835284938301828280156112fd57602002820191906000526020600020905b8154815260200190600101908083116112e9575b50505050509050805160001415611318576000915050610fbe565b60005b81518110156113555761134b61134483838151811061133657fe5b602002602001015186611409565b8490612ce8565b925060010161131b565b505092915050565b6013602052600090815260409020546001600160a01b031681565b60126020526000908152604090205460ff1681565b600b60209081526000928352604080842090915290825290208054600182015460028301546003909301549192909160ff1684565b60145461010090046001600160a01b031681565b60005460ff1681565b600c6020526000908152604090208054600182015460028301546003909301549192909160ff1684565b6000828152600a6020526040812081908190611425908561373f565b915091508161143957600092505050610fbe565b6000611458610c6b610c668460400151886130e090919063ffffffff16565b9050611478670de0b6b3a764000082846000015113610c96576000610ca2565b9695505050505050565b60005461010090046001600160a01b031681565b61149f33610fa4565b6114da5760405162461bcd60e51b8152600401808060200182810382526022815260200180614b2f6022913960400191505060405180910390fd5b610bda600080516020614be383398151915282610fec565b6001600160a01b0381166000908152600d602090815260408083208054825181850281018501909352808352849383018282801561154f57602002820191906000526020600020905b81548152602001906001019080831161153b575b5050505050905080516000141561156a57600091505061091f565b60005b815181101561159f5761159561134483838151811061158857fe5b6020026020010151611fc6565b925060010161156d565b5050919050565b600190565b6115b433610fa4565b6115ef5760405162461bcd60e51b8152600401808060200182810382526022815260200180614b2f6022913960400191505060405180910390fd5b6001600160a01b038116611645576040805162461bcd60e51b815260206004820152601860248201527741636365737369626c653a207a65726f206164647265737360401b604482015290519081900360640190fd5b336001600160a01b038216141561169c576040805162461bcd60e51b815260206004820152601660248201527520b1b1b2b9b9b4b136329d1039b0b6b29030b236b4b760511b604482015290519081900360640190fd5b6116b4600080516020614be383398151915282610fec565b610bda600080516020614be383398151915233611053565b600080516020614be383398151915281565b6003546001600160a01b031681565b600981815481106116fd57600080fd5b600091825260209091206003909102018054600182015460029092015490925083565b61172933610fa4565b6117645760405162461bcd60e51b8152600401808060200182810382526022815260200180614b2f6022913960400191505060405180910390fd5b6001600160a01b03811661178a5760405162461bcd60e51b81526004016109dd90614900565b806001600160a01b031663842a3bdd6040518163ffffffff1660e01b815260040160206040518083038186803b1580156117c357600080fd5b505afa1580156117d7573d6000803e3d6000fd5b505050506040513d601f19601f820116820180604052508101906117fb91906144f9565b6118175760405162461bcd60e51b81526004016109dd906147cf565b6003546040516370a0823160e01b81526001600160a01b039091169063a9059cbb90839083906370a08231906118519030906004016145bd565b60206040518083038186803b15801561186957600080fd5b505afa15801561187d573d6000803e3d6000fd5b505050506040513d601f19601f820116820180604052508101906118a191906145a5565b6040518363ffffffff1660e01b81526004016118be9291906145d1565b602060405180830381600087803b1580156118d857600080fd5b505af11580156118ec573d6000803e3d6000fd5b505050506040513d601f19601f8201168201806040525081019061104f91906144f9565b60008281526010602052604081206119289083613837565b9392505050565b60008281526010602052604081206119289083613843565b6009546000906119595750600061091f565b60008061196760098561373f565b915091508161197b5760009250505061091f565b6119858185612fe1565b905060006119a3610c668360400151876130e090919063ffffffff16565b82602001510290506119d4670de0b6b3a7640000828460000151136119c9576000610ca2565b835183900390612d9b565b95945050505050565b6119e633610fa4565b611a215760405162461bcd60e51b8152600401808060200182810382526022815260200180614b2f6022913960400191505060405180910390fd5b600255565b6000908152600c60205260409020805460018201546002909201549092565b600754600114611a675760405162461bcd60e51b81526004016109dd90614a21565b600060075560145461010090046001600160a01b03163314611abe576040805162461bcd60e51b81526020600482015260146024820152600080516020614ba2833981519152604482015290519081900360640190fd5b6001600160a01b0381166000908152600d602052604090208054611ae25750611be3565b60005b8154811015611be0576000600c6000848481548110611b0057fe5b6000918252602080832090910154835282810193909352604091820190208151608081018352815481526001820154938101939093526002810154918301919091526003015460ff161580156060830181905291925090611b7757506000838381548110611b6a57fe5b9060005260206000200154115b8015611b87575060008160400151115b8015611b935750805115155b8015611ba3575060008160200151115b8015611bb25750428160200151105b15611bd757611bd784848481548110611bc757fe5b9060005260206000200154613858565b50600101611ae5565b50505b506001600755565b600054600160a81b900460ff1681565b600081565b611c0933610fa4565b611c445760405162461bcd60e51b8152600401808060200182810382526022815260200180614b2f6022913960400191505060405180910390fd5b6001600160a01b038116611c6a5760405162461bcd60e51b81526004016109dd90614900565b6014546001600160a01b03828116610100909204161415611c9d5760405162461bcd60e51b81526004016109dd906149cb565b601480546001600160a01b0390921661010002610100600160a81b0319909216919091179055565b600d6020528160005260406000208181548110611ce157600080fd5b90600052602060002001600091509150505481565b61104f81613a21565b60045481565b60145460ff1681565b60055481565b60145461010090046001600160a01b03163314611d66576040805162461bcd60e51b81526020600482015260146024820152600080516020614ba2833981519152604482015290519081900360640190fd5b60008211611d865760405162461bcd60e51b81526004016109dd906148c9565b60008111611da65760405162461bcd60e51b81526004016109dd90614994565b6001600160a01b0384166000908152600b6020908152604080832086845282529182902082516080810184528154815260018201549281019290925260028101549282019290925260039091015460ff161580156060830152611e1b5760405162461bcd60e51b81526004016109dd9061489e565b8051611e395760405162461bcd60e51b81526004016109dd90614a53565b42816020015111611e5c5760405162461bcd60e51b81526004016109dd90614844565b6000611e81611e7660015485612d4290919063ffffffff16565b602084015190612ce8565b600154909150611e9590610a568382612d9b565b905060025442820310611eba5760405162461bcd60e51b81526004016109dd90614798565b80826020015110611edd5760405162461bcd60e51b81526004016109dd9061495d565b6000826040015111611f015760405162461bcd60e51b81526004016109dd90614768565b600654611f0e9085612ce8565b600655600554611f1e9084612ce8565b600555611f2d86868684612ddd565b7fea44bc904f77b1be47cd5b840b00f19b7238f88d7524fa5a86629282bfe6bcc5868686604051611f60939291906145ea565b60405180910390a17fb8596b0e78133666b86648f60233cc2d078144d06df7874ea9f612a3ccc3e2fb868683604051611f9b939291906145ea565b60405180910390a1505050505050565b6011602052600090815260409020546001600160a01b031681565b6000818152600a602052604081205480611fe457600091505061091f565b6000838152600a602052604081208054600019840190811061200257fe5b906000526020600020906003020160405180606001604052908160008201548152602001600182015481526020016002820154815250509050600061205a610c6b610c668460400151426130e090919063ffffffff16565b90506119d4670de0b6b3a764000082846000015113610c96576000610ca2565b60075460011461209c5760405162461bcd60e51b81526004016109dd90614a21565b600060075560145461010090046001600160a01b031633146120f3576040805162461bcd60e51b81526020600482015260146024820152600080516020614ba2833981519152604482015290519081900360640190fd5b600081116121135760405162461bcd60e51b81526004016109dd906147f5565b61211d8282613858565b50506001600755565b6001600160a01b0381166000908152600d602090815260409182902080548351818402810184019094528084526060939283018282801561218657602002820191906000526020600020905b815481526020019060010190808311612172575b50505050509050919050565b6008546060906000906001600160401b03811180156121b057600080fd5b506040519080825280602002602001820160405280156121da578160200160208202803683370190505b5090506000805b600854811015612251576000612217600883815481106121fd57fe5b6000918252602090912001546001600160a01b031661272c565b805190915015612248578280600101935050600184838151811061223757fe5b911515602092830291909101909101525b506001016121e1565b506000816001600160401b038111801561226a57600080fd5b50604051908082528060200260200182016040528015612294578160200160208202803683370190505b5090506000805b60085481101561231d578481815181106122b157fe5b60200260200101511561231557600881815481106122cb57fe5b600091825260209091200154835160018401936001600160a01b0390921691859181106122f457fe5b60200260200101906001600160a01b031690816001600160a01b0316815250505b60010161229b565b5090935050505090565b6060600a6000838152602001908152602001600020805480602002602001604051908101604052809291908181526020016000905b828210156123ac578382906000526020600020906003020160405180606001604052908160008201548152602001600182015481526020016002820154815250508152602001906001019061235c565b505050509050919050565b600f6020526000908152604090205460ff1681565b6060600880548060200260200160405190810160405280929190818152602001828054801561242457602002820191906000526020600020905b81546001600160a01b03168152600190910190602001808311612406575b5050505050905090565b6000818152601060205260408120610fbe90613c2f565b60065481565b7ff0887ba65ee2024ea881d91b74c2450ef19e1557f03bed3ea9f16b037cbe2dc981565b60008281526010602052604090206002015461248d90610613613669565b6110aa5760405162461bcd60e51b8152600401808060200182810382526030815260200180614b726030913960400191505060405180910390fd5b60145460609061010090046001600160a01b0316331461251d576040805162461bcd60e51b81526020600482015260146024820152600080516020614ba2833981519152604482015290519081900360640190fd5b6001600160a01b0382166000908152600d602052604081205490805b828110156125fb576001600160a01b0385166000908152600d6020526040812080548390811061256557fe5b60009182526020808320909101546001600160a01b0389168352600b8252604080842082855283529283902083516080810185528154815260018201549381018490526002820154948101949094526003015460ff1615156060840152925042108015906125d7575060008160400151115b80156125e557506060810151155b156125f1576001909301925b5050600101612539565b506000816001600160401b038111801561261457600080fd5b5060405190808252806020026020018201604052801561263e578160200160208202803683370190505b5090506000915060005b83811015612723576001600160a01b0386166000908152600d6020526040812080548390811061267457fe5b60009182526020808320909101546001600160a01b038a168352600b8252604080842082855283529283902083516080810185528154815260018201549381018490526002820154948101949094526003015460ff1615156060840152925042108015906126e6575060008160400151115b80156126f457506060810151155b15612719578184868060010197508151811061270c57fe5b6020026020010181815250505b5050600101612648565b50949350505050565b6001600160a01b0381166000908152600d6020526040812054606091805b828110156127ed576001600160a01b0385166000908152600d6020526040812080548390811061277657fe5b60009182526020808320909101546001600160a01b0389168352600b8252604080842082855283529283902083516080810185528154815260018201549381018490526002820154948101949094526003015460ff161515606084015292504210156127e3576001909301925b505060010161274a565b506000816001600160401b038111801561280657600080fd5b50604051908082528060200260200182016040528015612830578160200160208202803683370190505b5090506000915060005b83811015612723576001600160a01b0386166000908152600d6020526040812080548390811061286657fe5b60009182526020808320909101546001600160a01b038a168352600b8252604080842082855283529283902083516080810185528154815260018201549381018490526002820154948101949094526003015460ff161515606084015292504210156128ec57818486806001019750815181106128df57fe5b6020026020010181815250505b505060010161283a565b6003546040516370a0823160e01b81526000916001600160a01b0316906370a08231906129279030906004016145bd565b60206040518083038186803b15801561293f57600080fd5b505afa158015612953573d6000803e3d6000fd5b505050506040513d601f19601f8201168201806040525081019061297791906145a5565b905090565b6001600160a01b0381166000908152600d602052604081205481805b8281101561091a576001600160a01b0385166000908152600d602052604081208054839081106129c457fe5b60009182526020808320909101546001600160a01b0389168352600b8252604080842082855283529283902083516080810185528154815260018201549381018490526002820154948101949094526003015460ff161515606084015292504210801590612a36575060008160400151115b8015612a4457506060810151155b15612a5c576040810151612a59908590612ce8565b93505b5050600101612998565b60088181548110612a7657600080fd5b6000918252602090912001546001600160a01b0316905081565b60145461010090046001600160a01b03163314612ae2576040805162461bcd60e51b81526020600482015260146024820152600080516020614ba2833981519152604482015290519081900360640190fd5b612aed83838361111a565b505050565b600e6020526000908152604090205481565b60145461010090046001600160a01b03163314612b56576040805162461bcd60e51b81526020600482015260146024820152600080516020614ba2833981519152604482015290519081900360640190fd5b60008111612b765760405162461bcd60e51b81526004016109dd90614994565b600554612b839082612ce8565b6005556001600160a01b0383166000908152600b602090815260408083208584528252808320815160808101835281548152600180830154948201949094526002820154928101929092526003015460ff16151560608201529054909190612bf090611e76908590612d42565b600154909150612c0490610a568382612d9b565b905060025442820310612c295760405162461bcd60e51b81526004016109dd90614798565b42826020015111612c4c5760405162461bcd60e51b81526004016109dd90614926565b80826020015110612c6f5760405162461bcd60e51b81526004016109dd9061495d565b6000826040015111612c935760405162461bcd60e51b81526004016109dd90614768565b612ca08585600084612ddd565b7fb8596b0e78133666b86648f60233cc2d078144d06df7874ea9f612a3ccc3e2fb858583604051612cd3939291906145ea565b60405180910390a15050505050565b60015481565b600082820183811015611928576040805162461bcd60e51b815260206004820152601b60248201527f536166654d6174683a206164646974696f6e206f766572666c6f770000000000604482015290519081900360640190fd5b600082612d5157506000610fbe565b82820282848281612d5e57fe5b04146119285760405162461bcd60e51b8152600401808060200182810382526021815260200180614bc26021913960400191505060405180910390fd5b600061192883836040518060400160405280601a81526020017f536166654d6174683a206469766973696f6e206279207a65726f000000000000815250613c3a565b600754600114612dff5760405162461bcd60e51b81526004016109dd90614a21565b600060078190556001600160a01b0385168152600b602090815260408083208684528252808320815160808082018452825482526001830154828601908152600284015483860190815260039094015460ff1615156060808501919091528551928301865283518352905195820195909552915192820183905292810193909352909190612e8d9085612ce8565b60408201528215612ea057602081018390525b8051612eaa574281525b612eb48183613cdc565b6001600160a01b0386166000908152600b60209081526040808320888452825280832084518155828501805160018084019190915583870180516002808601919091556060890180516003968701805491151560ff19928316179055600c9098529588208951815593519284019290925551828201819055935191909201805491151591909416179092559054612f5c91610c669190610ca290670de0b6b3a7640000612d42565b90506000612f7d610f12610c664286602001516130e090919063ffffffff16565b6040805160608101825291825260208083019485524283830190815260009a8b52600a8252918a20805460018181018355918c5291909a20925160039091029092019182559251818901559151600290920191909155505050600792909255505050565b612fe96142c0565b600154604084015160009161300291610a569082612d9b565b90505b8281146130d85761302a61302460015483612ce890919063ffffffff16565b84613eac565b6000818152600e602052604080822054908701519293509161305d90610c66906130559086906130e0565b600154613eac565b905061308161307982886020015161316a90919063ffffffff16565b875190613213565b865260208601516130929083613ec2565b602087015285516000126130a75760006130aa565b85515b865260208601516000126130bf5760006130c5565b85602001515b6020870152505060408401819052613005565b509192915050565b600061192883836040518060400160405280601e81526020017f536166654d6174683a207375627472616374696f6e206f766572666c6f770000815250613f27565b6000600160ff1b82106131665760405162461bcd60e51b8152600401808060200182810382526028815260200180614c2a6028913960400191505060405180910390fd5b5090565b60008261317957506000610fbe565b8260001914801561318d5750600160ff1b82145b156131c95760405162461bcd60e51b8152600401808060200182810382526027815260200180614c036027913960400191505060405180910390fd5b828202828482816131d657fe5b05146119285760405162461bcd60e51b8152600401808060200182810382526027815260200180614c036027913960400191505060405180910390fd5b60008183038183128015906132285750838113155b8061323d575060008312801561323d57508381135b6119285760405162461bcd60e51b8152600401808060200182810382526024815260200180614c526024913960400191505060405180910390fd5b6132806142c0565b6009544290156132da5760098054600019810190811061329c57fe5b9060005260206000209060030201604051806060016040529081600082015481526020016001820154815260200160028201548152505091506132fa565b604051806060016040528060008152602001600081526020018281525091505b600154604083015160009161331391610a569082612d9b565b90505b81811461346c5761333b61333560015483612ce890919063ffffffff16565b83613eac565b6000818152600e602052604080822054908601519293509161336690610c66906130559086906130e0565b905061338a61338282876020015161316a90919063ffffffff16565b865190613213565b8552602085015161339b9083613ec2565b602086015284516000126133b05760006133b3565b84515b855260208501516000126133c85760006133ce565b84602001515b60208601908152604086018481526009805460018101825560009190915287517f6e1540171b6c0c960b71a7020d9f60077f6af931a8bbf590da0223dacf75c7af60039092029182015591517f6e1540171b6c0c960b71a7020d9f60077f6af931a8bbf590da0223dacf75c7b0830155517f6e1540171b6c0c960b71a7020d9f60077f6af931a8bbf590da0223dacf75c7b190910155506133169050565b505090565b604080516060808201835260008083526020808401829052838501829052845192830185528183528281018290529382015291850151839290831080156134bc575060008660400151115b15613514576134e9610c66600254610ca2670de0b6b3a76400008a60400151612d4290919063ffffffff16565b60208084019190915286015161350790610c6b90610c6690866130e0565b8252602086015160408301525b82856020015111801561352b575060008560400151115b1561358e57613558610c66600254610ca2670de0b6b3a76400008960400151612d4290919063ffffffff16565b6020808301919091528501516135819061357690610c6690866130e0565b60208301519061316a565b8152602085015160408201525b6000613598613278565b825184519192506135b4916135ac91613213565b825190613ec2565b8152602080830151908401516135d9916135ce9190613213565b602083015190613ec2565b602082015280516000126135ee5760006135f1565b80515b8152602081015160001261360657600061360c565b80602001515b602082015260098054829190600019810190811061362657fe5b9060005260206000209060030201600082015181600001556020820151816001015560408201518160020155905050613660838387613f81565b50505050505050565b3390565b60008281526010602052604090206136859082614044565b1561104f57613692613669565b6001600160a01b0316816001600160a01b0316837f2f8788117e7eff1d82e926ec794901d17c78024a50270940304540a733656f0d60405160405180910390a45050565b60008281526010602052604090206136ee9082614059565b1561104f576136fb613669565b6001600160a01b0316816001600160a01b0316837ff6391f5c32d9c69d2a47ea670b442974b53935d1edc7fd64eb21e047a839171b60405160405180910390a45050565b60006137496142c0565b83546137585760009150613830565b83546000905b808260010110156137b257600061377a6002610ca28585612ce8565b90508587828154811061378957fe5b906000526020600020906003020160020154116137a8578092506137ac565b8091505b5061375e565b848683815481106137bf57fe5b906000526020600020906003020160020154116138295760018683815481106137e457fe5b90600052602060002090600302018060405180606001604052908160008201548152602001600182015481526020016002820154815250509050935093505050613830565b6000935050505b9250929050565b6000611928838361406e565b6000611928836001600160a01b0384166140d2565b6001600160a01b0382166000908152600b6020908152604080832084845282529182902082516080810184528154815260018201549281019290925260028101549282019290925260039091015460ff1615801560608301526138cd5760405162461bcd60e51b81526004016109dd90614873565b80516138eb5760405162461bcd60e51b81526004016109dd90614a53565b4281602001511061390e5760405162461bcd60e51b81526004016109dd906149f1565b60008160400151116139325760405162461bcd60e51b81526004016109dd90614739565b6040805160808101825260008082526020820181905291810191909152600160608201526139608183613cdc565b6040808301516001600160a01b0386166000908152600b60209081528382208783528152838220855181558186018051600180840191909155878701805160028086019190915560608a0180516003968701805491151560ff19928316179055600c909752968990208a51815593519284019290925551908201559251920180549215159290911691909117905590517ff1206247bdd5e2e0cfc00bea4cf05fb8dc479ebee686f9549043179cc7013b3090612cd3908790879085906145ea565b613a296142c0565b600954429015613a8357600980546000198101908110613a4557fe5b906000526020600020906003020160405180606001604052908160008201548152602001600182015481526020016002820154815250509150613aa3565b604051806060016040528060008152602001600081526020018281525091505b600080613ac5600154610a566001548760400151612d9b90919063ffffffff16565b90505b828114158015613ad757508482105b15613c2757613af461302460015483612ce890919063ffffffff16565b6000818152600e6020526040808220549087015192935091613b1f90610c66906130559086906130e0565b9050613b3b61307982886020015161316a90919063ffffffff16565b86526020860151613b4c9083613ec2565b60208701528551600012613b61576000613b64565b85515b86526020860151600012613b79576000613b7f565b85602001515b6020870190815260408701848152600980546001808201835560009290925289517f6e1540171b6c0c960b71a7020d9f60077f6af931a8bbf590da0223dacf75c7af60039092029182015592517f6e1540171b6c0c960b71a7020d9f60077f6af931a8bbf590da0223dacf75c7b084015590517f6e1540171b6c0c960b71a7020d9f60077f6af931a8bbf590da0223dacf75c7b190920191909155939093019250613ac89050565b505050919050565b6000610fbe826140ea565b60008183613cc65760405162461bcd60e51b81526004018080602001828103825283818151815260200191508051906020019080838360005b83811015613c8b578181015183820152602001613c73565b50505050905090810190601f168015613cb85780820380516001836020036101000a031916815260200191505b509250505060405180910390fd5b506000838581613cd257fe5b0495945050505050565b60408051606080820183526000808352602080840182905283850182905284519283018552818352828101829052938201529184015142929083108015613d27575060008560400151115b15613d7f57613d54610c66600254610ca2670de0b6b3a76400008960400151612d4290919063ffffffff16565b602080840191909152850151613d7290610c6b90610c6690866130e0565b8252602085015160408301525b828460200151118015613d96575060008460400151115b15613dee57613dc3610c66600254610ca2670de0b6b3a76400008860400151612d4290919063ffffffff16565b602080830191909152840151613de19061357690610c6690866130e0565b8152602084015160408201525b6000613df8613278565b82518451919250613e0c916135ac91613213565b815260208083015190840151613e26916135ce9190613213565b60208201528051600012613e3b576000613e3e565b80515b81526020810151600012613e53576000613e59565b80602001515b6020820152600980548291906000198101908110613e7357fe5b9060005260206000209060030201600082015181600001556020820151816001015560408201518160020155905050610f8183836140ee565b6000818310613ebb5781611928565b5090919050565b6000828201818312801590613ed75750838112155b80613eec5750600083128015613eec57508381125b6119285760405162461bcd60e51b8152600401808060200182810382526021815260200180614b516021913960400191505060405180910390fd5b60008184841115613f795760405162461bcd60e51b8152602060048201818152835160248401528351909283926044909101919085019080838360008315613c8b578181015183820152602001613c73565b505050900390565b6040808401516000908152600e602052818120548483018051835292909120549151909190831015613ff7576020840151613fbd908290613ec2565b9050846040015184604001511415613fe2576020850151613fdf908290613213565b90505b6040808501516000908152600e602052208190555b828560400151118015614011575083604001518560400151115b1561403d576020850151614026908390613213565b6040808701516000908152600e6020522081905591505b5050505050565b6000611928836001600160a01b0384166141b0565b6000611928836001600160a01b0384166141fa565b815460009082106140b05760405162461bcd60e51b8152600401808060200182810382526022815260200180614ade6022913960400191505060405180910390fd5b8260000182815481106140bf57fe5b9060005260206000200154905092915050565b60009081526001919091016020526040902054151590565b5490565b6040808301516000908152600e60205281812054838301805183529290912054915190919042101561416457602083015161412a908290613ec2565b905083604001518360400151141561414f57602084015161414c908290613213565b90505b6040808401516000908152600e602052208190555b42846040015111801561417e575082604001518460400151115b156141aa576020840151614193908390613213565b6040808601516000908152600e6020522081905591505b50505050565b60006141bc83836140d2565b6141f257508154600181810184556000848152602080822090930184905584548482528286019093526040902091909155610fbe565b506000610fbe565b600081815260018301602052604081205480156142b6578354600019808301919081019060009087908390811061422d57fe5b906000526020600020015490508087600001848154811061424a57fe5b60009182526020808320909101929092558281526001898101909252604090209084019055865487908061427a57fe5b60019003818190600052602060002001600090559055866001016000878152602001908152602001600020600090556001945050505050610fbe565b6000915050610fbe565b60405180606001604052806000815260200160008152602001600081525090565b80356001600160a01b038116811461091f57600080fd5b600082601f830112614308578081fd5b8135602061431d61431883614ac0565b614a9d565b8281528181019085830183850287018401881015614339578586fd5b855b858110156143575781358452928401929084019060010161433b565b5090979650505050505050565b600060208284031215614375578081fd5b611928826142e1565b60008060408385031215614390578081fd5b614399836142e1565b946020939093013593505050565b6000806000606084860312156143bb578081fd5b6143c4846142e1565b95602085013595506040909401359392505050565b600080600080608085870312156143ee578081fd5b6143f7856142e1565b966020860135965060408601359560600135945092505050565b60008060008060808587031215614426578384fd5b84356001600160401b038082111561443c578586fd5b818701915087601f83011261444f578586fd5b8135602061445f61431883614ac0565b82815281810190858301838502870184018d101561447b578a8bfd5b8a96505b848710156144a457614490816142e1565b83526001969096019591830191830161447f565b50985050880135925050808211156144ba578485fd5b6144c6888389016142f8565b945060408701359150808211156144db578384fd5b506144e8878288016142f8565b949793965093946060013593505050565b60006020828403121561450a578081fd5b81518015158114611928578182fd5b60006020828403121561452a578081fd5b5035919050565b60008060408385031215614543578182fd5b82359150614553602084016142e1565b90509250929050565b6000806040838503121561456e578182fd5b50508035926020909101359150565b60006020828403121561458e578081fd5b81356001600160e01b031981168114611928578182fd5b6000602082840312156145b6578081fd5b5051919050565b6001600160a01b0391909116815260200190565b6001600160a01b03929092168252602082015260400190565b6001600160a01b039390931683526020830191909152604082015260600190565b6001600160a01b0394909416845260208401929092526040830152606082015260800190565b6020808252825182820181905260009190848201906040850190845b818110156146725783516001600160a01b03168352928401929184019160010161464d565b50909695505050505050565b602080825282518282018190526000919060409081850190868401855b828110156146ca578151805185528681015187860152850151858501526060909301929085019060010161469b565b5091979650505050505050565b6020808252825182820181905260009190848201906040850190845b81811015614672578351835292840192918401916001016146f3565b901515815260200190565b90815260200190565b9283526020830191909152604082015260600190565b6020808252601590820152744e6f20616d6f756e7420746f20776974686472617760581b604082015260600190565b6020808252601690820152754e6f206578697374696e67206c6f636b656420544f5360501b604082015260600190565b6020808252601a908201527f4d617820756e6c6f636b2074696d652069732033207965617273000000000000604082015260600190565b6020808252600c908201526b6e6f7420747265617375727960a01b604082015260600190565b6020808252600f908201526e5f6c6f636b4964206973207a65726f60881b604082015260600190565b6020808252600c908201526b0eee4dedcce40d8cadccee8d60a31b604082015260600190565b602080825260159082015274131bd8dac81d1a5b59481a5cc8199a5b9a5cda1959605a1b604082015260600190565b60208082526011908201527020b63932b0b23c903bb4ba34323930bbb760791b604082015260600190565b6020808252601190820152702637b1b59034b9903bb4ba34323930bbb760791b604082015260600190565b6020808252601f908201527f56616c7565206c6f636b65642073686f756c64206265206e6f6e2d7a65726f00604082015260600190565b6020808252600c908201526b7a65726f206164647265737360a01b604082015260600190565b6020808252601a908201527f4c6f636b2074696d6520616c72656164792066696e6973686564000000000000604082015260600190565b6020808252601d908201527f4e6577206c6f636b2074696d65206d7573742062652067726561746572000000604082015260600190565b6020808252601e908201527f556e6c6f636b20706572696f64206c657373207468616e2061207765656b0000604082015260600190565b6020808252600c908201526b73616d65206164647265737360a01b604082015260600190565b602080825260169082015275131bd8dac81d1a5b59481b9bdd08199a5b9a5cda195960521b604082015260600190565b6020808252601890820152774c6f636b496420697320616c726561647920696e2075736560401b604082015260600190565b602080825260139082015272131bd8dac8191bd95cc81b9bdd08195e1a5cdd606a1b604082015260600190565b938452602084019290925260408301521515606082015260800190565b6040518181016001600160401b0381118282101715614ab857fe5b604052919050565b60006001600160401b03821115614ad357fe5b506020908102019056fe456e756d657261626c655365743a20696e646578206f7574206f6620626f756e6473416363657373436f6e74726f6c3a2073656e646572206d75737420626520616e2061646d696e20746f206772616e7441636365737369626c653a2043616c6c6572206973206e6f7420616e2061646d696e5369676e6564536166654d6174683a206164646974696f6e206f766572666c6f77416363657373436f6e74726f6c3a2073656e646572206d75737420626520616e2061646d696e20746f207265766f6b6563616c6c6572206973206e6f74207374616b6572000000000000000000000000536166654d6174683a206d756c7469706c69636174696f6e206f766572666c6f77df8b4c520ffe197c5343c6f5aec59570151ef9a492f2c624fd45ddde6135ec425369676e6564536166654d6174683a206d756c7469706c69636174696f6e206f766572666c6f7753616665436173743a2076616c756520646f65736e27742066697420696e20616e20696e743235365369676e6564536166654d6174683a207375627472616374696f6e206f766572666c6f77416363657373436f6e74726f6c3a2063616e206f6e6c792072656e6f756e636520726f6c657320666f722073656c66a264697066735822122053378e8e14da7855fef46a5e9ce98dbb3edbcd946a741110146af964d6e17a6164736f6c63430007060033",
  "linkReferences": {},
  "deployedLinkReferences": {}
}