{
  "_format": "hh-sol-artifact-1",
  "contractName": "StakeTONUpgrade2",
  "sourceName": "contracts/stake/StakeTONUpgrade2.sol",
  "abi": [
    {
      "inputs": [],
      "stateMutability": "nonpayable",
      "type": "constructor"
    },
    {
      "anonymous": false,
      "inputs": [
        {
          "indexed": true,
          "internalType": "address",
          "name": "to",
          "type": "address"
        },
        {
          "indexed": false,
          "internalType": "uint256",
          "name": "amount",
          "type": "uint256"
        },
        {
          "indexed": false,
          "internalType": "uint256",
          "name": "claimBlock",
          "type": "uint256"
        }
      ],
      "name": "Claimed",
      "type": "event"
    },
    {
      "anonymous": false,
      "inputs": [
        {
          "indexed": false,
          "internalType": "address",
          "name": "caller",
          "type": "address"
        },
        {
          "indexed": false,
          "internalType": "uint256",
          "name": "amountIn",
          "type": "uint256"
        },
        {
          "indexed": false,
          "internalType": "uint256",
          "name": "amountOut",
          "type": "uint256"
        }
      ],
      "name": "ExchangedWTONtoTOS",
      "type": "event"
    },
    {
      "anonymous": false,
      "inputs": [
        {
          "indexed": true,
          "internalType": "bytes32",
          "name": "role",
          "type": "bytes32"
        },
        {
          "indexed": true,
          "internalType": "bytes32",
          "name": "previousAdminRole",
          "type": "bytes32"
        },
        {
          "indexed": true,
          "internalType": "bytes32",
          "name": "newAdminRole",
          "type": "bytes32"
        }
      ],
      "name": "RoleAdminChanged",
      "type": "event"
    },
    {
      "anonymous": false,
      "inputs": [
        {
          "indexed": true,
          "internalType": "bytes32",
          "name": "role",
          "type": "bytes32"
        },
        {
          "indexed": true,
          "internalType": "address",
          "name": "account",
          "type": "address"
        },
        {
          "indexed": true,
          "internalType": "address",
          "name": "sender",
          "type": "address"
        }
      ],
      "name": "RoleGranted",
      "type": "event"
    },
    {
      "anonymous": false,
      "inputs": [
        {
          "indexed": true,
          "internalType": "bytes32",
          "name": "role",
          "type": "bytes32"
        },
        {
          "indexed": true,
          "internalType": "address",
          "name": "account",
          "type": "address"
        },
        {
          "indexed": true,
          "internalType": "address",
          "name": "sender",
          "type": "address"
        }
      ],
      "name": "RoleRevoked",
      "type": "event"
    },
    {
      "anonymous": false,
      "inputs": [
        {
          "indexed": false,
          "internalType": "address",
          "name": "registry",
          "type": "address"
        }
      ],
      "name": "SetRegistry",
      "type": "event"
    },
    {
      "anonymous": false,
      "inputs": [
        {
          "indexed": false,
          "internalType": "address",
          "name": "layer2",
          "type": "address"
        }
      ],
      "name": "SetTokamakLayer2",
      "type": "event"
    },
    {
      "anonymous": false,
      "inputs": [
        {
          "indexed": true,
          "internalType": "address",
          "name": "to",
          "type": "address"
        },
        {
          "indexed": false,
          "internalType": "uint256",
          "name": "amount",
          "type": "uint256"
        }
      ],
      "name": "Staked",
      "type": "event"
    },
    {
      "anonymous": false,
      "inputs": [
        {
          "indexed": false,
          "internalType": "address",
          "name": "layer2",
          "type": "address"
        },
        {
          "indexed": false,
          "internalType": "uint256",
          "name": "rn",
          "type": "uint256"
        },
        {
          "indexed": false,
          "internalType": "bool",
          "name": "receiveTON",
          "type": "bool"
        }
      ],
      "name": "TokamakProcessedUnStaking",
      "type": "event"
    },
    {
      "anonymous": false,
      "inputs": [
        {
          "indexed": false,
          "internalType": "address",
          "name": "layer2",
          "type": "address"
        },
        {
          "indexed": false,
          "internalType": "uint256",
          "name": "amount",
          "type": "uint256"
        }
      ],
      "name": "TokamakRequestedUnStaking",
      "type": "event"
    },
    {
      "anonymous": false,
      "inputs": [
        {
          "indexed": false,
          "internalType": "address",
          "name": "layer2",
          "type": "address"
        }
      ],
      "name": "TokamakRequestedUnStakingAll",
      "type": "event"
    },
    {
      "anonymous": false,
      "inputs": [
        {
          "indexed": false,
          "internalType": "address",
          "name": "layer2",
          "type": "address"
        },
        {
          "indexed": false,
          "internalType": "uint256",
          "name": "amount",
          "type": "uint256"
        }
      ],
      "name": "TokamakStaked",
      "type": "event"
    },
    {
      "anonymous": false,
      "inputs": [
        {
          "indexed": true,
          "internalType": "address",
          "name": "to",
          "type": "address"
        },
        {
          "indexed": false,
          "internalType": "uint256",
          "name": "tonAmount",
          "type": "uint256"
        },
        {
          "indexed": false,
          "internalType": "uint256",
          "name": "tosAmount",
          "type": "uint256"
        }
      ],
      "name": "Withdrawal",
      "type": "event"
    },
    {
      "inputs": [],
      "name": "ADMIN_ROLE",
      "outputs": [
        {
          "internalType": "bytes32",
          "name": "",
          "type": "bytes32"
        }
      ],
      "stateMutability": "view",
      "type": "function"
    },
    {
      "inputs": [],
      "name": "BURNER_ROLE",
      "outputs": [
        {
          "internalType": "bytes32",
          "name": "",
          "type": "bytes32"
        }
      ],
      "stateMutability": "view",
      "type": "function"
    },
    {
      "inputs": [],
      "name": "DEFAULT_ADMIN_ROLE",
      "outputs": [
        {
          "internalType": "bytes32",
          "name": "",
          "type": "bytes32"
        }
      ],
      "stateMutability": "view",
      "type": "function"
    },
    {
      "inputs": [],
      "name": "MINTER_ROLE",
      "outputs": [
        {
          "internalType": "bytes32",
          "name": "",
          "type": "bytes32"
        }
      ],
      "stateMutability": "view",
      "type": "function"
    },
    {
      "inputs": [],
      "name": "PROJECT_ADMIN_ROLE",
      "outputs": [
        {
          "internalType": "bytes32",
          "name": "",
          "type": "bytes32"
        }
      ],
      "stateMutability": "view",
      "type": "function"
    },
    {
      "inputs": [
        {
          "internalType": "address",
          "name": "account",
          "type": "address"
        }
      ],
      "name": "addAdmin",
      "outputs": [],
      "stateMutability": "nonpayable",
      "type": "function"
    },
    {
      "inputs": [
        {
          "internalType": "address",
          "name": "account",
          "type": "address"
        },
        {
          "internalType": "uint256",
          "name": "specificBlock",
          "type": "uint256"
        }
      ],
      "name": "canRewardAmount",
      "outputs": [
        {
          "internalType": "uint256",
          "name": "",
          "type": "uint256"
        }
      ],
      "stateMutability": "view",
      "type": "function"
    },
    {
      "inputs": [
        {
          "internalType": "address",
          "name": "_layer2",
          "type": "address"
        }
      ],
      "name": "canTokamakProcessUnStakingCount",
      "outputs": [
        {
          "internalType": "uint256",
          "name": "count",
          "type": "uint256"
        },
        {
          "internalType": "uint256",
          "name": "amount",
          "type": "uint256"
        }
      ],
      "stateMutability": "view",
      "type": "function"
    },
    {
      "inputs": [
        {
          "internalType": "address",
          "name": "_layer2",
          "type": "address"
        }
      ],
      "name": "canTokamakRequestUnStaking",
      "outputs": [
        {
          "internalType": "uint256",
          "name": "canUnStakingAmount",
          "type": "uint256"
        }
      ],
      "stateMutability": "view",
      "type": "function"
    },
    {
      "inputs": [
        {
          "internalType": "address",
          "name": "_layer2",
          "type": "address"
        }
      ],
      "name": "canTokamakRequestUnStakingAll",
      "outputs": [
        {
          "internalType": "bool",
          "name": "can",
          "type": "bool"
        }
      ],
      "stateMutability": "view",
      "type": "function"
    },
    {
      "inputs": [
        {
          "internalType": "address",
          "name": "_layer2",
          "type": "address"
        }
      ],
      "name": "canTokamakRequestUnStakingAllBlock",
      "outputs": [
        {
          "internalType": "uint256",
          "name": "_block",
          "type": "uint256"
        }
      ],
      "stateMutability": "view",
      "type": "function"
    },
    {
      "inputs": [],
      "name": "checkTokamak",
      "outputs": [],
      "stateMutability": "nonpayable",
      "type": "function"
    },
    {
      "inputs": [],
      "name": "claim",
      "outputs": [],
      "stateMutability": "nonpayable",
      "type": "function"
    },
    {
      "inputs": [],
      "name": "defiAddr",
      "outputs": [
        {
          "internalType": "address",
          "name": "",
          "type": "address"
        }
      ],
      "stateMutability": "view",
      "type": "function"
    },
    {
      "inputs": [],
      "name": "defiStatus",
      "outputs": [
        {
          "internalType": "uint256",
          "name": "",
          "type": "uint256"
        }
      ],
      "stateMutability": "view",
      "type": "function"
    },
    {
      "inputs": [],
      "name": "depositManager",
      "outputs": [
        {
          "internalType": "address",
          "name": "",
          "type": "address"
        }
      ],
      "stateMutability": "view",
      "type": "function"
    },
    {
      "inputs": [],
      "name": "endBlock",
      "outputs": [
        {
          "internalType": "uint256",
          "name": "",
          "type": "uint256"
        }
      ],
      "stateMutability": "view",
      "type": "function"
    },
    {
      "inputs": [
        {
          "internalType": "uint256",
          "name": "_amountIn",
          "type": "uint256"
        },
        {
          "internalType": "uint256",
          "name": "_amountOutMinimum",
          "type": "uint256"
        },
        {
          "internalType": "uint256",
          "name": "_deadline",
          "type": "uint256"
        },
        {
          "internalType": "uint160",
          "name": "_sqrtPriceLimitX96",
          "type": "uint160"
        },
        {
          "internalType": "uint256",
          "name": "_kind",
          "type": "uint256"
        }
      ],
      "name": "exchangeWTONtoTOS",
      "outputs": [
        {
          "internalType": "uint256",
          "name": "amountOut",
          "type": "uint256"
        }
      ],
      "stateMutability": "nonpayable",
      "type": "function"
    },
    {
      "inputs": [],
      "name": "finalBalanceTON",
      "outputs": [
        {
          "internalType": "uint256",
          "name": "",
          "type": "uint256"
        }
      ],
      "stateMutability": "view",
      "type": "function"
    },
    {
      "inputs": [],
      "name": "finalBalanceWTON",
      "outputs": [
        {
          "internalType": "uint256",
          "name": "",
          "type": "uint256"
        }
      ],
      "stateMutability": "view",
      "type": "function"
    },
    {
      "inputs": [],
      "name": "fromTokamak",
      "outputs": [
        {
          "internalType": "uint256",
          "name": "",
          "type": "uint256"
        }
      ],
      "stateMutability": "view",
      "type": "function"
    },
    {
      "inputs": [
        {
          "internalType": "bytes32",
          "name": "role",
          "type": "bytes32"
        }
      ],
      "name": "getRoleAdmin",
      "outputs": [
        {
          "internalType": "bytes32",
          "name": "",
          "type": "bytes32"
        }
      ],
      "stateMutability": "view",
      "type": "function"
    },
    {
      "inputs": [
        {
          "internalType": "bytes32",
          "name": "role",
          "type": "bytes32"
        },
        {
          "internalType": "uint256",
          "name": "index",
          "type": "uint256"
        }
      ],
      "name": "getRoleMember",
      "outputs": [
        {
          "internalType": "address",
          "name": "",
          "type": "address"
        }
      ],
      "stateMutability": "view",
      "type": "function"
    },
    {
      "inputs": [
        {
          "internalType": "bytes32",
          "name": "role",
          "type": "bytes32"
        }
      ],
      "name": "getRoleMemberCount",
      "outputs": [
        {
          "internalType": "uint256",
          "name": "",
          "type": "uint256"
        }
      ],
      "stateMutability": "view",
      "type": "function"
    },
    {
      "inputs": [],
      "name": "getUniswapInfo",
      "outputs": [
        {
          "internalType": "address",
          "name": "uniswapRouter",
          "type": "address"
        },
        {
          "internalType": "address",
          "name": "npm",
          "type": "address"
        },
        {
          "internalType": "address",
          "name": "ext",
          "type": "address"
        },
        {
          "internalType": "uint256",
          "name": "fee",
          "type": "uint256"
        },
        {
          "internalType": "address",
          "name": "uniswapRouterV2",
          "type": "address"
        }
      ],
      "stateMutability": "view",
      "type": "function"
    },
    {
      "inputs": [
        {
          "internalType": "address",
          "name": "user",
          "type": "address"
        }
      ],
      "name": "getUserStaked",
      "outputs": [
        {
          "internalType": "uint256",
          "name": "amount",
          "type": "uint256"
        },
        {
          "internalType": "uint256",
          "name": "claimedBlock",
          "type": "uint256"
        },
        {
          "internalType": "uint256",
          "name": "claimedAmount",
          "type": "uint256"
        },
        {
          "internalType": "uint256",
          "name": "releasedBlock",
          "type": "uint256"
        },
        {
          "internalType": "uint256",
          "name": "releasedAmount",
          "type": "uint256"
        },
        {
          "internalType": "uint256",
          "name": "releasedTOSAmount",
          "type": "uint256"
        },
        {
          "internalType": "bool",
          "name": "released",
          "type": "bool"
        }
      ],
      "stateMutability": "view",
      "type": "function"
    },
    {
      "inputs": [
        {
          "internalType": "bytes32",
          "name": "role",
          "type": "bytes32"
        },
        {
          "internalType": "address",
          "name": "account",
          "type": "address"
        }
      ],
      "name": "grantRole",
      "outputs": [],
      "stateMutability": "nonpayable",
      "type": "function"
    },
    {
      "inputs": [
        {
          "internalType": "bytes32",
          "name": "role",
          "type": "bytes32"
        },
        {
          "internalType": "address",
          "name": "account",
          "type": "address"
        }
      ],
      "name": "hasRole",
      "outputs": [
        {
          "internalType": "bool",
          "name": "",
          "type": "bool"
        }
      ],
      "stateMutability": "view",
      "type": "function"
    },
    {
      "inputs": [],
      "name": "infos",
      "outputs": [
        {
          "internalType": "address",
          "name": "",
          "type": "address"
        },
        {
          "internalType": "address",
          "name": "",
          "type": "address"
        },
        {
          "internalType": "uint256[3]",
          "name": "",
          "type": "uint256[3]"
        },
        {
          "internalType": "uint256",
          "name": "",
          "type": "uint256"
        },
        {
          "internalType": "uint256",
          "name": "",
          "type": "uint256"
        },
        {
          "internalType": "uint256",
          "name": "",
          "type": "uint256"
        }
      ],
      "stateMutability": "view",
      "type": "function"
    },
    {
      "inputs": [
        {
          "internalType": "address",
          "name": "account",
          "type": "address"
        }
      ],
      "name": "isAdmin",
      "outputs": [
        {
          "internalType": "bool",
          "name": "",
          "type": "bool"
        }
      ],
      "stateMutability": "view",
      "type": "function"
    },
    {
      "inputs": [],
      "name": "migratedL2",
      "outputs": [
        {
          "internalType": "bool",
          "name": "",
          "type": "bool"
        }
      ],
      "stateMutability": "view",
      "type": "function"
    },
    {
      "inputs": [],
      "name": "pauseProxy",
      "outputs": [
        {
          "internalType": "bool",
          "name": "",
          "type": "bool"
        }
      ],
      "stateMutability": "view",
      "type": "function"
    },
    {
      "inputs": [],
      "name": "paytoken",
      "outputs": [
        {
          "internalType": "address",
          "name": "",
          "type": "address"
        }
      ],
      "stateMutability": "view",
      "type": "function"
    },
    {
      "inputs": [
        {
          "internalType": "address",
          "name": "account",
          "type": "address"
        }
      ],
      "name": "removeAdmin",
      "outputs": [],
      "stateMutability": "nonpayable",
      "type": "function"
    },
    {
      "inputs": [
        {
          "internalType": "bytes32",
          "name": "role",
          "type": "bytes32"
        },
        {
          "internalType": "address",
          "name": "account",
          "type": "address"
        }
      ],
      "name": "renounceRole",
      "outputs": [],
      "stateMutability": "nonpayable",
      "type": "function"
    },
    {
      "inputs": [],
      "name": "requestNum",
      "outputs": [
        {
          "internalType": "uint256",
          "name": "",
          "type": "uint256"
        }
      ],
      "stateMutability": "view",
      "type": "function"
    },
    {
      "inputs": [
        {
          "internalType": "bytes32",
          "name": "role",
          "type": "bytes32"
        },
        {
          "internalType": "address",
          "name": "account",
          "type": "address"
        }
      ],
      "name": "revokeRole",
      "outputs": [],
      "stateMutability": "nonpayable",
      "type": "function"
    },
    {
      "inputs": [],
      "name": "rewardClaimedTotal",
      "outputs": [
        {
          "internalType": "uint256",
          "name": "",
          "type": "uint256"
        }
      ],
      "stateMutability": "view",
      "type": "function"
    },
    {
      "inputs": [],
      "name": "saleStartBlock",
      "outputs": [
        {
          "internalType": "uint256",
          "name": "",
          "type": "uint256"
        }
      ],
      "stateMutability": "view",
      "type": "function"
    },
    {
      "inputs": [],
      "name": "seigManager",
      "outputs": [
        {
          "internalType": "address",
          "name": "",
          "type": "address"
        }
      ],
      "stateMutability": "view",
      "type": "function"
    },
    {
      "inputs": [
        {
          "internalType": "address",
          "name": "_registry",
          "type": "address"
        }
      ],
      "name": "setRegistry",
      "outputs": [],
      "stateMutability": "nonpayable",
      "type": "function"
    },
    {
      "inputs": [
        {
          "internalType": "address",
          "name": "_layer2",
          "type": "address"
        }
      ],
      "name": "setTokamakLayer2",
      "outputs": [],
      "stateMutability": "nonpayable",
      "type": "function"
    },
    {
      "inputs": [],
      "name": "stakeRegistry",
      "outputs": [
        {
          "internalType": "address",
          "name": "",
          "type": "address"
        }
      ],
      "stateMutability": "view",
      "type": "function"
    },
    {
      "inputs": [],
      "name": "startBlock",
      "outputs": [
        {
          "internalType": "uint256",
          "name": "",
          "type": "uint256"
        }
      ],
      "stateMutability": "view",
      "type": "function"
    },
    {
      "inputs": [],
      "name": "swapProxy",
      "outputs": [
        {
          "internalType": "address",
          "name": "",
          "type": "address"
        }
      ],
      "stateMutability": "view",
      "type": "function"
    },
    {
      "inputs": [
        {
          "internalType": "uint256",
          "name": "amount",
          "type": "uint256"
        },
        {
          "internalType": "bool",
          "name": "toWTON",
          "type": "bool"
        }
      ],
      "name": "swapTONtoWTON",
      "outputs": [],
      "stateMutability": "nonpayable",
      "type": "function"
    },
    {
      "inputs": [],
      "name": "swappedAmountTOS",
      "outputs": [
        {
          "internalType": "uint256",
          "name": "",
          "type": "uint256"
        }
      ],
      "stateMutability": "view",
      "type": "function"
    },
    {
      "inputs": [],
      "name": "toTokamak",
      "outputs": [
        {
          "internalType": "uint256",
          "name": "",
          "type": "uint256"
        }
      ],
      "stateMutability": "view",
      "type": "function"
    },
    {
      "inputs": [],
      "name": "toUniswapWTON",
      "outputs": [
        {
          "internalType": "uint256",
          "name": "",
          "type": "uint256"
        }
      ],
      "stateMutability": "view",
      "type": "function"
    },
    {
      "inputs": [],
      "name": "tokamakLayer2",
      "outputs": [
        {
          "internalType": "address",
          "name": "",
          "type": "address"
        }
      ],
      "stateMutability": "view",
      "type": "function"
    },
    {
      "inputs": [
        {
          "internalType": "address",
          "name": "_layer2",
          "type": "address"
        }
      ],
      "name": "tokamakProcessUnStaking",
      "outputs": [],
      "stateMutability": "nonpayable",
      "type": "function"
    },
    {
      "inputs": [
        {
          "internalType": "address",
          "name": "_layer2",
          "type": "address"
        },
        {
          "internalType": "uint256",
          "name": "wtonAmount",
          "type": "uint256"
        }
      ],
      "name": "tokamakRequestUnStaking",
      "outputs": [],
      "stateMutability": "nonpayable",
      "type": "function"
    },
    {
      "inputs": [
        {
          "internalType": "address",
          "name": "_layer2",
          "type": "address"
        }
      ],
      "name": "tokamakRequestUnStakingAll",
      "outputs": [],
      "stateMutability": "nonpayable",
      "type": "function"
    },
    {
      "inputs": [
        {
          "internalType": "address",
          "name": "_layer2",
          "type": "address"
        },
        {
          "internalType": "uint256",
          "name": "stakeAmount",
          "type": "uint256"
        }
      ],
      "name": "tokamakStaking",
      "outputs": [],
      "stateMutability": "nonpayable",
      "type": "function"
    },
    {
      "inputs": [],
      "name": "token",
      "outputs": [
        {
          "internalType": "address",
          "name": "",
          "type": "address"
        }
      ],
      "stateMutability": "view",
      "type": "function"
    },
    {
      "inputs": [],
      "name": "ton",
      "outputs": [
        {
          "internalType": "address",
          "name": "",
          "type": "address"
        }
      ],
      "stateMutability": "view",
      "type": "function"
    },
    {
      "inputs": [],
      "name": "totalStakedAmount",
      "outputs": [
        {
          "internalType": "uint256",
          "name": "",
          "type": "uint256"
        }
      ],
      "stateMutability": "view",
      "type": "function"
    },
    {
      "inputs": [],
      "name": "totalStakers",
      "outputs": [
        {
          "internalType": "uint256",
          "name": "",
          "type": "uint256"
        }
      ],
      "stateMutability": "view",
      "type": "function"
    },
    {
      "inputs": [
        {
          "internalType": "address",
          "name": "newAdmin",
          "type": "address"
        }
      ],
      "name": "transferAdmin",
      "outputs": [],
      "stateMutability": "nonpayable",
      "type": "function"
    },
    {
      "inputs": [
        {
          "internalType": "address",
          "name": "",
          "type": "address"
        }
      ],
      "name": "userStaked",
      "outputs": [
        {
          "internalType": "uint256",
          "name": "amount",
          "type": "uint256"
        },
        {
          "internalType": "uint256",
          "name": "claimedBlock",
          "type": "uint256"
        },
        {
          "internalType": "uint256",
          "name": "claimedAmount",
          "type": "uint256"
        },
        {
          "internalType": "uint256",
          "name": "releasedBlock",
          "type": "uint256"
        },
        {
          "internalType": "uint256",
          "name": "releasedAmount",
          "type": "uint256"
        },
        {
          "internalType": "uint256",
          "name": "releasedTOSAmount",
          "type": "uint256"
        },
        {
          "internalType": "bool",
          "name": "released",
          "type": "bool"
        }
      ],
      "stateMutability": "view",
      "type": "function"
    },
    {
      "inputs": [],
      "name": "vault",
      "outputs": [
        {
          "internalType": "address",
          "name": "",
          "type": "address"
        }
      ],
      "stateMutability": "view",
      "type": "function"
    },
    {
      "inputs": [],
      "name": "version",
      "outputs": [
        {
          "internalType": "string",
          "name": "",
          "type": "string"
        }
      ],
      "stateMutability": "pure",
      "type": "function"
    },
    {
      "inputs": [],
      "name": "withdraw",
      "outputs": [],
      "stateMutability": "nonpayable",
      "type": "function"
    },
    {
      "inputs": [],
      "name": "withdrawFlag",
      "outputs": [
        {
          "internalType": "bool",
          "name": "",
          "type": "bool"
        }
      ],
      "stateMutability": "view",
      "type": "function"
    },
    {
      "inputs": [],
      "name": "wton",
      "outputs": [
        {
          "internalType": "address",
          "name": "",
          "type": "address"
        }
      ],
      "stateMutability": "view",
      "type": "function"
    },
    {
      "stateMutability": "payable",
      "type": "receive"
    }
  ],
  "bytecode": "0x608060405234801561001057600080fd5b50615d9c80620000216000396000f3fe6080604052600436106103525760003560e01c8063730464a9116101bd578063a91ee0dc116100f8578063dac3fc3f1161009b578063dac3fc3f1461098f578063e09974b9146109af578063e58e2747146109c4578063e6a7bc87146109d9578063f0cdfa53146109ee578063fbfa77cf14610a0e578063fc0c546a14610a23578063fd7fa46014610a38578063ff75878814610a4d57610378565b8063a91ee0dc1461089d578063acc3a939146108bd578063b2d4d6a3146108f0578063ca15c87314610905578063cc48b94714610925578063ce681ce61461093a578063d53913931461095a578063d547741f1461096f57610378565b806391d148541161016057806391d14854146107c257806392ea3b4c146107e25780639a88be2f146107f75780639d84ca351461081e578063a1f5f50e14610833578063a217fddf14610848578063a6e8670e1461085d578063a85217561461087d57610378565b8063730464a9146106d557806373c0db8d146106f557806375829def1461072357806375b238fc146107435780637df3f40c1461075857806386989038146107785780638d62d9491461078d5780639010d07c146107a257610378565b806343b0934a1161028d578063687b53be11610230578063687b53be1461060c5780636c7ac9d81461062c5780636e7cf534146106415780636ec4be90146106565780636fb7f5581461066b578063704802751461068057806371def0b3146106a057806372285326146106c057610378565b806343b0934a1461053f57806348cd4cb1146105615780634e71d92d1461057657806354fd4d501461058b578063567e98f9146105ad57806363a8fd89146105c257806367cf3e18146105d757806368304835146105f757610378565b8063248a9ca3116102f5578063248a9ca31461046b57806324d7806c1461048b578063282c51f3146104ab5780632995fa0e146104c05780632f2ff15d146104d557806336568abe146104f55780633ccfd60b1461051557806341c04d5e1461052a57610378565b806305871b781461037d578063065c4313146103a8578063083c6323146103ca5780630ac8e0f3146103df5780630ea3d9c9146103f45780631785f53c1461040957806320027275146104295780632335a6b21461043e57610378565b366103785760405162461bcd60e51b815260040161036f90615adb565b60405180910390fd5b600080fd5b34801561038957600080fd5b50610392610a73565b60405161039f9190615066565b60405180910390f35b3480156103b457600080fd5b506103c86103c3366004614c72565b610a79565b005b3480156103d657600080fd5b5061039261100c565b3480156103eb57600080fd5b50610392611012565b34801561040057600080fd5b50610392611018565b34801561041557600080fd5b506103c8610424366004614b86565b61101e565b34801561043557600080fd5b5061039261107d565b34801561044a57600080fd5b5061045e610459366004614b86565b611083565b60405161039f919061505b565b34801561047757600080fd5b50610392610486366004614d67565b611228565b34801561049757600080fd5b5061045e6104a6366004614b86565b61123d565b3480156104b757600080fd5b5061039261125d565b3480156104cc57600080fd5b506103c8611281565b3480156104e157600080fd5b506103c86104f0366004614d7f565b611406565b34801561050157600080fd5b506103c8610510366004614d7f565b61146d565b34801561052157600080fd5b506103c86114ce565b34801561053657600080fd5b50610392611c5e565b34801561054b57600080fd5b50610554611c82565b60405161039f9190614ee7565b34801561056d57600080fd5b50610392611c91565b34801561058257600080fd5b506103c8611c97565b34801561059757600080fd5b506105a0611f8f565b60405161039f919061506f565b3480156105b957600080fd5b50610392611fba565b3480156105ce57600080fd5b5061045e611fc0565b3480156105e357600080fd5b506103926105f2366004614c72565b611fc9565b34801561060357600080fd5b5061055461231f565b34801561061857600080fd5b50610392610627366004614b86565b61232e565b34801561063857600080fd5b50610554612450565b34801561064d57600080fd5b5061045e61245f565b34801561066257600080fd5b50610554612468565b34801561067757600080fd5b50610554612477565b34801561068c57600080fd5b506103c861069b366004614b86565b612486565b3480156106ac57600080fd5b506103c86106bb366004614b86565b6124e2565b3480156106cc57600080fd5b5061039261286b565b3480156106e157600080fd5b506103c86106f0366004614b86565b612871565b34801561070157600080fd5b50610715610710366004614b86565b612ad3565b60405161039f929190615bf0565b34801561072f57600080fd5b506103c861073e366004614b86565b612e27565b34801561074f57600080fd5b50610392612f48565b34801561076457600080fd5b506103c8610773366004614e2d565b612f5a565b34801561078457600080fd5b50610392613277565b34801561079957600080fd5b5061055461327d565b3480156107ae57600080fd5b506105546107bd366004614dae565b61328c565b3480156107ce57600080fd5b5061045e6107dd366004614d7f565b6132a4565b3480156107ee57600080fd5b506105546132bc565b34801561080357600080fd5b5061080c6132cb565b60405161039f96959493929190614f7f565b34801561082a57600080fd5b50610554613321565b34801561083f57600080fd5b5061045e613335565b34801561085457600080fd5b50610392613345565b34801561086957600080fd5b506103c8610878366004614b86565b61334a565b34801561088957600080fd5b50610392610898366004614b86565b613426565b3480156108a957600080fd5b506103c86108b8366004614b86565b613524565b3480156108c957600080fd5b506108dd6108d8366004614b86565b6135ec565b60405161039f9796959493929190615bfe565b3480156108fc57600080fd5b5061039261362c565b34801561091157600080fd5b50610392610920366004614d67565b613632565b34801561093157600080fd5b50610554613649565b34801561094657600080fd5b506103c8610955366004614c72565b613658565b34801561096657600080fd5b50610392613995565b34801561097b57600080fd5b506103c861098a366004614d7f565b6139b9565b34801561099b57600080fd5b506108dd6109aa366004614b86565b613a12565b3480156109bb57600080fd5b50610392613a5b565b3480156109d057600080fd5b50610392613a61565b3480156109e557600080fd5b50610392613a67565b3480156109fa57600080fd5b50610392610a09366004614e51565b613a6d565b348015610a1a57600080fd5b506105546141d8565b348015610a2f57600080fd5b506105546141e7565b348015610a4457600080fd5b506103926141f6565b348015610a5957600080fd5b50610a626141fc565b60405161039f959493929190614f4f565b60155481565b600b5415610a995760405162461bcd60e51b815260040161036f9061546d565b6001600b819055546001600160a01b031680610ac75760405162461bcd60e51b815260040161036f90615082565b826001600160a01b038116610aee5760405162461bcd60e51b815260040161036f90615082565b600360009054906101000a90046001600160a01b03166001600160a01b031663b8c766b86040518163ffffffff1660e01b815260040160206040518083038186803b158015610b3c57600080fd5b505afa158015610b50573d6000803e3d6000fd5b505050506040513d601f19601f82011682018060405250810190610b749190614d4b565b610b905760405162461bcd60e51b815260040161036f90615aa8565b600654431115610bb25760405162461bcd60e51b815260040161036f90615237565b60008311610bd25760405162461bcd60e51b815260040161036f90615852565b6002601955610bdf611281565b60105460408051633761ead760e11b815290516000926001600160a01b031691636ec3d5ae916004808301926020929190829003018186803b158015610c2457600080fd5b505afa158015610c38573d6000803e3d6000fd5b505050506040513d601f19601f82011682018060405250810190610c5c9190614e15565b600654909150610c6c908261429b565b4310610c8a5760405162461bcd60e51b815260040161036f906152a0565b6012546001600160a01b0316610cba57601280546001600160a01b0319166001600160a01b038716179055610e3f565b600f546012546040516367265c3b60e11b81526000926001600160a01b039081169263ce4cb87692610cf492909116903090600401614f35565b60206040518083038186803b158015610d0c57600080fd5b505afa158015610d20573d6000803e3d6000fd5b505050506040513d601f19601f82011682018060405250810190610d449190614e15565b1180610dd75750601054601254604051632638fdf560e01b81526000926001600160a01b0390811692632638fdf592610d8592909116903090600401614f35565b60206040518083038186803b158015610d9d57600080fd5b505afa158015610db1573d6000803e3d6000fd5b505050506040513d601f19601f82011682018060405250810190610dd59190614e15565b115b15610e0e576012546001600160a01b03868116911614610e095760405162461bcd60e51b815260040161036f90615678565b610e3f565b6012546001600160a01b03868116911614610e3f57601280546001600160a01b0319166001600160a01b0387161790555b600d546040516370a0823160e01b815285916001600160a01b0316906370a0823190610e6f903090600401614ee7565b60206040518083038186803b158015610e8757600080fd5b505afa158015610e9b573d6000803e3d6000fd5b505050506040513d601f19601f82011682018060405250810190610ebf9190614e15565b1015610edd5760405162461bcd60e51b815260040161036f90615763565b601354610eea90856142dd565b601355601054604051600091610f10916001600160a01b03909116908890602001614f35565b60408051601f1981840301815290829052600d54600e5463cae9ca5160e01b84529193506001600160a01b039081169263cae9ca5192610f589216908990869060040161502b565b602060405180830381600087803b158015610f7257600080fd5b505af1158015610f86573d6000803e3d6000fd5b505050506040513d601f19601f82011682018060405250810190610faa9190614d4b565b610fc65760405162461bcd60e51b815260040161036f90615514565b7f36f1e081b7e687a2472c2fbd52bc97993ddc788b19c74010f11e25f3c917d2dd8686604051610ff7929190614efb565b60405180910390a150506000600b5550505050565b60065481565b60145481565b60165481565b6110273361123d565b6110625760405162461bcd60e51b8152600401808060200182810382526022815260200180615ca56022913960400191505060405180910390fd5b61107a600080516020615d188339815191528261146d565b50565b60045481565b6012546000906001600160a01b0316158015906110ad57506012546001600160a01b038381169116145b80156110c357506010546001600160a01b031615155b80156110d95750600f546001600160a01b031615155b156112235760105460408051633761ead760e11b815290516000926001600160a01b031691636ec3d5ae916004808301926020929190829003018186803b15801561112357600080fd5b505afa158015611137573d6000803e3d6000fd5b505050506040513d601f19601f8201168201806040525081019061115b9190614e15565b600f546040516367265c3b60e11b8152919250600e8304916000916001600160a01b03169063ce4cb876906111969088903090600401614f35565b60206040518083038186803b1580156111ae57600080fd5b505afa1580156111c2573d6000803e3d6000fd5b505050506040513d601f19601f820116820180604052508101906111e69190614e15565b905060008111801561121557506112128261120c8560065461429b90919063ffffffff16565b9061429b565b43115b1561121f57600193505b5050505b919050565b6000908152601c602052604090206002015490565b6000611257600080516020615d18833981519152836132a4565b92915050565b7f9667e80708b6eeeb0053fa0cca44e028ff548e2a9f029edfeac87c118b08b7c881565b600d546001600160a01b0316611382576000806000806000600160009054906101000a90046001600160a01b03166001600160a01b031663a782ebd56040518163ffffffff1660e01b815260040160a06040518083038186803b1580156112e757600080fd5b505afa1580156112fb573d6000803e3d6000fd5b505050506040513d601f19601f8201168201806040525081019061131f9190614ba2565b600d80546001600160a01b03199081166001600160a01b0397881617909155600e805482169587169590951790945560108054851693861693909317909255600f8054841691851691909117905560118054909216921691909117905550505050505b600d546001600160a01b0316158015906113a65750600e546001600160a01b031615155b80156113bc5750600f546001600160a01b031615155b80156113d257506010546001600160a01b031615155b80156113e857506011546001600160a01b031615155b6114045760405162461bcd60e51b815260040161036f9061581b565b565b6000828152601c6020526040902060020154611424906107dd614337565b61145f5760405162461bcd60e51b815260040180806020018281038252602f815260200180615c76602f913960400191505060405180910390fd5b611469828261433b565b5050565b611475614337565b6001600160a01b0316816001600160a01b0316146114c45760405162461bcd60e51b815260040180806020018281038252602f815260200180615d38602f913960400191505060405180910390fd5b61146982826143a4565b60006006541180156114e1575043600654105b6114fd5760405162461bcd60e51b815260040161036f90615a0f565b600080600080600160009054906101000a90046001600160a01b03166001600160a01b031663a782ebd56040518163ffffffff1660e01b815260040160a06040518083038186803b15801561155157600080fd5b505afa158015611565573d6000803e3d6000fd5b505050506040513d601f19601f820116820180604052508101906115899190614ba2565b50929650909450925090506001600160a01b038416158015906115b457506001600160a01b03831615155b80156115c857506001600160a01b03821615155b80156115dc57506001600160a01b03811615155b6115f85760405162461bcd60e51b815260040161036f906152e9565b6012546001600160a01b031615611737576012546040516367265c3b60e11b81526001600160a01b038381169263ce4cb8769261163d92909116903090600401614f35565b60206040518083038186803b15801561165557600080fd5b505afa158015611669573d6000803e3d6000fd5b505050506040513d601f19601f8201168201806040525081019061168d9190614e15565b15801561171b5750601254604051632638fdf560e01b81526001600160a01b0384811692632638fdf5926116c992909116903090600401614f35565b60206040518083038186803b1580156116e157600080fd5b505afa1580156116f5573d6000803e3d6000fd5b505050506040513d601f19601f820116820180604052508101906117199190614e15565b155b6117375760405162461bcd60e51b815260040161036f9061549b565b336000908152600960205260409020600681015460ff161561176b5760405162461bcd60e51b815260040161036f906150f0565b601b5460ff1661195a57601b805460ff191660011790556002546001600160a01b03908116908616141561195a576000546040516370a0823160e01b81526001600160a01b03909116906370a08231906117c9903090600401614ee7565b60206040518083038186803b1580156117e157600080fd5b505afa1580156117f5573d6000803e3d6000fd5b505050506040513d601f19601f820116820180604052508101906118199190614e15565b6016556040516370a0823160e01b81526001600160a01b038516906370a0823190611848903090600401614ee7565b60206040518083038186803b15801561186057600080fd5b505afa158015611874573d6000803e3d6000fd5b505050506040513d601f19601f820116820180604052508101906118989190614e15565b6018556040516370a0823160e01b81526001600160a01b038616906370a08231906118c7903090600401614ee7565b60206040518083038186803b1580156118df57600080fd5b505afa1580156118f3573d6000803e3d6000fd5b505050506040513d601f19601f820116820180604052508101906119179190614e15565b6017819055600854601854909161193c9161193690633b9aca0061440d565b906142dd565b101561195a5760405162461bcd60e51b815260040161036f906154dd565b8054806119795760405162461bcd60e51b815260040161036f90615733565b43600383015560068201805460ff191660011790556002546001600160a01b039081169087161415611a6a5760008060008060175411156119d8576119d56008546119cf8660175461444f90919063ffffffff16565b9061440d565b92505b601854156119fe576119fb6008546119cf8660185461444f90919063ffffffff16565b91505b60165415611a2457611a216008546119cf8660165461444f90919063ffffffff16565b90505b600585018190558115611a4d57611a438361193684633b9aca0061440d565b6004860155611a55565b600485018390555b611a6289898585856144a8565b505050611c14565b6002546001600160a01b0316611b4a578082600401541115611a9e5760405162461bcd60e51b815260040161036f90615733565b60048201819055308031821115611ac75760405162461bcd60e51b815260040161036f90615893565b6000336001600160a01b031683604051611ae090614ee4565b60006040518083038185875af1925050503d8060008114611b1d576040519150601f19603f3d011682016040523d82523d6000602084013e611b22565b606091505b5050905080611b435760405162461bcd60e51b815260040161036f9061560a565b5050611c14565b8082600401541115611b6e5760405162461bcd60e51b815260040161036f90615733565b600480830182905560025460405163a9059cbb60e01b81526001600160a01b039091169163a9059cbb91611ba6913391869101614efb565b602060405180830381600087803b158015611bc057600080fd5b505af1158015611bd4573d6000803e3d6000fd5b505050506040513d601f19601f82011682018060405250810190611bf89190614d4b565b611c145760405162461bcd60e51b815260040161036f906151cf565b6004820154600583015460405133927fdf273cb619d95419a9cd0ec88123a0538c85064229baa6363788f743fff90deb92611c4e92615bf0565b60405180910390a2505050505050565b7f52eafc11f6f81f86878bffd31109a0d92f37506527754f00788853ff9f63b13081565b6002546001600160a01b031681565b60055481565b600b5415611cb75760405162461bcd60e51b815260040161036f9061546d565b6001600b5560035460408051631718ecd760e31b815290516001600160a01b039092169163b8c766b891600480820192602092909190829003018186803b158015611d0157600080fd5b505afa158015611d15573d6000803e3d6000fd5b505050506040513d601f19601f82011682018060405250810190611d399190614d4b565b611d555760405162461bcd60e51b815260040161036f90615320565b336000908152600960205260408120805415801590611d7957506006548160010154105b611d955760405162461bcd60e51b815260040161036f906155a8565b611d9f3343611fc9565b915060008211611dc15760405162461bcd60e51b815260040161036f90615127565b60035460405163032f7adb60e61b81526000916001600160a01b03169063cbdeb6c090611df2903090600401614ee7565b60206040518083038186803b158015611e0a57600080fd5b505afa158015611e1e573d6000803e3d6000fd5b505050506040513d601f19601f82011682018060405250810190611e429190614e15565b905080611e5a846007546142dd90919063ffffffff16565b1115611e785760405162461bcd60e51b815260040161036f90615b50565b4360018301556002820154611e8d90846142dd565b6002830155600754611e9f90846142dd565b600755600354604051635569f64b60e11b81526001600160a01b039091169063aad3ec9690611ed49033908790600401614efb565b602060405180830381600087803b158015611eee57600080fd5b505af1158015611f02573d6000803e3d6000fd5b505050506040513d601f19601f82011682018060405250810190611f269190614d4b565b611f425760405162461bcd60e51b815260040161036f906157ad565b336001600160a01b03167f987d620f307ff6b94d58743cb7a7509f24071586a77759b77c2d4e29f75a2f9a8443604051611f7d929190615bf0565b60405180910390a250506000600b5550565b604080518082019091526011815270383430b9b298973ab833b930b232973b1960791b602082015290565b60085481565b600c5460ff1681565b6006546000908190831115611fde5760065492505b60055483108061200457506001600160a01b038416600090815260096020526040902054155b8061202b57506006546001600160a01b038516600090815260096020526040902060010154115b8061205057506001600160a01b03841660009081526009602052604090206001015483105b1561205d57506000612318565b6005546006546001600160a01b0386166000908152600960205260409020600101548210156120a5576001600160a01b03861660009081526009602052604090206001015491505b808510156120b05750835b6003546040805163c1b422fd60e01b815290516000926001600160a01b03169163c1b422fd9160048083019286929190829003018186803b1580156120f457600080fd5b505afa158015612108573d6000803e3d6000fd5b505050506040513d6000823e601f3d908101601f191682016040526121309190810190614c9d565b805190915015612314576003546040805163d105bf8560e01b815290516000928692849283926001600160a01b03169163d105bf85916004808301926020929190829003018186803b15801561218557600080fd5b505afa158015612199573d6000803e3d6000fd5b505050506040513d601f19601f820116820180604052508101906121bd9190614e15565b6001600160a01b038c166000908152600960205260408120549192508c91905b875181101561230c578781815181106121f257fe5b6020908102919091010151600354604051632f8deb1560e11b81529198506001600160a01b031690635f1bd62a9061222e908a90600401615066565b60206040518083038186803b15801561224657600080fd5b505afa15801561225a573d6000803e3d6000fd5b505050506040513d601f19601f8201168201806040525081019061227e9190614e15565b94508686111561228d57612304565b8689116122d35784156122ce5760006122a68a8c61429b565b90506122ca6122c3876119cf866122bd8a8761444f565b9061444f565b8d906142dd565b9b50505b61230c565b84156123005760006122e5888c61429b565b90506122fc6122c3876119cf866122bd8a8761444f565b9b50505b8699505b6001016121dd565b505050505050505b5050505b9392505050565b6001546001600160a01b031681565b6012546000906001600160a01b03161580159061235857506012546001600160a01b038381169116145b801561236e5750600f546001600160a01b031615155b1561122357600f546040516367265c3b60e11b81526000916001600160a01b03169063ce4cb876906123a69086903090600401614f35565b60206040518083038186803b1580156123be57600080fd5b505afa1580156123d2573d6000803e3d6000fd5b505050506040513d601f19601f820116820180604052508101906123f69190614e15565b905060008111801561240a57506000600854115b80156124265750600854819061242490633b9aca0061444f565b105b1561244a576008546124479061244090633b9aca0061444f565b829061429b565b91505b50919050565b6010546001600160a01b031681565b601b5460ff1681565b6011546001600160a01b031681565b600f546001600160a01b031681565b61248f3361123d565b6124ca5760405162461bcd60e51b8152600401808060200182810382526022815260200180615ca56022913960400191505060405180910390fd5b61107a600080516020615d1883398151915282611406565b600b54156125025760405162461bcd60e51b815260040161036f9061546d565b6001600b819055546001600160a01b0316806125305760405162461bcd60e51b815260040161036f90615082565b816001600160a01b0381166125575760405162461bcd60e51b815260040161036f90615082565b600360009054906101000a90046001600160a01b03166001600160a01b031663b8c766b86040518163ffffffff1660e01b815260040160206040518083038186803b1580156125a557600080fd5b505afa1580156125b9573d6000803e3d6000fd5b505050506040513d601f19601f820116820180604052508101906125dd9190614d4b565b6125f95760405162461bcd60e51b815260040161036f90615aa8565b60125483906001600160a01b038083169116146126285760405162461bcd60e51b815260040161036f90615678565b6003601955601a5461263b9060016142dd565b601a55612646611281565b60105460408051633761ead760e11b815290516000926001600160a01b031691636ec3d5ae916004808301926020929190829003018186803b15801561268b57600080fd5b505afa15801561269f573d6000803e3d6000fd5b505050506040513d601f19601f820116820180604052508101906126c39190614e15565b600f546040516367265c3b60e11b81529192506000916001600160a01b039091169063ce4cb876906126fb9089903090600401614f35565b60206040518083038186803b15801561271357600080fd5b505afa158015612727573d6000803e3d6000fd5b505050506040513d601f19601f8201168201806040525081019061274b9190614e15565b90506000811161276d5760405162461bcd60e51b815260040161036f90615200565b600654600e83049061278590829061120c908661429b565b43116127a35760405162461bcd60e51b815260040161036f906158c5565b601054604051636b2160b760e01b81526001600160a01b0390911690636b2160b7906127d3908a90600401614ee7565b602060405180830381600087803b1580156127ed57600080fd5b505af1158015612801573d6000803e3d6000fd5b505050506040513d601f19601f820116820180604052508101906128259190614d4b565b507fd1c4e96e0fd22936ea8aebe0b8e06b19f1c4a836b141a34cf9e925d2afb20523876040516128559190614ee7565b60405180910390a150506000600b555050505050565b60195481565b600b54156128915760405162461bcd60e51b815260040161036f9061546d565b6001600b819055546001600160a01b0316806128bf5760405162461bcd60e51b815260040161036f90615082565b600360009054906101000a90046001600160a01b03166001600160a01b031663b8c766b86040518163ffffffff1660e01b815260040160206040518083038186803b15801561290d57600080fd5b505afa158015612921573d6000803e3d6000fd5b505050506040513d601f19601f820116820180604052508101906129459190614d4b565b6129615760405162461bcd60e51b815260040161036f90615aa8565b60125482906001600160a01b038083169116146129905760405162461bcd60e51b815260040161036f90615678565b600560195561299d611281565b6000806129a985612ad3565b909250905081158015906129bd5750600081115b6129d95760405162461bcd60e51b815260040161036f906155d3565b6014546129e690826142dd565b601455601a548211612a0357601a546129ff908361429b565b601a555b60105460405163fb0713b160e01b81526001600160a01b039091169063fb0713b190612a389088908690600190600401615008565b602060405180830381600087803b158015612a5257600080fd5b505af1158015612a66573d6000803e3d6000fd5b505050506040513d601f19601f82011682018060405250810190612a8a9190614d4b565b507f76d210b2dc3da8be1904d8b5da9feb5cdd21af436261626c4ec607e2123b417d85836001604051612abf93929190615008565b60405180910390a150506000600b55505050565b60015460009081906001600160a01b031680612b015760405162461bcd60e51b815260040161036f90615082565b836001600160a01b038116612b285760405162461bcd60e51b815260040161036f90615082565b600360009054906101000a90046001600160a01b03166001600160a01b031663b8c766b86040518163ffffffff1660e01b815260040160206040518083038186803b158015612b7657600080fd5b505afa158015612b8a573d6000803e3d6000fd5b505050506040513d601f19601f82011682018060405250810190612bae9190614d4b565b612bca5760405162461bcd60e51b815260040161036f90615aa8565b60125485906001600160a01b03808316911614612bf95760405162461bcd60e51b815260040161036f90615678565b601054604051636323f93760e11b8152600091829182916001600160a01b03169063c647f26e90612c30908c903090600401614f35565b60206040518083038186803b158015612c4857600080fd5b505afa158015612c5c573d6000803e3d6000fd5b505050506040513d601f19601f82011682018060405250810190612c809190614e15565b601054604051635c0df46b60e01b8152919250600091612d0e9184916001600160a01b0390911690635c0df46b90612cbe908f903090600401614f35565b60206040518083038186803b158015612cd657600080fd5b505afa158015612cea573d6000803e3d6000fd5b505050506040513d601f19601f820116820180604052508101906119369190614e15565b9050815b81811015612e0c576000806000601060009054906101000a90046001600160a01b03166001600160a01b0316638fbef2d08f30876040518463ffffffff1660e01b8152600401612d6493929190614fe4565b60606040518083038186803b158015612d7c57600080fd5b505afa158015612d90573d6000803e3d6000fd5b505050506040513d601f19601f82011682018060405250810190612db49190614dcf565b9194509250905080158015612de557506000836001600160801b0316118015612de5575043836001600160801b0316105b15612df95760019097019695810195612e01565b505050612e0c565b505050600101612d12565b50506001600160801b03928316975050169350505050915091565b612e303361123d565b612e6b5760405162461bcd60e51b8152600401808060200182810382526022815260200180615ca56022913960400191505060405180910390fd5b6001600160a01b038116612ec1576040805162461bcd60e51b815260206004820152601860248201527741636365737369626c653a207a65726f206164647265737360401b604482015290519081900360640190fd5b336001600160a01b0382161415612f18576040805162461bcd60e51b815260206004820152601660248201527520b1b1b2b9b9b4b136329d1039b0b6b29030b236b4b760511b604482015290519081900360640190fd5b612f30600080516020615d1883398151915282611406565b61107a600080516020615d188339815191523361146d565b600080516020615d1883398151915281565b600b5415612f7a5760405162461bcd60e51b815260040161036f9061546d565b6001600b55612f87611281565b8015613132576011546001600160a01b0316612fb55760405162461bcd60e51b815260040161036f9061519a565b600d546040516370a0823160e01b815283916001600160a01b0316906370a0823190612fe5903090600401614ee7565b60206040518083038186803b158015612ffd57600080fd5b505afa158015613011573d6000803e3d6000fd5b505050506040513d601f19601f820116820180604052508101906130359190614e15565b10156130535760405162461bcd60e51b815260040161036f90615385565b601154604051600091613076916001600160a01b03909116908190602001614f35565b60408051601f1981840301815290829052600d54600e5463cae9ca5160e01b84529193506001600160a01b039081169263cae9ca51926130be9216908790869060040161502b565b602060405180830381600087803b1580156130d857600080fd5b505af11580156130ec573d6000803e3d6000fd5b505050506040513d601f19601f820116820180604052508101906131109190614d4b565b61312c5760405162461bcd60e51b815260040161036f906156e4565b5061326e565b600e546040516370a0823160e01b815283916001600160a01b0316906370a0823190613162903090600401614ee7565b60206040518083038186803b15801561317a57600080fd5b505afa15801561318e573d6000803e3d6000fd5b505050506040513d601f19601f820116820180604052508101906131b29190614e15565b10156131d05760405162461bcd60e51b815260040161036f90615414565b600e5460405163f53fe70f60e01b81526001600160a01b039091169063f53fe70f90613200908590600401615066565b602060405180830381600087803b15801561321a57600080fd5b505af115801561322e573d6000803e3d6000fd5b505050506040513d601f19601f820116820180604052508101906132529190614d4b565b61326e5760405162461bcd60e51b815260040161036f906157e4565b50506000600b55565b600a5481565b600e546001600160a01b031681565b6000828152601c60205260408120612318908361486f565b6000828152601c60205260408120612318908361487b565b6012546001600160a01b031681565b6000806132d6614b51565b5050600254600354604080516060810182526004548152600554602082015260065491810191909152600754600854600a546001600160a01b03958616979590941695509193909290565b600c5461010090046001600160a01b031681565b600c54600160a81b900460ff1681565b600081565b6133533361123d565b61338e5760405162461bcd60e51b8152600401808060200182810382526022815260200180615ca56022913960400191505060405180910390fd5b6001600160a01b038116158015906133b457506012546001600160a01b03828116911614155b6133d05760405162461bcd60e51b815260040161036f90615159565b601280546001600160a01b0319166001600160a01b0383161790556040517fbcf2b04f5517cca822ae60e21bb6e3889b8d8307ea062c5266c63a014386c9909061341b908390614ee7565b60405180910390a150565b6012546000906001600160a01b03161580159061345057506012546001600160a01b038381169116145b801561346657506010546001600160a01b031615155b156112235760105460408051633761ead760e11b815290516000926001600160a01b031691636ec3d5ae916004808301926020929190829003018186803b1580156134b057600080fd5b505afa1580156134c4573d6000803e3d6000fd5b505050506040513d601f19601f820116820180604052508101906134e89190614e15565b9050600e81046134f882826142dd565b600654111561351d5761351a8161120c8460065461429b90919063ffffffff16565b92505b5050919050565b61352d3361123d565b6135685760405162461bcd60e51b8152600401808060200182810382526022815260200180615ca56022913960400191505060405180910390fd5b806001600160a01b03811661358f5760405162461bcd60e51b815260040161036f90615082565b600180546001600160a01b0319166001600160a01b0384811691909117918290556040517f278c70ced5f3e0e5eeb385b5ff9cb735748ba00a625147e66065ed48fc1562cd926135e0921690614ee7565b60405180910390a15050565b6009602052600090815260409020805460018201546002830154600384015460048501546005860154600690960154949593949293919290919060ff1687565b60075481565b6000818152601c6020526040812061125790614890565b600d546001600160a01b031681565b600b54156136785760405162461bcd60e51b815260040161036f9061546d565b6001600b819055546001600160a01b0316806136a65760405162461bcd60e51b815260040161036f90615082565b826001600160a01b0381166136cd5760405162461bcd60e51b815260040161036f90615082565b600360009054906101000a90046001600160a01b03166001600160a01b031663b8c766b86040518163ffffffff1660e01b815260040160206040518083038186803b15801561371b57600080fd5b505afa15801561372f573d6000803e3d6000fd5b505050506040513d601f19601f820116820180604052508101906137539190614d4b565b61376f5760405162461bcd60e51b815260040161036f90615aa8565b60125484906001600160a01b0380831691161461379e5760405162461bcd60e51b815260040161036f90615678565b6003601955601a546137b19060016142dd565b601a556137bc611281565b600f546040516367265c3b60e11b81526000916001600160a01b03169063ce4cb876906137ef9089903090600401614f35565b60206040518083038186803b15801561380757600080fd5b505afa15801561381b573d6000803e3d6000fd5b505050506040513d601f19601f8201168201806040525081019061383f9190614e15565b9050600081116138615760405162461bcd60e51b815260040161036f90615200565b60085460009061387590633b9aca0061444f565b905060008082118015613891575061388e83606461429b565b82105b156138a8576138a5606461120c858561429b565b90505b600081116138c85760405162461bcd60e51b815260040161036f9061598e565b60105460405163da95ebf760e01b81526001600160a01b039091169063da95ebf7906138fa908b908590600401614efb565b602060405180830381600087803b15801561391457600080fd5b505af1158015613928573d6000803e3d6000fd5b505050506040513d601f19601f8201168201806040525081019061394c9190614d4b565b507f2a23e23c116b511f71c9f0c2648b0372e6bbcb1f559a7cbfaed5c55933ea6c4e888260405161397e929190614efb565b60405180910390a150506000600b55505050505050565b7ff0887ba65ee2024ea881d91b74c2450ef19e1557f03bed3ea9f16b037cbe2dc981565b6000828152601c60205260409020600201546139d7906107dd614337565b6114c45760405162461bcd60e51b8152600401808060200182810382526030815260200180615cc76030913960400191505060405180910390fd5b6001600160a01b03166000908152600960205260409020805460018201546002830154600384015460048501546005860154600690960154949693959294919390929160ff1690565b601a5481565b60175481565b60185481565b6000600b54600014613a915760405162461bcd60e51b815260040161036f9061546d565b6001600b5560035460408051631718ecd760e31b815290516001600160a01b039092169163b8c766b891600480820192602092909190829003018186803b158015613adb57600080fd5b505afa158015613aef573d6000803e3d6000fd5b505050506040513d601f19601f82011682018060405250810190613b139190614d4b565b613b2f5760405162461bcd60e51b815260040161036f90615aa8565b600654431115613b515760405162461bcd60e51b815260040161036f906159dc565b60028210613b715760405162461bcd60e51b815260040161036f9061594d565b613b79611281565b600e546040516370a0823160e01b81526000916001600160a01b0316906370a0823190613baa903090600401614ee7565b60206040518083038186803b158015613bc257600080fd5b505afa158015613bd6573d6000803e3d6000fd5b505050506040513d601f19601f82011682018060405250810190613bfa9190614e15565b600d546040516370a0823160e01b81529192506000916001600160a01b03909116906370a0823190613c30903090600401614ee7565b60206040518083038186803b158015613c4857600080fd5b505afa158015613c5c573d6000803e3d6000fd5b505050506040513d601f19601f82011682018060405250810190613c809190614e15565b6012549091506000906001600160a01b031615613db457600f546012546040516367265c3b60e11b81526001600160a01b039283169263ce4cb87692613ccd929116903090600401614f35565b60206040518083038186803b158015613ce557600080fd5b505afa158015613cf9573d6000803e3d6000fd5b505050506040513d601f19601f82011682018060405250810190613d1d9190614e15565b601054601254604051632638fdf560e01b8152929350613db1926001600160a01b0392831692632638fdf592613d5a929116903090600401614f35565b60206040518083038186803b158015613d7257600080fd5b505afa158015613d86573d6000803e3d6000fd5b505050506040513d601f19601f82011682018060405250810190613daa9190614e15565b82906142dd565b90505b828215613dcf57613dcc613daa84633b9aca0061444f565b90505b89811015613def5760405162461bcd60e51b815260040161036f906156af565b8115613e0257613dff81836142dd565b90505b600854613e1390633b9aca0061444f565b81118015613e43575089613e40613e39633b9aca0060085461444f90919063ffffffff16565b839061429b565b10155b613e5f5760405162461bcd60e51b815260040161036f90615641565b89841015613f5b57601154604051600091613e8a916001600160a01b03909116908190602001614f35565b60408051601f1981840301815291905290506000613eb0633b9aca006119cf8e8961429b565b600d54600e5460405163cae9ca5160e01b81529293506001600160a01b039182169263cae9ca5192613eea9216908590879060040161502b565b602060405180830381600087803b158015613f0457600080fd5b505af1158015613f18573d6000803e3d6000fd5b505050506040513d601f19601f82011682018060405250810190613f3c9190614d4b565b613f585760405162461bcd60e51b815260040161036f90615555565b50505b5050601554613f6d92509050876142dd565b60155560015460408051630141158f60e61b8152905160009283926001600160a01b039091169163504563c09160048082019260a092909190829003018186803b158015613fba57600080fd5b505afa158015613fce573d6000803e3d6000fd5b505050506040513d601f19601f82011682018060405250810190613ff29190614c16565b5092945091925050506001600160a01b0382166140215760405162461bcd60e51b815260040161036f906150b9565b600e5460405163095ea7b360e01b81526001600160a01b039091169063095ea7b3906140539085908c90600401614efb565b602060405180830381600087803b15801561406d57600080fd5b505af1158015614081573d6000803e3d6000fd5b505050506040513d601f19601f820116820180604052508101906140a59190614d4b565b6140c15760405162461bcd60e51b815260040161036f90615b07565b6040805161010081018252600e546001600160a01b0390811682526000548116602083015262ffffff8416828401523060608301526080820189905260a082018b905260c082018a905287811660e0830152915163414bf38960e01b8152909184169063414bf38990614138908490600401615b87565b602060405180830381600087803b15801561415257600080fd5b505af1158015614166573d6000803e3d6000fd5b505050506040513d601f19601f8201168201806040525081019061418a9190614e15565b93507f6ad50db5d488c314f9077fc5c41c7d8bcdd86ddc409871512ddd009f21067d32338a866040516141bf93929190614f14565b60405180910390a150506000600b555095945050505050565b6003546001600160a01b031681565b6000546001600160a01b031681565b60135481565b6000806000806000600160009054906101000a90046001600160a01b03166001600160a01b031663504563c06040518163ffffffff1660e01b815260040160a06040518083038186803b15801561425257600080fd5b505afa158015614266573d6000803e3d6000fd5b505050506040513d601f19601f8201168201806040525081019061428a9190614c16565b945094509450945094509091929394565b600061231883836040518060400160405280601e81526020017f536166654d6174683a207375627472616374696f6e206f766572666c6f77000081525061489b565b600082820183811015612318576040805162461bcd60e51b815260206004820152601b60248201527f536166654d6174683a206164646974696f6e206f766572666c6f770000000000604482015290519081900360640190fd5b3390565b6000828152601c602052604090206143539082614932565b1561146957614360614337565b6001600160a01b0316816001600160a01b0316837f2f8788117e7eff1d82e926ec794901d17c78024a50270940304540a733656f0d60405160405180910390a45050565b6000828152601c602052604090206143bc9082614947565b15611469576143c9614337565b6001600160a01b0316816001600160a01b0316837ff6391f5c32d9c69d2a47ea670b442974b53935d1edc7fd64eb21e047a839171b60405160405180910390a45050565b600061231883836040518060400160405280601a81526020017f536166654d6174683a206469766973696f6e206279207a65726f00000000000081525061495c565b60008261445e57506000611257565b8282028284828161446b57fe5b04146123185760405162461bcd60e51b8152600401808060200182810382526021815260200180615cf76021913960400191505060405180910390fd5b82156145e6576040516370a0823160e01b815283906001600160a01b038716906370a08231906144dc903090600401614ee7565b60206040518083038186803b1580156144f457600080fd5b505afa158015614508573d6000803e3d6000fd5b505050506040513d601f19601f8201168201806040525081019061452c9190614e15565b101561454a5760405162461bcd60e51b815260040161036f90615a71565b60405163a9059cbb60e01b81526001600160a01b0386169063a9059cbb906145789033908790600401614efb565b602060405180830381600087803b15801561459257600080fd5b505af11580156145a6573d6000803e3d6000fd5b505050506040513d601f19601f820116820180604052508101906145ca9190614d4b565b6145e65760405162461bcd60e51b815260040161036f9061534e565b8115614724576040516370a0823160e01b815282906001600160a01b038616906370a082319061461a903090600401614ee7565b60206040518083038186803b15801561463257600080fd5b505afa158015614646573d6000803e3d6000fd5b505050506040513d601f19601f8201168201806040525081019061466a9190614e15565b10156146885760405162461bcd60e51b815260040161036f90615a3a565b60405163e3b99e8560e01b81526001600160a01b0385169063e3b99e85906146b69033908690600401614efb565b602060405180830381600087803b1580156146d057600080fd5b505af11580156146e4573d6000803e3d6000fd5b505050506040513d601f19601f820116820180604052508101906147089190614d4b565b6147245760405162461bcd60e51b815260040161036f906153dd565b8015614868576000546040516370a0823160e01b815282916001600160a01b0316906370a082319061475a903090600401614ee7565b60206040518083038186803b15801561477257600080fd5b505afa158015614786573d6000803e3d6000fd5b505050506040513d601f19601f820116820180604052508101906147aa9190614e15565b10156147c85760405162461bcd60e51b815260040161036f90615916565b60005460405163a9059cbb60e01b81526001600160a01b039091169063a9059cbb906147fa9033908590600401614efb565b602060405180830381600087803b15801561481457600080fd5b505af1158015614828573d6000803e3d6000fd5b505050506040513d601f19601f8201168201806040525081019061484c9190614d4b565b6148685760405162461bcd60e51b815260040161036f90615269565b5050505050565b600061231883836149c1565b6000612318836001600160a01b038416614a25565b600061125782614a3d565b6000818484111561492a5760405162461bcd60e51b81526004018080602001828103825283818151815260200191508051906020019080838360005b838110156148ef5781810151838201526020016148d7565b50505050905090810190601f16801561491c5780820380516001836020036101000a031916815260200191505b509250505060405180910390fd5b505050900390565b6000612318836001600160a01b038416614a41565b6000612318836001600160a01b038416614a8b565b600081836149ab5760405162461bcd60e51b81526020600482018181528351602484015283519092839260449091019190850190808383600083156148ef5781810151838201526020016148d7565b5060008385816149b757fe5b0495945050505050565b81546000908210614a035760405162461bcd60e51b8152600401808060200182810382526022815260200180615c546022913960400191505060405180910390fd5b826000018281548110614a1257fe5b9060005260206000200154905092915050565b60009081526001919091016020526040902054151590565b5490565b6000614a4d8383614a25565b614a8357508154600181810184556000848152602080822090930184905584548482528286019093526040902091909155611257565b506000611257565b60008181526001830160205260408120548015614b475783546000198083019190810190600090879083908110614abe57fe5b9060005260206000200154905080876000018481548110614adb57fe5b600091825260208083209091019290925582815260018981019092526040902090840190558654879080614b0b57fe5b60019003818190600052602060002001600090559055866001016000878152602001908152602001600020600090556001945050505050611257565b6000915050611257565b60405180606001604052806003906020820280368337509192915050565b80516001600160801b038116811461122357600080fd5b600060208284031215614b97578081fd5b813561231881615c30565b600080600080600060a08688031215614bb9578081fd5b8551614bc481615c30565b6020870151909550614bd581615c30565b6040870151909450614be681615c30565b6060870151909350614bf781615c30565b6080870151909250614c0881615c30565b809150509295509295909350565b600080600080600060a08688031215614c2d578081fd5b8551614c3881615c30565b6020870151909550614c4981615c30565b6040870151909450614c5a81615c30565b606087015160808801519194509250614c0881615c30565b60008060408385031215614c84578182fd5b8235614c8f81615c30565b946020939093013593505050565b60006020808385031215614caf578182fd5b825167ffffffffffffffff80821115614cc6578384fd5b818501915085601f830112614cd9578384fd5b815181811115614ce557fe5b83810260405185828201018181108582111715614cfe57fe5b604052828152858101935084860182860187018a1015614d1c578788fd5b8795505b83861015614d3e578051855260019590950194938601938601614d20565b5098975050505050505050565b600060208284031215614d5c578081fd5b815161231881615c45565b600060208284031215614d78578081fd5b5035919050565b60008060408385031215614d91578182fd5b823591506020830135614da381615c30565b809150509250929050565b60008060408385031215614dc0578182fd5b50508035926020909101359150565b600080600060608486031215614de3578283fd5b614dec84614b6f565b9250614dfa60208501614b6f565b91506040840151614e0a81615c45565b809150509250925092565b600060208284031215614e26578081fd5b5051919050565b60008060408385031215614e3f578182fd5b823591506020830135614da381615c45565b600080600080600060a08688031215614e68578283fd5b8535945060208601359350604086013592506060860135614e8881615c30565b949793965091946080013592915050565b60008151808452815b81811015614ebe57602081850181015186830182015201614ea2565b81811115614ecf5782602083870101525b50601f01601f19169290920160200192915050565b90565b6001600160a01b0391909116815260200190565b6001600160a01b03929092168252602082015260400190565b6001600160a01b039390931683526020830191909152604082015260600190565b6001600160a01b0392831681529116602082015260400190565b6001600160a01b039586168152938516602085015291841660408401526060830152909116608082015260a00190565b6001600160a01b038781168252861660208083019190915261010082019060408301908760005b6003811015614fc357815184529282019290820190600101614fa6565b505050508460a08301528360c08301528260e0830152979650505050505050565b6001600160a01b039384168152919092166020820152604081019190915260600190565b6001600160a01b0393909316835260208301919091521515604082015260600190565b600060018060a01b0385168252836020830152606060408301526150526060830184614e99565b95945050505050565b901515815260200190565b90815260200190565b6000602082526123186020830184614e99565b6020808252601b908201527f546f6b616d616b5374616b65723a207a65726f20616464726573730000000000604082015260600190565b6020808252601a908201527f546f6b616d616b5374616b65723a756e6973776170207a65726f000000000000604082015260600190565b6020808252601a908201527f5374616b65544f4e3a20416c7265616479207769746864726177000000000000604082015260600190565b6020808252601890820152775374616b65544f4e3a20726577617264206973207a65726f60401b604082015260600190565b60208082526021908201527f546f6b616d616b5374616b65723a746f6b616d616b4c6179657232207a65726f6040820152600160fd1b606082015260800190565b6020808252818101527f546f6b616d616b5374616b65723a207377617050726f7879206973207a65726f604082015260600190565b60208082526017908201527614dd185ad95513d38e881d1c985b9cd9995c8819985a5b604a1b604082015260600190565b6020808252601e908201527f546f6b616d616b5374616b65723a207374616b654f66206973207a65726f0000604082015260600190565b602080825260189082015277151bdad85b585ad4dd185ad95c8e9c195c9a5bd908195b9960421b604082015260600190565b6020808252601b908201527f5374616b65544f4e3a207472616e7366657220746f73206661696c0000000000604082015260600190565b60208082526029908201527f546f6b616d616b5374616b65723a706572696f64287769746864726177616c44604082015268195b185e4a48195b9960ba1b606082015260800190565b6020808252601f908201527f5374616b65544f4e3a2049546f6b616d616b5265676973747279207a65726f00604082015260600190565b60208082526014908201527314dd185ad95513d38e881b9bdd0818db1bdcd95960621b604082015260600190565b6020808252601b908201527f5374616b65544f4e3a207472616e7366657220746f6e206661696c0000000000604082015260600190565b60208082526038908201527f546f6b616d616b5374616b65723a2073776170544f4e746f57544f4e20746f6e6040820152770818985b185b98d9481a5cc81a5b9cdd59999a58da595b9d60421b606082015260800190565b6020808252601c908201527f5374616b65544f4e3a207472616e736665722077746f6e206661696c00000000604082015260600190565b60208082526039908201527f546f6b616d616b5374616b65723a2073776170544f4e746f57544f4e2077746f6040820152781b8818985b185b98d9481a5cc81a5b9cdd59999a58da595b9d603a1b606082015260800190565b602080825260149082015273151bdad85b585ad4dd185ad95c8e9313d0d2d15160621b604082015260600190565b60208082526022908201527f5374616b65544f4e3a2072656d61696e20616d6f756e7420696e20746f6b616d604082015261616b60f01b606082015260800190565b6020808252601e908201527f5374616b65544f4e3a2066696e616c42616c616e6365206973206c61636b0000604082015260600190565b60208082526021908201527f546f6b616d616b5374616b65723a617070726f7665416e6443616c6c206661696040820152601b60fa1b606082015260800190565b60208082526033908201527f546f6b616d616b5374616b65723a65786368616e676557544f4e746f544f5320604082015272185c1c1c9bdd99505b9910d85b1b0819985a5b606a1b606082015260800190565b60208082526011908201527014dd185ad95513d38e8818db185a5b5959607a1b604082015260600190565b6020808252601e908201527f546f6b616d616b5374616b65723a206e6f2061626c6520726571756573740000604082015260600190565b6020808252601a908201527f5374616b65544f4e3a207769746864726177206661696c65642e000000000000604082015260600190565b6020808252601a908201527f546f6b616d616b5374616b65723a696e73756666696369656e74000000000000604082015260600190565b6020808252601d908201527f546f6b616d616b5374616b65723a646966666572656e74206c61796572000000604082015260600190565b6020808252818101527f546f6b616d616b5374616b65723a2077746f6e20696e73756666696369656e74604082015260600190565b6020808252602f908201527f546f6b616d616b5374616b65723a73776170544f4e746f57544f4e206170707260408201526e1bdd99505b9910d85b1b0819985a5b608a1b606082015260800190565b6020808252601690820152755374616b65544f4e3a20416d6f756e742077726f6e6760501b604082015260600190565b6020808252602a908201527f546f6b616d616b5374616b65723a20746f6e2062616c616e636520697320696e6040820152691cdd59999a58da595b9d60b21b606082015260800190565b6020808252601f908201527f5374616b65544f4e3a206661696c20636c61696d2066726f6d207661756c7400604082015260600190565b6020808252601c908201527f546f6b616d616b5374616b65723a73776170546f544f4e206661696c00000000604082015260600190565b6020808252601a908201527f546f6b616d616b5374616b65723a746f6b616d616b207a65726f000000000000604082015260600190565b60208082526021908201527f546f6b616d616b5374616b65723a7374616b65416d6f756e74206973207a65726040820152606f60f81b606082015260800190565b6020808252601890820152770a6e8c2d6caa89e9c7440d2dce6eaccccd2cadce8408aa8960431b604082015260600190565b60208082526031908201527f546f6b616d616b5374616b65723a5468652065786563757461626c6520626c6f60408201527018dac81a185cc81b9bdd081c185cdcd959607a1b606082015260800190565b6020808252601d908201527f5374616b65544f4e3a20746f732062616c616e6365206973206c61636b000000604082015260600190565b60208082526021908201527f546f6b616d616b5374616b65723a206e6f7420617661696c61626c65206b696e6040820152601960fa1b606082015260800190565b6020808252602e908201527f546f6b616d616b5374616b65723a206e6f2077697468647261772d61626c652060408201526d185b5bdd5b9d081b9bdd081e595d60921b606082015260800190565b602080825260199082015278151bdad85b585ad4dd185ad95c8e881c195c9a5bd908195b99603a1b604082015260600190565b60208082526011908201527014dd185ad95513d38e881b9bdd08195b99607a1b604082015260600190565b6020808252601e908201527f5374616b65544f4e3a2077746f6e2062616c616e6365206973206c61636b0000604082015260600190565b6020808252601d908201527f5374616b65544f4e3a20746f6e2062616c616e6365206973206c61636b000000604082015260600190565b602080825260199082015278151bdad85b585ad4dd185ad95c8e881b9bdd0818db1bdcd959603a1b604082015260600190565b60208082526012908201527131b0b73737ba1039ba30b5b29022ba3432b960711b604082015260600190565b60208082526029908201527f546f6b616d616b5374616b65723a63616e277420617070726f766520756e69736040820152683bb0b82937baba32b960b91b606082015260800190565b6020808252601e908201527f5374616b65544f4e3a20746f74616c2072657761726420657863656564730000604082015260600190565b81516001600160a01b03908116825260208084015182169083015260408084015162ffffff16908301526060808401518216908301526080808401519083015260a0838101519083015260c0808401519083015260e09283015116918101919091526101000190565b918252602082015260400190565b968752602087019590955260408601939093526060850191909152608084015260a0830152151560c082015260e00190565b6001600160a01b038116811461107a57600080fd5b801515811461107a57600080fdfe456e756d657261626c655365743a20696e646578206f7574206f6620626f756e6473416363657373436f6e74726f6c3a2073656e646572206d75737420626520616e2061646d696e20746f206772616e7441636365737369626c653a2043616c6c6572206973206e6f7420616e2061646d696e416363657373436f6e74726f6c3a2073656e646572206d75737420626520616e2061646d696e20746f207265766f6b65536166654d6174683a206d756c7469706c69636174696f6e206f766572666c6f77df8b4c520ffe197c5343c6f5aec59570151ef9a492f2c624fd45ddde6135ec42416363657373436f6e74726f6c3a2063616e206f6e6c792072656e6f756e636520726f6c657320666f722073656c66a264697066735822122027cc988417411633c49860b8ead5ce85cfc40a86a22ed6df33f26534e5c3493764736f6c63430007060033",
  "linkReferences": {},
  "deployedLinkReferences": {}
}