{
  "_format": "hh-sol-artifact-1",
  "contractName": "StakeUniswapV3Upgrade1",
  "sourceName": "contracts/stake/StakeUniswapV3Upgrade1.sol",
  "abi": [
    {
      "inputs": [],
      "stateMutability": "nonpayable",
      "type": "constructor"
    },
    {
      "anonymous": false,
      "inputs": [
        {
          "indexed": true,
          "internalType": "address",
          "name": "sender",
          "type": "address"
        },
        {
          "indexed": true,
          "internalType": "uint256",
          "name": "tokenId",
          "type": "uint256"
        },
        {
          "indexed": false,
          "internalType": "address",
          "name": "poolAddress",
          "type": "address"
        },
        {
          "indexed": false,
          "internalType": "uint256",
          "name": "miningAmount",
          "type": "uint256"
        },
        {
          "indexed": false,
          "internalType": "uint256",
          "name": "nonMiningAmount",
          "type": "uint256"
        }
      ],
      "name": "Claimed",
      "type": "event"
    },
    {
      "anonymous": false,
      "inputs": [
        {
          "indexed": true,
          "internalType": "address",
          "name": "sender",
          "type": "address"
        },
        {
          "indexed": true,
          "internalType": "uint256",
          "name": "tokenId",
          "type": "uint256"
        },
        {
          "indexed": false,
          "internalType": "uint256",
          "name": "amount0",
          "type": "uint256"
        },
        {
          "indexed": false,
          "internalType": "uint256",
          "name": "amount1",
          "type": "uint256"
        }
      ],
      "name": "Collected",
      "type": "event"
    },
    {
      "anonymous": false,
      "inputs": [
        {
          "indexed": true,
          "internalType": "address",
          "name": "sender",
          "type": "address"
        },
        {
          "indexed": true,
          "internalType": "uint256",
          "name": "tokenId",
          "type": "uint256"
        },
        {
          "indexed": false,
          "internalType": "uint128",
          "name": "liquidity",
          "type": "uint128"
        },
        {
          "indexed": false,
          "internalType": "uint256",
          "name": "amount0",
          "type": "uint256"
        },
        {
          "indexed": false,
          "internalType": "uint256",
          "name": "amount1",
          "type": "uint256"
        }
      ],
      "name": "DecreasedLiquidity",
      "type": "event"
    },
    {
      "anonymous": false,
      "inputs": [
        {
          "indexed": true,
          "internalType": "address",
          "name": "sender",
          "type": "address"
        },
        {
          "indexed": true,
          "internalType": "uint256",
          "name": "tokenId",
          "type": "uint256"
        },
        {
          "indexed": false,
          "internalType": "uint128",
          "name": "liquidity",
          "type": "uint128"
        },
        {
          "indexed": false,
          "internalType": "uint256",
          "name": "amount0",
          "type": "uint256"
        },
        {
          "indexed": false,
          "internalType": "uint256",
          "name": "amount1",
          "type": "uint256"
        }
      ],
      "name": "IncreasedLiquidity",
      "type": "event"
    },
    {
      "anonymous": false,
      "inputs": [
        {
          "indexed": false,
          "internalType": "uint256",
          "name": "curTime",
          "type": "uint256"
        },
        {
          "indexed": false,
          "internalType": "uint256",
          "name": "miningInterval",
          "type": "uint256"
        },
        {
          "indexed": false,
          "internalType": "uint256",
          "name": "miningAmount",
          "type": "uint256"
        },
        {
          "indexed": false,
          "internalType": "uint256",
          "name": "prevTotalSupply",
          "type": "uint256"
        },
        {
          "indexed": false,
          "internalType": "uint256",
          "name": "afterTotalSupply",
          "type": "uint256"
        },
        {
          "indexed": false,
          "internalType": "uint256",
          "name": "factor",
          "type": "uint256"
        }
      ],
      "name": "MinedCoinage",
      "type": "event"
    },
    {
      "anonymous": false,
      "inputs": [
        {
          "indexed": true,
          "internalType": "bytes32",
          "name": "role",
          "type": "bytes32"
        },
        {
          "indexed": true,
          "internalType": "bytes32",
          "name": "previousAdminRole",
          "type": "bytes32"
        },
        {
          "indexed": true,
          "internalType": "bytes32",
          "name": "newAdminRole",
          "type": "bytes32"
        }
      ],
      "name": "RoleAdminChanged",
      "type": "event"
    },
    {
      "anonymous": false,
      "inputs": [
        {
          "indexed": true,
          "internalType": "bytes32",
          "name": "role",
          "type": "bytes32"
        },
        {
          "indexed": true,
          "internalType": "address",
          "name": "account",
          "type": "address"
        },
        {
          "indexed": true,
          "internalType": "address",
          "name": "sender",
          "type": "address"
        }
      ],
      "name": "RoleGranted",
      "type": "event"
    },
    {
      "anonymous": false,
      "inputs": [
        {
          "indexed": true,
          "internalType": "bytes32",
          "name": "role",
          "type": "bytes32"
        },
        {
          "indexed": true,
          "internalType": "address",
          "name": "account",
          "type": "address"
        },
        {
          "indexed": true,
          "internalType": "address",
          "name": "sender",
          "type": "address"
        }
      ],
      "name": "RoleRevoked",
      "type": "event"
    },
    {
      "anonymous": false,
      "inputs": [
        {
          "indexed": true,
          "internalType": "address",
          "name": "sender",
          "type": "address"
        },
        {
          "indexed": true,
          "internalType": "uint256",
          "name": "tokenId",
          "type": "uint256"
        },
        {
          "indexed": false,
          "internalType": "uint256",
          "name": "miningAmount",
          "type": "uint256"
        },
        {
          "indexed": false,
          "internalType": "uint256",
          "name": "nonMiningAmount",
          "type": "uint256"
        }
      ],
      "name": "WithdrawalToken",
      "type": "event"
    },
    {
      "inputs": [],
      "name": "ADMIN_ROLE",
      "outputs": [
        {
          "internalType": "bytes32",
          "name": "",
          "type": "bytes32"
        }
      ],
      "stateMutability": "view",
      "type": "function"
    },
    {
      "inputs": [],
      "name": "BURNER_ROLE",
      "outputs": [
        {
          "internalType": "bytes32",
          "name": "",
          "type": "bytes32"
        }
      ],
      "stateMutability": "view",
      "type": "function"
    },
    {
      "inputs": [],
      "name": "DEFAULT_ADMIN_ROLE",
      "outputs": [
        {
          "internalType": "bytes32",
          "name": "",
          "type": "bytes32"
        }
      ],
      "stateMutability": "view",
      "type": "function"
    },
    {
      "inputs": [],
      "name": "MINTER_ROLE",
      "outputs": [
        {
          "internalType": "bytes32",
          "name": "",
          "type": "bytes32"
        }
      ],
      "stateMutability": "view",
      "type": "function"
    },
    {
      "inputs": [],
      "name": "PROJECT_ADMIN_ROLE",
      "outputs": [
        {
          "internalType": "bytes32",
          "name": "",
          "type": "bytes32"
        }
      ],
      "stateMutability": "view",
      "type": "function"
    },
    {
      "inputs": [
        {
          "internalType": "address",
          "name": "account",
          "type": "address"
        }
      ],
      "name": "addAdmin",
      "outputs": [],
      "stateMutability": "nonpayable",
      "type": "function"
    },
    {
      "inputs": [
        {
          "internalType": "uint256",
          "name": "tokenId",
          "type": "uint256"
        }
      ],
      "name": "claim",
      "outputs": [
        {
          "internalType": "bool",
          "name": "",
          "type": "bool"
        }
      ],
      "stateMutability": "nonpayable",
      "type": "function"
    },
    {
      "inputs": [
        {
          "internalType": "uint256",
          "name": "tokenId",
          "type": "uint256"
        },
        {
          "internalType": "uint128",
          "name": "amount0Max",
          "type": "uint128"
        },
        {
          "internalType": "uint128",
          "name": "amount1Max",
          "type": "uint128"
        }
      ],
      "name": "claimAndCollect",
      "outputs": [
        {
          "internalType": "bool",
          "name": "",
          "type": "bool"
        }
      ],
      "stateMutability": "nonpayable",
      "type": "function"
    },
    {
      "inputs": [],
      "name": "coinage",
      "outputs": [
        {
          "internalType": "address",
          "name": "",
          "type": "address"
        }
      ],
      "stateMutability": "view",
      "type": "function"
    },
    {
      "inputs": [],
      "name": "coinageLastMintBlockTimetamp",
      "outputs": [
        {
          "internalType": "uint256",
          "name": "",
          "type": "uint256"
        }
      ],
      "stateMutability": "view",
      "type": "function"
    },
    {
      "inputs": [
        {
          "internalType": "uint256",
          "name": "tokenId",
          "type": "uint256"
        },
        {
          "internalType": "uint128",
          "name": "amount0Max",
          "type": "uint128"
        },
        {
          "internalType": "uint128",
          "name": "amount1Max",
          "type": "uint128"
        }
      ],
      "name": "collect",
      "outputs": [
        {
          "internalType": "bool",
          "name": "",
          "type": "bool"
        }
      ],
      "stateMutability": "nonpayable",
      "type": "function"
    },
    {
      "inputs": [
        {
          "internalType": "uint256",
          "name": "tokenId",
          "type": "uint256"
        },
        {
          "internalType": "uint128",
          "name": "paramliquidity",
          "type": "uint128"
        },
        {
          "internalType": "uint256",
          "name": "amount0Min",
          "type": "uint256"
        },
        {
          "internalType": "uint256",
          "name": "amount1Min",
          "type": "uint256"
        },
        {
          "internalType": "uint256",
          "name": "deadline",
          "type": "uint256"
        }
      ],
      "name": "decreaseLiquidity",
      "outputs": [
        {
          "internalType": "bool",
          "name": "ret",
          "type": "bool"
        }
      ],
      "stateMutability": "payable",
      "type": "function"
    },
    {
      "inputs": [
        {
          "internalType": "uint256",
          "name": "",
          "type": "uint256"
        }
      ],
      "name": "depositTokens",
      "outputs": [
        {
          "internalType": "address",
          "name": "owner",
          "type": "address"
        },
        {
          "internalType": "uint256",
          "name": "idIndex",
          "type": "uint256"
        },
        {
          "internalType": "uint128",
          "name": "liquidity",
          "type": "uint128"
        },
        {
          "internalType": "int24",
          "name": "tickLower",
          "type": "int24"
        },
        {
          "internalType": "int24",
          "name": "tickUpper",
          "type": "int24"
        },
        {
          "internalType": "uint32",
          "name": "startTime",
          "type": "uint32"
        },
        {
          "internalType": "uint32",
          "name": "claimedTime",
          "type": "uint32"
        },
        {
          "internalType": "uint160",
          "name": "secondsInsideInitial",
          "type": "uint160"
        },
        {
          "internalType": "uint160",
          "name": "secondsInsideLast",
          "type": "uint160"
        },
        {
          "internalType": "bool",
          "name": "claimLock",
          "type": "bool"
        },
        {
          "internalType": "bool",
          "name": "withdraw",
          "type": "bool"
        }
      ],
      "stateMutability": "view",
      "type": "function"
    },
    {
      "inputs": [
        {
          "internalType": "uint256",
          "name": "tokenId",
          "type": "uint256"
        }
      ],
      "name": "getMiningTokenId",
      "outputs": [
        {
          "internalType": "uint256",
          "name": "miningAmount",
          "type": "uint256"
        },
        {
          "internalType": "uint256",
          "name": "nonMiningAmount",
          "type": "uint256"
        },
        {
          "internalType": "uint256",
          "name": "minableAmount",
          "type": "uint256"
        },
        {
          "internalType": "uint160",
          "name": "secondsInside",
          "type": "uint160"
        },
        {
          "internalType": "uint256",
          "name": "secondsInsideDiff256",
          "type": "uint256"
        },
        {
          "internalType": "uint256",
          "name": "liquidity",
          "type": "uint256"
        },
        {
          "internalType": "uint256",
          "name": "balanceOfTokenIdRay",
          "type": "uint256"
        },
        {
          "internalType": "uint256",
          "name": "minableAmountRay",
          "type": "uint256"
        },
        {
          "internalType": "uint256",
          "name": "secondsInside256",
          "type": "uint256"
        },
        {
          "internalType": "uint256",
          "name": "secondsAbsolute256",
          "type": "uint256"
        }
      ],
      "stateMutability": "view",
      "type": "function"
    },
    {
      "inputs": [
        {
          "internalType": "bytes32",
          "name": "role",
          "type": "bytes32"
        }
      ],
      "name": "getRoleAdmin",
      "outputs": [
        {
          "internalType": "bytes32",
          "name": "",
          "type": "bytes32"
        }
      ],
      "stateMutability": "view",
      "type": "function"
    },
    {
      "inputs": [
        {
          "internalType": "bytes32",
          "name": "role",
          "type": "bytes32"
        },
        {
          "internalType": "uint256",
          "name": "index",
          "type": "uint256"
        }
      ],
      "name": "getRoleMember",
      "outputs": [
        {
          "internalType": "address",
          "name": "",
          "type": "address"
        }
      ],
      "stateMutability": "view",
      "type": "function"
    },
    {
      "inputs": [
        {
          "internalType": "bytes32",
          "name": "role",
          "type": "bytes32"
        }
      ],
      "name": "getRoleMemberCount",
      "outputs": [
        {
          "internalType": "uint256",
          "name": "",
          "type": "uint256"
        }
      ],
      "stateMutability": "view",
      "type": "function"
    },
    {
      "inputs": [
        {
          "internalType": "bytes32",
          "name": "role",
          "type": "bytes32"
        },
        {
          "internalType": "address",
          "name": "account",
          "type": "address"
        }
      ],
      "name": "grantRole",
      "outputs": [],
      "stateMutability": "nonpayable",
      "type": "function"
    },
    {
      "inputs": [
        {
          "internalType": "bytes32",
          "name": "role",
          "type": "bytes32"
        },
        {
          "internalType": "address",
          "name": "account",
          "type": "address"
        }
      ],
      "name": "hasRole",
      "outputs": [
        {
          "internalType": "bool",
          "name": "",
          "type": "bool"
        }
      ],
      "stateMutability": "view",
      "type": "function"
    },
    {
      "inputs": [
        {
          "internalType": "uint256",
          "name": "tokenId",
          "type": "uint256"
        },
        {
          "internalType": "uint256",
          "name": "amount0Desired",
          "type": "uint256"
        },
        {
          "internalType": "uint256",
          "name": "amount1Desired",
          "type": "uint256"
        },
        {
          "internalType": "uint256",
          "name": "amount0Min",
          "type": "uint256"
        },
        {
          "internalType": "uint256",
          "name": "amount1Min",
          "type": "uint256"
        },
        {
          "internalType": "uint256",
          "name": "deadline",
          "type": "uint256"
        }
      ],
      "name": "increaseLiquidity",
      "outputs": [
        {
          "internalType": "bool",
          "name": "",
          "type": "bool"
        }
      ],
      "stateMutability": "payable",
      "type": "function"
    },
    {
      "inputs": [
        {
          "internalType": "address",
          "name": "account",
          "type": "address"
        }
      ],
      "name": "isAdmin",
      "outputs": [
        {
          "internalType": "bool",
          "name": "",
          "type": "bool"
        }
      ],
      "stateMutability": "view",
      "type": "function"
    },
    {
      "inputs": [],
      "name": "migratedL2",
      "outputs": [
        {
          "internalType": "bool",
          "name": "",
          "type": "bool"
        }
      ],
      "stateMutability": "view",
      "type": "function"
    },
    {
      "inputs": [],
      "name": "miningAmountTotal",
      "outputs": [
        {
          "internalType": "uint256",
          "name": "",
          "type": "uint256"
        }
      ],
      "stateMutability": "view",
      "type": "function"
    },
    {
      "inputs": [],
      "name": "miningCoinage",
      "outputs": [],
      "stateMutability": "nonpayable",
      "type": "function"
    },
    {
      "inputs": [],
      "name": "miningIntervalSeconds",
      "outputs": [
        {
          "internalType": "uint256",
          "name": "",
          "type": "uint256"
        }
      ],
      "stateMutability": "view",
      "type": "function"
    },
    {
      "inputs": [],
      "name": "nonMiningAmountTotal",
      "outputs": [
        {
          "internalType": "uint256",
          "name": "",
          "type": "uint256"
        }
      ],
      "stateMutability": "view",
      "type": "function"
    },
    {
      "inputs": [],
      "name": "nonfungiblePositionManager",
      "outputs": [
        {
          "internalType": "contract INonfungiblePositionManager",
          "name": "",
          "type": "address"
        }
      ],
      "stateMutability": "view",
      "type": "function"
    },
    {
      "inputs": [],
      "name": "pauseProxy",
      "outputs": [
        {
          "internalType": "bool",
          "name": "",
          "type": "bool"
        }
      ],
      "stateMutability": "view",
      "type": "function"
    },
    {
      "inputs": [],
      "name": "poolAddress",
      "outputs": [
        {
          "internalType": "address",
          "name": "",
          "type": "address"
        }
      ],
      "stateMutability": "view",
      "type": "function"
    },
    {
      "inputs": [],
      "name": "poolFee",
      "outputs": [
        {
          "internalType": "uint256",
          "name": "",
          "type": "uint256"
        }
      ],
      "stateMutability": "view",
      "type": "function"
    },
    {
      "inputs": [],
      "name": "poolToken0",
      "outputs": [
        {
          "internalType": "address",
          "name": "",
          "type": "address"
        }
      ],
      "stateMutability": "view",
      "type": "function"
    },
    {
      "inputs": [],
      "name": "poolToken1",
      "outputs": [
        {
          "internalType": "address",
          "name": "",
          "type": "address"
        }
      ],
      "stateMutability": "view",
      "type": "function"
    },
    {
      "inputs": [
        {
          "internalType": "address",
          "name": "account",
          "type": "address"
        }
      ],
      "name": "removeAdmin",
      "outputs": [],
      "stateMutability": "nonpayable",
      "type": "function"
    },
    {
      "inputs": [
        {
          "internalType": "bytes32",
          "name": "role",
          "type": "bytes32"
        },
        {
          "internalType": "address",
          "name": "account",
          "type": "address"
        }
      ],
      "name": "renounceRole",
      "outputs": [],
      "stateMutability": "nonpayable",
      "type": "function"
    },
    {
      "inputs": [
        {
          "internalType": "bytes32",
          "name": "role",
          "type": "bytes32"
        },
        {
          "internalType": "address",
          "name": "account",
          "type": "address"
        }
      ],
      "name": "revokeRole",
      "outputs": [],
      "stateMutability": "nonpayable",
      "type": "function"
    },
    {
      "inputs": [
        {
          "internalType": "address[]",
          "name": "tokens",
          "type": "address[]"
        },
        {
          "internalType": "uint256[]",
          "name": "totals",
          "type": "uint256[]"
        }
      ],
      "name": "safeApproveAll",
      "outputs": [
        {
          "internalType": "bool",
          "name": "",
          "type": "bool"
        }
      ],
      "stateMutability": "nonpayable",
      "type": "function"
    },
    {
      "inputs": [],
      "name": "saleStartTime",
      "outputs": [
        {
          "internalType": "uint256",
          "name": "",
          "type": "uint256"
        }
      ],
      "stateMutability": "view",
      "type": "function"
    },
    {
      "inputs": [],
      "name": "stakeRegistry",
      "outputs": [
        {
          "internalType": "address",
          "name": "",
          "type": "address"
        }
      ],
      "stateMutability": "view",
      "type": "function"
    },
    {
      "inputs": [],
      "name": "stakeStartTime",
      "outputs": [
        {
          "internalType": "uint256",
          "name": "",
          "type": "uint256"
        }
      ],
      "stateMutability": "view",
      "type": "function"
    },
    {
      "inputs": [
        {
          "internalType": "uint256",
          "name": "",
          "type": "uint256"
        }
      ],
      "name": "stakedCoinageTokens",
      "outputs": [
        {
          "internalType": "uint256",
          "name": "amount",
          "type": "uint256"
        },
        {
          "internalType": "uint32",
          "name": "startTime",
          "type": "uint32"
        },
        {
          "internalType": "uint32",
          "name": "claimedTime",
          "type": "uint32"
        },
        {
          "internalType": "uint256",
          "name": "claimedAmount",
          "type": "uint256"
        },
        {
          "internalType": "uint256",
          "name": "nonMiningAmount",
          "type": "uint256"
        }
      ],
      "stateMutability": "view",
      "type": "function"
    },
    {
      "inputs": [],
      "name": "token",
      "outputs": [
        {
          "internalType": "address",
          "name": "",
          "type": "address"
        }
      ],
      "stateMutability": "view",
      "type": "function"
    },
    {
      "inputs": [],
      "name": "totalStakedAmount",
      "outputs": [
        {
          "internalType": "uint256",
          "name": "",
          "type": "uint256"
        }
      ],
      "stateMutability": "view",
      "type": "function"
    },
    {
      "inputs": [],
      "name": "totalStakers",
      "outputs": [
        {
          "internalType": "uint256",
          "name": "",
          "type": "uint256"
        }
      ],
      "stateMutability": "view",
      "type": "function"
    },
    {
      "inputs": [],
      "name": "totalTokens",
      "outputs": [
        {
          "internalType": "uint256",
          "name": "",
          "type": "uint256"
        }
      ],
      "stateMutability": "view",
      "type": "function"
    },
    {
      "inputs": [
        {
          "internalType": "address",
          "name": "newAdmin",
          "type": "address"
        }
      ],
      "name": "transferAdmin",
      "outputs": [],
      "stateMutability": "nonpayable",
      "type": "function"
    },
    {
      "inputs": [],
      "name": "uniswapV3FactoryAddress",
      "outputs": [
        {
          "internalType": "address",
          "name": "",
          "type": "address"
        }
      ],
      "stateMutability": "view",
      "type": "function"
    },
    {
      "inputs": [
        {
          "internalType": "address",
          "name": "",
          "type": "address"
        },
        {
          "internalType": "uint256",
          "name": "",
          "type": "uint256"
        }
      ],
      "name": "userStakedTokenIds",
      "outputs": [
        {
          "internalType": "uint256",
          "name": "",
          "type": "uint256"
        }
      ],
      "stateMutability": "view",
      "type": "function"
    },
    {
      "inputs": [
        {
          "internalType": "address",
          "name": "",
          "type": "address"
        }
      ],
      "name": "userTotalStaked",
      "outputs": [
        {
          "internalType": "bool",
          "name": "staked",
          "type": "bool"
        },
        {
          "internalType": "uint256",
          "name": "totalDepositAmount",
          "type": "uint256"
        },
        {
          "internalType": "uint256",
          "name": "totalMiningAmount",
          "type": "uint256"
        },
        {
          "internalType": "uint256",
          "name": "totalNonMiningAmount",
          "type": "uint256"
        }
      ],
      "stateMutability": "view",
      "type": "function"
    },
    {
      "inputs": [],
      "name": "vault",
      "outputs": [
        {
          "internalType": "address",
          "name": "",
          "type": "address"
        }
      ],
      "stateMutability": "view",
      "type": "function"
    },
    {
      "inputs": [
        {
          "internalType": "uint256",
          "name": "tokenId",
          "type": "uint256"
        }
      ],
      "name": "withdraw",
      "outputs": [
        {
          "internalType": "bool",
          "name": "",
          "type": "bool"
        }
      ],
      "stateMutability": "nonpayable",
      "type": "function"
    },
    {
      "stateMutability": "payable",
      "type": "receive"
    }
  ],
  "bytecode": "0x60806040523480156200001157600080fd5b506200002d60008051602062004696833981519152806200004e565b620000486000805160206200469683398151915233620000a0565b620001b6565b6000828152601a6020526040808220600201549051839285917fbd79b86ffe0ab8e8776151514217cd7cacd52c909f66475c3af44e129f0b00ff9190a46000918252601a602052604090912060020155565b620000ac8282620000b0565b5050565b6000828152601a60209081526040909120620000d791839062002c2b6200012b821b17901c565b15620000ac57620000e76200014b565b6001600160a01b0316816001600160a01b0316837f2f8788117e7eff1d82e926ec794901d17c78024a50270940304540a733656f0d60405160405180910390a45050565b600062000142836001600160a01b0384166200014f565b90505b92915050565b3390565b60006200015d83836200019e565b620001955750815460018181018455600084815260208082209093018490558454848252828601909352604090209190915562000145565b50600062000145565b60009081526001919091016020526040902054151590565b6144d080620001c66000396000f3fe6080604052600436106102ad5760003560e01c80637048027511610165578063a217fddf116100cc578063ca15c87311610085578063ca15c8731461074d578063d53913931461076d578063d547741f14610782578063dd49756e146107a2578063ecce6c40146107d9578063fbfa77cf1461080f578063fc0c546a14610824576102b7565b8063a217fddf146106b3578063a73bf6df146106c8578063ad1b3909146106dd578063af182fce146106f2578063b44a272214610707578063b8ebb1331461071c576102b7565b8063807f77381161011e578063807f77381461061457806380f5db8c1461063457806386989038146106495780639010d07c1461065e57806391d148541461067e578063a1f5f50e1461069e576102b7565b80637048027514610565578063719de1ef146105855780637419f190146105b557806375829def146105ca57806375b238fc146105ea5780637e1c0c09146105ff576102b7565b80632e1a7d4d1161021457806341c04d5e116101cd57806341c04d5e146104c75780634758af8a146104dc57806349cba16c146104f1578063567e98f9146105115780635f139e3f1461052657806363a8fd891461053b5780636830483514610550576102b7565b80632e1a7d4d146104075780632f2ff15d1461042757806336568abe14610447578063379607f5146104675780633a61ad63146104875780633e165bfe146104a7576102b7565b80631785f53c116102665780631785f53c146103685780631cbaee2d14610388578063248a9ca31461039d57806324d7806c146103bd578063282c51f3146103dd5780632867bb5b146103f2576102b7565b806302ff153e146102bc57806303a3f2ab146102e7578063089fe6aa146103075780630a5b631d1461031c57806312d7b2c4146103335780631755ff2114610346576102b7565b366102b757600080fd5b600080fd5b3480156102c857600080fd5b506102d1610839565b6040516102de9190613d34565b60405180910390f35b6102fa6102f5366004613a5e565b61083f565b6040516102de9190613d0c565b34801561031357600080fd5b506102d1610c89565b34801561032857600080fd5b50610331610c8f565b005b6102fa610341366004613ac8565b6111b9565b34801561035257600080fd5b5061035b61165b565b6040516102de9190613bef565b34801561037457600080fd5b506103316103833660046137c1565b61166a565b34801561039457600080fd5b506102d16116c9565b3480156103a957600080fd5b506102d16103b836600461388b565b6116cf565b3480156103c957600080fd5b506102fa6103d83660046137c1565b6116e7565b3480156103e957600080fd5b506102d1611707565b3480156103fe57600080fd5b506102d161172b565b34801561041357600080fd5b506102fa61042236600461388b565b611731565b34801561043357600080fd5b506103316104423660046138a3565b611b42565b34801561045357600080fd5b506103316104623660046138a3565b611ba9565b34801561047357600080fd5b506102fa61048236600461388b565b611c0a565b34801561049357600080fd5b506102fa6104a2366004613808565b611f65565b3480156104b357600080fd5b506102fa6104c2366004613a28565b61203e565b3480156104d357600080fd5b506102d1612096565b3480156104e857600080fd5b5061035b6120ba565b3480156104fd57600080fd5b506102d161050c3660046137dd565b6120c9565b34801561051d57600080fd5b506102d16120fa565b34801561053257600080fd5b506102d1612100565b34801561054757600080fd5b506102fa612106565b34801561055c57600080fd5b5061035b61210f565b34801561057157600080fd5b506103316105803660046137c1565b61211e565b34801561059157600080fd5b506105a56105a03660046137c1565b61217a565b6040516102de9493929190613d17565b3480156105c157600080fd5b506102d16121a5565b3480156105d657600080fd5b506103316105e53660046137c1565b6121ab565b3480156105f657600080fd5b506102d16122cc565b34801561060b57600080fd5b506102d16122de565b34801561062057600080fd5b506102fa61062f366004613a28565b6122e4565b34801561064057600080fd5b5061035b6125e8565b34801561065557600080fd5b506102d16125f7565b34801561066a57600080fd5b5061035b6106793660046138d2565b6125fd565b34801561068a57600080fd5b506102fa6106993660046138a3565b61261c565b3480156106aa57600080fd5b506102fa612634565b3480156106bf57600080fd5b506102d161263d565b3480156106d457600080fd5b5061035b612642565b3480156106e957600080fd5b5061035b612651565b3480156106fe57600080fd5b506102d1612660565b34801561071357600080fd5b5061035b612666565b34801561072857600080fd5b5061073c61073736600461388b565b612675565b6040516102de959493929190614331565b34801561075957600080fd5b506102d161076836600461388b565b6126ae565b34801561077957600080fd5b506102d16126c5565b34801561078e57600080fd5b5061033161079d3660046138a3565b6126e9565b3480156107ae57600080fd5b506107c26107bd36600461388b565b612742565b6040516102de9b9a99989796959493929190613c87565b3480156107e557600080fd5b506107f96107f436600461388b565b6127cc565b6040516102de9a999897969594939291906142bb565b34801561081b57600080fd5b5061035b612c0d565b34801561083057600080fd5b5061035b612c1c565b60175481565b600085815260076020526040812080546001600160a01b0316331461087f5760405162461bcd60e51b815260040161087690614151565b60405180910390fd5b60028101546001600160801b038088169116116108ae5760405162461bcd60e51b815260040161087690613fac565b6004810154600160a01b900460ff161580156108d657506004810154600160a81b900460ff16155b6108f25760405162461bcd60e51b815260040161087690613ffa565b60028082015461091491600160801b8204810b91600160981b9004900b612c40565b6109305760405162461bcd60e51b815260040161087690613f68565b60048101805460ff60a01b1916600160a01b17905560019150610951610c8f565b6014546040805160a0810182528981526001600160801b038916602082015280820188905260608101879052608081018690529051630624e65f60e11b815260009283926001600160a01b0390911691630c49ccbe916109b39160040161420a565b6040805180830381600087803b1580156109cc57600080fd5b505af11580156109e0573d6000803e3d6000fd5b505050506040513d601f19601f82011682018060405250810190610a049190613aa5565b60145460405163133f757160e31b8152929450909250600091829182916001600160a01b03909116906399fbab8890610a41908f90600401613d34565b6101806040518083038186803b158015610a5a57600080fd5b505afa158015610a6e573d6000803e3d6000fd5b505050506040513d601f19601f82011682018060405250810190610a929190613b0a565b505050509750975097505050505050828660020160106101000a81548162ffffff021916908360020b62ffffff160217905550818660020160136101000a81548162ffffff021916908360020b62ffffff16021790555060008c90506000828860020160009054906101000a90046001600160801b0316039050828860020160006101000a8154816001600160801b0302191690836001600160801b03160217905550610b53816001600160801b0316600554612d0490919063ffffffff16565b6005553360009081526009602052604090206001810154610b7d906001600160801b038416612d04565b600182015560008381526008602052604090208054610ba5906001600160801b038516612d04565b8155601654899089906001600160a01b031663f5298aca3388610bd56001600160801b038a16633b9aca00612d46565b6040518463ffffffff1660e01b8152600401610bf393929190613c40565b600060405180830381600087803b158015610c0d57600080fd5b505af1158015610c21573d6000803e3d6000fd5b50505060048d01805460ff60a01b1916905550604051869033907f4e05983140542d4bfb5fba3de2f1f239c07240423a7f357cbad4b42d9a9df86990610c6c9089908790879061428c565b60405180910390a350505050505050505050505095945050505050565b60135481565b600b5415610ce4576040805162461bcd60e51b815260206004820152601d60248201527f5374616b65556e6973776170563353746f726167653a204c4f434b4544000000604482015290519081900360640190fd5b6001600b55600e541580610cf9575042600e54115b15610d03576111b2565b600d541580610d13575042600d54115b15610d1d576111b2565b60025460408051632736b39160e01b815290516000926001600160a01b031691632736b391916004808301926020929190829003018186803b158015610d6257600080fd5b505afa158015610d76573d6000803e3d6000fd5b505050506040513d601f19601f82011682018060405250810190610d9a9190613a10565b90504281811115610da85750805b6002546040805162fc469360e11b8152905142926001600160a01b0316916301f88d26916004808301926020929190829003018186803b158015610deb57600080fd5b505afa158015610dff573d6000803e3d6000fd5b505050506040513d601f19601f82011682018060405250810190610e239190613a10565b1180610ec357506000601754118015610ec35750601754600260009054906101000a90046001600160a01b03166001600160a01b0316632736b3916040518163ffffffff1660e01b815260040160206040518083038186803b158015610e8857600080fd5b505afa158015610e9c573d6000803e3d6000fd5b505050506040513d601f19601f82011682018060405250810190610ec09190613a10565b11155b15610ecf5750506111b2565b601754610edd57600d546017555b600f54601754610eec91612d9f565b8111156111af576000610f0a60175483612d0490919063ffffffff16565b90506000610f9e600260009054906101000a90046001600160a01b03166001600160a01b0316634ce77abe6040518163ffffffff1660e01b815260040160206040518083038186803b158015610f5f57600080fd5b505afa158015610f73573d6000803e3d6000fd5b505050506040513d601f19601f82011682018060405250810190610f979190613a10565b8390612d46565b90506000601660009054906101000a90046001600160a01b03166001600160a01b03166318160ddd6040518163ffffffff1660e01b815260040160206040518083038186803b158015610ff057600080fd5b505afa158015611004573d6000803e3d6000fd5b505050506040513d601f19601f820116820180604052508101906110289190613a10565b905060008211801561103a5750600081115b156111ab57600061105961105284633b9aca00612d46565b8390612d9f565b60165460408051630a9ee07f60e31b815290519293506000926001600160a01b039092169163817e9d31916110f0918791879186916354f703f8916004808301926020929190829003018186803b1580156110b357600080fd5b505afa1580156110c7573d6000803e3d6000fd5b505050506040513d601f19601f820116820180604052508101906110eb9190613a10565b612df9565b6040518263ffffffff1660e01b815260040161110c9190613d34565b602060405180830381600087803b15801561112657600080fd5b505af115801561113a573d6000803e3d6000fd5b505050506040513d601f19601f8201168201806040525081019061115e9190613a10565b9050856017819055507fe8c31506e2202c904fc838af92d6a36a6a155eab78cc591af005df916d3ccaf84286868686866040516111a096959493929190614309565b60405180910390a150505b5050505b50505b6000600b55565b600086815260076020526040812080546001600160a01b031633146111f05760405162461bcd60e51b815260040161087690614151565b6004810154600160a01b900460ff1615801561121857506004810154600160a81b900460ff16155b6112345760405162461bcd60e51b815260040161087690613ffa565b6010546001600160a01b03161580159061125857506011546001600160a01b031615155b6112745760405162461bcd60e51b815260040161087690613d51565b60028082015461129691600160801b8204810b91600160981b9004900b612c40565b6112b25760405162461bcd60e51b815260040161087690613f68565b60048101805460ff60a01b1916600160a01b1790556112cf610c8f565b6010546112e7906001600160a01b031633308a612e16565b6011546112ff906001600160a01b0316333089612e16565b6014546040805160c0810182528a8152602081018a9052808201899052606081018890526080810187905260a08101869052905163219f5d1760e01b8152600092839283926001600160a01b039092169163219f5d179161136291600401614248565b606060405180830381600087803b15801561137c57600080fd5b505af1158015611390573d6000803e3d6000fd5b505050506040513d601f19601f820116820180604052508101906113b4919061394c565b925092509250600080601460009054906101000a90046001600160a01b03166001600160a01b03166399fbab888e6040518263ffffffff1660e01b81526004016113fe9190613d34565b6101806040518083038186803b15801561141757600080fd5b505afa15801561142b573d6000803e3d6000fd5b505050506040513d601f19601f8201168201806040525081019061144f9190613b0a565b5050505050965096505050505050848660020160008282829054906101000a90046001600160801b03160192506101000a8154816001600160801b0302191690836001600160801b03160217905550818660020160106101000a81548162ffffff021916908360020b62ffffff160217905550808660020160136101000a81548162ffffff021916908360020b62ffffff160217905550611504856001600160801b0316600554612d9f90919063ffffffff16565b60055533600090815260096020526040902060018101548e9190611531906001600160801b038916612d9f565b600182015560008281526008602052604090208054611559906001600160801b038a16612d9f565b81556016546001600160a01b031663156e29f633856115856001600160801b038d16633b9aca00612d46565b6040518463ffffffff1660e01b81526004016115a393929190613c40565b602060405180830381600087803b1580156115bd57600080fd5b505af11580156115d1573d6000803e3d6000fd5b505050506040513d601f19601f820116820180604052508101906115f59190613871565b5060048901805460ff60a01b19169055604051839033907fbbfd574aa5676e33ff3c8a80067760871053498657daf787ed429d6a78063c609061163d908c908c908c9061428c565b60405180910390a35060019f9e505050505050505050505050505050565b6012546001600160a01b031681565b611673336116e7565b6116ae5760405162461bcd60e51b81526004018080602001828103825260228152602001806143d96022913960400191505060405180910390fd5b6116c660008051602061444c83398151915282611ba9565b50565b600e5481565b6000818152601a60205260409020600201545b919050565b600061170160008051602061444c8339815191528361261c565b92915050565b7f9667e80708b6eeeb0053fa0cca44e028ff548e2a9f029edfeac87c118b08b7c881565b600f5481565b600081815260076020526040812080546001600160a01b031633146117685760405162461bcd60e51b81526004016108769061407f565b6004810154600160a81b900460ff16156117945760405162461bcd60e51b815260040161087690613e8f565b60048101805460ff60a81b1916600160a81b1790556117b1610c8f565b60028101546005546001600160801b03909116116117e75760028101546005546117e3916001600160801b0316612d04565b6005555b60185415611801576018546117fd906001612d04565b6018555b600080600061180f866127cc565b5050601654604051636621a02560e01b8152989b50969950949750506001600160a01b0390941694636621a025945061185193503392508b9150600401613c27565b600060405180830381600087803b15801561186b57600080fd5b505af115801561187f573d6000803e3d6000fd5b5050336000908152600960205260409020600287015460018201549193506118b092506001600160801b0316612d04565b600182015560028101546118c49085612d9f565b600282015560038101546118d89084612d9f565b600380830191909155546118ec9085612d9f565b6003556004546118fc9084612d9f565b6004558454600186015461191b916001600160a01b0316908990612f6e565b600087815260076020908152604080832080546001600160a01b031990811682556001808301869055600280840180546001600160f01b031916905560038085018054909416909355600490930180546001600160b01b03191690556008909452918420848155808401805467ffffffffffffffff1916905590810184905501919091558101546119e157600a546119b4906001612d04565b600a55336000908152600960205260408120805460ff191681556001810182905560028101829055600301555b8115611a8b57600254604051633c09d84560e21b81526001600160a01b039091169063f027611490611a1d903390869089908990600401613c61565b602060405180830381600087803b158015611a3757600080fd5b505af1158015611a4b573d6000803e3d6000fd5b505050506040513d601f19601f82011682018060405250810190611a6f9190613871565b611a8b5760405162461bcd60e51b815260040161087690613de0565b601454604051632142170760e11b81526001600160a01b03909116906342842e0e90611abf90309033908c90600401613c03565b600060405180830381600087803b158015611ad957600080fd5b505af1158015611aed573d6000803e3d6000fd5b5050505086336001600160a01b03167faed5c5198ccd7615c0128c72fcfc060e97b14315cb791a46bf42b5b6f36c38b98686604051611b2d9291906142ad565b60405180910390a35060019695505050505050565b6000828152601a6020526040902060020154611b60906106996130c4565b611b9b5760405162461bcd60e51b815260040180806020018281038252602f8152602001806143aa602f913960400191505060405180910390fd5b611ba582826130c8565b5050565b611bb16130c4565b6001600160a01b0316816001600160a01b031614611c005760405162461bcd60e51b815260040180806020018281038252602f81526020018061446c602f913960400191505060405180910390fd5b611ba58282613131565b600081815260076020526040812080546001600160a01b03163314611c415760405162461bcd60e51b81526004016108769061407f565b600f54611c4f904290612d04565b600282015463ffffffff918216600160d01b90910490911610611c845760405162461bcd60e51b8152600401610876906140c1565b6004810154600160a01b900460ff1615611cb05760405162461bcd60e51b815260040161087690614192565b60048101805460ff60a01b1916600160a01b179055611ccd610c8f565b6000806000806000611cde886127cc565b50509750505050945094509450945060008511611d0d5760405162461bcd60e51b815260040161087690614108565b60028601805463ffffffff60d01b1916600160d01b4263ffffffff1602179055600480870180546001600160a01b0319166001600160a01b0385811691909117909155601654604051637a94c56560e11b815291169163f5298aca91611d799133918d91879101613c40565b600060405180830381600087803b158015611d9357600080fd5b505af1158015611da7573d6000803e3d6000fd5b505050600089815260086020526040902060018101805463ffffffff4281166401000000000267ffffffff0000000019909216919091179091556002820154919250611df691908890612d9f16565b60028201556003810154611e0a9086612d9f565b60038201553360009081526009602052604090206002810154611e2d9088612d9f565b60028201556003810154611e419087612d9f565b60038083019190915554611e559088612d9f565b600355600454611e659087612d9f565b6004908155600254604051633c09d84560e21b81526001600160a01b039091169163f027611491611e9e9133918a918d918d9101613c61565b602060405180830381600087803b158015611eb857600080fd5b505af1158015611ecc573d6000803e3d6000fd5b505050506040513d601f19601f82011682018060405250810190611ef09190613871565b611ef957600080fd5b60048801805460ff60a01b191690556012546040518b9133917f7844b7eab4ee04c913dcbd13470fe9a8a84a32d92b9622279e492da597fa658a91611f4d916001600160a01b03909116908c908c90613c40565b60405180910390a35060019998505050505050505050565b6000838214611f865760405162461bcd60e51b81526004016108769061403c565b60005b84811015612032576000868683818110611f9f57fe5b9050602002016020810190611fb491906137c1565b6001600160a01b031614158015611fdd57506000848483818110611fd457fe5b90506020020135115b1561202a5761202a868683818110611ff157fe5b905060200201602081019061200691906137c1565b6014546001600160a01b031686868581811061201e57fe5b9050602002013561319a565b600101611f89565b50600195945050505050565b600061204984611c0a565b6120655760405162461bcd60e51b815260040161087690613e0a565b6120708484846122e4565b61208c5760405162461bcd60e51b815260040161087690613f24565b5060019392505050565b7f52eafc11f6f81f86878bffd31109a0d92f37506527754f00788853ff9f63b13081565b6011546001600160a01b031681565b600660205281600052604060002081815481106120e557600080fd5b90600052602060002001600091509150505481565b60055481565b60035481565b600c5460ff1681565b6001546001600160a01b031681565b612127336116e7565b6121625760405162461bcd60e51b81526004018080602001828103825260228152602001806143d96022913960400191505060405180910390fd5b6116c660008051602061444c83398151915282611b42565b600960205260009081526040902080546001820154600283015460039093015460ff90921692909184565b600d5481565b6121b4336116e7565b6121ef5760405162461bcd60e51b81526004018080602001828103825260228152602001806143d96022913960400191505060405180910390fd5b6001600160a01b038116612245576040805162461bcd60e51b815260206004820152601860248201527741636365737369626c653a207a65726f206164647265737360401b604482015290519081900360640190fd5b336001600160a01b038216141561229c576040805162461bcd60e51b815260206004820152601660248201527520b1b1b2b9b9b4b136329d1039b0b6b29030b236b4b760511b604482015290519081900360640190fd5b6122b460008051602061444c83398151915282611b42565b6116c660008051602061444c83398151915233611ba9565b60008051602061444c83398151915281565b60185481565b600083815260076020526040812080546001600160a01b0316331461231b5760405162461bcd60e51b815260040161087690614151565b6004810154600160a01b900460ff1615801561234357506004810154600160a81b900460ff16155b61235f5760405162461bcd60e51b815260040161087690613ffa565b6010546001600160a01b03161580159061238357506011546001600160a01b031615155b61239f5760405162461bcd60e51b815260040161087690613d51565b60145460405163133f757160e31b815260009182916001600160a01b03909116906399fbab88906123d4908a90600401613d34565b6101806040518083038186803b1580156123ed57600080fd5b505afa158015612401573d6000803e3d6000fd5b505050506040513d601f19601f820116820180604052508101906124259190613b0a565b9b509b5050505050505050505050816001600160801b0316866001600160801b0316111580156124675750806001600160801b0316856001600160801b031611155b6124835760405162461bcd60e51b815260040161087690613ed2565b6000866001600160801b031611806124a457506000856001600160801b0316115b6124c05760405162461bcd60e51b815260040161087690613e4c565b6004808401805460ff60a01b1916600160a01b179055601454604080516080810182528a815286546001600160a01b0390811660208301526001600160801b03808c16838501528a166060830152915163fc6f786560e01b81526000948594939093169263fc6f786592612536929091016141c7565b6040805180830381600087803b15801561254f57600080fd5b505af1158015612563573d6000803e3d6000fd5b505050506040513d601f19601f820116820180604052508101906125879190613aa5565b60048701805460ff60a01b191690556040519193509150899033907ff9a79c1b6a462dd0a0474320e49600936f13081d632d215ad60022a209a1b5fb906125d190869086906142ad565b60405180910390a350600198975050505050505050565b6015546001600160a01b031681565b600a5481565b6000828152601a6020526040812061261590836132e1565b9392505050565b6000828152601a6020526040812061261590836132ed565b60195460ff1681565b600081565b6010546001600160a01b031681565b6016546001600160a01b031681565b60045481565b6014546001600160a01b031681565b6008602052600090815260409020805460018201546002830154600390930154919263ffffffff80831693640100000000909304169185565b6000818152601a6020526040812061170190613302565b7ff0887ba65ee2024ea881d91b74c2450ef19e1557f03bed3ea9f16b037cbe2dc981565b6000828152601a6020526040902060020154612707906106996130c4565b611c005760405162461bcd60e51b81526004018080602001828103825260308152602001806143fb6030913960400191505060405180910390fd5b60076020526000908152604090208054600182015460028084015460038501546004909501546001600160a01b039485169593946001600160801b03831694600160801b8404850b94600160981b8504900b9363ffffffff600160b01b8204811694600160d01b90920416929182169181169060ff600160a01b8204811691600160a81b9004168b565b60008060008060008060008060008042600d541080156127ed575042600d54105b15612c00576000600760008d815260200190815260200160002090508060020160009054906101000a90046001600160801b03166001600160801b031695506000601660009054906101000a90046001600160a01b03166001600160a01b0316639cc7f7088e6040518263ffffffff1660e01b815260040161286f9190613d34565b60206040518083038186803b15801561288757600080fd5b505afa15801561289b573d6000803e3d6000fd5b505050506040513d601f19601f820116820180604052508101906128bf9190613a10565b60025460408051632736b39160e01b8152905192985042926000926001600160a01b031691632736b391916004808301926020929190829003018186803b15801561290957600080fd5b505afa15801561291d573d6000803e3d6000fd5b505050506040513d601f19601f820116820180604052508101906129419190613a10565b90508082111561294f578091505b60028401546001600160801b03161580159061296b5750600088115b15612bfb5761297e89633b9aca00612d46565b8811156129b05761299d6129968a633b9aca00612d46565b8990612d04565b96506129ad87633b9aca0061330d565b9b505b8b15612bfb576012546002808601546040516351c403f960e11b81526001600160a01b039093169263a38807f292612a0092600160801b8104820b92600160981b90910490910b90600401613d3d565b60606040518083038186803b158015612a1857600080fd5b505afa158015612a2c573d6000803e3d6000fd5b505050506040513d601f19601f82011682018060405250810190612a5091906138f3565b600287015463ffffffff9182169e508e9950600160d01b900416159150612a9c9050576002840154612a959063ffffffff84811691600160d01b900481169061334f16565b9250612ac1565b6002840154612abe9063ffffffff84811691600160b01b900481169061334f16565b92505b63ffffffff831694508415612bfb5760048401546001600160a01b031615612b4e5760048401546001600160a01b03908116908c161015612b2d576004840154612b2690612b1f9063ffffffff906001600160a01b0316612d048216565b8790612d9f565b9950612b49565b6004840154612b469087906001600160a01b0316612d04565b99505b612ba6565b60038401546001600160a01b03908116908c161015612b8a576003840154612b4690612b1f9063ffffffff906001600160a01b0316612d048216565b6003840154612ba39087906001600160a01b0316612d04565b99505b848a108015612bb5575060008a115b15612be157612bce85612bc88e8d612d46565b9061330d565b9d50612bda8c8f612d04565b9c50612bfb565b8915612bf3578b9d5060009c50612bfb565b8b9c5060009d505b505050505b9193959799509193959799565b6002546001600160a01b031681565b6000546001600160a01b031681565b6000612615836001600160a01b03841661336d565b600080601260009054906101000a90046001600160a01b03166001600160a01b0316633850c7bd6040518163ffffffff1660e01b815260040160e06040518083038186803b158015612c9157600080fd5b505afa158015612ca5573d6000803e3d6000fd5b505050506040513d601f19601f82011682018060405250810190612cc99190613982565b50505050509150508060020b8460020b128015612ceb57508260020b8160020b125b15612cfa576001915050611701565b6000915050611701565b600061261583836040518060400160405280601e81526020017f536166654d6174683a207375627472616374696f6e206f766572666c6f7700008152506133b7565b600082612d5557506000611701565b82820282848281612d6257fe5b04146126155760405162461bcd60e51b815260040180806020018281038252602181526020018061442b6021913960400191505060405180910390fd5b600082820183811015612615576040805162461bcd60e51b815260206004820152601b60248201527f536166654d6174683a206164646974696f6e206f766572666c6f770000000000604482015290519081900360640190fd5b6000612e0e612e08848461344e565b8561348f565b949350505050565b604080516001600160a01b0385811660248301528481166044830152606480830185905283518084039091018152608490920183526020820180516001600160e01b03166323b872dd60e01b178152925182516000948594938a169392918291908083835b60208310612e9a5780518252601f199092019160209182019101612e7b565b6001836020036101000a0380198251168184511680821785525050505050509050019150506000604051808303816000865af19150503d8060008114612efc576040519150601f19603f3d011682016040523d82523d6000602084013e612f01565b606091505b5091509150818015612f2f575080511580612f2f5750808060200190516020811015612f2c57600080fd5b50515b612f66576040805162461bcd60e51b815260206004820152600360248201526229aa2360e91b604482015290519081900360640190fd5b505050505050565b6001600160a01b0383166000908152600660205260408120805483908110612f9257fe5b90600052602060002001549050828114612fbe5760405162461bcd60e51b815260040161087690613d9a565b6001600160a01b038416600090815260066020526040812054612fe2906001612d04565b9050600084118015612ff357508382145b156130bd5780831015613085576001600160a01b038516600090815260066020526040812080548390811061302457fe5b906000526020600020015490508060066000886001600160a01b03166001600160a01b03168152602001908152602001600020858154811061306257fe5b600091825260208083209091019290925591825260079052604090206001018390555b6001600160a01b03851660009081526006602052604090208054806130a657fe5b600190038181906000526020600020016000905590555b5050505050565b3390565b6000828152601a602052604090206130e09082612c2b565b15611ba5576130ed6130c4565b6001600160a01b0316816001600160a01b0316837f2f8788117e7eff1d82e926ec794901d17c78024a50270940304540a733656f0d60405160405180910390a45050565b6000828152601a6020526040902061314990826134b3565b15611ba5576131566130c4565b6001600160a01b0316816001600160a01b0316837ff6391f5c32d9c69d2a47ea670b442974b53935d1edc7fd64eb21e047a839171b60405160405180910390a45050565b604080516001600160a01b038481166024830152604480830185905283518084039091018152606490920183526020820180516001600160e01b031663095ea7b360e01b1781529251825160009485949389169392918291908083835b602083106132165780518252601f1990920191602091820191016131f7565b6001836020036101000a0380198251168184511680821785525050505050509050019150506000604051808303816000865af19150503d8060008114613278576040519150601f19603f3d011682016040523d82523d6000602084013e61327d565b606091505b50915091508180156132ab5750805115806132ab57508080602001905160208110156132a857600080fd5b50515b6130bd576040805162461bcd60e51b8152602060048201526002602482015261534160f01b604482015290519081900360640190fd5b600061261583836134c8565b6000612615836001600160a01b03841661352c565b600061170182613544565b600061261583836040518060400160405280601a81526020017f536166654d6174683a206469766973696f6e206279207a65726f000000000000815250613548565b60008263ffffffff168263ffffffff16111561336757fe5b50900390565b6000613379838361352c565b6133af57508154600181810184556000848152602080822090930184905584548482528286019093526040902091909155611701565b506000611701565b600081848411156134465760405162461bcd60e51b81526004018080602001828103825283818151815260200191508051906020019080838360005b8381101561340b5781810151838201526020016133f3565b50505050905090810190601f1680156134385780820380516001836020036101000a031916815260200191505b509250505060405180910390fd5b505050900390565b60006b033b2e3c9fd0803ce800000061348061346a85856135ad565b60026b033b2e3c9fd0803ce80000005b04613610565b8161348757fe5b049392505050565b6000816134806134ab856b033b2e3c9fd0803ce80000006135ad565b60028561347a565b6000612615836001600160a01b03841661365f565b8154600090821061350a5760405162461bcd60e51b81526004018080602001828103825260228152602001806143886022913960400191505060405180910390fd5b82600001828154811061351957fe5b9060005260206000200154905092915050565b60009081526001919091016020526040902054151590565b5490565b600081836135975760405162461bcd60e51b815260206004820181815283516024840152835190928392604490910191908501908083836000831561340b5781810151838201526020016133f3565b5060008385816135a357fe5b0495945050505050565b60008115806135c8575050808202828282816135c557fe5b04145b611701576040805162461bcd60e51b815260206004820152601460248201527364732d6d6174682d6d756c2d6f766572666c6f7760601b604482015290519081900360640190fd5b80820182811015611701576040805162461bcd60e51b815260206004820152601460248201527364732d6d6174682d6164642d6f766572666c6f7760601b604482015290519081900360640190fd5b60008181526001830160205260408120548015612cfa578354600019808301919081019060009087908390811061369257fe5b90600052602060002001549050808760000184815481106136af57fe5b6000918252602080832090910192909255828152600189810190925260409020908401905586548790806136df57fe5b60019003818190600052602060002001600090559055866001016000878152602001908152602001600020600090556001945050505050611701565b80516116e28161435d565b60008083601f840112613737578182fd5b50813567ffffffffffffffff81111561374e578182fd5b602083019150836020808302850101111561376857600080fd5b9250929050565b805180151581146116e257600080fd5b8051600281900b81146116e257600080fd5b80516116e281614372565b805161ffff811681146116e257600080fd5b805162ffffff811681146116e257600080fd5b6000602082840312156137d2578081fd5b81356126158161435d565b600080604083850312156137ef578081fd5b82356137fa8161435d565b946020939093013593505050565b6000806000806040858703121561381d578182fd5b843567ffffffffffffffff80821115613834578384fd5b61384088838901613726565b90965094506020870135915080821115613858578384fd5b5061386587828801613726565b95989497509550505050565b600060208284031215613882578081fd5b6126158261376f565b60006020828403121561389c578081fd5b5035919050565b600080604083850312156138b5578182fd5b8235915060208301356138c78161435d565b809150509250929050565b600080604083850312156138e4578182fd5b50508035926020909101359150565b600080600060608486031215613907578283fd5b83518060060b8114613917578384fd5b60208501519093506139288161435d565b604085015190925063ffffffff81168114613941578182fd5b809150509250925092565b600080600060608486031215613960578283fd5b835161396b81614372565b602085015160409095015190969495509392505050565b600080600080600080600060e0888a03121561399c578485fd5b87516139a78161435d565b96506139b56020890161377f565b95506139c36040890161379c565b94506139d16060890161379c565b93506139df6080890161379c565b925060a088015160ff811681146139f4578283fd5b9150613a0260c0890161376f565b905092959891949750929550565b600060208284031215613a21578081fd5b5051919050565b600080600060608486031215613a3c578081fd5b833592506020840135613a4e81614372565b9150604084013561394181614372565b600080600080600060a08688031215613a75578283fd5b853594506020860135613a8781614372565b94979496505050506040830135926060810135926080909101359150565b60008060408385031215613ab7578182fd5b505080516020909101519092909150565b60008060008060008060c08789031215613ae0578384fd5b505084359660208601359650604086013595606081013595506080810135945060a0013592509050565b6000806000806000806000806000806000806101808d8f031215613b2c578586fd5b8c516bffffffffffffffffffffffff81168114613b47578687fd5b9b50613b5560208e0161371b565b9a50613b6360408e0161371b565b9950613b7160608e0161371b565b9850613b7f60808e016137ae565b9750613b8d60a08e0161377f565b9650613b9b60c08e0161377f565b9550613ba960e08e01613791565b94506101008d015193506101208d01519250613bc86101408e01613791565b9150613bd76101608e01613791565b90509295989b509295989b509295989b565b15159052565b6001600160a01b0391909116815260200190565b6001600160a01b039384168152919092166020820152604081019190915260600190565b6001600160a01b03929092168252602082015260400190565b6001600160a01b039390931683526020830191909152604082015260600190565b6001600160a01b0394909416845260208401929092526040830152606082015260800190565b6001600160a01b038c81168252602082018c90526001600160801b038b16604083015260028a810b606084015289900b608083015263ffffffff88811660a0840152871660c083015285811660e083015284166101008201528215156101208201526101608101613cfc610140830184613be9565b9c9b505050505050505050505050565b901515815260200190565b931515845260208401929092526040830152606082015260800190565b90815260200190565b600292830b8152910b602082015260400190565b60208082526029908201527f5374616b65556e6973776170563355706772616465313a207a65726f4164647260408201526832b9b9903a37b5b2b760b91b606082015260800190565b60208082526026908201527f5374616b65556e6973776170563355706772616465313a206d69736d61746368604082015265103a37b5b2b760d11b606082015260800190565b60208082526010908201526f6661696c20636c61696d4d696e696e6760801b604082015260600190565b60208082526022908201527f5374616b65556e6973776170563355706772616465313a206661696c20636c61604082015261696d60f01b606082015260800190565b60208082526023908201527f5374616b65556e6973776170563355706772616465313a207a65726f20616d6f6040820152621d5b9d60ea1b606082015260800190565b60208082526023908201527f5374616b65556e6973776170563355706772616465313a207769746864726177604082015262696e6760e81b606082015260800190565b60208082526032908201527f5374616b65556e6973776170563355706772616465313a20746f6b656e734f776040820152711959081a5cc81a5b9cdd59999a58da595b9d60721b606082015260800190565b60208082526024908201527f5374616b65556e6973776170563355706772616465313a206661696c20636f6c6040820152631b1958dd60e21b606082015260800190565b60208082526024908201527f5374616b65556e6973776170563355706772616465313a206f7574206f662072604082015263616e676560e01b606082015260800190565b6020808252602e908201527f5374616b65556e6973776170563355706772616465313a20696e73756666696360408201526d69656e74206c697175696469747960901b606082015260800190565b60208082526022908201527f5374616b65556e6973776170563355706772616465313a20696e2070726f6365604082015261737360f01b606082015260800190565b60208082526023908201527f5374616b65556e6973776170563355706772616465313a2064696666206c656e6040820152620cee8d60eb1b606082015260800190565b60208082526022908201527f5374616b65556e6973776170563355706772616465313a206e6f74207374616b60408201526132b960f11b606082015260800190565b60208082526027908201527f5374616b65556e6973776170563355706772616465313a20616c72656164792060408201526618db185a5b595960ca1b606082015260800190565b60208082526029908201527f5374616b65556e6973776170563355706772616465313a207a65726f206d696e6040820152681a5b99d05b5bdd5b9d60ba1b606082015260800190565b60208082526021908201527f5374616b65556e6973776170563355706772616465313a206e6f74206f776e656040820152603960f91b606082015260800190565b6020808252818101527f5374616b65556e6973776170563355706772616465313a20636c61696d696e67604082015260600190565b815181526020808301516001600160a01b0316908201526040808301516001600160801b0390811691830191909152606092830151169181019190915260800190565b815181526020808301516001600160801b03169082015260408083015190820152606080830151908201526080918201519181019190915260a00190565b600060c082019050825182526020830151602083015260408301516040830152606083015160608301526080830151608083015260a083015160a083015292915050565b6001600160801b039390931683526020830191909152604082015260600190565b918252602082015260400190565b998a5260208a019890985260408901969096526001600160a01b03949094166060880152608087019290925260a086015260c085015260e08401526101008301526101208201526101400190565b958652602086019490945260408501929092526060840152608083015260a082015260c00190565b94855263ffffffff93841660208601529190921660408401526060830191909152608082015260a00190565b6001600160a01b03811681146116c657600080fd5b6001600160801b03811681146116c657600080fdfe456e756d657261626c655365743a20696e646578206f7574206f6620626f756e6473416363657373436f6e74726f6c3a2073656e646572206d75737420626520616e2061646d696e20746f206772616e7441636365737369626c653a2043616c6c6572206973206e6f7420616e2061646d696e416363657373436f6e74726f6c3a2073656e646572206d75737420626520616e2061646d696e20746f207265766f6b65536166654d6174683a206d756c7469706c69636174696f6e206f766572666c6f77df8b4c520ffe197c5343c6f5aec59570151ef9a492f2c624fd45ddde6135ec42416363657373436f6e74726f6c3a2063616e206f6e6c792072656e6f756e636520726f6c657320666f722073656c66a264697066735822122084f1d84564a18ca48d8fbbe73fe1d7eef20aa8daf389f18bde99950e1b9b824564736f6c63430007060033df8b4c520ffe197c5343c6f5aec59570151ef9a492f2c624fd45ddde6135ec42",
  "linkReferences": {},
  "deployedLinkReferences": {}
}