{
  "_format": "hh-sol-artifact-1",
  "contractName": "LockTOSDividendProxy",
  "sourceName": "contracts/stake/LockTOSDividendProxy.sol",
  "abi": [
    {
      "inputs": [
        {
          "internalType": "address",
          "name": "_impl",
          "type": "address"
        },
        {
          "internalType": "address",
          "name": "_admin",
          "type": "address"
        }
      ],
      "stateMutability": "nonpayable",
      "type": "constructor"
    },
    {
      "anonymous": false,
      "inputs": [
        {
          "indexed": true,
          "internalType": "bytes32",
          "name": "role",
          "type": "bytes32"
        },
        {
          "indexed": true,
          "internalType": "bytes32",
          "name": "previousAdminRole",
          "type": "bytes32"
        },
        {
          "indexed": true,
          "internalType": "bytes32",
          "name": "newAdminRole",
          "type": "bytes32"
        }
      ],
      "name": "RoleAdminChanged",
      "type": "event"
    },
    {
      "anonymous": false,
      "inputs": [
        {
          "indexed": true,
          "internalType": "bytes32",
          "name": "role",
          "type": "bytes32"
        },
        {
          "indexed": true,
          "internalType": "address",
          "name": "account",
          "type": "address"
        },
        {
          "indexed": true,
          "internalType": "address",
          "name": "sender",
          "type": "address"
        }
      ],
      "name": "RoleGranted",
      "type": "event"
    },
    {
      "anonymous": false,
      "inputs": [
        {
          "indexed": true,
          "internalType": "bytes32",
          "name": "role",
          "type": "bytes32"
        },
        {
          "indexed": true,
          "internalType": "address",
          "name": "account",
          "type": "address"
        },
        {
          "indexed": true,
          "internalType": "address",
          "name": "sender",
          "type": "address"
        }
      ],
      "name": "RoleRevoked",
      "type": "event"
    },
    {
      "anonymous": false,
      "inputs": [
        {
          "indexed": true,
          "internalType": "address",
          "name": "implementation",
          "type": "address"
        }
      ],
      "name": "Upgraded",
      "type": "event"
    },
    {
      "stateMutability": "payable",
      "type": "fallback"
    },
    {
      "inputs": [],
      "name": "ADMIN_ROLE",
      "outputs": [
        {
          "internalType": "bytes32",
          "name": "",
          "type": "bytes32"
        }
      ],
      "stateMutability": "view",
      "type": "function"
    },
    {
      "inputs": [],
      "name": "BURNER_ROLE",
      "outputs": [
        {
          "internalType": "bytes32",
          "name": "",
          "type": "bytes32"
        }
      ],
      "stateMutability": "view",
      "type": "function"
    },
    {
      "inputs": [],
      "name": "DEFAULT_ADMIN_ROLE",
      "outputs": [
        {
          "internalType": "bytes32",
          "name": "",
          "type": "bytes32"
        }
      ],
      "stateMutability": "view",
      "type": "function"
    },
    {
      "inputs": [],
      "name": "MINTER_ROLE",
      "outputs": [
        {
          "internalType": "bytes32",
          "name": "",
          "type": "bytes32"
        }
      ],
      "stateMutability": "view",
      "type": "function"
    },
    {
      "inputs": [],
      "name": "PROJECT_ADMIN_ROLE",
      "outputs": [
        {
          "internalType": "bytes32",
          "name": "",
          "type": "bytes32"
        }
      ],
      "stateMutability": "view",
      "type": "function"
    },
    {
      "inputs": [
        {
          "internalType": "address",
          "name": "account",
          "type": "address"
        }
      ],
      "name": "addAdmin",
      "outputs": [],
      "stateMutability": "nonpayable",
      "type": "function"
    },
    {
      "inputs": [
        {
          "internalType": "uint256",
          "name": "",
          "type": "uint256"
        }
      ],
      "name": "distributedTokens",
      "outputs": [
        {
          "internalType": "address",
          "name": "",
          "type": "address"
        }
      ],
      "stateMutability": "view",
      "type": "function"
    },
    {
      "inputs": [
        {
          "internalType": "address",
          "name": "",
          "type": "address"
        }
      ],
      "name": "distributions",
      "outputs": [
        {
          "internalType": "bool",
          "name": "exists",
          "type": "bool"
        },
        {
          "internalType": "uint256",
          "name": "totalDistribution",
          "type": "uint256"
        },
        {
          "internalType": "uint256",
          "name": "lastBalance",
          "type": "uint256"
        }
      ],
      "stateMutability": "view",
      "type": "function"
    },
    {
      "inputs": [],
      "name": "epochUnit",
      "outputs": [
        {
          "internalType": "uint256",
          "name": "",
          "type": "uint256"
        }
      ],
      "stateMutability": "view",
      "type": "function"
    },
    {
      "inputs": [],
      "name": "genesis",
      "outputs": [
        {
          "internalType": "uint256",
          "name": "",
          "type": "uint256"
        }
      ],
      "stateMutability": "view",
      "type": "function"
    },
    {
      "inputs": [
        {
          "internalType": "bytes32",
          "name": "role",
          "type": "bytes32"
        }
      ],
      "name": "getRoleAdmin",
      "outputs": [
        {
          "internalType": "bytes32",
          "name": "",
          "type": "bytes32"
        }
      ],
      "stateMutability": "view",
      "type": "function"
    },
    {
      "inputs": [
        {
          "internalType": "bytes32",
          "name": "role",
          "type": "bytes32"
        },
        {
          "internalType": "uint256",
          "name": "index",
          "type": "uint256"
        }
      ],
      "name": "getRoleMember",
      "outputs": [
        {
          "internalType": "address",
          "name": "",
          "type": "address"
        }
      ],
      "stateMutability": "view",
      "type": "function"
    },
    {
      "inputs": [
        {
          "internalType": "bytes32",
          "name": "role",
          "type": "bytes32"
        }
      ],
      "name": "getRoleMemberCount",
      "outputs": [
        {
          "internalType": "uint256",
          "name": "",
          "type": "uint256"
        }
      ],
      "stateMutability": "view",
      "type": "function"
    },
    {
      "inputs": [
        {
          "internalType": "bytes32",
          "name": "role",
          "type": "bytes32"
        },
        {
          "internalType": "address",
          "name": "account",
          "type": "address"
        }
      ],
      "name": "grantRole",
      "outputs": [],
      "stateMutability": "nonpayable",
      "type": "function"
    },
    {
      "inputs": [
        {
          "internalType": "bytes32",
          "name": "role",
          "type": "bytes32"
        },
        {
          "internalType": "address",
          "name": "account",
          "type": "address"
        }
      ],
      "name": "hasRole",
      "outputs": [
        {
          "internalType": "bool",
          "name": "",
          "type": "bool"
        }
      ],
      "stateMutability": "view",
      "type": "function"
    },
    {
      "inputs": [],
      "name": "implementation",
      "outputs": [
        {
          "internalType": "address",
          "name": "",
          "type": "address"
        }
      ],
      "stateMutability": "view",
      "type": "function"
    },
    {
      "inputs": [
        {
          "internalType": "address",
          "name": "_lockTOS",
          "type": "address"
        },
        {
          "internalType": "uint256",
          "name": "_epochUnit",
          "type": "uint256"
        }
      ],
      "name": "initialize",
      "outputs": [],
      "stateMutability": "nonpayable",
      "type": "function"
    },
    {
      "inputs": [
        {
          "internalType": "address",
          "name": "account",
          "type": "address"
        }
      ],
      "name": "isAdmin",
      "outputs": [
        {
          "internalType": "bool",
          "name": "",
          "type": "bool"
        }
      ],
      "stateMutability": "view",
      "type": "function"
    },
    {
      "inputs": [],
      "name": "lockTOS",
      "outputs": [
        {
          "internalType": "address",
          "name": "",
          "type": "address"
        }
      ],
      "stateMutability": "view",
      "type": "function"
    },
    {
      "inputs": [],
      "name": "migratedL2",
      "outputs": [
        {
          "internalType": "bool",
          "name": "",
          "type": "bool"
        }
      ],
      "stateMutability": "view",
      "type": "function"
    },
    {
      "inputs": [],
      "name": "pauseProxy",
      "outputs": [
        {
          "internalType": "bool",
          "name": "",
          "type": "bool"
        }
      ],
      "stateMutability": "view",
      "type": "function"
    },
    {
      "inputs": [
        {
          "internalType": "address",
          "name": "account",
          "type": "address"
        }
      ],
      "name": "removeAdmin",
      "outputs": [],
      "stateMutability": "nonpayable",
      "type": "function"
    },
    {
      "inputs": [
        {
          "internalType": "bytes32",
          "name": "role",
          "type": "bytes32"
        },
        {
          "internalType": "address",
          "name": "account",
          "type": "address"
        }
      ],
      "name": "renounceRole",
      "outputs": [],
      "stateMutability": "nonpayable",
      "type": "function"
    },
    {
      "inputs": [
        {
          "internalType": "bytes32",
          "name": "role",
          "type": "bytes32"
        },
        {
          "internalType": "address",
          "name": "account",
          "type": "address"
        }
      ],
      "name": "revokeRole",
      "outputs": [],
      "stateMutability": "nonpayable",
      "type": "function"
    },
    {
      "inputs": [
        {
          "internalType": "bool",
          "name": "_pause",
          "type": "bool"
        }
      ],
      "name": "setProxyPause",
      "outputs": [],
      "stateMutability": "nonpayable",
      "type": "function"
    },
    {
      "inputs": [],
      "name": "stakeRegistry",
      "outputs": [
        {
          "internalType": "address",
          "name": "",
          "type": "address"
        }
      ],
      "stateMutability": "view",
      "type": "function"
    },
    {
      "inputs": [
        {
          "internalType": "address",
          "name": "newAdmin",
          "type": "address"
        }
      ],
      "name": "transferAdmin",
      "outputs": [],
      "stateMutability": "nonpayable",
      "type": "function"
    },
    {
      "inputs": [
        {
          "internalType": "address",
          "name": "impl",
          "type": "address"
        }
      ],
      "name": "upgradeTo",
      "outputs": [],
      "stateMutability": "nonpayable",
      "type": "function"
    },
    {
      "stateMutability": "payable",
      "type": "receive"
    }
  ],
  "bytecode": "0x608060405260016006553480156200001657600080fd5b506040516200174038038062001740833981810160405260408110156200003c57600080fd5b5080516020909101516001600160a01b038216620000a1576040805162461bcd60e51b815260206004820152601b60248201527f4c6f636b544f5350726f78793a206c6f676963206973207a65726f0000000000604482015290519081900360640190fd5b620000ac8262000105565b620000c7600080516020620016da833981519152806200017c565b620000e2600080516020620016da83398151915282620001ce565b620000fd600080516020620016da83398151915230620001ce565b5050620002ea565b6200011b81620001de60201b62000da11760201c565b620001585760405162461bcd60e51b8152600401808060200182810382526046815260200180620016fa6046913960600191505060405180910390fd5b7f360894a13ba1a3210667c828492db98dca3e2076cc3735a920a3ca505d382bbc55565b600082815260076020526040808220600201549051839285917fbd79b86ffe0ab8e8776151514217cd7cacd52c909f66475c3af44e129f0b00ff9190a460009182526007602052604090912060020155565b620001da8282620001e4565b5050565b3b151590565b60008281526007602090815260409091206200020b91839062000da76200025f821b17901c565b15620001da576200021b6200027f565b6001600160a01b0316816001600160a01b0316837f2f8788117e7eff1d82e926ec794901d17c78024a50270940304540a733656f0d60405160405180910390a45050565b600062000276836001600160a01b03841662000283565b90505b92915050565b3390565b6000620002918383620002d2565b620002c95750815460018181018455600084815260208082209093018490558454848252828601909352604090209190915562000279565b50600062000279565b60009081526001919091016020526040902054151590565b6113e080620002fa6000396000f3fe60806040526004361061017b5760003560e01c806375829def116100cc578063a217fddf1161007a578063a217fddf14610565578063a7f0b3de1461057a578063ca15c8731461058f578063cd6dc687146105b9578063d5391393146105f2578063d547741f14610607578063fd2dcecf14610640576101c4565b806375829def1461042057806375b238fc146104535780637cb00d25146104685780639010d07c1461049457806391d14854146104c45780639353b9df146104fd578063a1f5f50e14610550576101c4565b806337a155031161012957806337a155031461033e57806341c04d5e146103845780634e6c4466146103995780635c60da1b146103ae57806363a8fd89146103c357806368304835146103d857806370480275146103ed576101c4565b80631785f53c146101ce578063248a9ca31461020157806324d7806c1461023d578063282c51f3146102845780632f2ff15d1461029957806336568abe146102d25780633659cfe61461030b576101c4565b366101c4576040805162461bcd60e51b815260206004820152601460248201527331b0b73737ba103932b1b2b4bb329022ba3432b960611b604482015290519081900360640190fd5b6101cc610655565b005b3480156101da57600080fd5b506101cc600480360360208110156101f157600080fd5b50356001600160a01b03166106db565b34801561020d57600080fd5b5061022b6004803603602081101561022457600080fd5b503561073a565b60408051918252519081900360200190f35b34801561024957600080fd5b506102706004803603602081101561026057600080fd5b50356001600160a01b031661074f565b604080519115158252519081900360200190f35b34801561029057600080fd5b5061022b61076f565b3480156102a557600080fd5b506101cc600480360360408110156102bc57600080fd5b50803590602001356001600160a01b0316610793565b3480156102de57600080fd5b506101cc600480360360408110156102f557600080fd5b50803590602001356001600160a01b03166107ff565b34801561031757600080fd5b506101cc6004803603602081101561032e57600080fd5b50356001600160a01b0316610860565b34801561034a57600080fd5b506103686004803603602081101561036157600080fd5b50356109a2565b604080516001600160a01b039092168252519081900360200190f35b34801561039057600080fd5b5061022b6109cc565b3480156103a557600080fd5b506103686109f0565b3480156103ba57600080fd5b506103686109ff565b3480156103cf57600080fd5b50610270610a0e565b3480156103e457600080fd5b50610368610a17565b3480156103f957600080fd5b506101cc6004803603602081101561041057600080fd5b50356001600160a01b0316610a2b565b34801561042c57600080fd5b506101cc6004803603602081101561044357600080fd5b50356001600160a01b0316610a87565b34801561045f57600080fd5b5061022b610ba8565b34801561047457600080fd5b506101cc6004803603602081101561048b57600080fd5b50351515610bba565b3480156104a057600080fd5b50610368600480360360408110156104b757600080fd5b5080359060200135610c11565b3480156104d057600080fd5b50610270600480360360408110156104e757600080fd5b50803590602001356001600160a01b0316610c30565b34801561050957600080fd5b506105306004803603602081101561052057600080fd5b50356001600160a01b0316610c48565b604080519315158452602084019290925282820152519081900360600190f35b34801561055c57600080fd5b50610270610c6d565b34801561057157600080fd5b5061022b610c7d565b34801561058657600080fd5b5061022b610c82565b34801561059b57600080fd5b5061022b600480360360208110156105b257600080fd5b5035610c88565b3480156105c557600080fd5b506101cc600480360360408110156105dc57600080fd5b506001600160a01b038135169060200135610c9f565b3480156105fe57600080fd5b5061022b610d1e565b34801561061357600080fd5b506101cc6004803603604081101561062a57600080fd5b50803590602001356001600160a01b0316610d42565b34801561064c57600080fd5b5061022b610d9b565b600061065f610dbc565b90506001600160a01b0381161580159061067c575060005460ff16155b6106b75760405162461bcd60e51b81526004018080602001828103825260248152602001806113126024913960400191505060405180910390fd5b3660008037600080366000845af43d6000803e8080156106d6573d6000f35b3d6000fd5b6106e43361074f565b61071f5760405162461bcd60e51b815260040180806020018281038252602281526020018061127f6022913960400191505060405180910390fd5b6107376000805160206112f2833981519152826107ff565b50565b60009081526007602052604090206002015490565b60006107696000805160206112f283398151915283610c30565b92915050565b7f9667e80708b6eeeb0053fa0cca44e028ff548e2a9f029edfeac87c118b08b7c881565b6000828152600760205260409020600201546107b6906107b1610de1565b610c30565b6107f15760405162461bcd60e51b815260040180806020018281038252602f815260200180611250602f913960400191505060405180910390fd5b6107fb8282610de5565b5050565b610807610de1565b6001600160a01b0316816001600160a01b0316146108565760405162461bcd60e51b815260040180806020018281038252602f81526020018061137c602f913960400191505060405180910390fd5b6107fb8282610e4e565b6108693361074f565b6108a45760405162461bcd60e51b815260040180806020018281038252602281526020018061127f6022913960400191505060405180910390fd5b6001600160a01b0381166108ff576040805162461bcd60e51b815260206004820152601b60248201527f4c6f636b544f5350726f78793a20696e707574206973207a65726f0000000000604482015290519081900360640190fd5b806001600160a01b0316610911610dbc565b6001600160a01b03161415610962576040805162461bcd60e51b81526020600482015260126024820152714c6f636b544f5350726f78793a2073616d6560701b604482015290519081900360640190fd5b61096b81610eb7565b6040516001600160a01b038216907fbc7cd75a20ee27fd9adebab32041f755214dbc6bffa90cc0225b39da2e5c2d3b90600090a250565b600581815481106109b257600080fd5b6000918252602090912001546001600160a01b0316905081565b7f52eafc11f6f81f86878bffd31109a0d92f37506527754f00788853ff9f63b13081565b6002546001600160a01b031681565b6000610a09610dbc565b905090565b60005460ff1681565b60005461010090046001600160a01b031681565b610a343361074f565b610a6f5760405162461bcd60e51b815260040180806020018281038252602281526020018061127f6022913960400191505060405180910390fd5b6107376000805160206112f283398151915282610793565b610a903361074f565b610acb5760405162461bcd60e51b815260040180806020018281038252602281526020018061127f6022913960400191505060405180910390fd5b6001600160a01b038116610b21576040805162461bcd60e51b815260206004820152601860248201527741636365737369626c653a207a65726f206164647265737360401b604482015290519081900360640190fd5b336001600160a01b0382161415610b78576040805162461bcd60e51b815260206004820152601660248201527520b1b1b2b9b9b4b136329d1039b0b6b29030b236b4b760511b604482015290519081900360640190fd5b610b906000805160206112f283398151915282610793565b6107376000805160206112f2833981519152336107ff565b6000805160206112f283398151915281565b610bc33361074f565b610bfe5760405162461bcd60e51b815260040180806020018281038252602281526020018061127f6022913960400191505060405180910390fd5b6000805460ff1916911515919091179055565b6000828152600760205260408120610c299083610f1f565b9392505050565b6000828152600760205260408120610c299083610f2b565b60046020526000908152604090208054600182015460029092015460ff909116919083565b600054600160a81b900460ff1681565b600081565b60035481565b600081815260076020526040812061076990610f40565b610ca83361074f565b610ce35760405162461bcd60e51b815260040180806020018281038252602281526020018061127f6022913960400191505060405180910390fd5b600280546001600160a01b0319166001600160a01b0384161790556001819055610d1781610d114282610f4b565b90610f8d565b6003555050565b7ff0887ba65ee2024ea881d91b74c2450ef19e1557f03bed3ea9f16b037cbe2dc981565b600082815260076020526040902060020154610d60906107b1610de1565b6108565760405162461bcd60e51b81526004018080602001828103825260308152602001806112a16030913960400191505060405180910390fd5b60015481565b3b151590565b6000610c29836001600160a01b038416610fe6565b7f360894a13ba1a3210667c828492db98dca3e2076cc3735a920a3ca505d382bbc5490565b3390565b6000828152600760205260409020610dfd9082610da7565b156107fb57610e0a610de1565b6001600160a01b0316816001600160a01b0316837f2f8788117e7eff1d82e926ec794901d17c78024a50270940304540a733656f0d60405160405180910390a45050565b6000828152600760205260409020610e669082611030565b156107fb57610e73610de1565b6001600160a01b0316816001600160a01b0316837ff6391f5c32d9c69d2a47ea670b442974b53935d1edc7fd64eb21e047a839171b60405160405180910390a45050565b610ec081610da1565b610efb5760405162461bcd60e51b81526004018080602001828103825260468152602001806113366046913960600191505060405180910390fd5b7f360894a13ba1a3210667c828492db98dca3e2076cc3735a920a3ca505d382bbc55565b6000610c298383611045565b6000610c29836001600160a01b0384166110a9565b6000610769826110c1565b6000610c2983836040518060400160405280601a81526020017f536166654d6174683a206469766973696f6e206279207a65726f0000000000008152506110c5565b600082610f9c57506000610769565b82820282848281610fa957fe5b0414610c295760405162461bcd60e51b81526004018080602001828103825260218152602001806112d16021913960400191505060405180910390fd5b6000610ff283836110a9565b61102857508154600181810184556000848152602080822090930184905584548482528286019093526040902091909155610769565b506000610769565b6000610c29836001600160a01b038416611167565b815460009082106110875760405162461bcd60e51b815260040180806020018281038252602281526020018061122e6022913960400191505060405180910390fd5b82600001828154811061109657fe5b9060005260206000200154905092915050565b60009081526001919091016020526040902054151590565b5490565b600081836111515760405162461bcd60e51b81526004018080602001828103825283818151815260200191508051906020019080838360005b838110156111165781810151838201526020016110fe565b50505050905090810190601f1680156111435780820380516001836020036101000a031916815260200191505b509250505060405180910390fd5b50600083858161115d57fe5b0495945050505050565b60008181526001830160205260408120548015611223578354600019808301919081019060009087908390811061119a57fe5b90600052602060002001549050808760000184815481106111b757fe5b6000918252602080832090910192909255828152600189810190925260409020908401905586548790806111e757fe5b60019003818190600052602060002001600090559055866001016000878152602001908152602001600020600090556001945050505050610769565b600091505061076956fe456e756d657261626c655365743a20696e646578206f7574206f6620626f756e6473416363657373436f6e74726f6c3a2073656e646572206d75737420626520616e2061646d696e20746f206772616e7441636365737369626c653a2043616c6c6572206973206e6f7420616e2061646d696e416363657373436f6e74726f6c3a2073656e646572206d75737420626520616e2061646d696e20746f207265766f6b65536166654d6174683a206d756c7469706c69636174696f6e206f766572666c6f77df8b4c520ffe197c5343c6f5aec59570151ef9a492f2c624fd45ddde6135ec424c6f636b544f5350726f78793a20696d706c204f522070726f78792069732066616c736550726f7879426173653a2043616e6e6f742073657420612070726f787920696d706c656d656e746174696f6e20746f2061206e6f6e2d636f6e74726163742061646472657373416363657373436f6e74726f6c3a2063616e206f6e6c792072656e6f756e636520726f6c657320666f722073656c66a26469706673582212205de0edc004e3670cef2ca8b77d8aecf62bd111cd61d707f36b15a9d9429c6c0164736f6c63430007060033df8b4c520ffe197c5343c6f5aec59570151ef9a492f2c624fd45ddde6135ec4250726f7879426173653a2043616e6e6f742073657420612070726f787920696d706c656d656e746174696f6e20746f2061206e6f6e2d636f6e74726163742061646472657373",
  "linkReferences": {},
  "deployedLinkReferences": {}
}