{
  "_format": "hh-sol-artifact-1",
  "contractName": "StakeTON_NEW",
  "sourceName": "contracts/stake/StakeTON_NEW.sol",
  "abi": [
    {
      "inputs": [],
      "stateMutability": "nonpayable",
      "type": "constructor"
    },
    {
      "anonymous": false,
      "inputs": [
        {
          "indexed": true,
          "internalType": "bytes32",
          "name": "role",
          "type": "bytes32"
        },
        {
          "indexed": true,
          "internalType": "bytes32",
          "name": "previousAdminRole",
          "type": "bytes32"
        },
        {
          "indexed": true,
          "internalType": "bytes32",
          "name": "newAdminRole",
          "type": "bytes32"
        }
      ],
      "name": "RoleAdminChanged",
      "type": "event"
    },
    {
      "anonymous": false,
      "inputs": [
        {
          "indexed": true,
          "internalType": "bytes32",
          "name": "role",
          "type": "bytes32"
        },
        {
          "indexed": true,
          "internalType": "address",
          "name": "account",
          "type": "address"
        },
        {
          "indexed": true,
          "internalType": "address",
          "name": "sender",
          "type": "address"
        }
      ],
      "name": "RoleGranted",
      "type": "event"
    },
    {
      "anonymous": false,
      "inputs": [
        {
          "indexed": true,
          "internalType": "bytes32",
          "name": "role",
          "type": "bytes32"
        },
        {
          "indexed": true,
          "internalType": "address",
          "name": "account",
          "type": "address"
        },
        {
          "indexed": true,
          "internalType": "address",
          "name": "sender",
          "type": "address"
        }
      ],
      "name": "RoleRevoked",
      "type": "event"
    },
    {
      "inputs": [],
      "name": "ADMIN_ROLE",
      "outputs": [
        {
          "internalType": "bytes32",
          "name": "",
          "type": "bytes32"
        }
      ],
      "stateMutability": "view",
      "type": "function"
    },
    {
      "inputs": [],
      "name": "BURNER_ROLE",
      "outputs": [
        {
          "internalType": "bytes32",
          "name": "",
          "type": "bytes32"
        }
      ],
      "stateMutability": "view",
      "type": "function"
    },
    {
      "inputs": [],
      "name": "DEFAULT_ADMIN_ROLE",
      "outputs": [
        {
          "internalType": "bytes32",
          "name": "",
          "type": "bytes32"
        }
      ],
      "stateMutability": "view",
      "type": "function"
    },
    {
      "inputs": [],
      "name": "MINTER_ROLE",
      "outputs": [
        {
          "internalType": "bytes32",
          "name": "",
          "type": "bytes32"
        }
      ],
      "stateMutability": "view",
      "type": "function"
    },
    {
      "inputs": [],
      "name": "PROJECT_ADMIN_ROLE",
      "outputs": [
        {
          "internalType": "bytes32",
          "name": "",
          "type": "bytes32"
        }
      ],
      "stateMutability": "view",
      "type": "function"
    },
    {
      "inputs": [
        {
          "internalType": "address",
          "name": "account",
          "type": "address"
        }
      ],
      "name": "addAdmin",
      "outputs": [],
      "stateMutability": "nonpayable",
      "type": "function"
    },
    {
      "inputs": [],
      "name": "defiAddr",
      "outputs": [
        {
          "internalType": "address",
          "name": "",
          "type": "address"
        }
      ],
      "stateMutability": "view",
      "type": "function"
    },
    {
      "inputs": [],
      "name": "defiStatus",
      "outputs": [
        {
          "internalType": "uint256",
          "name": "",
          "type": "uint256"
        }
      ],
      "stateMutability": "view",
      "type": "function"
    },
    {
      "inputs": [],
      "name": "depositManager",
      "outputs": [
        {
          "internalType": "address",
          "name": "",
          "type": "address"
        }
      ],
      "stateMutability": "view",
      "type": "function"
    },
    {
      "inputs": [],
      "name": "endBlock",
      "outputs": [
        {
          "internalType": "uint256",
          "name": "",
          "type": "uint256"
        }
      ],
      "stateMutability": "view",
      "type": "function"
    },
    {
      "inputs": [],
      "name": "finalBalanceTON",
      "outputs": [
        {
          "internalType": "uint256",
          "name": "",
          "type": "uint256"
        }
      ],
      "stateMutability": "view",
      "type": "function"
    },
    {
      "inputs": [],
      "name": "finalBalanceWTON",
      "outputs": [
        {
          "internalType": "uint256",
          "name": "",
          "type": "uint256"
        }
      ],
      "stateMutability": "view",
      "type": "function"
    },
    {
      "inputs": [],
      "name": "fromTokamak",
      "outputs": [
        {
          "internalType": "uint256",
          "name": "",
          "type": "uint256"
        }
      ],
      "stateMutability": "view",
      "type": "function"
    },
    {
      "inputs": [
        {
          "internalType": "bytes32",
          "name": "role",
          "type": "bytes32"
        }
      ],
      "name": "getRoleAdmin",
      "outputs": [
        {
          "internalType": "bytes32",
          "name": "",
          "type": "bytes32"
        }
      ],
      "stateMutability": "view",
      "type": "function"
    },
    {
      "inputs": [
        {
          "internalType": "bytes32",
          "name": "role",
          "type": "bytes32"
        },
        {
          "internalType": "uint256",
          "name": "index",
          "type": "uint256"
        }
      ],
      "name": "getRoleMember",
      "outputs": [
        {
          "internalType": "address",
          "name": "",
          "type": "address"
        }
      ],
      "stateMutability": "view",
      "type": "function"
    },
    {
      "inputs": [
        {
          "internalType": "bytes32",
          "name": "role",
          "type": "bytes32"
        }
      ],
      "name": "getRoleMemberCount",
      "outputs": [
        {
          "internalType": "uint256",
          "name": "",
          "type": "uint256"
        }
      ],
      "stateMutability": "view",
      "type": "function"
    },
    {
      "inputs": [
        {
          "internalType": "address",
          "name": "user",
          "type": "address"
        }
      ],
      "name": "getUserStaked",
      "outputs": [
        {
          "internalType": "uint256",
          "name": "amount",
          "type": "uint256"
        },
        {
          "internalType": "uint256",
          "name": "claimedBlock",
          "type": "uint256"
        },
        {
          "internalType": "uint256",
          "name": "claimedAmount",
          "type": "uint256"
        },
        {
          "internalType": "uint256",
          "name": "releasedBlock",
          "type": "uint256"
        },
        {
          "internalType": "uint256",
          "name": "releasedAmount",
          "type": "uint256"
        },
        {
          "internalType": "uint256",
          "name": "releasedTOSAmount",
          "type": "uint256"
        },
        {
          "internalType": "bool",
          "name": "released",
          "type": "bool"
        }
      ],
      "stateMutability": "view",
      "type": "function"
    },
    {
      "inputs": [],
      "name": "getVaultAddress",
      "outputs": [
        {
          "internalType": "address",
          "name": "",
          "type": "address"
        }
      ],
      "stateMutability": "view",
      "type": "function"
    },
    {
      "inputs": [
        {
          "internalType": "bytes32",
          "name": "role",
          "type": "bytes32"
        },
        {
          "internalType": "address",
          "name": "account",
          "type": "address"
        }
      ],
      "name": "grantRole",
      "outputs": [],
      "stateMutability": "nonpayable",
      "type": "function"
    },
    {
      "inputs": [
        {
          "internalType": "bytes32",
          "name": "role",
          "type": "bytes32"
        },
        {
          "internalType": "address",
          "name": "account",
          "type": "address"
        }
      ],
      "name": "hasRole",
      "outputs": [
        {
          "internalType": "bool",
          "name": "",
          "type": "bool"
        }
      ],
      "stateMutability": "view",
      "type": "function"
    },
    {
      "inputs": [],
      "name": "infos",
      "outputs": [
        {
          "internalType": "address",
          "name": "",
          "type": "address"
        },
        {
          "internalType": "address",
          "name": "",
          "type": "address"
        },
        {
          "internalType": "uint256[3]",
          "name": "",
          "type": "uint256[3]"
        },
        {
          "internalType": "uint256",
          "name": "",
          "type": "uint256"
        },
        {
          "internalType": "uint256",
          "name": "",
          "type": "uint256"
        },
        {
          "internalType": "uint256",
          "name": "",
          "type": "uint256"
        }
      ],
      "stateMutability": "view",
      "type": "function"
    },
    {
      "inputs": [
        {
          "internalType": "address",
          "name": "account",
          "type": "address"
        }
      ],
      "name": "isAdmin",
      "outputs": [
        {
          "internalType": "bool",
          "name": "",
          "type": "bool"
        }
      ],
      "stateMutability": "view",
      "type": "function"
    },
    {
      "inputs": [],
      "name": "migratedL2",
      "outputs": [
        {
          "internalType": "bool",
          "name": "",
          "type": "bool"
        }
      ],
      "stateMutability": "view",
      "type": "function"
    },
    {
      "inputs": [],
      "name": "pauseProxy",
      "outputs": [
        {
          "internalType": "bool",
          "name": "",
          "type": "bool"
        }
      ],
      "stateMutability": "view",
      "type": "function"
    },
    {
      "inputs": [],
      "name": "paytoken",
      "outputs": [
        {
          "internalType": "address",
          "name": "",
          "type": "address"
        }
      ],
      "stateMutability": "view",
      "type": "function"
    },
    {
      "inputs": [
        {
          "internalType": "address",
          "name": "account",
          "type": "address"
        }
      ],
      "name": "removeAdmin",
      "outputs": [],
      "stateMutability": "nonpayable",
      "type": "function"
    },
    {
      "inputs": [
        {
          "internalType": "bytes32",
          "name": "role",
          "type": "bytes32"
        },
        {
          "internalType": "address",
          "name": "account",
          "type": "address"
        }
      ],
      "name": "renounceRole",
      "outputs": [],
      "stateMutability": "nonpayable",
      "type": "function"
    },
    {
      "inputs": [],
      "name": "requestNum",
      "outputs": [
        {
          "internalType": "uint256",
          "name": "",
          "type": "uint256"
        }
      ],
      "stateMutability": "view",
      "type": "function"
    },
    {
      "inputs": [
        {
          "internalType": "bytes32",
          "name": "role",
          "type": "bytes32"
        },
        {
          "internalType": "address",
          "name": "account",
          "type": "address"
        }
      ],
      "name": "revokeRole",
      "outputs": [],
      "stateMutability": "nonpayable",
      "type": "function"
    },
    {
      "inputs": [],
      "name": "rewardClaimedTotal",
      "outputs": [
        {
          "internalType": "uint256",
          "name": "",
          "type": "uint256"
        }
      ],
      "stateMutability": "view",
      "type": "function"
    },
    {
      "inputs": [],
      "name": "saleStartBlock",
      "outputs": [
        {
          "internalType": "uint256",
          "name": "",
          "type": "uint256"
        }
      ],
      "stateMutability": "view",
      "type": "function"
    },
    {
      "inputs": [],
      "name": "seigManager",
      "outputs": [
        {
          "internalType": "address",
          "name": "",
          "type": "address"
        }
      ],
      "stateMutability": "view",
      "type": "function"
    },
    {
      "inputs": [],
      "name": "stakeRegistry",
      "outputs": [
        {
          "internalType": "address",
          "name": "",
          "type": "address"
        }
      ],
      "stateMutability": "view",
      "type": "function"
    },
    {
      "inputs": [],
      "name": "startBlock",
      "outputs": [
        {
          "internalType": "uint256",
          "name": "",
          "type": "uint256"
        }
      ],
      "stateMutability": "view",
      "type": "function"
    },
    {
      "inputs": [],
      "name": "swapProxy",
      "outputs": [
        {
          "internalType": "address",
          "name": "",
          "type": "address"
        }
      ],
      "stateMutability": "view",
      "type": "function"
    },
    {
      "inputs": [],
      "name": "swappedAmountTOS",
      "outputs": [
        {
          "internalType": "uint256",
          "name": "",
          "type": "uint256"
        }
      ],
      "stateMutability": "view",
      "type": "function"
    },
    {
      "inputs": [],
      "name": "toTokamak",
      "outputs": [
        {
          "internalType": "uint256",
          "name": "",
          "type": "uint256"
        }
      ],
      "stateMutability": "view",
      "type": "function"
    },
    {
      "inputs": [],
      "name": "toUniswapWTON",
      "outputs": [
        {
          "internalType": "uint256",
          "name": "",
          "type": "uint256"
        }
      ],
      "stateMutability": "view",
      "type": "function"
    },
    {
      "inputs": [],
      "name": "tokamakLayer2",
      "outputs": [
        {
          "internalType": "address",
          "name": "",
          "type": "address"
        }
      ],
      "stateMutability": "view",
      "type": "function"
    },
    {
      "inputs": [],
      "name": "token",
      "outputs": [
        {
          "internalType": "address",
          "name": "",
          "type": "address"
        }
      ],
      "stateMutability": "view",
      "type": "function"
    },
    {
      "inputs": [],
      "name": "ton",
      "outputs": [
        {
          "internalType": "address",
          "name": "",
          "type": "address"
        }
      ],
      "stateMutability": "view",
      "type": "function"
    },
    {
      "inputs": [],
      "name": "totalStakedAmount",
      "outputs": [
        {
          "internalType": "uint256",
          "name": "",
          "type": "uint256"
        }
      ],
      "stateMutability": "view",
      "type": "function"
    },
    {
      "inputs": [],
      "name": "totalStakers",
      "outputs": [
        {
          "internalType": "uint256",
          "name": "",
          "type": "uint256"
        }
      ],
      "stateMutability": "view",
      "type": "function"
    },
    {
      "inputs": [
        {
          "internalType": "address",
          "name": "newAdmin",
          "type": "address"
        }
      ],
      "name": "transferAdmin",
      "outputs": [],
      "stateMutability": "nonpayable",
      "type": "function"
    },
    {
      "inputs": [
        {
          "internalType": "address",
          "name": "",
          "type": "address"
        }
      ],
      "name": "userStaked",
      "outputs": [
        {
          "internalType": "uint256",
          "name": "amount",
          "type": "uint256"
        },
        {
          "internalType": "uint256",
          "name": "claimedBlock",
          "type": "uint256"
        },
        {
          "internalType": "uint256",
          "name": "claimedAmount",
          "type": "uint256"
        },
        {
          "internalType": "uint256",
          "name": "releasedBlock",
          "type": "uint256"
        },
        {
          "internalType": "uint256",
          "name": "releasedAmount",
          "type": "uint256"
        },
        {
          "internalType": "uint256",
          "name": "releasedTOSAmount",
          "type": "uint256"
        },
        {
          "internalType": "bool",
          "name": "released",
          "type": "bool"
        }
      ],
      "stateMutability": "view",
      "type": "function"
    },
    {
      "inputs": [],
      "name": "vault",
      "outputs": [
        {
          "internalType": "address",
          "name": "",
          "type": "address"
        }
      ],
      "stateMutability": "view",
      "type": "function"
    },
    {
      "inputs": [],
      "name": "version",
      "outputs": [
        {
          "internalType": "string",
          "name": "",
          "type": "string"
        }
      ],
      "stateMutability": "pure",
      "type": "function"
    },
    {
      "inputs": [],
      "name": "withdrawFlag",
      "outputs": [
        {
          "internalType": "bool",
          "name": "",
          "type": "bool"
        }
      ],
      "stateMutability": "view",
      "type": "function"
    },
    {
      "inputs": [],
      "name": "wton",
      "outputs": [
        {
          "internalType": "address",
          "name": "",
          "type": "address"
        }
      ],
      "stateMutability": "view",
      "type": "function"
    },
    {
      "stateMutability": "payable",
      "type": "receive"
    }
  ],
  "bytecode": "0x608060405234801561001057600080fd5b5061140e806100206000396000f3fe6080604052600436106102a25760003560e01c80637228532611610165578063acc3a939116100cc578063dac3fc3f11610085578063dac3fc3f14610924578063e09974b914610957578063e58e27471461096c578063e6a7bc8714610981578063fbfa77cf14610996578063fc0c546a146109ab578063fd7fa460146109c0576102e9565b8063acc3a93914610815578063b2d4d6a314610882578063ca15c87314610897578063cc48b947146108c1578063d5391393146108d6578063d547741f146108eb576102e9565b806391d148541161011e57806391d148541461070d57806392ea3b4c146107465780639a88be2f1461075b5780639d84ca35146107d6578063a1f5f50e146107eb578063a217fddf14610800576102e9565b8063722853261461065657806375829def1461066b57806375b238fc1461069e57806386989038146106b35780638d62d949146106c85780639010d07c146106dd576102e9565b806343b0934a1161020957806368304835116101c257806368304835146105ba5780636c7ac9d8146105cf5780636e7cf534146105e45780636ec4be90146105f95780636fb7f5581461060e5780637048027514610623576102e9565b806343b0934a146104ab57806348cd4cb1146104dc57806354fd4d50146104f1578063567e98f91461057b57806363a8fd891461059057806365cacaa4146105a5576102e9565b8063248a9ca31161025b578063248a9ca31461039e57806324d7806c146103c8578063282c51f31461040f5780632f2ff15d1461042457806336568abe1461045d57806341c04d5e14610496576102e9565b806305871b78146102ee578063083c6323146103155780630ac8e0f31461032a5780630ea3d9c91461033f5780631785f53c146103545780632002727514610389576102e9565b366102e9576040805162461bcd60e51b815260206004820152601260248201527131b0b73737ba1039ba30b5b29022ba3432b960711b604482015290519081900360640190fd5b600080fd5b3480156102fa57600080fd5b506103036109d5565b60408051918252519081900360200190f35b34801561032157600080fd5b506103036109db565b34801561033657600080fd5b506103036109e1565b34801561034b57600080fd5b506103036109e7565b34801561036057600080fd5b506103876004803603602081101561037757600080fd5b50356001600160a01b03166109ed565b005b34801561039557600080fd5b50610303610a4c565b3480156103aa57600080fd5b50610303600480360360208110156103c157600080fd5b5035610a52565b3480156103d457600080fd5b506103fb600480360360208110156103eb57600080fd5b50356001600160a01b0316610a67565b604080519115158252519081900360200190f35b34801561041b57600080fd5b50610303610a87565b34801561043057600080fd5b506103876004803603604081101561044757600080fd5b50803590602001356001600160a01b0316610aab565b34801561046957600080fd5b506103876004803603604081101561048057600080fd5b50803590602001356001600160a01b0316610b17565b3480156104a257600080fd5b50610303610b78565b3480156104b757600080fd5b506104c0610b9c565b604080516001600160a01b039092168252519081900360200190f35b3480156104e857600080fd5b50610303610bab565b3480156104fd57600080fd5b50610506610bb1565b6040805160208082528351818301528351919283929083019185019080838360005b83811015610540578181015183820152602001610528565b50505050905090810190601f16801561056d5780820380516001836020036101000a031916815260200191505b509250505060405180910390f35b34801561058757600080fd5b50610303610bd2565b34801561059c57600080fd5b506103fb610bd8565b3480156105b157600080fd5b506104c0610be1565b3480156105c657600080fd5b506104c0610bf0565b3480156105db57600080fd5b506104c0610bff565b3480156105f057600080fd5b506103fb610c0e565b34801561060557600080fd5b506104c0610c17565b34801561061a57600080fd5b506104c0610c26565b34801561062f57600080fd5b506103876004803603602081101561064657600080fd5b50356001600160a01b0316610c35565b34801561066257600080fd5b50610303610c91565b34801561067757600080fd5b506103876004803603602081101561068e57600080fd5b50356001600160a01b0316610c97565b3480156106aa57600080fd5b50610303610db8565b3480156106bf57600080fd5b50610303610dca565b3480156106d457600080fd5b506104c0610dd0565b3480156106e957600080fd5b506104c06004803603604081101561070057600080fd5b5080359060200135610ddf565b34801561071957600080fd5b506103fb6004803603604081101561073057600080fd5b50803590602001356001600160a01b0316610dfe565b34801561075257600080fd5b506104c0610e16565b34801561076757600080fd5b50610770610e25565b604080516001600160a01b0380891682528716602082015290810185606080838360005b838110156107ac578181015183820152602001610794565b50505050905001848152602001838152602001828152602001965050505050505060405180910390f35b3480156107e257600080fd5b506104c0610e7b565b3480156107f757600080fd5b506103fb610e8f565b34801561080c57600080fd5b50610303610e9f565b34801561082157600080fd5b506108486004803603602081101561083857600080fd5b50356001600160a01b0316610ea4565b604080519788526020880196909652868601949094526060860192909252608085015260a0840152151560c0830152519081900360e00190f35b34801561088e57600080fd5b50610303610ee4565b3480156108a357600080fd5b50610303600480360360208110156108ba57600080fd5b5035610eea565b3480156108cd57600080fd5b506104c0610f01565b3480156108e257600080fd5b50610303610f10565b3480156108f757600080fd5b506103876004803603604081101561090e57600080fd5b50803590602001356001600160a01b0316610f34565b34801561093057600080fd5b506108486004803603602081101561094757600080fd5b50356001600160a01b0316610f8d565b34801561096357600080fd5b50610303610fd6565b34801561097857600080fd5b50610303610fdc565b34801561098d57600080fd5b50610303610fe2565b3480156109a257600080fd5b506104c0610fe8565b3480156109b757600080fd5b506104c0610ff7565b3480156109cc57600080fd5b50610303611006565b60155481565b60065481565b60145481565b60165481565b6109f633610a67565b610a315760405162461bcd60e51b81526004018080602001828103825260228152602001806113386022913960400191505060405180910390fd5b610a4960008051602061138a83398151915282610b17565b50565b60045481565b6000908152601c602052604090206002015490565b6000610a8160008051602061138a83398151915283610dfe565b92915050565b7f9667e80708b6eeeb0053fa0cca44e028ff548e2a9f029edfeac87c118b08b7c881565b6000828152601c6020526040902060020154610ace90610ac961100c565b610dfe565b610b095760405162461bcd60e51b815260040180806020018281038252602f815260200180611309602f913960400191505060405180910390fd5b610b138282611010565b5050565b610b1f61100c565b6001600160a01b0316816001600160a01b031614610b6e5760405162461bcd60e51b815260040180806020018281038252602f8152602001806113aa602f913960400191505060405180910390fd5b610b138282611079565b7f52eafc11f6f81f86878bffd31109a0d92f37506527754f00788853ff9f63b13081565b6002546001600160a01b031681565b60055481565b60408051808201909152600781526606e65772e312e360cc1b602082015290565b60085481565b600c5460ff1681565b6003546001600160a01b031690565b6001546001600160a01b031681565b6010546001600160a01b031681565b601b5460ff1681565b6011546001600160a01b031681565b600f546001600160a01b031681565b610c3e33610a67565b610c795760405162461bcd60e51b81526004018080602001828103825260228152602001806113386022913960400191505060405180910390fd5b610a4960008051602061138a83398151915282610aab565b60195481565b610ca033610a67565b610cdb5760405162461bcd60e51b81526004018080602001828103825260228152602001806113386022913960400191505060405180910390fd5b6001600160a01b038116610d31576040805162461bcd60e51b815260206004820152601860248201527741636365737369626c653a207a65726f206164647265737360401b604482015290519081900360640190fd5b336001600160a01b0382161415610d88576040805162461bcd60e51b815260206004820152601660248201527520b1b1b2b9b9b4b136329d1039b0b6b29030b236b4b760511b604482015290519081900360640190fd5b610da060008051602061138a83398151915282610aab565b610a4960008051602061138a83398151915233610b17565b60008051602061138a83398151915281565b600a5481565b600e546001600160a01b031681565b6000828152601c60205260408120610df790836110e2565b9392505050565b6000828152601c60205260408120610df790836110ee565b6012546001600160a01b031681565b600080610e306112c8565b5050600254600354604080516060810182526004548152600554602082015260065491810191909152600754600854600a546001600160a01b03958616979590941695509193909290565b600c5461010090046001600160a01b031681565b600c54600160a81b900460ff1681565b600081565b6009602052600090815260409020805460018201546002830154600384015460048501546005860154600690960154949593949293919290919060ff1687565b60075481565b6000818152601c60205260408120610a8190611103565b600d546001600160a01b031681565b7ff0887ba65ee2024ea881d91b74c2450ef19e1557f03bed3ea9f16b037cbe2dc981565b6000828152601c6020526040902060020154610f5290610ac961100c565b610b6e5760405162461bcd60e51b815260040180806020018281038252603081526020018061135a6030913960400191505060405180910390fd5b6001600160a01b03166000908152600960205260409020805460018201546002830154600384015460048501546005860154600690960154949693959294919390929160ff1690565b601a5481565b60175481565b60185481565b6003546001600160a01b031681565b6000546001600160a01b031681565b60135481565b3390565b6000828152601c60205260409020611028908261110e565b15610b135761103561100c565b6001600160a01b0316816001600160a01b0316837f2f8788117e7eff1d82e926ec794901d17c78024a50270940304540a733656f0d60405160405180910390a45050565b6000828152601c602052604090206110919082611123565b15610b135761109e61100c565b6001600160a01b0316816001600160a01b0316837ff6391f5c32d9c69d2a47ea670b442974b53935d1edc7fd64eb21e047a839171b60405160405180910390a45050565b6000610df78383611138565b6000610df7836001600160a01b03841661119c565b6000610a81826111b4565b6000610df7836001600160a01b0384166111b8565b6000610df7836001600160a01b038416611202565b8154600090821061117a5760405162461bcd60e51b81526004018080602001828103825260228152602001806112e76022913960400191505060405180910390fd5b82600001828154811061118957fe5b9060005260206000200154905092915050565b60009081526001919091016020526040902054151590565b5490565b60006111c4838361119c565b6111fa57508154600181810184556000848152602080822090930184905584548482528286019093526040902091909155610a81565b506000610a81565b600081815260018301602052604081205480156112be578354600019808301919081019060009087908390811061123557fe5b906000526020600020015490508087600001848154811061125257fe5b60009182526020808320909101929092558281526001898101909252604090209084019055865487908061128257fe5b60019003818190600052602060002001600090559055866001016000878152602001908152602001600020600090556001945050505050610a81565b6000915050610a81565b6040518060600160405280600390602082028036833750919291505056fe456e756d657261626c655365743a20696e646578206f7574206f6620626f756e6473416363657373436f6e74726f6c3a2073656e646572206d75737420626520616e2061646d696e20746f206772616e7441636365737369626c653a2043616c6c6572206973206e6f7420616e2061646d696e416363657373436f6e74726f6c3a2073656e646572206d75737420626520616e2061646d696e20746f207265766f6b65df8b4c520ffe197c5343c6f5aec59570151ef9a492f2c624fd45ddde6135ec42416363657373436f6e74726f6c3a2063616e206f6e6c792072656e6f756e636520726f6c657320666f722073656c66a2646970667358221220a10ca8944cd60f676483bf72e2ea4e94b950600f757ff7ff0f05ed0eebeb143b64736f6c63430007060033",
  "linkReferences": {},
  "deployedLinkReferences": {}
}