{
  "_format": "hh-sol-artifact-1",
  "contractName": "PublicSaleTest",
  "sourceName": "contracts/sale/PublicSaleTest.sol",
  "abi": [
    {
      "anonymous": false,
      "inputs": [
        {
          "indexed": true,
          "internalType": "address",
          "name": "from",
          "type": "address"
        },
        {
          "indexed": false,
          "internalType": "uint256",
          "name": "tier",
          "type": "uint256"
        }
      ],
      "name": "AddedWhiteList",
      "type": "event"
    },
    {
      "anonymous": false,
      "inputs": [
        {
          "indexed": true,
          "internalType": "address",
          "name": "from",
          "type": "address"
        },
        {
          "indexed": false,
          "internalType": "uint256",
          "name": "amount",
          "type": "uint256"
        }
      ],
      "name": "Claimed",
      "type": "event"
    },
    {
      "anonymous": false,
      "inputs": [
        {
          "indexed": true,
          "internalType": "address",
          "name": "from",
          "type": "address"
        },
        {
          "indexed": false,
          "internalType": "uint256",
          "name": "amount",
          "type": "uint256"
        },
        {
          "indexed": false,
          "internalType": "uint256",
          "name": "liquidityAmount",
          "type": "uint256"
        }
      ],
      "name": "DepositWithdrawal",
      "type": "event"
    },
    {
      "anonymous": false,
      "inputs": [
        {
          "indexed": true,
          "internalType": "address",
          "name": "from",
          "type": "address"
        },
        {
          "indexed": false,
          "internalType": "uint256",
          "name": "amount",
          "type": "uint256"
        }
      ],
      "name": "Deposited",
      "type": "event"
    },
    {
      "anonymous": false,
      "inputs": [
        {
          "indexed": true,
          "internalType": "address",
          "name": "from",
          "type": "address"
        },
        {
          "indexed": false,
          "internalType": "uint256",
          "name": "amount",
          "type": "uint256"
        }
      ],
      "name": "ExclusiveSaled",
      "type": "event"
    },
    {
      "anonymous": false,
      "inputs": [
        {
          "indexed": true,
          "internalType": "bytes32",
          "name": "role",
          "type": "bytes32"
        },
        {
          "indexed": true,
          "internalType": "bytes32",
          "name": "previousAdminRole",
          "type": "bytes32"
        },
        {
          "indexed": true,
          "internalType": "bytes32",
          "name": "newAdminRole",
          "type": "bytes32"
        }
      ],
      "name": "RoleAdminChanged",
      "type": "event"
    },
    {
      "anonymous": false,
      "inputs": [
        {
          "indexed": true,
          "internalType": "bytes32",
          "name": "role",
          "type": "bytes32"
        },
        {
          "indexed": true,
          "internalType": "address",
          "name": "account",
          "type": "address"
        },
        {
          "indexed": true,
          "internalType": "address",
          "name": "sender",
          "type": "address"
        }
      ],
      "name": "RoleGranted",
      "type": "event"
    },
    {
      "anonymous": false,
      "inputs": [
        {
          "indexed": true,
          "internalType": "bytes32",
          "name": "role",
          "type": "bytes32"
        },
        {
          "indexed": true,
          "internalType": "address",
          "name": "account",
          "type": "address"
        },
        {
          "indexed": true,
          "internalType": "address",
          "name": "sender",
          "type": "address"
        }
      ],
      "name": "RoleRevoked",
      "type": "event"
    },
    {
      "anonymous": false,
      "inputs": [
        {
          "indexed": true,
          "internalType": "address",
          "name": "from",
          "type": "address"
        },
        {
          "indexed": false,
          "internalType": "uint256",
          "name": "amount",
          "type": "uint256"
        }
      ],
      "name": "Withdrawal",
      "type": "event"
    },
    {
      "inputs": [],
      "name": "ADMIN_ROLE",
      "outputs": [
        {
          "internalType": "bytes32",
          "name": "",
          "type": "bytes32"
        }
      ],
      "stateMutability": "view",
      "type": "function"
    },
    {
      "inputs": [],
      "name": "BURNER_ROLE",
      "outputs": [
        {
          "internalType": "bytes32",
          "name": "",
          "type": "bytes32"
        }
      ],
      "stateMutability": "view",
      "type": "function"
    },
    {
      "inputs": [],
      "name": "DEFAULT_ADMIN_ROLE",
      "outputs": [
        {
          "internalType": "bytes32",
          "name": "",
          "type": "bytes32"
        }
      ],
      "stateMutability": "view",
      "type": "function"
    },
    {
      "inputs": [],
      "name": "MINTER_ROLE",
      "outputs": [
        {
          "internalType": "bytes32",
          "name": "",
          "type": "bytes32"
        }
      ],
      "stateMutability": "view",
      "type": "function"
    },
    {
      "inputs": [],
      "name": "PROJECT_ADMIN_ROLE",
      "outputs": [
        {
          "internalType": "bytes32",
          "name": "",
          "type": "bytes32"
        }
      ],
      "stateMutability": "view",
      "type": "function"
    },
    {
      "inputs": [
        {
          "internalType": "bytes",
          "name": "data",
          "type": "bytes"
        }
      ],
      "name": "_decodeApproveData",
      "outputs": [
        {
          "internalType": "uint256",
          "name": "approveData",
          "type": "uint256"
        }
      ],
      "stateMutability": "pure",
      "type": "function"
    },
    {
      "inputs": [
        {
          "internalType": "uint256",
          "name": "v",
          "type": "uint256"
        }
      ],
      "name": "_toWAD",
      "outputs": [
        {
          "internalType": "uint256",
          "name": "",
          "type": "uint256"
        }
      ],
      "stateMutability": "pure",
      "type": "function"
    },
    {
      "inputs": [
        {
          "internalType": "address",
          "name": "account",
          "type": "address"
        }
      ],
      "name": "addAdmin",
      "outputs": [],
      "stateMutability": "nonpayable",
      "type": "function"
    },
    {
      "inputs": [
        {
          "internalType": "address",
          "name": "_owner",
          "type": "address"
        }
      ],
      "name": "addProxyAdmin",
      "outputs": [],
      "stateMutability": "nonpayable",
      "type": "function"
    },
    {
      "inputs": [],
      "name": "addWhiteList",
      "outputs": [],
      "stateMutability": "nonpayable",
      "type": "function"
    },
    {
      "inputs": [],
      "name": "adminWithdraw",
      "outputs": [
        {
          "internalType": "bool",
          "name": "",
          "type": "bool"
        }
      ],
      "stateMutability": "view",
      "type": "function"
    },
    {
      "inputs": [
        {
          "internalType": "address",
          "name": "_account",
          "type": "address"
        },
        {
          "internalType": "uint256",
          "name": "_round",
          "type": "uint256"
        }
      ],
      "name": "calculClaimAmount",
      "outputs": [
        {
          "internalType": "uint256",
          "name": "_reward",
          "type": "uint256"
        },
        {
          "internalType": "uint256",
          "name": "_totalClaim",
          "type": "uint256"
        },
        {
          "internalType": "uint256",
          "name": "_refundAmount",
          "type": "uint256"
        }
      ],
      "stateMutability": "view",
      "type": "function"
    },
    {
      "inputs": [
        {
          "internalType": "address",
          "name": "_account",
          "type": "address"
        },
        {
          "internalType": "uint256",
          "name": "_amount",
          "type": "uint256"
        }
      ],
      "name": "calculOpenSaleAmount",
      "outputs": [
        {
          "internalType": "uint256",
          "name": "",
          "type": "uint256"
        }
      ],
      "stateMutability": "view",
      "type": "function"
    },
    {
      "inputs": [
        {
          "internalType": "uint256",
          "name": "_amount",
          "type": "uint256"
        }
      ],
      "name": "calculPayToken",
      "outputs": [
        {
          "internalType": "uint256",
          "name": "",
          "type": "uint256"
        }
      ],
      "stateMutability": "view",
      "type": "function"
    },
    {
      "inputs": [
        {
          "internalType": "uint256",
          "name": "_amount",
          "type": "uint256"
        }
      ],
      "name": "calculSaleToken",
      "outputs": [
        {
          "internalType": "uint256",
          "name": "",
          "type": "uint256"
        }
      ],
      "stateMutability": "view",
      "type": "function"
    },
    {
      "inputs": [
        {
          "internalType": "address",
          "name": "_address",
          "type": "address"
        }
      ],
      "name": "calculTier",
      "outputs": [
        {
          "internalType": "uint256",
          "name": "",
          "type": "uint256"
        }
      ],
      "stateMutability": "view",
      "type": "function"
    },
    {
      "inputs": [
        {
          "internalType": "address",
          "name": "_address",
          "type": "address"
        }
      ],
      "name": "calculTierAmount",
      "outputs": [
        {
          "internalType": "uint256",
          "name": "",
          "type": "uint256"
        }
      ],
      "stateMutability": "view",
      "type": "function"
    },
    {
      "inputs": [
        {
          "internalType": "address",
          "name": "_address",
          "type": "address"
        }
      ],
      "name": "changeTONOwner",
      "outputs": [],
      "stateMutability": "nonpayable",
      "type": "function"
    },
    {
      "inputs": [],
      "name": "changeTOS",
      "outputs": [
        {
          "internalType": "uint256",
          "name": "",
          "type": "uint256"
        }
      ],
      "stateMutability": "view",
      "type": "function"
    },
    {
      "inputs": [],
      "name": "claim",
      "outputs": [],
      "stateMutability": "nonpayable",
      "type": "function"
    },
    {
      "inputs": [],
      "name": "claimFirst",
      "outputs": [
        {
          "internalType": "uint256",
          "name": "",
          "type": "uint256"
        }
      ],
      "stateMutability": "view",
      "type": "function"
    },
    {
      "inputs": [],
      "name": "claimInterval",
      "outputs": [
        {
          "internalType": "uint256",
          "name": "",
          "type": "uint256"
        }
      ],
      "stateMutability": "view",
      "type": "function"
    },
    {
      "inputs": [
        {
          "internalType": "uint256",
          "name": "",
          "type": "uint256"
        }
      ],
      "name": "claimPercents",
      "outputs": [
        {
          "internalType": "uint256",
          "name": "",
          "type": "uint256"
        }
      ],
      "stateMutability": "view",
      "type": "function"
    },
    {
      "inputs": [],
      "name": "claimPeriod",
      "outputs": [
        {
          "internalType": "uint256",
          "name": "",
          "type": "uint256"
        }
      ],
      "stateMutability": "view",
      "type": "function"
    },
    {
      "inputs": [
        {
          "internalType": "uint256",
          "name": "",
          "type": "uint256"
        }
      ],
      "name": "claimTimes",
      "outputs": [
        {
          "internalType": "uint256",
          "name": "",
          "type": "uint256"
        }
      ],
      "stateMutability": "view",
      "type": "function"
    },
    {
      "inputs": [],
      "name": "currentRound",
      "outputs": [
        {
          "internalType": "uint256",
          "name": "round",
          "type": "uint256"
        }
      ],
      "stateMutability": "view",
      "type": "function"
    },
    {
      "inputs": [],
      "name": "delayTime",
      "outputs": [
        {
          "internalType": "uint256",
          "name": "",
          "type": "uint256"
        }
      ],
      "stateMutability": "view",
      "type": "function"
    },
    {
      "inputs": [],
      "name": "deployTime",
      "outputs": [
        {
          "internalType": "uint256",
          "name": "",
          "type": "uint256"
        }
      ],
      "stateMutability": "view",
      "type": "function"
    },
    {
      "inputs": [
        {
          "internalType": "address",
          "name": "_sender",
          "type": "address"
        },
        {
          "internalType": "uint256",
          "name": "_amount",
          "type": "uint256"
        }
      ],
      "name": "deposit",
      "outputs": [],
      "stateMutability": "nonpayable",
      "type": "function"
    },
    {
      "inputs": [],
      "name": "depositWithdraw",
      "outputs": [],
      "stateMutability": "nonpayable",
      "type": "function"
    },
    {
      "inputs": [
        {
          "internalType": "uint256",
          "name": "",
          "type": "uint256"
        }
      ],
      "name": "depositors",
      "outputs": [
        {
          "internalType": "address",
          "name": "",
          "type": "address"
        }
      ],
      "stateMutability": "view",
      "type": "function"
    },
    {
      "inputs": [
        {
          "internalType": "uint256",
          "name": "_round",
          "type": "uint256"
        }
      ],
      "name": "distributionByRound",
      "outputs": [
        {
          "internalType": "uint256",
          "name": "",
          "type": "uint256"
        }
      ],
      "stateMutability": "view",
      "type": "function"
    },
    {
      "inputs": [
        {
          "internalType": "uint256",
          "name": "startRound",
          "type": "uint256"
        },
        {
          "internalType": "uint256",
          "name": "endRound",
          "type": "uint256"
        }
      ],
      "name": "distributionByRounds",
      "outputs": [
        {
          "internalType": "uint256[]",
          "name": "",
          "type": "uint256[]"
        }
      ],
      "stateMutability": "view",
      "type": "function"
    },
    {
      "inputs": [],
      "name": "endAddWhiteTime",
      "outputs": [
        {
          "internalType": "uint256",
          "name": "",
          "type": "uint256"
        }
      ],
      "stateMutability": "view",
      "type": "function"
    },
    {
      "inputs": [],
      "name": "endDepositTime",
      "outputs": [
        {
          "internalType": "uint256",
          "name": "",
          "type": "uint256"
        }
      ],
      "stateMutability": "view",
      "type": "function"
    },
    {
      "inputs": [],
      "name": "endExclusiveTime",
      "outputs": [
        {
          "internalType": "uint256",
          "name": "",
          "type": "uint256"
        }
      ],
      "stateMutability": "view",
      "type": "function"
    },
    {
      "inputs": [
        {
          "internalType": "address",
          "name": "_sender",
          "type": "address"
        },
        {
          "internalType": "uint256",
          "name": "_amount",
          "type": "uint256"
        }
      ],
      "name": "exclusiveSale",
      "outputs": [],
      "stateMutability": "nonpayable",
      "type": "function"
    },
    {
      "inputs": [
        {
          "internalType": "bytes32",
          "name": "role",
          "type": "bytes32"
        }
      ],
      "name": "getRoleAdmin",
      "outputs": [
        {
          "internalType": "bytes32",
          "name": "",
          "type": "bytes32"
        }
      ],
      "stateMutability": "view",
      "type": "function"
    },
    {
      "inputs": [
        {
          "internalType": "bytes32",
          "name": "role",
          "type": "bytes32"
        },
        {
          "internalType": "uint256",
          "name": "index",
          "type": "uint256"
        }
      ],
      "name": "getRoleMember",
      "outputs": [
        {
          "internalType": "address",
          "name": "",
          "type": "address"
        }
      ],
      "stateMutability": "view",
      "type": "function"
    },
    {
      "inputs": [
        {
          "internalType": "bytes32",
          "name": "role",
          "type": "bytes32"
        }
      ],
      "name": "getRoleMemberCount",
      "outputs": [
        {
          "internalType": "uint256",
          "name": "",
          "type": "uint256"
        }
      ],
      "stateMutability": "view",
      "type": "function"
    },
    {
      "inputs": [],
      "name": "getToken",
      "outputs": [
        {
          "internalType": "address",
          "name": "",
          "type": "address"
        }
      ],
      "stateMutability": "view",
      "type": "function"
    },
    {
      "inputs": [],
      "name": "getTokenOwner",
      "outputs": [
        {
          "internalType": "address",
          "name": "",
          "type": "address"
        }
      ],
      "stateMutability": "view",
      "type": "function"
    },
    {
      "inputs": [
        {
          "internalType": "bytes32",
          "name": "role",
          "type": "bytes32"
        },
        {
          "internalType": "address",
          "name": "account",
          "type": "address"
        }
      ],
      "name": "grantRole",
      "outputs": [],
      "stateMutability": "nonpayable",
      "type": "function"
    },
    {
      "inputs": [],
      "name": "hardCap",
      "outputs": [
        {
          "internalType": "uint256",
          "name": "",
          "type": "uint256"
        }
      ],
      "stateMutability": "view",
      "type": "function"
    },
    {
      "inputs": [],
      "name": "hardcapCalcul",
      "outputs": [
        {
          "internalType": "uint256",
          "name": "",
          "type": "uint256"
        }
      ],
      "stateMutability": "view",
      "type": "function"
    },
    {
      "inputs": [
        {
          "internalType": "bytes32",
          "name": "role",
          "type": "bytes32"
        },
        {
          "internalType": "address",
          "name": "account",
          "type": "address"
        }
      ],
      "name": "hasRole",
      "outputs": [
        {
          "internalType": "bool",
          "name": "",
          "type": "bool"
        }
      ],
      "stateMutability": "view",
      "type": "function"
    },
    {
      "inputs": [
        {
          "internalType": "address",
          "name": "account",
          "type": "address"
        }
      ],
      "name": "isAdmin",
      "outputs": [
        {
          "internalType": "bool",
          "name": "",
          "type": "bool"
        }
      ],
      "stateMutability": "view",
      "type": "function"
    },
    {
      "inputs": [
        {
          "internalType": "address",
          "name": "account",
          "type": "address"
        }
      ],
      "name": "isProxyAdmin",
      "outputs": [
        {
          "internalType": "bool",
          "name": "",
          "type": "bool"
        }
      ],
      "stateMutability": "view",
      "type": "function"
    },
    {
      "inputs": [],
      "name": "liquidityVaultAddress",
      "outputs": [
        {
          "internalType": "address",
          "name": "",
          "type": "address"
        }
      ],
      "stateMutability": "view",
      "type": "function"
    },
    {
      "inputs": [],
      "name": "maxPer",
      "outputs": [
        {
          "internalType": "uint256",
          "name": "",
          "type": "uint256"
        }
      ],
      "stateMutability": "view",
      "type": "function"
    },
    {
      "inputs": [],
      "name": "minPer",
      "outputs": [
        {
          "internalType": "uint256",
          "name": "",
          "type": "uint256"
        }
      ],
      "stateMutability": "view",
      "type": "function"
    },
    {
      "inputs": [
        {
          "internalType": "address",
          "name": "user",
          "type": "address"
        }
      ],
      "name": "openSaleUserAmount",
      "outputs": [
        {
          "internalType": "uint256",
          "name": "_realPayAmount",
          "type": "uint256"
        },
        {
          "internalType": "uint256",
          "name": "_realSaleAmount",
          "type": "uint256"
        },
        {
          "internalType": "uint256",
          "name": "_refundAmount",
          "type": "uint256"
        }
      ],
      "stateMutability": "view",
      "type": "function"
    },
    {
      "inputs": [],
      "name": "pauseProxy",
      "outputs": [
        {
          "internalType": "bool",
          "name": "",
          "type": "bool"
        }
      ],
      "stateMutability": "view",
      "type": "function"
    },
    {
      "inputs": [],
      "name": "payTokenPrice",
      "outputs": [
        {
          "internalType": "uint256",
          "name": "",
          "type": "uint256"
        }
      ],
      "stateMutability": "view",
      "type": "function"
    },
    {
      "inputs": [],
      "name": "poolFee",
      "outputs": [
        {
          "internalType": "uint24",
          "name": "",
          "type": "uint24"
        }
      ],
      "stateMutability": "view",
      "type": "function"
    },
    {
      "inputs": [],
      "name": "removeAdmin",
      "outputs": [],
      "stateMutability": "nonpayable",
      "type": "function"
    },
    {
      "inputs": [],
      "name": "removeProxyAdmin",
      "outputs": [],
      "stateMutability": "nonpayable",
      "type": "function"
    },
    {
      "inputs": [
        {
          "internalType": "bytes32",
          "name": "role",
          "type": "bytes32"
        },
        {
          "internalType": "address",
          "name": "account",
          "type": "address"
        }
      ],
      "name": "renounceRole",
      "outputs": [],
      "stateMutability": "nonpayable",
      "type": "function"
    },
    {
      "inputs": [],
      "name": "resetAllData",
      "outputs": [],
      "stateMutability": "nonpayable",
      "type": "function"
    },
    {
      "inputs": [
        {
          "internalType": "bytes32",
          "name": "role",
          "type": "bytes32"
        },
        {
          "internalType": "address",
          "name": "account",
          "type": "address"
        }
      ],
      "name": "revokeRole",
      "outputs": [],
      "stateMutability": "nonpayable",
      "type": "function"
    },
    {
      "inputs": [],
      "name": "sTOS",
      "outputs": [
        {
          "internalType": "contract ILockTOS",
          "name": "",
          "type": "address"
        }
      ],
      "stateMutability": "view",
      "type": "function"
    },
    {
      "inputs": [],
      "name": "saleToken",
      "outputs": [
        {
          "internalType": "contract IERC20",
          "name": "",
          "type": "address"
        }
      ],
      "stateMutability": "view",
      "type": "function"
    },
    {
      "inputs": [],
      "name": "saleTokenPrice",
      "outputs": [
        {
          "internalType": "uint256",
          "name": "",
          "type": "uint256"
        }
      ],
      "stateMutability": "view",
      "type": "function"
    },
    {
      "inputs": [
        {
          "internalType": "uint256[2]",
          "name": "_expectAmount",
          "type": "uint256[2]"
        },
        {
          "internalType": "uint256[2]",
          "name": "_priceAmount",
          "type": "uint256[2]"
        }
      ],
      "name": "setAllAmount",
      "outputs": [],
      "stateMutability": "nonpayable",
      "type": "function"
    },
    {
      "inputs": [
        {
          "internalType": "uint256[4]",
          "name": "_tier",
          "type": "uint256[4]"
        },
        {
          "internalType": "uint256[4]",
          "name": "_tierPercent",
          "type": "uint256[4]"
        }
      ],
      "name": "setAllTier",
      "outputs": [],
      "stateMutability": "nonpayable",
      "type": "function"
    },
    {
      "inputs": [
        {
          "internalType": "uint256[8]",
          "name": "_Tier",
          "type": "uint256[8]"
        },
        {
          "internalType": "uint256[6]",
          "name": "_amount",
          "type": "uint256[6]"
        },
        {
          "internalType": "uint256[8]",
          "name": "_time",
          "type": "uint256[8]"
        },
        {
          "internalType": "uint256[]",
          "name": "_claimTimes",
          "type": "uint256[]"
        },
        {
          "internalType": "uint256[]",
          "name": "_claimPercents",
          "type": "uint256[]"
        }
      ],
      "name": "setAllsetting",
      "outputs": [],
      "stateMutability": "nonpayable",
      "type": "function"
    },
    {
      "inputs": [
        {
          "internalType": "uint256",
          "name": "_claimCounts",
          "type": "uint256"
        },
        {
          "internalType": "uint256[]",
          "name": "_claimTimes",
          "type": "uint256[]"
        },
        {
          "internalType": "uint256[]",
          "name": "_claimPercents",
          "type": "uint256[]"
        }
      ],
      "name": "setEachClaim",
      "outputs": [],
      "stateMutability": "nonpayable",
      "type": "function"
    },
    {
      "inputs": [
        {
          "internalType": "uint256",
          "name": "_startAddWhiteTime",
          "type": "uint256"
        },
        {
          "internalType": "uint256",
          "name": "_endAddWhiteTime",
          "type": "uint256"
        },
        {
          "internalType": "uint256",
          "name": "_startExclusiveTime",
          "type": "uint256"
        },
        {
          "internalType": "uint256",
          "name": "_endExclusiveTime",
          "type": "uint256"
        }
      ],
      "name": "setExclusiveTime",
      "outputs": [],
      "stateMutability": "nonpayable",
      "type": "function"
    },
    {
      "inputs": [
        {
          "internalType": "uint256",
          "name": "_hardcapAmount",
          "type": "uint256"
        },
        {
          "internalType": "uint256",
          "name": "_changePercent",
          "type": "uint256"
        }
      ],
      "name": "setHardcap",
      "outputs": [],
      "stateMutability": "nonpayable",
      "type": "function"
    },
    {
      "inputs": [
        {
          "internalType": "uint256",
          "name": "_startDepositTime",
          "type": "uint256"
        },
        {
          "internalType": "uint256",
          "name": "_endDepositTime",
          "type": "uint256"
        }
      ],
      "name": "setOpenTime",
      "outputs": [],
      "stateMutability": "nonpayable",
      "type": "function"
    },
    {
      "inputs": [
        {
          "internalType": "uint256",
          "name": "_totalExpectSaleAmount",
          "type": "uint256"
        },
        {
          "internalType": "uint256",
          "name": "_totalExpectOpenSaleAmount",
          "type": "uint256"
        }
      ],
      "name": "setSaleAmount",
      "outputs": [],
      "stateMutability": "nonpayable",
      "type": "function"
    },
    {
      "inputs": [
        {
          "internalType": "uint256",
          "name": "_snapshot",
          "type": "uint256"
        }
      ],
      "name": "setSnapshot",
      "outputs": [],
      "stateMutability": "nonpayable",
      "type": "function"
    },
    {
      "inputs": [
        {
          "internalType": "uint256",
          "name": "_tier1",
          "type": "uint256"
        },
        {
          "internalType": "uint256",
          "name": "_tier2",
          "type": "uint256"
        },
        {
          "internalType": "uint256",
          "name": "_tier3",
          "type": "uint256"
        },
        {
          "internalType": "uint256",
          "name": "_tier4",
          "type": "uint256"
        }
      ],
      "name": "setTier",
      "outputs": [],
      "stateMutability": "nonpayable",
      "type": "function"
    },
    {
      "inputs": [
        {
          "internalType": "uint256",
          "name": "_tier1",
          "type": "uint256"
        },
        {
          "internalType": "uint256",
          "name": "_tier2",
          "type": "uint256"
        },
        {
          "internalType": "uint256",
          "name": "_tier3",
          "type": "uint256"
        },
        {
          "internalType": "uint256",
          "name": "_tier4",
          "type": "uint256"
        }
      ],
      "name": "setTierPercents",
      "outputs": [],
      "stateMutability": "nonpayable",
      "type": "function"
    },
    {
      "inputs": [
        {
          "internalType": "uint256",
          "name": "_saleTokenPrice",
          "type": "uint256"
        },
        {
          "internalType": "uint256",
          "name": "_payTokenPrice",
          "type": "uint256"
        }
      ],
      "name": "setTokenPrice",
      "outputs": [],
      "stateMutability": "nonpayable",
      "type": "function"
    },
    {
      "inputs": [],
      "name": "snapshot",
      "outputs": [
        {
          "internalType": "uint256",
          "name": "",
          "type": "uint256"
        }
      ],
      "stateMutability": "view",
      "type": "function"
    },
    {
      "inputs": [],
      "name": "stanTier1",
      "outputs": [
        {
          "internalType": "uint256",
          "name": "",
          "type": "uint256"
        }
      ],
      "stateMutability": "view",
      "type": "function"
    },
    {
      "inputs": [],
      "name": "stanTier2",
      "outputs": [
        {
          "internalType": "uint256",
          "name": "",
          "type": "uint256"
        }
      ],
      "stateMutability": "view",
      "type": "function"
    },
    {
      "inputs": [],
      "name": "stanTier3",
      "outputs": [
        {
          "internalType": "uint256",
          "name": "",
          "type": "uint256"
        }
      ],
      "stateMutability": "view",
      "type": "function"
    },
    {
      "inputs": [],
      "name": "stanTier4",
      "outputs": [
        {
          "internalType": "uint256",
          "name": "",
          "type": "uint256"
        }
      ],
      "stateMutability": "view",
      "type": "function"
    },
    {
      "inputs": [],
      "name": "startAddWhiteTime",
      "outputs": [
        {
          "internalType": "uint256",
          "name": "",
          "type": "uint256"
        }
      ],
      "stateMutability": "view",
      "type": "function"
    },
    {
      "inputs": [],
      "name": "startClaimTime",
      "outputs": [
        {
          "internalType": "uint256",
          "name": "",
          "type": "uint256"
        }
      ],
      "stateMutability": "view",
      "type": "function"
    },
    {
      "inputs": [],
      "name": "startDepositTime",
      "outputs": [
        {
          "internalType": "uint256",
          "name": "",
          "type": "uint256"
        }
      ],
      "stateMutability": "view",
      "type": "function"
    },
    {
      "inputs": [],
      "name": "startExclusiveTime",
      "outputs": [
        {
          "internalType": "uint256",
          "name": "",
          "type": "uint256"
        }
      ],
      "stateMutability": "view",
      "type": "function"
    },
    {
      "inputs": [
        {
          "internalType": "uint256",
          "name": "",
          "type": "uint256"
        }
      ],
      "name": "tiers",
      "outputs": [
        {
          "internalType": "uint256",
          "name": "",
          "type": "uint256"
        }
      ],
      "stateMutability": "view",
      "type": "function"
    },
    {
      "inputs": [
        {
          "internalType": "uint256",
          "name": "",
          "type": "uint256"
        }
      ],
      "name": "tiersAccount",
      "outputs": [
        {
          "internalType": "uint256",
          "name": "",
          "type": "uint256"
        }
      ],
      "stateMutability": "view",
      "type": "function"
    },
    {
      "inputs": [
        {
          "internalType": "uint256",
          "name": "",
          "type": "uint256"
        }
      ],
      "name": "tiersExAccount",
      "outputs": [
        {
          "internalType": "uint256",
          "name": "",
          "type": "uint256"
        }
      ],
      "stateMutability": "view",
      "type": "function"
    },
    {
      "inputs": [
        {
          "internalType": "uint256",
          "name": "",
          "type": "uint256"
        }
      ],
      "name": "tiersPercents",
      "outputs": [
        {
          "internalType": "uint256",
          "name": "",
          "type": "uint256"
        }
      ],
      "stateMutability": "view",
      "type": "function"
    },
    {
      "inputs": [],
      "name": "tos",
      "outputs": [
        {
          "internalType": "contract IERC20",
          "name": "",
          "type": "address"
        }
      ],
      "stateMutability": "view",
      "type": "function"
    },
    {
      "inputs": [],
      "name": "totalClaimCounts",
      "outputs": [
        {
          "internalType": "uint256",
          "name": "",
          "type": "uint256"
        }
      ],
      "stateMutability": "view",
      "type": "function"
    },
    {
      "inputs": [],
      "name": "totalDepositAmount",
      "outputs": [
        {
          "internalType": "uint256",
          "name": "",
          "type": "uint256"
        }
      ],
      "stateMutability": "view",
      "type": "function"
    },
    {
      "inputs": [],
      "name": "totalExPurchasedAmount",
      "outputs": [
        {
          "internalType": "uint256",
          "name": "",
          "type": "uint256"
        }
      ],
      "stateMutability": "view",
      "type": "function"
    },
    {
      "inputs": [],
      "name": "totalExSaleAmount",
      "outputs": [
        {
          "internalType": "uint256",
          "name": "",
          "type": "uint256"
        }
      ],
      "stateMutability": "view",
      "type": "function"
    },
    {
      "inputs": [],
      "name": "totalExpectOpenSaleAmount",
      "outputs": [
        {
          "internalType": "uint256",
          "name": "",
          "type": "uint256"
        }
      ],
      "stateMutability": "view",
      "type": "function"
    },
    {
      "inputs": [],
      "name": "totalExpectOpenSaleAmountView",
      "outputs": [
        {
          "internalType": "uint256",
          "name": "",
          "type": "uint256"
        }
      ],
      "stateMutability": "view",
      "type": "function"
    },
    {
      "inputs": [],
      "name": "totalExpectSaleAmount",
      "outputs": [
        {
          "internalType": "uint256",
          "name": "",
          "type": "uint256"
        }
      ],
      "stateMutability": "view",
      "type": "function"
    },
    {
      "inputs": [],
      "name": "totalOpenPurchasedAmount",
      "outputs": [
        {
          "internalType": "uint256",
          "name": "",
          "type": "uint256"
        }
      ],
      "stateMutability": "view",
      "type": "function"
    },
    {
      "inputs": [],
      "name": "totalOpenSaleAmount",
      "outputs": [
        {
          "internalType": "uint256",
          "name": "",
          "type": "uint256"
        }
      ],
      "stateMutability": "view",
      "type": "function"
    },
    {
      "inputs": [],
      "name": "totalRound1NonSaleAmount",
      "outputs": [
        {
          "internalType": "uint256",
          "name": "",
          "type": "uint256"
        }
      ],
      "stateMutability": "view",
      "type": "function"
    },
    {
      "inputs": [],
      "name": "totalRound1Users",
      "outputs": [
        {
          "internalType": "uint256",
          "name": "",
          "type": "uint256"
        }
      ],
      "stateMutability": "view",
      "type": "function"
    },
    {
      "inputs": [],
      "name": "totalRound2Users",
      "outputs": [
        {
          "internalType": "uint256",
          "name": "",
          "type": "uint256"
        }
      ],
      "stateMutability": "view",
      "type": "function"
    },
    {
      "inputs": [],
      "name": "totalRound2UsersClaim",
      "outputs": [
        {
          "internalType": "uint256",
          "name": "",
          "type": "uint256"
        }
      ],
      "stateMutability": "view",
      "type": "function"
    },
    {
      "inputs": [
        {
          "internalType": "address",
          "name": "user",
          "type": "address"
        }
      ],
      "name": "totalSaleUserAmount",
      "outputs": [
        {
          "internalType": "uint256",
          "name": "_realPayAmount",
          "type": "uint256"
        },
        {
          "internalType": "uint256",
          "name": "_realSaleAmount",
          "type": "uint256"
        },
        {
          "internalType": "uint256",
          "name": "_refundAmount",
          "type": "uint256"
        }
      ],
      "stateMutability": "view",
      "type": "function"
    },
    {
      "inputs": [],
      "name": "totalUsers",
      "outputs": [
        {
          "internalType": "uint256",
          "name": "",
          "type": "uint256"
        }
      ],
      "stateMutability": "view",
      "type": "function"
    },
    {
      "inputs": [],
      "name": "totalWhitelists",
      "outputs": [
        {
          "internalType": "uint256",
          "name": "",
          "type": "uint256"
        }
      ],
      "stateMutability": "view",
      "type": "function"
    },
    {
      "inputs": [
        {
          "internalType": "address",
          "name": "newAdmin",
          "type": "address"
        }
      ],
      "name": "transferAdmin",
      "outputs": [],
      "stateMutability": "nonpayable",
      "type": "function"
    },
    {
      "inputs": [
        {
          "internalType": "address",
          "name": "newAdmin",
          "type": "address"
        }
      ],
      "name": "transferProxyAdmin",
      "outputs": [],
      "stateMutability": "nonpayable",
      "type": "function"
    },
    {
      "inputs": [],
      "name": "uniswapRouter",
      "outputs": [
        {
          "internalType": "contract ISwapRouter",
          "name": "",
          "type": "address"
        }
      ],
      "stateMutability": "view",
      "type": "function"
    },
    {
      "inputs": [
        {
          "internalType": "address",
          "name": "",
          "type": "address"
        }
      ],
      "name": "usersClaim",
      "outputs": [
        {
          "internalType": "bool",
          "name": "exec",
          "type": "bool"
        },
        {
          "internalType": "uint256",
          "name": "claimAmount",
          "type": "uint256"
        },
        {
          "internalType": "uint256",
          "name": "refundAmount",
          "type": "uint256"
        }
      ],
      "stateMutability": "view",
      "type": "function"
    },
    {
      "inputs": [
        {
          "internalType": "address",
          "name": "",
          "type": "address"
        }
      ],
      "name": "usersEx",
      "outputs": [
        {
          "internalType": "bool",
          "name": "join",
          "type": "bool"
        },
        {
          "internalType": "uint256",
          "name": "tier",
          "type": "uint256"
        },
        {
          "internalType": "uint256",
          "name": "payAmount",
          "type": "uint256"
        },
        {
          "internalType": "uint256",
          "name": "saleAmount",
          "type": "uint256"
        }
      ],
      "stateMutability": "view",
      "type": "function"
    },
    {
      "inputs": [
        {
          "internalType": "address",
          "name": "",
          "type": "address"
        }
      ],
      "name": "usersOpen",
      "outputs": [
        {
          "internalType": "bool",
          "name": "join",
          "type": "bool"
        },
        {
          "internalType": "uint256",
          "name": "depositAmount",
          "type": "uint256"
        },
        {
          "internalType": "uint256",
          "name": "payAmount",
          "type": "uint256"
        }
      ],
      "stateMutability": "view",
      "type": "function"
    },
    {
      "inputs": [
        {
          "internalType": "uint256",
          "name": "",
          "type": "uint256"
        }
      ],
      "name": "whitelists",
      "outputs": [
        {
          "internalType": "address",
          "name": "",
          "type": "address"
        }
      ],
      "stateMutability": "view",
      "type": "function"
    },
    {
      "inputs": [],
      "name": "wton",
      "outputs": [
        {
          "internalType": "address",
          "name": "",
          "type": "address"
        }
      ],
      "stateMutability": "view",
      "type": "function"
    }
  ],
  "bytecode": "0x608060405260006001556000600455600060055560006006556000600755600060085560006009556000600a556000600b556000600c556000600d556000600e556000600f55600060105534801561005657600080fd5b506001603755615ee9806200006c6000396000f3fe608060405234801561001057600080fd5b50600436106105eb5760003560e01c80638356ca4f11610312578063bf235a15116101a9578063e4b2fb79116100fa578063f18d20be116100a8578063f18d20be14611131578063f3e16d4814611139578063f47f2f1d1461115c578063fb86a40414611182578063fbd9070f1461118a578063fe404c9614611192578063fe4d5add146111af578063ff6dac76146111cc576105eb565b8063e4b2fb7914611090578063e985e367146110ad578063eaff056d146110b5578063eb685c47146110bd578063eb8445f8146110e0578063ed5131f5146110e8578063f0fbf32d14611105576105eb565b8063cae9ce1b11610157578063cae9ce1b14610f08578063d21eb90814610f56578063d539139314611026578063d547741f1461102e578063dc560fcd1461105a578063e016bac414611062578063e30821c61461106a576105eb565b8063bf235a1514610d93578063bfc630b114610e06578063bfc93b0c14610e0e578063bff1f9e114610ed3578063c3e5763514610edb578063c5408d5014610ee3578063ca15c87314610eeb576105eb565b80639d18fde711610263578063a55abb1711610211578063a55abb1714610c8f578063aa5bbf5514610c97578063ae6fa04514610d3b578063b569176714610d58578063b7182b9514610d7b578063b960ca0414610d83578063be72f2d314610d8b576105eb565b80639d18fde714610c425780639f87b77f14610c4a578063a055e62514610c52578063a1b89b7014610c5a578063a217fddf14610c62578063a389595f14610c6a578063a38ffdea14610c72576105eb565b806391d14854116102c057806391d1485414610baa57806394f641d514610bd65780639525269214610bde57806396f1557c14610be65780639711715a14610c0c57806398d97da414610c145780639a202d4714610c3a576105eb565b80638356ca4f14610b2457806389f395de14610b4a5780638a19c8bc14610b525780638d62d94914610b5a5780638f68711a14610b625780639010d07c14610b7f5780639077842314610ba2576105eb565b806351d28a7e1161048657806370480275116103d7578063768b821f11610385578063768b821f14610ace5780637a40624b14610ad65780637dc2cd9814610ade5780637e2eee5314610ae65780637ecd5c7014610aee5780638181e84714610b1457806381a9f6d714610b1c576105eb565b80637048027514610a4157806370c6abf514610a6757806370e5410a14610a6f578063735de9f714610a7757806375829def14610a7f57806375b238fc14610aa55780637676ee3214610aad576105eb565b806366ce72711161043457806366ce72711461099d57806367b399a5146109a557806369048005146109c25780636bbe48af146109df5780636c230839146109fc5780636e0e0da214610a195780636e59abbb14610a21576105eb565b806351d28a7e146108f057806351ebde6d146108f8578063590088bc146109005780635f1af7121461094457806360a2a25c1461097057806361a334271461098d57806363a8fd8914610995576105eb565b806328e50f4b1161054057806341c04d5e116104ee57806341c04d5e1461081757806341c0cb771461081f57806347e7ef2414610865578063494600ea146108915780634dd19921146108bd5780634de389c4146108c55780634e71d92d146108e8576105eb565b806328e50f4b146107705780632cbf3188146107785780632dcdbfd3146107805780632f2ff15d146107af57806336568abe146107db57806337bf0719146108075780633ef541b51461080f576105eb565b8063218183a31161059d578063218183a3146106ae57806321df0da7146106dd578063226bf1a414610701578063248a9ca31461070957806324d7806c14610726578063256019d614610760578063282c51f314610768576105eb565b8063039af9eb146105f0578063089fe6aa1461061f5780630a8885501461063f5780630b433a12146106705780631a1197e7146106785780631bfc751e1461069e5780631c53f256146106a6575b600080fd5b61060d6004803603602081101561060657600080fd5b50356111f2565b60408051918252519081900360200190f35b610627611204565b6040805162ffffff9092168252519081900360200190f35b61066e6004803603608081101561065557600080fd5b508035906020810135906040810135906060013561120a565b005b61060d61139d565b61060d6004803603602081101561068e57600080fd5b50356001600160a01b03166113a3565b61060d611492565b61060d611498565b61066e600480360360808110156106c457600080fd5b508035906020810135906040810135906060013561149e565b6106e56116d8565b604080516001600160a01b039092168252519081900360200190f35b61060d6116e7565b61060d6004803603602081101561071f57600080fd5b50356116ed565b61074c6004803603602081101561073c57600080fd5b50356001600160a01b0316611702565b604080519115158252519081900360200190f35b61060d611722565b61060d611728565b61060d61174c565b61060d61177b565b61066e6004803603608081101561079657600080fd5b50803590602081013590604081013590606001356117b0565b61066e600480360360408110156107c557600080fd5b50803590602001356001600160a01b031661195a565b61066e600480360360408110156107f157600080fd5b50803590602001356001600160a01b03166119c6565b6106e5611a27565b61060d611a36565b61060d611a3c565b6108456004803603602081101561083557600080fd5b50356001600160a01b0316611a4e565b604080519315158452602084019290925282820152519081900360600190f35b61066e6004803603604081101561087b57600080fd5b506001600160a01b038135169060200135611a73565b61060d600480360360408110156108a757600080fd5b506001600160a01b038135169060200135611bf4565b6106e5611c55565b61066e600480360360408110156108db57600080fd5b5080359060200135611c64565b61066e611d8b565b61060d61210d565b61060d612113565b6109266004803603602081101561091657600080fd5b50356001600160a01b0316612119565b60408051938452602084019290925282820152519081900360600190f35b6109266004803603604081101561095a57600080fd5b506001600160a01b0381351690602001356121a2565b61060d6004803603602081101561098657600080fd5b5035612336565b61060d61235b565b61074c612361565b61060d61236a565b61060d600480360360208110156109bb57600080fd5b5035612370565b61060d600480360360208110156109d857600080fd5b5035612382565b61060d600480360360208110156109f557600080fd5b5035612394565b61066e60048036036020811015610a1257600080fd5b503561239e565b61066e61247e565b61066e60048036036080811015610a3757600080fd5b50604081016129b7565b61066e60048036036020811015610a5757600080fd5b50356001600160a01b0316612a30565b61066e612a8f565b61060d612cbf565b6106e5612d01565b61066e60048036036020811015610a9557600080fd5b50356001600160a01b0316612d10565b61060d612e40565b61066e6004803603610100811015610ac457600080fd5b5060808101612e64565b61060d612f4a565b61060d612f50565b61060d612f56565b61060d612f5c565b61060d60048036036020811015610b0457600080fd5b50356001600160a01b0316612f62565b61066e613237565b61060d6133eb565b61066e60048036036020811015610b3a57600080fd5b50356001600160a01b03166133f1565b6106e56134f8565b61060d613507565b6106e5613575565b61060d60048036036020811015610b7857600080fd5b5035613584565b6106e560048036036040811015610b9557600080fd5b5080359060200135613596565b61060d6135ae565b61074c60048036036040811015610bc057600080fd5b50803590602001356001600160a01b03166135c7565b61060d6135df565b61060d6135e5565b61066e60048036036020811015610bfc57600080fd5b50356001600160a01b03166135eb565b61060d61363a565b61092660048036036020811015610c2a57600080fd5b50356001600160a01b0316613640565b61066e6136f2565b61060d61375d565b61060d613763565b61060d613769565b61060d61376f565b61060d613775565b61060d61377a565b61060d60048036036020811015610c8857600080fd5b5035613780565b61060d61379e565b61060d60048036036020811015610cad57600080fd5b810190602081018135600160201b811115610cc757600080fd5b820183602082011115610cd957600080fd5b803590602001918460018302840111600160201b83111715610cfa57600080fd5b91908080601f0160208091040260200160405190810160405280939291908181526020018383808284376000920191909152509295506137a4945050505050565b61060d60048036036020811015610d5157600080fd5b50356137ab565b61066e60048036036040811015610d6e57600080fd5b5080359060200135613808565b6106e561391e565b61060d61392d565b61066e613933565b610db660048036036040811015610da957600080fd5b5080359060200135613982565b60408051602080825283518183015283519192839290830191858101910280838360005b83811015610df2578181015183820152602001610dda565b505050509050019250505060405180910390f35b61060d613b0f565b61066e60048036036060811015610e2457600080fd5b81359190810190604081016020820135600160201b811115610e4557600080fd5b820183602082011115610e5757600080fd5b803590602001918460208302840111600160201b83111715610e7857600080fd5b919390929091602081019035600160201b811115610e9557600080fd5b820183602082011115610ea757600080fd5b803590602001918460208302840111600160201b83111715610ec857600080fd5b509092509050613b15565b61060d613ce2565b61060d613ce8565b61060d613cee565b61060d60048036036020811015610f0157600080fd5b5035613cf4565b610f2e60048036036020811015610f1e57600080fd5b50356001600160a01b0316613d0b565b6040805194151585526020850193909352838301919091526060830152519081900360800190f35b61066e6004803603610300811015610f6d57600080fd5b6101008201906101c08301908301836102e081016102c0820135600160201b811115610f9857600080fd5b820183602082011115610faa57600080fd5b803590602001918460208302840111600160201b83111715610fcb57600080fd5b919390929091602081019035600160201b811115610fe857600080fd5b820183602082011115610ffa57600080fd5b803590602001918460208302840111600160201b8311171561101b57600080fd5b509092509050613d36565b61060d614018565b61066e6004803603604081101561104457600080fd5b50803590602001356001600160a01b031661403c565b61060d614095565b61060d61409b565b61066e6004803603602081101561108057600080fd5b50356001600160a01b03166140a1565b6106e5600480360360208110156110a657600080fd5b5035614116565b6106e5614140565b61060d61414f565b61066e600480360360408110156110d357600080fd5b5080359060200135614155565b61060d61425d565b61060d600480360360208110156110fe57600080fd5b5035614263565b61066e6004803603604081101561111b57600080fd5b506001600160a01b038135169060200135614284565b61074c6144a4565b61066e6004803603604081101561114f57600080fd5b50803590602001356144ad565b61074c6004803603602081101561117257600080fd5b50356001600160a01b0316614593565b61060d61459f565b61060d6145a5565b61060d600480360360208110156111a857600080fd5b50356145ef565b6106e5600480360360208110156111c557600080fd5b50356145ff565b610845600480360360208110156111e257600080fd5b50356001600160a01b031661460f565b60326020526000908152604090205481565b610bb881565b61121333611702565b80611222575061122233614593565b61125d5760405162461bcd60e51b8152600401808060200182810382526022815260200180615d406022913960400191505060405180910390fd5b83600081116112875760405162461bcd60e51b815260040161127e906159f3565b60405180910390fd5b83600081116112a85760405162461bcd60e51b815260040161127e906159f3565b83600081116112c95760405162461bcd60e51b815260040161127e906159f3565b83600081116112ea5760405162461bcd60e51b815260040161127e906159f3565b600454158061130757506000600454118015611307575060045442105b6113235760405162461bcd60e51b815260040161127e90615b67565b600454156113505761133433614593565b6113505760405162461bcd60e51b815260040161127e90615935565b868810801561135e57508587105b801561136957508486105b6113855760405162461bcd60e51b815260040161127e906153d2565b50505060049490945560059290925560065560075550565b60165481565b6001600160a01b0381166000908152602f60205260408120816113c584612f62565b825490915060ff16151560011480156113de5750600081115b156114245760008181526033602090815260408083205460359092528220546012546114199261271092611413928391614634565b9061468d565b935061148d92505050565b8015611486576000818152603360205260408120546114449060016146cf565b9050600061147a61271061141384611413603560008981526020019081526020016000205460125461463490919063ffffffff16565b945061148d9350505050565b6000925050505b919050565b600a5481565b601c5481565b6114a733611702565b806114b657506114b633614593565b6114f15760405162461bcd60e51b8152600401808060200182810382526022815260200180615d406022913960400191505060405180910390fd5b83600081116115125760405162461bcd60e51b815260040161127e906159f3565b83600081116115335760405162461bcd60e51b815260040161127e906159f3565b83600081116115545760405162461bcd60e51b815260040161127e906159f3565b83600081116115755760405162461bcd60e51b815260040161127e906159f3565b600454158061159257506000600454118015611592575060045442105b6115ae5760405162461bcd60e51b815260040161127e90615b67565b600160005260356020527f8e3caac72b6c5bb0462da38c8c8c3b5fbc00a646bd75367c23c11d594c4e36c95415611604576115e833614593565b6116045760405162461bcd60e51b815260040161127e90615935565b61161a8561161488818c8c6146cf565b906146cf565b6127101461163a5760405162461bcd60e51b815260040161127e9061577a565b5050603560205250507f8e3caac72b6c5bb0462da38c8c8c3b5fbc00a646bd75367c23c11d594c4e36c9939093557ff45abd214a7998af36d567f4bc75c5d50e868cf767d965b54d3b0f5c6200ab64919091557fe5602d426990c0b7b248ffeae167f30eba43086d790c7aa793e2bf3d0e5939195560046000527f80eb70dc00a20ebf6b218a7aea19e260b164cf97e49b31f047fca6f74f8ff9ad55565b6025546001600160a01b031681565b60155481565b60009081526036602052604090206002015490565b600061171c600080516020615d20833981519152836135c7565b92915050565b602c5481565b7f9667e80708b6eeeb0053fa0cca44e028ff548e2a9f029edfeac87c118b08b7c881565b60006007544210156117615750601354611778565b61177561176c6135ae565b601354906146cf565b90505b90565b600080611789601154613780565b9050600061179561174c565b9050808210156117a757509050611778565b91506117789050565b6117b933611702565b806117c857506117c833614593565b6118035760405162461bcd60e51b8152600401808060200182810382526022815260200180615d406022913960400191505060405180910390fd5b83600081116118245760405162461bcd60e51b815260040161127e906159f3565b83600081116118455760405162461bcd60e51b815260040161127e906159f3565b83600081116118665760405162461bcd60e51b815260040161127e906159f3565b83600081116118875760405162461bcd60e51b815260040161127e906159f3565b60045415806118a4575060006004541180156118a4575060045442105b6118c05760405162461bcd60e51b815260040161127e90615b67565b60016000526032602052600080516020615d628339815191525415611904576118e833614593565b6119045760405162461bcd60e51b815260040161127e90615935565b505060326020525050600080516020615d6283398151915293909355600080516020615dfa83398151915291909155600080516020615d82833981519152556004600052600080516020615e6583398151915255565b60008281526036602052604090206002015461197d90611978614729565b6135c7565b6119b85760405162461bcd60e51b815260040180806020018281038252602f815260200180615cd1602f913960400191505060405180910390fd5b6119c2828261472d565b5050565b6119ce614729565b6001600160a01b0316816001600160a01b031614611a1d5760405162461bcd60e51b815260040180806020018281038252602f815260200180615e85602f913960400191505060405180910390fd5b6119c28282614796565b6028546001600160a01b031681565b60095481565b600080516020615d2083398151915281565b60306020526000908152604090208054600182015460029092015460ff909116919083565b60026037541415611ab9576040805162461bcd60e51b815260206004820152601f6024820152600080516020615d00833981519152604482015290519081900360640190fd5b6002603755600854421015611ae05760405162461bcd60e51b815260040161127e90615a87565b6009544210611b015760405162461bcd60e51b815260040161127e90615861565b6001600160a01b0382166000908152603060205260409020805460ff16611bbc5760298054600180820183556000929092527fcb7c14ce178f56e2e8d86ab33ebc0ae081ba8556a00cd122038841867181caac0180546001600160a01b0319166001600160a01b038616179055815460ff191681178255600d54611b84916146cf565b600d556001600160a01b0383166000908152602f602052604090206002810154611bba57600b54611bb69060016146cf565b600b555b505b6001810154611bcb90836146cf565b6001820155601154611bdd90836146cf565b601155611bea82846147ff565b5050600160375550565b6001600160a01b038216600090815260306020526040812060018101548290611c1d90856146cf565b90506000611c4b611c39866011546146cf90919063ffffffff16565b61141384611c4561174c565b90614634565b9695505050505050565b6021546001600160a01b031681565b611c6d33611702565b80611c7c5750611c7c33614593565b611cb75760405162461bcd60e51b8152600401808060200182810382526022815260200180615d406022913960400191505060405180910390fd5b8160008111611cd85760405162461bcd60e51b815260040161127e906159f3565b8160008111611cf95760405162461bcd60e51b815260040161127e906159f3565b6004541580611d1657506000600454118015611d16575060045442105b611d325760405162461bcd60e51b815260040161127e90615b67565b60085415611d5f57611d4333614593565b611d5f5760405162461bcd60e51b815260040161127e90615935565b828410611d7e5760405162461bcd60e51b815260040161127e906157e3565b5050600891909155600955565b602d600081548110611d9957fe5b9060005260206000200154421015611dc35760405162461bcd60e51b815260040161127e90615659565b336000908152603060209081526040808320603190925282209091611de66145a5565b905080611e6557815460ff16151560011415611e145760405162461bcd60e51b815260040161127e906158cf565b336000908152602f6020526040812060018501546002820154919291611e39916146cf565b845460ff19166001178555602554909150611e5e906001600160a01b03163383614c98565b5050612108565b6000806000611e753360006121a2565b92509250925060008211611e9b5760405162461bcd60e51b815260040161127e906156db565b60008311611ebb5760405162461bcd60e51b815260040161127e90615906565b82611ed3866001015484614cea90919063ffffffff16565b1015611ef15760405162461bcd60e51b815260040161127e90615712565b6026546040516370a0823160e01b815284916001600160a01b0316906370a0823190611f2190309060040161531f565b60206040518083038186803b158015611f3957600080fd5b505afa158015611f4d573d6000803e3d6000fd5b505050506040513d601f19601f82011682018060405250810190611f719190615307565b1015611f8f5760405162461bcd60e51b815260040161127e9061595f565b6001850154611f9e90846146cf565b6001860155602654611fba906001600160a01b03163385614c98565b845460ff16158015611fcd5750855460ff165b15611fef57600e54611fe09060016146cf565b600e55845460ff191660011785555b60008111801561200157506002850154155b156120c3576025546040516370a0823160e01b81526001600160a01b03909116906370a082319061203690309060040161531f565b60206040518083038186803b15801561204e57600080fd5b505afa158015612062573d6000803e3d6000fd5b505050506040513d601f19601f820116820180604052508101906120869190615307565b8111156120a55760405162461bcd60e51b815260040161127e90615366565b600285018190556025546120c3906001600160a01b03163383614c98565b336001600160a01b03167fd8138f8a3f377c5259ca548e70e4c2de94f129f5a11036a15b69513cba2b426a846040516120fc9190615c97565b60405180910390a25050505b505050565b60145481565b601f5481565b6001600160a01b0381166000908152602f6020526040812080548291829160ff161561218a57600080600061214d88613640565b92509250925061216a8460020154846146cf90919063ffffffff16565b600385015461217a9084906146cf565b829650965096505050505061219b565b61219385613640565b935093509350505b9193909250565b6000806000600a544210156121bf5750600091508190508061232f565b602c548411156121d75750600091508190508061232f565b6001600160a01b038516600090815260316020526040812090806121fa88612119565b9250925050816000141561221b57600080600095509550955050505061232f565b8183600101541061223957600080600095509550955050505061232f565b861561228957600061227a6064611413602e6122568c6001614cea565b8154811061226057fe5b90600052602060002001548661463490919063ffffffff16565b9650919450925061232f915050565b6000612293613507565b905080602c541480156122a4575087155b156122bd5750600190920154810394509250905061232f565b6000805b8281101561230c576123026122fb6064611413602e85815481106122e157fe5b90600052602060002001548961463490919063ffffffff16565b83906146cf565b91506001016122c1565b5088612329576001909401549093039550909350915061232f9050565b50505050505b9250925092565b6000806123546015546114136014548661463490919063ffffffff16565b9392505050565b600e5481565b60005460ff1681565b60075481565b60336020526000908152604090205481565b60356020526000908152604090205481565b633b9aca00900490565b6123a733611702565b806123b657506123b633614593565b6123f15760405162461bcd60e51b8152600401808060200182810382526022815260200180615d406022913960400191505060405180910390fd5b80600081116124125760405162461bcd60e51b815260040161127e906159f3565b600454158061242f5750600060045411801561242f575060045442105b61244b5760405162461bcd60e51b815260040161127e90615b67565b600154156124785761245c33614593565b6124785760405162461bcd60e51b815260040161127e90615935565b50600155565b600954421161249f5760405162461bcd60e51b815260040161127e90615562565b60006124a96145a5565b905060008082116124cc5760405162461bcd60e51b815260040161127e90615a45565b602b5460ff161515600114156124f45760405162461bcd60e51b815260040161127e90615497565b600e54600d541415612593576025546040516370a0823160e01b815261258c9184916001600160a01b03909116906370a082319061253690309060040161531f565b60206040518083038186803b15801561254e57600080fd5b505afa158015612562573d6000803e3d6000fd5b505050506040513d601f19601f820116820180604052508101906125869190615307565b90614cea565b90506125ba565b6125b7671bc16d674ec80000612586846125866125ae612cbf565b601054906146cf565b90505b6025546040516370a0823160e01b81526001600160a01b03909116906370a08231906125ea90309060040161531f565b60206040518083038186803b15801561260257600080fd5b505afa158015612616573d6000803e3d6000fd5b505050506040513d601f19601f8201168201806040525081019061263a9190615307565b8111156126595760405162461bcd60e51b815260040161127e90615898565b60245460405163e34869d760e01b81526001600160a01b039091169063e34869d790612689908590600401615c97565b602060405180830381600087803b1580156126a357600080fd5b505af11580156126b7573d6000803e3d6000fd5b505050506040513d601f19601f820116820180604052508101906126db91906152e7565b506024546040516370a0823160e01b81526000916001600160a01b0316906370a082319061270d90309060040161531f565b60206040518083038186803b15801561272557600080fd5b505afa158015612739573d6000803e3d6000fd5b505050506040513d601f19601f8201168201806040525081019061275d9190615307565b60408051610100810182526024546001600160a01b03908116825260275481166020830152610bb88284015230606083015242608083015260a08201849052600060c0830181905260e0830152602254925163414bf38960e01b8152939450909291169063414bf389906127d5908490600401615c2e565b602060405180830381600087803b1580156127ef57600080fd5b505af1158015612803573d6000803e3d6000fd5b505050506040513d601f19601f820116820180604052508101906128279190615307565b50600061284a600f5461258661283b61177b565b601354601254612586916146cf565b6027546040516370a0823160e01b81529192506000916001600160a01b03909116906370a082319061288090309060040161531f565b60206040518083038186803b15801561289857600080fd5b505afa1580156128ac573d6000803e3d6000fd5b505050506040513d601f19601f820116820180604052508101906128d09190615307565b602b805460ff191660011790556021546027549192506128fd916001600160a01b03908116911683614c98565b60235460255461291a916001600160a01b03918216911687614c98565b602654604051630852cd8d60e31b81526001600160a01b03909116906342966c689061294a908590600401615c97565b600060405180830381600087803b15801561296457600080fd5b505af1158015612978573d6000803e3d6000fd5b50505050336001600160a01b03167f27084c94a254e82dc8973b962810cb320efedce3c641c38244a13a32eb8fff0886886040516120fc929190615ca0565b6129c033611702565b806129cf57506129cf33614593565b612a0a5760405162461bcd60e51b8152600401808060200182810382526022815260200180615d406022913960400191505060405180910390fd5b612a1d82358360015b60200201356144ad565b6119c281358260015b6020020135614155565b612a3933614593565b612a745760405162461bcd60e51b8152600401808060200182810382526028815260200180615da26028913960400191505060405180910390fd5b612a8c600080516020615d208339815191528261195a565b50565b612a9833611702565b80612aa75750612aa733614593565b612ae25760405162461bcd60e51b8152600401808060200182810382526022815260200180615d406022913960400191505060405180910390fd5b60006004819055600f81905560108190556011819055600b819055600c819055600d819055600e8190555b602a54811015612bc4576000602f6000602a8481548110612b2a57fe5b60009182526020808320909101546001600160a01b031683528201929092526040018120805460ff191681556002810182905560038101829055602a805491935060319183919086908110612b7b57fe5b60009182526020808320909101546001600160a01b03168352820192909252604001812060018181018390556002820192909255805460ff19169055929092019150612b0d9050565b5060005b602954811015612c7f5760006030600060298481548110612be557fe5b60009182526020808320909101546001600160a01b03168352820192909252604001812060018101829055805460ff19168155600281018290556029805491935060319183919086908110612c3657fe5b60009182526020808320909101546001600160a01b03168352820192909252604001812060018181018390556002820192909255805460ff19169055929092019150612bc89050565b5060015b6005811015612cb05760008181526033602090815260408083208390556034909152812055600101612c83565b50612cbd602a60006152b9565b565b600080612ccd601154613780565b90506000612cd961174c565b905080821015612cef5760115492505050611778565b612cf881612336565b92505050611778565b6022546001600160a01b031681565b612d1933611702565b80612d285750612d2833614593565b612d635760405162461bcd60e51b8152600401808060200182810382526022815260200180615d406022913960400191505060405180910390fd5b6001600160a01b038116612db9576040805162461bcd60e51b815260206004820152601860248201527741636365737369626c653a207a65726f206164647265737360401b604482015290519081900360640190fd5b336001600160a01b0382161415612e10576040805162461bcd60e51b815260206004820152601660248201527520b1b1b2b9b9b4b136329d1039b0b6b29030b236b4b760511b604482015290519081900360640190fd5b612e28600080516020615d208339815191528261195a565b612a8c600080516020615d20833981519152336119c6565b7fdf8b4c520ffe197c5343c6f5aec59570151ef9a492f2c624fd45ddde6135ec4281565b612e6d33611702565b80612e7c5750612e7c33614593565b612eb75760405162461bcd60e51b8152600401808060200182810382526022815260200180615d406022913960400191505060405180910390fd5b601d54823510801590612ed05750601e54602083013510155b8015612ee25750601f54604083013510155b8015612ef45750602054606083013510155b612f105760405162461bcd60e51b815260040161127e90615a1d565b612f2d8235602084013560408501358560035b60200201356117b0565b6119c28135602083013560408401358460035b602002013561149e565b601e5481565b60025481565b60175481565b60035481565b6028546000906001600160a01b031680612f8e5760405162461bcd60e51b815260040161127e906157b1565b60016000526032602052600080516020615d628339815191525480612fc55760405162461bcd60e51b815260040161127e906159f3565b60026000526032602052600080516020615dfa8339815191525480612ffc5760405162461bcd60e51b815260040161127e906159f3565b60036000526032602052600080516020615d8283398151915254806130335760405162461bcd60e51b815260040161127e906159f3565b60046000526032602052600080516020615e65833981519152548061306a5760405162461bcd60e51b815260040161127e906159f3565b60285460015460405163277166bf60e11b81526000926001600160a01b031691634ee2cd7e9161309e918c9160040161534d565b60206040518083038186803b1580156130b657600080fd5b505afa1580156130ca573d6000803e3d6000fd5b505050506040513d601f19601f820116820180604052508101906130ee9190615307565b600160009081526032602052600080516020615d6283398151915254919250908210801590613135575060026000526032602052600080516020615dfa8339815191525482105b156131425750600161322b565b60026000526032602052600080516020615dfa833981519152548210801590613183575060036000526032602052600080516020615d828339815191525482105b156131905750600261322b565b60036000526032602052600080516020615d828339815191525482108015906131d1575060046000526032602052600080516020615e658339815191525482105b156131de5750600361322b565b60046000526032602052600080516020615e658339815191525482106132065750600461322b565b60016000526032602052600080516020615d628339815191525482101561322b575060005b98975050505050505050565b6002603754141561327d576040805162461bcd60e51b815260206004820152601f6024820152600080516020615d00833981519152604482015290519081900360640190fd5b60026037556004544210156132a45760405162461bcd60e51b815260040161127e90615be1565b60055442106132c55760405162461bcd60e51b815260040161127e90615521565b60006132d033612f62565b905060018110156132f35760405162461bcd60e51b815260040161127e9061539b565b336000908152602f60205260409020805460ff161515600114156133295760405162461bcd60e51b815260040161127e90615aca565b602a805460018181019092557fbeced09521047d05b8960b7e7bcc1d1292cf3e4b2a6b63f48335cbde5f7545d20180546001600160a01b03191633179055815460ff19168117825581810183905560006003830181905583815260336020526040902054613396916146cf565b60008381526033602052604090819020919091555133907fffc1b88a1c7ff4b7c84aac62283195eb1a6e771eafe7f68ddc27c7539cb0a105906133da908590615c97565b60405180910390a250506001603755565b60085481565b6133fa33614593565b6134355760405162461bcd60e51b8152600401808060200182810382526028815260200180615da26028913960400191505060405180910390fd5b6001600160a01b03811661348b576040805162461bcd60e51b815260206004820152601860248201527741636365737369626c653a207a65726f206164647265737360401b604482015290519081900360640190fd5b336001600160a01b03821614156134e2576040805162461bcd60e51b815260206004820152601660248201527520b1b1b2b9b9b4b136329d1039b0b6b29030b236b4b760511b604482015290519081900360640190fd5b6134ed60008261195a565b612a8c6000336119c6565b6027546001600160a01b031681565b6000602d6001602c54038154811061351b57fe5b90600052602060002001544211156135365750602c54611778565b60005b602c5481101561357157602d818154811061355057fe5b9060005260206000200154421015613569579050611778565b600101613539565b5090565b6024546001600160a01b031681565b60346020526000908152604090205481565b60008281526036602052604081206123549083614d2c565b6000611775600f54601254614cea90919063ffffffff16565b60008281526036602052604081206123549083614d38565b600d5481565b60045481565b6135f433614593565b61362f5760405162461bcd60e51b8152600401808060200182810382526028815260200180615da26028913960400191505060405180910390fd5b612a8c6000826119b8565b60015481565b6001600160a01b038116600090815260306020526040812080548291829160ff16158061366f57506001810154155b156136855760008060009350935093505061219b565b6000613692866000611bf4565b9050600061369f82612336565b6001840154909150600080828410156136ce576136bc8385614cea565b90506136c784613780565b91506136e1565b856001015493506136de83613780565b91505b929990985091965090945050505050565b6136fb33611702565b8061370a575061370a33614593565b6137455760405162461bcd60e51b8152600401808060200182810382526022815260200180615d406022913960400191505060405180910390fd5b612cbd600080516020615d20833981519152336119c6565b601a5481565b601d5481565b600c5481565b602a5490565b600081565b601b5481565b6000806123546014546114136015548661463490919063ffffffff16565b60105481565b6020015190565b6000600754421180156137bd57508115155b15613800576137f96064611413602e60018603815481106137da57fe5b9060005260206000200154611c456137f061177b565b600f54906146cf565b905061148d565b50600061148d565b61381133611702565b80613820575061382033614593565b61385b5760405162461bcd60e51b8152600401808060200182810382526022815260200180615d406022913960400191505060405180910390fd5b806000811161387c5760405162461bcd60e51b815260040161127e906159f3565b600454158061389957506000600454118015613899575060045442105b6138b55760405162461bcd60e51b815260040161127e90615b67565b601a54156138e2576138c633614593565b6138e25760405162461bcd60e51b815260040161127e90615935565b601c5482111580156138f65750601b548210155b6139125760405162461bcd60e51b815260040161127e906155a9565b50601991909155601a55565b6023546001600160a01b031681565b60125481565b61393c33614593565b6139775760405162461bcd60e51b8152600401808060200182810382526028815260200180615da26028913960400191505060405180910390fd5b612cbd6000336119c6565b60608261398e57600192505b82602c54101561399e57602c5492505b828210156139aa578291505b81602c5410806139b8575081155b156139c357602c5491505b60006139da6139d3856001614cea565b8490614cea565b905060008167ffffffffffffffff811180156139f557600080fd5b50604051908082528060200260200182016040528015613a1f578160200160208202803683370190505b50905060075442118015613a3257508415155b15613a905760005b82811015613a8a576000613a676064611413602e613a5d60016125868d896146cf565b815481106137da57fe5b905080838381518110613a7657fe5b602090810291909101015250600101613a3a565b50613b07565b60005b82811015613b05576000613ae26064611413602e613ab660016125868d896146cf565b81548110613ac057fe5b9060005260206000200154611c456013546012546146cf90919063ffffffff16565b905080838381518110613af157fe5b602090810291909101015250600101613a93565b505b949350505050565b60135481565b613b1e33611702565b80613b2d5750613b2d33614593565b613b685760405162461bcd60e51b8152600401808060200182810382526022815260200180615d406022913960400191505060405180910390fd5b6004541580613b8557506000600454118015613b85575060045442105b613ba15760405162461bcd60e51b815260040161127e90615b67565b602c5415613bce57613bb233614593565b613bce5760405162461bcd60e51b815260040161127e90615935565b602c8590556000805b86821015613cb957602d868684818110613bed57fe5b835460018101855560009485526020948590209190940292909201359190920155508115613c6557602d8281548110613c2257fe5b9060005260206000200154602d6001840381548110613c3d57fe5b906000526020600020015410613c655760405162461bcd60e51b815260040161127e90615747565b602e848484818110613c7357fe5b83546001810185556000948552602094859020919094029290920135919092015550838383818110613ca157fe5b90506020020135810190508180600101925050613bd7565b80606414613cd95760405162461bcd60e51b815260040161127e906154f6565b50505050505050565b600b5481565b60055481565b60115481565b600081815260366020526040812061171c90614d4d565b602f60205260009081526040902080546001820154600283015460039093015460ff90921692909184565b613d3f33611702565b80613d4e5750613d4e33614593565b613d895760405162461bcd60e51b8152600401808060200182810382526022815260200180615d406022913960400191505060405180910390fd5b6004541580613da657506000600454118015613da6575060045442105b613dc25760405162461bcd60e51b815260040161127e90615b67565b6026546040516370a0823160e01b81526000916001600160a01b0316906370a0823190613df390309060040161531f565b60206040518083038186803b158015613e0b57600080fd5b505afa158015613e1f573d6000803e3d6000fd5b505050506040513d601f19601f82011682018060405250810190613e439190615307565b905086356020880135018110801590613e64575080670de0b6b3a764000011155b613e805760405162461bcd60e51b815260040161127e90615b01565b84846000818110613e8d57fe5b9050602002013586600660088110613ea157fe5b602002013510613ec35760405162461bcd60e51b815260040161127e906159d1565b6003546002548735910110613eea5760405162461bcd60e51b815260040161127e9061562c565b6020860135863510613f0e5760405162461bcd60e51b815260040161127e90615bae565b8315801590613f1c57508382145b613f385760405162461bcd60e51b815260040161127e906159a6565b60015415613f6557613f4933614593565b613f655760405162461bcd60e51b815260040161127e90615935565b613f7c883560208a013560408b01358b6003612f23565b613f96608089013560a08a013560c08b01358b6007612f40565b613fa38735886001612a13565b613fb36040880135886003612a26565b613fc5608088013560a0890135613808565b613fcf863561239e565b613feb60208701356040880135606089013560808a013561120a565b613ffd60a087013560c0880135611c64565b61400e60e087013586868686613b15565b5050505050505050565b7ff0887ba65ee2024ea881d91b74c2450ef19e1557f03bed3ea9f16b037cbe2dc981565b60008281526036602052604090206002015461405a90611978614729565b611a1d5760405162461bcd60e51b8152600401808060200182810382526030815260200180615dca6030913960400191505060405180910390fd5b60205481565b60065481565b6140aa33611702565b806140b957506140b933614593565b6140f45760405162461bcd60e51b8152600401808060200182810382526022815260200180615d406022913960400191505060405180910390fd5b602380546001600160a01b0319166001600160a01b0392909216919091179055565b6029818154811061412657600080fd5b6000918252602090912001546001600160a01b0316905081565b6026546001600160a01b031681565b60185481565b61415e33611702565b8061416d575061416d33614593565b6141a85760405162461bcd60e51b8152600401808060200182810382526022815260200180615d406022913960400191505060405180910390fd5b81600081116141c95760405162461bcd60e51b815260040161127e906159f3565b81600081116141ea5760405162461bcd60e51b815260040161127e906159f3565b600454158061420757506000600454118015614207575060045442105b6142235760405162461bcd60e51b815260040161127e90615b67565b601454156142505761423433614593565b6142505760405162461bcd60e51b815260040161127e90615935565b5050601491909155601555565b600f5481565b602d818154811061427357600080fd5b600091825260209091200154905081565b80600081116142a55760405162461bcd60e51b815260040161127e906159f3565b602c54600081116142c85760405162461bcd60e51b815260040161127e906159f3565b6002603754141561430e576040805162461bcd60e51b815260206004820152601f6024820152600080516020615d00833981519152604482015290519081900360640190fd5b60026037556006544210156143355760405162461bcd60e51b815260040161127e9061544a565b60075442106143565760405162461bcd60e51b815260040161127e9061569a565b6001600160a01b0384166000908152602f60205260409020805460ff1615156001146143945760405162461bcd60e51b815260040161127e9061581a565b600061439f85613780565b905060006143ac876113a3565b60038401549091506143be90836146cf565b8110156143dd5760405162461bcd60e51b815260040161127e906155e0565b60006143e888612f62565b905083600201546000141561444357600c546144059060016146cf565b600c55600b546144169060016146cf565b600b556000818152603460205260409020546144339060016146cf565b6000828152603460205260409020555b600284015461445290886146cf565b6002850155600384015461446690846146cf565b600385015560105461447890886146cf565b601055600f5461448890846146cf565b600f5561449587896147ff565b50506001603755505050505050565b602b5460ff1681565b6144b633611702565b806144c557506144c533614593565b6145005760405162461bcd60e51b8152600401808060200182810382526022815260200180615d406022913960400191505060405180910390fd5b81600081116145215760405162461bcd60e51b815260040161127e906159f3565b600454158061453e5750600060045411801561453e575060045442105b61455a5760405162461bcd60e51b815260040161127e90615b67565b601254156145875761456b33614593565b6145875760405162461bcd60e51b815260040161127e90615935565b50601291909155601355565b600061171c81836135c7565b60195481565b6000806145b36125ae612cbf565b9050600060195482106145e4576145da6064611413601a548561463490919063ffffffff16565b9250611778915050565b600092505050611778565b602e818154811061427357600080fd5b602a818154811061412657600080fd5b60316020526000908152604090208054600182015460029092015460ff909116919083565b6000826146435750600061171c565b8282028284828161465057fe5b04146123545760405162461bcd60e51b8152600401808060200182810382526021815260200180615e1a6021913960400191505060405180910390fd5b600061235483836040518060400160405280601a81526020017f536166654d6174683a206469766973696f6e206279207a65726f000000000000815250614d58565b600082820183811015612354576040805162461bcd60e51b815260206004820152601b60248201527f536166654d6174683a206164646974696f6e206f766572666c6f770000000000604482015290519081900360640190fd5b3390565b60008281526036602052604090206147459082614dfa565b156119c257614752614729565b6001600160a01b0316816001600160a01b0316837f2f8788117e7eff1d82e926ec794901d17c78024a50270940304540a733656f0d60405160405180910390a45050565b60008281526036602052604090206147ae9082614e0f565b156119c2576147bb614729565b6001600160a01b0316816001600160a01b0316837ff6391f5c32d9c69d2a47ea670b442974b53935d1edc7fd64eb21e047a839171b60405160405180910390a45050565b81600081116148205760405162461bcd60e51b815260040161127e906159f3565b816001600160a01b0381166148475760405162461bcd60e51b815260040161127e906157b1565b602554604051636eb1769f60e11b81526000916001600160a01b03169063dd62ed3e9061487a9087903090600401615333565b60206040518083038186803b15801561489257600080fd5b505afa1580156148a6573d6000803e3d6000fd5b505050506040513d601f19601f820116820180604052508101906148ca9190615307565b6025546040516370a0823160e01b81529192506000916001600160a01b03909116906370a082319061490090889060040161531f565b60206040518083038186803b15801561491857600080fd5b505afa15801561492c573d6000803e3d6000fd5b505050506040513d601f19601f820116820180604052508101906149509190615307565b90508082111561495e578091505b85821015614bc3576000806149738885614cea565b905061497e81614e24565b602454604051636eb1769f60e11b815291935083916001600160a01b039091169063dd62ed3e906149b5908b903090600401615333565b602060405180830381600087803b1580156149cf57600080fd5b505af11580156149e3573d6000803e3d6000fd5b505050506040513d601f19601f82011682018060405250810190614a079190615307565b1015614a255760405162461bcd60e51b815260040161127e90615b25565b6024546040516370a0823160e01b815283916001600160a01b0316906370a0823190614a55908b9060040161531f565b60206040518083038186803b158015614a6d57600080fd5b505afa158015614a81573d6000803e3d6000fd5b505050506040513d601f19601f82011682018060405250810190614aa59190615307565b1015614ac35760405162461bcd60e51b815260040161127e906154ce565b602454614adb906001600160a01b0316883085614e2d565b60245460405163f53fe70f60e01b81526001600160a01b039091169063f53fe70f90614b0b908590600401615c97565b602060405180830381600087803b158015614b2557600080fd5b505af1158015614b39573d6000803e3d6000fd5b505050506040513d601f19601f82011682018060405250810190614b5d91906152e7565b50614b688882614cea565b841015614b875760405162461bcd60e51b815260040161127e90615409565b6000614b938983614cea565b1115614bbc57614bbc8730614ba88b85614cea565b6025546001600160a01b0316929190614e2d565b5050614c07565b858210158015614bd35750858110155b614bef5760405162461bcd60e51b815260040161127e90615409565b602554614c07906001600160a01b0316863089614e2d565b600754421015614c5757846001600160a01b03167fc2198f7273f3b4ab95a025cf1f853777ca45149bbc1c005496959a6da70fcb8d87604051614c4a9190615c97565b60405180910390a2614c90565b846001600160a01b03167f2da466a7b24304f47e87fa2e1e5a81b9831ce54fec19055ce277ca2f39ba42c4876040516120fc9190615c97565b505050505050565b604080516001600160a01b038416602482015260448082018490528251808303909101815260649091019091526020810180516001600160e01b031663a9059cbb60e01b179052612108908490614e8d565b600061235483836040518060400160405280601e81526020017f536166654d6174683a207375627472616374696f6e206f766572666c6f770000815250614f3e565b60006123548383614f98565b6000612354836001600160a01b038416614ffc565b600061171c82615014565b60008183614de45760405162461bcd60e51b81526004018080602001828103825283818151815260200191508051906020019080838360005b83811015614da9578181015183820152602001614d91565b50505050905090810190601f168015614dd65780820380516001836020036101000a031916815260200191505b509250505060405180910390fd5b506000838581614df057fe5b0495945050505050565b6000612354836001600160a01b038416615018565b6000612354836001600160a01b038416615062565b633b9aca000290565b604080516001600160a01b0380861660248301528416604482015260648082018490528251808303909101815260849091019091526020810180516001600160e01b03166323b872dd60e01b179052614e87908590614e8d565b50505050565b6000614ee2826040518060400160405280602081526020017f5361666545524332303a206c6f772d6c6576656c2063616c6c206661696c6564815250856001600160a01b03166151289092919063ffffffff16565b80519091501561210857808060200190516020811015614f0157600080fd5b50516121085760405162461bcd60e51b815260040180806020018281038252602a815260200180615e3b602a913960400191505060405180910390fd5b60008184841115614f905760405162461bcd60e51b8152602060048201818152835160248401528351909283926044909101919085019080838360008315614da9578181015183820152602001614d91565b505050900390565b81546000908210614fda5760405162461bcd60e51b8152600401808060200182810382526022815260200180615caf6022913960400191505060405180910390fd5b826000018281548110614fe957fe5b9060005260206000200154905092915050565b60009081526001919091016020526040902054151590565b5490565b60006150248383614ffc565b61505a5750815460018181018455600084815260208082209093018490558454848252828601909352604090209190915561171c565b50600061171c565b6000818152600183016020526040812054801561511e578354600019808301919081019060009087908390811061509557fe5b90600052602060002001549050808760000184815481106150b257fe5b6000918252602080832090910192909255828152600189810190925260409020908401905586548790806150e257fe5b6001900381819060005260206000200160009055905586600101600087815260200190815260200160002060009055600194505050505061171c565b600091505061171c565b6060613b0784846000858561513c8561524d565b61518d576040805162461bcd60e51b815260206004820152601d60248201527f416464726573733a2063616c6c20746f206e6f6e2d636f6e7472616374000000604482015290519081900360640190fd5b600080866001600160a01b031685876040518082805190602001908083835b602083106151cb5780518252601f1990920191602091820191016151ac565b6001836020036101000a03801982511681845116808217855250505050505090500191505060006040518083038185875af1925050503d806000811461522d576040519150601f19603f3d011682016040523d82523d6000602084013e615232565b606091505b5091509150615242828286615253565b979650505050505050565b3b151590565b60608315615262575081612354565b8251156152725782518084602001fd5b60405162461bcd60e51b8152602060048201818152845160248401528451859391928392604401919085019080838360008315614da9578181015183820152602001614d91565b5080546000825590600052602060002090810190612a8c91905b8082111561357157600081556001016152d3565b6000602082840312156152f8578081fd5b81518015158114612354578182fd5b600060208284031215615318578081fd5b5051919050565b6001600160a01b0391909116815260200190565b6001600160a01b0392831681529116602082015260400190565b6001600160a01b03929092168252602082015260400190565b6020808252818101527f5075626c696353616c653a20646f6e74206861766520726566756e6420746f6e604082015260600190565b6020808252601d908201527f5075626c696353616c653a206e65656420746f206d6f72652073544f53000000604082015260600190565b6020808252601b908201527f5075626c696353616c65203a20526f756e643174696d65206572720000000000604082015260600190565b60208082526021908201527f5075626c696353616c653a20746f6e206578636565647320616c6c6f77616e636040820152606560f81b606082015260800190565b6020808252602d908201527f5075626c696353616c653a206578636c7573697665537461727454696d65206860408201526c185cc81b9bdd081c185cdcd959609a1b606082015260800190565b6020808252601f908201527f5075626c696353616c653a20616c7265616479206765742074686520544f4e00604082015260600190565b6020808252600e908201526d3732b2b21036b7b932903bba37b760911b604082015260600190565b60208082526011908201527031b630b4b6a832b931b2b73a399032b93960791b604082015260600190565b60208082526021908201527f5075626c696353616c653a20656e64207468652077686974656c69737454696d6040820152606560f81b606082015260800190565b60208082526027908201527f5075626c696353616c653a206e65656420746f20656e6420746865206465706f60408201526673697454696d6560c81b606082015260800190565b6020808252601f908201527f5075626c696353616c653a206e65656420746f20736574206d696e2c6d617800604082015260600190565b6020808252602c908201527f5075626c696353616c653a206a757374206275792074696572277320616c6c6f60408201526b18d85d195908185b5bdd5b9d60a21b606082015260800190565b60208082526013908201527239b730b839b437ba103732b2b2103630ba32b960691b604082015260600190565b60208082526021908201527f5075626c696353616c653a20646f6e277420737461727420636c61696d54696d6040820152606560f81b606082015260800190565b60208082526021908201527f5075626c696353616c653a20656e6420746865206578636c757369766554696d6040820152606560f81b606082015260800190565b6020808252601e908201527f5075626c696353616c653a206e6f20707572636861736520616d6f756e740000604082015260600190565b6020808252818101527f5075626c696353616c653a20616c726561647920676574416c6c726577617264604082015260600190565b602080825260199082015278283ab13634b1a9b0b6329d1031b630b4b6ba34b6b29032b93960391b604082015260600190565b6020808252601f908201527f5075626c696353616c653a2053756d2073686f756c6420626520313030303000604082015260600190565b6020808252601890820152775075626c696353616c653a207a65726f206164647265737360401b604082015260600190565b6020808252601b908201527f5075626c696353616c65203a20526f756e643274696d65206572720000000000604082015260600190565b60208082526027908201527f5075626c696353616c653a206e6f74207265676973746572656420696e2077686040820152661a5d195b1a5cdd60ca1b606082015260800190565b6020808252601f908201527f5075626c696353616c653a20656e6420746865206465706f73697454696d6500604082015260600190565b6020808252601f908201527f5075626c696353616c653a206e6f20746f6b656e20746f207265636569766500604082015260600190565b6020808252601d908201527f5075626c696353616c653a20616c726561647920676574526566756e64000000604082015260600190565b602080825260159082015274141d589b1a58d4d85b194e881b9bc81c995dd85c99605a1b604082015260600190565b60208082526010908201526f1bdb9b1e48111053c818d85b881cd95d60821b604082015260600190565b60208082526027908201527f5075626c696353616c653a20646f6e7420686176652073616c65546f6b656e206040820152661a5b881c1bdbdb60ca1b606082015260800190565b6020808252601190820152701b995959081d1a194818db185a5b54d95d607a1b604082015260600190565b6020808252600890820152673a34b6b29032b93960c11b604082015260600190565b60208082526010908201526f5075626c696353616c653a207a65726f60801b604082015260600190565b6020808252600e908201526d3a34b2b91039b2ba1032b93937b960911b604082015260600190565b60208082526022908201527f5075626c696353616c653a20646f6e2774207061737320746865206861726443604082015261061760f41b606082015260800190565b60208082526023908201527f5075626c696353616c653a20646f6e2774207374617274206465706f73697454604082015262696d6560e81b606082015260800190565b6020808252601c908201527f5075626c696353616c653a20616c726561647920617474656e64656400000000604082015260600190565b6020808252600a908201526930b6b7bab73a1032b93960b11b604082015260600190565b60208082526022908201527f5075626c696353616c653a2077746f6e206578636565647320616c6c6f77616e604082015261636560f01b606082015260800190565b60208082526027908201527f5075626c696353616c653a206e6f74206265666f72655374617274416464576860408201526669746554696d6560c81b606082015260800190565b6020808252601990820152781dda1a5d195b1a5cdd081899599bdc99481cdb985c1cda1bdd603a1b604082015260600190565b6020808252602d908201527f5075626c696353616c653a2077686974656c697374537461727454696d65206860408201526c185cc81b9bdd081c185cdcd959609a1b606082015260800190565b81516001600160a01b03908116825260208084015182169083015260408084015162ffffff16908301526060808401518216908301526080808401519083015260a0838101519083015260c0808401519083015260e09283015116918101919091526101000190565b90815260200190565b91825260208201526040019056fe456e756d657261626c655365743a20696e646578206f7574206f6620626f756e6473416363657373436f6e74726f6c3a2073656e646572206d75737420626520616e2061646d696e20746f206772616e745265656e7472616e637947756172643a207265656e7472616e742063616c6c0052eafc11f6f81f86878bffd31109a0d92f37506527754f00788853ff9f63b13041636365737369626c653a2043616c6c6572206973206e6f7420616e2061646d696e0d07fe408fa264e656a9c06e272928e4d4bb400d93cd5b5e74ac592f6170c2fd1f20ec30f5e9c102cf5806d0bb8118b98c797a37ea4ca5b5c306ba879366c77c41636365737369626c653a2043616c6c6572206973206e6f7420616e2070726f78792061646d696e416363657373436f6e74726f6c3a2073656e646572206d75737420626520616e2061646d696e20746f207265766f6b659ff19f865638bb86eeeae31c2a9ec896d92141edd461fe8f31e9e7484e4d2bb5536166654d6174683a206d756c7469706c69636174696f6e206f766572666c6f775361666545524332303a204552433230206f7065726174696f6e20646964206e6f7420737563636565643f52cf82629296489b84e1dbb72f035157400392aa100335795b652755f8cdda416363657373436f6e74726f6c3a2063616e206f6e6c792072656e6f756e636520726f6c657320666f722073656c66a2646970667358221220872181c63ede26f7d4699f476c90b344bda52cb332e794bdad0c23de8028b2a964736f6c63430007060033",
  "linkReferences": {},
  "deployedLinkReferences": {}
}