{
  "_format": "hh-sol-artifact-1",
  "contractName": "LockTOSv2Storage",
  "sourceName": "contracts/stake/LockTOSv2Storage.sol",
  "abi": [
    {
      "inputs": [
        {
          "internalType": "address",
          "name": "",
          "type": "address"
        }
      ],
      "name": "aliveImplementation",
      "outputs": [
        {
          "internalType": "bool",
          "name": "",
          "type": "bool"
        }
      ],
      "stateMutability": "view",
      "type": "function"
    },
    {
      "inputs": [],
      "name": "lock_",
      "outputs": [
        {
          "internalType": "bool",
          "name": "",
          "type": "bool"
        }
      ],
      "stateMutability": "view",
      "type": "function"
    },
    {
      "inputs": [
        {
          "internalType": "uint256",
          "name": "",
          "type": "uint256"
        }
      ],
      "name": "proxyImplementation",
      "outputs": [
        {
          "internalType": "address",
          "name": "",
          "type": "address"
        }
      ],
      "stateMutability": "view",
      "type": "function"
    },
    {
      "inputs": [
        {
          "internalType": "bytes4",
          "name": "",
          "type": "bytes4"
        }
      ],
      "name": "selectorImplementation",
      "outputs": [
        {
          "internalType": "address",
          "name": "",
          "type": "address"
        }
      ],
      "stateMutability": "view",
      "type": "function"
    },
    {
      "inputs": [],
      "name": "staker",
      "outputs": [
        {
          "internalType": "address",
          "name": "",
          "type": "address"
        }
      ],
      "stateMutability": "view",
      "type": "function"
    }
  ],
  "bytecode": "0x608060405234801561001057600080fd5b506101a4806100206000396000f3fe608060405234801561001057600080fd5b50600436106100575760003560e01c806350d2a2761461005c578063550d01a31461009f5780635ebaf1db146100d9578063b2e9a1b7146100e1578063b911135f146100e9575b600080fd5b6100836004803603602081101561007257600080fd5b50356001600160e01b031916610106565b604080516001600160a01b039092168252519081900360200190f35b6100c5600480360360208110156100b557600080fd5b50356001600160a01b0316610121565b604080519115158252519081900360200190f35b610083610136565b6100c561014a565b610083600480360360208110156100ff57600080fd5b5035610153565b6002602052600090815260409020546001600160a01b031681565b60016020526000908152604090205460ff1681565b60035461010090046001600160a01b031681565b60035460ff1681565b6000602081905290815260409020546001600160a01b03168156fea2646970667358221220a4db1b44a33fce549678a184ef22462e40f5c727a3442b412635448fac79793d64736f6c63430007060033",
  "linkReferences": {},
  "deployedLinkReferences": {}
}