{
  "_format": "hh-sol-artifact-1",
  "contractName": "TokamakStaker",
  "sourceName": "contracts/connection/TokamakStaker.sol",
  "abi": [
    {
      "anonymous": false,
      "inputs": [
        {
          "indexed": false,
          "internalType": "address",
          "name": "caller",
          "type": "address"
        },
        {
          "indexed": false,
          "internalType": "uint256",
          "name": "amountIn",
          "type": "uint256"
        },
        {
          "indexed": false,
          "internalType": "uint256",
          "name": "amountOut",
          "type": "uint256"
        }
      ],
      "name": "ExchangedWTONtoTOS",
      "type": "event"
    },
    {
      "anonymous": false,
      "inputs": [
        {
          "indexed": false,
          "internalType": "address",
          "name": "caller",
          "type": "address"
        },
        {
          "indexed": false,
          "internalType": "uint256",
          "name": "amountIn",
          "type": "uint256"
        },
        {
          "indexed": false,
          "internalType": "uint256",
          "name": "amountOut",
          "type": "uint256"
        }
      ],
      "name": "ExchangedWTONtoTOS2",
      "type": "event"
    },
    {
      "anonymous": false,
      "inputs": [
        {
          "indexed": true,
          "internalType": "bytes32",
          "name": "role",
          "type": "bytes32"
        },
        {
          "indexed": true,
          "internalType": "bytes32",
          "name": "previousAdminRole",
          "type": "bytes32"
        },
        {
          "indexed": true,
          "internalType": "bytes32",
          "name": "newAdminRole",
          "type": "bytes32"
        }
      ],
      "name": "RoleAdminChanged",
      "type": "event"
    },
    {
      "anonymous": false,
      "inputs": [
        {
          "indexed": true,
          "internalType": "bytes32",
          "name": "role",
          "type": "bytes32"
        },
        {
          "indexed": true,
          "internalType": "address",
          "name": "account",
          "type": "address"
        },
        {
          "indexed": true,
          "internalType": "address",
          "name": "sender",
          "type": "address"
        }
      ],
      "name": "RoleGranted",
      "type": "event"
    },
    {
      "anonymous": false,
      "inputs": [
        {
          "indexed": true,
          "internalType": "bytes32",
          "name": "role",
          "type": "bytes32"
        },
        {
          "indexed": true,
          "internalType": "address",
          "name": "account",
          "type": "address"
        },
        {
          "indexed": true,
          "internalType": "address",
          "name": "sender",
          "type": "address"
        }
      ],
      "name": "RoleRevoked",
      "type": "event"
    },
    {
      "anonymous": false,
      "inputs": [
        {
          "indexed": false,
          "internalType": "address",
          "name": "registry",
          "type": "address"
        }
      ],
      "name": "SetRegistry",
      "type": "event"
    },
    {
      "anonymous": false,
      "inputs": [
        {
          "indexed": false,
          "internalType": "address",
          "name": "layer2",
          "type": "address"
        }
      ],
      "name": "SetTokamakLayer2",
      "type": "event"
    },
    {
      "anonymous": false,
      "inputs": [
        {
          "indexed": false,
          "internalType": "address",
          "name": "layer2",
          "type": "address"
        },
        {
          "indexed": false,
          "internalType": "uint256",
          "name": "rn",
          "type": "uint256"
        },
        {
          "indexed": false,
          "internalType": "bool",
          "name": "receiveTON",
          "type": "bool"
        }
      ],
      "name": "TokamakProcessedUnStaking",
      "type": "event"
    },
    {
      "anonymous": false,
      "inputs": [
        {
          "indexed": false,
          "internalType": "address",
          "name": "layer2",
          "type": "address"
        },
        {
          "indexed": false,
          "internalType": "uint256",
          "name": "amount",
          "type": "uint256"
        }
      ],
      "name": "TokamakRequestedUnStaking",
      "type": "event"
    },
    {
      "anonymous": false,
      "inputs": [
        {
          "indexed": false,
          "internalType": "address",
          "name": "layer2",
          "type": "address"
        }
      ],
      "name": "TokamakRequestedUnStakingAll",
      "type": "event"
    },
    {
      "anonymous": false,
      "inputs": [
        {
          "indexed": false,
          "internalType": "address",
          "name": "layer2",
          "type": "address"
        },
        {
          "indexed": false,
          "internalType": "uint256",
          "name": "amount",
          "type": "uint256"
        }
      ],
      "name": "TokamakStaked",
      "type": "event"
    },
    {
      "inputs": [],
      "name": "ADMIN_ROLE",
      "outputs": [
        {
          "internalType": "bytes32",
          "name": "",
          "type": "bytes32"
        }
      ],
      "stateMutability": "view",
      "type": "function"
    },
    {
      "inputs": [],
      "name": "BURNER_ROLE",
      "outputs": [
        {
          "internalType": "bytes32",
          "name": "",
          "type": "bytes32"
        }
      ],
      "stateMutability": "view",
      "type": "function"
    },
    {
      "inputs": [],
      "name": "DEFAULT_ADMIN_ROLE",
      "outputs": [
        {
          "internalType": "bytes32",
          "name": "",
          "type": "bytes32"
        }
      ],
      "stateMutability": "view",
      "type": "function"
    },
    {
      "inputs": [],
      "name": "MINTER_ROLE",
      "outputs": [
        {
          "internalType": "bytes32",
          "name": "",
          "type": "bytes32"
        }
      ],
      "stateMutability": "view",
      "type": "function"
    },
    {
      "inputs": [],
      "name": "PROJECT_ADMIN_ROLE",
      "outputs": [
        {
          "internalType": "bytes32",
          "name": "",
          "type": "bytes32"
        }
      ],
      "stateMutability": "view",
      "type": "function"
    },
    {
      "inputs": [
        {
          "internalType": "address",
          "name": "account",
          "type": "address"
        }
      ],
      "name": "addAdmin",
      "outputs": [],
      "stateMutability": "nonpayable",
      "type": "function"
    },
    {
      "inputs": [],
      "name": "checkTokamak",
      "outputs": [],
      "stateMutability": "nonpayable",
      "type": "function"
    },
    {
      "inputs": [],
      "name": "defiAddr",
      "outputs": [
        {
          "internalType": "address",
          "name": "",
          "type": "address"
        }
      ],
      "stateMutability": "view",
      "type": "function"
    },
    {
      "inputs": [],
      "name": "defiStatus",
      "outputs": [
        {
          "internalType": "uint256",
          "name": "",
          "type": "uint256"
        }
      ],
      "stateMutability": "view",
      "type": "function"
    },
    {
      "inputs": [],
      "name": "depositManager",
      "outputs": [
        {
          "internalType": "address",
          "name": "",
          "type": "address"
        }
      ],
      "stateMutability": "view",
      "type": "function"
    },
    {
      "inputs": [],
      "name": "endBlock",
      "outputs": [
        {
          "internalType": "uint256",
          "name": "",
          "type": "uint256"
        }
      ],
      "stateMutability": "view",
      "type": "function"
    },
    {
      "inputs": [
        {
          "internalType": "uint256",
          "name": "_amountIn",
          "type": "uint256"
        },
        {
          "internalType": "uint256",
          "name": "_amountOutMinimum",
          "type": "uint256"
        },
        {
          "internalType": "uint256",
          "name": "_deadline",
          "type": "uint256"
        },
        {
          "internalType": "uint160",
          "name": "_sqrtPriceLimitX96",
          "type": "uint160"
        },
        {
          "internalType": "uint256",
          "name": "_kind",
          "type": "uint256"
        }
      ],
      "name": "exchangeWTONtoTOS",
      "outputs": [
        {
          "internalType": "uint256",
          "name": "amountOut",
          "type": "uint256"
        }
      ],
      "stateMutability": "nonpayable",
      "type": "function"
    },
    {
      "inputs": [],
      "name": "finalBalanceTON",
      "outputs": [
        {
          "internalType": "uint256",
          "name": "",
          "type": "uint256"
        }
      ],
      "stateMutability": "view",
      "type": "function"
    },
    {
      "inputs": [],
      "name": "finalBalanceWTON",
      "outputs": [
        {
          "internalType": "uint256",
          "name": "",
          "type": "uint256"
        }
      ],
      "stateMutability": "view",
      "type": "function"
    },
    {
      "inputs": [],
      "name": "fromTokamak",
      "outputs": [
        {
          "internalType": "uint256",
          "name": "",
          "type": "uint256"
        }
      ],
      "stateMutability": "view",
      "type": "function"
    },
    {
      "inputs": [
        {
          "internalType": "bytes32",
          "name": "role",
          "type": "bytes32"
        }
      ],
      "name": "getRoleAdmin",
      "outputs": [
        {
          "internalType": "bytes32",
          "name": "",
          "type": "bytes32"
        }
      ],
      "stateMutability": "view",
      "type": "function"
    },
    {
      "inputs": [
        {
          "internalType": "bytes32",
          "name": "role",
          "type": "bytes32"
        },
        {
          "internalType": "uint256",
          "name": "index",
          "type": "uint256"
        }
      ],
      "name": "getRoleMember",
      "outputs": [
        {
          "internalType": "address",
          "name": "",
          "type": "address"
        }
      ],
      "stateMutability": "view",
      "type": "function"
    },
    {
      "inputs": [
        {
          "internalType": "bytes32",
          "name": "role",
          "type": "bytes32"
        }
      ],
      "name": "getRoleMemberCount",
      "outputs": [
        {
          "internalType": "uint256",
          "name": "",
          "type": "uint256"
        }
      ],
      "stateMutability": "view",
      "type": "function"
    },
    {
      "inputs": [],
      "name": "getUniswapInfo",
      "outputs": [
        {
          "internalType": "address",
          "name": "uniswapRouter",
          "type": "address"
        },
        {
          "internalType": "address",
          "name": "npm",
          "type": "address"
        },
        {
          "internalType": "address",
          "name": "ext",
          "type": "address"
        },
        {
          "internalType": "uint256",
          "name": "fee",
          "type": "uint256"
        },
        {
          "internalType": "address",
          "name": "uniswapRouterV2",
          "type": "address"
        }
      ],
      "stateMutability": "view",
      "type": "function"
    },
    {
      "inputs": [
        {
          "internalType": "address",
          "name": "user",
          "type": "address"
        }
      ],
      "name": "getUserStaked",
      "outputs": [
        {
          "internalType": "uint256",
          "name": "amount",
          "type": "uint256"
        },
        {
          "internalType": "uint256",
          "name": "claimedBlock",
          "type": "uint256"
        },
        {
          "internalType": "uint256",
          "name": "claimedAmount",
          "type": "uint256"
        },
        {
          "internalType": "uint256",
          "name": "releasedBlock",
          "type": "uint256"
        },
        {
          "internalType": "uint256",
          "name": "releasedAmount",
          "type": "uint256"
        },
        {
          "internalType": "uint256",
          "name": "releasedTOSAmount",
          "type": "uint256"
        },
        {
          "internalType": "bool",
          "name": "released",
          "type": "bool"
        }
      ],
      "stateMutability": "view",
      "type": "function"
    },
    {
      "inputs": [
        {
          "internalType": "bytes32",
          "name": "role",
          "type": "bytes32"
        },
        {
          "internalType": "address",
          "name": "account",
          "type": "address"
        }
      ],
      "name": "grantRole",
      "outputs": [],
      "stateMutability": "nonpayable",
      "type": "function"
    },
    {
      "inputs": [
        {
          "internalType": "bytes32",
          "name": "role",
          "type": "bytes32"
        },
        {
          "internalType": "address",
          "name": "account",
          "type": "address"
        }
      ],
      "name": "hasRole",
      "outputs": [
        {
          "internalType": "bool",
          "name": "",
          "type": "bool"
        }
      ],
      "stateMutability": "view",
      "type": "function"
    },
    {
      "inputs": [],
      "name": "infos",
      "outputs": [
        {
          "internalType": "address",
          "name": "",
          "type": "address"
        },
        {
          "internalType": "address",
          "name": "",
          "type": "address"
        },
        {
          "internalType": "uint256[3]",
          "name": "",
          "type": "uint256[3]"
        },
        {
          "internalType": "uint256",
          "name": "",
          "type": "uint256"
        },
        {
          "internalType": "uint256",
          "name": "",
          "type": "uint256"
        },
        {
          "internalType": "uint256",
          "name": "",
          "type": "uint256"
        }
      ],
      "stateMutability": "view",
      "type": "function"
    },
    {
      "inputs": [
        {
          "internalType": "address",
          "name": "account",
          "type": "address"
        }
      ],
      "name": "isAdmin",
      "outputs": [
        {
          "internalType": "bool",
          "name": "",
          "type": "bool"
        }
      ],
      "stateMutability": "view",
      "type": "function"
    },
    {
      "inputs": [],
      "name": "migratedL2",
      "outputs": [
        {
          "internalType": "bool",
          "name": "",
          "type": "bool"
        }
      ],
      "stateMutability": "view",
      "type": "function"
    },
    {
      "inputs": [],
      "name": "pauseProxy",
      "outputs": [
        {
          "internalType": "bool",
          "name": "",
          "type": "bool"
        }
      ],
      "stateMutability": "view",
      "type": "function"
    },
    {
      "inputs": [],
      "name": "paytoken",
      "outputs": [
        {
          "internalType": "address",
          "name": "",
          "type": "address"
        }
      ],
      "stateMutability": "view",
      "type": "function"
    },
    {
      "inputs": [
        {
          "internalType": "address",
          "name": "account",
          "type": "address"
        }
      ],
      "name": "removeAdmin",
      "outputs": [],
      "stateMutability": "nonpayable",
      "type": "function"
    },
    {
      "inputs": [
        {
          "internalType": "bytes32",
          "name": "role",
          "type": "bytes32"
        },
        {
          "internalType": "address",
          "name": "account",
          "type": "address"
        }
      ],
      "name": "renounceRole",
      "outputs": [],
      "stateMutability": "nonpayable",
      "type": "function"
    },
    {
      "inputs": [],
      "name": "requestNum",
      "outputs": [
        {
          "internalType": "uint256",
          "name": "",
          "type": "uint256"
        }
      ],
      "stateMutability": "view",
      "type": "function"
    },
    {
      "inputs": [
        {
          "internalType": "bytes32",
          "name": "role",
          "type": "bytes32"
        },
        {
          "internalType": "address",
          "name": "account",
          "type": "address"
        }
      ],
      "name": "revokeRole",
      "outputs": [],
      "stateMutability": "nonpayable",
      "type": "function"
    },
    {
      "inputs": [],
      "name": "rewardClaimedTotal",
      "outputs": [
        {
          "internalType": "uint256",
          "name": "",
          "type": "uint256"
        }
      ],
      "stateMutability": "view",
      "type": "function"
    },
    {
      "inputs": [],
      "name": "saleStartBlock",
      "outputs": [
        {
          "internalType": "uint256",
          "name": "",
          "type": "uint256"
        }
      ],
      "stateMutability": "view",
      "type": "function"
    },
    {
      "inputs": [],
      "name": "seigManager",
      "outputs": [
        {
          "internalType": "address",
          "name": "",
          "type": "address"
        }
      ],
      "stateMutability": "view",
      "type": "function"
    },
    {
      "inputs": [
        {
          "internalType": "address",
          "name": "_registry",
          "type": "address"
        }
      ],
      "name": "setRegistry",
      "outputs": [],
      "stateMutability": "nonpayable",
      "type": "function"
    },
    {
      "inputs": [
        {
          "internalType": "address",
          "name": "_layer2",
          "type": "address"
        }
      ],
      "name": "setTokamakLayer2",
      "outputs": [],
      "stateMutability": "nonpayable",
      "type": "function"
    },
    {
      "inputs": [],
      "name": "stakeRegistry",
      "outputs": [
        {
          "internalType": "address",
          "name": "",
          "type": "address"
        }
      ],
      "stateMutability": "view",
      "type": "function"
    },
    {
      "inputs": [],
      "name": "startBlock",
      "outputs": [
        {
          "internalType": "uint256",
          "name": "",
          "type": "uint256"
        }
      ],
      "stateMutability": "view",
      "type": "function"
    },
    {
      "inputs": [],
      "name": "swapProxy",
      "outputs": [
        {
          "internalType": "address",
          "name": "",
          "type": "address"
        }
      ],
      "stateMutability": "view",
      "type": "function"
    },
    {
      "inputs": [
        {
          "internalType": "uint256",
          "name": "amount",
          "type": "uint256"
        },
        {
          "internalType": "bool",
          "name": "toWTON",
          "type": "bool"
        }
      ],
      "name": "swapTONtoWTON",
      "outputs": [],
      "stateMutability": "nonpayable",
      "type": "function"
    },
    {
      "inputs": [],
      "name": "swappedAmountTOS",
      "outputs": [
        {
          "internalType": "uint256",
          "name": "",
          "type": "uint256"
        }
      ],
      "stateMutability": "view",
      "type": "function"
    },
    {
      "inputs": [],
      "name": "toTokamak",
      "outputs": [
        {
          "internalType": "uint256",
          "name": "",
          "type": "uint256"
        }
      ],
      "stateMutability": "view",
      "type": "function"
    },
    {
      "inputs": [],
      "name": "toUniswapWTON",
      "outputs": [
        {
          "internalType": "uint256",
          "name": "",
          "type": "uint256"
        }
      ],
      "stateMutability": "view",
      "type": "function"
    },
    {
      "inputs": [],
      "name": "tokamakLayer2",
      "outputs": [
        {
          "internalType": "address",
          "name": "",
          "type": "address"
        }
      ],
      "stateMutability": "view",
      "type": "function"
    },
    {
      "inputs": [
        {
          "internalType": "address",
          "name": "_layer2",
          "type": "address"
        }
      ],
      "name": "tokamakProcessUnStaking",
      "outputs": [],
      "stateMutability": "nonpayable",
      "type": "function"
    },
    {
      "inputs": [
        {
          "internalType": "address",
          "name": "_layer2",
          "type": "address"
        },
        {
          "internalType": "uint256",
          "name": "wtonAmount",
          "type": "uint256"
        }
      ],
      "name": "tokamakRequestUnStaking",
      "outputs": [],
      "stateMutability": "nonpayable",
      "type": "function"
    },
    {
      "inputs": [
        {
          "internalType": "address",
          "name": "_layer2",
          "type": "address"
        }
      ],
      "name": "tokamakRequestUnStakingAll",
      "outputs": [],
      "stateMutability": "nonpayable",
      "type": "function"
    },
    {
      "inputs": [
        {
          "internalType": "address",
          "name": "_layer2",
          "type": "address"
        },
        {
          "internalType": "uint256",
          "name": "stakeAmount",
          "type": "uint256"
        }
      ],
      "name": "tokamakStaking",
      "outputs": [],
      "stateMutability": "nonpayable",
      "type": "function"
    },
    {
      "inputs": [],
      "name": "token",
      "outputs": [
        {
          "internalType": "address",
          "name": "",
          "type": "address"
        }
      ],
      "stateMutability": "view",
      "type": "function"
    },
    {
      "inputs": [],
      "name": "ton",
      "outputs": [
        {
          "internalType": "address",
          "name": "",
          "type": "address"
        }
      ],
      "stateMutability": "view",
      "type": "function"
    },
    {
      "inputs": [],
      "name": "totalStakedAmount",
      "outputs": [
        {
          "internalType": "uint256",
          "name": "",
          "type": "uint256"
        }
      ],
      "stateMutability": "view",
      "type": "function"
    },
    {
      "inputs": [],
      "name": "totalStakers",
      "outputs": [
        {
          "internalType": "uint256",
          "name": "",
          "type": "uint256"
        }
      ],
      "stateMutability": "view",
      "type": "function"
    },
    {
      "inputs": [
        {
          "internalType": "address",
          "name": "newAdmin",
          "type": "address"
        }
      ],
      "name": "transferAdmin",
      "outputs": [],
      "stateMutability": "nonpayable",
      "type": "function"
    },
    {
      "inputs": [
        {
          "internalType": "address",
          "name": "",
          "type": "address"
        }
      ],
      "name": "userStaked",
      "outputs": [
        {
          "internalType": "uint256",
          "name": "amount",
          "type": "uint256"
        },
        {
          "internalType": "uint256",
          "name": "claimedBlock",
          "type": "uint256"
        },
        {
          "internalType": "uint256",
          "name": "claimedAmount",
          "type": "uint256"
        },
        {
          "internalType": "uint256",
          "name": "releasedBlock",
          "type": "uint256"
        },
        {
          "internalType": "uint256",
          "name": "releasedAmount",
          "type": "uint256"
        },
        {
          "internalType": "uint256",
          "name": "releasedTOSAmount",
          "type": "uint256"
        },
        {
          "internalType": "bool",
          "name": "released",
          "type": "bool"
        }
      ],
      "stateMutability": "view",
      "type": "function"
    },
    {
      "inputs": [],
      "name": "vault",
      "outputs": [
        {
          "internalType": "address",
          "name": "",
          "type": "address"
        }
      ],
      "stateMutability": "view",
      "type": "function"
    },
    {
      "inputs": [],
      "name": "withdrawFlag",
      "outputs": [
        {
          "internalType": "bool",
          "name": "",
          "type": "bool"
        }
      ],
      "stateMutability": "view",
      "type": "function"
    },
    {
      "inputs": [],
      "name": "wton",
      "outputs": [
        {
          "internalType": "address",
          "name": "",
          "type": "address"
        }
      ],
      "stateMutability": "view",
      "type": "function"
    }
  ],
  "bytecode": "0x608060405234801561001057600080fd5b50613ac3806100206000396000f3fe608060405234801561001057600080fd5b50600436106103035760003560e01c806375b238fc1161019e578063b2d4d6a3116100ef578063e09974b91161009d578063e09974b9146105c3578063e58e2747146105cb578063e6a7bc87146105d3578063f0cdfa53146105db578063fbfa77cf146105ee578063fc0c546a146105f6578063fd7fa460146105fe578063ff7587881461060657610303565b8063b2d4d6a31461055f578063ca15c87314610567578063cc48b9471461057a578063ce681ce614610582578063d539139314610595578063d547741f1461059d578063dac3fc3f146105b057610303565b80639a88be2f1161014c5780639a88be2f146104e15780639d84ca35146104fb578063a1f5f50e14610503578063a217fddf1461050b578063a6e8670e14610513578063a91ee0dc14610526578063acc3a9391461053957610303565b806375b238fc146104885780637df3f40c1461049057806386989038146104a35780638d62d949146104ab5780639010d07c146104b357806391d14854146104c657806392ea3b4c146104d957610303565b806343b0934a116102585780636ec4be90116102065780636ec4be90146104245780636fb7f5581461042c578063704802751461043457806371def0b314610447578063722853261461045a578063730464a91461046257806375829def1461047557610303565b806343b0934a146103df57806348cd4cb1146103f4578063567e98f9146103fc57806363a8fd8914610404578063683048351461040c5780636c7ac9d8146104145780636e7cf5341461041c57610303565b8063248a9ca3116102b5578063248a9ca31461036e57806324d7806c14610381578063282c51f3146103a15780632995fa0e146103a95780632f2ff15d146103b157806336568abe146103c457806341c04d5e146103d757610303565b806305871b7814610308578063065c431314610326578063083c63231461033b5780630ac8e0f3146103435780630ea3d9c91461034b5780631785f53c146103535780632002727514610366575b600080fd5b61031061061f565b60405161031d919061323c565b60405180910390f35b610339610334366004612f11565b610625565b005b610310610bb8565b610310610bbe565b610310610bc4565b610339610361366004612e25565b610bca565b610310610c29565b61031061037c366004612f58565b610c2f565b61039461038f366004612e25565b610c44565b60405161031d9190613231565b610310610c64565b610339610c88565b6103396103bf366004612f70565b610e0d565b6103396103d2366004612f70565b610e74565b610310610ed5565b6103e7610ef9565b60405161031d91906130e1565b610310610f08565b610310610f0e565b610394610f14565b6103e7610f1d565b6103e7610f2c565b610394610f3b565b6103e7610f44565b6103e7610f53565b610339610442366004612e25565b610f62565b610339610455366004612e25565b610fbe565b6103106111bf565b610339610470366004612e25565b6111c5565b610339610483366004612e25565b611517565b610310611638565b61033961049e366004612fd8565b61164a565b610310611967565b6103e761196d565b6103e76104c1366004612f9f565b61197c565b6103946104d4366004612f70565b61199b565b6103e76119b3565b6104e96119c2565b60405161031d96959493929190613160565b6103e7611a18565b610394611a2c565b610310611a3c565b610339610521366004612e25565b611a41565b610339610534366004612e25565b611b1d565b61054c610547366004612e25565b611be5565b60405161031d9796959493929190613925565b610310611c25565b610310610575366004612f58565b611c2b565b6103e7611c42565b610339610590366004612f11565b611c51565b610310611efd565b6103396105ab366004612f70565b611f21565b61054c6105be366004612e25565b611f7a565b610310611fc3565b610310611fc9565b610310611fcf565b6103106105e9366004612ffc565b611fd5565b6103e7612855565b6103e7612864565b610310612873565b61060e612879565b60405161031d959493929190613130565b60155481565b600b541561064e5760405162461bcd60e51b815260040161064590613481565b60405180910390fd5b6001600b819055546001600160a01b03168061067c5760405162461bcd60e51b815260040161064590613245565b826001600160a01b0381166106a35760405162461bcd60e51b815260040161064590613245565b600360009054906101000a90046001600160a01b03166001600160a01b031663b8c766b86040518163ffffffff1660e01b815260040160206040518083038186803b1580156106f157600080fd5b505afa158015610705573d6000803e3d6000fd5b505050506040513d601f19601f820116820180604052508101906107299190612f3c565b6107455760405162461bcd60e51b8152600401610645906137e8565b6006544311156107675760405162461bcd60e51b815260040161064590613355565b600083116107875760405162461bcd60e51b815260040161064590613733565b6002601955610794610c88565b60105460408051633761ead760e11b815290516000926001600160a01b031691636ec3d5ae916004808301926020929190829003018186803b1580156107d957600080fd5b505afa1580156107ed573d6000803e3d6000fd5b505050506040513d601f19601f820116820180604052508101906108119190612fc0565b9050806006540343106108365760405162461bcd60e51b815260040161064590613387565b6012546001600160a01b031661086657601280546001600160a01b0319166001600160a01b0387161790556109eb565b600f546012546040516367265c3b60e11b81526000926001600160a01b039081169263ce4cb876926108a092909116903090600401613116565b60206040518083038186803b1580156108b857600080fd5b505afa1580156108cc573d6000803e3d6000fd5b505050506040513d601f19601f820116820180604052508101906108f09190612fc0565b11806109835750601054601254604051632638fdf560e01b81526000926001600160a01b0390811692632638fdf59261093192909116903090600401613116565b60206040518083038186803b15801561094957600080fd5b505afa15801561095d573d6000803e3d6000fd5b505050506040513d601f19601f820116820180604052508101906109819190612fc0565b115b156109ba576012546001600160a01b038681169116146109b55760405162461bcd60e51b81526004016106459061357a565b6109eb565b6012546001600160a01b038681169116146109eb57601280546001600160a01b0319166001600160a01b0387161790555b600d546040516370a0823160e01b815285916001600160a01b0316906370a0823190610a1b9030906004016130e1565b60206040518083038186803b158015610a3357600080fd5b505afa158015610a47573d6000803e3d6000fd5b505050506040513d601f19601f82011682018060405250810190610a6b9190612fc0565b1015610a895760405162461bcd60e51b815260040161064590613635565b601354610a969085612918565b601355601054604051600091610abc916001600160a01b03909116908890602001613116565b60408051601f1981840301815290829052600d54600e5463cae9ca5160e01b84529193506001600160a01b039081169263cae9ca5192610b0492169089908690600401613201565b602060405180830381600087803b158015610b1e57600080fd5b505af1158015610b32573d6000803e3d6000fd5b505050506040513d601f19601f82011682018060405250810190610b569190612f3c565b610b725760405162461bcd60e51b8152600401610645906134af565b7f36f1e081b7e687a2472c2fbd52bc97993ddc788b19c74010f11e25f3c917d2dd8686604051610ba39291906131c5565b60405180910390a150506000600b5550505050565b60065481565b60145481565b60165481565b610bd333610c44565b610c0e5760405162461bcd60e51b81526004018080602001828103825260228152602001806139cc6022913960400191505060405180910390fd5b610c26600080516020613a3f83398151915282610e74565b50565b60045481565b6000908152601c602052604090206002015490565b6000610c5e600080516020613a3f8339815191528361199b565b92915050565b7f9667e80708b6eeeb0053fa0cca44e028ff548e2a9f029edfeac87c118b08b7c881565b600d546001600160a01b0316610d89576000806000806000600160009054906101000a90046001600160a01b03166001600160a01b031663a782ebd56040518163ffffffff1660e01b815260040160a06040518083038186803b158015610cee57600080fd5b505afa158015610d02573d6000803e3d6000fd5b505050506040513d601f19601f82011682018060405250810190610d269190612e41565b600d80546001600160a01b03199081166001600160a01b0397881617909155600e805482169587169590951790945560108054851693861693909317909255600f8054841691851691909117905560118054909216921691909117905550505050505b600d546001600160a01b031615801590610dad5750600e546001600160a01b031615155b8015610dc35750600f546001600160a01b031615155b8015610dd957506010546001600160a01b031615155b8015610def57506011546001600160a01b031615155b610e0b5760405162461bcd60e51b8152600401610645906136fc565b565b6000828152601c6020526040902060020154610e2b906104d4612972565b610e665760405162461bcd60e51b815260040180806020018281038252602f81526020018061399d602f913960400191505060405180910390fd5b610e708282612976565b5050565b610e7c612972565b6001600160a01b0316816001600160a01b031614610ecb5760405162461bcd60e51b815260040180806020018281038252602f815260200180613a5f602f913960400191505060405180910390fd5b610e7082826129df565b7f52eafc11f6f81f86878bffd31109a0d92f37506527754f00788853ff9f63b13081565b6002546001600160a01b031681565b60055481565b60085481565b600c5460ff1681565b6001546001600160a01b031681565b6010546001600160a01b031681565b601b5460ff1681565b6011546001600160a01b031681565b600f546001600160a01b031681565b610f6b33610c44565b610fa65760405162461bcd60e51b81526004018080602001828103825260228152602001806139cc6022913960400191505060405180910390fd5b610c26600080516020613a3f83398151915282610e0d565b600b5415610fde5760405162461bcd60e51b815260040161064590613481565b6001600b819055546001600160a01b03168061100c5760405162461bcd60e51b815260040161064590613245565b600360009054906101000a90046001600160a01b03166001600160a01b031663b8c766b86040518163ffffffff1660e01b815260040160206040518083038186803b15801561105a57600080fd5b505afa15801561106e573d6000803e3d6000fd5b505050506040513d601f19601f820116820180604052508101906110929190612f3c565b6110ae5760405162461bcd60e51b8152600401610645906137e8565b60125482906001600160a01b038083169116146110dd5760405162461bcd60e51b81526004016106459061357a565b6003601955601a546110f0906001612918565b601a556110fb610c88565b601054604051636b2160b760e01b81526001600160a01b0390911690636b2160b79061112b9086906004016130e1565b602060405180830381600087803b15801561114557600080fd5b505af1158015611159573d6000803e3d6000fd5b505050506040513d601f19601f8201168201806040525081019061117d9190612f3c565b507fd1c4e96e0fd22936ea8aebe0b8e06b19f1c4a836b141a34cf9e925d2afb20523836040516111ad91906130e1565b60405180910390a150506000600b5550565b60195481565b600b54156111e55760405162461bcd60e51b815260040161064590613481565b6001600b819055546001600160a01b0316806112135760405162461bcd60e51b815260040161064590613245565b600360009054906101000a90046001600160a01b03166001600160a01b031663b8c766b86040518163ffffffff1660e01b815260040160206040518083038186803b15801561126157600080fd5b505afa158015611275573d6000803e3d6000fd5b505050506040513d601f19601f820116820180604052508101906112999190612f3c565b6112b55760405162461bcd60e51b8152600401610645906137e8565b60125482906001600160a01b038083169116146112e45760405162461bcd60e51b81526004016106459061357a565b600560195414156113075760405162461bcd60e51b81526004016106459061367f565b6005601955601a8054600090915561131d610c88565b600f546012546040516367265c3b60e11b81526001600160a01b039283169263ce4cb87692611353929116903090600401613116565b60206040518083038186803b15801561136b57600080fd5b505afa15801561137f573d6000803e3d6000fd5b505050506040513d601f19601f820116820180604052508101906113a39190612fc0565b6113b857601280546001600160a01b03191690555b601054604051632638fdf560e01b8152611445916001600160a01b031690632638fdf5906113ec9088903090600401613116565b60206040518083038186803b15801561140457600080fd5b505afa158015611418573d6000803e3d6000fd5b505050506040513d601f19601f8201168201806040525081019061143c9190612fc0565b60145490612918565b60145560105460405163fb0713b160e01b81526001600160a01b039091169063fb0713b19061147d90879085906001906004016131de565b602060405180830381600087803b15801561149757600080fd5b505af11580156114ab573d6000803e3d6000fd5b505050506040513d601f19601f820116820180604052508101906114cf9190612f3c565b507f76d210b2dc3da8be1904d8b5da9feb5cdd21af436261626c4ec607e2123b417d84826001604051611504939291906131de565b60405180910390a150506000600b555050565b61152033610c44565b61155b5760405162461bcd60e51b81526004018080602001828103825260228152602001806139cc6022913960400191505060405180910390fd5b6001600160a01b0381166115b1576040805162461bcd60e51b815260206004820152601860248201527741636365737369626c653a207a65726f206164647265737360401b604482015290519081900360640190fd5b336001600160a01b0382161415611608576040805162461bcd60e51b815260206004820152601660248201527520b1b1b2b9b9b4b136329d1039b0b6b29030b236b4b760511b604482015290519081900360640190fd5b611620600080516020613a3f83398151915282610e0d565b610c26600080516020613a3f83398151915233610e74565b600080516020613a3f83398151915281565b600b541561166a5760405162461bcd60e51b815260040161064590613481565b6001600b55611677610c88565b8015611822576011546001600160a01b03166116a55760405162461bcd60e51b815260040161064590613320565b600d546040516370a0823160e01b815283916001600160a01b0316906370a08231906116d59030906004016130e1565b60206040518083038186803b1580156116ed57600080fd5b505afa158015611701573d6000803e3d6000fd5b505050506040513d601f19601f820116820180604052508101906117259190612fc0565b10156117435760405162461bcd60e51b8152600401610645906133d0565b601154604051600091611766916001600160a01b03909116908190602001613116565b60408051601f1981840301815290829052600d54600e5463cae9ca5160e01b84529193506001600160a01b039081169263cae9ca51926117ae92169087908690600401613201565b602060405180830381600087803b1580156117c857600080fd5b505af11580156117dc573d6000803e3d6000fd5b505050506040513d601f19601f820116820180604052508101906118009190612f3c565b61181c5760405162461bcd60e51b8152600401610645906135e6565b5061195e565b600e546040516370a0823160e01b815283916001600160a01b0316906370a08231906118529030906004016130e1565b60206040518083038186803b15801561186a57600080fd5b505afa15801561187e573d6000803e3d6000fd5b505050506040513d601f19601f820116820180604052508101906118a29190612fc0565b10156118c05760405162461bcd60e51b815260040161064590613428565b600e5460405163f53fe70f60e01b81526001600160a01b039091169063f53fe70f906118f090859060040161323c565b602060405180830381600087803b15801561190a57600080fd5b505af115801561191e573d6000803e3d6000fd5b505050506040513d601f19601f820116820180604052508101906119429190612f3c565b61195e5760405162461bcd60e51b8152600401610645906136c5565b50506000600b55565b600a5481565b600e546001600160a01b031681565b6000828152601c602052604081206119949083612a48565b9392505050565b6000828152601c602052604081206119949083612a54565b6012546001600160a01b031681565b6000806119cd612e07565b5050600254600354604080516060810182526004548152600554602082015260065491810191909152600754600854600a546001600160a01b03958616979590941695509193909290565b600c5461010090046001600160a01b031681565b600c54600160a81b900460ff1681565b600081565b611a4a33610c44565b611a855760405162461bcd60e51b81526004018080602001828103825260228152602001806139cc6022913960400191505060405180910390fd5b6001600160a01b03811615801590611aab57506012546001600160a01b03828116911614155b611ac75760405162461bcd60e51b8152600401610645906132df565b601280546001600160a01b0319166001600160a01b0383161790556040517fbcf2b04f5517cca822ae60e21bb6e3889b8d8307ea062c5266c63a014386c99090611b129083906130e1565b60405180910390a150565b611b2633610c44565b611b615760405162461bcd60e51b81526004018080602001828103825260228152602001806139cc6022913960400191505060405180910390fd5b806001600160a01b038116611b885760405162461bcd60e51b815260040161064590613245565b600180546001600160a01b0319166001600160a01b0384811691909117918290556040517f278c70ced5f3e0e5eeb385b5ff9cb735748ba00a625147e66065ed48fc1562cd92611bd99216906130e1565b60405180910390a15050565b6009602052600090815260409020805460018201546002830154600384015460048501546005860154600690960154949593949293919290919060ff1687565b60075481565b6000818152601c60205260408120610c5e90612a69565b600d546001600160a01b031681565b600b5415611c715760405162461bcd60e51b815260040161064590613481565b6001600b819055546001600160a01b031680611c9f5760405162461bcd60e51b815260040161064590613245565b600360009054906101000a90046001600160a01b03166001600160a01b031663b8c766b86040518163ffffffff1660e01b815260040160206040518083038186803b158015611ced57600080fd5b505afa158015611d01573d6000803e3d6000fd5b505050506040513d601f19601f82011682018060405250810190611d259190612f3c565b611d415760405162461bcd60e51b8152600401610645906137e8565b60125483906001600160a01b03808316911614611d705760405162461bcd60e51b81526004016106459061357a565b6003601955601a54611d83906001612918565b601a55611d8e610c88565b600f546040516367265c3b60e11b81526000916001600160a01b03169063ce4cb87690611dc19088903090600401613116565b60206040518083038186803b158015611dd957600080fd5b505afa158015611ded573d6000803e3d6000fd5b505050506040513d601f19601f82011682018060405250810190611e119190612fc0565b905083811015611e335760405162461bcd60e51b8152600401610645906132b3565b60105460405163da95ebf760e01b81526001600160a01b039091169063da95ebf790611e6590889088906004016131c5565b602060405180830381600087803b158015611e7f57600080fd5b505af1158015611e93573d6000803e3d6000fd5b505050506040513d601f19601f82011682018060405250810190611eb79190612f3c565b507f2a23e23c116b511f71c9f0c2648b0372e6bbcb1f559a7cbfaed5c55933ea6c4e8585604051611ee99291906131c5565b60405180910390a150506000600b55505050565b7ff0887ba65ee2024ea881d91b74c2450ef19e1557f03bed3ea9f16b037cbe2dc981565b6000828152601c6020526040902060020154611f3f906104d4612972565b610ecb5760405162461bcd60e51b81526004018080602001828103825260308152602001806139ee6030913960400191505060405180910390fd5b6001600160a01b03166000908152600960205260409020805460018201546002830154600384015460048501546005860154600690960154949693959294919390929160ff1690565b601a5481565b60175481565b60185481565b6000600b54600014611ff95760405162461bcd60e51b815260040161064590613481565b6001600b5560035460408051631718ecd760e31b815290516001600160a01b039092169163b8c766b891600480820192602092909190829003018186803b15801561204357600080fd5b505afa158015612057573d6000803e3d6000fd5b505050506040513d601f19601f8201168201806040525081019061207b9190612f3c565b6120975760405162461bcd60e51b8152600401610645906137e8565b6006544311156120b95760405162461bcd60e51b8152600401610645906137b5565b600282106120d95760405162461bcd60e51b815260040161064590613774565b6120e1610c88565b600e546040516370a0823160e01b81526000916001600160a01b0316906370a08231906121129030906004016130e1565b60206040518083038186803b15801561212a57600080fd5b505afa15801561213e573d6000803e3d6000fd5b505050506040513d601f19601f820116820180604052508101906121629190612fc0565b600d546040516370a0823160e01b81529192506000916001600160a01b03909116906370a08231906121989030906004016130e1565b60206040518083038186803b1580156121b057600080fd5b505afa1580156121c4573d6000803e3d6000fd5b505050506040513d601f19601f820116820180604052508101906121e89190612fc0565b6012549091506000906001600160a01b03161561231c57600f546012546040516367265c3b60e11b81526001600160a01b039283169263ce4cb87692612235929116903090600401613116565b60206040518083038186803b15801561224d57600080fd5b505afa158015612261573d6000803e3d6000fd5b505050506040513d601f19601f820116820180604052508101906122859190612fc0565b601054601254604051632638fdf560e01b8152929350612319926001600160a01b0392831692632638fdf5926122c2929116903090600401613116565b60206040518083038186803b1580156122da57600080fd5b505afa1580156122ee573d6000803e3d6000fd5b505050506040513d601f19601f820116820180604052508101906123129190612fc0565b8290612918565b90505b8282156123375761233461231284633b9aca00612a74565b90505b898110156123575760405162461bcd60e51b8152600401610645906135b1565b811561236a576123678183612918565b90505b60085461237b90633b9aca00612a74565b811180156123ab5750896123a86123a1633b9aca00600854612a7490919063ffffffff16565b8390612acd565b10155b6123c75760405162461bcd60e51b815260040161064590613543565b898410156124c9576011546040516000916123f2916001600160a01b03909116908190602001613116565b60408051601f198184030181529190529050600061241e633b9aca006124188e89612acd565b90612b0f565b600d54600e5460405163cae9ca5160e01b81529293506001600160a01b039182169263cae9ca519261245892169085908790600401613201565b602060405180830381600087803b15801561247257600080fd5b505af1158015612486573d6000803e3d6000fd5b505050506040513d601f19601f820116820180604052508101906124aa9190612f3c565b6124c65760405162461bcd60e51b8152600401610645906134f0565b50505b50506015546124db9250905087612918565b6015819055506000806000600160009054906101000a90046001600160a01b03166001600160a01b031663504563c06040518163ffffffff1660e01b815260040160a06040518083038186803b15801561253457600080fd5b505afa158015612548573d6000803e3d6000fd5b505050506040513d601f19601f8201168201806040525081019061256c9190612eb5565b509295509350909150506001600160a01b03831661259c5760405162461bcd60e51b81526004016106459061327c565b600e5460405163095ea7b360e01b81526001600160a01b039091169063095ea7b3906125ce9086908d906004016131c5565b602060405180830381600087803b1580156125e857600080fd5b505af11580156125fc573d6000803e3d6000fd5b505050506040513d601f19601f820116820180604052508101906126209190612f3c565b61263c5760405162461bcd60e51b81526004016106459061381b565b84612712576040805161010081018252600e546001600160a01b0390811682526000548116602083015262ffffff841682840152306060830152608082018a905260a082018c905260c082018b905288811660e0830152915163414bf38960e01b8152909185169063414bf389906126b89084906004016138bc565b602060405180830381600087803b1580156126d257600080fd5b505af11580156126e6573d6000803e3d6000fd5b505050506040513d601f19601f8201168201806040525081019061270a9190612fc0565b945050612809565b8460011415612809576040805160a08101909152600e54600080549092918291612752916001600160a01b03908116918791899183911660c0870161308f565b6040516020818303038152906040528152602001306001600160a01b031681526020018981526020018b81526020018a8152509050836001600160a01b031663c04b8d59826040518263ffffffff1660e01b81526004016127b39190613864565b602060405180830381600087803b1580156127cd57600080fd5b505af11580156127e1573d6000803e3d6000fd5b505050506040513d601f19601f820116820180604052508101906128059190612fc0565b9450505b7f6ad50db5d488c314f9077fc5c41c7d8bcdd86ddc409871512ddd009f21067d32338a8660405161283c939291906130f5565b60405180910390a150506000600b555095945050505050565b6003546001600160a01b031681565b6000546001600160a01b031681565b60135481565b6000806000806000600160009054906101000a90046001600160a01b03166001600160a01b031663504563c06040518163ffffffff1660e01b815260040160a06040518083038186803b1580156128cf57600080fd5b505afa1580156128e3573d6000803e3d6000fd5b505050506040513d601f19601f820116820180604052508101906129079190612eb5565b945094509450945094509091929394565b600082820183811015611994576040805162461bcd60e51b815260206004820152601b60248201527f536166654d6174683a206164646974696f6e206f766572666c6f770000000000604482015290519081900360640190fd5b3390565b6000828152601c6020526040902061298e9082612b51565b15610e705761299b612972565b6001600160a01b0316816001600160a01b0316837f2f8788117e7eff1d82e926ec794901d17c78024a50270940304540a733656f0d60405160405180910390a45050565b6000828152601c602052604090206129f79082612b66565b15610e7057612a04612972565b6001600160a01b0316816001600160a01b0316837ff6391f5c32d9c69d2a47ea670b442974b53935d1edc7fd64eb21e047a839171b60405160405180910390a45050565b60006119948383612b7b565b6000611994836001600160a01b038416612bdf565b6000610c5e82612bf7565b600082612a8357506000610c5e565b82820282848281612a9057fe5b04146119945760405162461bcd60e51b8152600401808060200182810382526021815260200180613a1e6021913960400191505060405180910390fd5b600061199483836040518060400160405280601e81526020017f536166654d6174683a207375627472616374696f6e206f766572666c6f770000815250612bfb565b600061199483836040518060400160405280601a81526020017f536166654d6174683a206469766973696f6e206279207a65726f000000000000815250612c92565b6000611994836001600160a01b038416612cf7565b6000611994836001600160a01b038416612d41565b81546000908210612bbd5760405162461bcd60e51b815260040180806020018281038252602281526020018061397b6022913960400191505060405180910390fd5b826000018281548110612bcc57fe5b9060005260206000200154905092915050565b60009081526001919091016020526040902054151590565b5490565b60008184841115612c8a5760405162461bcd60e51b81526004018080602001828103825283818151815260200191508051906020019080838360005b83811015612c4f578181015183820152602001612c37565b50505050905090810190601f168015612c7c5780820380516001836020036101000a031916815260200191505b509250505060405180910390fd5b505050900390565b60008183612ce15760405162461bcd60e51b8152602060048201818152835160248401528351909283926044909101919085019080838360008315612c4f578181015183820152602001612c37565b506000838581612ced57fe5b0495945050505050565b6000612d038383612bdf565b612d3957508154600181810184556000848152602080822090930184905584548482528286019093526040902091909155610c5e565b506000610c5e565b60008181526001830160205260408120548015612dfd5783546000198083019190810190600090879083908110612d7457fe5b9060005260206000200154905080876000018481548110612d9157fe5b600091825260208083209091019290925582815260018981019092526040902090840190558654879080612dc157fe5b60019003818190600052602060002001600090559055866001016000878152602001908152602001600020600090556001945050505050610c5e565b6000915050610c5e565b60405180606001604052806003906020820280368337509192915050565b600060208284031215612e36578081fd5b813561199481613957565b600080600080600060a08688031215612e58578081fd5b8551612e6381613957565b6020870151909550612e7481613957565b6040870151909450612e8581613957565b6060870151909350612e9681613957565b6080870151909250612ea781613957565b809150509295509295909350565b600080600080600060a08688031215612ecc578081fd5b8551612ed781613957565b6020870151909550612ee881613957565b6040870151909450612ef981613957565b606087015160808801519194509250612ea781613957565b60008060408385031215612f23578182fd5b8235612f2e81613957565b946020939093013593505050565b600060208284031215612f4d578081fd5b81516119948161396c565b600060208284031215612f69578081fd5b5035919050565b60008060408385031215612f82578182fd5b823591506020830135612f9481613957565b809150509250929050565b60008060408385031215612fb1578182fd5b50508035926020909101359150565b600060208284031215612fd1578081fd5b5051919050565b60008060408385031215612fea578182fd5b823591506020830135612f948161396c565b600080600080600060a08688031215613013578081fd5b853594506020860135935060408601359250606086013561303381613957565b949793965091946080013592915050565b60008151808452815b818110156130695760208185018101518683018201520161304d565b8181111561307a5782602083870101525b50601f01601f19169290920160200192915050565b6bffffffffffffffffffffffff19606096871b811682526001600160e81b031960e896871b8116601484015294871b811660178301529290941b909216602b840152921b909116602e82015260420190565b6001600160a01b0391909116815260200190565b6001600160a01b039390931683526020830191909152604082015260600190565b6001600160a01b0392831681529116602082015260400190565b6001600160a01b039586168152938516602085015291841660408401526060830152909116608082015260a00190565b6001600160a01b038781168252861660208083019190915261010082019060408301908760005b60038110156131a457815184529282019290820190600101613187565b505050508460a08301528360c08301528260e0830152979650505050505050565b6001600160a01b03929092168252602082015260400190565b6001600160a01b0393909316835260208301919091521515604082015260600190565b600060018060a01b0385168252836020830152606060408301526132286060830184613044565b95945050505050565b901515815260200190565b90815260200190565b6020808252601b908201527f546f6b616d616b5374616b65723a207a65726f20616464726573730000000000604082015260600190565b6020808252601a908201527f546f6b616d616b5374616b65723a756e6973776170207a65726f000000000000604082015260600190565b602080825260129082015271546f6b616d616b5374616b65723a6c61636b60701b604082015260600190565b60208082526021908201527f546f6b616d616b5374616b65723a746f6b616d616b4c6179657232207a65726f6040820152600160fd1b606082015260800190565b6020808252818101527f546f6b616d616b5374616b65723a207377617050726f7879206973207a65726f604082015260600190565b602080825260189082015277151bdad85b585ad4dd185ad95c8e9c195c9a5bd908195b9960421b604082015260600190565b60208082526029908201527f546f6b616d616b5374616b65723a706572696f64287769746864726177616c44604082015268195b185e4a48195b9960ba1b606082015260800190565b60208082526038908201527f546f6b616d616b5374616b65723a2073776170544f4e746f57544f4e20746f6e6040820152770818985b185b98d9481a5cc81a5b9cdd59999a58da595b9d60421b606082015260800190565b60208082526039908201527f546f6b616d616b5374616b65723a2073776170544f4e746f57544f4e2077746f6040820152781b8818985b185b98d9481a5cc81a5b9cdd59999a58da595b9d603a1b606082015260800190565b602080825260149082015273151bdad85b585ad4dd185ad95c8e9313d0d2d15160621b604082015260600190565b60208082526021908201527f546f6b616d616b5374616b65723a617070726f7665416e6443616c6c206661696040820152601b60fa1b606082015260800190565b60208082526033908201527f546f6b616d616b5374616b65723a65786368616e676557544f4e746f544f5320604082015272185c1c1c9bdd99505b9910d85b1b0819985a5b606a1b606082015260800190565b6020808252601a908201527f546f6b616d616b5374616b65723a696e73756666696369656e74000000000000604082015260600190565b6020808252601d908201527f546f6b616d616b5374616b65723a646966666572656e74206c61796572000000604082015260600190565b6020808252818101527f546f6b616d616b5374616b65723a2077746f6e20696e73756666696369656e74604082015260600190565b6020808252602f908201527f546f6b616d616b5374616b65723a73776170544f4e746f57544f4e206170707260408201526e1bdd99505b9910d85b1b0819985a5b608a1b606082015260800190565b6020808252602a908201527f546f6b616d616b5374616b65723a20746f6e2062616c616e636520697320696e6040820152691cdd59999a58da595b9d60b21b606082015260800190565b60208082526026908201527f546f6b616d616b5374616b65723a416c72656164792050726f63657373556e5360408201526574616b696e6760d01b606082015260800190565b6020808252601c908201527f546f6b616d616b5374616b65723a73776170546f544f4e206661696c00000000604082015260600190565b6020808252601a908201527f546f6b616d616b5374616b65723a746f6b616d616b207a65726f000000000000604082015260600190565b60208082526021908201527f546f6b616d616b5374616b65723a7374616b65416d6f756e74206973207a65726040820152606f60f81b606082015260800190565b60208082526021908201527f546f6b616d616b5374616b65723a206e6f7420617661696c61626c65206b696e6040820152601960fa1b606082015260800190565b602080825260199082015278151bdad85b585ad4dd185ad95c8e881c195c9a5bd908195b99603a1b604082015260600190565b602080825260199082015278151bdad85b585ad4dd185ad95c8e881b9bdd0818db1bdcd959603a1b604082015260600190565b60208082526029908201527f546f6b616d616b5374616b65723a63616e277420617070726f766520756e69736040820152683bb0b82937baba32b960b91b606082015260800190565b600060208252825160a0602084015261388060c0840182613044565b905060018060a01b0360208501511660408401526040840151606084015260608401516080840152608084015160a08401528091505092915050565b81516001600160a01b03908116825260208084015182169083015260408084015162ffffff16908301526060808401518216908301526080808401519083015260a0838101519083015260c0808401519083015260e09283015116918101919091526101000190565b968752602087019590955260408601939093526060850191909152608084015260a0830152151560c082015260e00190565b6001600160a01b0381168114610c2657600080fd5b8015158114610c2657600080fdfe456e756d657261626c655365743a20696e646578206f7574206f6620626f756e6473416363657373436f6e74726f6c3a2073656e646572206d75737420626520616e2061646d696e20746f206772616e7441636365737369626c653a2043616c6c6572206973206e6f7420616e2061646d696e416363657373436f6e74726f6c3a2073656e646572206d75737420626520616e2061646d696e20746f207265766f6b65536166654d6174683a206d756c7469706c69636174696f6e206f766572666c6f77df8b4c520ffe197c5343c6f5aec59570151ef9a492f2c624fd45ddde6135ec42416363657373436f6e74726f6c3a2063616e206f6e6c792072656e6f756e636520726f6c657320666f722073656c66a26469706673582212206516d77ac31ef00f1660b7dc900124d871c20cdd05fac5b8ae3824d5b980bdcd64736f6c63430007060033",
  "linkReferences": {},
  "deployedLinkReferences": {}
}