{
  "_format": "hh-sol-artifact-1",
  "contractName": "LockTOSv2Logic1",
  "sourceName": "contracts/stake/LockTOSv2Logic1.sol",
  "abi": [
    {
      "anonymous": false,
      "inputs": [
        {
          "indexed": true,
          "internalType": "bytes32",
          "name": "role",
          "type": "bytes32"
        },
        {
          "indexed": true,
          "internalType": "bytes32",
          "name": "previousAdminRole",
          "type": "bytes32"
        },
        {
          "indexed": true,
          "internalType": "bytes32",
          "name": "newAdminRole",
          "type": "bytes32"
        }
      ],
      "name": "RoleAdminChanged",
      "type": "event"
    },
    {
      "anonymous": false,
      "inputs": [
        {
          "indexed": true,
          "internalType": "bytes32",
          "name": "role",
          "type": "bytes32"
        },
        {
          "indexed": true,
          "internalType": "address",
          "name": "account",
          "type": "address"
        },
        {
          "indexed": true,
          "internalType": "address",
          "name": "sender",
          "type": "address"
        }
      ],
      "name": "RoleGranted",
      "type": "event"
    },
    {
      "anonymous": false,
      "inputs": [
        {
          "indexed": true,
          "internalType": "bytes32",
          "name": "role",
          "type": "bytes32"
        },
        {
          "indexed": true,
          "internalType": "address",
          "name": "account",
          "type": "address"
        },
        {
          "indexed": true,
          "internalType": "address",
          "name": "sender",
          "type": "address"
        }
      ],
      "name": "RoleRevoked",
      "type": "event"
    },
    {
      "inputs": [],
      "name": "ADMIN_ROLE",
      "outputs": [
        {
          "internalType": "bytes32",
          "name": "",
          "type": "bytes32"
        }
      ],
      "stateMutability": "view",
      "type": "function"
    },
    {
      "inputs": [],
      "name": "BURNER_ROLE",
      "outputs": [
        {
          "internalType": "bytes32",
          "name": "",
          "type": "bytes32"
        }
      ],
      "stateMutability": "view",
      "type": "function"
    },
    {
      "inputs": [],
      "name": "DEFAULT_ADMIN_ROLE",
      "outputs": [
        {
          "internalType": "bytes32",
          "name": "",
          "type": "bytes32"
        }
      ],
      "stateMutability": "view",
      "type": "function"
    },
    {
      "inputs": [],
      "name": "MINTER_ROLE",
      "outputs": [
        {
          "internalType": "bytes32",
          "name": "",
          "type": "bytes32"
        }
      ],
      "stateMutability": "view",
      "type": "function"
    },
    {
      "inputs": [],
      "name": "MULTIPLIER",
      "outputs": [
        {
          "internalType": "uint256",
          "name": "",
          "type": "uint256"
        }
      ],
      "stateMutability": "view",
      "type": "function"
    },
    {
      "inputs": [],
      "name": "PROJECT_ADMIN_ROLE",
      "outputs": [
        {
          "internalType": "bytes32",
          "name": "",
          "type": "bytes32"
        }
      ],
      "stateMutability": "view",
      "type": "function"
    },
    {
      "inputs": [
        {
          "internalType": "address",
          "name": "account",
          "type": "address"
        }
      ],
      "name": "addAdmin",
      "outputs": [],
      "stateMutability": "nonpayable",
      "type": "function"
    },
    {
      "inputs": [
        {
          "internalType": "address",
          "name": "",
          "type": "address"
        }
      ],
      "name": "aliveImplementation",
      "outputs": [
        {
          "internalType": "bool",
          "name": "",
          "type": "bool"
        }
      ],
      "stateMutability": "view",
      "type": "function"
    },
    {
      "inputs": [
        {
          "internalType": "uint256",
          "name": "",
          "type": "uint256"
        }
      ],
      "name": "allLocks",
      "outputs": [
        {
          "internalType": "uint256",
          "name": "start",
          "type": "uint256"
        },
        {
          "internalType": "uint256",
          "name": "end",
          "type": "uint256"
        },
        {
          "internalType": "uint256",
          "name": "amount",
          "type": "uint256"
        },
        {
          "internalType": "bool",
          "name": "withdrawn",
          "type": "bool"
        }
      ],
      "stateMutability": "view",
      "type": "function"
    },
    {
      "inputs": [],
      "name": "cumulativeEpochUnit",
      "outputs": [
        {
          "internalType": "uint256",
          "name": "",
          "type": "uint256"
        }
      ],
      "stateMutability": "view",
      "type": "function"
    },
    {
      "inputs": [],
      "name": "cumulativeTOSAmount",
      "outputs": [
        {
          "internalType": "uint256",
          "name": "",
          "type": "uint256"
        }
      ],
      "stateMutability": "view",
      "type": "function"
    },
    {
      "inputs": [],
      "name": "epochUnit",
      "outputs": [
        {
          "internalType": "uint256",
          "name": "",
          "type": "uint256"
        }
      ],
      "stateMutability": "view",
      "type": "function"
    },
    {
      "inputs": [
        {
          "internalType": "bytes32",
          "name": "role",
          "type": "bytes32"
        }
      ],
      "name": "getRoleAdmin",
      "outputs": [
        {
          "internalType": "bytes32",
          "name": "",
          "type": "bytes32"
        }
      ],
      "stateMutability": "view",
      "type": "function"
    },
    {
      "inputs": [
        {
          "internalType": "bytes32",
          "name": "role",
          "type": "bytes32"
        },
        {
          "internalType": "uint256",
          "name": "index",
          "type": "uint256"
        }
      ],
      "name": "getRoleMember",
      "outputs": [
        {
          "internalType": "address",
          "name": "",
          "type": "address"
        }
      ],
      "stateMutability": "view",
      "type": "function"
    },
    {
      "inputs": [
        {
          "internalType": "bytes32",
          "name": "role",
          "type": "bytes32"
        }
      ],
      "name": "getRoleMemberCount",
      "outputs": [
        {
          "internalType": "uint256",
          "name": "",
          "type": "uint256"
        }
      ],
      "stateMutability": "view",
      "type": "function"
    },
    {
      "inputs": [
        {
          "internalType": "uint256",
          "name": "count",
          "type": "uint256"
        }
      ],
      "name": "globalCheckpoint",
      "outputs": [],
      "stateMutability": "nonpayable",
      "type": "function"
    },
    {
      "inputs": [
        {
          "internalType": "bytes32",
          "name": "role",
          "type": "bytes32"
        },
        {
          "internalType": "address",
          "name": "account",
          "type": "address"
        }
      ],
      "name": "grantRole",
      "outputs": [],
      "stateMutability": "nonpayable",
      "type": "function"
    },
    {
      "inputs": [
        {
          "internalType": "bytes32",
          "name": "role",
          "type": "bytes32"
        },
        {
          "internalType": "address",
          "name": "account",
          "type": "address"
        }
      ],
      "name": "hasRole",
      "outputs": [
        {
          "internalType": "bool",
          "name": "",
          "type": "bool"
        }
      ],
      "stateMutability": "view",
      "type": "function"
    },
    {
      "inputs": [
        {
          "internalType": "uint256",
          "name": "",
          "type": "uint256"
        }
      ],
      "name": "inUse",
      "outputs": [
        {
          "internalType": "bool",
          "name": "",
          "type": "bool"
        }
      ],
      "stateMutability": "view",
      "type": "function"
    },
    {
      "inputs": [
        {
          "internalType": "address",
          "name": "account",
          "type": "address"
        }
      ],
      "name": "isAdmin",
      "outputs": [
        {
          "internalType": "bool",
          "name": "",
          "type": "bool"
        }
      ],
      "stateMutability": "view",
      "type": "function"
    },
    {
      "inputs": [],
      "name": "lockIdCounter",
      "outputs": [
        {
          "internalType": "uint256",
          "name": "",
          "type": "uint256"
        }
      ],
      "stateMutability": "view",
      "type": "function"
    },
    {
      "inputs": [
        {
          "internalType": "uint256",
          "name": "",
          "type": "uint256"
        },
        {
          "internalType": "uint256",
          "name": "",
          "type": "uint256"
        }
      ],
      "name": "lockPointHistory",
      "outputs": [
        {
          "internalType": "int256",
          "name": "bias",
          "type": "int256"
        },
        {
          "internalType": "int256",
          "name": "slope",
          "type": "int256"
        },
        {
          "internalType": "uint256",
          "name": "timestamp",
          "type": "uint256"
        }
      ],
      "stateMutability": "view",
      "type": "function"
    },
    {
      "inputs": [],
      "name": "lock_",
      "outputs": [
        {
          "internalType": "bool",
          "name": "",
          "type": "bool"
        }
      ],
      "stateMutability": "view",
      "type": "function"
    },
    {
      "inputs": [
        {
          "internalType": "address",
          "name": "",
          "type": "address"
        },
        {
          "internalType": "uint256",
          "name": "",
          "type": "uint256"
        }
      ],
      "name": "lockedBalances",
      "outputs": [
        {
          "internalType": "uint256",
          "name": "start",
          "type": "uint256"
        },
        {
          "internalType": "uint256",
          "name": "end",
          "type": "uint256"
        },
        {
          "internalType": "uint256",
          "name": "amount",
          "type": "uint256"
        },
        {
          "internalType": "bool",
          "name": "withdrawn",
          "type": "bool"
        }
      ],
      "stateMutability": "view",
      "type": "function"
    },
    {
      "inputs": [],
      "name": "maxTime",
      "outputs": [
        {
          "internalType": "uint256",
          "name": "",
          "type": "uint256"
        }
      ],
      "stateMutability": "view",
      "type": "function"
    },
    {
      "inputs": [],
      "name": "migratedL2",
      "outputs": [
        {
          "internalType": "bool",
          "name": "",
          "type": "bool"
        }
      ],
      "stateMutability": "view",
      "type": "function"
    },
    {
      "inputs": [],
      "name": "needCheckpointCount",
      "outputs": [
        {
          "internalType": "uint256",
          "name": "needCount",
          "type": "uint256"
        }
      ],
      "stateMutability": "view",
      "type": "function"
    },
    {
      "inputs": [],
      "name": "pauseProxy",
      "outputs": [
        {
          "internalType": "bool",
          "name": "",
          "type": "bool"
        }
      ],
      "stateMutability": "view",
      "type": "function"
    },
    {
      "inputs": [
        {
          "internalType": "uint256",
          "name": "",
          "type": "uint256"
        }
      ],
      "name": "pointHistory",
      "outputs": [
        {
          "internalType": "int256",
          "name": "bias",
          "type": "int256"
        },
        {
          "internalType": "int256",
          "name": "slope",
          "type": "int256"
        },
        {
          "internalType": "uint256",
          "name": "timestamp",
          "type": "uint256"
        }
      ],
      "stateMutability": "view",
      "type": "function"
    },
    {
      "inputs": [
        {
          "internalType": "uint256",
          "name": "",
          "type": "uint256"
        }
      ],
      "name": "proxyImplementation",
      "outputs": [
        {
          "internalType": "address",
          "name": "",
          "type": "address"
        }
      ],
      "stateMutability": "view",
      "type": "function"
    },
    {
      "inputs": [
        {
          "internalType": "address",
          "name": "account",
          "type": "address"
        }
      ],
      "name": "removeAdmin",
      "outputs": [],
      "stateMutability": "nonpayable",
      "type": "function"
    },
    {
      "inputs": [
        {
          "internalType": "bytes32",
          "name": "role",
          "type": "bytes32"
        },
        {
          "internalType": "address",
          "name": "account",
          "type": "address"
        }
      ],
      "name": "renounceRole",
      "outputs": [],
      "stateMutability": "nonpayable",
      "type": "function"
    },
    {
      "inputs": [
        {
          "internalType": "bytes32",
          "name": "role",
          "type": "bytes32"
        },
        {
          "internalType": "address",
          "name": "account",
          "type": "address"
        }
      ],
      "name": "revokeRole",
      "outputs": [],
      "stateMutability": "nonpayable",
      "type": "function"
    },
    {
      "inputs": [
        {
          "internalType": "bytes4",
          "name": "",
          "type": "bytes4"
        }
      ],
      "name": "selectorImplementation",
      "outputs": [
        {
          "internalType": "address",
          "name": "",
          "type": "address"
        }
      ],
      "stateMutability": "view",
      "type": "function"
    },
    {
      "inputs": [
        {
          "internalType": "uint256",
          "name": "",
          "type": "uint256"
        }
      ],
      "name": "slopeChanges",
      "outputs": [
        {
          "internalType": "int256",
          "name": "",
          "type": "int256"
        }
      ],
      "stateMutability": "view",
      "type": "function"
    },
    {
      "inputs": [],
      "name": "stakeRegistry",
      "outputs": [
        {
          "internalType": "address",
          "name": "",
          "type": "address"
        }
      ],
      "stateMutability": "view",
      "type": "function"
    },
    {
      "inputs": [],
      "name": "staker",
      "outputs": [
        {
          "internalType": "address",
          "name": "",
          "type": "address"
        }
      ],
      "stateMutability": "view",
      "type": "function"
    },
    {
      "inputs": [],
      "name": "tos",
      "outputs": [
        {
          "internalType": "address",
          "name": "",
          "type": "address"
        }
      ],
      "stateMutability": "view",
      "type": "function"
    },
    {
      "inputs": [
        {
          "internalType": "address",
          "name": "newAdmin",
          "type": "address"
        }
      ],
      "name": "transferAdmin",
      "outputs": [],
      "stateMutability": "nonpayable",
      "type": "function"
    },
    {
      "inputs": [
        {
          "internalType": "uint256",
          "name": "",
          "type": "uint256"
        }
      ],
      "name": "uniqueUsers",
      "outputs": [
        {
          "internalType": "address",
          "name": "",
          "type": "address"
        }
      ],
      "stateMutability": "view",
      "type": "function"
    },
    {
      "inputs": [
        {
          "internalType": "address",
          "name": "",
          "type": "address"
        },
        {
          "internalType": "uint256",
          "name": "",
          "type": "uint256"
        }
      ],
      "name": "userLocks",
      "outputs": [
        {
          "internalType": "uint256",
          "name": "",
          "type": "uint256"
        }
      ],
      "stateMutability": "view",
      "type": "function"
    }
  ],
  "bytecode": "0x6080604052600160075534801561001557600080fd5b506117a9806100256000396000f3fe608060405234801561001057600080fd5b50600436106102535760003560e01c806389f395de11610146578063b2e9a1b7116100c3578063cd29ca0e11610087578063cd29ca0e1461049d578063d5391393146104a5578063d547741f146104ad578063ed50c699146104c0578063f52a36f7146104d3578063fd2dcecf146104e657610253565b8063b2e9a1b714610454578063b534ad561461045c578063b911135f14610464578063c79acdda14610477578063ca15c8731461048a57610253565b8063a1f5f50e1161010a578063a1f5f50e14610416578063a217fddf1461041e578063aa33fedb14610426578063ab2f591714610439578063afae883e1461044c57610253565b806389f395de146103cd5780638ad4c447146103d55780638ea0b211146103e85780639010d07c146103f057806391d148541461040357610253565b806350d2a276116101d457806363d5a3d91161019857806363d5a3d9146103845780636830483514610397578063704802751461039f57806375829def146103b257806375b238fc146103c557610253565b806350d2a2761461031e578063550d01a31461033e5780635d16a6f9146103515780635ebaf1db1461037457806363a8fd891461037c57610253565b8063282c51f31161021b578063282c51f3146102c65780632f2ff15d146102ce57806336568abe146102e1578063367b7b23146102f457806341c04d5e1461031657610253565b8063059f8b16146102585780631785f53c1461027657806322e67e711461028b578063248a9ca31461029357806324d7806c146102a6575b600080fd5b6102606104ee565b60405161026d9190611590565b60405180910390f35b6102896102843660046114a2565b6104fa565b005b610260610559565b6102606102a13660046114e5565b61055f565b6102b96102b43660046114a2565b610577565b60405161026d9190611585565b610260610597565b6102896102dc3660046114fd565b6105bb565b6102896102ef3660046114fd565b610622565b610307610302366004611528565b610683565b60405161026d93929190611599565b6102606106c5565b61033161032c366004611549565b6106e9565b60405161026d9190611571565b6102b961034c3660046114a2565b610704565b61036461035f3660046114bc565b610719565b60405161026d94939291906115af565b61033161074e565b6102b9610762565b6103646103923660046114e5565b61076b565b610331610795565b6102896103ad3660046114a2565b6107a9565b6102896103c03660046114a2565b610805565b610260610926565b610331610938565b6103076103e33660046114e5565b610947565b61026061097a565b6103316103fe366004611528565b6109de565b6102b96104113660046114fd565b6109fd565b6102b9610a15565b610260610a25565b6102606104343660046114bc565b610a2a565b6102896104473660046114e5565b610a5b565b610260610a64565b6102b9610a6a565b610260610a73565b6103316104723660046114e5565b610a79565b6102b96104853660046114e5565b610a94565b6102606104983660046114e5565b610aa9565b610260610ac0565b610260610ac6565b6102896104bb3660046114fd565b610aea565b6103316104ce3660046114e5565b610b43565b6102606104e13660046114e5565b610b6d565b610260610b7f565b670de0b6b3a764000081565b61050333610577565b61053e5760405162461bcd60e51b815260040180806020018281038252602281526020018061161e6022913960400191505060405180910390fd5b6105566000805160206116b283398151915282610622565b50565b60025481565b6000818152601060205260409020600201545b919050565b60006105916000805160206116b2833981519152836109fd565b92915050565b7f9667e80708b6eeeb0053fa0cca44e028ff548e2a9f029edfeac87c118b08b7c881565b6000828152601060205260409020600201546105d990610411610b85565b6106145760405162461bcd60e51b815260040180806020018281038252602f8152602001806115ef602f913960400191505060405180910390fd5b61061e8282610b89565b5050565b61062a610b85565b6001600160a01b0316816001600160a01b0316146106795760405162461bcd60e51b815260040180806020018281038252602f815260200180611745602f913960400191505060405180910390fd5b61061e8282610bf2565b600a602052816000526040600020818154811061069f57600080fd5b600091825260209091206003909102018054600182015460029092015490935090915083565b7f52eafc11f6f81f86878bffd31109a0d92f37506527754f00788853ff9f63b13081565b6013602052600090815260409020546001600160a01b031681565b60126020526000908152604090205460ff1681565b600b60209081526000928352604080842090915290825290208054600182015460028301546003909301549192909160ff1684565b60145461010090046001600160a01b031681565b60005460ff1681565b600c6020526000908152604090208054600182015460028301546003909301549192909160ff1684565b60005461010090046001600160a01b031681565b6107b233610577565b6107ed5760405162461bcd60e51b815260040180806020018281038252602281526020018061161e6022913960400191505060405180910390fd5b6105566000805160206116b2833981519152826105bb565b61080e33610577565b6108495760405162461bcd60e51b815260040180806020018281038252602281526020018061161e6022913960400191505060405180910390fd5b6001600160a01b03811661089f576040805162461bcd60e51b815260206004820152601860248201527741636365737369626c653a207a65726f206164647265737360401b604482015290519081900360640190fd5b336001600160a01b03821614156108f6576040805162461bcd60e51b815260206004820152601660248201527520b1b1b2b9b9b4b136329d1039b0b6b29030b236b4b760511b604482015290519081900360640190fd5b61090e6000805160206116b2833981519152826105bb565b6105566000805160206116b283398151915233610622565b6000805160206116b283398151915281565b6003546001600160a01b031681565b6009818154811061095757600080fd5b600091825260209091206003909102018054600182015460029092015490925083565b60095460009080156109da57600154600980546109cd9183916109c791839160001981019081106109a757fe5b906000526020600020906003020160020154610c5b90919063ffffffff16565b90610c9d565b4203816109d657fe5b0491505b5090565b60008281526010602052604081206109f69083610cf6565b9392505050565b60008281526010602052604081206109f69083610d02565b600054600160a81b900460ff1681565b600081565b600d6020528160005260406000208181548110610a4657600080fd5b90600052602060002001600091509150505481565b61061e81610d17565b60045481565b60145460ff1681565b60055481565b6011602052600090815260409020546001600160a01b031681565b600f6020526000908152604090205460ff1681565b600081815260106020526040812061059190610f40565b60065481565b7ff0887ba65ee2024ea881d91b74c2450ef19e1557f03bed3ea9f16b037cbe2dc981565b600082815260106020526040902060020154610b0890610411610b85565b6106795760405162461bcd60e51b81526004018080602001828103825260308152602001806116616030913960400191505060405180910390fd5b60088181548110610b5357600080fd5b6000918252602090912001546001600160a01b0316905081565b600e6020526000908152604090205481565b60015481565b3390565b6000828152601060205260409020610ba19082610f4b565b1561061e57610bae610b85565b6001600160a01b0316816001600160a01b0316837f2f8788117e7eff1d82e926ec794901d17c78024a50270940304540a733656f0d60405160405180910390a45050565b6000828152601060205260409020610c0a9082610f60565b1561061e57610c17610b85565b6001600160a01b0316816001600160a01b0316837ff6391f5c32d9c69d2a47ea670b442974b53935d1edc7fd64eb21e047a839171b60405160405180910390a45050565b60006109f683836040518060400160405280601a81526020017f536166654d6174683a206469766973696f6e206279207a65726f000000000000815250610f75565b600082610cac57506000610591565b82820282848281610cb957fe5b04146109f65760405162461bcd60e51b81526004018080602001828103825260218152602001806116916021913960400191505060405180910390fd5b60006109f68383611017565b60006109f6836001600160a01b03841661107b565b610d1f61146a565b600954429015610d7957600980546000198101908110610d3b57fe5b906000526020600020906003020160405180606001604052908160008201548152602001600182015481526020016002820154815250509150610d99565b604051806060016040528060008152602001600081526020018281525091505b600080610dbb6001546109c76001548760400151610c5b90919063ffffffff16565b90505b828114158015610dcd57508482105b15610f3857610df0610dea6001548361109390919063ffffffff16565b846110ed565b6000818152600e6020526040808220549087015192935091610e2890610e2390610e1b908690611103565b6001546110ed565b611145565b9050610e4c610e4482886020015161118990919063ffffffff16565b875190611232565b86526020860151610e5d9083611297565b60208701528551600012610e72576000610e75565b85515b86526020860151600012610e8a576000610e90565b85602001515b6020870190815260408701848152600980546001808201835560009290925289517f6e1540171b6c0c960b71a7020d9f60077f6af931a8bbf590da0223dacf75c7af60039092029182015592517f6e1540171b6c0c960b71a7020d9f60077f6af931a8bbf590da0223dacf75c7b084015590517f6e1540171b6c0c960b71a7020d9f60077f6af931a8bbf590da0223dacf75c7b190920191909155939093019250610dbe9050565b505050919050565b6000610591826112fc565b60006109f6836001600160a01b038416611300565b60006109f6836001600160a01b03841661134a565b600081836110015760405162461bcd60e51b81526004018080602001828103825283818151815260200191508051906020019080838360005b83811015610fc6578181015183820152602001610fae565b50505050905090810190601f168015610ff35780820380516001836020036101000a031916815260200191505b509250505060405180910390fd5b50600083858161100d57fe5b0495945050505050565b815460009082106110595760405162461bcd60e51b81526004018080602001828103825260228152602001806115cd6022913960400191505060405180910390fd5b82600001828154811061106857fe5b9060005260206000200154905092915050565b60009081526001919091016020526040902054151590565b6000828201838110156109f6576040805162461bcd60e51b815260206004820152601b60248201527f536166654d6174683a206164646974696f6e206f766572666c6f770000000000604482015290519081900360640190fd5b60008183106110fc57816109f6565b5090919050565b60006109f683836040518060400160405280601e81526020017f536166654d6174683a207375627472616374696f6e206f766572666c6f770000815250611410565b6000600160ff1b82106109da5760405162461bcd60e51b81526004018080602001828103825260288152602001806116f96028913960400191505060405180910390fd5b60008261119857506000610591565b826000191480156111ac5750600160ff1b82145b156111e85760405162461bcd60e51b81526004018080602001828103825260278152602001806116d26027913960400191505060405180910390fd5b828202828482816111f557fe5b05146109f65760405162461bcd60e51b81526004018080602001828103825260278152602001806116d26027913960400191505060405180910390fd5b60008183038183128015906112475750838113155b8061125c575060008312801561125c57508381135b6109f65760405162461bcd60e51b81526004018080602001828103825260248152602001806117216024913960400191505060405180910390fd5b60008282018183128015906112ac5750838112155b806112c157506000831280156112c157508381125b6109f65760405162461bcd60e51b81526004018080602001828103825260218152602001806116406021913960400191505060405180910390fd5b5490565b600061130c838361107b565b61134257508154600181810184556000848152602080822090930184905584548482528286019093526040902091909155610591565b506000610591565b60008181526001830160205260408120548015611406578354600019808301919081019060009087908390811061137d57fe5b906000526020600020015490508087600001848154811061139a57fe5b6000918252602080832090910192909255828152600189810190925260409020908401905586548790806113ca57fe5b60019003818190600052602060002001600090559055866001016000878152602001908152602001600020600090556001945050505050610591565b6000915050610591565b600081848411156114625760405162461bcd60e51b8152602060048201818152835160248401528351909283926044909101919085019080838360008315610fc6578181015183820152602001610fae565b505050900390565b60405180606001604052806000815260200160008152602001600081525090565b80356001600160a01b038116811461057257600080fd5b6000602082840312156114b3578081fd5b6109f68261148b565b600080604083850312156114ce578081fd5b6114d78361148b565b946020939093013593505050565b6000602082840312156114f6578081fd5b5035919050565b6000806040838503121561150f578182fd5b8235915061151f6020840161148b565b90509250929050565b6000806040838503121561153a578182fd5b50508035926020909101359150565b60006020828403121561155a578081fd5b81356001600160e01b0319811681146109f6578182fd5b6001600160a01b0391909116815260200190565b901515815260200190565b90815260200190565b9283526020830191909152604082015260600190565b93845260208401929092526040830152151560608201526080019056fe456e756d657261626c655365743a20696e646578206f7574206f6620626f756e6473416363657373436f6e74726f6c3a2073656e646572206d75737420626520616e2061646d696e20746f206772616e7441636365737369626c653a2043616c6c6572206973206e6f7420616e2061646d696e5369676e6564536166654d6174683a206164646974696f6e206f766572666c6f77416363657373436f6e74726f6c3a2073656e646572206d75737420626520616e2061646d696e20746f207265766f6b65536166654d6174683a206d756c7469706c69636174696f6e206f766572666c6f77df8b4c520ffe197c5343c6f5aec59570151ef9a492f2c624fd45ddde6135ec425369676e6564536166654d6174683a206d756c7469706c69636174696f6e206f766572666c6f7753616665436173743a2076616c756520646f65736e27742066697420696e20616e20696e743235365369676e6564536166654d6174683a207375627472616374696f6e206f766572666c6f77416363657373436f6e74726f6c3a2063616e206f6e6c792072656e6f756e636520726f6c657320666f722073656c66a2646970667358221220fd95050db7e9375716ffb164e762e4fd89c22f116d16c534348365697559ca2c64736f6c63430007060033",
  "linkReferences": {},
  "deployedLinkReferences": {}
}