{
  "_format": "hh-sol-artifact-1",
  "contractName": "Stake1Proxy",
  "sourceName": "contracts/stake/Stake1Proxy.sol",
  "abi": [
    {
      "inputs": [
        {
          "internalType": "address",
          "name": "_logic",
          "type": "address"
        }
      ],
      "stateMutability": "nonpayable",
      "type": "constructor"
    },
    {
      "anonymous": false,
      "inputs": [
        {
          "indexed": true,
          "internalType": "bytes32",
          "name": "role",
          "type": "bytes32"
        },
        {
          "indexed": true,
          "internalType": "bytes32",
          "name": "previousAdminRole",
          "type": "bytes32"
        },
        {
          "indexed": true,
          "internalType": "bytes32",
          "name": "newAdminRole",
          "type": "bytes32"
        }
      ],
      "name": "RoleAdminChanged",
      "type": "event"
    },
    {
      "anonymous": false,
      "inputs": [
        {
          "indexed": true,
          "internalType": "bytes32",
          "name": "role",
          "type": "bytes32"
        },
        {
          "indexed": true,
          "internalType": "address",
          "name": "account",
          "type": "address"
        },
        {
          "indexed": true,
          "internalType": "address",
          "name": "sender",
          "type": "address"
        }
      ],
      "name": "RoleGranted",
      "type": "event"
    },
    {
      "anonymous": false,
      "inputs": [
        {
          "indexed": true,
          "internalType": "bytes32",
          "name": "role",
          "type": "bytes32"
        },
        {
          "indexed": true,
          "internalType": "address",
          "name": "account",
          "type": "address"
        },
        {
          "indexed": true,
          "internalType": "address",
          "name": "sender",
          "type": "address"
        }
      ],
      "name": "RoleRevoked",
      "type": "event"
    },
    {
      "anonymous": false,
      "inputs": [
        {
          "indexed": true,
          "internalType": "address",
          "name": "implementation",
          "type": "address"
        },
        {
          "indexed": false,
          "internalType": "uint256",
          "name": "_index",
          "type": "uint256"
        }
      ],
      "name": "Upgraded",
      "type": "event"
    },
    {
      "stateMutability": "payable",
      "type": "fallback"
    },
    {
      "inputs": [],
      "name": "ADMIN_ROLE",
      "outputs": [
        {
          "internalType": "bytes32",
          "name": "",
          "type": "bytes32"
        }
      ],
      "stateMutability": "view",
      "type": "function"
    },
    {
      "inputs": [],
      "name": "BURNER_ROLE",
      "outputs": [
        {
          "internalType": "bytes32",
          "name": "",
          "type": "bytes32"
        }
      ],
      "stateMutability": "view",
      "type": "function"
    },
    {
      "inputs": [],
      "name": "DEFAULT_ADMIN_ROLE",
      "outputs": [
        {
          "internalType": "bytes32",
          "name": "",
          "type": "bytes32"
        }
      ],
      "stateMutability": "view",
      "type": "function"
    },
    {
      "inputs": [],
      "name": "MINTER_ROLE",
      "outputs": [
        {
          "internalType": "bytes32",
          "name": "",
          "type": "bytes32"
        }
      ],
      "stateMutability": "view",
      "type": "function"
    },
    {
      "inputs": [],
      "name": "PROJECT_ADMIN_ROLE",
      "outputs": [
        {
          "internalType": "bytes32",
          "name": "",
          "type": "bytes32"
        }
      ],
      "stateMutability": "view",
      "type": "function"
    },
    {
      "inputs": [
        {
          "internalType": "address",
          "name": "account",
          "type": "address"
        }
      ],
      "name": "addAdmin",
      "outputs": [],
      "stateMutability": "nonpayable",
      "type": "function"
    },
    {
      "inputs": [
        {
          "internalType": "address",
          "name": "",
          "type": "address"
        }
      ],
      "name": "aliveImplementation",
      "outputs": [
        {
          "internalType": "bool",
          "name": "",
          "type": "bool"
        }
      ],
      "stateMutability": "view",
      "type": "function"
    },
    {
      "inputs": [],
      "name": "depositManager",
      "outputs": [
        {
          "internalType": "address",
          "name": "",
          "type": "address"
        }
      ],
      "stateMutability": "view",
      "type": "function"
    },
    {
      "inputs": [
        {
          "internalType": "bytes32",
          "name": "role",
          "type": "bytes32"
        }
      ],
      "name": "getRoleAdmin",
      "outputs": [
        {
          "internalType": "bytes32",
          "name": "",
          "type": "bytes32"
        }
      ],
      "stateMutability": "view",
      "type": "function"
    },
    {
      "inputs": [
        {
          "internalType": "bytes32",
          "name": "role",
          "type": "bytes32"
        },
        {
          "internalType": "uint256",
          "name": "index",
          "type": "uint256"
        }
      ],
      "name": "getRoleMember",
      "outputs": [
        {
          "internalType": "address",
          "name": "",
          "type": "address"
        }
      ],
      "stateMutability": "view",
      "type": "function"
    },
    {
      "inputs": [
        {
          "internalType": "bytes32",
          "name": "role",
          "type": "bytes32"
        }
      ],
      "name": "getRoleMemberCount",
      "outputs": [
        {
          "internalType": "uint256",
          "name": "",
          "type": "uint256"
        }
      ],
      "stateMutability": "view",
      "type": "function"
    },
    {
      "inputs": [
        {
          "internalType": "bytes4",
          "name": "_selector",
          "type": "bytes4"
        }
      ],
      "name": "getSelectorImplementation",
      "outputs": [
        {
          "internalType": "address",
          "name": "impl",
          "type": "address"
        }
      ],
      "stateMutability": "view",
      "type": "function"
    },
    {
      "inputs": [
        {
          "internalType": "bytes32",
          "name": "role",
          "type": "bytes32"
        },
        {
          "internalType": "address",
          "name": "account",
          "type": "address"
        }
      ],
      "name": "grantRole",
      "outputs": [],
      "stateMutability": "nonpayable",
      "type": "function"
    },
    {
      "inputs": [
        {
          "internalType": "bytes32",
          "name": "role",
          "type": "bytes32"
        },
        {
          "internalType": "address",
          "name": "account",
          "type": "address"
        }
      ],
      "name": "hasRole",
      "outputs": [
        {
          "internalType": "bool",
          "name": "",
          "type": "bool"
        }
      ],
      "stateMutability": "view",
      "type": "function"
    },
    {
      "inputs": [
        {
          "internalType": "uint256",
          "name": "_index",
          "type": "uint256"
        }
      ],
      "name": "implementation",
      "outputs": [
        {
          "internalType": "address",
          "name": "",
          "type": "address"
        }
      ],
      "stateMutability": "view",
      "type": "function"
    },
    {
      "inputs": [
        {
          "internalType": "address",
          "name": "account",
          "type": "address"
        }
      ],
      "name": "isAdmin",
      "outputs": [
        {
          "internalType": "bool",
          "name": "",
          "type": "bool"
        }
      ],
      "stateMutability": "view",
      "type": "function"
    },
    {
      "inputs": [],
      "name": "pauseProxy",
      "outputs": [
        {
          "internalType": "bool",
          "name": "",
          "type": "bool"
        }
      ],
      "stateMutability": "view",
      "type": "function"
    },
    {
      "inputs": [
        {
          "internalType": "uint256",
          "name": "",
          "type": "uint256"
        }
      ],
      "name": "proxyImplementation",
      "outputs": [
        {
          "internalType": "address",
          "name": "",
          "type": "address"
        }
      ],
      "stateMutability": "view",
      "type": "function"
    },
    {
      "inputs": [
        {
          "internalType": "address",
          "name": "account",
          "type": "address"
        }
      ],
      "name": "removeAdmin",
      "outputs": [],
      "stateMutability": "nonpayable",
      "type": "function"
    },
    {
      "inputs": [
        {
          "internalType": "bytes32",
          "name": "role",
          "type": "bytes32"
        },
        {
          "internalType": "address",
          "name": "account",
          "type": "address"
        }
      ],
      "name": "renounceRole",
      "outputs": [],
      "stateMutability": "nonpayable",
      "type": "function"
    },
    {
      "inputs": [
        {
          "internalType": "bytes32",
          "name": "role",
          "type": "bytes32"
        },
        {
          "internalType": "address",
          "name": "account",
          "type": "address"
        }
      ],
      "name": "revokeRole",
      "outputs": [],
      "stateMutability": "nonpayable",
      "type": "function"
    },
    {
      "inputs": [],
      "name": "seigManager",
      "outputs": [
        {
          "internalType": "address",
          "name": "",
          "type": "address"
        }
      ],
      "stateMutability": "view",
      "type": "function"
    },
    {
      "inputs": [
        {
          "internalType": "bytes4",
          "name": "",
          "type": "bytes4"
        }
      ],
      "name": "selectorImplementation",
      "outputs": [
        {
          "internalType": "address",
          "name": "",
          "type": "address"
        }
      ],
      "stateMutability": "view",
      "type": "function"
    },
    {
      "inputs": [
        {
          "internalType": "address",
          "name": "newImplementation",
          "type": "address"
        },
        {
          "internalType": "bool",
          "name": "_alive",
          "type": "bool"
        }
      ],
      "name": "setAliveImplementation",
      "outputs": [],
      "stateMutability": "nonpayable",
      "type": "function"
    },
    {
      "inputs": [
        {
          "internalType": "address",
          "name": "newImplementation",
          "type": "address"
        },
        {
          "internalType": "uint256",
          "name": "_index",
          "type": "uint256"
        },
        {
          "internalType": "bool",
          "name": "_alive",
          "type": "bool"
        }
      ],
      "name": "setImplementation",
      "outputs": [],
      "stateMutability": "nonpayable",
      "type": "function"
    },
    {
      "inputs": [
        {
          "internalType": "bool",
          "name": "_pause",
          "type": "bool"
        }
      ],
      "name": "setProxyPause",
      "outputs": [],
      "stateMutability": "nonpayable",
      "type": "function"
    },
    {
      "inputs": [
        {
          "internalType": "bytes4[]",
          "name": "_selectors",
          "type": "bytes4[]"
        },
        {
          "internalType": "address",
          "name": "_imp",
          "type": "address"
        }
      ],
      "name": "setSelectorImplementations",
      "outputs": [],
      "stateMutability": "nonpayable",
      "type": "function"
    },
    {
      "inputs": [],
      "name": "stakeFactory",
      "outputs": [
        {
          "internalType": "contract IStakeFactory",
          "name": "",
          "type": "address"
        }
      ],
      "stateMutability": "view",
      "type": "function"
    },
    {
      "inputs": [],
      "name": "stakeRegistry",
      "outputs": [
        {
          "internalType": "contract IStakeRegistry",
          "name": "",
          "type": "address"
        }
      ],
      "stateMutability": "view",
      "type": "function"
    },
    {
      "inputs": [],
      "name": "stakeVaultFactory",
      "outputs": [
        {
          "internalType": "contract IStakeVaultFactory",
          "name": "",
          "type": "address"
        }
      ],
      "stateMutability": "view",
      "type": "function"
    },
    {
      "inputs": [],
      "name": "ton",
      "outputs": [
        {
          "internalType": "address",
          "name": "",
          "type": "address"
        }
      ],
      "stateMutability": "view",
      "type": "function"
    },
    {
      "inputs": [],
      "name": "tos",
      "outputs": [
        {
          "internalType": "address",
          "name": "",
          "type": "address"
        }
      ],
      "stateMutability": "view",
      "type": "function"
    },
    {
      "inputs": [
        {
          "internalType": "address",
          "name": "newAdmin",
          "type": "address"
        }
      ],
      "name": "transferAdmin",
      "outputs": [],
      "stateMutability": "nonpayable",
      "type": "function"
    },
    {
      "inputs": [
        {
          "internalType": "address",
          "name": "impl",
          "type": "address"
        },
        {
          "internalType": "uint256",
          "name": "_index",
          "type": "uint256"
        }
      ],
      "name": "upgradeTo",
      "outputs": [],
      "stateMutability": "nonpayable",
      "type": "function"
    },
    {
      "inputs": [],
      "name": "wton",
      "outputs": [
        {
          "internalType": "address",
          "name": "",
          "type": "address"
        }
      ],
      "stateMutability": "view",
      "type": "function"
    },
    {
      "stateMutability": "payable",
      "type": "receive"
    }
  ],
  "bytecode": "0x60806040523480156200001157600080fd5b5060405162001b4c38038062001b4c833981810160405260208110156200003757600080fd5b50516001600160a01b03811662000095576040805162461bcd60e51b815260206004820152601a60248201527f5374616b653150726f78793a206c6f676963206973207a65726f000000000000604482015290519081900360640190fd5b620000a48160006001620000fc565b620000bf60008051602062001ae6833981519152806200018f565b620000da60008051602062001ae683398151915233620001e1565b620000f560008051602062001ae683398151915230620001e1565b5062000328565b6200011283620001f160201b620012961760201c565b6200014f5760405162461bcd60e51b815260040180806020018281038252604681526020018062001b066046913960600191505060405180910390fd5b80156200017e57600082815260086020526040902080546001600160a01b0319166001600160a01b0385161790555b6200018a8382620001f7565b505050565b6000828152600b6020526040808220600201549051839285917fbd79b86ffe0ab8e8776151514217cd7cacd52c909f66475c3af44e129f0b00ff9190a46000918252600b602052604090912060020155565b620001ed828262000222565b5050565b3b151590565b6001600160a01b03919091166000908152600960205260409020805460ff1916911515919091179055565b6000828152600b60209081526040909120620002499183906200129c6200029d821b17901c565b15620001ed5762000259620002bd565b6001600160a01b0316816001600160a01b0316837f2f8788117e7eff1d82e926ec794901d17c78024a50270940304540a733656f0d60405160405180910390a45050565b6000620002b4836001600160a01b038416620002c1565b90505b92915050565b3390565b6000620002cf838362000310565b6200030757508154600181810184556000848152602080822090930184905584548482528286019093526040902091909155620002b7565b506000620002b7565b60009081526001919091016020526040902054151590565b6117ae80620003386000396000f3fe6080604052600436106101c85760003560e01c806375829def116100f8578063ac9a0b2611610090578063ac9a0b2614610667578063b390227b14610691578063b911135f146106cc578063ca15c873146106f6578063cc48b94714610720578063d539139314610735578063d547741f1461074a578063dd196f1814610783578063f6b2b33414610798576101d7565b806375829def1461050a57806375b238fc1461053d5780637cb00d251461055257806389f395de1461057e5780638d62d949146105935780639010d07c146105a857806391d14854146105d857806398f7c12f14610611578063a217fddf14610652576101d7565b806350d2a2761161016b57806350d2a276146103b7578063550d01a3146104075780635d2df7c01461043a57806363a8fd891461046e57806368304835146104835780636af8da27146104985780636c7ac9d8146104ad5780636fb7f558146104c257806370480275146104d7576101d7565b80630d3c8a7e146101df5780631785f53c14610265578063248a9ca31461029857806324d7806c146102d4578063282c51f31461031b5780632f2ff15d1461033057806336568abe1461036957806341c04d5e146103a2576101d7565b366101d7576101d56107d1565b005b6101d56107d1565b3480156101eb57600080fd5b506101d56004803603604081101561020257600080fd5b81019060208101813564010000000081111561021d57600080fd5b82018360208201111561022f57600080fd5b8035906020019184602083028401116401000000008311171561025157600080fd5b9193509150356001600160a01b031661087f565b34801561027157600080fd5b506101d56004803603602081101561028857600080fd5b50356001600160a01b0316610a69565b3480156102a457600080fd5b506102c2600480360360208110156102bb57600080fd5b5035610ac8565b60408051918252519081900360200190f35b3480156102e057600080fd5b50610307600480360360208110156102f757600080fd5b50356001600160a01b0316610ae0565b604080519115158252519081900360200190f35b34801561032757600080fd5b506102c2610b00565b34801561033c57600080fd5b506101d56004803603604081101561035357600080fd5b50803590602001356001600160a01b0316610b24565b34801561037557600080fd5b506101d56004803603604081101561038c57600080fd5b50803590602001356001600160a01b0316610b90565b3480156103ae57600080fd5b506102c2610bf1565b3480156103c357600080fd5b506103eb600480360360208110156103da57600080fd5b50356001600160e01b031916610c15565b604080516001600160a01b039092168252519081900360200190f35b34801561041357600080fd5b506103076004803603602081101561042a57600080fd5b50356001600160a01b0316610c30565b34801561044657600080fd5b506103eb6004803603602081101561045d57600080fd5b50356001600160e01b031916610c45565b34801561047a57600080fd5b50610307610d41565b34801561048f57600080fd5b506103eb610d51565b3480156104a457600080fd5b506103eb610d60565b3480156104b957600080fd5b506103eb610d6f565b3480156104ce57600080fd5b506103eb610d7e565b3480156104e357600080fd5b506101d5600480360360208110156104fa57600080fd5b50356001600160a01b0316610d8d565b34801561051657600080fd5b506101d56004803603602081101561052d57600080fd5b50356001600160a01b0316610de9565b34801561054957600080fd5b506102c2610f0a565b34801561055e57600080fd5b506101d56004803603602081101561057557600080fd5b50351515610f1c565b34801561058a57600080fd5b506103eb610f7e565b34801561059f57600080fd5b506103eb610f8d565b3480156105b457600080fd5b506103eb600480360360408110156105cb57600080fd5b5080359060200135610f9c565b3480156105e457600080fd5b50610307600480360360408110156105fb57600080fd5b50803590602001356001600160a01b0316610fbb565b34801561061d57600080fd5b506101d56004803603606081101561063457600080fd5b506001600160a01b0381351690602081013590604001351515610fd3565b34801561065e57600080fd5b506102c2611022565b34801561067357600080fd5b506103eb6004803603602081101561068a57600080fd5b5035611027565b34801561069d57600080fd5b506101d5600480360360408110156106b457600080fd5b506001600160a01b0381351690602001351515611032565b3480156106d857600080fd5b506103eb600480360360208110156106ef57600080fd5b5035611080565b34801561070257600080fd5b506102c26004803603602081101561071957600080fd5b503561109b565b34801561072c57600080fd5b506103eb6110b2565b34801561074157600080fd5b506102c26110c1565b34801561075657600080fd5b506101d56004803603604081101561076d57600080fd5b50803590602001356001600160a01b03166110e5565b34801561078f57600080fd5b506103eb61113e565b3480156107a457600080fd5b506101d5600480360360408110156107bb57600080fd5b506001600160a01b03813516906020013561114d565b60006107e86000356001600160e01b031916610c45565b90506001600160a01b0381161580159061080c5750600754600160a01b900460ff16155b610856576040805162461bcd60e51b8152602060048201526016602482015275696d706c204f522070726f78792069732066616c736560501b604482015290519081900360640190fd5b3660008037600080366000845af43d6000803e808015610875573d6000f35b3d6000fd5b505050565b61088833610ae0565b6108c35760405162461bcd60e51b815260040180806020018281038252602281526020018061166c6022913960400191505060405180910390fd5b816108ff5760405162461bcd60e51b81526004018080602001828103825260268152602001806117246026913960400191505060405180910390fd5b6001600160a01b03811660009081526009602052604090205460ff1661096c576040805162461bcd60e51b815260206004820152601e60248201527f5374616b653150726f78793a205f696d70206973206e6f7420616c6976650000604482015290519081900360640190fd5b60005b82811015610a6357816001600160a01b0316600a600086868581811061099157fe5b602090810292909201356001600160e01b031916835250810191909152604001600020546001600160a01b03161415610a09576040805162461bcd60e51b815260206004820152601560248201527405374616b653150726f78793a2073616d6520696d7605c1b604482015290519081900360640190fd5b81600a6000868685818110610a1a57fe5b602090810292909201356001600160e01b03191683525081019190915260400160002080546001600160a01b0319166001600160a01b039290921691909117905560010161096f565b50505050565b610a7233610ae0565b610aad5760405162461bcd60e51b815260040180806020018281038252602281526020018061166c6022913960400191505060405180910390fd5b610ac56000805160206116be83398151915282610b90565b50565b6000818152600b60205260409020600201545b919050565b6000610afa6000805160206116be83398151915283610fbb565b92915050565b7f9667e80708b6eeeb0053fa0cca44e028ff548e2a9f029edfeac87c118b08b7c881565b6000828152600b6020526040902060020154610b4790610b426112b1565b610fbb565b610b825760405162461bcd60e51b815260040180806020018281038252602f81526020018061163d602f913960400191505060405180910390fd5b610b8c82826112b5565b5050565b610b986112b1565b6001600160a01b0316816001600160a01b031614610be75760405162461bcd60e51b815260040180806020018281038252602f81526020018061174a602f913960400191505060405180910390fd5b610b8c828261131e565b7f52eafc11f6f81f86878bffd31109a0d92f37506527754f00788853ff9f63b13081565b600a602052600090815260409020546001600160a01b031681565b60096020526000908152604090205460ff1681565b6001600160e01b031981166000908152600a60205260408120546001600160a01b0316610ca657506000805260086020527f5eff886ea0ce6ca488a3d6e336d6c0f75f46d19b42c06ce5ee98e42c96d256c7546001600160a01b0316610adb565b6001600160e01b031982166000908152600a60209081526040808320546001600160a01b03168352600990915290205460ff1615610d0757506001600160e01b031981166000908152600a60205260409020546001600160a01b0316610adb565b506000805260086020527f5eff886ea0ce6ca488a3d6e336d6c0f75f46d19b42c06ce5ee98e42c96d256c7546001600160a01b0316610adb565b600754600160a01b900460ff1681565b6000546001600160a01b031681565b6002546001600160a01b031681565b6006546001600160a01b031681565b6007546001600160a01b031681565b610d9633610ae0565b610dd15760405162461bcd60e51b815260040180806020018281038252602281526020018061166c6022913960400191505060405180910390fd5b610ac56000805160206116be83398151915282610b24565b610df233610ae0565b610e2d5760405162461bcd60e51b815260040180806020018281038252602281526020018061166c6022913960400191505060405180910390fd5b6001600160a01b038116610e83576040805162461bcd60e51b815260206004820152601860248201527741636365737369626c653a207a65726f206164647265737360401b604482015290519081900360640190fd5b336001600160a01b0382161415610eda576040805162461bcd60e51b815260206004820152601660248201527520b1b1b2b9b9b4b136329d1039b0b6b29030b236b4b760511b604482015290519081900360640190fd5b610ef26000805160206116be83398151915282610b24565b610ac56000805160206116be83398151915233610b90565b6000805160206116be83398151915281565b610f2533610ae0565b610f605760405162461bcd60e51b815260040180806020018281038252602281526020018061166c6022913960400191505060405180910390fd5b60078054911515600160a01b0260ff60a01b19909216919091179055565b6003546001600160a01b031681565b6005546001600160a01b031681565b6000828152600b60205260408120610fb49083611387565b9392505050565b6000828152600b60205260408120610fb49083611393565b610fdc33610ae0565b6110175760405162461bcd60e51b815260040180806020018281038252602281526020018061166c6022913960400191505060405180910390fd5b61087a8383836113a8565b600081565b6000610afa82611424565b61103b33610ae0565b6110765760405162461bcd60e51b815260040180806020018281038252602281526020018061166c6022913960400191505060405180910390fd5b610b8c828261143f565b6008602052600090815260409020546001600160a01b031681565b6000818152600b60205260408120610afa9061146a565b6004546001600160a01b031681565b7ff0887ba65ee2024ea881d91b74c2450ef19e1557f03bed3ea9f16b037cbe2dc981565b6000828152600b602052604090206002015461110390610b426112b1565b610be75760405162461bcd60e51b815260040180806020018281038252603081526020018061168e6030913960400191505060405180910390fd5b6001546001600160a01b031681565b61115633610ae0565b6111915760405162461bcd60e51b815260040180806020018281038252602281526020018061166c6022913960400191505060405180910390fd5b6001600160a01b0382166111dc576040805162461bcd60e51b815260206004820152600d60248201526c696e707574206973207a65726f60981b604482015290519081900360640190fd5b816001600160a01b03166111ef82611424565b6001600160a01b03161415611234576040805162461bcd60e51b8152602060048083019190915260248201526373616d6560e01b604482015290519081900360640190fd5b61124761124082611424565b6000611032565b611253828260016113a8565b6040805182815290516001600160a01b038416917f5887ab9161c3be2fe962b73e068a9f29082efb6daf2bfcbd3f064bc34d1ef1b7919081900360200190a25050565b3b151590565b6000610fb4836001600160a01b038416611475565b3390565b6000828152600b602052604090206112cd908261129c565b15610b8c576112da6112b1565b6001600160a01b0316816001600160a01b0316837f2f8788117e7eff1d82e926ec794901d17c78024a50270940304540a733656f0d60405160405180910390a45050565b6000828152600b6020526040902061133690826114bf565b15610b8c576113436112b1565b6001600160a01b0316816001600160a01b0316837ff6391f5c32d9c69d2a47ea670b442974b53935d1edc7fd64eb21e047a839171b60405160405180910390a45050565b6000610fb483836114d4565b6000610fb4836001600160a01b038416611538565b6113b183611296565b6113ec5760405162461bcd60e51b81526004018080602001828103825260468152602001806116de6046913960600191505060405180910390fd5b801561141a57600082815260086020526040902080546001600160a01b0319166001600160a01b0385161790555b61087a838261143f565b6000908152600860205260409020546001600160a01b031690565b6001600160a01b03919091166000908152600960205260409020805460ff1916911515919091179055565b6000610afa82611550565b60006114818383611538565b6114b757508154600181810184556000848152602080822090930184905584548482528286019093526040902091909155610afa565b506000610afa565b6000610fb4836001600160a01b038416611554565b815460009082106115165760405162461bcd60e51b815260040180806020018281038252602281526020018061161b6022913960400191505060405180910390fd5b82600001828154811061152557fe5b9060005260206000200154905092915050565b60009081526001919091016020526040902054151590565b5490565b60008181526001830160205260408120548015611610578354600019808301919081019060009087908390811061158757fe5b90600052602060002001549050808760000184815481106115a457fe5b6000918252602080832090910192909255828152600189810190925260409020908401905586548790806115d457fe5b60019003818190600052602060002001600090559055866001016000878152602001908152602001600020600090556001945050505050610afa565b6000915050610afa56fe456e756d657261626c655365743a20696e646578206f7574206f6620626f756e6473416363657373436f6e74726f6c3a2073656e646572206d75737420626520616e2061646d696e20746f206772616e7441636365737369626c653a2043616c6c6572206973206e6f7420616e2061646d696e416363657373436f6e74726f6c3a2073656e646572206d75737420626520616e2061646d696e20746f207265766f6b65df8b4c520ffe197c5343c6f5aec59570151ef9a492f2c624fd45ddde6135ec4250726f7879426173653a2043616e6e6f742073657420612070726f787920696d706c656d656e746174696f6e20746f2061206e6f6e2d636f6e747261637420616464726573735374616b653150726f78793a205f73656c6563746f727327732073697a65206973207a65726f416363657373436f6e74726f6c3a2063616e206f6e6c792072656e6f756e636520726f6c657320666f722073656c66a2646970667358221220c980e5050fe3a5bd3d270e90bac5f38c3df9efb16da0236c1eb4822dd531231164736f6c63430007060033df8b4c520ffe197c5343c6f5aec59570151ef9a492f2c624fd45ddde6135ec4250726f7879426173653a2043616e6e6f742073657420612070726f787920696d706c656d656e746174696f6e20746f2061206e6f6e2d636f6e74726163742061646472657373",
  "linkReferences": {},
  "deployedLinkReferences": {}
}