{
  "_format": "hh-sol-artifact-1",
  "contractName": "LockTOSStorage",
  "sourceName": "contracts/stake/LockTOSStorage.sol",
  "abi": [
    {
      "inputs": [],
      "name": "MULTIPLIER",
      "outputs": [
        {
          "internalType": "uint256",
          "name": "",
          "type": "uint256"
        }
      ],
      "stateMutability": "view",
      "type": "function"
    },
    {
      "inputs": [
        {
          "internalType": "uint256",
          "name": "",
          "type": "uint256"
        }
      ],
      "name": "allLocks",
      "outputs": [
        {
          "internalType": "uint256",
          "name": "start",
          "type": "uint256"
        },
        {
          "internalType": "uint256",
          "name": "end",
          "type": "uint256"
        },
        {
          "internalType": "uint256",
          "name": "amount",
          "type": "uint256"
        },
        {
          "internalType": "bool",
          "name": "withdrawn",
          "type": "bool"
        }
      ],
      "stateMutability": "view",
      "type": "function"
    },
    {
      "inputs": [],
      "name": "cumulativeEpochUnit",
      "outputs": [
        {
          "internalType": "uint256",
          "name": "",
          "type": "uint256"
        }
      ],
      "stateMutability": "view",
      "type": "function"
    },
    {
      "inputs": [],
      "name": "cumulativeTOSAmount",
      "outputs": [
        {
          "internalType": "uint256",
          "name": "",
          "type": "uint256"
        }
      ],
      "stateMutability": "view",
      "type": "function"
    },
    {
      "inputs": [],
      "name": "epochUnit",
      "outputs": [
        {
          "internalType": "uint256",
          "name": "",
          "type": "uint256"
        }
      ],
      "stateMutability": "view",
      "type": "function"
    },
    {
      "inputs": [
        {
          "internalType": "uint256",
          "name": "",
          "type": "uint256"
        }
      ],
      "name": "inUse",
      "outputs": [
        {
          "internalType": "bool",
          "name": "",
          "type": "bool"
        }
      ],
      "stateMutability": "view",
      "type": "function"
    },
    {
      "inputs": [],
      "name": "lockIdCounter",
      "outputs": [
        {
          "internalType": "uint256",
          "name": "",
          "type": "uint256"
        }
      ],
      "stateMutability": "view",
      "type": "function"
    },
    {
      "inputs": [
        {
          "internalType": "uint256",
          "name": "",
          "type": "uint256"
        },
        {
          "internalType": "uint256",
          "name": "",
          "type": "uint256"
        }
      ],
      "name": "lockPointHistory",
      "outputs": [
        {
          "internalType": "int256",
          "name": "bias",
          "type": "int256"
        },
        {
          "internalType": "int256",
          "name": "slope",
          "type": "int256"
        },
        {
          "internalType": "uint256",
          "name": "timestamp",
          "type": "uint256"
        }
      ],
      "stateMutability": "view",
      "type": "function"
    },
    {
      "inputs": [
        {
          "internalType": "address",
          "name": "",
          "type": "address"
        },
        {
          "internalType": "uint256",
          "name": "",
          "type": "uint256"
        }
      ],
      "name": "lockedBalances",
      "outputs": [
        {
          "internalType": "uint256",
          "name": "start",
          "type": "uint256"
        },
        {
          "internalType": "uint256",
          "name": "end",
          "type": "uint256"
        },
        {
          "internalType": "uint256",
          "name": "amount",
          "type": "uint256"
        },
        {
          "internalType": "bool",
          "name": "withdrawn",
          "type": "bool"
        }
      ],
      "stateMutability": "view",
      "type": "function"
    },
    {
      "inputs": [],
      "name": "maxTime",
      "outputs": [
        {
          "internalType": "uint256",
          "name": "",
          "type": "uint256"
        }
      ],
      "stateMutability": "view",
      "type": "function"
    },
    {
      "inputs": [],
      "name": "migratedL2",
      "outputs": [
        {
          "internalType": "bool",
          "name": "",
          "type": "bool"
        }
      ],
      "stateMutability": "view",
      "type": "function"
    },
    {
      "inputs": [],
      "name": "pauseProxy",
      "outputs": [
        {
          "internalType": "bool",
          "name": "",
          "type": "bool"
        }
      ],
      "stateMutability": "view",
      "type": "function"
    },
    {
      "inputs": [
        {
          "internalType": "uint256",
          "name": "",
          "type": "uint256"
        }
      ],
      "name": "pointHistory",
      "outputs": [
        {
          "internalType": "int256",
          "name": "bias",
          "type": "int256"
        },
        {
          "internalType": "int256",
          "name": "slope",
          "type": "int256"
        },
        {
          "internalType": "uint256",
          "name": "timestamp",
          "type": "uint256"
        }
      ],
      "stateMutability": "view",
      "type": "function"
    },
    {
      "inputs": [
        {
          "internalType": "uint256",
          "name": "",
          "type": "uint256"
        }
      ],
      "name": "slopeChanges",
      "outputs": [
        {
          "internalType": "int256",
          "name": "",
          "type": "int256"
        }
      ],
      "stateMutability": "view",
      "type": "function"
    },
    {
      "inputs": [],
      "name": "stakeRegistry",
      "outputs": [
        {
          "internalType": "address",
          "name": "",
          "type": "address"
        }
      ],
      "stateMutability": "view",
      "type": "function"
    },
    {
      "inputs": [],
      "name": "tos",
      "outputs": [
        {
          "internalType": "address",
          "name": "",
          "type": "address"
        }
      ],
      "stateMutability": "view",
      "type": "function"
    },
    {
      "inputs": [
        {
          "internalType": "uint256",
          "name": "",
          "type": "uint256"
        }
      ],
      "name": "uniqueUsers",
      "outputs": [
        {
          "internalType": "address",
          "name": "",
          "type": "address"
        }
      ],
      "stateMutability": "view",
      "type": "function"
    },
    {
      "inputs": [
        {
          "internalType": "address",
          "name": "",
          "type": "address"
        },
        {
          "internalType": "uint256",
          "name": "",
          "type": "uint256"
        }
      ],
      "name": "userLocks",
      "outputs": [
        {
          "internalType": "uint256",
          "name": "",
          "type": "uint256"
        }
      ],
      "stateMutability": "view",
      "type": "function"
    }
  ],
  "bytecode": "0x6080604052600160075534801561001557600080fd5b506104d1806100256000396000f3fe608060405234801561001057600080fd5b50600436106100f65760003560e01c8063a1f5f50e11610092578063a1f5f50e14610234578063aa33fedb1461023c578063afae883e14610268578063b534ad5614610270578063c79acdda14610278578063cd29ca0e14610295578063ed50c6991461029d578063f52a36f7146102ba578063fd2dcecf146102d7576100f6565b8063059f8b16146100fb57806322e67e7114610115578063367b7b231461011d5780635d16a6f91461015e57806363a8fd89146101b257806363d5a3d9146101ce57806368304835146101eb57806389f395de1461020f5780638ad4c44714610217575b600080fd5b6101036102df565b60408051918252519081900360200190f35b6101036102eb565b6101406004803603604081101561013357600080fd5b50803590602001356102f1565b60408051938452602084019290925282820152519081900360600190f35b61018a6004803603604081101561017457600080fd5b506001600160a01b038135169060200135610333565b6040805194855260208501939093528383019190915215156060830152519081900360800190f35b6101ba610368565b604080519115158252519081900360200190f35b61018a600480360360208110156101e457600080fd5b5035610371565b6101f361039b565b604080516001600160a01b039092168252519081900360200190f35b6101f36103af565b6101406004803603602081101561022d57600080fd5b50356103be565b6101ba6103f1565b6101036004803603604081101561025257600080fd5b506001600160a01b038135169060200135610401565b610103610432565b610103610438565b6101ba6004803603602081101561028e57600080fd5b503561043e565b610103610453565b6101f3600480360360208110156102b357600080fd5b5035610459565b610103600480360360208110156102d057600080fd5b5035610483565b610103610495565b670de0b6b3a764000081565b60025481565b600a602052816000526040600020818154811061030d57600080fd5b600091825260209091206003909102018054600182015460029092015490935090915083565b600b60209081526000928352604080842090915290825290208054600182015460028301546003909301549192909160ff1684565b60005460ff1681565b600c6020526000908152604090208054600182015460028301546003909301549192909160ff1684565b60005461010090046001600160a01b031681565b6003546001600160a01b031681565b600981815481106103ce57600080fd5b600091825260209091206003909102018054600182015460029092015490925083565b600054600160a81b900460ff1681565b600d602052816000526040600020818154811061041d57600080fd5b90600052602060002001600091509150505481565b60045481565b60055481565b600f6020526000908152604090205460ff1681565b60065481565b6008818154811061046957600080fd5b6000918252602090912001546001600160a01b0316905081565b600e6020526000908152604090205481565b6001548156fea264697066735822122026c7790f7235c022eb56c7fa922003d4db78070e26cf63e6c1a497e9141fb09964736f6c63430007060033",
  "linkReferences": {},
  "deployedLinkReferences": {}
}