{
  "_format": "hh-sol-artifact-1",
  "contractName": "ERC20SnapshotMock",
  "sourceName": "contracts/sale/mock/ERC20SnapshotMock.sol",
  "abi": [
    {
      "inputs": [
        {
          "internalType": "string",
          "name": "name",
          "type": "string"
        },
        {
          "internalType": "string",
          "name": "symbol",
          "type": "string"
        }
      ],
      "stateMutability": "nonpayable",
      "type": "constructor"
    },
    {
      "anonymous": false,
      "inputs": [
        {
          "indexed": true,
          "internalType": "address",
          "name": "owner",
          "type": "address"
        },
        {
          "indexed": true,
          "internalType": "address",
          "name": "spender",
          "type": "address"
        },
        {
          "indexed": false,
          "internalType": "uint256",
          "name": "value",
          "type": "uint256"
        }
      ],
      "name": "Approval",
      "type": "event"
    },
    {
      "anonymous": false,
      "inputs": [
        {
          "indexed": false,
          "internalType": "uint256",
          "name": "id",
          "type": "uint256"
        }
      ],
      "name": "Snapshot",
      "type": "event"
    },
    {
      "anonymous": false,
      "inputs": [
        {
          "indexed": true,
          "internalType": "address",
          "name": "from",
          "type": "address"
        },
        {
          "indexed": true,
          "internalType": "address",
          "name": "to",
          "type": "address"
        },
        {
          "indexed": false,
          "internalType": "uint256",
          "name": "value",
          "type": "uint256"
        }
      ],
      "name": "Transfer",
      "type": "event"
    },
    {
      "inputs": [],
      "name": "INITIAL_SUPPLY",
      "outputs": [
        {
          "internalType": "uint256",
          "name": "",
          "type": "uint256"
        }
      ],
      "stateMutability": "view",
      "type": "function"
    },
    {
      "inputs": [
        {
          "internalType": "address",
          "name": "owner",
          "type": "address"
        },
        {
          "internalType": "address",
          "name": "spender",
          "type": "address"
        }
      ],
      "name": "allowance",
      "outputs": [
        {
          "internalType": "uint256",
          "name": "",
          "type": "uint256"
        }
      ],
      "stateMutability": "view",
      "type": "function"
    },
    {
      "inputs": [
        {
          "internalType": "address",
          "name": "spender",
          "type": "address"
        },
        {
          "internalType": "uint256",
          "name": "amount",
          "type": "uint256"
        }
      ],
      "name": "approve",
      "outputs": [
        {
          "internalType": "bool",
          "name": "",
          "type": "bool"
        }
      ],
      "stateMutability": "nonpayable",
      "type": "function"
    },
    {
      "inputs": [
        {
          "internalType": "address",
          "name": "account",
          "type": "address"
        }
      ],
      "name": "balanceOf",
      "outputs": [
        {
          "internalType": "uint256",
          "name": "",
          "type": "uint256"
        }
      ],
      "stateMutability": "view",
      "type": "function"
    },
    {
      "inputs": [
        {
          "internalType": "address",
          "name": "account",
          "type": "address"
        },
        {
          "internalType": "uint256",
          "name": "snapshotId",
          "type": "uint256"
        }
      ],
      "name": "balanceOfAt",
      "outputs": [
        {
          "internalType": "uint256",
          "name": "",
          "type": "uint256"
        }
      ],
      "stateMutability": "view",
      "type": "function"
    },
    {
      "inputs": [],
      "name": "decimals",
      "outputs": [
        {
          "internalType": "uint8",
          "name": "",
          "type": "uint8"
        }
      ],
      "stateMutability": "view",
      "type": "function"
    },
    {
      "inputs": [
        {
          "internalType": "address",
          "name": "spender",
          "type": "address"
        },
        {
          "internalType": "uint256",
          "name": "subtractedValue",
          "type": "uint256"
        }
      ],
      "name": "decreaseAllowance",
      "outputs": [
        {
          "internalType": "bool",
          "name": "",
          "type": "bool"
        }
      ],
      "stateMutability": "nonpayable",
      "type": "function"
    },
    {
      "inputs": [
        {
          "internalType": "address",
          "name": "spender",
          "type": "address"
        },
        {
          "internalType": "uint256",
          "name": "addedValue",
          "type": "uint256"
        }
      ],
      "name": "increaseAllowance",
      "outputs": [
        {
          "internalType": "bool",
          "name": "",
          "type": "bool"
        }
      ],
      "stateMutability": "nonpayable",
      "type": "function"
    },
    {
      "inputs": [],
      "name": "name",
      "outputs": [
        {
          "internalType": "string",
          "name": "",
          "type": "string"
        }
      ],
      "stateMutability": "view",
      "type": "function"
    },
    {
      "inputs": [],
      "name": "snapshot",
      "outputs": [
        {
          "internalType": "uint256",
          "name": "",
          "type": "uint256"
        }
      ],
      "stateMutability": "nonpayable",
      "type": "function"
    },
    {
      "inputs": [],
      "name": "symbol",
      "outputs": [
        {
          "internalType": "string",
          "name": "",
          "type": "string"
        }
      ],
      "stateMutability": "view",
      "type": "function"
    },
    {
      "inputs": [],
      "name": "totalSupply",
      "outputs": [
        {
          "internalType": "uint256",
          "name": "",
          "type": "uint256"
        }
      ],
      "stateMutability": "view",
      "type": "function"
    },
    {
      "inputs": [
        {
          "internalType": "uint256",
          "name": "snapshotId",
          "type": "uint256"
        }
      ],
      "name": "totalSupplyAt",
      "outputs": [
        {
          "internalType": "uint256",
          "name": "",
          "type": "uint256"
        }
      ],
      "stateMutability": "view",
      "type": "function"
    },
    {
      "inputs": [
        {
          "internalType": "address",
          "name": "recipient",
          "type": "address"
        },
        {
          "internalType": "uint256",
          "name": "amount",
          "type": "uint256"
        }
      ],
      "name": "transfer",
      "outputs": [
        {
          "internalType": "bool",
          "name": "",
          "type": "bool"
        }
      ],
      "stateMutability": "nonpayable",
      "type": "function"
    },
    {
      "inputs": [
        {
          "internalType": "address",
          "name": "sender",
          "type": "address"
        },
        {
          "internalType": "address",
          "name": "recipient",
          "type": "address"
        },
        {
          "internalType": "uint256",
          "name": "amount",
          "type": "uint256"
        }
      ],
      "name": "transferFrom",
      "outputs": [
        {
          "internalType": "bool",
          "name": "",
          "type": "bool"
        }
      ],
      "stateMutability": "nonpayable",
      "type": "function"
    }
  ],
  "bytecode": "0x60806040523480156200001157600080fd5b506040516200141938038062001419833981810160405260408110156200003757600080fd5b81019080805160405193929190846401000000008211156200005857600080fd5b9083019060208201858111156200006e57600080fd5b82516401000000008111828201881017156200008957600080fd5b82525081516020918201929091019080838360005b83811015620000b85781810151838201526020016200009e565b50505050905090810190601f168015620000e65780820380516001836020036101000a031916815260200191505b50604052602001805160405193929190846401000000008211156200010a57600080fd5b9083019060208201858111156200012057600080fd5b82516401000000008111828201881017156200013b57600080fd5b82525081516020918201929091019080838360005b838110156200016a57818101518382015260200162000150565b50505050905090810190601f168015620001985780820380516001836020036101000a031916815260200191505b50604052505082518391508290620001b890600390602085019062000505565b508051620001ce90600490602084019062000505565b50506005805460ff1916601217905550620001fd620001ec62000205565b69021e19e0c9bab240000062000209565b5050620005b1565b3390565b6001600160a01b03821662000265576040805162461bcd60e51b815260206004820152601f60248201527f45524332303a206d696e7420746f20746865207a65726f206164647265737300604482015290519081900360640190fd5b620002736000838362000318565b6200028f816002546200033560201b620006951790919060201c565b6002556001600160a01b03821660009081526020818152604090912054620002c29183906200069562000335821b17901c565b6001600160a01b0383166000818152602081815260408083209490945583518581529351929391927fddf252ad1be2c89b69c2b068fc378daa952ba7f163c4a11628f55a4df523b3ef9281900390910190a35050565b620003308383836200039760201b620006f61760201c565b505050565b60008282018381101562000390576040805162461bcd60e51b815260206004820152601b60248201527f536166654d6174683a206164646974696f6e206f766572666c6f770000000000604482015290519081900360640190fd5b9392505050565b620003af8383836200033060201b6200074e1760201c565b6001600160a01b038316620003d957620003c98262000404565b620003d362000435565b62000330565b6001600160a01b038216620003f357620003c98362000404565b620003fe8362000404565b62000330825b6001600160a01b038116600090815260066020526040902062000432906200042c8362000447565b62000466565b50565b6200044560076200042c620004c2565b565b6001600160a01b0381166000908152602081905260409020545b919050565b60006200047f6009620004c860201b620007531760201c565b9050806200048d84620004cc565b101562000330578254600180820185556000858152602080822090930193909355938401805494850181558252902090910155565b60025490565b5490565b8054600090620004df5750600062000461565b815482906000198101908110620004f257fe5b9060005260206000200154905062000461565b828054600181600116156101000203166002900490600052602060002090601f0160209004810192826200053d576000855562000588565b82601f106200055857805160ff191683800117855562000588565b8280016001018555821562000588579182015b82811115620005885782518255916020019190600101906200056b565b50620005969291506200059a565b5090565b5b808211156200059657600081556001016200059b565b610e5880620005c16000396000f3fe608060405234801561001057600080fd5b50600436106100d55760003560e01c80634ee2cd7e116100875780634ee2cd7e1461023957806370a082311461026557806395d89b411461028b5780639711715a14610293578063981b24d01461029b578063a457c2d7146102b8578063a9059cbb146102e4578063dd62ed3e14610310576100d5565b806306fdde03146100da578063095ea7b31461015757806318160ddd1461019757806323b872dd146101b15780632ff2e9dc146101e7578063313ce567146101ef578063395093511461020d575b600080fd5b6100e261033e565b6040805160208082528351818301528351919283929083019185019080838360005b8381101561011c578181015183820152602001610104565b50505050905090810190601f1680156101495780820380516001836020036101000a031916815260200191505b509250505060405180910390f35b6101836004803603604081101561016d57600080fd5b506001600160a01b0381351690602001356103d4565b604080519115158252519081900360200190f35b61019f6103f2565b60408051918252519081900360200190f35b610183600480360360608110156101c757600080fd5b506001600160a01b038135811691602081013590911690604001356103f8565b61019f61047f565b6101f761048d565b6040805160ff9092168252519081900360200190f35b6101836004803603604081101561022357600080fd5b506001600160a01b038135169060200135610496565b61019f6004803603604081101561024f57600080fd5b506001600160a01b0381351690602001356104e4565b61019f6004803603602081101561027b57600080fd5b50356001600160a01b031661052d565b6100e261054c565b61019f6105ad565b61019f600480360360208110156102b157600080fd5b50356105be565b610183600480360360408110156102ce57600080fd5b506001600160a01b0381351690602001356105ee565b610183600480360360408110156102fa57600080fd5b506001600160a01b038135169060200135610656565b61019f6004803603604081101561032657600080fd5b506001600160a01b038135811691602001351661066a565b60038054604080516020601f60026000196101006001881615020190951694909404938401819004810282018101909252828152606093909290918301828280156103ca5780601f1061039f576101008083540402835291602001916103ca565b820191906000526020600020905b8154815290600101906020018083116103ad57829003601f168201915b5050505050905090565b60006103e86103e1610757565b848461075b565b5060015b92915050565b60025490565b6000610405848484610847565b61047584610411610757565b61047085604051806060016040528060288152602001610d8d602891396001600160a01b038a1660009081526001602052604081209061044f610757565b6001600160a01b0316815260208101919091526040016000205491906109a2565b61075b565b5060019392505050565b69021e19e0c9bab240000081565b60055460ff1690565b60006103e86104a3610757565b8461047085600160006104b4610757565b6001600160a01b03908116825260208083019390935260409182016000908120918c168152925290205490610695565b6001600160a01b03821660009081526006602052604081208190819061050b908590610a39565b91509150816105225761051d8561052d565b610524565b805b95945050505050565b6001600160a01b0381166000908152602081905260409020545b919050565b60048054604080516020601f60026000196101006001881615020190951694909404938401819004810282018101909252828152606093909290918301828280156103ca5780601f1061039f576101008083540402835291602001916103ca565b6000806105b8610b36565b91505090565b60008060006105ce846007610a39565b91509150816105e4576105df6103f2565b6105e6565b805b949350505050565b60006103e86105fb610757565b8461047085604051806060016040528060258152602001610dfe6025913960016000610625610757565b6001600160a01b03908116825260208083019390935260409182016000908120918d168152925290205491906109a2565b60006103e8610663610757565b8484610847565b6001600160a01b03918216600090815260016020908152604080832093909416825291909152205490565b6000828201838110156106ef576040805162461bcd60e51b815260206004820152601b60248201527f536166654d6174683a206164646974696f6e206f766572666c6f770000000000604482015290519081900360640190fd5b9392505050565b61070183838361074e565b6001600160a01b0383166107255761071882610b8a565b610720610bb7565b61074e565b6001600160a01b03821661073c5761071883610b8a565b61074583610b8a565b61074e82610b8a565b505050565b5490565b3390565b6001600160a01b0383166107a05760405162461bcd60e51b8152600401808060200182810382526024815260200180610dda6024913960400191505060405180910390fd5b6001600160a01b0382166107e55760405162461bcd60e51b8152600401808060200182810382526022815260200180610d456022913960400191505060405180910390fd5b6001600160a01b03808416600081815260016020908152604080832094871680845294825291829020859055815185815291517f8c5be1e5ebec7d5bd14f71427d1e84f3dd0314c0f7b2291e5b200ac8c7c3b9259281900390910190a3505050565b6001600160a01b03831661088c5760405162461bcd60e51b8152600401808060200182810382526025815260200180610db56025913960400191505060405180910390fd5b6001600160a01b0382166108d15760405162461bcd60e51b8152600401808060200182810382526023815260200180610d226023913960400191505060405180910390fd5b6108dc838383610bc6565b61091981604051806060016040528060268152602001610d67602691396001600160a01b03861660009081526020819052604090205491906109a2565b6001600160a01b0380851660009081526020819052604080822093909355908416815220546109489082610695565b6001600160a01b038084166000818152602081815260409182902094909455805185815290519193928716927fddf252ad1be2c89b69c2b068fc378daa952ba7f163c4a11628f55a4df523b3ef92918290030190a3505050565b60008184841115610a315760405162461bcd60e51b81526004018080602001828103825283818151815260200191508051906020019080838360005b838110156109f65781810151838201526020016109de565b50505050905090810190601f168015610a235780820380516001836020036101000a031916815260200191505b509250505060405180910390fd5b505050900390565b60008060008411610a8a576040805162461bcd60e51b815260206004820152601660248201527504552433230536e617073686f743a20696420697320360541b604482015290519081900360640190fd5b610a946009610753565b841115610ae8576040805162461bcd60e51b815260206004820152601d60248201527f4552433230536e617073686f743a206e6f6e6578697374656e74206964000000604482015290519081900360640190fd5b6000610af48486610bd1565b8454909150811415610b0d576000809250925050610b2f565b6001846001018281548110610b1e57fe5b906000526020600020015492509250505b9250929050565b6000610b426009610c72565b6000610b4e6009610753565b6040805182815290519192507f8030e83b04d87bef53480e26263266d6ca66863aa8506aca6f2559d18aa1cb67919081900360200190a1905090565b6001600160a01b0381166000908152600660205260409020610bb490610baf8361052d565b610c7b565b50565b610bc46007610baf6103f2565b565b61074e8383836106f6565b8154600090610be2575060006103ec565b82546000905b80821015610c31576000610bfc8383610cc7565b905084868281548110610c0b57fe5b90600052602060002001541115610c2457809150610c2b565b8060010192505b50610be8565b600082118015610c59575083856001840381548110610c4c57fe5b9060005260206000200154145b15610c6a57506000190190506103ec565b5090506103ec565b80546001019055565b6000610c876009610753565b905080610c9384610cec565b101561074e578254600180820185556000858152602080822090930193909355938401805494850181558252902090910155565b60006002808306600285060181610cda57fe5b04600283046002850401019392505050565b8054600090610cfd57506000610547565b815482906000198101908110610d0f57fe5b9060005260206000200154905061054756fe45524332303a207472616e7366657220746f20746865207a65726f206164647265737345524332303a20617070726f766520746f20746865207a65726f206164647265737345524332303a207472616e7366657220616d6f756e7420657863656564732062616c616e636545524332303a207472616e7366657220616d6f756e74206578636565647320616c6c6f77616e636545524332303a207472616e736665722066726f6d20746865207a65726f206164647265737345524332303a20617070726f76652066726f6d20746865207a65726f206164647265737345524332303a2064656372656173656420616c6c6f77616e63652062656c6f77207a65726fa2646970667358221220527636ce574e45b714bbe2592447094aff8600f7b20cb91824a1a71a096eed4b64736f6c63430007060033",
  "linkReferences": {},
  "deployedLinkReferences": {}
}