{
  "_format": "hh-sol-artifact-1",
  "contractName": "Stake2Logic",
  "sourceName": "contracts/stake/Stake2Logic.sol",
  "abi": [
    {
      "inputs": [],
      "stateMutability": "nonpayable",
      "type": "constructor"
    },
    {
      "anonymous": false,
      "inputs": [
        {
          "indexed": true,
          "internalType": "address",
          "name": "vault",
          "type": "address"
        },
        {
          "indexed": true,
          "internalType": "address",
          "name": "stakeContract",
          "type": "address"
        },
        {
          "indexed": false,
          "internalType": "uint256",
          "name": "phase",
          "type": "uint256"
        }
      ],
      "name": "CreatedStakeContract2",
      "type": "event"
    },
    {
      "anonymous": false,
      "inputs": [
        {
          "indexed": true,
          "internalType": "address",
          "name": "vault",
          "type": "address"
        },
        {
          "indexed": false,
          "internalType": "address",
          "name": "paytoken",
          "type": "address"
        },
        {
          "indexed": false,
          "internalType": "uint256",
          "name": "cap",
          "type": "uint256"
        }
      ],
      "name": "CreatedVault2",
      "type": "event"
    },
    {
      "anonymous": false,
      "inputs": [
        {
          "indexed": true,
          "internalType": "bytes32",
          "name": "role",
          "type": "bytes32"
        },
        {
          "indexed": true,
          "internalType": "bytes32",
          "name": "previousAdminRole",
          "type": "bytes32"
        },
        {
          "indexed": true,
          "internalType": "bytes32",
          "name": "newAdminRole",
          "type": "bytes32"
        }
      ],
      "name": "RoleAdminChanged",
      "type": "event"
    },
    {
      "anonymous": false,
      "inputs": [
        {
          "indexed": true,
          "internalType": "bytes32",
          "name": "role",
          "type": "bytes32"
        },
        {
          "indexed": true,
          "internalType": "address",
          "name": "account",
          "type": "address"
        },
        {
          "indexed": true,
          "internalType": "address",
          "name": "sender",
          "type": "address"
        }
      ],
      "name": "RoleGranted",
      "type": "event"
    },
    {
      "anonymous": false,
      "inputs": [
        {
          "indexed": true,
          "internalType": "bytes32",
          "name": "role",
          "type": "bytes32"
        },
        {
          "indexed": true,
          "internalType": "address",
          "name": "account",
          "type": "address"
        },
        {
          "indexed": true,
          "internalType": "address",
          "name": "sender",
          "type": "address"
        }
      ],
      "name": "RoleRevoked",
      "type": "event"
    },
    {
      "inputs": [],
      "name": "ADMIN_ROLE",
      "outputs": [
        {
          "internalType": "bytes32",
          "name": "",
          "type": "bytes32"
        }
      ],
      "stateMutability": "view",
      "type": "function"
    },
    {
      "inputs": [],
      "name": "BURNER_ROLE",
      "outputs": [
        {
          "internalType": "bytes32",
          "name": "",
          "type": "bytes32"
        }
      ],
      "stateMutability": "view",
      "type": "function"
    },
    {
      "inputs": [],
      "name": "DEFAULT_ADMIN_ROLE",
      "outputs": [
        {
          "internalType": "bytes32",
          "name": "",
          "type": "bytes32"
        }
      ],
      "stateMutability": "view",
      "type": "function"
    },
    {
      "inputs": [],
      "name": "MINTER_ROLE",
      "outputs": [
        {
          "internalType": "bytes32",
          "name": "",
          "type": "bytes32"
        }
      ],
      "stateMutability": "view",
      "type": "function"
    },
    {
      "inputs": [],
      "name": "PROJECT_ADMIN_ROLE",
      "outputs": [
        {
          "internalType": "bytes32",
          "name": "",
          "type": "bytes32"
        }
      ],
      "stateMutability": "view",
      "type": "function"
    },
    {
      "inputs": [
        {
          "internalType": "address",
          "name": "account",
          "type": "address"
        }
      ],
      "name": "addAdmin",
      "outputs": [],
      "stateMutability": "nonpayable",
      "type": "function"
    },
    {
      "inputs": [
        {
          "internalType": "address",
          "name": "",
          "type": "address"
        }
      ],
      "name": "aliveImplementation",
      "outputs": [
        {
          "internalType": "bool",
          "name": "",
          "type": "bool"
        }
      ],
      "stateMutability": "view",
      "type": "function"
    },
    {
      "inputs": [
        {
          "internalType": "uint256",
          "name": "_cap",
          "type": "uint256"
        },
        {
          "internalType": "uint256",
          "name": "_miningPerSecond",
          "type": "uint256"
        },
        {
          "internalType": "address",
          "name": "_NonfungiblePositionManager",
          "type": "address"
        },
        {
          "internalType": "address",
          "name": "_UniswapV3Factory",
          "type": "address"
        },
        {
          "internalType": "address",
          "name": "_token0",
          "type": "address"
        },
        {
          "internalType": "address",
          "name": "_token1",
          "type": "address"
        },
        {
          "internalType": "string",
          "name": "_name",
          "type": "string"
        }
      ],
      "name": "createVault2",
      "outputs": [],
      "stateMutability": "nonpayable",
      "type": "function"
    },
    {
      "inputs": [],
      "name": "depositManager",
      "outputs": [
        {
          "internalType": "address",
          "name": "",
          "type": "address"
        }
      ],
      "stateMutability": "view",
      "type": "function"
    },
    {
      "inputs": [
        {
          "internalType": "bytes32",
          "name": "role",
          "type": "bytes32"
        }
      ],
      "name": "getRoleAdmin",
      "outputs": [
        {
          "internalType": "bytes32",
          "name": "",
          "type": "bytes32"
        }
      ],
      "stateMutability": "view",
      "type": "function"
    },
    {
      "inputs": [
        {
          "internalType": "bytes32",
          "name": "role",
          "type": "bytes32"
        },
        {
          "internalType": "uint256",
          "name": "index",
          "type": "uint256"
        }
      ],
      "name": "getRoleMember",
      "outputs": [
        {
          "internalType": "address",
          "name": "",
          "type": "address"
        }
      ],
      "stateMutability": "view",
      "type": "function"
    },
    {
      "inputs": [
        {
          "internalType": "bytes32",
          "name": "role",
          "type": "bytes32"
        }
      ],
      "name": "getRoleMemberCount",
      "outputs": [
        {
          "internalType": "uint256",
          "name": "",
          "type": "uint256"
        }
      ],
      "stateMutability": "view",
      "type": "function"
    },
    {
      "inputs": [
        {
          "internalType": "bytes32",
          "name": "role",
          "type": "bytes32"
        },
        {
          "internalType": "address",
          "name": "account",
          "type": "address"
        }
      ],
      "name": "grantRole",
      "outputs": [],
      "stateMutability": "nonpayable",
      "type": "function"
    },
    {
      "inputs": [
        {
          "internalType": "bytes32",
          "name": "role",
          "type": "bytes32"
        },
        {
          "internalType": "address",
          "name": "account",
          "type": "address"
        }
      ],
      "name": "hasRole",
      "outputs": [
        {
          "internalType": "bool",
          "name": "",
          "type": "bool"
        }
      ],
      "stateMutability": "view",
      "type": "function"
    },
    {
      "inputs": [
        {
          "internalType": "address",
          "name": "account",
          "type": "address"
        }
      ],
      "name": "isAdmin",
      "outputs": [
        {
          "internalType": "bool",
          "name": "",
          "type": "bool"
        }
      ],
      "stateMutability": "view",
      "type": "function"
    },
    {
      "inputs": [],
      "name": "pauseProxy",
      "outputs": [
        {
          "internalType": "bool",
          "name": "",
          "type": "bool"
        }
      ],
      "stateMutability": "view",
      "type": "function"
    },
    {
      "inputs": [
        {
          "internalType": "uint256",
          "name": "",
          "type": "uint256"
        }
      ],
      "name": "proxyImplementation",
      "outputs": [
        {
          "internalType": "address",
          "name": "",
          "type": "address"
        }
      ],
      "stateMutability": "view",
      "type": "function"
    },
    {
      "inputs": [
        {
          "internalType": "address",
          "name": "account",
          "type": "address"
        }
      ],
      "name": "removeAdmin",
      "outputs": [],
      "stateMutability": "nonpayable",
      "type": "function"
    },
    {
      "inputs": [
        {
          "internalType": "bytes32",
          "name": "role",
          "type": "bytes32"
        },
        {
          "internalType": "address",
          "name": "account",
          "type": "address"
        }
      ],
      "name": "renounceRole",
      "outputs": [],
      "stateMutability": "nonpayable",
      "type": "function"
    },
    {
      "inputs": [
        {
          "internalType": "address",
          "name": "target",
          "type": "address"
        }
      ],
      "name": "resetCoinageTime",
      "outputs": [],
      "stateMutability": "nonpayable",
      "type": "function"
    },
    {
      "inputs": [
        {
          "internalType": "bytes32",
          "name": "role",
          "type": "bytes32"
        },
        {
          "internalType": "address",
          "name": "account",
          "type": "address"
        }
      ],
      "name": "revokeRole",
      "outputs": [],
      "stateMutability": "nonpayable",
      "type": "function"
    },
    {
      "inputs": [],
      "name": "seigManager",
      "outputs": [
        {
          "internalType": "address",
          "name": "",
          "type": "address"
        }
      ],
      "stateMutability": "view",
      "type": "function"
    },
    {
      "inputs": [
        {
          "internalType": "bytes4",
          "name": "",
          "type": "bytes4"
        }
      ],
      "name": "selectorImplementation",
      "outputs": [
        {
          "internalType": "address",
          "name": "",
          "type": "address"
        }
      ],
      "stateMutability": "view",
      "type": "function"
    },
    {
      "inputs": [
        {
          "internalType": "address",
          "name": "vault",
          "type": "address"
        },
        {
          "internalType": "uint256",
          "name": "endTime",
          "type": "uint256"
        }
      ],
      "name": "setEndTimeOfVault2",
      "outputs": [],
      "stateMutability": "nonpayable",
      "type": "function"
    },
    {
      "inputs": [
        {
          "internalType": "address",
          "name": "target",
          "type": "address"
        },
        {
          "internalType": "uint256",
          "name": "miningIntervalSeconds",
          "type": "uint256"
        }
      ],
      "name": "setMiningIntervalSeconds",
      "outputs": [],
      "stateMutability": "nonpayable",
      "type": "function"
    },
    {
      "inputs": [
        {
          "internalType": "address",
          "name": "target",
          "type": "address"
        },
        {
          "internalType": "address[4]",
          "name": "uniswapInfo",
          "type": "address[4]"
        }
      ],
      "name": "setPool",
      "outputs": [],
      "stateMutability": "nonpayable",
      "type": "function"
    },
    {
      "inputs": [
        {
          "internalType": "address",
          "name": "target",
          "type": "address"
        },
        {
          "internalType": "uint256",
          "name": "tokenId",
          "type": "uint256"
        }
      ],
      "name": "setPoolAddressWithTokenId",
      "outputs": [],
      "stateMutability": "nonpayable",
      "type": "function"
    },
    {
      "inputs": [
        {
          "internalType": "address",
          "name": "vault",
          "type": "address"
        },
        {
          "internalType": "uint256",
          "name": "startTime",
          "type": "uint256"
        }
      ],
      "name": "setStartTimeOfVault2",
      "outputs": [],
      "stateMutability": "nonpayable",
      "type": "function"
    },
    {
      "inputs": [
        {
          "internalType": "uint256",
          "name": "_phase",
          "type": "uint256"
        },
        {
          "internalType": "address",
          "name": "_logic",
          "type": "address"
        }
      ],
      "name": "setVaultLogicByPhase",
      "outputs": [],
      "stateMutability": "nonpayable",
      "type": "function"
    },
    {
      "inputs": [],
      "name": "stakeFactory",
      "outputs": [
        {
          "internalType": "contract IStakeFactory",
          "name": "",
          "type": "address"
        }
      ],
      "stateMutability": "view",
      "type": "function"
    },
    {
      "inputs": [],
      "name": "stakeRegistry",
      "outputs": [
        {
          "internalType": "contract IStakeRegistry",
          "name": "",
          "type": "address"
        }
      ],
      "stateMutability": "view",
      "type": "function"
    },
    {
      "inputs": [],
      "name": "stakeVaultFactory",
      "outputs": [
        {
          "internalType": "contract IStakeVaultFactory",
          "name": "",
          "type": "address"
        }
      ],
      "stateMutability": "view",
      "type": "function"
    },
    {
      "inputs": [],
      "name": "ton",
      "outputs": [
        {
          "internalType": "address",
          "name": "",
          "type": "address"
        }
      ],
      "stateMutability": "view",
      "type": "function"
    },
    {
      "inputs": [],
      "name": "tos",
      "outputs": [
        {
          "internalType": "address",
          "name": "",
          "type": "address"
        }
      ],
      "stateMutability": "view",
      "type": "function"
    },
    {
      "inputs": [
        {
          "internalType": "address",
          "name": "newAdmin",
          "type": "address"
        }
      ],
      "name": "transferAdmin",
      "outputs": [],
      "stateMutability": "nonpayable",
      "type": "function"
    },
    {
      "inputs": [],
      "name": "wton",
      "outputs": [
        {
          "internalType": "address",
          "name": "",
          "type": "address"
        }
      ],
      "stateMutability": "view",
      "type": "function"
    }
  ],
  "bytecode": "0x608060405234801561001057600080fd5b50611fb1806100206000396000f3fe608060405234801561001057600080fd5b50600436106101dc5760003560e01c806375829def11610105578063b911135f1161009d578063b911135f146105e3578063bcb9230814610600578063bef6e75a14610626578063ca15c87314610652578063cc48b9471461066f578063d539139314610677578063d547741f1461067f578063dd196f18146106ab578063e2823698146106b3576101dc565b806375829def146104c357806375b238fc146104e957806389f395de146104f15780638d62d949146104f95780639010d07c1461050157806391d148541461052457806396ec066a14610550578063a217fddf146105af578063a574d1b7146105b7576101dc565b80634acb0e8d116101785780634acb0e8d146103e057806350d2a2761461040c578063550d01a31461044f57806363a8fd8914610475578063683048351461047d5780636af8da27146104855780636c7ac9d81461048d5780636fb7f55814610495578063704802751461049d576101dc565b80631785f53c146101e1578063248a9ca31461020957806324d7806c14610238578063282c51f314610272578063291995991461027a5780632ef70ac8146102a65780632f2ff15d1461038057806336568abe146103ac57806341c04d5e146103d8575b600080fd5b610207600480360360208110156101f757600080fd5b50356001600160a01b03166106df565b005b6102266004803603602081101561021f57600080fd5b503561073e565b60408051918252519081900360200190f35b61025e6004803603602081101561024e57600080fd5b50356001600160a01b0316610753565b604080519115158252519081900360200190f35b610226610773565b6102076004803603604081101561029057600080fd5b506001600160a01b038135169060200135610797565b610207600480360360e08110156102bc57600080fd5b8135916020810135916001600160a01b0360408301358116926060810135821692608082013583169260a083013516919081019060e0810160c082013564010000000081111561030b57600080fd5b82018360208201111561031d57600080fd5b8035906020019184600183028401116401000000008311171561033f57600080fd5b91908080601f016020809104026020016040519081016040528093929190818152602001838380828437600092019190915250929550610888945050505050565b6102076004803603604081101561039657600080fd5b50803590602001356001600160a01b031661106e565b610207600480360360408110156103c257600080fd5b50803590602001356001600160a01b03166110da565b61022661113b565b610207600480360360408110156103f657600080fd5b506001600160a01b03813516906020013561115f565b6104336004803603602081101561042257600080fd5b50356001600160e01b03191661135d565b604080516001600160a01b039092168252519081900360200190f35b61025e6004803603602081101561046557600080fd5b50356001600160a01b0316611378565b61025e61138d565b61043361139d565b6104336113ac565b6104336113bb565b6104336113ca565b610207600480360360208110156104b357600080fd5b50356001600160a01b03166113d9565b610207600480360360208110156104d957600080fd5b50356001600160a01b0316611435565b610226611556565b610433611568565b610433611577565b6104336004803603604081101561051757600080fd5b5080359060200135611586565b61025e6004803603604081101561053a57600080fd5b50803590602001356001600160a01b03166115a5565b610207600480360360a081101561056657600080fd5b6040805160808181019092526001600160a01b0384351693928301929160a083019190602084019060049083908390808284376000920191909152509194506115bd9350505050565b6102266116b4565b610207600480360360408110156105cd57600080fd5b506001600160a01b0381351690602001356116b9565b610433600480360360208110156105f957600080fd5b503561178d565b6102076004803603602081101561061657600080fd5b50356001600160a01b03166117a8565b6102076004803603604081101561063c57600080fd5b506001600160a01b03813516906020013561188d565b6102266004803603602081101561066857600080fd5b50356119ab565b6104336119c2565b6102266119d1565b6102076004803603604081101561069557600080fd5b50803590602001356001600160a01b03166119f5565b610433611a4e565b610207600480360360408110156106c957600080fd5b50803590602001356001600160a01b0316611a5d565b6106e833610753565b6107235760405162461bcd60e51b8152600401808060200182810382526022815260200180611e9a6022913960400191505060405180910390fd5b61073b600080516020611f0d833981519152826110da565b50565b6000908152600b602052604090206002015490565b600061076d600080516020611f0d833981519152836115a5565b92915050565b7f9667e80708b6eeeb0053fa0cca44e028ff548e2a9f029edfeac87c118b08b7c881565b6107a033610753565b6107db5760405162461bcd60e51b8152600401808060200182810382526022815260200180611e9a6022913960400191505060405180910390fd5b816001600160a01b038116610825576040805162461bcd60e51b81526020600482015260196024820152600080516020611f2d833981519152604482015290519081900360640190fd5b826001600160a01b031663a842d78e836040518263ffffffff1660e01b815260040180828152602001915050600060405180830381600087803b15801561086b57600080fd5b505af115801561087f573d6000803e3d6000fd5b50505050505050565b61089133610753565b6108cc5760405162461bcd60e51b8152600401808060200182810382526022815260200180611e9a6022913960400191505060405180910390fd5b6002546001600160a01b031680610918576040805162461bcd60e51b81526020600482015260196024820152600080516020611f2d833981519152604482015290519081900360640190fd5b6000600290506000600290506000846040516020018082805190602001908083835b602083106109595780518252601f19909201916020918201910161093a565b6001836020036101000a03801982511681845116808217855250505050505090500191505060405160208183030381529060405280519060200120905060008b905060008b90506000600260009054906101000a90046001600160a01b03166001600160a01b03166383564531876040518060400160405280600360009054906101000a90046001600160a01b03166001600160a01b03166001600160a01b03168152602001600160009054906101000a90046001600160a01b03166001600160a01b03166001600160a01b031681525060405180606001604052808a8152602001888152602001878152508c306040518663ffffffff1660e01b81526004018086815260200185600260200280838360005b83811015610a84578181015183820152602001610a6c565b5050505090500184600360200280838360005b83811015610aaf578181015183820152602001610a97565b5050505090500180602001836001600160a01b03168152602001828103825284818151815260200191508051906020019080838360005b83811015610afe578181015183820152602001610ae6565b50505050905090810190601f168015610b2b5780820380516001836020036101000a031916815260200191505b509650505050505050602060405180830381600087803b158015610b4e57600080fd5b505af1158015610b62573d6000803e3d6000fd5b505050506040513d6020811015610b7857600080fd5b505190506001600160a01b038116610bd7576040805162461bcd60e51b815260206004820152601b60248201527f5374616b65324c6f6769633a207661756c7432206973207a65726f0000000000604482015290519081900360640190fd5b604080516080810182526001600160a01b03808f1682528d811660208301528c8116828401528b811660608301526000805484516377e4fba360e11b81528684166004820152602481018c9052604481018a905294518b95919093169263efc9f7469260648084019391929182900301818387803b158015610c5857600080fd5b505af1158015610c6c573d6000803e3d6000fd5b50505050826001600160a01b03167f04773e0024ac6f28f0c1dfcd9e35cc6f68bd0a325e87c6bbf0d48dfe8f06a8648f8760405180836001600160a01b031681526020018281526020019250505060405180910390a260006040518060800160405280600360009054906101000a90046001600160a01b03166001600160a01b03166001600160a01b0316815260200160006001600160a01b03166001600160a01b03168152602001856001600160a01b03166001600160a01b0316815260200160006001600160a01b03166001600160a01b031681525090506000600160009054906101000a90046001600160a01b03166001600160a01b031663115c289b8a8460008054906101000a90046001600160a01b031660405180606001604052808d81526020018c815260200160008152506040518563ffffffff1660e01b81526004018085815260200184600460200280838360005b83811015610ddb578181015183820152602001610dc3565b50505050905001836001600160a01b0316815260200182600360200280838360005b83811015610e15578181015183820152602001610dfd565b50505050905001945050505050602060405180830381600087803b158015610e3c57600080fd5b505af1158015610e50573d6000803e3d6000fd5b505050506040513d6020811015610e6657600080fd5b505190506001600160a01b038116610ec5576040805162461bcd60e51b815260206004820152601f60248201527f5374616b65324c6f6769633a207661756c7432206465706c6f79206661696c00604482015290519081900360640190fd5b604051631dcfedf360e21b81526001600160a01b0382169063773fb7cc9085906004018082608080838360005b83811015610f0a578181015183820152602001610ef2565b50505050905001915050600060405180830381600087803b158015610f2e57600080fd5b505af1158015610f42573d6000803e3d6000fd5b50505050846001600160a01b03166323471d18826040518263ffffffff1660e01b815260040180826001600160a01b03168152602001915050600060405180830381600087803b158015610f9557600080fd5b505af1158015610fa9573d6000803e3d6000fd5b50506000805460408051638dea8fd760e01b81526001600160a01b038b8116600483015287811660248301529151919092169450638dea8fd793506044808301939282900301818387803b15801561100057600080fd5b505af1158015611014573d6000803e3d6000fd5b50506040805187815290516001600160a01b038086169450891692507f526d0cccf75b345efc1481500917c66f5aa09e2da8b3201acd7d76da7c75def99181900360200190a3505050505050505050505050505050505050565b6000828152600b60205260409020600201546110919061108c611b8c565b6115a5565b6110cc5760405162461bcd60e51b815260040180806020018281038252602f815260200180611e6b602f913960400191505060405180910390fd5b6110d68282611b90565b5050565b6110e2611b8c565b6001600160a01b0316816001600160a01b0316146111315760405162461bcd60e51b815260040180806020018281038252602f815260200180611f4d602f913960400191505060405180910390fd5b6110d68282611bf9565b7f52eafc11f6f81f86878bffd31109a0d92f37506527754f00788853ff9f63b13081565b61116833610753565b6111a35760405162461bcd60e51b8152600401808060200182810382526022815260200180611e9a6022913960400191505060405180910390fd5b816001600160a01b0381166111ed576040805162461bcd60e51b81526020600482015260196024820152600080516020611f2d833981519152604482015290519081900360640190fd5b6000836001600160a01b031663851073676040518163ffffffff1660e01b815260040160206040518083038186803b15801561122857600080fd5b505afa15801561123c573d6000803e3d6000fd5b505050506040513d602081101561125257600080fd5b505190506001600160a01b03811661129b5760405162461bcd60e51b8152600401808060200182810382526021815260200180611ebc6021913960400191505060405180910390fd5b836001600160a01b031663fb9af8b8846040518263ffffffff1660e01b815260040180828152602001915050600060405180830381600087803b1580156112e157600080fd5b505af11580156112f5573d6000803e3d6000fd5b50505050806001600160a01b031663525f8a5c846040518263ffffffff1660e01b815260040180828152602001915050600060405180830381600087803b15801561133f57600080fd5b505af1158015611353573d6000803e3d6000fd5b5050505050505050565b600a602052600090815260409020546001600160a01b031681565b60096020526000908152604090205460ff1681565b600754600160a01b900460ff1681565b6000546001600160a01b031681565b6002546001600160a01b031681565b6006546001600160a01b031681565b6007546001600160a01b031681565b6113e233610753565b61141d5760405162461bcd60e51b8152600401808060200182810382526022815260200180611e9a6022913960400191505060405180910390fd5b61073b600080516020611f0d8339815191528261106e565b61143e33610753565b6114795760405162461bcd60e51b8152600401808060200182810382526022815260200180611e9a6022913960400191505060405180910390fd5b6001600160a01b0381166114cf576040805162461bcd60e51b815260206004820152601860248201527741636365737369626c653a207a65726f206164647265737360401b604482015290519081900360640190fd5b336001600160a01b0382161415611526576040805162461bcd60e51b815260206004820152601660248201527520b1b1b2b9b9b4b136329d1039b0b6b29030b236b4b760511b604482015290519081900360640190fd5b61153e600080516020611f0d8339815191528261106e565b61073b600080516020611f0d833981519152336110da565b600080516020611f0d83398151915281565b6003546001600160a01b031681565b6005546001600160a01b031681565b6000828152600b6020526040812061159e9083611c62565b9392505050565b6000828152600b6020526040812061159e9083611c6e565b6115c633610753565b6116015760405162461bcd60e51b8152600401808060200182810382526022815260200180611e9a6022913960400191505060405180910390fd5b816001600160a01b03811661164b576040805162461bcd60e51b81526020600482015260196024820152600080516020611f2d833981519152604482015290519081900360640190fd5b604051631dcfedf360e21b81526001600160a01b0384169063773fb7cc9084906004018082608080838360005b83811015611690578181015183820152602001611678565b50505050905001915050600060405180830381600087803b15801561086b57600080fd5b600081565b6116c233610753565b6116fd5760405162461bcd60e51b8152600401808060200182810382526022815260200180611e9a6022913960400191505060405180910390fd5b816001600160a01b038116611747576040805162461bcd60e51b81526020600482015260196024820152600080516020611f2d833981519152604482015290519081900360640190fd5b826001600160a01b031663b97db3dc836040518263ffffffff1660e01b815260040180828152602001915050600060405180830381600087803b15801561086b57600080fd5b6008602052600090815260409020546001600160a01b031681565b6117b133610753565b6117ec5760405162461bcd60e51b8152600401808060200182810382526022815260200180611e9a6022913960400191505060405180910390fd5b806001600160a01b038116611836576040805162461bcd60e51b81526020600482015260196024820152600080516020611f2d833981519152604482015290519081900360640190fd5b816001600160a01b031663dee712a36040518163ffffffff1660e01b8152600401600060405180830381600087803b15801561187157600080fd5b505af1158015611885573d6000803e3d6000fd5b505050505050565b61189633610753565b6118d15760405162461bcd60e51b8152600401808060200182810382526022815260200180611e9a6022913960400191505060405180910390fd5b816001600160a01b03811661191b576040805162461bcd60e51b81526020600482015260196024820152600080516020611f2d833981519152604482015290519081900360640190fd5b8160008111611965576040805162461bcd60e51b81526020600482015260116024820152705374616b65324c6f6769633a207a65726f60781b604482015290519081900360640190fd5b836001600160a01b03166334586e8b846040518263ffffffff1660e01b815260040180828152602001915050600060405180830381600087803b15801561133f57600080fd5b6000818152600b6020526040812061076d90611c83565b6004546001600160a01b031681565b7ff0887ba65ee2024ea881d91b74c2450ef19e1557f03bed3ea9f16b037cbe2dc981565b6000828152600b6020526040902060020154611a139061108c611b8c565b6111315760405162461bcd60e51b8152600401808060200182810382526030815260200180611edd6030913960400191505060405180910390fd5b6001546001600160a01b031681565b611a6633610753565b611aa15760405162461bcd60e51b8152600401808060200182810382526022815260200180611e9a6022913960400191505060405180910390fd5b6002546001600160a01b031680611aed576040805162461bcd60e51b81526020600482015260196024820152600080516020611f2d833981519152604482015290519081900360640190fd5b816001600160a01b038116611b37576040805162461bcd60e51b81526020600482015260196024820152600080516020611f2d833981519152604482015290519081900360640190fd5b60025460408051631c5046d360e31b8152600481018790526001600160a01b0386811660248301529151919092169163e282369891604480830192600092919082900301818387803b15801561133f57600080fd5b3390565b6000828152600b60205260409020611ba89082611c8e565b156110d657611bb5611b8c565b6001600160a01b0316816001600160a01b0316837f2f8788117e7eff1d82e926ec794901d17c78024a50270940304540a733656f0d60405160405180910390a45050565b6000828152600b60205260409020611c119082611ca3565b156110d657611c1e611b8c565b6001600160a01b0316816001600160a01b0316837ff6391f5c32d9c69d2a47ea670b442974b53935d1edc7fd64eb21e047a839171b60405160405180910390a45050565b600061159e8383611cb8565b600061159e836001600160a01b038416611d1c565b600061076d82611d34565b600061159e836001600160a01b038416611d38565b600061159e836001600160a01b038416611d82565b81546000908210611cfa5760405162461bcd60e51b8152600401808060200182810382526022815260200180611e496022913960400191505060405180910390fd5b826000018281548110611d0957fe5b9060005260206000200154905092915050565b60009081526001919091016020526040902054151590565b5490565b6000611d448383611d1c565b611d7a5750815460018181018455600084815260208082209093018490558454848252828601909352604090209190915561076d565b50600061076d565b60008181526001830160205260408120548015611e3e5783546000198083019190810190600090879083908110611db557fe5b9060005260206000200154905080876000018481548110611dd257fe5b600091825260208083209091019290925582815260018981019092526040902090840190558654879080611e0257fe5b6001900381819060005260206000200160009055905586600101600087815260200190815260200160002060009055600194505050505061076d565b600091505061076d56fe456e756d657261626c655365743a20696e646578206f7574206f6620626f756e6473416363657373436f6e74726f6c3a2073656e646572206d75737420626520616e2061646d696e20746f206772616e7441636365737369626c653a2043616c6c6572206973206e6f7420616e2061646d696e5374616b65324c6f6769633a207374616b6541646472657373206973207a65726f416363657373436f6e74726f6c3a2073656e646572206d75737420626520616e2061646d696e20746f207265766f6b65df8b4c520ffe197c5343c6f5aec59570151ef9a492f2c624fd45ddde6135ec425374616b65324c6f6769633a207a65726f206164647265737300000000000000416363657373436f6e74726f6c3a2063616e206f6e6c792072656e6f756e636520726f6c657320666f722073656c66a26469706673582212208205ae86a5b2f942f23c4e0513386d7433628ac36ee15a45b5afef5592d18dd664736f6c63430007060033",
  "linkReferences": {},
  "deployedLinkReferences": {}
}