{
  "_format": "hh-sol-artifact-1",
  "contractName": "PrivateSaleProxy",
  "sourceName": "contracts/sale/PrivateSaleProxy.sol",
  "abi": [
    {
      "inputs": [
        {
          "internalType": "address",
          "name": "_logic",
          "type": "address"
        },
        {
          "internalType": "address",
          "name": "_admin",
          "type": "address"
        }
      ],
      "stateMutability": "nonpayable",
      "type": "constructor"
    },
    {
      "anonymous": false,
      "inputs": [
        {
          "indexed": true,
          "internalType": "bytes32",
          "name": "role",
          "type": "bytes32"
        },
        {
          "indexed": true,
          "internalType": "bytes32",
          "name": "previousAdminRole",
          "type": "bytes32"
        },
        {
          "indexed": true,
          "internalType": "bytes32",
          "name": "newAdminRole",
          "type": "bytes32"
        }
      ],
      "name": "RoleAdminChanged",
      "type": "event"
    },
    {
      "anonymous": false,
      "inputs": [
        {
          "indexed": true,
          "internalType": "bytes32",
          "name": "role",
          "type": "bytes32"
        },
        {
          "indexed": true,
          "internalType": "address",
          "name": "account",
          "type": "address"
        },
        {
          "indexed": true,
          "internalType": "address",
          "name": "sender",
          "type": "address"
        }
      ],
      "name": "RoleGranted",
      "type": "event"
    },
    {
      "anonymous": false,
      "inputs": [
        {
          "indexed": true,
          "internalType": "bytes32",
          "name": "role",
          "type": "bytes32"
        },
        {
          "indexed": true,
          "internalType": "address",
          "name": "account",
          "type": "address"
        },
        {
          "indexed": true,
          "internalType": "address",
          "name": "sender",
          "type": "address"
        }
      ],
      "name": "RoleRevoked",
      "type": "event"
    },
    {
      "anonymous": false,
      "inputs": [
        {
          "indexed": true,
          "internalType": "address",
          "name": "implementation",
          "type": "address"
        },
        {
          "indexed": false,
          "internalType": "uint256",
          "name": "_index",
          "type": "uint256"
        }
      ],
      "name": "Upgraded",
      "type": "event"
    },
    {
      "stateMutability": "payable",
      "type": "fallback"
    },
    {
      "inputs": [],
      "name": "ADMIN_ROLE",
      "outputs": [
        {
          "internalType": "bytes32",
          "name": "",
          "type": "bytes32"
        }
      ],
      "stateMutability": "view",
      "type": "function"
    },
    {
      "inputs": [],
      "name": "BURNER_ROLE",
      "outputs": [
        {
          "internalType": "bytes32",
          "name": "",
          "type": "bytes32"
        }
      ],
      "stateMutability": "view",
      "type": "function"
    },
    {
      "inputs": [],
      "name": "DEFAULT_ADMIN_ROLE",
      "outputs": [
        {
          "internalType": "bytes32",
          "name": "",
          "type": "bytes32"
        }
      ],
      "stateMutability": "view",
      "type": "function"
    },
    {
      "inputs": [],
      "name": "MINTER_ROLE",
      "outputs": [
        {
          "internalType": "bytes32",
          "name": "",
          "type": "bytes32"
        }
      ],
      "stateMutability": "view",
      "type": "function"
    },
    {
      "inputs": [],
      "name": "PROJECT_ADMIN_ROLE",
      "outputs": [
        {
          "internalType": "bytes32",
          "name": "",
          "type": "bytes32"
        }
      ],
      "stateMutability": "view",
      "type": "function"
    },
    {
      "inputs": [
        {
          "internalType": "address",
          "name": "account",
          "type": "address"
        }
      ],
      "name": "addAdmin",
      "outputs": [],
      "stateMutability": "nonpayable",
      "type": "function"
    },
    {
      "inputs": [
        {
          "internalType": "address",
          "name": "",
          "type": "address"
        }
      ],
      "name": "aliveImplementation",
      "outputs": [
        {
          "internalType": "bool",
          "name": "",
          "type": "bool"
        }
      ],
      "stateMutability": "view",
      "type": "function"
    },
    {
      "inputs": [],
      "name": "claimEndTime",
      "outputs": [
        {
          "internalType": "uint256",
          "name": "",
          "type": "uint256"
        }
      ],
      "stateMutability": "view",
      "type": "function"
    },
    {
      "inputs": [],
      "name": "claimStartTime",
      "outputs": [
        {
          "internalType": "uint256",
          "name": "",
          "type": "uint256"
        }
      ],
      "stateMutability": "view",
      "type": "function"
    },
    {
      "inputs": [],
      "name": "firstClaimTime",
      "outputs": [
        {
          "internalType": "uint256",
          "name": "",
          "type": "uint256"
        }
      ],
      "stateMutability": "view",
      "type": "function"
    },
    {
      "inputs": [
        {
          "internalType": "bytes32",
          "name": "role",
          "type": "bytes32"
        }
      ],
      "name": "getRoleAdmin",
      "outputs": [
        {
          "internalType": "bytes32",
          "name": "",
          "type": "bytes32"
        }
      ],
      "stateMutability": "view",
      "type": "function"
    },
    {
      "inputs": [
        {
          "internalType": "bytes32",
          "name": "role",
          "type": "bytes32"
        },
        {
          "internalType": "uint256",
          "name": "index",
          "type": "uint256"
        }
      ],
      "name": "getRoleMember",
      "outputs": [
        {
          "internalType": "address",
          "name": "",
          "type": "address"
        }
      ],
      "stateMutability": "view",
      "type": "function"
    },
    {
      "inputs": [
        {
          "internalType": "bytes32",
          "name": "role",
          "type": "bytes32"
        }
      ],
      "name": "getRoleMemberCount",
      "outputs": [
        {
          "internalType": "uint256",
          "name": "",
          "type": "uint256"
        }
      ],
      "stateMutability": "view",
      "type": "function"
    },
    {
      "inputs": [
        {
          "internalType": "bytes4",
          "name": "_selector",
          "type": "bytes4"
        }
      ],
      "name": "getSelectorImplementation",
      "outputs": [
        {
          "internalType": "address",
          "name": "impl",
          "type": "address"
        }
      ],
      "stateMutability": "view",
      "type": "function"
    },
    {
      "inputs": [],
      "name": "getToken",
      "outputs": [
        {
          "internalType": "contract IERC20",
          "name": "",
          "type": "address"
        }
      ],
      "stateMutability": "view",
      "type": "function"
    },
    {
      "inputs": [],
      "name": "getTokenOwner",
      "outputs": [
        {
          "internalType": "address",
          "name": "",
          "type": "address"
        }
      ],
      "stateMutability": "view",
      "type": "function"
    },
    {
      "inputs": [],
      "name": "getTokenPrice",
      "outputs": [
        {
          "internalType": "uint256",
          "name": "",
          "type": "uint256"
        }
      ],
      "stateMutability": "view",
      "type": "function"
    },
    {
      "inputs": [
        {
          "internalType": "bytes32",
          "name": "role",
          "type": "bytes32"
        },
        {
          "internalType": "address",
          "name": "account",
          "type": "address"
        }
      ],
      "name": "grantRole",
      "outputs": [],
      "stateMutability": "nonpayable",
      "type": "function"
    },
    {
      "inputs": [
        {
          "internalType": "bytes32",
          "name": "role",
          "type": "bytes32"
        },
        {
          "internalType": "address",
          "name": "account",
          "type": "address"
        }
      ],
      "name": "hasRole",
      "outputs": [
        {
          "internalType": "bool",
          "name": "",
          "type": "bool"
        }
      ],
      "stateMutability": "view",
      "type": "function"
    },
    {
      "inputs": [
        {
          "internalType": "uint256",
          "name": "_index",
          "type": "uint256"
        }
      ],
      "name": "implementation",
      "outputs": [
        {
          "internalType": "address",
          "name": "",
          "type": "address"
        }
      ],
      "stateMutability": "view",
      "type": "function"
    },
    {
      "inputs": [
        {
          "internalType": "address",
          "name": "_wton",
          "type": "address"
        }
      ],
      "name": "initialize",
      "outputs": [],
      "stateMutability": "nonpayable",
      "type": "function"
    },
    {
      "inputs": [
        {
          "internalType": "address",
          "name": "account",
          "type": "address"
        }
      ],
      "name": "isAdmin",
      "outputs": [
        {
          "internalType": "bool",
          "name": "",
          "type": "bool"
        }
      ],
      "stateMutability": "view",
      "type": "function"
    },
    {
      "inputs": [
        {
          "internalType": "address",
          "name": "sender",
          "type": "address"
        },
        {
          "internalType": "address",
          "name": "spender",
          "type": "address"
        },
        {
          "internalType": "uint256",
          "name": "amount",
          "type": "uint256"
        },
        {
          "internalType": "bytes",
          "name": "data",
          "type": "bytes"
        }
      ],
      "name": "onApprove",
      "outputs": [
        {
          "internalType": "bool",
          "name": "",
          "type": "bool"
        }
      ],
      "stateMutability": "nonpayable",
      "type": "function"
    },
    {
      "inputs": [],
      "name": "pauseProxy",
      "outputs": [
        {
          "internalType": "bool",
          "name": "",
          "type": "bool"
        }
      ],
      "stateMutability": "view",
      "type": "function"
    },
    {
      "inputs": [
        {
          "internalType": "uint256",
          "name": "",
          "type": "uint256"
        }
      ],
      "name": "proxyImplementation",
      "outputs": [
        {
          "internalType": "address",
          "name": "",
          "type": "address"
        }
      ],
      "stateMutability": "view",
      "type": "function"
    },
    {
      "inputs": [
        {
          "internalType": "address",
          "name": "account",
          "type": "address"
        }
      ],
      "name": "removeAdmin",
      "outputs": [],
      "stateMutability": "nonpayable",
      "type": "function"
    },
    {
      "inputs": [
        {
          "internalType": "bytes32",
          "name": "role",
          "type": "bytes32"
        },
        {
          "internalType": "address",
          "name": "account",
          "type": "address"
        }
      ],
      "name": "renounceRole",
      "outputs": [],
      "stateMutability": "nonpayable",
      "type": "function"
    },
    {
      "inputs": [
        {
          "internalType": "bytes32",
          "name": "role",
          "type": "bytes32"
        },
        {
          "internalType": "address",
          "name": "account",
          "type": "address"
        }
      ],
      "name": "revokeRole",
      "outputs": [],
      "stateMutability": "nonpayable",
      "type": "function"
    },
    {
      "inputs": [],
      "name": "saleEndTime",
      "outputs": [
        {
          "internalType": "uint256",
          "name": "",
          "type": "uint256"
        }
      ],
      "stateMutability": "view",
      "type": "function"
    },
    {
      "inputs": [],
      "name": "saleStartTime",
      "outputs": [
        {
          "internalType": "uint256",
          "name": "",
          "type": "uint256"
        }
      ],
      "stateMutability": "view",
      "type": "function"
    },
    {
      "inputs": [],
      "name": "saleToken",
      "outputs": [
        {
          "internalType": "contract IERC20",
          "name": "",
          "type": "address"
        }
      ],
      "stateMutability": "view",
      "type": "function"
    },
    {
      "inputs": [],
      "name": "saleTokenPrice",
      "outputs": [
        {
          "internalType": "uint256",
          "name": "",
          "type": "uint256"
        }
      ],
      "stateMutability": "view",
      "type": "function"
    },
    {
      "inputs": [
        {
          "internalType": "bytes4",
          "name": "",
          "type": "bytes4"
        }
      ],
      "name": "selectorImplementation",
      "outputs": [
        {
          "internalType": "address",
          "name": "",
          "type": "address"
        }
      ],
      "stateMutability": "view",
      "type": "function"
    },
    {
      "inputs": [
        {
          "internalType": "address",
          "name": "newImplementation",
          "type": "address"
        },
        {
          "internalType": "bool",
          "name": "_alive",
          "type": "bool"
        }
      ],
      "name": "setAliveImplementation",
      "outputs": [],
      "stateMutability": "nonpayable",
      "type": "function"
    },
    {
      "inputs": [
        {
          "internalType": "address",
          "name": "newImplementation",
          "type": "address"
        },
        {
          "internalType": "uint256",
          "name": "_index",
          "type": "uint256"
        },
        {
          "internalType": "bool",
          "name": "_alive",
          "type": "bool"
        }
      ],
      "name": "setImplementation",
      "outputs": [],
      "stateMutability": "nonpayable",
      "type": "function"
    },
    {
      "inputs": [
        {
          "internalType": "bool",
          "name": "_pause",
          "type": "bool"
        }
      ],
      "name": "setProxyPause",
      "outputs": [],
      "stateMutability": "nonpayable",
      "type": "function"
    },
    {
      "inputs": [
        {
          "internalType": "bytes4[]",
          "name": "_selectors",
          "type": "bytes4[]"
        },
        {
          "internalType": "address",
          "name": "_imp",
          "type": "address"
        }
      ],
      "name": "setSelectorImplementations",
      "outputs": [],
      "stateMutability": "nonpayable",
      "type": "function"
    },
    {
      "inputs": [
        {
          "internalType": "bytes4",
          "name": "interfaceId",
          "type": "bytes4"
        }
      ],
      "name": "supportsInterface",
      "outputs": [
        {
          "internalType": "bool",
          "name": "",
          "type": "bool"
        }
      ],
      "stateMutability": "view",
      "type": "function"
    },
    {
      "inputs": [],
      "name": "totalGetAmount",
      "outputs": [
        {
          "internalType": "uint256",
          "name": "",
          "type": "uint256"
        }
      ],
      "stateMutability": "view",
      "type": "function"
    },
    {
      "inputs": [],
      "name": "totalSaleAmount",
      "outputs": [
        {
          "internalType": "uint256",
          "name": "",
          "type": "uint256"
        }
      ],
      "stateMutability": "view",
      "type": "function"
    },
    {
      "inputs": [
        {
          "internalType": "address",
          "name": "newAdmin",
          "type": "address"
        }
      ],
      "name": "transferAdmin",
      "outputs": [],
      "stateMutability": "nonpayable",
      "type": "function"
    },
    {
      "inputs": [
        {
          "internalType": "address",
          "name": "impl",
          "type": "address"
        },
        {
          "internalType": "uint256",
          "name": "_index",
          "type": "uint256"
        }
      ],
      "name": "upgradeTo",
      "outputs": [],
      "stateMutability": "nonpayable",
      "type": "function"
    },
    {
      "inputs": [
        {
          "internalType": "address",
          "name": "",
          "type": "address"
        }
      ],
      "name": "usersAmount",
      "outputs": [
        {
          "internalType": "uint256",
          "name": "inputamount",
          "type": "uint256"
        },
        {
          "internalType": "uint256",
          "name": "totaloutputamount",
          "type": "uint256"
        },
        {
          "internalType": "uint256",
          "name": "inputTime",
          "type": "uint256"
        },
        {
          "internalType": "uint256",
          "name": "monthlyReward",
          "type": "uint256"
        },
        {
          "internalType": "uint256",
          "name": "firstReward",
          "type": "uint256"
        }
      ],
      "stateMutability": "view",
      "type": "function"
    },
    {
      "inputs": [
        {
          "internalType": "address",
          "name": "",
          "type": "address"
        }
      ],
      "name": "usersClaim",
      "outputs": [
        {
          "internalType": "uint256",
          "name": "claimTime",
          "type": "uint256"
        },
        {
          "internalType": "uint256",
          "name": "claimAmount",
          "type": "uint256"
        },
        {
          "internalType": "uint256",
          "name": "firstClaimAmount",
          "type": "uint256"
        },
        {
          "internalType": "uint256",
          "name": "firstClaimTime",
          "type": "uint256"
        },
        {
          "internalType": "bool",
          "name": "first",
          "type": "bool"
        }
      ],
      "stateMutability": "view",
      "type": "function"
    },
    {
      "inputs": [
        {
          "internalType": "address",
          "name": "",
          "type": "address"
        }
      ],
      "name": "usersWhite",
      "outputs": [
        {
          "internalType": "uint256",
          "name": "amount",
          "type": "uint256"
        }
      ],
      "stateMutability": "view",
      "type": "function"
    },
    {
      "inputs": [],
      "name": "wton",
      "outputs": [
        {
          "internalType": "address",
          "name": "",
          "type": "address"
        }
      ],
      "stateMutability": "view",
      "type": "function"
    },
    {
      "stateMutability": "payable",
      "type": "receive"
    }
  ],
  "bytecode": "0x60806040523480156200001157600080fd5b506040516200230a3803806200230a833981810160405260408110156200003757600080fd5b508051602090910151620000526301ffc9a760e01b62000128565b62000064632139e50b60e11b62000128565b6001600160a01b038216620000c0576040805162461bcd60e51b815260206004820152601a60248201527f5374616b653150726f78793a206c6f676963206973207a65726f000000000000604482015290519081900360640190fd5b620000cf8260006001620001ad565b620000ea600080516020620022a48339815191528062000240565b62000105600080516020620022a48339815191528262000292565b62000120600080516020620022a48339815191523062000292565b5050620003d9565b6001600160e01b0319808216141562000188576040805162461bcd60e51b815260206004820152601c60248201527f4552433136353a20696e76616c696420696e7465726661636520696400000000604482015290519081900360640190fd5b6001600160e01b0319166000908152601560205260409020805460ff19166001179055565b620001c383620002a260201b6200196d1760201c565b620002005760405162461bcd60e51b8152600401808060200182810382526046815260200180620022c46046913960600191505060405180910390fd5b80156200022f57600082815260116020526040902080546001600160a01b0319166001600160a01b0385161790555b6200023b8382620002a8565b505050565b600082815260146020526040808220600201549051839285917fbd79b86ffe0ab8e8776151514217cd7cacd52c909f66475c3af44e129f0b00ff9190a460009182526014602052604090912060020155565b6200029e8282620002d3565b5050565b3b151590565b6001600160a01b03919091166000908152601260205260409020805460ff1916911515919091179055565b6000828152601460209081526040909120620002fa918390620019736200034e821b17901c565b156200029e576200030a6200036e565b6001600160a01b0316816001600160a01b0316837f2f8788117e7eff1d82e926ec794901d17c78024a50270940304540a733656f0d60405160405180910390a45050565b600062000365836001600160a01b03841662000372565b90505b92915050565b3390565b6000620003808383620003c1565b620003b85750815460018181018455600084815260208082209093018490558454848252828601909352604090209190915562000368565b50600062000368565b60009081526001919091016020526040902054151590565b611ebb80620003e96000396000f3fe6080604052600436106102815760003560e01c806375b238fc1161014f578063b390227b116100c1578063d53913931161007a578063d5391393146109d3578063d547741f146109e8578063e985e36714610a21578063ed338ff114610a36578063f6b2b33414610a4b578063ff6dac7614610a8457610290565b8063b390227b1461089e578063b3f3bf0e146108d9578063b7182b9514610937578063b911135f1461094c578063c4d66de814610976578063ca15c873146109a957610290565b80639010d07c116101135780639010d07c146107a057806391d14854146107d057806398f7c12f14610809578063a217fddf1461084a578063a6a11bb11461085f578063ac9a0b261461087457610290565b806375b238fc146107205780637cb00d2514610735578063814e5c9b1461076157806382d72f7f146107765780638d62d9491461078b57610290565b806340d1d255116101f3578063550d01a3116101ac578063550d01a3146106295780635cf75bec1461065c5780635d2df7c01461067157806363a8fd89146106a557806370480275146106ba57806375829def146106ed57610290565b806340d1d2551461050657806341c04d5e1461051b5780634273ca16146105305780634b94f50e146105cb57806350d2a276146105e057806351d28a7e1461061457610290565b806321df0da71161024557806321df0da7146103f1578063248a9ca31461042257806324d7806c1461044c578063282c51f31461047f5780632f2ff15d1461049457806336568abe146104cd57610290565b806301ffc9a7146102985780630757eb4a146102e05780630d3c8a7e146103255780631785f53c146103a95780631cbaee2d146103dc57610290565b366102905761028e610ae4565b005b61028e610ae4565b3480156102a457600080fd5b506102cc600480360360208110156102bb57600080fd5b50356001600160e01b031916610b8b565b604080519115158252519081900360200190f35b3480156102ec57600080fd5b506103136004803603602081101561030357600080fd5b50356001600160a01b0316610bae565b60408051918252519081900360200190f35b34801561033157600080fd5b5061028e6004803603604081101561034857600080fd5b810190602081018135600160201b81111561036257600080fd5b82018360208201111561037457600080fd5b803590602001918460208302840111600160201b8311171561039557600080fd5b9193509150356001600160a01b0316610bc0565b3480156103b557600080fd5b5061028e600480360360208110156103cc57600080fd5b50356001600160a01b0316610daa565b3480156103e857600080fd5b50610313610e09565b3480156103fd57600080fd5b50610406610e0f565b604080516001600160a01b039092168252519081900360200190f35b34801561042e57600080fd5b506103136004803603602081101561044557600080fd5b5035610e1e565b34801561045857600080fd5b506102cc6004803603602081101561046f57600080fd5b50356001600160a01b0316610e33565b34801561048b57600080fd5b50610313610e53565b3480156104a057600080fd5b5061028e600480360360408110156104b757600080fd5b50803590602001356001600160a01b0316610e77565b3480156104d957600080fd5b5061028e600480360360408110156104f057600080fd5b50803590602001356001600160a01b0316610ee3565b34801561051257600080fd5b50610313610f44565b34801561052757600080fd5b50610313610f4a565b34801561053c57600080fd5b506102cc6004803603608081101561055357600080fd5b6001600160a01b03823581169260208101359091169160408201359190810190608081016060820135600160201b81111561058d57600080fd5b82018360208201111561059f57600080fd5b803590602001918460018302840111600160201b831117156105c057600080fd5b509092509050610f6e565b3480156105d757600080fd5b50610313611258565b3480156105ec57600080fd5b506104066004803603602081101561060357600080fd5b50356001600160e01b03191661125e565b34801561062057600080fd5b50610313611279565b34801561063557600080fd5b506102cc6004803603602081101561064c57600080fd5b50356001600160a01b031661127f565b34801561066857600080fd5b50610313611294565b34801561067d57600080fd5b506104066004803603602081101561069457600080fd5b50356001600160e01b03191661129a565b3480156106b157600080fd5b506102cc611396565b3480156106c657600080fd5b5061028e600480360360208110156106dd57600080fd5b50356001600160a01b031661139f565b3480156106f957600080fd5b5061028e6004803603602081101561071057600080fd5b50356001600160a01b03166113fb565b34801561072c57600080fd5b5061031361151c565b34801561074157600080fd5b5061028e6004803603602081101561075857600080fd5b5035151561152e565b34801561076d57600080fd5b50610313611585565b34801561078257600080fd5b5061031361158b565b34801561079757600080fd5b50610406611591565b3480156107ac57600080fd5b50610406600480360360408110156107c357600080fd5b50803590602001356115a0565b3480156107dc57600080fd5b506102cc600480360360408110156107f357600080fd5b50803590602001356001600160a01b03166115bf565b34801561081557600080fd5b5061028e6004803603606081101561082c57600080fd5b506001600160a01b03813516906020810135906040013515156115d7565b34801561085657600080fd5b50610313611626565b34801561086b57600080fd5b5061031361162b565b34801561088057600080fd5b506104066004803603602081101561089757600080fd5b5035611631565b3480156108aa57600080fd5b5061028e600480360360408110156108c157600080fd5b506001600160a01b038135169060200135151561163c565b3480156108e557600080fd5b5061090c600480360360208110156108fc57600080fd5b50356001600160a01b031661168a565b6040805195865260208601949094528484019290925260608401526080830152519081900360a00190f35b34801561094357600080fd5b506104066116b9565b34801561095857600080fd5b506104066004803603602081101561096f57600080fd5b50356116c8565b34801561098257600080fd5b5061028e6004803603602081101561099957600080fd5b50356001600160a01b03166116e3565b3480156109b557600080fd5b50610313600480360360208110156109cc57600080fd5b5035611749565b3480156109df57600080fd5b50610313611760565b3480156109f457600080fd5b5061028e60048036036040811015610a0b57600080fd5b50803590602001356001600160a01b0316611784565b348015610a2d57600080fd5b506104066117dd565b348015610a4257600080fd5b506103136117ec565b348015610a5757600080fd5b5061028e60048036036040811015610a6e57600080fd5b506001600160a01b0381351690602001356117f2565b348015610a9057600080fd5b50610ab760048036036020811015610aa757600080fd5b50356001600160a01b031661193b565b60408051958652602086019490945284840192909252606084015215156080830152519081900360a00190f35b6000610afb6000356001600160e01b03191661129a565b90506001600160a01b03811615801590610b18575060105460ff16155b610b62576040805162461bcd60e51b8152602060048201526016602482015275696d706c204f522070726f78792069732066616c736560501b604482015290519081900360640190fd5b3660008037600080366000845af43d6000803e808015610b81573d6000f35b3d6000fd5b505050565b6001600160e01b0319811660009081526015602052604090205460ff165b919050565b600f6020526000908152604090205481565b610bc933610e33565b610c045760405162461bcd60e51b8152600401808060200182810382526022815260200180611d436022913960400191505060405180910390fd5b81610c405760405162461bcd60e51b8152600401808060200182810382526026815260200180611e316026913960400191505060405180910390fd5b6001600160a01b03811660009081526012602052604090205460ff16610cad576040805162461bcd60e51b815260206004820152601e60248201527f5374616b653150726f78793a205f696d70206973206e6f7420616c6976650000604482015290519081900360640190fd5b60005b82811015610da457816001600160a01b031660136000868685818110610cd257fe5b602090810292909201356001600160e01b031916835250810191909152604001600020546001600160a01b03161415610d4a576040805162461bcd60e51b815260206004820152601560248201527405374616b653150726f78793a2073616d6520696d7605c1b604482015290519081900360640190fd5b8160136000868685818110610d5b57fe5b602090810292909201356001600160e01b03191683525081019190915260400160002080546001600160a01b0319166001600160a01b0392909216919091179055600101610cb0565b50505050565b610db333610e33565b610dee5760405162461bcd60e51b8152600401808060200182810382526022815260200180611d436022913960400191505060405180910390fd5b610e06600080516020611dcb83398151915282610ee3565b50565b60035481565b600b546001600160a01b031681565b60009081526014602052604090206002015490565b6000610e4d600080516020611dcb833981519152836115bf565b92915050565b7f9667e80708b6eeeb0053fa0cca44e028ff548e2a9f029edfeac87c118b08b7c881565b600082815260146020526040902060020154610e9a90610e95611988565b6115bf565b610ed55760405162461bcd60e51b815260040180806020018281038252602f815260200180611d14602f913960400191505060405180910390fd5b610edf828261198c565b5050565b610eeb611988565b6001600160a01b0316816001600160a01b031614610f3a5760405162461bcd60e51b815260040180806020018281038252602f815260200180611e57602f913960400191505060405180910390fd5b610edf82826119f5565b60075481565b7f52eafc11f6f81f86878bffd31109a0d92f37506527754f00788853ff9f63b13081565b600b546000906001600160a01b0316331480610f945750600c546001600160a01b031633145b610fcf5760405162461bcd60e51b8152600401808060200182810382526036815260200180611d956036913960400191505060405180910390fd5b600b546001600160a01b031633141561115b5760405163aa5bbf5560e01b815260206004820190815260248201849052600091309163aa5bbf5591879187918190604401848480828437600083820152604051601f909101601f191690920195506020945090925050508083038186803b15801561104c57600080fd5b505afa158015611060573d6000803e3d6000fd5b505050506040513d602081101561107657600080fd5b50519050806110ea576040805163cce7ec1360e01b81526001600160a01b0389166004820152602481018790529051309163cce7ec1391604480830192600092919082900301818387803b1580156110cd57600080fd5b505af11580156110e1573d6000803e3d6000fd5b50505050611155565b6040805163cce7ec1360e01b81526001600160a01b0389166004820152868301602482018190529151309163cce7ec1391604480830192600092919082900301818387803b15801561113b57600080fd5b505af115801561114f573d6000803e3d6000fd5b50505050505b5061124c565b600c546001600160a01b031633141561124c576000306001600160a01b0316636bbe48af866040518263ffffffff1660e01b81526004018082815260200191505060206040518083038186803b1580156111b457600080fd5b505afa1580156111c8573d6000803e3d6000fd5b505050506040513d60208110156111de57600080fd5b50516040805163cce7ec1360e01b81526001600160a01b038a166004820152602481018390529051919250309163cce7ec139160448082019260009290919082900301818387803b15801561123257600080fd5b505af1158015611246573d6000803e3d6000fd5b50505050505b50600195945050505050565b60095481565b6013602052600090815260409020546001600160a01b031681565b60085481565b60126020526000908152604090205460ff1681565b60015481565b6001600160e01b031981166000908152601360205260408120546001600160a01b03166112fb57506000805260116020527f4ad3b33220dddc71b994a52d72c06b10862965f7d926534c05c00fb7e819e7b7546001600160a01b0316610ba9565b6001600160e01b031982166000908152601360209081526040808320546001600160a01b03168352601290915290205460ff161561135c57506001600160e01b031981166000908152601360205260409020546001600160a01b0316610ba9565b506000805260116020527f4ad3b33220dddc71b994a52d72c06b10862965f7d926534c05c00fb7e819e7b7546001600160a01b0316610ba9565b60105460ff1681565b6113a833610e33565b6113e35760405162461bcd60e51b8152600401808060200182810382526022815260200180611d436022913960400191505060405180910390fd5b610e06600080516020611dcb83398151915282610e77565b61140433610e33565b61143f5760405162461bcd60e51b8152600401808060200182810382526022815260200180611d436022913960400191505060405180910390fd5b6001600160a01b038116611495576040805162461bcd60e51b815260206004820152601860248201527741636365737369626c653a207a65726f206164647265737360401b604482015290519081900360640190fd5b336001600160a01b03821614156114ec576040805162461bcd60e51b815260206004820152601660248201527520b1b1b2b9b9b4b136329d1039b0b6b29030b236b4b760511b604482015290519081900360640190fd5b611504600080516020611dcb83398151915282610e77565b610e06600080516020611dcb83398151915233610ee3565b600080516020611dcb83398151915281565b61153733610e33565b6115725760405162461bcd60e51b8152600401808060200182810382526022815260200180611d436022913960400191505060405180910390fd5b6010805460ff1916911515919091179055565b60025481565b60055481565b600c546001600160a01b031681565b60008281526014602052604081206115b89083611a5e565b9392505050565b60008281526014602052604081206115b89083611a6a565b6115e033610e33565b61161b5760405162461bcd60e51b8152600401808060200182810382526022815260200180611d436022913960400191505060405180910390fd5b610b86838383611a7f565b600081565b60065481565b6000610e4d82611afb565b61164533610e33565b6116805760405162461bcd60e51b8152600401808060200182810382526022815260200180611d436022913960400191505060405180910390fd5b610edf8282611b16565b600d60205260009081526040902080546001820154600283015460038401546004909401549293919290919085565b6000546001600160a01b031681565b6011602052600090815260409020546001600160a01b031681565b6116ec33610e33565b6117275760405162461bcd60e51b8152600401808060200182810382526022815260200180611d436022913960400191505060405180910390fd5b600c80546001600160a01b0319166001600160a01b0392909216919091179055565b6000818152601460205260408120610e4d90611b41565b7ff0887ba65ee2024ea881d91b74c2450ef19e1557f03bed3ea9f16b037cbe2dc981565b6000828152601460205260409020600201546117a290610e95611988565b610f3a5760405162461bcd60e51b8152600401808060200182810382526030815260200180611d656030913960400191505060405180910390fd5b600a546001600160a01b031681565b60045481565b6117fb33610e33565b6118365760405162461bcd60e51b8152600401808060200182810382526022815260200180611d436022913960400191505060405180910390fd5b6001600160a01b038216611881576040805162461bcd60e51b815260206004820152600d60248201526c696e707574206973207a65726f60981b604482015290519081900360640190fd5b816001600160a01b031661189482611afb565b6001600160a01b031614156118d9576040805162461bcd60e51b8152602060048083019190915260248201526373616d6560e01b604482015290519081900360640190fd5b6118ec6118e582611afb565b600061163c565b6118f882826001611a7f565b6040805182815290516001600160a01b038416917f5887ab9161c3be2fe962b73e068a9f29082efb6daf2bfcbd3f064bc34d1ef1b7919081900360200190a25050565b600e60205260009081526040902080546001820154600283015460038401546004909401549293919290919060ff1685565b3b151590565b60006115b8836001600160a01b038416611b4c565b3390565b60008281526014602052604090206119a49082611973565b15610edf576119b1611988565b6001600160a01b0316816001600160a01b0316837f2f8788117e7eff1d82e926ec794901d17c78024a50270940304540a733656f0d60405160405180910390a45050565b6000828152601460205260409020611a0d9082611b96565b15610edf57611a1a611988565b6001600160a01b0316816001600160a01b0316837ff6391f5c32d9c69d2a47ea670b442974b53935d1edc7fd64eb21e047a839171b60405160405180910390a45050565b60006115b88383611bab565b60006115b8836001600160a01b038416611c0f565b611a888361196d565b611ac35760405162461bcd60e51b8152600401808060200182810382526046815260200180611deb6046913960600191505060405180910390fd5b8015611af157600082815260116020526040902080546001600160a01b0319166001600160a01b0385161790555b610b868382611b16565b6000908152601160205260409020546001600160a01b031690565b6001600160a01b03919091166000908152601260205260409020805460ff1916911515919091179055565b6000610e4d82611c27565b6000611b588383611c0f565b611b8e57508154600181810184556000848152602080822090930184905584548482528286019093526040902091909155610e4d565b506000610e4d565b60006115b8836001600160a01b038416611c2b565b81546000908210611bed5760405162461bcd60e51b8152600401808060200182810382526022815260200180611cf26022913960400191505060405180910390fd5b826000018281548110611bfc57fe5b9060005260206000200154905092915050565b60009081526001919091016020526040902054151590565b5490565b60008181526001830160205260408120548015611ce75783546000198083019190810190600090879083908110611c5e57fe5b9060005260206000200154905080876000018481548110611c7b57fe5b600091825260208083209091019290925582815260018981019092526040902090840190558654879080611cab57fe5b60019003818190600052602060002001600090559055866001016000878152602001908152602001600020600090556001945050505050610e4d565b6000915050610e4d56fe456e756d657261626c655365743a20696e646578206f7574206f6620626f756e6473416363657373436f6e74726f6c3a2073656e646572206d75737420626520616e2061646d696e20746f206772616e7441636365737369626c653a2043616c6c6572206973206e6f7420616e2061646d696e416363657373436f6e74726f6c3a2073656e646572206d75737420626520616e2061646d696e20746f207265766f6b655072697661746553616c653a206f6e6c792061636365707420544f4e20616e642057544f4e20617070726f76652063616c6c6261636bdf8b4c520ffe197c5343c6f5aec59570151ef9a492f2c624fd45ddde6135ec4250726f7879426173653a2043616e6e6f742073657420612070726f787920696d706c656d656e746174696f6e20746f2061206e6f6e2d636f6e747261637420616464726573735374616b653150726f78793a205f73656c6563746f727327732073697a65206973207a65726f416363657373436f6e74726f6c3a2063616e206f6e6c792072656e6f756e636520726f6c657320666f722073656c66a2646970667358221220405dde06ac9d9bf729af59f32d5291ebd332ae9939f343c4ff5917b85e0099c464736f6c63430007060033df8b4c520ffe197c5343c6f5aec59570151ef9a492f2c624fd45ddde6135ec4250726f7879426173653a2043616e6e6f742073657420612070726f787920696d706c656d656e746174696f6e20746f2061206e6f6e2d636f6e74726163742061646472657373",
  "linkReferences": {},
  "deployedLinkReferences": {}
}