{
  "_format": "hh-sol-artifact-1",
  "contractName": "Stake2VaultProxy",
  "sourceName": "contracts/stake/Stake2VaultProxy.sol",
  "abi": [
    {
      "inputs": [
        {
          "internalType": "address",
          "name": "impl",
          "type": "address"
        }
      ],
      "stateMutability": "nonpayable",
      "type": "constructor"
    },
    {
      "anonymous": false,
      "inputs": [
        {
          "indexed": true,
          "internalType": "bytes32",
          "name": "role",
          "type": "bytes32"
        },
        {
          "indexed": true,
          "internalType": "bytes32",
          "name": "previousAdminRole",
          "type": "bytes32"
        },
        {
          "indexed": true,
          "internalType": "bytes32",
          "name": "newAdminRole",
          "type": "bytes32"
        }
      ],
      "name": "RoleAdminChanged",
      "type": "event"
    },
    {
      "anonymous": false,
      "inputs": [
        {
          "indexed": true,
          "internalType": "bytes32",
          "name": "role",
          "type": "bytes32"
        },
        {
          "indexed": true,
          "internalType": "address",
          "name": "account",
          "type": "address"
        },
        {
          "indexed": true,
          "internalType": "address",
          "name": "sender",
          "type": "address"
        }
      ],
      "name": "RoleGranted",
      "type": "event"
    },
    {
      "anonymous": false,
      "inputs": [
        {
          "indexed": true,
          "internalType": "bytes32",
          "name": "role",
          "type": "bytes32"
        },
        {
          "indexed": true,
          "internalType": "address",
          "name": "account",
          "type": "address"
        },
        {
          "indexed": true,
          "internalType": "address",
          "name": "sender",
          "type": "address"
        }
      ],
      "name": "RoleRevoked",
      "type": "event"
    },
    {
      "anonymous": false,
      "inputs": [
        {
          "indexed": true,
          "internalType": "address",
          "name": "implementation",
          "type": "address"
        }
      ],
      "name": "Upgraded",
      "type": "event"
    },
    {
      "stateMutability": "payable",
      "type": "fallback"
    },
    {
      "inputs": [],
      "name": "ADMIN_ROLE",
      "outputs": [
        {
          "internalType": "bytes32",
          "name": "",
          "type": "bytes32"
        }
      ],
      "stateMutability": "view",
      "type": "function"
    },
    {
      "inputs": [],
      "name": "BURNER_ROLE",
      "outputs": [
        {
          "internalType": "bytes32",
          "name": "",
          "type": "bytes32"
        }
      ],
      "stateMutability": "view",
      "type": "function"
    },
    {
      "inputs": [],
      "name": "DEFAULT_ADMIN_ROLE",
      "outputs": [
        {
          "internalType": "bytes32",
          "name": "",
          "type": "bytes32"
        }
      ],
      "stateMutability": "view",
      "type": "function"
    },
    {
      "inputs": [],
      "name": "MINTER_ROLE",
      "outputs": [
        {
          "internalType": "bytes32",
          "name": "",
          "type": "bytes32"
        }
      ],
      "stateMutability": "view",
      "type": "function"
    },
    {
      "inputs": [],
      "name": "PROJECT_ADMIN_ROLE",
      "outputs": [
        {
          "internalType": "bytes32",
          "name": "",
          "type": "bytes32"
        }
      ],
      "stateMutability": "view",
      "type": "function"
    },
    {
      "inputs": [
        {
          "internalType": "address",
          "name": "account",
          "type": "address"
        }
      ],
      "name": "addAdmin",
      "outputs": [],
      "stateMutability": "nonpayable",
      "type": "function"
    },
    {
      "inputs": [],
      "name": "cap",
      "outputs": [
        {
          "internalType": "uint256",
          "name": "",
          "type": "uint256"
        }
      ],
      "stateMutability": "view",
      "type": "function"
    },
    {
      "inputs": [
        {
          "internalType": "bytes32",
          "name": "role",
          "type": "bytes32"
        }
      ],
      "name": "getRoleAdmin",
      "outputs": [
        {
          "internalType": "bytes32",
          "name": "",
          "type": "bytes32"
        }
      ],
      "stateMutability": "view",
      "type": "function"
    },
    {
      "inputs": [
        {
          "internalType": "bytes32",
          "name": "role",
          "type": "bytes32"
        },
        {
          "internalType": "uint256",
          "name": "index",
          "type": "uint256"
        }
      ],
      "name": "getRoleMember",
      "outputs": [
        {
          "internalType": "address",
          "name": "",
          "type": "address"
        }
      ],
      "stateMutability": "view",
      "type": "function"
    },
    {
      "inputs": [
        {
          "internalType": "bytes32",
          "name": "role",
          "type": "bytes32"
        }
      ],
      "name": "getRoleMemberCount",
      "outputs": [
        {
          "internalType": "uint256",
          "name": "",
          "type": "uint256"
        }
      ],
      "stateMutability": "view",
      "type": "function"
    },
    {
      "inputs": [
        {
          "internalType": "bytes32",
          "name": "role",
          "type": "bytes32"
        },
        {
          "internalType": "address",
          "name": "account",
          "type": "address"
        }
      ],
      "name": "grantRole",
      "outputs": [],
      "stateMutability": "nonpayable",
      "type": "function"
    },
    {
      "inputs": [
        {
          "internalType": "bytes32",
          "name": "role",
          "type": "bytes32"
        },
        {
          "internalType": "address",
          "name": "account",
          "type": "address"
        }
      ],
      "name": "hasRole",
      "outputs": [
        {
          "internalType": "bool",
          "name": "",
          "type": "bool"
        }
      ],
      "stateMutability": "view",
      "type": "function"
    },
    {
      "inputs": [],
      "name": "implementation",
      "outputs": [
        {
          "internalType": "address",
          "name": "",
          "type": "address"
        }
      ],
      "stateMutability": "view",
      "type": "function"
    },
    {
      "inputs": [
        {
          "internalType": "address",
          "name": "_tos",
          "type": "address"
        },
        {
          "internalType": "address",
          "name": "_stakefactory",
          "type": "address"
        },
        {
          "internalType": "uint256",
          "name": "_stakeType",
          "type": "uint256"
        },
        {
          "internalType": "uint256",
          "name": "_cap",
          "type": "uint256"
        },
        {
          "internalType": "uint256",
          "name": "_miningPerSecond",
          "type": "uint256"
        },
        {
          "internalType": "string",
          "name": "_name",
          "type": "string"
        }
      ],
      "name": "initialize",
      "outputs": [],
      "stateMutability": "nonpayable",
      "type": "function"
    },
    {
      "inputs": [
        {
          "internalType": "address",
          "name": "account",
          "type": "address"
        }
      ],
      "name": "isAdmin",
      "outputs": [
        {
          "internalType": "bool",
          "name": "",
          "type": "bool"
        }
      ],
      "stateMutability": "view",
      "type": "function"
    },
    {
      "inputs": [],
      "name": "migratedL2",
      "outputs": [
        {
          "internalType": "bool",
          "name": "",
          "type": "bool"
        }
      ],
      "stateMutability": "view",
      "type": "function"
    },
    {
      "inputs": [],
      "name": "miningAmountTotal",
      "outputs": [
        {
          "internalType": "uint256",
          "name": "",
          "type": "uint256"
        }
      ],
      "stateMutability": "view",
      "type": "function"
    },
    {
      "inputs": [],
      "name": "miningEndTime",
      "outputs": [
        {
          "internalType": "uint256",
          "name": "",
          "type": "uint256"
        }
      ],
      "stateMutability": "view",
      "type": "function"
    },
    {
      "inputs": [],
      "name": "miningPerSecond",
      "outputs": [
        {
          "internalType": "uint256",
          "name": "",
          "type": "uint256"
        }
      ],
      "stateMutability": "view",
      "type": "function"
    },
    {
      "inputs": [],
      "name": "miningStartTime",
      "outputs": [
        {
          "internalType": "uint256",
          "name": "",
          "type": "uint256"
        }
      ],
      "stateMutability": "view",
      "type": "function"
    },
    {
      "inputs": [],
      "name": "name",
      "outputs": [
        {
          "internalType": "string",
          "name": "",
          "type": "string"
        }
      ],
      "stateMutability": "view",
      "type": "function"
    },
    {
      "inputs": [],
      "name": "nonMiningAmountTotal",
      "outputs": [
        {
          "internalType": "uint256",
          "name": "",
          "type": "uint256"
        }
      ],
      "stateMutability": "view",
      "type": "function"
    },
    {
      "inputs": [],
      "name": "pauseProxy",
      "outputs": [
        {
          "internalType": "bool",
          "name": "",
          "type": "bool"
        }
      ],
      "stateMutability": "view",
      "type": "function"
    },
    {
      "inputs": [
        {
          "internalType": "address",
          "name": "account",
          "type": "address"
        }
      ],
      "name": "removeAdmin",
      "outputs": [],
      "stateMutability": "nonpayable",
      "type": "function"
    },
    {
      "inputs": [
        {
          "internalType": "bytes32",
          "name": "role",
          "type": "bytes32"
        },
        {
          "internalType": "address",
          "name": "account",
          "type": "address"
        }
      ],
      "name": "renounceRole",
      "outputs": [],
      "stateMutability": "nonpayable",
      "type": "function"
    },
    {
      "inputs": [
        {
          "internalType": "bytes32",
          "name": "role",
          "type": "bytes32"
        },
        {
          "internalType": "address",
          "name": "account",
          "type": "address"
        }
      ],
      "name": "revokeRole",
      "outputs": [],
      "stateMutability": "nonpayable",
      "type": "function"
    },
    {
      "inputs": [
        {
          "internalType": "bool",
          "name": "_pause",
          "type": "bool"
        }
      ],
      "name": "setProxyPause",
      "outputs": [],
      "stateMutability": "nonpayable",
      "type": "function"
    },
    {
      "inputs": [],
      "name": "stakeAddress",
      "outputs": [
        {
          "internalType": "address",
          "name": "",
          "type": "address"
        }
      ],
      "stateMutability": "view",
      "type": "function"
    },
    {
      "inputs": [],
      "name": "stakeType",
      "outputs": [
        {
          "internalType": "uint256",
          "name": "",
          "type": "uint256"
        }
      ],
      "stateMutability": "view",
      "type": "function"
    },
    {
      "inputs": [],
      "name": "tos",
      "outputs": [
        {
          "internalType": "address",
          "name": "",
          "type": "address"
        }
      ],
      "stateMutability": "view",
      "type": "function"
    },
    {
      "inputs": [],
      "name": "totalMinedAmount",
      "outputs": [
        {
          "internalType": "uint256",
          "name": "",
          "type": "uint256"
        }
      ],
      "stateMutability": "view",
      "type": "function"
    },
    {
      "inputs": [
        {
          "internalType": "address",
          "name": "newAdmin",
          "type": "address"
        }
      ],
      "name": "transferAdmin",
      "outputs": [],
      "stateMutability": "nonpayable",
      "type": "function"
    },
    {
      "inputs": [
        {
          "internalType": "address",
          "name": "impl",
          "type": "address"
        }
      ],
      "name": "upgradeTo",
      "outputs": [],
      "stateMutability": "nonpayable",
      "type": "function"
    },
    {
      "stateMutability": "payable",
      "type": "receive"
    }
  ],
  "bytecode": "0x60806040523480156200001157600080fd5b506040516200197438038062001974833981810160405260208110156200003757600080fd5b50516001600160a01b03811662000095576040805162461bcd60e51b815260206004820152601f60248201527f5374616b65325661756c7450726f78793a206c6f676963206973207a65726f00604482015290519081900360640190fd5b620000a081620000dd565b620000bb6000805160206200190e8339815191528062000154565b620000d66000805160206200190e83398151915233620001a6565b50620002c0565b620000f381620001b660201b620010931760201c565b620001305760405162461bcd60e51b81526004018080602001828103825260468152602001806200192e6046913960600191505060405180910390fd5b7f360894a13ba1a3210667c828492db98dca3e2076cc3735a920a3ca505d382bbc55565b600082815260208190526040808220600201549051839285917fbd79b86ffe0ab8e8776151514217cd7cacd52c909f66475c3af44e129f0b00ff9190a460009182526020829052604090912060020155565b620001b28282620001bc565b5050565b3b151590565b600082815260208181526040909120620001e19183906200109962000235821b17901c565b15620001b257620001f162000255565b6001600160a01b0316816001600160a01b0316837f2f8788117e7eff1d82e926ec794901d17c78024a50270940304540a733656f0d60405160405180910390a45050565b60006200024c836001600160a01b03841662000259565b90505b92915050565b3390565b6000620002678383620002a8565b6200029f575081546001818101845560008481526020808220909301849055845484825282860190935260409020919091556200024f565b5060006200024f565b60009081526001919091016020526040902054151590565b61163e80620002d06000396000f3fe6080604052600436106101b25760003560e01c806370480275116100ed578063a1f5f50e11610090578063a1f5f50e146105fd578063a217fddf14610612578063af182fce14610627578063b90a762a1461063c578063b97af0db1461071b578063ca15c87314610730578063d53913931461075a578063d547741f1461076f578063f0091509146107a8576101fb565b806370480275146104c357806375829def146104f657806375b238fc146105295780637cb00d251461053e578063851073671461056a57806389f395de1461057f5780639010d07c1461059457806391d14854146105c4576101fb565b8063355274ea11610155578063355274ea146103bd57806336568abe146103d25780633659cfe61461040b57806341c04d5e1461043e5780634ce77abe146104535780635c60da1b146104685780635f139e3f1461049957806363a8fd89146104ae576101fb565b806301f88d261461020557806306fdde031461022c5780631785f53c146102b6578063248a9ca3146102e957806324d7806c146103135780632736b3911461035a578063282c51f31461036f5780632f2ff15d14610384576101fb565b366101fb576040805162461bcd60e51b815260206004820152601460248201527331b0b73737ba103932b1b2b4bb329022ba3432b960611b604482015290519081900360640190fd5b6102036107bd565b005b34801561021157600080fd5b5061021a610843565b60408051918252519081900360200190f35b34801561023857600080fd5b50610241610849565b6040805160208082528351818301528351919283929083019185019080838360005b8381101561027b578181015183820152602001610263565b50505050905090810190601f1680156102a85780820380516001836020036101000a031916815260200191505b509250505060405180910390f35b3480156102c257600080fd5b50610203600480360360208110156102d957600080fd5b50356001600160a01b03166108d4565b3480156102f557600080fd5b5061021a6004803603602081101561030c57600080fd5b5035610933565b34801561031f57600080fd5b506103466004803603602081101561033657600080fd5b50356001600160a01b0316610948565b604080519115158252519081900360200190f35b34801561036657600080fd5b5061021a610968565b34801561037b57600080fd5b5061021a61096e565b34801561039057600080fd5b50610203600480360360408110156103a757600080fd5b50803590602001356001600160a01b0316610992565b3480156103c957600080fd5b5061021a6109fe565b3480156103de57600080fd5b50610203600480360360408110156103f557600080fd5b50803590602001356001600160a01b0316610a04565b34801561041757600080fd5b506102036004803603602081101561042e57600080fd5b50356001600160a01b0316610a65565b34801561044a57600080fd5b5061021a610bab565b34801561045f57600080fd5b5061021a610bcf565b34801561047457600080fd5b5061047d610bd5565b604080516001600160a01b039092168252519081900360200190f35b3480156104a557600080fd5b5061021a610be4565b3480156104ba57600080fd5b50610346610bea565b3480156104cf57600080fd5b50610203600480360360208110156104e657600080fd5b50356001600160a01b0316610bf3565b34801561050257600080fd5b506102036004803603602081101561051957600080fd5b50356001600160a01b0316610c4f565b34801561053557600080fd5b5061021a610d70565b34801561054a57600080fd5b506102036004803603602081101561056157600080fd5b50351515610d82565b34801561057657600080fd5b5061047d610dd9565b34801561058b57600080fd5b5061047d610de8565b3480156105a057600080fd5b5061047d600480360360408110156105b757600080fd5b5080359060200135610df7565b3480156105d057600080fd5b50610346600480360360408110156105e757600080fd5b50803590602001356001600160a01b0316610e16565b34801561060957600080fd5b50610346610e2e565b34801561061e57600080fd5b5061021a610e3c565b34801561063357600080fd5b5061021a610e41565b34801561064857600080fd5b50610203600480360360c081101561065f57600080fd5b6001600160a01b0382358116926020810135909116916040820135916060810135916080820135919081019060c0810160a08201356401000000008111156106a657600080fd5b8201836020820111156106b857600080fd5b803590602001918460018302840111640100000000831117156106da57600080fd5b91908080601f016020809104026020016040519081016040528093929190818152602001838380828437600092019190915250929550610e47945050505050565b34801561072757600080fd5b5061021a610ff3565b34801561073c57600080fd5b5061021a6004803603602081101561075357600080fd5b5035610ff9565b34801561076657600080fd5b5061021a611010565b34801561077b57600080fd5b506102036004803603604081101561079257600080fd5b50803590602001356001600160a01b0316611034565b3480156107b457600080fd5b5061021a61108d565b60006107c76110ae565b90506001600160a01b038116158015906107e45750600d5460ff16155b61081f5760405162461bcd60e51b81526004018080602001828103825260288152602001806115276028913960400191505060405180910390fd5b3660008037600080366000845af43d6000803e80801561083e573d6000f35b3d6000fd5b60045481565b6002805460408051602060018416156101000260001901909316849004601f810184900484028201840190925281815292918301828280156108cc5780601f106108a1576101008083540402835291602001916108cc565b820191906000526020600020905b8154815290600101906020018083116108af57829003601f168201915b505050505081565b6108dd33610948565b6109185760405162461bcd60e51b81526004018080602001828103825260228152602001806114d56022913960400191505060405180910390fd5b61093060008051602061157483398151915282610a04565b50565b60009081526020819052604090206002015490565b600061096260008051602061157483398151915283610e16565b92915050565b60055481565b7f9667e80708b6eeeb0053fa0cca44e028ff548e2a9f029edfeac87c118b08b7c881565b6000828152602081905260409020600201546109b5906109b06110d3565b610e16565b6109f05760405162461bcd60e51b815260040180806020018281038252602f8152602001806114a6602f913960400191505060405180910390fd5b6109fa82826110d7565b5050565b60035481565b610a0c6110d3565b6001600160a01b0316816001600160a01b031614610a5b5760405162461bcd60e51b815260040180806020018281038252602f8152602001806115da602f913960400191505060405180910390fd5b6109fa8282611140565b610a6e33610948565b610aa95760405162461bcd60e51b81526004018080602001828103825260228152602001806114d56022913960400191505060405180910390fd5b6001600160a01b038116610b04576040805162461bcd60e51b815260206004820152601f60248201527f5374616b65325661756c7450726f78793a20696e707574206973207a65726f00604482015290519081900360640190fd5b806001600160a01b0316610b166110ae565b6001600160a01b03161415610b6b576040805162461bcd60e51b81526020600482015260166024820152755374616b65325661756c7450726f78793a2073616d6560501b604482015290519081900360640190fd5b610b74816111a9565b6040516001600160a01b038216907fbc7cd75a20ee27fd9adebab32041f755214dbc6bffa90cc0225b39da2e5c2d3b90600090a250565b7f52eafc11f6f81f86878bffd31109a0d92f37506527754f00788853ff9f63b13081565b60065481565b6000610bdf6110ae565b905090565b60095481565b600d5460ff1681565b610bfc33610948565b610c375760405162461bcd60e51b81526004018080602001828103825260228152602001806114d56022913960400191505060405180910390fd5b61093060008051602061157483398151915282610992565b610c5833610948565b610c935760405162461bcd60e51b81526004018080602001828103825260228152602001806114d56022913960400191505060405180910390fd5b6001600160a01b038116610ce9576040805162461bcd60e51b815260206004820152601860248201527741636365737369626c653a207a65726f206164647265737360401b604482015290519081900360640190fd5b336001600160a01b0382161415610d40576040805162461bcd60e51b815260206004820152601660248201527520b1b1b2b9b9b4b136329d1039b0b6b29030b236b4b760511b604482015290519081900360640190fd5b610d5860008051602061157483398151915282610992565b61093060008051602061157483398151915233610a04565b60008051602061157483398151915281565b610d8b33610948565b610dc65760405162461bcd60e51b81526004018080602001828103825260228152602001806114d56022913960400191505060405180910390fd5b600d805460ff1916911515919091179055565b6008546001600160a01b031681565b6001546001600160a01b031681565b6000828152602081905260408120610e0f9083611211565b9392505050565b6000828152602081905260408120610e0f908361121d565b600d54610100900460ff1681565b600081565b600a5481565b610e5033610948565b610e8b5760405162461bcd60e51b81526004018080602001828103825260228152602001806114d56022913960400191505060405180910390fd5b6001546001600160a01b031615610ed35760405162461bcd60e51b815260040180806020018281038252602581526020018061154f6025913960400191505060405180910390fd5b6001600160a01b03861615801590610ef357506001600160a01b03851615155b610f44576040805162461bcd60e51b815260206004820152601f60248201527f5374616b65325661756c7450726f78793a20696e707574206973207a65726f00604482015290519081900360640190fd5b60008311610f95576040805162461bcd60e51b81526020600482015260196024820152785374616b65315661756c743a205f636170206973207a65726f60381b604482015290519081900360640190fd5b600180546001600160a01b0319166001600160a01b0388161790556003839055600784905560068290558051610fd29060029060208401906113e2565b50610feb60008051602061157483398151915286610992565b505050505050565b60075481565b600081815260208190526040812061096290611232565b7ff0887ba65ee2024ea881d91b74c2450ef19e1557f03bed3ea9f16b037cbe2dc981565b600082815260208190526040902060020154611052906109b06110d3565b610a5b5760405162461bcd60e51b81526004018080602001828103825260308152602001806114f76030913960400191505060405180910390fd5b600b5481565b3b151590565b6000610e0f836001600160a01b03841661123d565b7f360894a13ba1a3210667c828492db98dca3e2076cc3735a920a3ca505d382bbc5490565b3390565b60008281526020819052604090206110ef9082611099565b156109fa576110fc6110d3565b6001600160a01b0316816001600160a01b0316837f2f8788117e7eff1d82e926ec794901d17c78024a50270940304540a733656f0d60405160405180910390a45050565b60008281526020819052604090206111589082611287565b156109fa576111656110d3565b6001600160a01b0316816001600160a01b0316837ff6391f5c32d9c69d2a47ea670b442974b53935d1edc7fd64eb21e047a839171b60405160405180910390a45050565b6111b281611093565b6111ed5760405162461bcd60e51b81526004018080602001828103825260468152602001806115946046913960600191505060405180910390fd5b7f360894a13ba1a3210667c828492db98dca3e2076cc3735a920a3ca505d382bbc55565b6000610e0f838361129c565b6000610e0f836001600160a01b038416611300565b600061096282611318565b60006112498383611300565b61127f57508154600181810184556000848152602080822090930184905584548482528286019093526040902091909155610962565b506000610962565b6000610e0f836001600160a01b03841661131c565b815460009082106112de5760405162461bcd60e51b81526004018080602001828103825260228152602001806114846022913960400191505060405180910390fd5b8260000182815481106112ed57fe5b9060005260206000200154905092915050565b60009081526001919091016020526040902054151590565b5490565b600081815260018301602052604081205480156113d8578354600019808301919081019060009087908390811061134f57fe5b906000526020600020015490508087600001848154811061136c57fe5b60009182526020808320909101929092558281526001898101909252604090209084019055865487908061139c57fe5b60019003818190600052602060002001600090559055866001016000878152602001908152602001600020600090556001945050505050610962565b6000915050610962565b828054600181600116156101000203166002900490600052602060002090601f016020900481019282611418576000855561145e565b82601f1061143157805160ff191683800117855561145e565b8280016001018555821561145e579182015b8281111561145e578251825591602001919060010190611443565b5061146a92915061146e565b5090565b5b8082111561146a576000815560010161146f56fe456e756d657261626c655365743a20696e646578206f7574206f6620626f756e6473416363657373436f6e74726f6c3a2073656e646572206d75737420626520616e2061646d696e20746f206772616e7441636365737369626c653a2043616c6c6572206973206e6f7420616e2061646d696e416363657373436f6e74726f6c3a2073656e646572206d75737420626520616e2061646d696e20746f207265766f6b655374616b65325661756c7450726f78793a20696d706c204f522070726f78792069732066616c73655374616b65325661756c7450726f78793a20616c726561647920696e697469616c697a6564df8b4c520ffe197c5343c6f5aec59570151ef9a492f2c624fd45ddde6135ec4250726f7879426173653a2043616e6e6f742073657420612070726f787920696d706c656d656e746174696f6e20746f2061206e6f6e2d636f6e74726163742061646472657373416363657373436f6e74726f6c3a2063616e206f6e6c792072656e6f756e636520726f6c657320666f722073656c66a2646970667358221220359473764abb9a83f724859620dddec5b3c9bae9006d2362f524d26b4ce7f0b764736f6c63430007060033df8b4c520ffe197c5343c6f5aec59570151ef9a492f2c624fd45ddde6135ec4250726f7879426173653a2043616e6e6f742073657420612070726f787920696d706c656d656e746174696f6e20746f2061206e6f6e2d636f6e74726163742061646472657373",
  "linkReferences": {},
  "deployedLinkReferences": {}
}