{
  "_format": "hh-sol-artifact-1",
  "contractName": "StakeUniswapV3Proxy",
  "sourceName": "contracts/stake/StakeUniswapV3Proxy.sol",
  "abi": [
    {
      "inputs": [
        {
          "internalType": "address",
          "name": "_logic",
          "type": "address"
        },
        {
          "internalType": "address",
          "name": "_coinageFactory",
          "type": "address"
        }
      ],
      "stateMutability": "nonpayable",
      "type": "constructor"
    },
    {
      "anonymous": false,
      "inputs": [
        {
          "indexed": true,
          "internalType": "bytes32",
          "name": "role",
          "type": "bytes32"
        },
        {
          "indexed": true,
          "internalType": "bytes32",
          "name": "previousAdminRole",
          "type": "bytes32"
        },
        {
          "indexed": true,
          "internalType": "bytes32",
          "name": "newAdminRole",
          "type": "bytes32"
        }
      ],
      "name": "RoleAdminChanged",
      "type": "event"
    },
    {
      "anonymous": false,
      "inputs": [
        {
          "indexed": true,
          "internalType": "bytes32",
          "name": "role",
          "type": "bytes32"
        },
        {
          "indexed": true,
          "internalType": "address",
          "name": "account",
          "type": "address"
        },
        {
          "indexed": true,
          "internalType": "address",
          "name": "sender",
          "type": "address"
        }
      ],
      "name": "RoleGranted",
      "type": "event"
    },
    {
      "anonymous": false,
      "inputs": [
        {
          "indexed": true,
          "internalType": "bytes32",
          "name": "role",
          "type": "bytes32"
        },
        {
          "indexed": true,
          "internalType": "address",
          "name": "account",
          "type": "address"
        },
        {
          "indexed": true,
          "internalType": "address",
          "name": "sender",
          "type": "address"
        }
      ],
      "name": "RoleRevoked",
      "type": "event"
    },
    {
      "anonymous": false,
      "inputs": [
        {
          "indexed": true,
          "internalType": "address",
          "name": "coinageFactory",
          "type": "address"
        }
      ],
      "name": "SetCoinageFactory",
      "type": "event"
    },
    {
      "anonymous": false,
      "inputs": [
        {
          "indexed": true,
          "internalType": "address",
          "name": "implementation",
          "type": "address"
        }
      ],
      "name": "Upgraded",
      "type": "event"
    },
    {
      "stateMutability": "payable",
      "type": "fallback"
    },
    {
      "inputs": [],
      "name": "ADMIN_ROLE",
      "outputs": [
        {
          "internalType": "bytes32",
          "name": "",
          "type": "bytes32"
        }
      ],
      "stateMutability": "view",
      "type": "function"
    },
    {
      "inputs": [],
      "name": "BURNER_ROLE",
      "outputs": [
        {
          "internalType": "bytes32",
          "name": "",
          "type": "bytes32"
        }
      ],
      "stateMutability": "view",
      "type": "function"
    },
    {
      "inputs": [],
      "name": "DEFAULT_ADMIN_ROLE",
      "outputs": [
        {
          "internalType": "bytes32",
          "name": "",
          "type": "bytes32"
        }
      ],
      "stateMutability": "view",
      "type": "function"
    },
    {
      "inputs": [],
      "name": "MINTER_ROLE",
      "outputs": [
        {
          "internalType": "bytes32",
          "name": "",
          "type": "bytes32"
        }
      ],
      "stateMutability": "view",
      "type": "function"
    },
    {
      "inputs": [],
      "name": "PROJECT_ADMIN_ROLE",
      "outputs": [
        {
          "internalType": "bytes32",
          "name": "",
          "type": "bytes32"
        }
      ],
      "stateMutability": "view",
      "type": "function"
    },
    {
      "inputs": [
        {
          "internalType": "address",
          "name": "account",
          "type": "address"
        }
      ],
      "name": "addAdmin",
      "outputs": [],
      "stateMutability": "nonpayable",
      "type": "function"
    },
    {
      "inputs": [],
      "name": "coinage",
      "outputs": [
        {
          "internalType": "address",
          "name": "",
          "type": "address"
        }
      ],
      "stateMutability": "view",
      "type": "function"
    },
    {
      "inputs": [],
      "name": "coinageLastMintBlockTimetamp",
      "outputs": [
        {
          "internalType": "uint256",
          "name": "",
          "type": "uint256"
        }
      ],
      "stateMutability": "view",
      "type": "function"
    },
    {
      "inputs": [],
      "name": "deployCoinage",
      "outputs": [],
      "stateMutability": "nonpayable",
      "type": "function"
    },
    {
      "inputs": [
        {
          "internalType": "uint256",
          "name": "",
          "type": "uint256"
        }
      ],
      "name": "depositTokens",
      "outputs": [
        {
          "internalType": "address",
          "name": "owner",
          "type": "address"
        },
        {
          "internalType": "uint256",
          "name": "idIndex",
          "type": "uint256"
        },
        {
          "internalType": "uint128",
          "name": "liquidity",
          "type": "uint128"
        },
        {
          "internalType": "int24",
          "name": "tickLower",
          "type": "int24"
        },
        {
          "internalType": "int24",
          "name": "tickUpper",
          "type": "int24"
        },
        {
          "internalType": "uint32",
          "name": "startTime",
          "type": "uint32"
        },
        {
          "internalType": "uint32",
          "name": "claimedTime",
          "type": "uint32"
        },
        {
          "internalType": "uint160",
          "name": "secondsInsideInitial",
          "type": "uint160"
        },
        {
          "internalType": "uint160",
          "name": "secondsInsideLast",
          "type": "uint160"
        },
        {
          "internalType": "bool",
          "name": "claimLock",
          "type": "bool"
        },
        {
          "internalType": "bool",
          "name": "withdraw",
          "type": "bool"
        }
      ],
      "stateMutability": "view",
      "type": "function"
    },
    {
      "inputs": [
        {
          "internalType": "bytes32",
          "name": "role",
          "type": "bytes32"
        }
      ],
      "name": "getRoleAdmin",
      "outputs": [
        {
          "internalType": "bytes32",
          "name": "",
          "type": "bytes32"
        }
      ],
      "stateMutability": "view",
      "type": "function"
    },
    {
      "inputs": [
        {
          "internalType": "bytes32",
          "name": "role",
          "type": "bytes32"
        },
        {
          "internalType": "uint256",
          "name": "index",
          "type": "uint256"
        }
      ],
      "name": "getRoleMember",
      "outputs": [
        {
          "internalType": "address",
          "name": "",
          "type": "address"
        }
      ],
      "stateMutability": "view",
      "type": "function"
    },
    {
      "inputs": [
        {
          "internalType": "bytes32",
          "name": "role",
          "type": "bytes32"
        }
      ],
      "name": "getRoleMemberCount",
      "outputs": [
        {
          "internalType": "uint256",
          "name": "",
          "type": "uint256"
        }
      ],
      "stateMutability": "view",
      "type": "function"
    },
    {
      "inputs": [
        {
          "internalType": "bytes32",
          "name": "role",
          "type": "bytes32"
        },
        {
          "internalType": "address",
          "name": "account",
          "type": "address"
        }
      ],
      "name": "grantRole",
      "outputs": [],
      "stateMutability": "nonpayable",
      "type": "function"
    },
    {
      "inputs": [
        {
          "internalType": "bytes32",
          "name": "role",
          "type": "bytes32"
        },
        {
          "internalType": "address",
          "name": "account",
          "type": "address"
        }
      ],
      "name": "hasRole",
      "outputs": [
        {
          "internalType": "bool",
          "name": "",
          "type": "bool"
        }
      ],
      "stateMutability": "view",
      "type": "function"
    },
    {
      "inputs": [],
      "name": "implementation",
      "outputs": [
        {
          "internalType": "address",
          "name": "",
          "type": "address"
        }
      ],
      "stateMutability": "view",
      "type": "function"
    },
    {
      "inputs": [
        {
          "internalType": "address",
          "name": "account",
          "type": "address"
        }
      ],
      "name": "isAdmin",
      "outputs": [
        {
          "internalType": "bool",
          "name": "",
          "type": "bool"
        }
      ],
      "stateMutability": "view",
      "type": "function"
    },
    {
      "inputs": [],
      "name": "migratedL2",
      "outputs": [
        {
          "internalType": "bool",
          "name": "",
          "type": "bool"
        }
      ],
      "stateMutability": "view",
      "type": "function"
    },
    {
      "inputs": [],
      "name": "miningAmountTotal",
      "outputs": [
        {
          "internalType": "uint256",
          "name": "",
          "type": "uint256"
        }
      ],
      "stateMutability": "view",
      "type": "function"
    },
    {
      "inputs": [],
      "name": "miningIntervalSeconds",
      "outputs": [
        {
          "internalType": "uint256",
          "name": "",
          "type": "uint256"
        }
      ],
      "stateMutability": "view",
      "type": "function"
    },
    {
      "inputs": [],
      "name": "nonMiningAmountTotal",
      "outputs": [
        {
          "internalType": "uint256",
          "name": "",
          "type": "uint256"
        }
      ],
      "stateMutability": "view",
      "type": "function"
    },
    {
      "inputs": [],
      "name": "nonfungiblePositionManager",
      "outputs": [
        {
          "internalType": "contract INonfungiblePositionManager",
          "name": "",
          "type": "address"
        }
      ],
      "stateMutability": "view",
      "type": "function"
    },
    {
      "inputs": [],
      "name": "pauseProxy",
      "outputs": [
        {
          "internalType": "bool",
          "name": "",
          "type": "bool"
        }
      ],
      "stateMutability": "view",
      "type": "function"
    },
    {
      "inputs": [],
      "name": "poolAddress",
      "outputs": [
        {
          "internalType": "address",
          "name": "",
          "type": "address"
        }
      ],
      "stateMutability": "view",
      "type": "function"
    },
    {
      "inputs": [],
      "name": "poolFee",
      "outputs": [
        {
          "internalType": "uint256",
          "name": "",
          "type": "uint256"
        }
      ],
      "stateMutability": "view",
      "type": "function"
    },
    {
      "inputs": [],
      "name": "poolToken0",
      "outputs": [
        {
          "internalType": "address",
          "name": "",
          "type": "address"
        }
      ],
      "stateMutability": "view",
      "type": "function"
    },
    {
      "inputs": [],
      "name": "poolToken1",
      "outputs": [
        {
          "internalType": "address",
          "name": "",
          "type": "address"
        }
      ],
      "stateMutability": "view",
      "type": "function"
    },
    {
      "inputs": [
        {
          "internalType": "address",
          "name": "account",
          "type": "address"
        }
      ],
      "name": "removeAdmin",
      "outputs": [],
      "stateMutability": "nonpayable",
      "type": "function"
    },
    {
      "inputs": [
        {
          "internalType": "bytes32",
          "name": "role",
          "type": "bytes32"
        },
        {
          "internalType": "address",
          "name": "account",
          "type": "address"
        }
      ],
      "name": "renounceRole",
      "outputs": [],
      "stateMutability": "nonpayable",
      "type": "function"
    },
    {
      "inputs": [
        {
          "internalType": "bytes32",
          "name": "role",
          "type": "bytes32"
        },
        {
          "internalType": "address",
          "name": "account",
          "type": "address"
        }
      ],
      "name": "revokeRole",
      "outputs": [],
      "stateMutability": "nonpayable",
      "type": "function"
    },
    {
      "inputs": [],
      "name": "saleStartTime",
      "outputs": [
        {
          "internalType": "uint256",
          "name": "",
          "type": "uint256"
        }
      ],
      "stateMutability": "view",
      "type": "function"
    },
    {
      "inputs": [
        {
          "internalType": "address",
          "name": "_newCoinageFactory",
          "type": "address"
        }
      ],
      "name": "setCoinageFactory",
      "outputs": [],
      "stateMutability": "nonpayable",
      "type": "function"
    },
    {
      "inputs": [
        {
          "internalType": "address[4]",
          "name": "_addr",
          "type": "address[4]"
        },
        {
          "internalType": "address",
          "name": "_registry",
          "type": "address"
        },
        {
          "internalType": "uint256[3]",
          "name": "_intdata",
          "type": "uint256[3]"
        }
      ],
      "name": "setInit",
      "outputs": [],
      "stateMutability": "nonpayable",
      "type": "function"
    },
    {
      "inputs": [
        {
          "internalType": "address[4]",
          "name": "uniswapInfo",
          "type": "address[4]"
        }
      ],
      "name": "setPool",
      "outputs": [],
      "stateMutability": "nonpayable",
      "type": "function"
    },
    {
      "inputs": [
        {
          "internalType": "bool",
          "name": "_pause",
          "type": "bool"
        }
      ],
      "name": "setProxyPause",
      "outputs": [],
      "stateMutability": "nonpayable",
      "type": "function"
    },
    {
      "inputs": [],
      "name": "stakeRegistry",
      "outputs": [
        {
          "internalType": "address",
          "name": "",
          "type": "address"
        }
      ],
      "stateMutability": "view",
      "type": "function"
    },
    {
      "inputs": [],
      "name": "stakeStartTime",
      "outputs": [
        {
          "internalType": "uint256",
          "name": "",
          "type": "uint256"
        }
      ],
      "stateMutability": "view",
      "type": "function"
    },
    {
      "inputs": [
        {
          "internalType": "uint256",
          "name": "",
          "type": "uint256"
        }
      ],
      "name": "stakedCoinageTokens",
      "outputs": [
        {
          "internalType": "uint256",
          "name": "amount",
          "type": "uint256"
        },
        {
          "internalType": "uint32",
          "name": "startTime",
          "type": "uint32"
        },
        {
          "internalType": "uint32",
          "name": "claimedTime",
          "type": "uint32"
        },
        {
          "internalType": "uint256",
          "name": "claimedAmount",
          "type": "uint256"
        },
        {
          "internalType": "uint256",
          "name": "nonMiningAmount",
          "type": "uint256"
        }
      ],
      "stateMutability": "view",
      "type": "function"
    },
    {
      "inputs": [],
      "name": "token",
      "outputs": [
        {
          "internalType": "address",
          "name": "",
          "type": "address"
        }
      ],
      "stateMutability": "view",
      "type": "function"
    },
    {
      "inputs": [],
      "name": "totalStakedAmount",
      "outputs": [
        {
          "internalType": "uint256",
          "name": "",
          "type": "uint256"
        }
      ],
      "stateMutability": "view",
      "type": "function"
    },
    {
      "inputs": [],
      "name": "totalStakers",
      "outputs": [
        {
          "internalType": "uint256",
          "name": "",
          "type": "uint256"
        }
      ],
      "stateMutability": "view",
      "type": "function"
    },
    {
      "inputs": [],
      "name": "totalTokens",
      "outputs": [
        {
          "internalType": "uint256",
          "name": "",
          "type": "uint256"
        }
      ],
      "stateMutability": "view",
      "type": "function"
    },
    {
      "inputs": [
        {
          "internalType": "address",
          "name": "newAdmin",
          "type": "address"
        }
      ],
      "name": "transferAdmin",
      "outputs": [],
      "stateMutability": "nonpayable",
      "type": "function"
    },
    {
      "inputs": [],
      "name": "uniswapV3FactoryAddress",
      "outputs": [
        {
          "internalType": "address",
          "name": "",
          "type": "address"
        }
      ],
      "stateMutability": "view",
      "type": "function"
    },
    {
      "inputs": [
        {
          "internalType": "address",
          "name": "impl",
          "type": "address"
        }
      ],
      "name": "upgradeTo",
      "outputs": [],
      "stateMutability": "nonpayable",
      "type": "function"
    },
    {
      "inputs": [
        {
          "internalType": "address",
          "name": "",
          "type": "address"
        },
        {
          "internalType": "uint256",
          "name": "",
          "type": "uint256"
        }
      ],
      "name": "userStakedTokenIds",
      "outputs": [
        {
          "internalType": "uint256",
          "name": "",
          "type": "uint256"
        }
      ],
      "stateMutability": "view",
      "type": "function"
    },
    {
      "inputs": [
        {
          "internalType": "address",
          "name": "",
          "type": "address"
        }
      ],
      "name": "userTotalStaked",
      "outputs": [
        {
          "internalType": "bool",
          "name": "staked",
          "type": "bool"
        },
        {
          "internalType": "uint256",
          "name": "totalDepositAmount",
          "type": "uint256"
        },
        {
          "internalType": "uint256",
          "name": "totalMiningAmount",
          "type": "uint256"
        },
        {
          "internalType": "uint256",
          "name": "totalNonMiningAmount",
          "type": "uint256"
        }
      ],
      "stateMutability": "view",
      "type": "function"
    },
    {
      "inputs": [],
      "name": "vault",
      "outputs": [
        {
          "internalType": "address",
          "name": "",
          "type": "address"
        }
      ],
      "stateMutability": "view",
      "type": "function"
    },
    {
      "stateMutability": "payable",
      "type": "receive"
    }
  ],
  "bytecode": "0x60806040523480156200001157600080fd5b50604051620022da380380620022da833981810160405260408110156200003757600080fd5b5080516020909101516001600160a01b038216620000875760405162461bcd60e51b8152600401808060200182810382526022815260200180620022b86022913960400191505060405180910390fd5b6200009282620000f6565b6200009d816200016d565b620000b86000805160206200225283398151915280620001e4565b620000d3600080516020620022528339815191523362000236565b620000ee600080516020620022528339815191523062000236565b505062000352565b6200010c816200024660201b620017c51760201c565b620001495760405162461bcd60e51b8152600401808060200182810382526046815260200180620022726046913960600191505060405180910390fd5b7f360894a13ba1a3210667c828492db98dca3e2076cc3735a920a3ca505d382bbc55565b62000183816200024660201b620017c51760201c565b620001c05760405162461bcd60e51b8152600401808060200182810382526050815260200180620022026050913960600191505060405180910390fd5b7fc7786c8b03ed9d3280cb3993e8a3aa05e40c849d7d1560c7764528bab63ba0ea55565b6000828152601a6020526040808220600201549051839285917fbd79b86ffe0ab8e8776151514217cd7cacd52c909f66475c3af44e129f0b00ff9190a46000918252601a602052604090912060020155565b6200024282826200024c565b5050565b3b151590565b6000828152601a6020908152604090912062000273918390620017cb620002c7821b17901c565b15620002425762000283620002e7565b6001600160a01b0316816001600160a01b0316837f2f8788117e7eff1d82e926ec794901d17c78024a50270940304540a733656f0d60405160405180910390a45050565b6000620002de836001600160a01b038416620002eb565b90505b92915050565b3390565b6000620002f983836200033a565b6200033157508154600181810184556000848152602080822090930184905584548482528286019093526040902091909155620002e1565b506000620002e1565b60009081526001919091016020526040902054151590565b611ea080620003626000396000f3fe6080604052600436106102975760003560e01c806375829def1161015a578063ac893219116100c1578063d53913931161007a578063d5391393146108db578063d547741f146108f0578063dd49756e14610929578063e7bf950c146109d3578063fbfa77cf14610a73578063fc0c546a14610a88576102a6565b8063ac893219146107e1578063ad1b390914610814578063af182fce14610829578063b44a27221461083e578063b8ebb13314610853578063ca15c873146108b1576102a6565b8063869890381161011357806386989038146107245780639010d07c1461073957806391d1485414610769578063a1f5f50e146107a2578063a217fddf146107b7578063a73bf6df146107cc576102a6565b806375829def1461062757806375b238fc1461065a578063773fb7cc1461066f5780637cb00d25146106ce5780637e1c0c09146106fa57806380f5db8c1461070f576102a6565b80633ad26df5116101fe5780635f139e3f116101b75780635f139e3f1461054557806363a8fd891461055a578063683048351461056f5780637048027514610584578063719de1ef146105b75780637419f19014610612576102a6565b80633ad26df5146104a357806341c04d5e146104b85780634758af8a146104cd57806349cba16c146104e2578063567e98f91461051b5780635c60da1b14610530576102a6565b806324d7806c1161025057806324d7806c1461038d578063282c51f3146103d45780632867bb5b146103e95780632f2ff15d146103fe57806336568abe146104375780633659cfe614610470576102a6565b806302ff153e146102ae578063089fe6aa146102d55780631755ff21146102ea5780631785f53c1461031b5780631cbaee2d1461034e578063248a9ca314610363576102a6565b366102a6576102a4610a9d565b005b6102a4610a9d565b3480156102ba57600080fd5b506102c3610b23565b60408051918252519081900360200190f35b3480156102e157600080fd5b506102c3610b29565b3480156102f657600080fd5b506102ff610b2f565b604080516001600160a01b039092168252519081900360200190f35b34801561032757600080fd5b506102a46004803603602081101561033e57600080fd5b50356001600160a01b0316610b3e565b34801561035a57600080fd5b506102c3610b9d565b34801561036f57600080fd5b506102c36004803603602081101561038657600080fd5b5035610ba3565b34801561039957600080fd5b506103c0600480360360208110156103b057600080fd5b50356001600160a01b0316610bb8565b604080519115158252519081900360200190f35b3480156103e057600080fd5b506102c3610bd8565b3480156103f557600080fd5b506102c3610bfc565b34801561040a57600080fd5b506102a46004803603604081101561042157600080fd5b50803590602001356001600160a01b0316610c02565b34801561044357600080fd5b506102a46004803603604081101561045a57600080fd5b50803590602001356001600160a01b0316610c6e565b34801561047c57600080fd5b506102a46004803603602081101561049357600080fd5b50356001600160a01b0316610ccf565b3480156104af57600080fd5b506102a4610def565b3480156104c457600080fd5b506102c3610fa9565b3480156104d957600080fd5b506102ff610fcd565b3480156104ee57600080fd5b506102c36004803603604081101561050557600080fd5b506001600160a01b038135169060200135610fdc565b34801561052757600080fd5b506102c361100d565b34801561053c57600080fd5b506102ff611013565b34801561055157600080fd5b506102c3611022565b34801561056657600080fd5b506103c0611028565b34801561057b57600080fd5b506102ff611031565b34801561059057600080fd5b506102a4600480360360208110156105a757600080fd5b50356001600160a01b0316611040565b3480156105c357600080fd5b506105ea600480360360208110156105da57600080fd5b50356001600160a01b031661109c565b6040805194151585526020850193909352838301919091526060830152519081900360800190f35b34801561061e57600080fd5b506102c36110c7565b34801561063357600080fd5b506102a46004803603602081101561064a57600080fd5b50356001600160a01b03166110cd565b34801561066657600080fd5b506102c36111ee565b34801561067b57600080fd5b506102a46004803603608081101561069257600080fd5b81019080806080019060048060200260405190810160405280929190826004602002808284376000920191909152509194506112009350505050565b3480156106da57600080fd5b506102a4600480360360208110156106f157600080fd5b503515156113cb565b34801561070657600080fd5b506102c3611422565b34801561071b57600080fd5b506102ff611428565b34801561073057600080fd5b506102c3611437565b34801561074557600080fd5b506102ff6004803603604081101561075c57600080fd5b508035906020013561143d565b34801561077557600080fd5b506103c06004803603604081101561078c57600080fd5b50803590602001356001600160a01b031661145c565b3480156107ae57600080fd5b506103c0611474565b3480156107c357600080fd5b506102c361147d565b3480156107d857600080fd5b506102ff611482565b3480156107ed57600080fd5b506102a46004803603602081101561080457600080fd5b50356001600160a01b0316611491565b34801561082057600080fd5b506102ff611515565b34801561083557600080fd5b506102c3611524565b34801561084a57600080fd5b506102ff61152a565b34801561085f57600080fd5b5061087d6004803603602081101561087657600080fd5b5035611539565b6040805195865263ffffffff9485166020870152929093168483015260608401526080830191909152519081900360a00190f35b3480156108bd57600080fd5b506102c3600480360360208110156108d457600080fd5b5035611572565b3480156108e757600080fd5b506102c3611589565b3480156108fc57600080fd5b506102a46004803603604081101561091357600080fd5b50803590602001356001600160a01b03166115ad565b34801561093557600080fd5b506109536004803603602081101561094c57600080fd5b5035611606565b604080516001600160a01b039c8d168152602081019b909b526001600160801b039099168a8a0152600297880b60608b01529590960b608089015263ffffffff93841660a08901529190921660c087015290861660e086015290941661010084015215156101208301529115156101408201529051908190036101600190f35b3480156109df57600080fd5b506102a460048036036101008110156109f757600080fd5b81019080806080019060048060200260405190810160405280929190826004602002808284376000920191909152505060408051606081810190925292956001600160a01b0385351695909490936080820193509160209091019060039083908390808284376000920191909152509194506116909350505050565b348015610a7f57600080fd5b506102ff6117a7565b348015610a9457600080fd5b506102ff6117b6565b6000610aa7611013565b90506001600160a01b03811615801590610ac45750600c5460ff16155b610aff5760405162461bcd60e51b8152600401808060200182810382526033815260200180611c656033913960400191505060405180910390fd5b3660008037600080366000845af43d6000803e808015610b1e573d6000f35b3d6000fd5b60175481565b60135481565b6012546001600160a01b031681565b610b4733610bb8565b610b825760405162461bcd60e51b8152600401808060200182810382526022815260200180611bf36022913960400191505060405180910390fd5b610b9a600080516020611d1783398151915282610c6e565b50565b600e5481565b6000908152601a602052604090206002015490565b6000610bd2600080516020611d178339815191528361145c565b92915050565b7f9667e80708b6eeeb0053fa0cca44e028ff548e2a9f029edfeac87c118b08b7c881565b600f5481565b6000828152601a6020526040902060020154610c2590610c206117e0565b61145c565b610c605760405162461bcd60e51b815260040180806020018281038252602f815260200180611bc4602f913960400191505060405180910390fd5b610c6a82826117e4565b5050565b610c766117e0565b6001600160a01b0316816001600160a01b031614610cc55760405162461bcd60e51b815260040180806020018281038252602f815260200180611e3c602f913960400191505060405180910390fd5b610c6a828261184d565b610cd833610bb8565b610d135760405162461bcd60e51b8152600401808060200182810382526022815260200180611bf36022913960400191505060405180910390fd5b6001600160a01b038116610d585760405162461bcd60e51b8152600401808060200182810382526021815260200180611e1b6021913960400191505060405180910390fd5b806001600160a01b0316610d6a6118b6565b6001600160a01b03161415610daf576040805162461bcd60e51b8152602060048083019190915260248201526373616d6560e01b604482015290519081900360640190fd5b610db8816118db565b6040516001600160a01b038216907fbc7cd75a20ee27fd9adebab32041f755214dbc6bffa90cc0225b39da2e5c2d3b90600090a250565b610df833610bb8565b610e335760405162461bcd60e51b8152600401808060200182810382526022815260200180611bf36022913960400191505060405180910390fd5b6016546001600160a01b031615610e7b5760405162461bcd60e51b8152600401808060200182810382526028815260200180611d376028913960400191505060405180910390fd5b6000610e85611943565b6001600160a01b03161415610ecb5760405162461bcd60e51b815260040180806020018281038252602c815260200180611ceb602c913960400191505060405180910390fd5b610ed3611943565b6001600160a01b0316634c96a389306040518263ffffffff1660e01b815260040180826001600160a01b03168152602001915050602060405180830381600087803b158015610f2157600080fd5b505af1158015610f35573d6000803e3d6000fd5b505050506040513d6020811015610f4b57600080fd5b5051601680546001600160a01b0319166001600160a01b03928316179081905516610fa75760405162461bcd60e51b815260040180806020018281038252602d815260200180611da5602d913960400191505060405180910390fd5b565b7f52eafc11f6f81f86878bffd31109a0d92f37506527754f00788853ff9f63b13081565b6011546001600160a01b031681565b60066020528160005260406000208181548110610ff857600080fd5b90600052602060002001600091509150505481565b60055481565b600061101d6118b6565b905090565b60035481565b600c5460ff1681565b6001546001600160a01b031681565b61104933610bb8565b6110845760405162461bcd60e51b8152600401808060200182810382526022815260200180611bf36022913960400191505060405180910390fd5b610b9a600080516020611d1783398151915282610c02565b600960205260009081526040902080546001820154600283015460039093015460ff90921692909184565b600d5481565b6110d633610bb8565b6111115760405162461bcd60e51b8152600401808060200182810382526022815260200180611bf36022913960400191505060405180910390fd5b6001600160a01b038116611167576040805162461bcd60e51b815260206004820152601860248201527741636365737369626c653a207a65726f206164647265737360401b604482015290519081900360640190fd5b336001600160a01b03821614156111be576040805162461bcd60e51b815260206004820152601660248201527520b1b1b2b9b9b4b136329d1039b0b6b29030b236b4b760511b604482015290519081900360640190fd5b6111d6600080516020611d1783398151915282610c02565b610b9a600080516020611d1783398151915233610c6e565b600080516020611d1783398151915281565b61120933610bb8565b6112445760405162461bcd60e51b8152600401808060200182810382526022815260200180611bf36022913960400191505060405180910390fd5b80516001600160a01b03811661128b5760405162461bcd60e51b8152600401808060200182810382526023815260200180611cc86023913960400191505060405180910390fd5b60208201516001600160a01b0381166112d55760405162461bcd60e51b8152600401808060200182810382526023815260200180611cc86023913960400191505060405180910390fd5b60408301516001600160a01b03811661131f5760405162461bcd60e51b8152600401808060200182810382526023815260200180611cc86023913960400191505060405180910390fd5b60608401516001600160a01b0381166113695760405162461bcd60e51b8152600401808060200182810382526023815260200180611cc86023913960400191505060405180910390fd5b50508251601480546001600160a01b03199081166001600160a01b039384161790915560208501516015805483169184169190911790556040850151601080548316918416919091179055606090940151601180549095169116179092555050565b6113d433610bb8565b61140f5760405162461bcd60e51b8152600401808060200182810382526022815260200180611bf36022913960400191505060405180910390fd5b600c805460ff1916911515919091179055565b60185481565b6015546001600160a01b031681565b600a5481565b6000828152601a602052604081206114559083611968565b9392505050565b6000828152601a602052604081206114559083611974565b60195460ff1681565b600081565b6010546001600160a01b031681565b61149a33610bb8565b6114d55760405162461bcd60e51b8152600401808060200182810382526022815260200180611bf36022913960400191505060405180910390fd5b6114de81611989565b6040516001600160a01b038216907fca97b456472d4c710e538003da4aabca30b5f46f7556eff55a08ce89ac69bc7a90600090a250565b6016546001600160a01b031681565b60045481565b6014546001600160a01b031681565b6008602052600090815260409020805460018201546002830154600390930154919263ffffffff80831693640100000000909304169185565b6000818152601a60205260408120610bd2906119f1565b7ff0887ba65ee2024ea881d91b74c2450ef19e1557f03bed3ea9f16b037cbe2dc981565b6000828152601a60205260409020600201546115cb90610c206117e0565b610cc55760405162461bcd60e51b8152600401808060200182810382526030815260200180611c986030913960400191505060405180910390fd5b60076020526000908152604090208054600182015460028084015460038501546004909501546001600160a01b039485169593946001600160801b03831694600160801b8404850b94600160981b8504900b9363ffffffff600160b01b8204811694600160d01b90920416929182169181169060ff600160a01b8204811691600160a81b9004168b565b61169933610bb8565b6116d45760405162461bcd60e51b8152600401808060200182810382526022815260200180611bf36022913960400191505060405180910390fd5b6000546001600160a01b03161561171c5760405162461bcd60e51b8152600401808060200182810382526028815260200180611df36028913960400191505060405180910390fd5b82516001600160a01b03166117625760405162461bcd60e51b8152600401808060200182810382526021815260200180611dd26021913960400191505060405180910390fd5b508151600080546001600160a01b039283166001600160a01b031991821617909155604090930151600280548516918316919091179055600180549093169116179055565b6002546001600160a01b031681565b6000546001600160a01b031681565b3b151590565b6000611455836001600160a01b0384166119fc565b3390565b6000828152601a602052604090206117fc90826117cb565b15610c6a576118096117e0565b6001600160a01b0316816001600160a01b0316837f2f8788117e7eff1d82e926ec794901d17c78024a50270940304540a733656f0d60405160405180910390a45050565b6000828152601a602052604090206118659082611a46565b15610c6a576118726117e0565b6001600160a01b0316816001600160a01b0316837ff6391f5c32d9c69d2a47ea670b442974b53935d1edc7fd64eb21e047a839171b60405160405180910390a45050565b7f360894a13ba1a3210667c828492db98dca3e2076cc3735a920a3ca505d382bbc5490565b6118e4816117c5565b61191f5760405162461bcd60e51b8152600401808060200182810382526046815260200180611d5f6046913960600191505060405180910390fd5b7f360894a13ba1a3210667c828492db98dca3e2076cc3735a920a3ca505d382bbc55565b7fc7786c8b03ed9d3280cb3993e8a3aa05e40c849d7d1560c7764528bab63ba0ea5490565b60006114558383611a5b565b6000611455836001600160a01b038416611abf565b611992816117c5565b6119cd5760405162461bcd60e51b8152600401808060200182810382526050815260200180611c156050913960600191505060405180910390fd5b7fc7786c8b03ed9d3280cb3993e8a3aa05e40c849d7d1560c7764528bab63ba0ea55565b6000610bd282611ad7565b6000611a088383611abf565b611a3e57508154600181810184556000848152602080822090930184905584548482528286019093526040902091909155610bd2565b506000610bd2565b6000611455836001600160a01b038416611adb565b81546000908210611a9d5760405162461bcd60e51b8152600401808060200182810382526022815260200180611ba26022913960400191505060405180910390fd5b826000018281548110611aac57fe5b9060005260206000200154905092915050565b60009081526001919091016020526040902054151590565b5490565b60008181526001830160205260408120548015611b975783546000198083019190810190600090879083908110611b0e57fe5b9060005260206000200154905080876000018481548110611b2b57fe5b600091825260208083209091019290925582815260018981019092526040902090840190558654879080611b5b57fe5b60019003818190600052602060002001600090559055866001016000878152602001908152602001600020600090556001945050505050610bd2565b6000915050610bd256fe456e756d657261626c655365743a20696e646578206f7574206f6620626f756e6473416363657373436f6e74726f6c3a2073656e646572206d75737420626520616e2061646d696e20746f206772616e7441636365737369626c653a2043616c6c6572206973206e6f7420616e2061646d696e436f696e616765466163746f7279534c4f543a2043616e6e6f742073657420612070726f787920636f696e61676520666163746f727920746f2061206e6f6e2d636f6e747261637420616464726573735374616b65556e6973776170563350726f78793a20696d706c206973207a65726f204f522070726f78792069732066616c7365416363657373436f6e74726f6c3a2073656e646572206d75737420626520616e2061646d696e20746f207265766f6b655374616b65556e6973776170563353746f726167653a207a65726f20616464726573735374616b65556e6973776170563350726f78793a205f636f696e616765466163746f7279206973207a65726fdf8b4c520ffe197c5343c6f5aec59570151ef9a492f2c624fd45ddde6135ec425374616b65556e6973776170563350726f78793a20616c65726164792073657420636f696e61676550726f7879426173653a2043616e6e6f742073657420612070726f787920696d706c656d656e746174696f6e20746f2061206e6f6e2d636f6e747261637420616464726573735374616b65556e6973776170563350726f78793a206465706c6f79656420636f696e616765206973207a65726f5374616b65556e6973776170563350726f78793a20736574496e6974206661696c5374616b65556e6973776170563350726f78793a20616c726561647920696e697469616c697a65645374616b65556e6973776170563350726f78793a20696d706c206973207a65726f416363657373436f6e74726f6c3a2063616e206f6e6c792072656e6f756e636520726f6c657320666f722073656c66a2646970667358221220aa5d70de9e5be5fd5de0dc637cfeb1e9ede4051823a9a3adc3b71919f14ec62264736f6c63430007060033436f696e616765466163746f7279534c4f543a2043616e6e6f742073657420612070726f787920636f696e61676520666163746f727920746f2061206e6f6e2d636f6e74726163742061646472657373df8b4c520ffe197c5343c6f5aec59570151ef9a492f2c624fd45ddde6135ec4250726f7879426173653a2043616e6e6f742073657420612070726f787920696d706c656d656e746174696f6e20746f2061206e6f6e2d636f6e747261637420616464726573735374616b65556e6973776170563350726f78793a206c6f676963206973207a65726f",
  "linkReferences": {},
  "deployedLinkReferences": {}
}